:020000040800F2
:100000007896002059CF000835CD000837CD00087C
:100010007DCF000881CF000885CF000800000000D8
:1000200000000000000000000000000089CF000870
:1000300039CD0008000000008DCF00083BCD00083E
:1000400091CF000895CF000899CF00089DCF0008F8
:10005000A1CF0008A5CF0008A9CF0008ADCF0008A8
:10006000B1CF0008B5CF0008B9CF0008BDCF000858
:10007000C1CF0008C5CF0008C9CF0008CDCF000808
:10008000D1CF0008D5CF0008D9CF0008DDCF0008B8
:10009000E1CF0008E5CF0008E9CF0008EDCF000868
:1000A000F1CF0008F5CF0008F9CF0008FDCF000818
:1000B00001D000083FCD000805D0000809D0000895
:1000C0000DD0000811D0000815D0000819D0000884
:1000D0001DD0000821D0000825D0000829D0000834
:1000E00045CD00082DD0000831D0000835D00008DB
:1000F00039D000083DD0000841D0000845D00008A4
:1001000049D000084DD0000851D0000855D0000853
:1001100059D000085DD0000861D0000865D0000803
:1001200069D000086DD0000871D0000875D00008B3
:1001300079D000087DD0000881D0000885D0000863
:1001400089D000088DD0000891D0000895D0000813
:1001500099D000089DD00008A1D00008A5D00008C3
:10016000A9D00008ADD00008B1D00008B5D0000873
:10017000B9D00008BDD00008C1D0000800000000C0
:10018000C5D00008C9D000082DE9F04FDFF818915C
:100190002DED108B99F80040ADB024B92DB0BDEC19
:1001A000108BBDE8F08FDFED3F7AD0ED008A90ED47
:1001B000019A90ED028A00911D461F46D9F8383009
:1001C0001446164668EEA78A29EE279A28EE278A53
:1001D000002B6FD0D9E90AABD9ED04AA99ED05AA95
:1001E000D9ED069AC9ED07AA0133052BC9E90CAB75
:1001F000C9E90A45C9ED048A89ED08AA89ED059A7D
:10020000C9ED099A89ED068A00DD0523C9F8383061
:10021000D9F83C0003F022FAD9E90245221845EB4F
:10022000010314461D46A64277EB0503C0F23B834B
:10023000B6EB0A0167EB0B02002A08BF65290E46E0
:1002400080F03183B4EB0A0065EB0B0103F068FA30
:1002500007EE906A07EE100AF8EEE77A87EE277A43
:10026000B5EEC07AF1EE10FA00F1E883F7EE007A0D
:1002700077EEC77AA246AB466AEEA7AA2AEE27AA6D
:1002800069EEA79AE8EE87AAC9E902ABA9EE07AA28
:10029000E8EE079AF0EE6A8AB0EE4A9AB0EE698A02
:1002A00017E000BFC3F51C4198090020C6FAD03DF5
:1002B000C6FAD0BD11462A46C9E90A12C9E9021296
:1002C0000123C9ED048A89ED059A89ED068AC9F8EA
:1002D000383099F951301FED0B3A1FED0B5AD9F810
:1002E0004C50CDED108A04EE103A99F954308DED52
:1002F000119A04EE903A99F957308DED128A03EE77
:10030000903A99F9503007EE903A99F9533005EE4A
:10031000903A99F9563006EE103A99F95230B8EE03
:10032000C44A06EE903AF8EEE44A99F95530F8EEF0
:10033000E33AF8EEE77A07EE103A24EE094A64EE63
:10034000894AF8EEE55A63EE893AB8EEC66A99F939
:100350005830A7EEA84AE5EEA84A07EE903AE6EE36
:10036000283AF8EEE66AB8EEC77AF8EEE77AA6EE33
:10037000884AE7EE084AE7EE883A8DED134ACDED5C
:10038000153ACDED144A64EE03BA24EE83CA63EE47
:10039000853A002D00F09682D9F85C30F44CD9F8FB
:1003A0006410D9F868200191013384FB0316D91732
:1003B000D9F87070EF48D9F8605099ED1B6AD9ED03
:1003C0001D6AC1EB661102F1010C01EB81017E1C7B
:1003D000A3EB011180FB0CE04FEAEC7384FB06E415
:1003E000C3EB6000F317C3EB640B00EBC0040BEB33
:1003F0008B030120ACEB0404A6EB030BC9F85C10E3
:10040000039402F109037E1DC9F84C005DB1019807
:10041000444204F01F0400F01F0058BF6042013046
:100420000190C9F864002BEEAB7A4FEA8108ACEE7C
:100430000C7AD148DFF838A3D9ED217AD9ED205ACA
:1004400099ED2A5A99ED220AD9ED2B0A99ED231A32
:10045000D9ED2C1A99ED242AD9ED2D2A99ED253ABA
:10046000A3EEA37A4F2909EB0804C24984ED7DCAA3
:1004700000EB080CC4EDCDBA03F1FF348CED507ADB
:10048000CCED003A81FB040C4FEAE470C0EB6C0049
:1004900000EBC00081FB03ECA4EB00004FEAE37427
:1004A00009EB8202C4EB6C0C82ED3E7A09EB800012
:1004B0000CEBCC0C90ED3E8AA3EB0C0409EB84040E
:1004C00067EE887A94ED3E8AE8EE257AA3F1020C75
:1004D00081FB0CE408BF0125C2ED477A90ED478A05
:1004E000D9ED2E5A08BFC9F860504FEAEC70C0EB46
:1004F000640404EBC404E8EE457AACEB040409EBB5
:10050000840494ED3E8A99ED265AE8EE007AA3F130
:10051000030C81FB0C0E4FEAEC70C2ED477A94EDB0
:10052000470AC0EB6E0000EBC000E0EE607AACEB77
:10053000000009EB8000D0ED3E0AE0EE817AA3F1E5
:10054000040C81FB0C4E4FEAEC74C2ED477A90ED3F
:10055000471AC4EB6E0404EBC404E1EE617AACEB21
:10056000040409EB8404D4ED3E1AE1EE827AA3F18F
:10057000050C81FB0C0E4FEAEC70C2ED477A94ED4E
:10058000472AC0EB6E0000EBC000E2EE627AACEBF3
:10059000000009EB8000D0ED3E2AE2EE837AA3F161
:1005A000060C81FB0C4E4FEAEC74C2ED477AC4EBAB
:1005B0006E0490ED473AD9ED342AD9ED330A99ED1E
:1005C000278AD9ED391A99ED302A99ED281A04EBCA
:1005D000C404ACEB0404E3EE657A09EB840006F195
:1005E000FF3ED0ED3E5A0290E5EE257A8AFB0E40A2
:1005F0004FEAEE74C4EB6000029CC2ED477A00EB58
:10060000800094ED473A99ED2F5AD9ED355AAEEB6B
:1006100000008AFB064E039CC9F86840F41709EBFA
:100620008707C4EB6E0487ED507A09EB800004EB7A
:10063000840490ED507A341B09EB840494ED500A45
:1006400027EE227AA3F1070C81FB0C4EA0EE207A54
:100650004FEAEC74C4EB6E0404EBC404E3EE457A99
:10066000ACEB040409EB8404A6F1020C87ED557A87
:10067000D0ED550A94ED3E0AD9ED3A2A99ED365A55
:1006800099ED313A8AFB0C0E4FEAEC70C0EB6E002C
:10069000E8EE007A00EB8000ACEB0000A0EEE17A1F
:1006A00009EB8000083BD0ED501AC2ED477A81FB80
:1006B000031CD917A1EEA57AC1EB6C0101EBC101B6
:1006C000D4ED475A87ED557AE2EE657A591AF41E51
:1006D00009EB81018AFB043CD1ED3E1A90ED552ACD
:1006E000D9ED3B5AE317C3EB6C03E1EE217A03EB40
:1006F0008303E31AA2EE627A09EB8303043ED3ED8F
:10070000502AC2ED477AA2EE857A8AFB060AF017D4
:1007100091ED475A87ED557AE3EE457AC0EB6A0AC8
:100720000AEB8A0A93ED555AC2ED477A134AC9F883
:1007300070B067EE867AA5EE657AA6EB0A0A02EB40
:10074000080309EB8A0AC3ED007AD9ED375ADAEDCE
:10075000507A99ED3C6AA5EEA77A02F5A07303EBF7
:10076000080287ED557AF0EE477A9AED557A07E060
:1007700067666666398EE3380C0E00208C10002008
:10078000E6EE477A66EEA76AC7ED557AC2ED006AD3
:10079000019A202A00F06A83DFF8F08216AC21ADBE
:1007A000D9F8C879002F00F07D81D9F8CC39A64A54
:1007B000A64ED9F8D01903F1010C82FB0C024FEAC6
:1007C000EC77C7EBE2079B0007EB470701F1010E4F
:1007D00006F1C000ACEB071706EB030CDEF1000AD4
:1007E0008CED00CA06F5C07200EB030C0AF01F0A7C
:1007F0001344CCED00BA4FF0010C0EF01F0EC3ED08
:10080000003A58BFCAF1000EC9F8C8C9002900F063
:100810007581D9F8180CD9F86430D9F87820D9F84E
:100820007C10C9F8CC79202BC9F8D0E9C9F8482C3C
:10083000C8F8041000F04082D9F8508CB9F84ECCBA
:1008400099F84CEC824F0FCF2E460FC60FCF0FC634
:1008500097E8070086E807000FCD0FC40FCD0FC43F
:1008600096E8070084E80700009B18AE83F800E0D4
:10087000C3F80480A3F802C003F1080520AF344692
:100880000FCCBC4228606960AA60EB60264605F187
:100890001005F4D12068286089F840E0C9F8448048
:1008A000A9F848C07AE4009899F84010D9F8442093
:1008B000B9F848300170426043802DB0BDEC108B18
:1008C000BDE8F08F634A64486449654CDFF8C0E1D5
:1008D000DFF8C0C1634F644EC9F880200023C9F817
:1008E000A020C9F8CC20C9F8DC20C9F888005F4AEC
:1008F000C9F898005E48C9F88430B7EE008AC9F894
:100900008C30C9F89430C9F89C30C9F89010594B14
:10091000C9F8D410C9F8A840C9F8ACE0564CDFF8C3
:1009200078E1C9F8B0C0C9F8B470DFF870C1534FAE
:10093000C9F8B860C9F8BC20514EC9F8C800802277
:100940002946DFF85C814F48CDED023AC9F8C43042
:10095000C9F8E4E0C9F8E8C0C9F86450C9F86050C3
:10096000C9E91E55C9F8C080C9F8D040C9F8D840B7
:1009700089ED298A89ED1B8A89ED388AC9F8F0301A
:10098000C9F8EC7089ED1D8A89ED3E8A89ED3F8AB0
:1009900089ED408A89ED418A89ED428A89ED438A51
:1009A00089ED448A89ED458A89ED468A89ED478A31
:1009B00089ED488A89ED498A89ED4A8A89ED4B8A11
:1009C00089ED4C8A89ED4D8A89ED4E8A89ED4F8AF1
:1009D00089ED508A89ED518A89ED528A89ED538AD1
:1009E00089ED548A89ED558A89ED568A89ED578AB1
:1009F00089ED588A89ED598AC9F86850C9F8F460B8
:100A0000C9F8705002F0B8FE01239B46C9F84C307B
:100A1000C9F85C3003931946F0EE486AC9F8E8510A
:100A2000C9F8EC51C9F8F051B0EE486A2F462A4691
:100A3000019505260923DDED023AF4E49FED127AD3
:100A4000F7EE007A18E400BFABAAAA2A6C130020C4
:100A5000E415002008B6743A08B674BB8688B73B24
:100A6000F6F5A0C01E57A441394F70C1AFB0EE409B
:100A7000CDCCCC3E3D0EB63E08B6743B249FE4BFC1
:100A8000295C0F3D000B00200000000090090020B1
:100A9000EF4248411AA09BC19E843EC01F075B40A5
:100AA000790A14C0E64ECDED013A3946BC22301D1C
:100AB00002F062FE3946BC2206F1C40002F05CFE80
:100AC000BC22394606F5C27002F056FE30461BEED7
:100AD000901ADDED013A40F8C01F012306F5C072FF
:100AE000C9F8CC79C9F8D079C9F8147C9E4686ED4E
:100AF00000CAC2ED003AC9F8C8391F46DFEDD95A1D
:100B00003346B0EE656AF0EE653AB0EE655AF0EE47
:100B1000654AB0EE654A0146F3EC016AB1EC017A30
:100B2000F2EC017A834234EE264AE6EEA63A74EEFF
:100B3000874AA7EE076A35EE275AE7EEA75AEBD1A8
:100B40009FEDC07ADFEDC06AD9F81C2C66EE077AFB
:100B500024EE074AE3EE877A013264EE874AE5EE37
:100B6000877A25EE075AE4EE447AE4EEE47AE5EE7D
:100B7000457AF4EEE67AF1EE10FA00F158859FED31
:100B8000B37AF4EEC77AF1EE10FA00F15E859FEDCC
:100B9000B07AF4EEC77AF1EE10FA00F111879FED0A
:100BA000AD7AF4EEC77AF1EE10FA01F10C809FED08
:100BB000AA7AF4EEC77AF1EE10FA01F12A819FEDDC
:100BC000A77AF4EEC77AF1EE10FA01F1E5819FED14
:100BD000A47AF4EEC77AF1EE10FA01F12B82B7EEA7
:100BE000007AF4EEC77AF1EE10FA01F1DD83B0EE8F
:100BF000087AF4EEC77AF1EE10FA01F1CC83B1EE87
:100C0000087AF4EEC77AF1EE10FA54BF0A230923EA
:100C1000C9F81C2CC9F8143CC9F8EC31D9F8283CA7
:100C20000133C9F8283C0F2A7FF4F3ADD9F8283CEA
:100C30000022032BC9F81C2C00F31585D9F8243C9D
:100C4000032B00F310854FF0020C0122D9F8303C41
:100C5000D9F834ACD9F8386CD9F83C1CC9F830ACA8
:100C6000022B08BF0132BAF1020F08BF0132D9F8D6
:100C7000403CC9F8346C022E08BF0132022908BF7B
:100C80000132022B08BF0132032AD4BF0020012009
:100C9000C9F8442C0022C9F8180CC9F8381CC9F846
:100CA0003C3CC9F840CCC9F8242CC9F8202CC9F820
:100CB000282CC9F82C2CAEE5D9F86030002B3FF475
:100CC000BBADD9F8F061D9F8783C9E4218BFC9F89D
:100CD000786CD9F87C6C062A00F29A80DFE802F082
:100CE000513F0490885D04000523042E89F84C3C94
:100CF0009E4600F08380C9F87C3C6AB1012A55D138
:100D0000012800F010870B2901F0AC800C2901F0BC
:100D100089800A2900F0D4854FF0000CD9F8842C82
:100D2000D9F8EC11A9F84ECC9A4218BFC9F8843C06
:100D300003F1020308BFD9F8502CC9F8801C09EB55
:100D4000830308BF02F10208D3F84C2C18BF4FF000
:100D500002080232C9F8508CC3F84C2C72E5012805
:100D600001F023810B2900F0A5860C2941F059815F
:100D70000223042E89F84C3C5AD09E46C9F87C3C8C
:100D8000BEE70027042E89F84C7C01F017813B4612
:100D9000C9F87C7CBE46BC46C0E70823042E89F80F
:100DA0004C3C00F016869E46C9F87C3CD9F8740984
:100DB000D9F87819A0EB020C8A42BCFA8CFCD9F85D
:100DC0007C194FEA5C1C08BF0CF1010C8A42D9F86F
:100DD000801908BF0CF1010C8A42D9F8841908BFA8
:100DE0000CF1010C8A4200F08A851FFA8CFC95E711
:100DF0000723042E89F84C3C9E46D5D173467AE7EA
:100E00000623042E89F84C3C9E46CDD1734672E7EA
:100E1000042E99F84CEC41F04580BEF1080F00F02B
:100E2000D885BEF1030F00F04B86BEF1020FE5D16D
:100E3000D9F8803C052B40F2D38502239E465AE721
:100E40006C130020ABAAAA3C9C53493617B7D13883
:100E500052499D3917B7513A6F12833A0AD7233C4A
:100E60009A99993E00000000CDCC4C3C002D3FF4F7
:100E700093AC1FED049A1D46A3F5A0731E46F0EE39
:100E800049EAF0EE49DAB0EE49EAB0EE49FAF0EE9E
:100E900049FAB0EE497AF0EE496AF0EE498AB0EECE
:100EA00049DAF0EE492AB0EE496AB0EE49BAF0EEFE
:100EB00049CAF0EE499AB0EE49AAF0EE49AAA5F562
:100EC000C864A5F5A060A5F57071A5F52072002392
:100ED000B2EE048A00E00133F2EC017AF4EC014A4C
:100EE000B0EC015AF1EC015AB6EC013AB5EC014A0A
:100EF000F4EEE78AF1EE10FAB4EEE78AB8BFF0EE4E
:100F0000678AF1EE10FA88BFB0EE678A7CEEA7CA56
:100F1000A7EEA7DA7AEEA4AAA4EEA4BA3AEE05AA3E
:100F2000A5EE056A79EEA59AE5EEA52A76EE836A26
:100F3000E3EE03FA37EE047AA4EE04FA002BCAD0EB
:100F400054ED021A10ED022A11ED023A12ED024A96
:100F500074EEE14A35EE425A75EEC35A77EEC47A22
:100F6000F0EEE44AB0EEC55AF0EEE55AF0EEE77A5C
:100F70004F2B3EEE24EA7DEE85DA7EEEA5EA39EED1
:100F8000279AA8D1D9F8E8215FED497AEB4B511C9B
:100F9000484200F007006AEEA7AA2AEE27AA69EEE7
:100FA000A79A6CEEA7CA09EB820701F0070116ACFD
:100FB00058BF414221ADC9F8E811C7ED5AAA87EDE3
:100FC00062AA03F18000C7ED6A9A2146C7ED72CA92
:100FD0002A46D3ED007A93ED015AC1ED007AB4EEC2
:100FE000E75AF1EE10FAB4EEE75ACABFF0EE455AEE
:100FF000F0EE675A81ED005AF1EE10FAC2ED007A78
:1010000044BFF0EE457A82ED005A93ED025AB4EEF9
:10101000E55AF1EE10FAB4EEE75AC4BFF0EE455AC5
:1010200081ED005AF1EE10FA44BFF0EE457A82ED00
:10103000005A93ED035AB4EEE55AF1EE10FAB4EE0D
:10104000E75AC4BFF0EE455A81ED005AF1EE10FAAE
:1010500044BFF0EE457A82ED005A93ED045AB4EEA7
:10106000E55AF1EE10FAB4EEE75AC4BFF0EE455A75
:1010700081ED005AF1EE10FA44BFF0EE457A82EDB0
:10108000005A93ED055AB4EEE55AF1EE10FAB4EEBB
:10109000E75AC4BFF0EE455A81ED005AF1EE10FA5E
:1010A00044BFF0EE457A82ED005A93ED065AB4EE55
:1010B000E55AF1EE10FAB4EEE75AC4BF81ED005ADA
:1010C000F0EE455AF1EE10FA44BF82ED005AF0EE10
:1010D000457A93ED075AB4EEE55AF1EE10FAB4EE04
:1010E000E75AC8BF81ED005A2033F1EE10FA48BF2D
:1010F00082ED005A834201F1040102F104027FF4FF
:1011000068AF29EEA92A8DED067AB0EE427AAAEEF2
:10111000AA7A4FF00008C2469DED161ADDED211A9D
:101120009DED174A9DED223A9DED185ADDED235AAB
:10113000DDED194ADDED247ACDED0A3A17EE100AFD
:1011400031EE617A74EEE77A8DED0D7A34EE437A02
:101150008DED096A8DED027A35EE657ACDED082ABE
:10116000CDED076A8DED052A8DED037ACDED017A7F
:1011700002F00CFB02F02EFB06460F461AEE100A98
:1011800002F004FB32463B4602F0BAFB02F0DCFC04
:10119000F0EEEA7ACDED047A02F02AFD8FEE8D7A38
:1011A0000C9004988DED0E7A02F0F0FA064619EED6
:1011B000900A0F4602F0EAFA02460B4630463946DC
:1011C00002F09EFB02F0C0FC02F012FD9FED5E3AC1
:1011D000DDED082A9DED052A9DED096ADDED076A22
:1011E0009DED067ADFED567A99ED325AD9ED3D5AEA
:1011F000544BDDED0A3A2BEE03BA6AEE4A1A2CEE96
:10120000EC1AB1EE6A4A92EE832A03F59E7B03F54F
:10121000A072E6EE031AADEE031AA4EE2ABA66EE49
:10122000836A27EE037A2BEE27BA61EEA71A22EE25
:10123000272A21EE271A00EE900AF0EEE97A75EEE1
:10124000662A35EEC73AF0EECA4ACDED0F7AF3ECD6
:10125000017A77EEE67A37EEC50AB5EEC00AF1EE0E
:1012600010FA0CDD13ED026A36EE666A36EE456A58
:10127000B5EEC06AF1EE10FA48BF0AF1010AB5EE08
:10128000C00AF1EE10FA0CD513ED026A36EE666A6A
:1012900036EE456AB5EEC06AF1EE10FAC8BF0AF143
:1012A000010A75EE277AF5EEC07AF1EE10FA0ADD42
:1012B00013ED026A32EE866AB5EEC06AF1EE10FAFC
:1012C00048BF0AF1010AF5EEC07AF1EE10FA0AD52C
:1012D00053ED027A72EEA77AF5EEC07AF1EE10FACB
:1012E000C8BF0AF1010AF2EC017A77EEC77A37EE4D
:1012F000E50AB5EEC00AF1EE10FA0CDD12ED026A55
:1013000036EE476A36EE656AB5EEC06AF1EE10FA5F
:1013100048BF08F10108B5EEC00AF1EE10FA1FD57A
:1013200012ED026A36EE476A36EE656AB5EEC06ABD
:10133000F1EE10FAC8BF08F1010811E0000B00201F
:1013400000401C4690100020CDCC4C3CE2E80E3F03
:10135000ABC70647DE56163FA9BE2E403735A2BFA3
:1013600075EEA77AF5EEC07AF1EE10FA0ADD12ED0D
:10137000026A33EE066AB5EEC06AF1EE10FA48BFB3
:1013800008F10108F5EEC07AF1EE10FA0AD552ED37
:10139000027A73EE277AF5EEC07AF1EE10FAC8BF42
:1013A00008F101085B457FF452AF18EE900ACDEDCD
:1013B0000B3ACDED0A0ACDED094ACDED081A8DEDB7
:1013C000072A8DED061A8DED054A02F0DFF902F0CD
:1013D00001FA064618EE100A0F4602F0D7F902F09D
:1013E000F9F90B4602463946304602F035FC02F068
:1013F000FFFB5FED2B6A5FED2B7AD9F8F0319DEDA5
:10140000054A9DED061A9DED072ADDED081ADDED72
:10141000094ADDED0A0ADDED0B3A2EEE26EA07EE6B
:10142000100AB4EEE7EAF1EE10FA6DEEA6DA6EEE0F
:10143000A6EA29EE269A40F21B815FED3B7AB4EED4
:10144000E71AF1EE10FA40F213815FED3E7ADDED1E
:10145000046AF4EEE76AF1EE10FA00F228855FED17
:10146000427AB4EEE79AF1EE10FA40F201815FEDB4
:10147000457ADDED0C6AF4EEE76AF1EE10FA40F21F
:10148000F7804FF0040CDFF83084D9F87839D8F8B9
:1014900000E0D9F87C29C9F87439C9F87829D9F855
:1014A0008039D9F88429C9F87C39BEF1010FC9F80F
:1014B0008029C9F884C900F05882EC4FD9F8940902
:1014C000D9F88829D9F88C19D9F89069D9F89839B8
:1014D000D9F8A0E907EA400AD9F89C0907EA4202CC
:1014E00007EA410107EA460607EA430307EA40071D
:1014F000ACF1020CC9F88829C9F88C19C9F89069AF
:10150000C9F894A9C9F89839C9F89C79BCF1040FB5
:1015100000F28580DFE81CF07F0087007A0005007C
:1015200078040133C9F8983902F0010C900748BFDC
:101530000CF1010C520740F11581BCF1020F40F093
:101540001181AEF102020121022AC9F8A4E9C9F809
:10155000A01940F29582BEF1050F40F07487DB08B8
:10156000C9F89839D9F8A0E9D9F8B009D9F8B87903
:10157000D9F8BCC9D9F8B4A9BEF1010FAEF1020186
:1015800000F0C1810023D9F87C60C9F878E0022915
:10159000C9F8AC09C9F8B0A9C9F8B479C9F8B8C98B
:1015A000C9F8A839C9F8BC6900F2238418461A465C
:1015B0000B2EC9F8C029C9F8C40900F0FD810C2E12
:1015C00002D10130C9F8C4091923002612F0010F15
:1015D00018BF0136013B4FEA5202F7D1122E00F339
:1015E000DF80192210F0010F18BF0133013A4FEAD2
:1015F0005000F7D10B2BCCBF0C230A23022900F299
:10160000A9800C23C9F87C30FFF7CAB80AF1010A97
:10161000C9F894A988E70131C9F88C1984E7013227
:10162000C9F8882980E70136C9F890697CE7D9F8BC
:10163000243CC9F81C2C00210133C9F8243CC9F80A
:10164000141CC9F8EC11FFF7EEBAD9F8203CC9F820
:101650001C2C01210133C9F8203CC9F8141CC9F81D
:10166000EC11FFF7E0BAD9F82CCC0022FFF7EEBA64
:1016700007EE908AF8EEE76AF2EE0A7AF4EEE76A8D
:10168000F1EE10FA00F28E8007EE90AAF8EEE77AFB
:10169000B2EE046AF4EEC67AF1EE10FA00F26E824F
:1016A000DFED737AF4EEE74AF1EE10FA07D9DFEDD9
:1016B000717AF4EEE7DAF1EE10FA00F29980022B7B
:1016C00000F07F849DED023A9DED0D5A9DED0C6A70
:1016D000F0EE4A5AF0EE6A7ADFED672AF4EEE2DACB
:1016E000F1EE10FA00F2F8839FED646AF4EEC65A48
:1016F000F1EE10FA00F2EC84DFED617AF4EEE7DA55
:10170000F1EE10FA40F2BE87DFED5E7AB4EEE7BA92
:10171000F1EE10FA00F2B287DFED5B7AF4EEE75AF1
:10172000F1EE10FA00F29D87DFED587AF4EEE7EA69
:10173000F1EE10FA01F26D87DFED557ADDED046A06
:10174000F4EEE76AF1EE10FA94BF4FF0050C4FF09B
:10175000010C98E6BEF1050F08BF0B23C9F87C30D9
:10176000FFF71EB8880701F0010248BF01324807A1
:1017700040F13D81022A40F03A81C9F8A4E9C9F854
:10178000A029734623F00402012A00F05F82062B91
:101790007FF4E8AE0023D9F8A0E9C9F89C39E3E664
:1017A0000B232BE7DFED3B7AB4EEE71AF1EE10FAEC
:1017B00000F28E81F3EE017AF4EEE76AF1EE10FAB0
:1017C00000F2798307EE90AAF8EEE77AB2EE006AAB
:1017D000F4EEC67AF1EE10FA7FF671AFDFED2E7AF5
:1017E0009DED016AB4EEE76AF1EE10FA3FF667AFDD
:1017F000DFED2A7AB4EEE7DAF1EE10FA00F2978123
:10180000DFED277ADDED0E6AF4EEE76AF1EE10FA0D
:1018100040F2BA80DFED237AF4EEE7DAF1EE10FA67
:1018200040F2B280DFED207AF4EEE76AF1EE10FAD2
:1018300000F24686DFED1D7AF4EEE7CAF1EE10FA0B
:1018400000F2A280DFED1A7AB4EEE7FAF1EE10FAB8
:1018500000F21A86DFED177AB4EEE72AF1EE10FAFD
:1018600040F292804FF0030C0DE600BFFEFFFF3FF9
:101870003CD8763FDD79823D14D0C43C4511823E90
:1018800015C6963CD3B14F41EDBB223DB62C1F3D52
:10189000139A243EDA618E448A3C893DE2FE1C4361
:1018A000F73CDF3DC85CF93D90F9203E9DF4943F44
:1018B000603DB042B0948743900900208FC2753DCF
:1018C000D9F87429D9F87819A2F1010CBCFA8CFC6A
:1018D000D9F87C294FEA5C1C012908BF0CF1010CE6
:1018E000012AD9F8802908BF0CF1010C012AD9F886
:1018F000842908BF0CF1010C012A7FF476AA0CF1AF
:10190000010CFFF772BAD9F8A8390133782BC9F85E
:10191000A83900F0358302DD7823C9F8A8397BEEB9
:10192000217A5FED1A6AD9F8F03177EE827A0122D6
:10193000F4EEE67AF1EE10FAC9F8782040F1C881A9
:101940000A26D9F8C029C9F8AC09D9F8C439C3485E
:10195000C9F8B0A900EA4202C9F8B479C9F8B8C90F
:10196000C9F8BC6900EA430022E600231F46C9F813
:10197000A4E9C9F8A0E9C9F8A839C8F800309A461E
:101980001E4619461A46B3E5DFEDB57AB4EEE7AA6E
:10199000F1EE10FA02DD0123C9F8F031DFEDBC7A77
:1019A000B4EEE7AAF1EE10FA43BF0223C9F8F03112
:1019B0009C464FF0020C66E50132C9F8C02903E6E7
:1019C0000223C9F81C2CC9F8143CC9F8EC31FFF704
:1019D00025B94FF0040E89F84CEC7346FFF78BB92C
:1019E0000426334689F84C6CB646FFF784B9B10734
:1019F00006F0010248BF0132700752D41AF0020FFC
:101A00000AF0010218BF01321AF0040F40D103F0AE
:101A10000102990748BF0132580748BF0132190730
:101A200048BF0132D80648BF0132990648BF01328B
:101A3000580648BF0132190648BF0132D80548BFD1
:101A40000132990548BF0132580548BF01321905D6
:101A500048BF0132D80448BF0132990448BF01325F
:101A6000580448BF0132082A40F3B6800EF1FF3314
:101A70000522032BC9F8A4E9C9F8A0293FF672ADE5
:101A80000023C9F88C39C9F89039C9F8943969E547
:101A9000022ABCD10423C9F8A039C9F8A4E97346C5
:101AA00070E6022AAAD10323C9F8A039C9F8A4E92B
:101AB000734667E60323042E89F84C3C7FF45DA946
:101AC000D9F8803C052B8BD903239E46FFF713B929
:101AD000DFED647AF4EEE79AF1EE10FA00F22D826F
:101AE000F3EE027AF4EEE76AF1EE10FA3FF680AE1A
:101AF000DFED5D7AB4EEE77AF1EE10FA00F2898458
:101B0000DFED5A7A9DED0E6AB4EEE76AF1EE10FA57
:101B10007FF6D5ADDFED567AB4EEE7BAF1EE10FA06
:101B20007FF666AECBE5B9F844CCFFF7F7B8DFED4A
:101B3000517AF4EEE7CAF1EE10FA00F2B98207EE3C
:101B400090AAF8EEE77AF3EE0A6AF4EEE67AF1EE9E
:101B500010FA00F24882DFED486AB4EEE62AF1EEB0
:101B600010FA00F22A84DFED457AB4EEE7EAF1EEEE
:101B700010FA7FF609AF4FF0030C84E4DFED407AF2
:101B8000F4EEE74AF1EE10FA3FF632AEDFED3D7AC1
:101B90009DED026AB4EEE76AF1EE10FA00F2E1831D
:101BA000DFED397A9DED016AB4EEE76AF1EE10FAE5
:101BB00000F2AF84DFED357AF4EEE7DAF1EE10FAF9
:101BC0007FF616AE7BE50323C9F81C2CC9F8143C3C
:101BD000C9F8EC31FFF722B807F00103B90748BF95
:101BE00001337A0748BF0133380748BF0133F9068C
:101BF00048BF0133BA0648BF0133780648BF0133F6
:101C0000390648BF0133FA0548BF0133B80548BF5C
:101C10000133790548BF01333A0548BF0133F80461
:101C200048BF0133B90448BF01337A0448BF0133C8
:101C3000082B7FF799AC0EF1FF330622032BC9F86E
:101C4000A4E9C9F8A0297FF61BAF8BE40022012B81
:101C5000C9F898293FF49EAD84E400BFFEFFFF3F22
:101C60003333333FC30CEDBEE4875A3F50E1883C29
:101C700028A6964413D2D43F01E2CC42683D7C3D75
:101C800051F5473FAE62413FAE62913D46451C3E35
:101C9000333333BF5A9E3F3F6F12833AA8355D3FBF
:101CA0009A9999BE4D84ED3EDA8F23456C09F93C33
:101CB000658D123FF90F49BFF5B9B2BF9A99193E28
:101CC000666626BFCDCCCC3ECDCC4C3F3333B33E45
:101CD0005FED117AF4EEE79AF1EE10FA00F18780E9
:101CE000012B00F0B081022B47D05FED167ADDEDBD
:101CF0000F6AF4EEE76AF1EE10FA00F280815FED10
:101D00001A7AF4EEE7AAF1EE10FA00F20E825FED15
:101D10001D7ADDED026AF4EEE76AF1EE10FA00F2E8
:101D200039815FED217AF4EEE79AF1EE10FA00F2D4
:101D3000AD845FED247A9DED0C6AB4EEE76AF1EEB6
:101D400010FA00F2DE855FED287AF4EEE71AF1EE84
:101D500010FA00F21F815FED2B7AB4EEE77AF1EE14
:101D600010FA00F2A4855FED2E7AF4EEE76AF1EE48
:101D700010FA94BF0B260C26E3E55FED327AF4EE01
:101D8000E70AF1EE10FA0DD55FED357AF4EEE70AC9
:101D9000F1EE10FA06DD5FED377AF4EEE74AF1EE88
:101DA00010FA24D45FED3A7AB4EEE7AAF1EE10FA15
:101DB00000F1F080FEEE087AF4EEE7AAF1EE10FAF8
:101DC00006D55FED407AB4EEE71AF1EE10FA0ED4C4
:101DD0005FED437AB4EEE7AAF1EE10FA85DD5FED30
:101DE000457AB4EEE71AF1EE10FA7FF57EAF0B26D6
:101DF000A7E5E148D9F8C029D9F8C43900EA420278
:101E000000EA4300FFF7D4BB0137C9F89C79FFF71C
:101E10008BBB0423C9F81C2CC9F8143CC9F8EC315D
:101E2000FEF7FCBED9F8AC29D9F8B019A2F10C0C18
:101E3000BCFA8CFCD9F8B4294FEA5C1C0C2908BF09
:101E40000CF1010C0C2AD9F8B82908BF0CF1010CCF
:101E50000C2AD9F8BC2908BF0CF1010C0C2A7EF41D
:101E6000C4AF4CE5D9F8AC29D9F8B019A2F10B0CE4
:101E7000BCFA8CFCD9F8B4294FEA5C1C0B2908BFCA
:101E80000CF1010C0B2AD9F8B82908BF0CF1010C90
:101E90000B2AD9F8BC2908BF0CF1010C0B2A7EF4DF
:101EA000A4AF2CE5C9F87CEC7346FEF77FBF4FF07A
:101EB000040CFFF7E8BADFEDB17AF4EEE71AF1EEC1
:101EC00010FA00F2F980DFEDAE7AB4EEE71AF1EE27
:101ED00010FA7FF6F4AB8BE4DFEDAA2AB4EEE22A27
:101EE000F1EE10FA8FEE0D0A00F2E681DFEDA66A40
:101EF0009DED0F5AB4EEE65AF1EE10FA00F2AC8204
:101F0000DFEDA26AB4EEE66AF1EE10FA40F20F8459
:101F1000DFED9F6AB4EEE6FAF1EE10FA00F25B86AE
:101F2000DFED9C6AF4EEE67AF1EE10FA94BF4FF022
:101F3000050C4FF0010CFFF7A6BADFED977AB4EE6F
:101F4000E72AF1EE10FA7FF653ACDFED947AF4EE67
:101F5000E7FAF1EE10FA3FF64BACF3EE057AF4EE49
:101F6000E76AF1EE10FA3FF643ACDFED8D7A9DEDB6
:101F7000036AB4EEE76AF1EE10FA3FF6A0AB37E47D
:101F80000023C9F88C39C9F89039C9F89439C9F8CF
:101F90009839C4E40C26D4E40523C9F81C2CC9F8EC
:101FA000143CC9F8EC31FEF739BE04239E4289F88F
:101FB0004C3C7EF4E2AEB646FEF720BFBE46FEF7CE
:101FC0001DBF9DED0D6AB1EE465A9DED026AB1EE60
:101FD000463A9DED0C6AF0EE447AB1EE466AF1EEB7
:101FE0004A5AFFF779BBDFED6F7AF4EEE7DAF1EEEC
:101FF00010FA7FF6C9AC4FF0030CFFF744BADFEDDF
:102000006A7AF4EEE7DAF1EE10FA7FF6F0AEDFED81
:10201000677AB4EEE7AAF1EE10FA94BF0B260C260D
:102020008FE40123042E89F84C3C9E467EF4A6AE34
:10203000FEF7E4BE0623C9F81C2CC9F8143CC9F805
:10204000EC31FEF7EBBDDFED5A7AF4EEE70AF1EE84
:1020500010FA0ED5DFED577AF4EEE70AF1EE10FA3A
:1020600007DDDFED557AF4EEE74AF1EE10FA3FF5C1
:10207000BEAEDFED527AB4EEE7AAF1EE10FA89DCDB
:10208000F6EE087AF4EEE7AAF1EE10FA07DDDFEDDE
:102090004C7AB4EEE71AF1EE10FA3FF5A8AEDFED98
:1020A000497AB4EEE7AAF1EE10FA3FF598AE1CE6D5
:1020B0004FF0030CFFF7E7B9DFED437A9DED016ABE
:1020C000B4EEE76AF1EE10FA7FF692ABFFF7F7BADB
:1020D0009FED3E6AF4EEC69AF1EE10FA00F2F4813A
:1020E0009FED3B6AB4EEC63AF1EE10FA00F255836A
:1020F0009FED386AB4EEC62AF1EE10FA00F288833A
:10210000DFED356AF4EEE6EAF1EE10FA00F26183F3
:10211000DFED327AB4EEE73AF1EE10FA94BF4FF009
:10212000050C4FF0010CFFF7AEB9DFED2D7A9DEDF8
:10213000027AB4EEE77AF1EE10FA3FF62BAFDFED5C
:10214000297AB4EEE7AAF1EE10FA00F21783DFED78
:10215000267ADDED036AF4EEE76AF1EE10FA7FF617
:1021600019AFDFED227AB4EEE77AF1EE10FA94BF00
:102170000C260B26FFF7E5BBFEFFFF3F9F5A884367
:102180001540AD43FB578541B072783F8CD7C4BE34
:10219000ABDA84428D287DBE0A203144B2638E4082
:1021A000B3ED043E9566F33D331B043ED53E1DBEA4
:1021B000F90F49BFA60A86BF9A99193E6666263F5F
:1021C000CDCCCC3ECDCC4CBF5E63173D9F3C30BFE9
:1021D00001DEE23D87A68D417CD54A3CD712323DD7
:1021E00056B79A3FA3926ABF1B64723EACA8813D6A
:1021F0000611A9BCE108023E3B38983EE939E341AB
:1022000098DD133DFAB6783F8C11713F0D36953D40
:102210003E758CBE3867443DFC71CB3E325564BF81
:102220005E4B70BF66DF2343F71ED03F7A7ED043FC
:102230005A2E993F121B65434F3E973F78C0B544D5
:10224000098A9F3CE63FE43D14B7F141520D6645D3
:10225000BF6896422A82A54217BA923C168308416B
:1022600032AC623C5EF6EB3CBBE973453D2C08BFEB
:10227000F2953C3F8919A7418B1658BF0A683E3F2B
:10228000FD84133EE86B723F4BEA5CBF567D7E3E99
:10229000596E193E9D483C3F9E43313F2C96534218
:1022A0003A5DA14211AAD43BF33E8E3D9319EF3C17
:1022B00076AABCBD355E7A3F5FED332AF4EEE27A52
:1022C000F1EE10FA00F241815FED366AF4EEE65A63
:1022D000F1EE10FA00F255815FED397AF4EEE7DAAB
:1022E000F1EE10FA00F22F835FED3C7AB4EEE72AAC
:1022F000F1EE10FA00F223835FED3F7AF4EEE7DAB5
:10230000F1EE10FA00F23B835FED427AF4EEE7CA99
:10231000F1EE10FA00F22F835FED457AF4EEE7CA92
:10232000F1EE10FA40F246835FED487AB4EEE79A98
:10233000F1EE10FA40F21B835FED4B7AB4EEE76AE0
:10234000F1EE10FA40F2AB825FED4E7AF4EEE74A1E
:10235000F1EE10FA94BF4FF0010C4FF0060CFFF7AE
:1023600092B85FED537AF4EEE7EAF1EE10FA3FF639
:10237000A6A95FED567AF4EEE7AAF1EE10FA7FF621
:102380009EA95FED597AF4EEE79AF1EE10FA7FF626
:1023900096A9FFF72DBA0823C9F81C2CC9F8143CDC
:1023A000C9F8EC31FEF73ABC0723C9F81C2CC9F870
:1023B000143CC9F8EC31FEF731BC5FED666AF4EE0F
:1023C000E61AF1EE10FA7FF6DFAA5FED696AB4EE65
:1023D000E67AF1EE10FA3FF6D7AA5FED6C6AB4EE3A
:1023E000E62AF1EE10FA00F2A6815FED6F6AF4EED4
:1023F000E6CAF1EE10FA00F21084F3EE096AF4EE88
:10240000E67AF1EE10FA3FF6BFAA4FF0030CFFF7A1
:102410003AB85FED787AF4EEE71AF1EE10FA00F2CE
:1024200072815FED7B7AB4EEE77AF1EE10FA3FF657
:1024300046A95FED7E7AB4EEE71AF1EE10FA7FF668
:102440003EA9FFF7D5B9BEF1060F7FF48BA8FF08B0
:10245000C9F89C79FFF786B85FED876AF4EEE67AF3
:10246000F1EE10FA95BF5FED897A5FED897AF4EEAF
:10247000E75AB4EEE7BAF1EE10FA94BF4FF0010C50
:102480004FF0060CFEF7FFBF5FED907AB4EEE71A4F
:10249000F1EE10FA00F25B815FED937AB4EEE7BAE9
:1024A000F1EE10FA00F2F3815FED967AB4EEE72ACE
:1024B000F1EE10FA3FF668AA4FF0030CFEF7E3BF07
:1024C0004FF0030CFEF7DFBF5FED9D7AF4EEE7DA25
:1024D000F1EE10FA40F25D815FEDA07AB4EEE72AEA
:1024E000F1EE10FA00F2D7815FEDA37AF4EEE7EA9D
:1024F000F1EE10FA40F2D7815FEDA67AF4EEE7EA4A
:10250000F1EE10FA94BF4FF0050C4FF0010CFEF7FE
:10251000BABF5FEDAB7AF4EEE71AF1EE10FA7FF690
:10252000CEA85FEDAE7AF4EEE79AF1EE10FA7FF600
:10253000C6A85FEDB17A9DED026AB4EEE76AF1EEEE
:1025400010FA7FF655A9FFF7BAB85FEDB65AF4EE68
:10255000E51AF1EE10FA33D85FEDB97AF4EEE79AA6
:10256000F1EE10FA40F200855FEDBC7AF4EEE74A36
:10257000F1EE10FA94BF4FF0050C4FF0010CFEF78E
:1025800082BF5FEDC16A9DED034AB4EEE64AF1EE0B
:1025900010FA00F2EB855FEDC56AF4EEE6CAF1EEE3
:1025A00010FA00F2B8855FEDC87AF4EEE79AF1EE22
:1025B00010FA94BF4FF0050C4FF0010CFEF763BF0B
:1025C0005FEDCE5AB4EEE55AF1EE10FA00F2F28366
:1025D0005FEDD16AF4EEE6DAF1EE10FA00F2CF83A5
:1025E0005FEDD46AB4EEE66AF1EE10FA00F20A8406
:1025F0005FEDD77AF4EEE74AF1EE10FA00F2BB8312
:102600005FEDDA7AB4EEE71AF1EE10FA00F29F838A
:102610005FEDDD7AB4EEE7FAF1EE10FA00F29383A3
:102620005FEDE07ADDED016AF4EEE76AF1EE10FAB3
:1026300040F285835FEDE47AB4EEE7EAF1EE10FA5A
:1026400000F279835FEDE77ADDED036AF4EEE76A85
:10265000F1EE10FA94BF4FF0050C4FF0060CFEF7A8
:1026600012BF5FEDED7AF4EEE70AF1EE10FA94BFD7
:102670004FF0050C4FF0010CFEF705BF4FF0010CB9
:10268000FEF701BF4FF0010CFEF7FDBE5FEDF77ADC
:10269000DDED016AF4EEE76AF1EE10FA3FF67AAC8E
:1026A000DFEDDD7AF4EEE7EAF1EE10FA3FF672AC18
:1026B000DFEDDA7AF4EEE7CAF1EE10FA00F24E82BC
:1026C000DFEDD77AB4EEE7BAF1EE10FA7FF662AC3E
:1026D000DFEDD47AF4EEE71AF1EE10FA00F2908111
:1026E000DFEDD17AB4EEE7AAF1EE10FA3FF652AC84
:1026F000DFEDCE7AB4EEE7AAF1EE10FA94BF0C2625
:102700000B26FFF71EB9DFEDCA7A9DED0E6AB4EE17
:10271000E76AF1EE10FA7EF6D2AFDFEDC67AB4EEDC
:10272000E79AF1EE10FA7FF663A8FEF7C8BF4FF004
:10273000010CFEF7A8BEDFEDC07AF4EEE7CAF1EEB9
:1027400010FA7FF621A94FF0030CFEF79CBE07EEAE
:1027500090AAF8EEE76ADFEDB97AF4EEE76AF1EEF7
:1027600010FA2ED8DFEDB67AB4EEE7BAF1EE10FA31
:102770007FF60AA94FF0030CFEF785BEDFEDB17AB4
:10278000F4EEE79AF1EE10FA94BF0B260C26FFF751
:10279000D8B84FF0010CFEF776BEDFEDAB7AF4EE61
:1027A000E75AF1EE10FA10D9DFEDA87AF4EEE7CA95
:1027B000F1EE10FA94BF4FF0010C4FF0050CFEF74C
:1027C00062BE4FF0030CFEF75EBE4FF0010CFEF749
:1027D0005ABEDFED9F6AF4EEE67AF1EE10FA31D8D8
:1027E000DFED9C7ADDED0E6AF4EEE76AF1EE10FAA9
:1027F00024D9DFED997ADDED016AF4EEE76AF1EEB6
:1028000010FA94BF4FF0050C4FF0010CFEF73BBEE1
:10281000DFED927A9DED016AB4EEE76AF1EE10FA0F
:1028200024D8F7EE007AF4EEE76AF1EE10FA94BFDE
:102830004FF0050C4FF0010CFEF725BE4FF0050CD4
:10284000FEF721BEDFED867AB4EEE7FAF1EE10FA7C
:1028500019D8DFED847AB4EEE75AF1EE10FA94BF9E
:102860004FF0010C4FF0050CFEF70DBEDFED7E7A48
:10287000B4EEE77AF1EE10FA94BF4FF0060C4FF089
:10288000010CFEF700BE4FF0050CFEF7FCBD4FF04B
:10289000030CFEF7F8BD4FF0010CFEF7F4BD4FF04E
:1028A000050CFEF7F0BD4FF0010CFEF7ECBDDFEDBF
:1028B0006F7AF4EEE7EAF1EE10FA35D8DFED6C7AD4
:1028C000B4EEE7DAF1EE10FA3FF691AADFED697A9D
:1028D000F4EEE74AF1EE10FA7FF689AADFED667AA8
:1028E000F4EEE7DAF1EE10FA3FF681AADFED637A53
:1028F000F4EEE7AAF1EE10FA94BF0C260B26FFF7D0
:1029000020B8DFED5F7AF4EEE7CAF1EE10FA7FF659
:1029100041ABDFED5C7AB4EEE71AF1EE10FA94BF4A
:102920000B260C26FFF70DB8DFED577AB4EEE7BAA9
:10293000F1EE10FA94BF0C260B26FFF702B84FF009
:10294000010CFEF7A0BDDFED517AF4EEE79AF1EE4F
:1029500010FA33D8DFED4E7AB4EEE75AF1EE10FA02
:1029600094BF4FF0050C4FF0010CFEF78CBD4FF0FB
:10297000010CFEF788BD4FF0010CFEF784BDDFEDC2
:10298000457AB4EEE7BAF1EE10FA31D8DFED427ACB
:10299000F4EEE75AF1EE10FA26D9DFED407AF4EEC4
:1029A000E79AF1EE10FA94BF4FF0060C4FF0050CC9
:1029B000FEF769BD4FF0010CFEF765BDDFED387A1B
:1029C000B4EEE71AF1EE10FA16D8DFED367ADDED47
:1029D000036AF4EEE76AF1EE10FA94BF4FF0010CCF
:1029E0004FF0050CFEF74FBD4FF0010CFEF74BBD4D
:1029F0004FF0010CFEF747BD4FF0050CFEF743BD4D
:102A0000DFED297AF4EEE7AAF1EE10FA94BF0B2677
:102A10000C26FEF796BF00BF9291F33DD0B8703FF1
:102A2000EF721B4166BDCC40FCC65F3FD521F7BDB0
:102A3000E1B3F53D45BD843F13B6AF3F00000C4206
:102A4000C5FEA54460E5003FD7C01A3FF7E9783FCF
:102A50007E57843D0B60CA395AF0A23CCF100E3C21
:102A600033909542AB3EB73D882B673E0CEA3B3E28
:102A7000ADB78E425B25183E0F281B3D21B072BEBC
:102A8000179A733F0EC9C0431BA92E45FE7CE3BEB7
:102A90009B55B73E7AB566426B2BB6BE16FB77BF29
:102AA000F5509B46D9E9573F25586CBF4EB4CB3EF5
:102AB0000E67954275CDA43DD8D895BE7B3134BE06
:102AC000280F973F7715823ED8C3C341943B964267
:102AD000C8918F42CD595F3DE7182544F2B2E63DDB
:102AE000C43F0C3E5BB6363EFA221941944DB93BC9
:102AF00054C4E93C8C147A3E8CB9EBBC31427C3F27
:102B000026C79D3D643B3FBF0938043E09C6493F87
:102B100044308E3C6A17AB3ED82CD73E42B06A3E5A
:102B2000832F3C3FAC72A1BE86AA983C37530F431B
:102B30009FCD22BF450ED13E5FF48B42DB300A3E73
:102B4000860AAD434D9A8F42DE91D13D1F82C23E2F
:102B5000085ABC44C6A51A3E60394A3F5FED2D7A3B
:102B6000B4EEE7AAF1EE10FA00F224825FED307ABB
:102B7000B4EEE7DAF1EE10FA00F2FA815FED337AA3
:102B8000DDED0C6AF4EEE76AF1EE10FA3FF62FA9DC
:102B90005FED377AB4EEE7AAF1EE10FA00F2828226
:102BA0005FED3A7AF4EEE79AF1EE10FA7FF6F2A9C9
:102BB0005FED3D7AF4EEE70AF1EE10FA00F2A6803E
:102BC0005FED407AB4EEE77AF1EE10FA94BF0B268F
:102BD0000C26FEF7B6BE5FED447AB4EEE7BAF1EE2E
:102BE00010FA76D95FED477AB4EEE7FAF1EE10FA13
:102BF00054D85FED497AB4EEE7FAF1EE10FA2FD827
:102C00005FED4C7AF4EEE75AF1EE10FA94BF4FF014
:102C1000010C4FF0050CFEF736BC5FED517AB4EEB7
:102C2000E7BAF1EE10FA7EF6AFAE5FED547AF4EE4D
:102C3000E7EAF1EE10FA3EF6A7AE5FED577AB4EE92
:102C4000E7EAF1EE10FA21D85FED5A7AF4EEE7DA0E
:102C5000F1EE10FA7EF698AE4FF0030CFEF713BCBF
:102C60005FED5F7AB4EEE72AF1EE10FA12D95FED6C
:102C7000617ADDED016AF4EEE76AF1EE10FA94BFD5
:102C80004FF0050C4FF0060CFEF7FDBB4FF0030CA8
:102C9000FEF7F9BB4FF0050CFEF7F5BB5FED6C7A64
:102CA000F4EEE7DAF1EE10FA1BD85FED6E7AF4EE8F
:102CB000E74AF1EE10FA10D85FED717AF4EEE70A08
:102CC000F1EE10FA94BF4FF0010C4FF0050CFEF737
:102CD000DABB4FF0050CFEF7D6BB4FF0050CFEF744
:102CE000D2BB5FED7A7AB4EEE70AF1EE10FA40F269
:102CF000E4815FED7D7AB4EEE7EAF1EE10FA94BF7D
:102D00004FF0050C4FF0010CFEF7BDBB5FED837A71
:102D1000F4EEE7AAF1EE10FA3FF63CA95FED867AF1
:102D20009DED027AB4EEE77AF1EE10FA94BF0B262D
:102D30000C26FEF706BE4FF0050CFEF7A4BB4FF0C5
:102D4000050CFEF7A0BB4FF0050CFEF79CBB5FED3A
:102D5000917AB4EEE70AF1EE10FA67D85FED947A53
:102D6000B4EEE76AF1EE10FA94BF4FF0010C4FF0A9
:102D7000060CFEF788BB4FF0010CFEF784BB5FED3D
:102D80009B6AF4EEE67AF1EE10FA6BD85FED9E6A7C
:102D9000B4EEE6EAF1EE10FA30D95FEDA06AF4EE97
:102DA000E67AF1EE10FA94BF4FF0050C4FF0060CE6
:102DB000FEF769BB5FEDA67AB4EEE73AF1EE10FAE2
:102DC00075D85FEDA87AB4EEE76AF1EE10FA5AD83A
:102DD0005FEDAB7ADDED016AF4EEE76AF1EE10FA31
:102DE0004DD85FEDAE7AF4EEE71AF1EE10FA94BF2B
:102DF0004FF0010C4FF0060CFEF745BB4FF0050CF1
:102E0000FEF741BB5FEDB66AF4EEE69AF1EE10FA1A
:102E100020D95FEDB86AF4EEE67AF1EE10FA94BFCD
:102E20004FF0010C4FF0060CFEF72DBB5FEDBE7AA4
:102E3000B4EEE7FAF1EE10FA10D85FEDC07AB4EE16
:102E4000E79AF1EE10FA94BF4FF0010C4FF0060C28
:102E5000FEF719BB4FF0050CFEF715BB4FF0060C43
:102E6000FEF711BB5FEDCA7AB4EEE72AF1EE10FA75
:102E700094BF4FF0050C4FF0060CFEF704BB4FF06B
:102E8000010CFEF700BB5FEDD17AB4EEE7FAF1EE8C
:102E900010FA10D85FEDD47AF4EEE7DAF1EE10FA1A
:102EA00094BF4FF0010C4FF0050CFEF7ECBA4FF059
:102EB000010CFEF7E8BA5FEDDB7AF4EEE7EAF1EE3B
:102EC00010FA00F2F4825FEDDE7AF4EEE71AF1EE2A
:102ED00010FA00F2D68207EE90AAF8EEE77AF2EE48
:102EE000045AF4EEE57AF1EE10FA00F2AE825FEDEC
:102EF000E75AF4EEE5DAF1EE10FA00F292825FEDB5
:102F0000EA5AB4EEE55AF1EE10FA00F26E82DFED05
:102F1000DF5AB4EEE56AF1EE10FA00F25982DFED05
:102F2000DC6AB4EEE6BAF1EE10FA00F23B82DFEDB5
:102F3000D97AF4EEE71AF1EE10FA40F2A281DFED51
:102F4000D67AB4EEE73AF1EE10FA00F26683DFEDDE
:102F5000D37AB4EEE77AF1EE10FA94BF4FF0010C99
:102F60004FF0060CFEF78FBA4FF0010CFEF78BBA4C
:102F7000DFEDCB7AF4EEE79AF1EE10FA2CD8DFED24
:102F8000C97AF4EEE71AF1EE10FA7EF630AFDFED13
:102F9000C67AB4EEE7EAF1EE10FA3EF6FBAFDFEDEB
:102FA000C37AF4EEE7EAF1EE10FA94BF0C260B2692
:102FB000FEF7C7BCDFEDBE7AF4EEE7DAF1EE10FA09
:102FC00030D8DFEDBC7AB4EEE7FAF1EE10FA94BF38
:102FD0000C260B26FEF7B5BCDFEDB77A9DED027A25
:102FE000B4EEE77AF1EE10FA2FD8DFEDB47AF4EE12
:102FF000E70AF1EE10FA3EF6CDAFDFEDB17AB4EEAE
:10300000E72AF1EE10FA3EF6C5AFDFEDAE7A9DEDA0
:10301000017AB4EEE77AF1EE10FA94BF0B260C2693
:10302000FEF78FBCDFEDA87AF4EEE79AF1EE10FA26
:103030007EF6B0AFDFEDA57AB4EEE77AF1EE10FAE6
:1030400094BF0C260B26FEF77CBCDFEDA17AB4EE14
:10305000E7AAF1EE10FA7EF69DAFDFED9E7AF4EE70
:10306000E71AF1EE10FA53D8DFED9B7A9DED017A65
:10307000B4EEE77AF1EE10FA23D8DFED987AB4EEE9
:10308000E7DAF1EE10FA3EF6B2AEDFED957A9DED9D
:103090000D7AB4EEE77AF1EE10FA94BF0C260B2607
:1030A000FEF74FBCDFED8F7AB4EEE77AF1EE10FA5F
:1030B00094BF0C260B26FEF744BC4FF0010CFEF724
:1030C000E2B9DFED897AB4EEE72AF1EE10FA7EF686
:1030D0008EAEDFED867AF4EEE7CAF1EE10FA3EF638
:1030E00086AEDFED837A9DED037AB4EEE77AF1EEFA
:1030F00010FA3EF67CAEDFED7F7A9DED0D7AB4EEF0
:10310000E77AF1EE10FA94BF0B260C26FEF719BCF5
:10311000DFED797A04E6DFED796AF4EEE6DAF1EED6
:1031200010FA00F2E981DFED766AF4EEE69AF1EE4C
:1031300010FA00F2C481DFED737AB4EEE75AF1EED3
:1031400010FA4BD8DFED707AF4EEE71AF1EE10FAD0
:1031500040D9DFED6E7AF4EEE7DAF1EE10FA94BFC3
:103160004FF0010C4FF0060CFEF78DB9DFED686AE9
:10317000F4EEE67AF1EE10FA40F23482DFED657A91
:10318000B4EEE7BAF1EE10FA00F22882DFED627ACF
:10319000F4EEE7CAF1EE10FA5AD8DFED607ADDED11
:1031A000016AF4EEE76AF1EE10FA33D8DFED5C7AEB
:1031B000B4EEE7BAF1EE10FA24D8DFED5A7AB4EEA5
:1031C000E7DAF1EE10FA94BF4FF0010C4FF0050C66
:1031D000FEF759B94FF0060CFEF755B9DFED527AFC
:1031E000F4EEE7EAF1EE10FA10D8DFED507AF4EEE3
:1031F000E75AF1EE10FA94BF4FF0010C4FF0050CB6
:10320000FEF741B94FF0010CFEF73DB94FF0060C47
:10321000FEF739B9DFED467ADDED036AF4EEE76AD1
:10322000F1EE10FA40F2E281DFED427AB4EEE75AB5
:10323000F1EE10FA21D9DFED407AB4EEE75AF1EE63
:1032400010FA94BF4FF0060C4FF0050CFEF71BB9B7
:10325000DFED3A7AF4EEE70AF1EE10FA00F2CA81F5
:10326000DFED377AB4EEE76AF1EE10FA94BF4FF073
:10327000060C4FF0050CFEF706B94FF0050CFEF7F3
:1032800002B94FF0060CFEF7FEB800BFCA8C3B3FF8
:1032900092ECA6443A374B4360E8F13E8E78EE3F1D
:1032A00019C552BE53966541807D743D25E99A3C0F
:1032B0001288D73CB3AF9242C2A38D3DF14BC1BF40
:1032C0008E985E4217D4373CAB09E23DB988EF3E99
:1032D0005C0333BFE71C6D44C0B2523CB9479F4208
:1032E000C251B23EA549893EE859C743BDE3843F78
:1032F000A9BC993F6F12833D91ED7C3E0760233E50
:10330000F2ED2DBF3BC89B3E8CF0CB434B1E8F3D57
:103310007A3580BF65A666433BE4803FDCD7713FCA
:10332000E496D9414A2D9942E981CF3D3A5C0F3F5D
:1033300074D0313FE17AD43D8A1C123F4BE88EBEF7
:1033400086CB2E3F1AFC7D3C0610FE3D696F20BFE8
:1033500017D6973F726B223E8A39824187A75FBF9B
:1033600081968E3D15E6B53EA5BE2C3D4110203E12
:1033700012A0663DF2E73C4432757B3F1B0F3A3F9B
:103380005C76283E23850142AB5D7B3FFB8D14427A
:10339000D93FAFBEE73ADC4343C9103F81E8893DDE
:1033A00043921DBFF1EE046AF4EEE67AF1EE10FAF4
:1033B0002FD85FED1C7ADDED016AF4EEE76AF1EEDD
:1033C00010FA94BF4FF0060C4FF0010CFEF75BB8FB
:1033D000F3EE017AF4EEE76AF1EE10FA94BF4FF0E3
:1033E000010C4FF0050CFEF74EB8F1EE046AF4EE56
:1033F000E67AF1EE10FA10D85FED2D7AB4EEE73AE6
:10340000F1EE10FA94BF4FF0060C4FF0010CFEF7EE
:103410003AB84FF0060CFEF736B84FF0060CFEF740
:1034200032B85FED367AF4EEE79AF1EE10FA20D971
:103430005FED397AB4EEE76AF1EE10FA94BF4FF01F
:10344000010C4FF0060CFEF71EB85FED3E7AB4EEAD
:10345000E73AF1EE10FA10D95FED417AF4EEE7FAAF
:10346000F1EE10FA94BF4FF0060C4FF0050CFEF78A
:103470000AB84FF0050CFEF706B84FF0010CFEF746
:1034800002B85FED4A7AF4EEE79AF1EE10FA12D93B
:103490005FED4D7ADDED016AF4EEE76AF1EE10FAC8
:1034A00094BF4FF0010C4FF0060CFDF7ECBF4FF04E
:1034B000060CFDF7E8BF4FF0050CFDF7E4BF5FED2C
:1034C000576AF4EEE60AF1EE10FA5FD85FED5A6A39
:1034D000DDED035AF4EEE65AF1EE10FA2DD85FED69
:1034E0005D7AF4EEE79AF1EE10FA94BF4FF0050C16
:1034F0004FF0060CFDF7C7BF5FED636A9DED036AF1
:10350000B4EEE66AF1EE10FA40F2A3805FED676A6E
:10351000B4EEE62AF1EE10FA00F28E805FED6A7AE0
:10352000DDED016AF4EEE76AF1EE10FA94BF4FF0B8
:10353000060C4FF0010CFDF7A6BF5FED706AB4EE0C
:10354000E66AF1EE10FA45D85FED736AB4EEE66A0A
:10355000F1EE10FA3AD95FED756AB4EEE62AF1EEB3
:1035600010FA2BD95FED786AF4EEE6CAF1EE10FAA4
:1035700010D85FED7A7AF4EEE71AF1EE10FA94BF04
:103580004FF0060C4FF0010CFDF77DBF4FF0010C22
:10359000FDF779BF5FED826AF4EEE67AF1EE10FA9C
:1035A00010D85FED847AB4EEE72AF1EE10FA94BFFA
:1035B0004FF0060C4FF0050CFDF765BF4FF0050C02
:1035C000FDF761BF4FF0010CFDF75DBF4FF0050C3B
:1035D000FDF759BF4FF0010CFDF755BF4FF0010C3F
:1035E000FDF751BF4FF0060CFDF74DBF4FF0010C3A
:1035F000FDF749BF5FED987ADDED016AF4EEE76A09
:10360000F1EE10FA94BF4FF0010C4FF0060CFDF7ED
:103610003ABF4FF0060CFDF736BF5FEDA07ADDED47
:10362000016AF4EEE76AF1EE10FA94BF4FF0010C74
:103630004FF0060CFDF727BF5FEDA76AF4EEE67AC0
:10364000F1EE10FA94BF4FF0050C4FF0010CFDF7AE
:103650001ABF4FF0050CFDF716BF00BFC0F3C752ED
:103660007E3A1DDDC1170002D2F1200240F0004079
:1036700003DDD04008444840704720320ADD20FA7C
:1036800002F3C2F12002904048404B40401A63EBE5
:1036900001017047413203D0C84380F000417047B8
:1036A000002000217047F0B4024610689568131896
:1036B000506803EB5004C0071DD54D441BE013F8C0
:1036C000017B05F8017B491EF9D1A0B1B60813F8BA
:1036D000011B06F00306032E08BF13F8016B01EB74
:1036E00006214942801C294405D011F8016B05F8D8
:1036F000016B401EF9D1A3420ED013F8016B16F0F6
:10370000030104BF13F8011BC91C30090F28DAD1CB
:1037100013F8010B0F30D6E7F0BC02F10C00704734
:10372000CB17C018594158405940DB07B1B1B1FA25
:1037300081F241409040C2F1200261FA02F181EA37
:10374000000018BF40F0010002F19D01020643EAAB
:10375000C15172F1004241EB1020704758B1B0FAEC
:1037600080F29040C2F19D02010643EAC25271F11B
:10377000004142EB1020704710B5044610460A463F
:103780000146204600F0DAFA204610BDC0F3C751CA
:1037900081B1FF2906D0C110400721F0E04101F1BD
:1037A0006051704741020CBF40F4E0016FF00041EE
:1037B0000020704700F0004100020AD0B0FA80FCFF
:1037C00000FA0CF001F16051A1EB0C5101EBD0219A
:1037D0004005704740F2FF7C0B0D4DD0634566D22B
:1037E00030B421EA035141F4801103F2FD3C5FEA59
:1037F0005C0C01D300184941890041EA90718000B6
:103800004FF440140023E202D50AB1F5100107D4A9
:103810006D081DD2091B641900184941491BF7D5D1
:103820006D080AD20919641B00184941491BEFD5DC
:103830006D08F7D301E0520817D0C01861419B1AF8
:10384000AC4100184941801AA941F4D452080AD069
:10385000C01AA1419B186C4100184941801AA94126
:10386000E9D45208F4D15B1C6C4161084FEA330083
:1038700001EB0C5130BC704750EA0103FBD030B46F
:10388000B1FA81F311B9B0FA80F41B190B3BB3F113
:1038900020042FBF00FA04F19940C3F1200420FA5C
:1038A00004F438BF21439840D3F101039DE76345F9
:1038B00014BF50EA410CDEE711F5801FDBD8D94375
:1038C000AFF30080704730B4002513E050F8042BAC
:1038D000D30744BFA9F101039A18091F042942F82C
:1038E000045BFAD213468C0744BF15809B1CC907A2
:1038F00048BF1D7050F8041B0029E7D130BC704749
:10390000F0B540F2FF7581EA030C0CF0004C15EAAB
:1039100011541DBF15EA1357AC42AF42E5E0BC415C
:10392000C1F31301C3F31303801A994143F48013C5
:1039300004D2641E4000494180185941C90241EA3D
:103940005051B1FBF3F603FB1611A2FB0675D7EB42
:10395000C020A94102D2761E80185941C90241EA0D
:103960005051B1FBF3FE03FB1E11A2FB0E75D7EB0A
:10397000C020A94103D2AEF1010E8018594189023D
:1039800041EA9051760546EA8E2EB1FBF3F603FB31
:103990001611A2FB0675D7EB8020A94102D2761E34
:1039A00080185941C90241EA50514EEA060EB1FB56
:1039B000F3F603FB1611A2FB0675D7EBC020A94155
:1039C00002D2761E80185941C90241EA5051B1FB1A
:1039D000F3F703FB1711A2FB0735D3EBC020A94176
:1039E00067F100070CBF004247F0010766F3D527D7
:1039F0004FEA1E31B80814F5806412DDBD0775F179
:103A0000004250EB0E5051EB045111F5801F5CBF8A
:103A100041EA0C01F0BD4CF07F6141F0E041002033
:103A2000F0BDBD076D0840EA0E5041F48011D4F19D
:103A30000104B4F120060ADAC4F120060200E040D5
:103A400001FA06F3E1401843B24015430EE0342C6E
:103A500013DCC6F1200445EA40056D0820FA06F2A1
:103A6000154321FA06F0A1400D43002175F10042F3
:103A700050F1000051EB0C01F0BD00205FEA0C0199
:103A8000F0BDCFB992185B41B3FA83F704BFB2FA25
:103A900082F6BF190B3FB7F120062FBF02FA06F3DB
:103AA000BB40C7F1200622FA06F638BF3343BA40BE
:103AB0001CB1E419641E33E77F4231F00041B1FAD2
:103AC00081F404BFB0FA80F6A4190B3CB4F12006CF
:103AD0002FBF00FA06F1A140C4F1200620FA06F635
:103AE00038BF3143A0403C1B1AE7AC421ABF05EA7D
:103AF0001357AF4212E050EA41061CBF52EA430698
:103B0000BFE750EA4107304661461CBF41EA055114
:103B1000F0BD52EA430C08BFC143F0BD00204FF492
:103B2000001616EB410F98BF16EB430F08BF16EBBC
:103B3000410F24BFC14305E016EB430F0CBF6146A4
:103B40004CEA0551F0BD000038B52DED028B41EC7B
:103B5000180B48004015401C51EC180B18D14800B8
:103B60004015401C04D1090318BF51EC180B36D185
:103B70009FED1D0B51EC100B55EC184B05F0004060
:103B800040EA010251EC100BBDEC028B114634BD32
:103B900020F0000231F0004308BF002A1FD0C80FF8
:103BA0001ABF43EC182B0824002451EC180B0122F7
:103BB0000C4B00F0F7F809D81946002053EC182BED
:103BC000FFF79EFE41EC180B84F0020451EC180B39
:103BD000BDEC028B2246BDE8384000F0FBB8BDECDE
:103BE000028B34BD0000F03F182D4454FB21F93FF7
:103BF00001F000428B1AA3F16051B1F5801F0ADB7E
:103C0000B1F17F6F1FD242EAC102C10071F10041E0
:103C100042EB507070470B15C3F10903212B10D2F2
:103C2000890241EA905180020128494141F0004156
:103C300021FA03F0C3F12003994071F10041504192
:103C40007047100070476FF0000013EB103F5CBF2F
:103C5000000E42EAC050704770B44FF0004591EA40
:103C6000030F40F1A7816B40841A71EB030603D266
:103C7000001BB141121973414FF4001C1CEB410FA2
:103C800034BF7CEB430442E00C0DA4EB1356352EFD
:103C90004FDC45EAC323DB0A45EAC121C912B6F16C
:103CA00020050DDD63FA05F6EB4086EA03051242B6
:103CB00018BF45F00105C01851F100010CD213E006
:103CC00062FA06F5F2405540F3415A40B340F340E2
:103CD0005A408018594107D349085FEA30005FEA2B
:103CE000350528BF45F0010501F58011420875F141
:103CF000004250F1000041EB04514E0016F5001F48
:103D000070BC38BF70470020090D090570471CEBD7
:103D1000410F10D252EA43060BD0BCEB410F05D83D
:103D20000C0DAB43661E342EB6DD02E0AB438018AB
:103D3000594170BC704770BC7047000062F30F229D
:103D400062F31F42401810F0030308D0C91A1FD3B2
:103D5000DB0748BF00F8012D28BF20F8022D130013
:103D600030B414461546103928BF20E93C00FAD873
:103D7000490728BF20E90C0048BF40F8042D8900FE
:103D800028BF20F8022D48BF00F8012D30BC704735
:103D9000C91818BF00F8012DCB0728BF00F8012D66
:103DA000704700004FF4001C1CEB410F94BF1CEB4C
:103DB000430F09E041EA030C50EA4C0C52EA0C0CA8
:103DC00003D28B4208BF8242704714BF994290428F
:103DD00070470000D0B52DED048B41EC180B144654
:103DE00053EC182B00206E4900F09AF908BF9FEDA4
:103DF000578B00F0838051EC180B564A564BFFF757
:103E0000D1FF1DD89FED559B53EC182B51EC190B8E
:103E100000F096F90022534B00F0C4F806460F4616
:103E200053EC182B51EC190B00F0BCF802460B4672
:103E300030463946FFF764FD41EC180B44F00104AD
:103E400051EC180B21F0004101224FF07953FFF79C
:103E5000A9FF53D853EC182B51EC180B00F070F954
:103E600041EC190B53EC182B00F06AF906460F468B
:103E700053EC192B3C483D4900F062F93C4A3D4B5C
:103E800000F090F853EC192B00F05AF93A4A3B4BEA
:103E900000F088F832463B4600F052F953EC182BFC
:103EA00000F080F806460F4653EC192B344835498C
:103EB00000F046F9344A354B00F074F853EC192BF6
:103EC00000F03EF9324A334B00F06CF853EC192BFA
:103ED00000F036F9304A314B00F064F853EC192BFE
:103EE00000F02EF900222E4B00F05CF802460B4643
:103EF00030463946FFF704FD41EC180BA00705D505
:103F000051EC180B81F0004141EC180B14F0070242
:103F10000CD00D4B7B44303303EBC20251EC180B39
:103F20005368126800F03EF841EC180B200705D5E5
:103F300051EC180B81F0004141EC180B51EC180BBF
:103F4000BDEC048BD0BD00BFC88E0000182D4454BA
:103F5000FB21E93F57CD9E5E1426D13FAA4C58E87D
:103F60007AB6FB3F0000F0BF845D57134B57B03F5C
:103F7000B2934C19ED5EE43FBEDE02B90240F83F59
:103F8000DE39028FC7C0743F8AAB1283000CC83F72
:103F900024D7E508B6D8F03F0F34580E5895FD3FAA
:103FA0000000F03F70B44FF0004591EA030F7FF539
:103FB0005BAE6B40841A71EB030604D26E40001BAB
:103FC000B141121973414FF4001C1CEB410F34BF77
:103FD0007CEB430683E00C0DA4EB1356362E00F366
:103FE0007C80012E45EAC32341DC43EA525312BFD1
:103FF000D20292025B08240545EAC12141EA5051F0
:10400000D2EBC020994125D407D1B0FA80F610FA3E
:1040100006F162D00020203608E0B1FA81F6B14006
:10402000C6F1200220FA02F21143B0404FEAF474C4
:10403000B4EB465434F001064FEA74040AD8D6F5BE
:104040000016760D04F00044F04061FA06F250408C
:10405000F1404840C00A40EA415021F0004128BFE9
:104060005FEA500550F1000044EBD12135E0DB0A56
:1040700045EAC121C90AB6F120050EDD42EA024235
:10408000120CC5F1200603FA06F6EB4042EA0605DB
:104090006D42984161F100010DE062FA06F5F240CF
:1040A000554063FA06FC82EA0C02F3405A406D4226
:1040B000904161EB030111F4801F05D1641E62057C
:1040C00002D06D004041494121F48011430875F14F
:1040D000004350F1000041EB045170BC70471CEBF1
:1040E000410F15D223F0004352EA43060BD04FEAAA
:1040F0004C0CBCEB410F04D80C0D661E342EB7DD02
:10410000EBE7801A994150EA410608BF0021E4E735
:1041100008BF1CEB430F28BF6FF00001DDE7000074
:1041200090420CD141EA030C50EA4C0C07D0994262
:1041300005D14FF4001C1CEB410F38BF894270477A
:10414000B0B581EA030C0CF0004C40F2FF7515EAA3
:1041500011541DBF15EA1357AC42AF4239E0E419C0
:1041600023EA455343F48013C90241F0004141EA78
:10417000505EC7021100A7FB020200284FF00000AA
:10418000EEFB01204FF00001E3FB072118BF42F0D6
:104190000102401800214941E3FB0E01A4F58064AF
:1041A0000F0302D252004041494154F101046CDD39
:1041B000470872F1004250F1000051EB0451A1F5A3
:1041C00080115CBF41EA0C01B0BD4CEA05510020F2
:1041D000B0BD05EA1357AC4214BFAF4241E050EA0C
:1041E000410E1CBF52EA430E02E061460020B0BD02
:1041F00024423C441BD15FEA070EF6D0090302BFFC
:1042000001460020AEF1140EB1FA81F7AEEB0704BF
:1042100001FA07FE0C37C7F1200100FA07F7C84082
:104220004EEA000E23EA455343F48013A2E733F02D
:104230000043B3FA83F704BFB2FA82FE77440B3F20
:10424000E41BB7F1200E2FBF02FA0EF3BB40C7F1FB
:10425000200E22FA0EFE38BF43EA0E03BA40641C59
:1042600082E750EA410E14BF52EA430E6FF000019C
:104270004FF4001717EB430F8ABF194617EB410F96
:10428000B5E74CEA05510020B0BDD4F10104B4F10A
:1042900020070FDAC4F12007520828BF42F00102BC
:1042A00010FA07F501FA07F7E1BF2A43E040384367
:1042B000E1400FE0352C98DCC7F1200452EA4002BF
:1042C00020FA07F218BF42F0010231FA07F0A140CC
:1042D0000A43002172F1004250F1000051EB0C0141
:1042E000B0BD000030B504460025002C81B02AD0B6
:1042F000086820604A6862608868A0600A7B227350
:10430000086920614A6962618869DFF8DC19A06187
:1043100021626462DFF8D409E061206898B18047C7
:1043200088B9A068022804BF94F8280000280CD19E
:104330000C218DF8001001236A46122104F11C00A3
:1043400000F000FD08B14FF0FF35284601B030BD48
:1043500010B50446802104F11C0000F08AFF0028FB
:1043600031D1012104F11C0000F06AFF00282AD19C
:10437000012104F11C0000F014FF002823D10021CA
:1043800004F11C0000F0A7FFE8B9042084F82B001A
:10439000002104F11C0000F00FFDA0B9002104F180
:1043A0001C0000F0D5FC70B9042084F82C0000211A
:1043B00004F11C0000F020FE28B9062104F11C00C5
:1043C00000F0D4FD10B14FF0FF3010BD012084F893
:1043D0002800002010BD10B5044694F8290070B1E3
:1043E00004F12B0104F11C0000F078FD10BB00214A
:1043F00004F11C0000F0E0FCE0B984F8290094F816
:104400002A0070B104F12C0104F11C0000F086FEBA
:1044100080B9002104F11C0000F0EEFD50B984F8D1
:104420002A000021002084F82B1084F82C0084F846
:10443000281010BD4FF0FF3010BD00B581B01C300A
:1044400000F0F5FE08B14FF0FF3001B000BD0000F4
:104450000120087048700023102088604FF4FA6231
:104460009FEDAF0A00208B70CB704A60CB6081ED6E
:10447000040A81ED050A8861704710B5044694F876
:10448000290001280CD094F82B1004F11C0000F036
:1044900093FC10B14FF0FF3010BD012084F82900CB
:1044A000002010BD10B5044694F8290088B104F12D
:1044B0002B0104F11C0000F011FD28B9002104F1CA
:1044C0001C0000F079FC10B14FF0FF3010BD84F8F3
:1044D000290010BD30B581B00D4669461C3000F092
:1044E00050FC002418B14FF0FF3001B030BD9DF8F2
:1044F0000000032813D8DFE800F0020E060ADFF8F8
:10450000481629600DE0DFF8DC04286009E0DFF8D8
:10451000D014296005E0DFF8C404286001E04FF002
:10452000FF34204601B030BD30B581B00D4669463C
:104530001C3000F0D3FC002418B14FF0FF3001B064
:1045400030BD9DF800000B2835D8DFE800F0060CE0
:104550001014181C2024282C30082C602DE0DFF8C3
:10456000A007286029E0DFF89C17296025E0DFF824
:104570009807286021E0DFF8941729601DE0DFF834
:104580009007286019E0DFF88C17296015E0DFF844
:104590008807286011E0DFF8841729600DE0DFF854
:1045A0008007286009E0DFF87C17296005E0DFF864
:1045B0007807286001E04FF0FF34204601B030BD9D
:1045C00000B581B090F82910DFEDA80A0129B4EEFA
:1045D000600A53D1F1EE10FA47D4DFEDA50AB4EE2C
:1045E000600AF1EE10FA48BF02213ED4DFEDA10AC5
:1045F000B4EE600AF1EE10FA48BF032135D4DFEDC6
:104600009E0AB4EE600AF1EE10FA48BF04212CD4E1
:10461000DFED9A0AB4EE600AF1EE10FA48BF052108
:1046200023D4DFED970AB4EE600AF1EE10FA48BF2A
:1046300006211AD4DFED930AB4EE600AF1EE10FA07
:1046400048BF072111D4DFED900AB4EE600AF1EE05
:1046500010FA48BF082108D4DFEDBB0AB4EE600AA7
:10466000F1EE10FA4CBF09210A211C3000F0A4FB26
:10467000002853D04FF0FF3001B000BDF1EE10FA2A
:1046800048BF012147D4DFED7A0AB4EE600AF1EEAB
:1046900010FA48BF02213ED4DFED760AB4EE600A7C
:1046A000F1EE10FA48BF032135D4DFED730AB4EE02
:1046B000600AF1EE10FA48BF04212CD4DFED6F0A36
:1046C000B4EE600AF1EE10FA48BF052123D4DFED05
:1046D0006C0AB4EE600AF1EE10FA48BF06211AD453
:1046E000DFED680AB4EE600AF1EE10FA48BF072168
:1046F00011D4DFED650AB4EE600AF1EE10FA48BF9E
:10470000082108D4DFED900AB4EE600AF1EE10FA49
:104710004CBF09210A2180F82B10002001B000BDF8
:104720000020D04530B581B00D4669461C3000F000
:1047300028FB002418B14FF0FF3001B030BD9DF8C8
:10474000000003280FD8DFE800F0020B0508022163
:1047500029600AE00420286007E00821296004E0BD
:104760001020286001E04FF0FF34204601B030BD3A
:1047700000B5032981B0B8BF002107DB0529B8BF08
:10478000022103DB0929B4BF032101211C3000F001
:10479000DFFA08B14FF0FF3001B000BD10B582B0B4
:1047A0000C4669461C3000F01EFD18B14FF0FF307A
:1047B00002B010BDBDF800002080BDF8021061807D
:1047C000BDF80400A08002B0002010BD30B583B059
:1047D00004460D4601A904F11C0000F004FD002868
:1047E00040D1694604F11C0000F0CBFA002839D111
:1047F0009DF80000032835D8DFE800F031022E2BA9
:104800009FED760ABDF9040000EE900AF8EEE00A8A
:1048100060EE800AFDEEE00AC5ED000ABDF9061063
:1048200001EE101AB8EEC11A21EE001ABDEEC11A3F
:1048300085ED011ABDF9080000EE900AF8EEE00AD5
:1048400020EE800ABDEEC00A85ED020A002003B00A
:1048500030BD9FED630AD5E79FED620AD2E79FED79
:10486000BA0ACFE74FF0FF3003B030BD0100484136
:104870000100D041010050420100D04201005043EC
:104880000180D043014050440160D04410B504463B
:1048900094F82A0001280CD094F82C1004F11C0084
:1048A00000F0AAFB10B14FF0FF3010BD012084F8DA
:1048B0002A00002010BD10B5044694F82A0088B1E3
:1048C00004F12C0104F11C0000F028FC28B900219F
:1048D00004F11C0000F090FB10B14FF0FF3010BD50
:1048E00084F82A0010BD000030B581B00D4669463D
:1048F0001C3000F055FB002418B14FF0FF3001B020
:1049000030BD9DF80000062819D8DFE800F0080443
:104910000C1810181400DFF8E413296011E0DFF818
:10492000D80328600DE0DFF8CC13296009E0DFF838
:10493000C003286005E0DFF8AC13296001E04FF008
:10494000FF34204601B030BD0150504530B581B034
:104950000D4669461C3000F0E1FB002418B14FF011
:10496000FF3001B030BD9DF800000A2831D8DFE8E3
:1049700000F006080C1014181C2024282C002C60B1
:1049800029E0DFF88003286025E0DFF87C13296048
:1049900021E0DFF8780328601DE0DFF87413296058
:1049A00019E0DFF87003286015E0DFF86C13296068
:1049B00011E0DFF8680328600DE0DFF86413296078
:1049C00009E0DFF86003286005E0DFF85C13296088
:1049D00001E04FF0FF34204601B030BD23DBF93E4B
:1049E00023DB793E23DBF93D00B581B090F82A1036
:1049F000DFED560A0129B4EE600A53D1F1EE10FA48
:104A000047D4DFED530AB4EE600AF1EE10FA48BF66
:104A100002213ED4DFED4F0AB4EE600AF1EE10FA47
:104A200048BF032135D4DFEDA90AB4EE600AF1EEE8
:104A300010FA48BF04212CD4DFEDA50AB4EE600AB9
:104A4000F1EE10FA48BF052123D4DFEDA20AB4EE3F
:104A5000600AF1EE10FA48BF06211AD4DFED9E0A73
:104A6000B4EE600AF1EE10FA48BF072111D4DFED71
:104A70009B0AB4EE600AF1EE10FA48BF082108D490
:104A8000DFED970AB4EE600AF1EE10FA4CBF09218F
:104A90000A211C3000F0B0FA002853D04FF0FF304C
:104AA00001B000BDF1EE10FA48BF012147D4DFED9F
:104AB000280AB4EE600AF1EE10FA48BF02213ED493
:104AC000DFED240AB4EE600AF1EE10FA48BF0321CC
:104AD00035D4DFED7E0AB4EE600AF1EE10FA48BF7D
:104AE00004212CD4DFED7A0AB4EE600AF1EE10FA5C
:104AF00048BF052123D4DFED770AB4EE600AF1EE5A
:104B000010FA48BF06211AD4DFED730AB4EE600A2A
:104B1000F1EE10FA48BF072111D4DFED700AB4EEB0
:104B2000600AF1EE10FA48BF082108D4DFED6C0AE4
:104B3000B4EE600AF1EE10FA4CBF09210A2180F8A8
:104B40002C10002001B000BD23DB793D010048415D
:104B50000100D0410100504230B581B00D46694698
:104B60001C3000F01DFA002418B14FF0FF3001B0E6
:104B700030BD9DF80000062817D8DFE800F00704D4
:104B80000A160E1612007D21296010E0FA20286016
:104B90000DE04FF4FA71296009E04FF47A70286053
:104BA00005E04FF4FA61296001E04FF0FF34204640
:104BB00001B030BD00B57E2981B0B8BF01210FDB47
:104BC000FB29B8BF00210BDB40F2F5129142B8BFC0
:104BD000022105DB40F2E9329142B4BF04210621F3
:104BE0001C3000F0C3F908B14FF0FF3001B000BD38
:104BF00010B582B00C4669461C3000F0EBFA18B1D3
:104C00004FF0FF3002B010BDBDF800002080BDF8AD
:104C100002106180BDF80400A08002B0002010BD29
:104C200030B583B004460D4601A904F11C0000F024
:104C3000D1FA002845D1694604F11C0000F0B0F912
:104C400000283ED19DF8000006283AD8DFE800F0A1
:104C5000333630392D3904009FED220ABDF90400A6
:104C600000EE900AF8EEE00A60EE800AFDEEE00A3F
:104C7000C5ED000ABDF9061001EE101AB8EEC11A12
:104C800021EE001ABDEEC11A85ED011ABDF908002A
:104C900000EE900AF8EEE00A20EE800ABDEEC00AAF
:104CA00085ED020A002003B030BD9FED110AD5E763
:104CB0009FED100AD2E79FED100ACFE79FED0F0A94
:104CC000CCE74FF0FF3003B030BD00000100D04210
:104CD000010050430180D043014050440160D04462
:104CE0000150504500008C422D4D0008394D000800
:104CF00000000C4200008C4100000C4100008C4080
:104D00000000D040000048410000D0410000504267
:104D10000000D042000050430080D0430040504487
:104D20000060D044005050450058D04510B50446AE
:104D3000207B6469A04710BD10B50446207B246920
:104D4000A04710BD10B50446A0682468A04710BD58
:104D500070B5044682B00D46A068666801236A46B5
:104D60001021B04758B99DF8000065F383008DF815
:104D700000000123A06824686A461021A04702B001
:104D800070BD30B5044681B0A06864680D4601234B
:104D90006A461021A0479DF80010890801F0030120
:104DA000012906D004D3032903D038BF022100D340
:104DB0000021297001B030BDF0B581B004460D4628
:104DC000694600F0A2FA00282E466CD19DF800201A
:104DD0009DF80110104642EA500242EA900242EA6F
:104DE000D00242EA101242EA501242EA90120A43FA
:104DF00042EA510242EA910242EAD10242EA111227
:104E000042EA511242EA911202F00102084342EAD8
:104E1000D010012848D10221204600F0EDF9F8B960
:104E2000A068D4F804C001230DF103025F21E0471C
:104E3000B0B99DF80300C00800F00300012808D0B5
:104E400009D3032801D002D305E0032704E0022799
:104E500002E0012700E000270021204600F0CCF905
:104E6000002820D1FFB2032F1DD8DFE807F002058C
:104E70000B12CDB9012617E0280018BF012D13D160
:104E8000022611E028001CBF012D022D0CD10326A3
:104E90000AE0280018BF012D03D0022D18BF032DF2
:104EA00002D1042600E0B0B9A068656801230DF1C5
:104EB00002021021A84770B99DF8020000F00F000F
:104EC00040EA06108DF802000123A06824680DF165
:104ED00002021021A04701B0F0BD000030B5044629
:104EE00081B0A06864680D4601236A461021A0477E
:104EF0009DF800100909491E0A2933D8DFE801F09E
:104F0000060A0E12161A1E22262A2E0001212970C8
:104F100001B030BD0221297001B030BD03212970DC
:104F200001B030BD0421297001B030BD05212970C8
:104F300001B030BD0621297001B030BD07212970B4
:104F400001B030BD0821297001B030BD09212970A0
:104F500001B030BD0A21297001B030BD0B2129708C
:104F600001B030BD0021297001B030BD70B50446DC
:104F700082B00D46A068666801236A461121B047D9
:104F800058B99DF8000065F343008DF80000012337
:104F9000A06824686A461121A04702B070BD0000D5
:104FA00030B5044681B0A06864680D4601236A46A6
:104FB0001121A0479DF80010490801F00701491E82
:104FC000052914D8DFE801F00307130B130F0121A3
:104FD000297001B030BD0221297001B030BD04211B
:104FE000297001B030BD0621297001B030BD00210B
:104FF000297001B030BD0000F0B581B004460D4607
:10500000694600F082F900282E466CD19DF80020F8
:105010009DF80110104642EA500242EA900242EA2C
:10502000D00242EA101242EA501242EA90120A43B7
:1050300042EA510242EA910242EAD10242EA1112E4
:1050400042EA511242EA911202F00102084342EA96
:10505000D010012848D10221204600F0CDF8F8B93F
:10506000A068D4F804C001230DF103025F21E047DA
:10507000B0B99DF80300C00800F00300012808D073
:1050800009D3032801D002D305E0032704E0022757
:1050900002E0012700E000270021204600F0ACF8E4
:1050A000002820D1FFB2032F1DD8DFE807F002054A
:1050B0000B12CDB9012617E0280018BF012D13D11E
:1050C000022611E028001CBF012D022D0CD1032661
:1050D0000AE0280018BF012D03D0022D18BF032DB0
:1050E00002D1042600E0B0B9A068656801230DF183
:1050F00002021121A84770B99DF8020000F00F00CC
:1051000040EA06108DF802000123A06824680DF122
:1051100002021121A04701B0F0BD000030B50446E5
:1051200081B0A06864680D4601236A461121A0473A
:105130009DF800100909491E09292ED8DFE801F061
:1051400005090D1115191D2125290121297001B00D
:1051500030BD0221297001B030BD0321297001B09A
:1051600030BD0421297001B030BD0521297001B086
:1051700030BD0621297001B030BD0721297001B072
:1051800030BD0821297001B030BD0921297001B05E
:1051900030BD0A21297001B030BD0021297001B055
:1051A00030BD70B5044682B00D46A0686668012324
:1051B0006A461221B04758B99DF8000065F3861081
:1051C0008DF800000123A06824686A461221A047D8
:1051D00002B070BD10B504460A46A0686468062394
:1051E0002221A04710BD10B504460A46A068646895
:1051F00006232821A04710BD70B5044682B00D4695
:10520000A068666801236A460121B04768B99DF825
:10521000000000F03F0040EA85108DF800000123F7
:10522000A06824686A460121A04702B070BD10B58D
:1052300004460A46A068646801230F21A04710BDF8
:1052400070B5044682B00D46A068666801236A46C0
:105250001221B04758B99DF8000065F382008DF81F
:1052600000000123A06824686A461221A04702B00A
:1052700070BD70B5044682B00D46A0686668012313
:105280006A461821B04720BB9DF8000000F0FD00E1
:10529000E90940EA41008DF800000123A068266872
:1052A0006A461821B047A0B9A068666801230DF1CD
:1052B00001026221B04760B99DF8010065F3C400A6
:1052C0008DF801000123A06824680DF1010262211C
:1052D000A04702B070BD70B5044682B00D46A0680C
:1052E000666801236A460A21B04758B99DF8000054
:1052F00065F302008DF800000123A06824686A4667
:105300000A21A04702B070BD000070B5044682B00B
:105310000D46A068666801236A460121B04740BB7C
:105320009DF8000000F03F0040F080008DF8000084
:105330000123A06826686A460121B047C8B92A46F9
:10534000A068656802234621A84790B9A0686568EF
:1053500001236A460121A84758B99DF8000000F0D2
:105360003F008DF800000123A06824686A460121EF
:10537000A04702B070BD000030B504460025002CE7
:1053800081B02AD0086820604A6862608868A0609E
:105390000A7B2273086920614A6962618869DFF8C3
:1053A0005017A06121626462DFF84807E06120685D
:1053B00098B1804788B9A068022804BF94F82800F3
:1053C00000280CD105218DF8001001236A46212107
:1053D00004F11C0000F04EFC08B14FF0FF352846E8
:1053E00001B030BD10B50446012104F11C0000F0ED
:1053F000DEFD002824D1012104F11C0000F078FD1D
:10540000F0B9002104F11C0000F0EAFDC0B904214C
:1054100004F11C0000F034FC90B9DFF8E403E06212
:10542000002184F8301084F8311004F11C0000F0E1
:10543000CCFC28B9002104F11C0000F072FD10B171
:105440004FF0FF3010BD012084F82800002010BD6F
:1054500010B5044694F8290050B1002104F11C0055
:1054600000F0B3FC10B14FF0FF3010BD84F82900FC
:105470000020E06284F8300084F8310084F82800CD
:1054800010BD00B581B01C3000F088FD08B14FF0B0
:10549000FF3001B000BD01200870002210204A70CA
:1054A0008A70CA704A608860CA600020DFF85C2396
:1054B00008614A618861704710B5044694F8290074
:1054C00001280FD094F8312094F8301094ED0B0A95
:1054D000204600F011FB10B14FF0FF3010BD01204D
:1054E00084F82900002010BD10B5044694F8290066
:1054F00050B1002104F11C0000F067FC10B14FF026
:10550000FF3010BD84F8290010BD000070B582B0D6
:1055100006460C46694606F11C0000F01BFD0025FE
:1055200030B90DF1010106F11C0000F0E1FB18B1EA
:105530004FF0FF3002B070BD9DF801101B2931D82B
:10554000DFE801F00E1C1C1C1C3030300E1C1C1C33
:10555000303030300E1C1C1C1C3030300E1C1C1C1B
:105560009DF80020032A1DD8DFE802F01619020575
:105570009FED690A1AE09FED690A17E09DF80000A7
:1055800003280FD8DFE800F00205080B9FED640A3E
:105590000CE09FED640A09E09FED630A06E09FEDD1
:1055A000940A03E0BFEE000A4FF0FF3584ED000AD5
:1055B000284602B070BD000070B582B006460C46A9
:1055C0000DF1010106F11C0000F032FC002528B9A4
:1055D000694606F11C0000F08BFB18B14FF0FF305C
:1055E00002B070BD9DF80100322800F28B80DFE828
:1055F00000F01A1D35383B3E8641586F89898989EC
:10560000898989898989898989898989898989890A
:10561000898989891A898989898989898989898969
:10562000898989891A009FED730A6FE09DF800004F
:105630001B2800F26780DFE800F00E0E0E0E1165E9
:1056400065650E0E0E0E656565650E0E0E0E116516
:1056500065650E0E0E0E9FED680A57E0B2EE090A60
:1056600054E0B3EE090A51E09FED640A4EE09FED6D
:10567000640A4BE09DF800001B2843D8DFE800F0E7
:105680003F3F3F3F0E4242423F3F3F3F4242424246
:105690003F3F3F3F0E4242423F3F3F3F9FED590A4F
:1056A00034E09DF800001B282CD8DFE800F0282803
:1056B00028280E2B2B2B282828282B2B2B2B28286F
:1056C00028280E2B2B2B282828289FED4F0A1DE079
:1056D0009DF800001B2815D8DFE800F0111111110A
:1056E0000E14141411111111141414141111111198
:1056F0000E141414111111119FED440A06E09FEDD0
:10570000440A03E0BFEE000A4FF0FF3584ED000AC3
:10571000284602B070BD000023DB794023DBF9404E
:1057200023DB793E23DBF93E23DB793F0022002196
:1057300090F82930012B04BFC9B200F0DDB9DFEDCC
:10574000350AB4EE600AF1EE10FA80F8301080F8F5
:10575000312048BF9FED280A46D4DFED2F0AB4EE72
:10576000600AF1EE10FA48BFB2EE090A3CD4DFED50
:105770002B0AB4EE600AF1EE10FA48BFB3EE090A44
:1057800032D4DFED270AB4EE600AF1EE10FA48BF1A
:105790009FED1A0A28D4DFED230AB4EE600AF1EE79
:1057A00010FA48BF9FED160A1ED4DFED1F0AB4EEB3
:1057B000600AF1EE10FA48BF9FED150A14D4DFED30
:1057C0001B0AB4EE600AF1EE10FA48BF9FED0D0A15
:1057D0000AD4DFED170AB4EE600AF1EE10FA4CBFFE
:1057E0009FED090A9FED090A80ED0B0A0020704722
:1057F00023DBF93F00000000CDCCCC3F0000484245
:105800000000C8420000C843000048440000C844EB
:1058100000004843CECCCC3F010048410100C841C4
:10582000010048420100C842010048430100C8434A
:105830000100484430B581B00C4669461C3000F088
:1058400089FB002518B14FF0FF3001B030BD9DF845
:10585000000003280BD8DFE800F00204060802204D
:1058600008E0042006E0082004E0102002E04FF0E9
:10587000FF352846206001B0284630BD00B5032919
:1058800081B0B8BF002107DB0529B8BF012103DBC8
:105890000929B4BF022103211C3000F042FB08B1EA
:1058A0004FF0FF3001B000BD70B584B006460D4624
:1058B000694606F11C0000F01BFA002428B901A972
:1058C00006F11C0000F061FB18B14FF0FF3004B08E
:1058D00070BD9DF800001B283BD8DFE800F00E24C7
:1058E0002424243A3A3A0E2424243A3A3A3A0E240A
:1058F0002424243A3A3A0E242424BDF90400C11089
:1059000000EB117000112880BDF90600C11000EBFA
:10591000117000116880BDF90800C11000EB117012
:105920000011A88017E0BDF90400411000EB917050
:1059300080102880BDF90600411000EB91708010A6
:105940006880BDF90800411000EB91708010A880BC
:1059500001E04FF0FF34204604B070BD2DE9F04166
:1059600084B080460C46694608F11C0000F0C0F97E
:10597000002840F0AC8001A908F11C0000F005FBF4
:10598000002840F0A4809DF800001B2800F29F80B2
:10599000DFE800F0210E0E0E0E9D9D9D210E0E0ED5
:1059A0009D9D9D9D210E0E0E0E9D9D9D210E0E0E08
:1059B000BDF90450BDF90670BDF90860681005EB2B
:1059C0009075781007EB9077701006EB9076AD101D
:1059D000BF10B61011E0BDF90450BDF90670BDF955
:1059E0000860E81005EB1075F81007EB1077F01061
:1059F00006EB10762D113F113611694608F11C0097
:105A000000F0A8FA002840F062800DF1010108F1D1
:105A10001C0000F06DF9002859D19DF801101B29D8
:105A200055D8DFE801F0400E0E0E0E545454400ECF
:105A30000E0E54545454400E0E0E0E545454400E38
:105A40000E0E9DF80020032A41D8DFE802F029025B
:105A50003D3A9FED210A2DB200EE905AF8EEE00A91
:105A600060EE800AFDEEE00AC4ED000A3FB200EEEF
:105A7000907AF8EEE00A60EE800AFDEEE00AC4EDEE
:105A8000010A36B200EE906AF8EEE00A20EE800AD3
:105A9000BDEEC00A84ED020A002004B0BDE8F0812A
:105AA0009FED0E0AD7E79DF8000003280FD8DFE826
:105AB00000F00B0805029FED0A0ACCE79FED090AEA
:105AC000C9E79FED090AC6E79FED080AC3E74FF053
:105AD000FF3004B0BDE8F08123DBF93E23DB793EE3
