:020000040800F2
:10000000A88C0020F59300081593000817930008AA
:10001000199300081B9300081D93000800000000BE
:100020000000000000000000000000001F93000816
:100030002193000800000000239300082593000886
:100040001F94000823940008279400082B940008AC
:100050002F94000833940008379400083B9400085C
:100060003F94000843940008479400084B9400080C
:100070004F94000853940008579400085B940008BC
:10008000299300085F9400086394000867940008AF
:100090006B9400086F94000873940008779400082C
:1000A0007B9400087F9400088394000887940008DC
:1000B0008B9400082F9300088F94000893940008F5
:1000C000979400089B9400089F940008A39400084C
:1000D000A7940008AB940008AF940008B3940008FC
:1000E0003D930008B7940008BB940008BF94000833
:1000F000C394000800000000C7940008CB940008D7
:10010000CF940008D3940008D7940008DB9400082B
:10011000DF940008E3940008E79400080000000062
:10012000EB9400082DE9F04F0FF2A41CA1B0DCE91C
:100130000089CDE900892A9DDFF8DC9B0491002429
:100140008DF843500D944FF0FF38824616461F46F7
:100150000FE0B3462C461BF8011B0498D04700283B
:10016000049000F0A2800D98401C641E0D90F2D106
:1001700076193078252808D10021002207910892AD
:1001800009910A920B910C920DE06A464146304665
:1001900000F0DAFF050001D10D98A1E0D9D50125C5
:1001A000E6E741F0010116F8010F2028F9D02328D5
:1001B0000CD02B2804D02D2805D0302809D076E08B
:1001C00041F00201EFE741F00401ECE741F00801E2
:1001D000E9E741F01001E6E70F9209E00F98484582
:1001E00005DA00EB800402EB4402303A0F92761CF1
:1001F0003278A2F130000A28F0D330782E2818BFC8
:10020000CDF8388022D116F8010F2A2807D1386896
:100210003860761C50F8042B38600E9216E02D28BA
:100220000CBF761C002000220E920AE040B90E9A04
:100230004A4505DA02EB820403EB4403303B0E939C
:10024000761C3378A3F130020A2AEFD3ADF84010C0
:1002500021A0317800F082FF08B116F8010B8DF86B
:1002600042009DF84200682804D1307868280AD1FD
:10027000622105E06C2804BF30786C2803D171211D
:100280008DF84210761C12A806903A4616F8013BEB
:1002900002A9504600F064F838B912AA02A95046E3
:1002A00000F0C8F900287FF564AF404618E02A281E
:1002B00092D13A683A6052F8040B3A6000280F90E5
:1002C00003D540420F9041F00401761C95E70000F1
:1002D0000000000000000000686A6C747A4C0000A6
:1002E00021B0BDE8F08F622820D0682811D06A289C
:1002F00003D06C2827D0712825D10868C01D20F0B4
:1003000007000860D0E9002308300860194610464D
:100310007047002A0A680A60106803D0121D0A603C
:1003200000B217E0121D0A6080B217E0002A0A68C6
:100330000A60106803D0121D0A6040B20AE0121D64
:100340000A60C0B20AE0002A0A680A60106803D096
:10035000121D0A60C1177047121D0A600021704704
:100360007CB50D4611461C462E69B4F1250200F0FD
:100370004F811C3A00F08480121F022A40F28080D4
:100380000E3A00F00981521F59D0093A78D0921ED6
:1003900016D0521E35D0521E022A71D9121F30D0EB
:1003A000521F00F09880521E49D0521E00F0E28089
:1003B000D21E00F0FF80921E41D0D21E3FD02DE110
:1003C00095F83A406C2C09D06869421C6A610A6849
:1003D0000A6052F8043B0A60335429E10A680A6053
:1003E00052F8043B0A600093002201924FF0FF3361
:1003F0002B636A46294600F098F9002840F11881DD
:1004000003E195F83A000122FFF76DFFC5E900010D
:10041000002904D56869411C69612D220DE0288FEF
:10042000810704D56869411C69612B2205E0C0077A
:1004300021D56869411C6961202232541BE095F87E
:100440003A000022FFF74FFFC5E9000195F8380098
:10045000010710D5D5E90023002B08BF002A0AD0D8
:1004600044F02000782806D1686930213154401CBE
:10047000421C6A613454214668693044E86087E070
:100480000868C01D20F007000860D0E9002308308C
:100490000860C5E90023D5E90001C80F04D06869E8
:1004A000411C69612D220DE0288F810704D5686900
:1004B000411C69612B2205E0C00704D56869411C15
:1004C00069612022325468693044E8602146284638
:1004D00000F036FAACE005F13A02507820B14FF066
:1004E000FF340FF6043074E01078622808D06828D2
:1004F00024D06A2812D06C282ED071280ED02BE080
:100500000A680A6052F8040B0A6020B94FF0FF3401
:100510000FF6EC205DE0E96A017089E00A680A6084
:1005200052F8040B0A6020B94FF0FF340FF6D020C8
:100530004FE0EA6AD317C0E9002379E00A680A604D
:1005400052F8040B0A6020B94FF0FF340FF6B020C8
:100550003FE0E96A01806BE00A680A6052F8040B28
:100560000A6020B94FF0FF340FF6942031E0E96AB9
:1005700001605DE00A680A6052F8040B0A6000211D
:1005800020F0000221F0FF33C5E90023EE6078215E
:10059000284600F02DF94BE06C2285F83A200B68D4
:1005A0000B6053F8042B0B6052BB4FF0FF340FF677
:1005B00084200EE095F83A206C2AF0D00868086094
:1005C00050F8044B0860EC603CB94FF0FF340FF674
:1005D000482000F0EBFD201A76BD2E6B002E04D5CE
:1005E000204600F003FE044608E032460021204683
:1005F00000F026FE002814BF041B3446AC6117E04F
:10060000294600F092F8002812D54FF0FF3076BD51
:100610006869411C69612522325409E06969481CF6
:10062000686125227254210002D0431C6B6134544E
:10063000002076BD2DE9F0410E4605469046726BCE
:100640007069316AB46A121AB069521A716A121A60
:10065000F069521A121A96F83800141B41070DD48B
:10066000002C0BDD2746B0682021A8470028B06089
:1006700057D0F06A401C7F1EF062F4D17369424685
:100680003146284600F098FC00284AD1376A002FEE
:100690000ADDB0683021A8470028B06041D0F06A78
:1006A000401C7F1EF062F4D1B369F26831462846DF
:1006B00000F082FCA8BB776A002F09DDB06830210A
:1006C000A847B06068B3F06A401C7F1EF062F5D1A5
:1006D000F068B169F36942183146284600F06CFCB5
:1006E000F8B9B76A002F09DDB0683021A847B060BB
:1006F000B8B1F06A401C7F1EF062F5D196F8380060
:1007000041070BD5002C09DDB0682021A847B06057
:1007100038B1F06A401C641EF062F5D10020BDE8DB
:10072000F0814FF0FF30BDE8F0812DE9F8470D462C
:10073000A3B02F6B002F0646904648BF6FF00047CE
:100740000FF60C1400F0A8FDD4E90023696B4018E3
:10075000CDE90123812828BF4FF0FF3042D2002489
:10076000002F33DDD8F8001001AA684600F0EEFC37
:100770008146B9F1000F38D4D8F8000010B9B9F1AA
:10078000010932D44F4521DB6869484481280AD3E6
:100790000021696303AA29463046FFF74BFF040096
:1007A00014D40020686103ABD5F814A04A4669460A
:1007B00003EB0A0000F082FDCA44C5F814A058F803
:1007C000040B002818BFA7EB0907C9D14CB903AA2D
:1007D00029463046FFF72EFF044614B90020686111
:1007E0006863204624B0BDE8F0874FF0FF34F8E797
:1007F0002DE9FC4307466F293E6908BF082405D050
:1008000041F02000782814BF0A2410243C25D7E9A1
:100810000023642918BF69299046994605D1002B09
:1008200003D5D8F1000869EB4909B9F1000F08BFF9
:10083000B8F1000F1FD1386BE8B9082C4CD197F8EC
:100840003800010748D530203B2586F83B0043E0BF
:1008500000280ED597F8380000F01400102808D1B1
:100860007B6B7969386A5B1A1B1A9A1A002AC8BF0F
:100870003A62BDE8F3838DF80010404649462246AF
:10088000E31700F06FFD3032D0B26D1E3A280195AB
:1008900004DB9DF80000A0F151018A187255404612
:1008A00049462246E31700F05DFD80465FEA0109F4
:1008B00008BFB8F1000F03D0F86871198842DCD383
:1008C000082C09D197F83800010705D5705D30284C
:1008D00002D06D1E30207055C5F13C02BA6171190D
:1008E000F960386B8242B3DA821A3A624FF6EF70DF
:1008F000398F01403987BDE8F3832DE9D04306469F
:100900000F4614464FF00008DFF8109412E0E0079D
:1009100007D542464B463046394600F03BFE064678
:100920000F464046494642464B4600F033FE6410AF
:1009300080468946002CEAD130463946BDE8D0834E
:100940002DE9F84F05468A464AF020048EB0D5E9D5
:100950000089612C02AE09D0286B002848BF062010
:1009600003D408BF672C01D101202863D5E9000119
:100970004A005215521C0DD10B030BD0AAF1610194
:1009800003201A29A86102D20FF2CC6110E00FF205
:10099000CC610DE04A005215521C0ED10B030CD154
:1009A000AAF1610103201A29A86116D30FF2B461DC
:1009B000E868032200F082FCC0E1CDE90C01DDE92A
:1009C0000C2323F00043B3F5801F0DD20027002B2A
:1009D00008BF002A019703D111E00FF28461E7E715
:1009E00001AA00F0A9FE0AE0CD48CE4900EB135061
:1009F000DDE90C2301900B40CB4910461943C5E9B2
:100A00000001612C0DD1E86830210170821CBAF11F
:100A1000610FEA600CBF7821582141706869801C21
:100A20006861D5E90001CDE90C01DDE90C2333F063
:100A3000004104BF0028002300F04881612C40F0F1
:100A4000A080286B494600284CBF4FF0210B00F1D5
:100A5000010B404600220023DDE90C8900F0A4FED2
:100A600001990BF1010738BF89F00049091F002FD8
:100A700001918DF808200DF1090040F33581A94955
:100A800000910646404649460022002300F0A4FE9D
:100A900080F029814800400D00F11C0211D0002A8D
:100AA0000FDD40F2FF739A4205DBA04909F00040D8
:100AB0000143002011E0009B194041EA02514046E9
:100AC0000BE028F0000039F0004108BF00280FBFFC
:100AD00049461C22494600F097FE8046894600F0B0
:100AE00031FFFF1F002F044609DD00F049FF0246D9
:100AF0000B464046494600F055FF80468946F01DAA
:100B0000072104E004F00F0200F8012D2411002C4D
:100B100001DD491EF6D5491E5CBF002200F8012DFB
:100B2000F9D5DCE00020194602AA0A4400E05B1E69
:100B300012F80149491E8442F9D00F2804D10DF161
:100B40000900425C521C4254002904D50198001D42
:100B500002AE5B1C0190581E0CD43118AAF13A0465
:100B60000A783032D7B23A2FA8BFA218401E01F837
:100B70000129F5D5286B002840F1A780591E29636B
:100B8000A3E001996A4A47F29750414391FBF2F280
:100B9000019229F00046D2F1070204DD40463146B9
:100BA000FFF7ABFE0AE0524200206249FFF7A5FEC4
:100BB00002460B464046314600F066FF8046662CF2
:100BC000286B06BF019F0A3706273F18142FC8BF9E
:100BD000142730208DF8080089460DF1090000E047
:100BE0003046002F34DD06464046494601F070F895
:100BF00001460A4606F1080304200A26B2FBF6F66F
:100C000006EB860EA2EB4E02303203F8012C0A22CC
:100C1000B6FBF2F202EB820EA6EB4E063036401E19
:100C200003F8026DE9D1083F002F03F10806D7DD74
:100C3000084601F061F802460B464046494600F07E
:100C4000B1FE00223C4B00F0A5FC80468946CBE774
:100C50000DF10901401A0DF1090604E00199491E40
:100C6000401E0191761C31783029F7D0662C02D1D4
:100C70000199491C03E0652C0CBF012100212B6B5D
:100C8000CB189842B8BF431E002B1ED4834204DA0F
:100C9000F05C3528A8BF392000DA30201946721ED2
:100CA00002EB010800E05B1E18F80199491E81451E
:100CB000F9D0392802D1705C401C7054002904D549
:100CC0000198401C16465B1C0190019800B20090F0
:100CD0001BB232465146284600F034F82EE0C61DBD
:100CE000002F3FF7CFAE30460DF10901401A034601
:100CF0005845C8BF5B46002B0DF109063FF53AAFDA
:100D00008342BFF60FAF0DF10900C15C07297FF7E1
:100D100009AF0F2007E70000CBCCCC0C000024402B
:100D200002FCFFFFFFFF0F800000E03F0000F07FAC
:100D3000A08601000000F03F84D797410FB0BDE8C6
:100D4000F08F00002DE9F84783B006468A46174623
:100D5000984600F0FDF9B8F1000F406A356B90F845
:100D6000009002DC4FF00108BFA74AF02000BDF957
:100D70003040662808BF641C15D0672840F0848086
:100D800014F1040FC0F28680AC4280F2838096F8A2
:100D90003800641C010702D4A845B8BF454620B2FC
:100DA0002D1A48BF00250FFA84FAF068B169BAF12C
:100DB000000F25DC4A1C30234354002D03DC96F839
:100DC0003800010703D5F06800F80290521C15EBBB
:100DD0000A0FB8BF6C4220B2441941424445B8BF23
:100DE000A046B26171620FFA88F5F561F068B369E7
:100DF0002A463946184400F061FA641BB462C4E024
:100E000022B29045084417DA4246394600F056FAB5
:100E1000B0694044B061AAEB0801002D716203DCA7
:100E200096F838100A0705D5F16801F80090F069C6
:100E3000401CF061B562A8E0394600F03FFAB069A5
:100E4000002D5044A8EB040803DC96F838100A077C
:100E500003D5F16801F80090401CB0610FFA88F0EA
:100E60008542F368B069B8BFA8460FFA88F207EB6D
:100E70000A01184400F022FAB1690FFA88F001441F
:100E8000B161281A706280E0BAF1610F14D14FF09D
:100E9000700A16E0A84504DA96F838100A0758BF19
:100EA00045466D1E48BF0025BAF1670F14BF4FF0CD
:100EB000450A4FF0650A04E0BAF1410F08BF4FF050
:100EC000500AB169F368481CB061002D17F8012B76
:100ED0005A5403DC96F838100A071BD5F168431CF6
:100EE000B36101F80090002D14DDA8F101080FFA9C
:100EF00088F039468542F768B8BFA8460FFA88F2ED
:100F0000F81800F0DBF9B0690FFA88F108446D1A9F
:100F1000B0617562F068B1690844002C80F800A0E7
:100F200003D42B224270811C03E02D2141706442C6
:100F3000811C00206A460AE023460A2493FBF4F44D
:100F400004EB8405A3EB450302F8013B401C24B2EB
:100F5000002CF1DC012806DC4AF02002652A04BFDF
:100F6000302201F8012B48B9302001F8010B07E0CD
:100F7000401E1DF80030303301F8013B0028F7DC3B
:100F8000F268B0691044091AF16196F8380000F06F
:100F9000140010280DD17269B169706A8A18F1695C
:100FA0008218B06A8A188218706B8242BCBF821A9B
:100FB000326204B0BDE8F087F8B505460E46174624
:100FC0001C46002074B117F8011BB068A847B06038
:100FD00030B1F06A401CF0620020641EF3D1F2BD13
:100FE0004FF0FF30F2BD00007072696E74665F737F
:100FF0003A20256E20646973616C6C6F77656400BC
:101000007072696E74663A2062616420256E206198
:101010007267756D656E74007072696E74665F7369
:101020003A2062616420257320617267756D656E78
:10103000740000007072696E74665F733A206261BA
:101040006420256C7320617267756D656E74000095
:1010500000000000000000006E616E004E414E0076
:10106000696E6600494E46003000F0B402461068D2
:1010700095681318506803EB5004C0071DD54D4404
:101080001BE013F8017B05F8017B491EF9D1A0B1E3
:10109000B60813F8011B06F00306032E08BF13F869
:1010A000016B01EB06214942801C294405D011F84F
:1010B000016B05F8016B401EF9D1A3420ED013F865
:1010C000016B16F0030104BF13F8011BC91C3009A2
:1010D0000F28DAD113F8010B0F30D6E7F0BC02F17C
:1010E0000C0070471B48704770B45368D418042B29
:1010F00009DA41B1057804F8015B10F8016B16B10B
:101100005B1C491EF3E7536070BC704738B514464A
:101110001D4661B1FFF7E8FF61686A6B20469047A2
:101120006FF00102811A02D0491E01D001E003E0F4
:1011300005E00021616032BD6FF0010032BD4FF06B
:10114000FF3032BDDA6B1047024BDFE7014BF9E7A6
:1011500001487047B803002080030020C9B202781C
:101160008A421AB11CBF10F8012FF9E718BF0020FE
:10117000704730B4002513E050F8042BD30744BF68
:10118000A9F101039A18091F042942F8045BFAD255
:1011900013468C0744BF15809B1CC90748BF1D70B0
:1011A00050F8041B0029E7D130BC704780B500B966
:1011B00006A005490B681BB122220021984701E0D7
:1011C00000F0A7FD222002BD9C0C0020636F6E730F
:1011D000747261696E742068616E646C65723A2025
:1011E000626164206D6573736167650000F10103DE
:1011F000810704D010F8011B820781B1FAD102687F
:10120000A2F10131914311F0803104BF50F8042F55
:10121000F6E709BAB1FA81F100EBD100401CC01A1F
:101220007047B1F5807F02D34FF0FF3070470170F7
:10123000012070470078401E8041C043C00F7047B6
:10124000C9B2830706D0521E22D310F8013B99423F
:10125000F7D11FE0083A13D302F1040241EA012159
:1012600041EA014150F8043B121F21BF4B40A3F15A
:10127000013C2CEA030C1CF0803FF3D0C9B2001FE4
:10128000083210F8013B521E28BF91EA030FF8D82C
:1012900018BF0120401E704780B5FFF723FF006C88
:1012A00002BD8268521C8260426832B10268531CDF
:1012B000036011704168491E4160704762B38B073B
:1012C00008D0521E11F8013B00F8013B00F02480C9
:1012D0008B07F6D1830740F0208000BF103A07D378
:1012E00030B4B1E83810103AA0E83810F9D230BC68
:1012F000530724BFB1E80810A0E8081044BF51F814
:10130000043B40F8043BD20724BF31F8022B20F8FD
:10131000022B44BF0B7803707047121F17D35B007A
:1013200009D151F8043B20F8023B1B0C121F20F896
:10133000023BF6D20BE051F8043B00F8013B1B0ADC
:1013400020F8023B1B0C121F00F8013BF3D238BF00
:10135000121D521E24BF11F8013B00F8013BF8D8C2
:1013600070470000BBBBE1B1B2F5803F80F07E80EA
:10137000022A1ED98C46B1FBF2F102FB11C31B04F9
:1013800043EA1043B3FBF2FC02FB1C3380B240EA99
:101390000343B3FBF2F002FB103240EA0C4000239F
:1013A0007047022A05D98446B0FBF2F002FB10C256
:1013B00070474AB105D100F0010249085FEA3000E8
:1013C000704700220023704700F0A6BC0B0002000B
:1013D000002100207047904271EB030CF6D3B3F567
:1013E000803F2FD2F0B5B3FA83F7B1FA81F4A7F1B9
:1013F0000F0E3D1B5340CEF1200602FA0EF2F341D0
:101400005340B5F10F0746D80F3C2C444140C4F17E
:101410002006A040F1414140B1FBF3F603FB161159
:10142000A2FB0645001BA94102D2761E8018594135
:1014300080EA010221FA0EF362FA0EF200215A400C
:101440003046F0BD30B4B1FBF3FC03FB1C11A2FB32
:101450000C45001BA94103D2ACF1010C8018594185
:1014600030BC02460B46604600217047B2F1807FD7
:1014700065D3F0B5B2FA82F7B1FA81F4C7F10F067D
:101480003D1B22FA06F307F1110EF24120355A40B6
:10149000B5F10F07B8D94140C4F12006A040F14191
:1014A0004140B1FBF3FC03FB1C11A2FB0C45001BEC
:1014B000A94103D2BCF1010C801859410F2F12D35E
:1014C0000F3FC90341EA5041B1FBF3F603FB16118C
:1014D000A2FB0645D4EBC030A94102D2761E80188B
:1014E000594146EACC3C07B34140C7F12006B84019
:1014F000F1414140B1FBF3F603FB1611A2FB064597
:10150000001BA94102D2761E8018594180EA0102CF
:1015100021FA0EF3C7F1200462FA0EF20CFA07F07A
:101520005A402CFA04F13043F0BD80EA010221FA5E
:101530000EF3002162FA0EF260465A40F0BD8C466E
:10154000B1FBF2F102FB11C31B0243EA1063B3FBD0
:10155000F2FC02FB1C331B024CEA002043EA10633E
:10156000B3FBF2FC02FB1C331B024CEA002043EAF3
:101570001063B3FBF2FC02FB1C331B024CEA00209D
:1015800043EA1063B3FBF2FC02FB1C324CEA00207E
:1015900000237047B0B581EA030C0CF0004C40F218
:1015A000FF7515EA11541DBF15EA1357AC42AF423F
:1015B00039E0E41923EA455343F48013C90241F0AA
:1015C000004141EA505EC7021100A7FB0202002859
:1015D0004FF00000EEFB01204FF00001E3FB07217C
:1015E00018BF42F00102401800214941E3FB0E01FF
:1015F000A4F580640F0302D252004041494154F1E6
:1016000001046CDD470872F1004250F1000051EB1B
:101610000451A1F580115CBF41EA0C01B0BD4CEA58
:1016200005510020B0BD05EA1357AC4214BFAF42CC
:1016300041E050EA410E1CBF52EA430E02E061460F
:101640000020B0BD24423C441BD15FEA070EF6D017
:10165000090302BF01460020AEF1140EB1FA81F772
:10166000AEEB070401FA07FE0C37C7F1200100FAC0
:1016700007F7C8404EEA000E23EA455343F48013AF
:10168000A2E733F00043B3FA83F704BFB2FA82FE55
:1016900077440B3FE41BB7F1200E2FBF02FA0EF385
:1016A000BB40C7F1200E22FA0EFE38BF43EA0E03FC
:1016B000BA40641C82E750EA410E14BF52EA430E5E
:1016C0006FF000014FF4001717EB430F8ABF194664
:1016D00017EB410FB5E74CEA05510020B0BDD4F13E
:1016E0000104B4F120070FDAC4F12007520828BF23
:1016F00042F0010210FA07F501FA07F7E1BF2A43A9
:10170000E0403843E1400FE0352C98DCC7F120047D
:1017100052EA400220FA07F218BF42F0010231FA01
:1017200007F0A1400A43002172F1004250F100008D
:1017300051EB0C01B0BD000010B5144600F002F8EA
:10174000226010BDC1F30A5343B14A0012F5001FD5
:1017500028D2A3F2FE32A1EB0251704750EA410CAD
:1017600020D001F0004C31EA0C01B1FA81F204BF43
:10177000B0FA80F3D2180B3AB2F120032CBF00FA72
:1017800003F1914041EA0C013EBFC2F1200C20FA66
:101790000CF319439040524240F2FD33D21A01EB50
:1017A00003517047002270474FF4001C1CEB410F9F
:1017B00094BF1CEB430F09E041EA030C50EA4C0CC8
:1017C00052EA0C0C03D2994208BF9042704714BFF2
:1017D0008B428242704700004FF4001C1CEB410F0B
:1017E00094BF1CEB430F09E041EA030C50EA4C0C98
:1017F00052EA0C0C03D28B4208BF8242704714BFDE
:101800009942904270470000124254D440F2FF7C4B
:101810001CEA11530FD0634531D09B1863453CBF80
:1018200001EB0251704701F0004141EA0C510020E8
:10183000AFF30080704750EA410320D001F0004C24
:1018400091EA0C011CD0B1FA81F30B3B9A420DD9FD
:10185000D21A994051EA0C01C3F1200C20FA0CFC79
:1018600061449840531C40F2FF7CD7E7914041EA25
:101870000C01C2F1200C20FA0CF319439040704780
:10188000B0FA80F31533202BE0D3202AEED3203A90
:10189000203B9A4209D9D21A00FA03F141EA0C011D
:1018A0000020531C40F2FF7CB8E700FA02F141EA45
:1018B0000C0100207047524240F2FF7C1CEA115399
:1018C0000DD06345DBD0B2EB030C3CBFA1EB025162
:1018D00070470CF1010221EA035141F4801150EAF2
:1018E000410CCCD001F0004C352A27DC30B481EA21
:1018F0000C01B2F1200309DAC2F12003044601FA17
:1019000003F5D0402843D1409C400CE0C3F12002B5
:10191000450020FA03F418BF44F0010421FA03F053
:1019200091400C43002174F1004550F1000051EB4F
:101930000C01244230BC7FF47BAF7047614600202D
:1019400076E70000C1F30A5340F2FE329B1A14DD21
:10195000D3F120034FEAE17208DDC90241EA505198
:1019600041F00040D84080185040704703F2E13009
:1019700010B1D24382F00040704700207047000051
:10198000C11768B14840401AB0FA80F29040D21CAA
:10199000C907C2F5846241EA025202EBD021400538
:1019A0007047000070B44FF0004591EA030F40F11A
:1019B000B5816B40841A71EB030603D2001BB14161
:1019C000121973414FF4001C1CEB410F34BF7CEB28
:1019D000430442E00C0DA4EB1356352E4FDC45EAD0
:1019E000C323DB0A45EAC121C912B6F120050DDD8A
:1019F00063FA05F6EB4086EA0305124218BF45F08C
:101A00000105C01851F100010CD213E062FA06F58D
:101A1000F2405540F3415A40B340F3405A408018D9
:101A2000594107D349085FEA30005FEA350528BF0E
:101A300045F0010501F58011420875F1004250F1B1
:101A4000000041EB04514E0016F5001F70BC38BF7A
:101A500070470020090D090570471CEB410F10D29B
:101A600052EA43060BD0BCEB410F05D80C0DAB433B
:101A7000661E342EB6DD02E0AB438018594170BCBF
:101A8000704770BC70470000F0B540F2FF7581EA06
:101A9000030C0CF0004C15EA11541DBF15EA135746
:101AA000AC42AF42E5E0BC41C1F31301C3F3130301
:101AB000801A994143F4801304D2641E40004941C6
:101AC00080185941C90241EA5051B1FBF3F603FBBA
:101AD0001611A2FB0675D7EBC020A94102D2761ED3
:101AE00080185941C90241EA5051B1FBF3FE03FB92
:101AF0001E11A2FB0E75D7EBC020A94103D2AEF197
:101B0000010E80185941890241EA9051760546EA52
:101B10008E2EB1FBF3F603FB1611A2FB0675D7EB75
:101B20008020A94102D2761E80185941C90241EA9B
:101B300050514EEA060EB1FBF3F603FB1611A2FB61
:101B40000675D7EBC020A94102D2761E80185941F4
:101B5000C90241EA5051B1FBF3F703FB1711A2FB95
:101B60000735D3EBC020A94167F100070CBF004245
:101B700047F0010766F3D5274FEA1E31B80814F580
:101B8000806412DDBD0775F1004250EB0E5051EB41
:101B9000045111F5801F5CBF41EA0C01F0BD4CF00F
:101BA0007F6141F0E0410020F0BDBD076D0840EAD3
:101BB0000E5041F48011D4F10104B4F120060ADA88
:101BC000C4F120060200E04001FA06F3E1401843A8
:101BD000B24015430EE0342C13DCC6F1200445EA74
:101BE00040056D0820FA06F2154321FA06F0A140DF
:101BF0000D43002175F1004250F1000051EB0C0142
:101C0000F0BD00205FEA0C01F0BDCFB992185B4136
:101C1000B3FA83F704BFB2FA82F6BF190B3FB7F1EC
:101C200020062FBF02FA06F3BB40C7F1200622FAB6
:101C300006F638BF3343BA401CB1E419641E33E7DB
:101C40007F4231F00041B1FA81F404BFB0FA80F66E
:101C5000A4190B3CB4F120062FBF00FA06F1A140F5
:101C6000C4F1200620FA06F638BF3143A0403C1BE1
:101C70001AE7AC421ABF05EA1357AF4212E050EA26
:101C800041061CBF52EA4306BFE750EA410730460F
:101C900061461CBF41EA0551F0BD52EA430C08BF42
:101CA000C143F0BD00204FF4001616EB410F98BF62
:101CB00016EB430F08BF16EB410F24BFC14305E0ED
:101CC00016EB430F0CBF61464CEA0551F0BD000016
:101CD000400D491840EA81200CD2490DA1F58061E0
:101CE000491C40F0004005DBD1F11F0154BFC84042
:101CF000C017704700207047014648B1B0FA80F124
:101D00008840C91CC1F58461090501EBD02140055B
:101D10007047012000F0B8B870470000841A71EBDA
:101D2000030604D26E40001BB141121973414FF4F7
:101D3000001C1CEB410F34BF7CEB430683E00C0D11
:101D4000A4EB1356362E00F37C80012E45EAC32304
:101D500041DC43EA525312BFD20292025B082405CF
:101D600045EAC12141EA5051D2EBC020994125D426
:101D700007D1B0FA80F610FA06F162D000202036C2
:101D800008E0B1FA81F6B140C6F1200220FA02F271
:101D90001143B0404FEAF474B4EB465434F00106FA
:101DA0004FEA74040AD8D6F50016760D04F0004404
:101DB000F04061FA06F25040F1404840C00A40EA63
:101DC000415021F0004128BF5FEA500550F100006A
:101DD00044EBD12135E0DB0A45EAC121C90AB6F15D
:101DE00020050EDD42EA0242120CC5F1200603FA7C
:101DF00006F6EB4042EA06056D42984161F10001AA
:101E00000DE062FA06F5F240554063FA06FC82EAFC
:101E10000C02F3405A406D42904161EB030111F412
:101E2000801F05D1641E620502D06D00404149410A
:101E300021F48011430875F1004350F1000041EB9B
:101E4000045170BC70471CEB410F15D223F00043C6
:101E500052EA43060BD04FEA4C0CBCEB410F04D8BE
:101E60000C0D661E342EB7DDEBE7801A994150EA5F
:101E7000410608BF0021E4E708BF1CEB430F28BF61
:101E80006FF00001DDE7000080B5AFF30080024A8B
:101E900011001820ABBEFBE7260002002DE9F04F31
:101EA000DFF810B0B5B09BF800402CB935B0BDE8F4
:101EB000F08F00BF0C0A0020066813460024149619
:101EC000DBF88C6047680C96DBF87860D0F808C0C7
:101ED000B246D0F80CE0D0F81490D0F810802992D7
:101EE0001591DBF88820DBF884102196149EDBF82E
:101EF000FC50DBF800012797CDF8A0C0CDF858E0E2
:101F0000CDF86C80CDF874900D910B92DBF8041134
:101F1000DBF8F0202B961C602C97CDF8B4C0CDF8E0
:101F2000B8E0CDF8BC80DBF818310C9E0893DBF8E4
:101F30001C31DBF87CE0DBF880800D9CCDF8C09094
:101F4000CBF80C01DBF86C900B98CBF89860CBF8D1
:101F5000FC200993DBF87020DBF82031DBF874609B
:101F6000CBF80851CBF89040DBF8F450DBF8F840A0
:101F7000CBF89400CBF81011DBF8E400DBF8E810A4
:101F8000CBF884A00A93CDF87CE0CDF88080CDF822
:101F900078901292DBF8EC201196DBF864C0DBF845
:101FA00060706346CBF8F820119A1097DBF868A0B0
:101FB000DBF8D860DBF8DC70CDF898C0CBF80441D2
:101FC000DBF8E0C0DBF85440CBF8F410CBF880200D
:101FD0001299109ACDF894A0CBF80051CBF888E074
:101FE000CBF88C80CBF8F000CBF87890DBF8CC0005
:101FF000CBF87C10CBF8E460DBF8D010CBF86C2089
:10200000CBF87030CBF8ECC0CBF874A02494CBF8AC
:10201000E870DBF85870DBF8C860DBF8D42006966F
:10202000DBF85CC0DBF848E0DBF84CA0DBF84030C4
:10203000DBF85090DBF83C60DBF8C080DBF8C45084
:10204000CBF8E020069A2397CDF888C0CDF868E059
:10205000CDF864A0CDF808900196DBF8B490DBF8D9
:10206000B8601893CBF8D800CBF86040CBF8DC1000
:10207000CBF86470CBF868C0CBF854E0CBF858A02C
:10208000CBF8CC80CBF8D050CBF8D420029ADBF838
:1020900024C0CBF85C20019ADBF844A0CBF84820A0
:1020A000DBF83020DBF83410DBF83840DBF89C70CC
:1020B000CBF84C30DBF8A8E0DBF8BC300F92CDF861
:1020C00014C0DBF82820DBF82CC0DBF8AC001C9334
:1020D0000E911394DBF8B01007970392DBF8A07011
:1020E000DBF8A440CDF810C0CBF8C830CBF8C090D6
:1020F000CBF8C460CDF85CA0CBF850A0CBF8B4E02E
:102100000F9BBBF914E1CBF83C300E9B0BF19C0C00
:10211000CBF84030139B2BAACBF84430079BCBF86D
:10212000B800CBF8A830059BCBF8BC10CBF830300A
:10213000039B07CACBF83430049BCBF8AC70CBF8C8
:102140003830BEF1090F8CE807002EAA0BF1240CE1
:1021500007CACBF8B0408CE8070040F36B83DBF88C
:1021600018A0169B514623F0004000F0CFFB00283A
:1021700000F06E831B9B504623F0004100F0CCFB27
:10218000002800F065831D9B504623F0004100F0BD
:10219000C3FB002800F05C83DBF81C20149B114675
:1021A00023F00040149200F0B1FB002800F05083AF
:1021B000279B149A23F00041104600F0ADFB002845
:1021C00000F04683289B149A23F00041104600F04B
:1021D000A3FB002800F03C839F49DBF89C0000F043
:1021E000A1FB9E491490079800F09CFB149B0146AC
:1021F000184600F003FC9A490790484600F092FB0D
:10220000079B0146184600F0F9FB96498146404677
:1022100000F088FB0146484600F0F0FB8E498046FE
:10222000DBF8A00000F07EFB8C498146384600F0C8
:1022300079FB0146484600F0E1FB894907463046F4
:1022400000F070FB0146384600F0D8FB8549064691
:10225000284600F067FB0146304600F0CFFB7E4980
:102260000546DBF8A40000F05DFB7C4906462046ED
:1022700000F058FB0146304600F0C0FB78490446A8
:102280001C9800F04FFB0146204600F0B7FB754953
:102290000446069800F046FB0146204600F0AEFBDF
:1022A00041460446404600F03DFB29460646284686
:1022B00000F038FB0146304600F0A0FB0546214601
:1022C000204600F02FFB294600F098FB00F008FCA8
:1022D000DDF814A006906149504600F023FBDBF8BE
:1022E000248004465C49404600F01CFB0146204621
:1022F00000F084FB5A490446019800F013FB0146A4
:10230000204600F07BFB574904461A9800F00AFB70
:102310000146204600F072FBDBF8289005464E4946
:10232000484600F0FFFA4D490446039800F0FAFAD7
:102330000146204600F062FB49490446189800F027
:10234000F1FA0146204600F059FB46490446199827
:1023500000F0E8FA0146204600F050FBDBF82C7054
:1023600006463D49384600F0DDFA3C4904460498EB
:1023700000F0D8FA0146204600F040FB38490446F8
:10238000179800F0CFFA0146204600F037FB354998
:102390000446029800F0C6FA0146204600F02EFBE3
:1023A00029460446284600F0BDFA31460546304627
:1023B00000F0B8FA0146284600F020FB0546214609
:1023C000204600F0AFFA294600F018FB00F088FB29
:1023D000069B04461946DBF8040000F09DFA00282D
:1023E00000F036822146DBF8080000F095FA00285C
:1023F00000F02E820021DBF80C0000F08DFA00289E
:1024000000F0268251464046454600F0A3FB00B945
:102410005546059E40463146444600F0A3FB00B9B0
:1024200034460F9E2846314600F094FB00B93546ED
:102430003146204600F096FB00B93446019E2846FE
:10244000314600F087FB00B935463146204600F0A2
:1024500089FB48B9344607E0CDCC4CBECDCCCCBDD1
:10246000CDCCCC3DCDCC4C3E1A9E2846314600F01A
:1024700071FB00B935463146204600F073FB00B9C8
:102480003446249E2846314600F064FB00B93546A8
:102490003146204600F066FB00B93446109E2846BF
:1024A000314600F057FB00B935463146204600F072
:1024B00059FB00B934461E9E2946304600F04AFBBF
:1024C00000B92E461E9D2146284600F04BFB00B960
:1024D0002546219C3146204600F03CFB00B934469D
:1024E000219E2946304600F03DFB00B92E460D9D49
:1024F0002146284600F010FA002840F0FA812946CB
:10250000304600F02FFB00B92E463146204600F041
:1025100031FB474900F000FA002840F09981039C04
:10252000484621464D4600F015FB00B92546214698
:1025300048464E4600F016FB00B926460E9C29463A
:10254000204600F007FB00B92C460E9D3146284678
:1025500000F008FB00B93546189E2146304600F0D1
:10256000F9FA00B92646189C2946204600F0FAFAE6
:1025700000B92C46199D3146284600F0EBFA00B907
:102580003546199E2146304600F0ECFA00B9264641
:10259000239C2946204600F0DDFA00B92C46239DF5
:1025A0003046294600F0DEFA00B92E46269D214627
:1025B000284600F0CFFA00B92546269C3146204631
:1025C00000F0D0FA00B93446129E2846314600F099
:1025D000C1FA00B935463146204600F0C3FA00B9C9
:1025E00034461F9E2946304600F0B4FA00B92E4604
:1025F0001F9D2146284600F0B5FA00B925460B9CE0
:102600003146204600F088F9002840F069812146D3
:10261000284600F0A7FA00B925462946304600F0C2
:10262000A9FA034900F078F9002840F0118101E08F
:10263000CDCCCC3E049D384629463C4600F08AFA73
:1026400000B92C46294638463E4600F08BFA00B9C0
:102650002E46139D2046294600F07CFA00B92C46F0
:102660002946304600F07EFA00B92E46179D2146D5
:10267000284600F06FFA00B92546179C31462046DF
:1026800000F070FA00B93446029E2846314600F048
:1026900061FA00B935463146204600F063FA00B9C8
:1026A0003446229E2846314600F054FA00B9354699
:1026B0003146204600F056FA00B93446259E284699
:1026C000314600F047FA00B935463146204600F061
:1026D00049FA00B93446119E2846314600F03AFACC
:1026E00000B935463146204600F03CFA00B9344680
:1026F000209E2946304600F02DFA00B92E46209D36
:102700002146284600F02EFA00B925460C9C314699
:10271000204600F001F9002840F0D98021462846E3
:1027200000F020FA00B925462946304600F022FA8A
:10273000744900F0F1F8002840F08A80BBF82421A9
:10274000632A05D8013292B2092AABF8242175D93F
:102750000124299B1C609BF81621002A7CD1059935
:10276000404600F04BF90F9900F048F9019900F04C
:1027700045F91A9900F042F9249900F03FF91099AF
:1027800000F03CF91E9900F039F9219900F036F972
:102790000D9900F033F95C4900F0C4F8039905463F
:1027A0000890484600F02AF90E9900F027F9189988
:1027B00000F024F9199900F021F9239900F01EF98D
:1027C000269900F01BF9129900F018F91F9900F0F2
:1027D00015F90B9900F012F94B4900F0A3F8049990
:1027E00006460990384600F009F9139900F006F9F9
:1027F000179900F003F9029900F000F9229900F00E
:10280000FDF8259900F0FAF8119900F0F7F82099F1
:1028100000F0F4F80C9900F0F1F83B4900F082F870
:10282000CBF818510A90CBF81C61CBF820018BF83B
:10283000164103E00EF1010EABF814E1159A089B66
:102840001360099B53600A9B936035B0BDE8F08F1D
:102850000022ABF82421F1E7DBF820404FF07E5056
:10286000214600F087F921460546169800F05AF8EF
:1028700029460646089800F055F80146304600F013
:10288000BDF803460890CBF8183121461B9800F09C
:1028900049F829460646099800F044F801463046B2
:1028A00000F0ACF803462946CBF81C3109900A9891
:1028B00000F038F8214605461D9800F033F801462F
:1028C000284600F09BF80A90CBF82001B6E729468D
:1028D0002046264600F01AF800287FF42FAF23E7A1
:1028E0002946204600F012F800287FF4A3AE2646C1
:1028F00093E63146284600F009F800287FF40FAE31
:102900002C4602E6CDCCCC3ECDCCCC3D724600F080
:1029100071F9804140421047724600F07DF98041D4
:1029200040421047FF2212EAD05C1DBF12EAD15389
:10293000944593422BE09C44D30780EA01021A405D
:1029400043EA002043EA0121A1FB0030C04238BF26
:1029500040007CF17F010BDBFE294ADA5B0842EA8A
:10296000C15153EA006373F1004C51EB10207047E2
:10297000D1F1080CDCF120012FDB5B0810FA01F12A
:102980000B4320FA0CF073F100415041704794451D
:102990001CBF02EAD153934280EA010202F00042D6
:1029A0001DD0400019D0490017D05BB9634514D041
:1029B0000902B1FA81F39940BCEB030CC00140F06D
:1029C0000040C1E70002B0FA80FC10FA0CF0B3EB53
:1029D0000C0CC90141F00041B6E7100070474000FF
:1029E0000AD0490008D010F1807F94BF11F1807F98
:1029F00002E042F0FF407047D043704790EA010F79
:102A000040F1BE8081F00041431A4FF000423EBFCA
:102A10005340C01AC91800BFD3095FEAD05C13EB5A
:102A2000400F34BFB3EB410F40E07CEBD1530CD3EC
:102A300042EA012122D8D1EB402009D3400A28BF25
:102A40005FEA500140EBCC507047401A15D040026D
:102A5000B0FA80F2521C9040400A4FEA3C23B3EB9C
:102A6000026384BF00EB730007E040F400001A1615
:102A7000DB07C2F10102D04018437047182BFCDC81
:102A800031FA03F202FA03F3591A38BF42F0010295
:102A9000D2EB40203CBF4000ACF1010C5FEACC5CC3
:102AA000C20572F100414CEB5020704713EB400F10
:102AB0000FD2C94209D0ACEBD153022B03DB490240
:102AC000172BDDDD70479143401AC042D5D100205D
:102AD000704713EB410FD0D36FF000007047000038
:102AE0004FF40002C10D23D0FF2929D230EAC15092
:102AF00010437D31490828BF001880004FF0C07393
:102B0000B0F1906006D452080ED2C01A9B18D2EBD6
:102B10004000F8D5520806D2C0189B1AD2EB4000EC
:102B2000F1D55208F8D35B1E580850EBC1507047DE
:102B3000B0FA80F108398840F9D0D1F10101D8E725
:102B4000FF2914BFC042F2E7D042F0D8C843AFF328
:102B500000807047724600F05FF88CBF00200120B3
:102B600010470000724600F045F88CBF002001209D
:102B70001047000090EA010F7FF546AF81F0004159
:102B8000421A3CBF801A89184FF0004CC0F3C7525C
:102B9000FF2A24D0C1F3C75313B3D21AD2F11903B9
:102BA00027DD4CEA01214CFA03F321EA0303D1406B
:102BB000C20D4CEA0020401834BF20EA0C004CEA59
:102BC0005000D20553EA006373EB0C0C52EB10205B
:102BD000420012F1807F38BF7047C00DC0057047BA
:102BE000490212BF9A4200EB5120F8E7D2F11703D5
:102BF000D9D570474FF0807C1CEB400F94BF1CEB85
:102C0000410F05E040EA010C1CEB0C0F01D2884299
:102C1000704718BF814270474FF0807C1CEB400F1B
:102C200094BF1CEB410F05E040EA010C1CEB0C0FBC
:102C300001D28142704718BF88427047F8B504003E
:102C40001BD004F13C05697821B90020287020468A
:102C500000F002FC242169702068026852085200CA
:102C6000026000F0B8FE01466068DFF8442290423E
:102C700005D2DFF84032994205D20120F2BDDFF8DB
:102C800038028142F9D32068DFF830324668B1FB60
:102C9000F3F3B60943EA861646602668376A606829
:102CA000904206D34FF4967043434FF47A70B3FBCF
:102CB000F0F35B1CBF0943EA87133362491E2368A4
:102CC000DE696768974206D27F0000F043F8042966
:102CD00013D2042111E0A06820B907EB470700F0E8
:102CE00039F805E01920474300F034F841F48041F9
:102CF00008050CBF012141F40041DFF8D402064071
:102D00000E43DE6122681368E169206A23F0C00384
:102D10000B43034313602268DFF83403936821698F
:102D20000340E0680B43034393602168CA68A369CA
:102D30006069120A034343EA0222CA6020680168FC
:102D400041F001010160002068602021697020636A
:102D5000A870F2BDB1FBF7F1491CC1F30B0170473C
:102D600038B5040001D1012032BD04F13C05242016
:102D7000687000F0C4F900F095FE0020686068708B
:102D80002063A870287032BD4146204600F0DCBAAE
:102D900031684A69009289690091009870472DE96D
:102DA000FC4700F08DF800F060F85BD100F078F897
:102DB000002857D13878012854D000F06BF801D49E
:102DC00000F091F94146D6F800E00C9D0B98DDF833
:102DD00028C0DEF8008028F40068CEF800804FF0AC
:102DE000210E87F801E04FF0400887F802804FF08D
:102DF000000EC7F804E000F01EF900F08FF900287B
:102E000029D106E0716A0A78026100F03BF8411EA0
:102E10007185308DA0B122462946304600F094FAE3
:102E2000A0B9706A32680178116100F02BF8421E77
:102E30007285306842695307EBD589B20029E1D128
:102E400022462946304600F0A9FA30B178680428B5
:102E500001D100F073FA012005E000F06FFA00F0F4
:102E60000AF800E00220BDE8F68706F13C070446B8
:102E7000787820287047202078700021B9700020D1
:102E800038707047706A411C7162308D411E318507
:102E9000708D70470121397030680268D107704722
:102EA0000094192301226B49304600F0E3B9000079
:102EB000A186010080841E0000093D0040420F00F1
:102EC0000646884691469A4600F0EEBD2DE9FC473D
:102ED000FFF7F6FFFFF7C9FF6ED1FFF7E1FF00280C
:102EE0006AD13878012867D0FFF7D4FF01D400F009
:102EF000FAF84146D6F800E00C9D0B98DDF828C0A2
:102F0000DEF8008028F40068CEF800804FF0220E32
:102F100087F801E04FF0400887F802804FF0000E7C
:102F2000C7F804E000F087F800F045F900283CD12C
:102F3000308D18B1012804D100F095F800F06FF839
:102F400013E0022804D100F0C3F80020009001E053
:102F500000210091FFF71CFF07E000F042F8002875
:102F600023D100F037F800F041F8308D002826D04A
:102F7000042817D20128F0D000F024F80AD100F07C
:102F80006DF8002811D100F075F8716A0870706A48
:102F9000421CE8E700F062F8002806D100F07FF854
:102FA00018B9F0E700F01DF808B1012005E000F0C5
:102FB00025F8DAD50069E8E70220BDE8F687FFF7D3
:102FC0005AFFFAE70228DFF8288100942B46704761
:102FD0000030FFFF30680169706A0170716A4A1C35
:102FE000704722462946304600F0F4B9308D7262AF
:102FF000411E3185708D411E7185704730680169B1
:10300000706A0170716A308D4A1C411E726231858E
:10301000708D411E7185306841694A077047009084
:1030200031684A6900928B69009300980A6842F4FB
:1030300000720A607047C6F824C070855346708DD0
:1030400030854A460448F062019400953046704746
:10305000007CFFFF020010000000FFFF002241463D
:10306000304600F007B93068016821F480610160E2
:10307000002070473068016841F4007101603068D9
:103080000169706A0170716A308D4A1C411E72625A
:103090003185708D411E71853268106970473068C6
:1030A000016821F4806101602B4630680169706A13
:1030B0000170716A308D4A1C411E72623185002296
:1030C000708D411E718500944146304600F0D2B8A3
:1030D0003068016821F4806101603068026842F460
:1030E000006202607047026842F0010202607047AD
:1030F0000400010090F83D007047006C70472068A4
:103100000168490849000160204670470160009647
:10311000534600224FF001112046ABE02DE9F84361
:1031200004462068DDF82080099F8946016841F443
:10313000807115461E46016000974346FFF7E9FF80
:1031400008BB206809F0FE0101613B464246484940
:1031500000F02FF8B8B900F01EF83A4689690091DE
:1031600041460098FFF711FE40B9012E0DD02168AD
:10317000280A08613A46FFF707FE30B1206C0428A0
:1031800001D100F00DF8012003E02068EDB20561E7
:103190000020BDE8F283009021684A6900927047E0
:1031A0002068016841F4007101607047334642466F
:1031B0004946204686E02DE9FC4704462068DDF8B4
:1031C00028A00B9E0F46016841F4806101601546FE
:1031D0002068016841F480719846FFF797FF002846
:1031E0003CD12168DFF8889007F0FE000861334683
:1031F0005246FFF7DDFF002830D1FFF7CCFF324603
:103200008969009151460098FFF7BFFD90B9B8F168
:10321000010F07D02168280A086132465146FFF79E
:10322000B4FD38B92068EDB2056132465146FFF76A
:10323000ACFD28B1206C042810D1FFF7B1FF0DE0E0
:103240002068016841F48071FFF760FF30B900F039
:1032500008F833465246FFF7ABFF00B10120BDE846
:10326000F687206847F00107FFB20761704700004A
:10327000020001002DE9F041069F05460E469046EA
:103280001C4631022868090E01290CBF406980697B
:10329000304080B2B1B288420CBF012000204045CE
:1032A0000DD114F1010FECD000F0FEFBC01B8442E5
:1032B00001D3002CE5D100F063F8012000E00020EC
:1032C000BDE8F081F8B505460E4614461F463102AA
:1032D000090E286801291BD14169314089B2B2B277
:1032E00091421BD041694A051AD500F028F86FF4C5
:1032F00080602A685061002105F13C00296320228A
:1033000042708170426842F004024260017013E032
:103310008169314089B2B2B29142E3D10020F2BD5D
:1033200014F1010FD3D000F0BFFBC01B844201D3C6
:10333000002CCCD100F024F80120F2BD30680168E7
:1033400041F400710160704770B505460C461646A1
:1033500028684169080611D4284600F067F858B972
:1033600014F1010FF4D000F09FFB801B844201D3C5
:10337000002CEDD100F004F8012070BD002070BDDC
:1033800000202863202105F13C000022417082705A
:10339000416841F0200141600270704770B50546F8
:1033A0000C46164628684169480711D4284600F0A3
:1033B0003DF858B914F1010FF4D000F075FB801BF3
:1033C000844201D3002CEDD1FFF7DAFF012070BD5C
:1033D000002070BD70B505460C4616462868416948
:1033E0004A0617D44169CA060BD400F05DFB801B66
:1033F000844201D3002CF1D100F00EF841F02001FD
:1034000004E06FF01001416100F006F841600270C5
:10341000012070BD002070BD00202863202105F12F
:103420003C000022417082704168704701684A691F
:1034300053050FD56FF480624A61002101633C306F
:10344000202242708170426842F0040242600170A2
:103450000120704700207047704700002DE9F84FA9
:1034600004003BD0DFF80476BD68BE682078C10751
:1034700005F00C0506F480360CD5082D04D00C2D73
:1034800008BFB6F5803F39D13868810302D560683E
:10349000002823D02078DFF8E495810712D5042D89
:1034A00003D00C2D08BF002E61D13868810702D5EA
:1034B000E06801281DD17868216920F4F85040EABD
:1034C000012078602078C10640F13181002D40F064
:1034D00097803868810503D5A069002800F0238112
:1034E000206A796801F4604181425FD200F085FA78
:1034F000002840F0188100F082F968E06068012837
:1035000004D1386840F48030386013E008B9386876
:1035100009E00528386806D140F480203860396811
:1035200041F4803105E020F480303860396821F4BE
:1035300080213960606868B100F0B6FA804638686A
:103540008103A7D400F0B0FAA0EB08006528F6D3F9
:10355000032052E100F0A8FA80463868810399D52B
:1035600000F0A2FAA0EB08006528F6D3F0E7E068C7
:1035700070B10121C9F8001000F096FA06463868CB
:10358000810798D400F090FA801B0228F7D9DFE772
:10359000C9F8000000F088FA06463968880791D516
:1035A00000F082FA801B0228F7D9D1E7796821F46C
:1035B0006041084378607868E16920F07F4040EA24
:1035C00001607860206A00F018FA002891D1216A21
:1035D000BA68490BC2F303120120491C8840DFF886
:1035E000A014DFF88C34895CC003C8401860DFF891
:1035F0008804006800F05EFA010000F09880FCE0AA
:10360000A069B0B10121C9F8201000F04DFA0646BA
:103610003868810500F1898000F046FA801B022895
:10362000F6D995E700F040FA801B022840F28C8022
:103630008EE7C9F8200000F037FA064638688105A1
:1036400075D500F031FA801B0228F7D980E70860B1
:1036500000F02AFA0646786B810779D500F024FA43
:10366000801B0228F7D973E708B9786B09E00528B1
:10367000786B06D140F480607863786B40F480709A
:1036800005E020F480707863786B20F480607863C4
:1036900041F28936A06868B100F006FA8246786B7C
:1036A000810500F1838000F0FFF9A0EB0A00B04231
:1036B000F5D34DE700F0F8F98246786B810575D5B2
:1036C00000F0F2F9A0EB0A00B042F6D340E700F0B8
:1036D000EBF9401B022879D93AE700F0E5F9001B25
:1036E000022840F2858033E700F097F804463868F6
:1036F000810140F1818000F0D7F9001B0228F6D942
:1037000026E701280FD0B868A26A00F48031914200
:1037100002BF00F47011E26A914202BF00F440005F
:10372000216B884268D0012067E000F068F82078BB
:1037300001070DD56069DFF84C13002887D00122FE
:103740000A6000F0B1F90646786B81077FF56AAF31
:103750002078410731D5786AC1004FF000080AD4BB
:10376000786A40F0805078624FF00108786A00F083
:10377000805000900098DFF810633068C10510D4C5
:10378000306840F48070306000F08EF98346306815
:10379000C10506D400F088F9A0EB0B006528F6D32C
:1037A000D6E6A06801287FF45FAF66E7B8F1000FA6
:1037B00003D0786A20F080507862606AE0B10C2D06
:1037C0009FD0022890D100F028F805463868810182
:1037D0003FF57DAFBA68A16AE06A22F47D020A4330
:1037E000216B02430A43BA60012000F017F8044637
:1037F000386881017FF571AF0020BDE8F28F7968EC
:10380000206A21F46041014379607968E06921F020
:103810007F4141EA0061796070470020C9F860008B
:1038200000F042B92DE9F8430400894627D0DFF8BB
:103830005C62306800F00100484502D200F08EF86A
:103840001DD12078DFF82452810705D5AA68A06829
:1038500022F0F0020243AA602178C8076AD56068A6
:10386000022802D129688A0308E0032802D12968C6
:103870008A0103E00128296802D18A0702D461E0A5
:103880008A055FD5A968890840EA8100A86041F2ED
:10389000893800F009F90746606802280BD1A8684A
:1038A00000F00C00082845D000F0FEF8C01B404591
:1038B000F5D303203CE003280AD1A86800F00C00EF
:1038C0000C2837D000F0F0F8C01B4045F5D3F0E7E6
:1038D000012839D1A86800F00C0004282AD000F093
:1038E000E3F8C01B4045F5D3E3E72078410705D551
:1038F000AA68E06822F4E0620243AA60217808071F
:1039000006D5A968206921F4605141EAC001A96087
:1039100000F035F8AA685A49554BC2F30312895C86
:10392000C8401860BDE8F2435348006800F0C2B8D0
:10393000BDE8F283306800F001008145D5D200F087
:103940000DF8D2D00120F3E7A86810F00C0FF1D0E9
:1039500000F0AAF8C01B4045F6D3AAE7B9F1010F61
:1039600003D1306840F0040030603168490849EA0A
:1039700041013160306800F001004845704730B5C2
:1039800044493C484A68444B02F00C04042C21D0C2
:10399000082C02D00C2C02D013E0184630BD3F4D4D
:1039A000C2F38344C2F381522C5D4968521CCD039B
:1039B00003D56343B3FBF2F030BD6043B0FBF2F0DC
:1039C00030BD0868400B00F007000121401C01FADF
:1039D00000F0C00330BD26482D4A00681368304906
:1039E000C3F3022206E02248294A006813682C49E2
:1039F000C3F3C222895CC840704778B5244B234981
:103A00001C68002214F0F00F22D1DD691E4CEE007C
:103A100003D5246804F4C0540FE0DD6945F08055F7
:103A2000DD61DD6905F080550095009D2468DD6944
:103A300025F0805504F4C054DD61B4F5C05F08BFC3
:103A4000B0F5404F04D1086840F00400012208603E
:103A50000B685B0842EA43030B60086800F0010052
:103A6000904201D0012072BD002072BD003802409A
:103A70007C0300200024F4000403002000004742DF
:103A8000049300088006474200700040003C02405A
:103A9000083802400438024000127A00F892000808
:103AA000109400087047000001480068704700BF8C
:103AB0000003002070B50E4E0446B0680025A0B18A
:103AC0004FF47A710B4AB1FBF0F11068B0FBF1F0E2
:103AD00000F054F848B9102C07D2002221464FF0CC
:103AE000FF3000F023F8746000E00125284670BD27
:103AF000000300207C0300200901020002D42948B1
:103B000081547047284B02F00F021A4402F8041C3B
:103B10007047264B19684FF6FF020002114000F46F
:103B2000E0600843224908431860704738B51F4BCE
:103B30001C68C4F30223C3F10704052C28BF042426
:103B40001D1D072D34BF0023DB1E012505FA04F4DB
:103B5000641E2140994005FA03F35B1E1A4011438D
:103B6000BDE83440C8E7010007D4012200F01F017E
:103B7000104B8A40400943F82020704710B5401E82
:103B8000B0F1807F01D3012010BD0B4C60600F218C
:103B90004FF0FF30FFF7B0FF0021A1600720206049
:103BA000002010BD00E400E018ED00E00CED00E0A6
:103BB0000000FA0500E100E010E000E070B5044606
:103BC00000254FF0FF362CB3086820604A68626019
:103BD0008868A0600A7B2273086920614A69626173
:103BE0008869DFF80817A06121626462DFF80807BE
:103BF000E061206870B1804760B9A068022804BF06
:103C000094F82800002806D10C221221204600F04A
:103C100065FB00B13546284670BD38B504468021A5
:103C200004F11C0000F088FD002827D100F0A2FB61
:103C300000F048FD002821D100F09CFB00F013FDAE
:103C400000281BD100F054FB00F0ADFDB0B904F129
:103C500028050420E87000F068F878B900F048FB07
:103C600000F0B2FB50B90420287100F0A5F928B982
:103C7000062104F11C0000F031FC08B100F088BB03
:103C800001202870002032BD10B5044600F03AF83B
:103C900018B9204600F07DF900B130E004F12800A9
:103CA0000021C17001710170002010BD80B51C3071
:103CB00000F003FD00F065BB012008704870002390
:103CC000102088604FF4FA62DFF83006086148611E
:103CD0008B700020CB704A60CB608861704710B554
:103CE00000F129042178012907D0A1781C3000F0C7
:103CF00087FB00B103E001202070002010BD4FF0D1
:103D0000FF3010BD10B5044694F8290060B104F1ED
:103D10002B0104F11C0000F0B5FB10B900F005F810
:103D200000B1ECE784F8290010BD002104F11C006B
:103D300000F066BB38B500F0EAF8002408B100F0E6
:103D400027BB9DF80000032811D8DFE800F0020C23
:103D50000508DFF8AC1504E0DFF8A80505E0DFF89A
:103D6000A815296005E0DFF8A405286001E04FF000
:103D7000FF34204632BD000038B50D4669461C3080
:103D800000F080FB002408B100F002BB9DF80000A9
:103D90000B282CD8DFE800F0060B0E1114171A1DA3
:103DA000202327082C6024E0DFF864051DE0DFF8FD
:103DB000641516E0DFF8600517E0DFF8601510E025
:103DC000DFF85C0511E0DFF85C150AE0DFF8580564
:103DD0000BE0DFF8581504E0DFF8540505E0DFF8E4
:103DE0005415296005E0DFF85005286001E04FF028
:103DF000FF34204632BD2DE9F84F024602F1290773
:103E000000F0C9F935D1FEF7F5FE38BF012127D3FF
:103E100000F0BEF938BF022122D300F0B6F938BF56
:103E200003211DD300F0AEF938BF042118D300F0F0
:103E3000A6F938BF052113D300F09EF938BF06213B
:103E40000ED300F096F938BF072109D300F08EF9A0
:103E500038BF082104D300F086F934BF09210A21B4
:103E600002F11C0000F0CCFA002831D04FF0FF30F6
:103E70002EE0FEF7BFFE38BF012027D300F088F9FF
:103E800038BF022022D300F080F938BF03201DD3B1
:103E900000F078F938BF042018D300F070F938BF6B
:103EA000052013D300F068F938BF06200ED300F0C8
:103EB00060F938BF072009D300F058F938BF08204F
:103EC00004D300F050F934BF09200A20B870002054
:103ED000BDE8F28F38B500F01AF8002408B100F000
:103EE00057BA9DF8000003280DD8DFE800F002095A
:103EF0000406022102E0042003E00821296004E016
:103F00001020286001E04FF0FF34204632BD0D46FE
:103F100069461C3000F061BA80B50329B8BF0021A2
:103F200007DB0529B8BF022103DB0929B4BF032140
:103F300001211C3000F048FA00F023BA1CB50C46F1
:103F400069461C3000F09CFB00B189E18BE13EB575
:103F5000002204460D46009201A904F11C0000F065
:103F60008FFB20B969462046FFF7E4FE00B195E1DA
:103F700097E110B500F12A042178012907D0A17832
:103F80001C3000F0CBFA00B1B9E60120207000200F
:103F900010BD10B5044694F82A0060B104F12C015C
:103FA00004F11C0000F034FB10B900F005F800B17A
:103FB000A5E684F82A0010BD002104F11C0000F0E1
:103FC000ADBA000038B500F023F9002408B100F0C4
:103FD000DFB99DF80000062816D8DFE800F00704D6
:103FE0000A150D151100DFF854130BE0DFF850032C
:103FF00004E0DFF8501305E0DFF84C03286005E02B
:10400000DFF84813296001E04FF0FF34204632BD4D
:1040100038B50D4669461C3000F0FAFA002408B1A4
:1040200000F0B6B99DF800000A2829D8DFE800F0B2
:1040300006080B0E1114171A1D2024002C6021E015
:10404000DFF8D00216E0DFF8D01217E0DFF8CC027C
:1040500010E0DFF8CC1211E0DFF8C8020AE0DFF868
:10406000C8120BE0DFF8C40204E0DFF8C41205E078
:10407000DFF8C002286005E0DFF8BC12296001E02B
:104080004FF0FF34204632BD2DE9F84F024602F1D1
:104090002A0700F080F835D1FEF7ACFD38BF0121CA
:1040A00027D300F075F838BF022122D300F06DF855
:1040B00038BF03211DD300F065F838BF042118D3A1
:1040C00000F05DF838BF052113D300F055F838BF74
:1040D00006210ED300F04DF838BF072109D300F0B8
:1040E00045F838BF082104D300F03DF834BF09215A
:1040F0000A2102F11C0000F011FA002831D04FF023
:10410000FF302EE0FEF776FD38BF012027D300F008
:104110003FF838BF022022D300F037F838BF032021
:104120001DD300F02FF838BF042018D300F027F873
:1041300038BF052013D300F01FF838BF06200ED378
:1041400000F017F838BF072009D300F00FF838BF88
:10415000082004D300F007F834BF09200A20B87003
:104160000020BDE8F28F1946FEF744BD2146FEF758
:1041700041BD2946FEF73EBD3146FEF73BBD5946DF
:10418000FEF738BD4146FEF735BD4946FEF732BD64
:104190005146FEF72FBD084697F800C0DFF8B03152
:1041A000DFF8B041DFF8B051DFF8B061DFF8B0B14F
:1041B000DFF8B081DFF8B091DFF8B0A1DFF8B0111F
:1041C000BCF1010F7047000038B500F021F8002461
:1041D00008B100F0DDB89DF80000062814D8DFE82B
:1041E00000F0060408130B130F007D210AE0FA20EB
:1041F00004E04FF4FA7105E04FF47A70286005E0AE
:104200004FF4FA61296001E04FF0FF34204632BDDF
:104210000D4669461C3000F072B980B57E29B8BFE2
:1042200001210FDBFB29B8BF00210BDB40F2F512A7
:104230009142B8BF022105DB40F2E9329142B4BF9E
:10424000042106211C3000F049F900F09AB81CB591
:104250000C4669461C3000F00FFA00B100E002E0A5
:104260004FF0FF3016BDBDF800002080BDF80210F1
:104270006180BDF80400A080002016BD3EB5044654
:104280000D4601A904F11C0000F0F6F920B96946B9
:104290002046FFF797FE00B100E002E04FF0FF304C
:1042A0003EBDBDF9040000F0F3FA00F06EF800F036
:1042B00001FB2860BDF9060000F0EAFA00F065F89D
:1042C00000F0F8FA6860BDF9080000F0E1FA00F0CB
:1042D0005CF800F0EFFAA86000203EBD04B50123B1
:1042E0006A461C3000F06AF800F04BB897430008AB
:1042F000002104F11C007047A34300080020D045B2
:1043000023DB793D23DBF93D23DB793E23DBF93EDB
:104310000000D040000048410000D0410000504261
:104320000000D042000050430080D0430040504481
:104330000060D044005050450058D04500008C40EB
:1043400000000C4100008C4100000C4200008C4237
:10435000015050450160D044014050440180D04399
:10436000010050430100D042010050420100D04101
:1043700001004841012104F11C0070471C3000F08D
:1043800017F808B14FF0FF3002BD0099FEF7CABA26
:104390004FF0FF3032BD10B50446207B6469A04762
:1043A00010BD10B50446207B2469A04710BD000055
:1043B00010B50446A0686468A04710BD10B5044657
:1043C000A0682468A04710BD38B500F0A0F918B95E
:1043D00000F090F900F093F932BD1CB500F079F8C7
:1043E0009DF80010890800F0A3F906D004D3032932
:1043F00003D038BF022100D30021217016BD000078
:10440000F8B500F000F900282E4628D100F0D0F8C9
:1044100026D100F0C8F8002821D19DF80310032907
:104420001DD8DFE801F002050B12CDB9012617E017
:10443000280018BF012D13D1022611E028001CBF4F
:10444000012D022D0CD103260AE0280018BF012DF2
:1044500003D0022D18BF032D02D1042600E050B96D
:1044600000F00AF8FFF7A4FF28B900F093F800F075
:1044700003F8FFF7A3FFF2BD01230DF102021021A3
:10448000204670471CB500F024F800F086F91DD8CE
:10449000DFE801F006080A0C0E10121416181A00B4
:1044A000012114E0022112E0032110E004210EE0BA
:1044B00005210CE006210AE0072108E0082106E0BA
:1044C000092104E00A2102E00B2100E00021217013
:1044D00016BD0C4601236A46102169E738B500F085
:1044E000E7F81121FFF764FF40B99DF8000065F37C
:1044F000430000F0D8F8112100F04CF932BD1CB592
:1045000000F0ACF800F00AF918BF022903D0042922
:104510001CBF06290021217016BD0000F8B500F06F
:1045200072F800282E4628D100F042F826D100F07B
:104530003AF8002821D19DF8031003291DD8DFE89F
:1045400001F002050B12CDB9012617E0280018BFB3
:10455000012D13D1022611E028001CBF012D022DD0
:104560000CD103260AE0280018BF012D03D0022D2C
:1045700018BF032D02D1042600E050B900F03DF829
:10458000FFF716FF28B900F005F800F036F8FFF73E
:1045900015FFF2BD9DF8020000F00F0040EA061082
:1045A0008DF8020070470DF10301204600F052B96A
:1045B0009DF800109DF80170084641EA500141EA5B
:1045C000900141EAD00141EA101141EA501141EA5B
:1045D0009011394341EA570141EA970141EAD70175
:1045E00041EA171141EA571141EA971101F001011F
:1045F000074341EAD7100128704701230DF1020259
:1046000011212046704704460D46694600F007B95F
:104610001CB500F023F800F0E3F8491E09291AD868
:10462000DFE801F00507090B0D0F11131517012124
:1046300012E0022110E003210EE004210CE005212C
:104640000AE0062108E0072106E0082104E009212C
:1046500002E00A2100E00021217016BD0C46012372
:104660006A461121A4E638B500F03DF818B900F00B
:1046700087F800F030F832BD0A460623222197E67B
:104680000A460623282193E638B500F011F80121E7
:10469000FFF78EFE30B900F0A7F800F004F8012112
:1046A00000F078F832BD8DF8000001236A467047AB
:1046B0000D46044601236A4670470A4601230F212E
:1046C000FFF776BE38B500F00EF818B900F05DF8C7
:1046D00000F001F832BD8DF8000001236A46122176
:1046E0002046FFF76BBE0D46044601236A461221A1
:1046F000FFF75EBE9DF8000065F3830070478DF8FC
:10470000000001236A4610212046FFF757BE0D46E0
:10471000044601236A461021FFF74ABE9DF80010A7
:10472000490801F00701012970479DF80010490967
:1047300001F003010129704738B500F064F8C0B9F1
:104740009DF8000000F0FD00E90940EA410000F09A
:1047500052F870B900F00EF8FFF72AFE48B99DF83C
:10476000010065F3C4008DF8010000F003F8FFF7C5
:1047700025FE32BD01230DF1010262212046704762
:104780009DF8000065F3861070479DF8000065F302
:10479000820070472046FFF711BE9DF800100909FE
:1047A000491E0A29704738B500F013F818B900F00F
:1047B00003F800F006F832BD9DF8000065F3020032
:1047C00070478DF8000001236A460A212046FFF752
:1047D000F5BD0D46044601236A460A21FFF7E8BDF0
:1047E0009DF80010090970479DF8000000F03F0097
:1047F00040EA851070478DF8000001236A461821B1
:104800002046FFF7DBBD0D46044601236A4618210A
:10481000FFF7CEBD0D4604460221FFF735BF38B580
:10482000FFF7F8FF30B902232A46462100F004F8CA
:1048300000B904E032BD0E212046FFF7B9BD204685
:10484000BDE834400021FFF71FBF2870002120463B
:10485000FFF71ABF38B5FFF7DDFF90B900F012F887
:1048600078B99DF80000C00800F00300012806D0C8
:1048700004D3032803D038BF022000D30020FFF761
:10488000E4FF32BD01236A465F212046FFF790BD59
:10489000C2175040801AB0FA80F10AD08840D1F196
:1048A0009D01D20742EAC151020672F1004241EB7A
:1048B00010207047C0F3C7517E390EDDC217D1F109
:1048C000200106DD000240F00040C8401044504086
:1048D0007047D04380F000407047002070470000D0
:1048E00070B5044600254FF0FF362CB308682060F1
:1048F0004A6862608868A0600A7B22730869206148
:104900004A69626188690FF27161A0612162646223
:104910000FF27160E061206870B1804760B9A068F3
:10492000022804BF94F82800002806D1052221217E
:10493000204600F066FA00B13546284670BD38B50D
:1049400000F06AFA00F044FC002821D100F065FA7A
:1049500000F008FCE0B900F05BFA00F07AFCB8B9AE
:10496000042104F11C0000F01FFB88B904F12805A4
:10497000DFF8A405686000212972697204F11C0047
:1049800000F088FB20B900F043FA00F0F4FB00B11E
:104990009BE101202870002032BD10B5044600F0D4
:1049A00039F800B133E004F12800002141600172C0
:1049B00041720170002010BD80B51C3000F004FC75
:1049C00096E101200870002210204A708A70CA7097
:1049D0004A608860CA600020DFF8402508614A61AB
:1049E0008861704710B5044694F8290001280CD05E
:1049F00004F12C00437902790168204600F012FA94
:104A000000B104E0012084F82900002010BD4FF01F
:104A1000FF3010BD10B5044694F8290038B100F0FD
:104A2000F7F900F037FB00B1F1E784F8290010BD79
:104A30007CB500F0C7F800F0B0FB002510B900F01D
:104A4000BCF800B1C5E09DF801009DF8001091B1DF
:104A5000491E03291BD9C91F0DD0491E022916D989
:104A6000C91F08D0491E032911D9C91F03D0491EE7
:104A700002290CD91DE003281BD8DFE800F0141729
:104A80000205DFF89C0418E0DFF8980415E003281D
:104A90000FD8DFE800F00205080BDFF88C040CE00B
:104AA000DFF8880409E0DFF8880406E0DFF8840412
:104AB00003E0DFF884044FF0FF358DE07CB500F0B3
:104AC00081F800F012FB002510B900F076F800B173
:104AD0007FE09DF800009DF80110A9B1012915D0D3
:104AE000022925D0032926D0042927D0052928D03A
:104AF00006295AD0072927D0082934D0092941D0BE
:104B0000222918BF322953D1002055E003280CD99F
:104B1000001F0DD0001F032884BF0838032804D9C4
:104B2000001F05D0001F032842D8DFF8100443E01F
:104B3000DFF80C0440E0DFF80C043DE0DFF8080487
:104B40003AE0DFF8D40337E003282ED9001F07D05E
:104B5000001F032884BF0838032826D9001F1DD151
:104B6000DFF8E80328E003281FD9001F07D0001F43
:104B7000032884BF0838032817D9001F0ED1DFF897
:104B8000D00319E0032810D9001F0BD0001F032801
:104B900084BF0838032808D9001F03D0001F03284A
:104BA00003D905E0DFF8740306E0DFF8A80303E0AB
:104BB000DFF884034FF0FF350EE0694606F11C0074
:104BC00000F014BA06460C460DF1010106F11C0076
:104BD00070474FF0FF3076BD2060284676BD002339
:104BE000002238B50C4690F82910012904D121463D
:104BF00001B0BDE8304015E1DFF85C1300F12C0591
:104C00002046FDF7F7FF2A716B7138BFDFF82C03E0
:104C100038D3DFF84813FDF7EDFF38BFDFF8200386
:104C200030D3DFF83C13FDF7E5FF38BFDFF814039E
:104C300028D3DFF83013FDF7DDFF38BFDFF80803B6
:104C400020D3DFF82413FDF7D5FF38BFDFF8C80203
:104C500018D3DFF81813FDF7CDFF38BFDFF8F402E3
:104C600010D3DFF80C13FDF7C5FF38BFDFF8DC0207
:104C700008D3DFF80013FDF7BDFF34BFDFF8D00223
:104C8000DFF898022860002032BD000038B50C46DD
:104C900069461C3000F081FA002500B115E09DF84E
:104CA000000003280BD8DFE800F002040608022009
:104CB00008E0042006E0082004E0102002E04FF0A5
:104CC000FF3528462060284632BD4FF0FF3032BD08
:104CD00080B50329B8BF002107DB0529B8BF012132
:104CE00003DB0929B4BF022103211C3000F043FA81
:104CF00008B14FF0FF3002BD7FB506460D46FFF705
:104D00005CFF002428B901A906F11C0000F058FA44
:104D100010B14FF0FF3037E09DF8000090B1401E19
:104D200003281ED9C01F0DD0401E022819D9C01F4C
:104D300008D0401E032814D9C01F03D0401E0228EB
:104D40000FD91EE0BDF9040000F025F82880BDF958
:104D5000060000F020F86880BDF9080000F01BF89C
:104D60000DE0BDF9040000F011F82880BDF906003F
:104D700000F00CF86880BDF9080000F007F8A88082
:104D800001E04FF0FF34204604B070BD411000EB4D
:104D9000917080107047C11000EB117000117047C6
:104DA0003EB500220D460092044601A9FFF7A4FF7C
:104DB00020B969462046FFF73BFE10B14FF0FF30A7
:104DC0003EBDBDF90400FFF763FD0099FDF7AAFDA4
:104DD000FFF770FD2860BDF90600FFF759FD009947
:104DE000FDF7A0FDFFF766FD6860BDF90800FFF75D
:104DF0004FFD0099FDF796FDFFF75CFDA8600020D0
:104E00003EBD04B501236A461C3000F0C7F86FE7C9
:104E1000002104F11C0070470446012104F11C002C
:104E2000704700002DE9F04180461646701E0328A9
:104E30000D461F464D4A03D8DFE800F00D12171C3F
:104E4000012F14BF042414243D492846FDF7D2FE47
:104E50001BD20D4623E0012F0CBF132403240DE0C9
:104E6000012F0CBF1224022408E0012F0CBF1124D3
:104E7000012403E0012F14BF00241024284611460A
:104E8000FDF7CAFE98BF334D21D93349FDF7B2FE75
:104E900038BF012129D33149FDF7ACFE01D20221EF
:104EA00023E02F49FDF7A6FE38BF03211DD32D496E
:104EB000FDF7A0FE38BF042117D32B49FDF79AFE5A
:104EC00038BF052111D31146FDF794FE01D206210A
:104ED0000BE02749FDF78EFE38BF072105D3254992
:104EE000FDF788FE34BF0821092108F11C0000F0FD
:104EF000D1F828B9214608F11C0000F055F810B18E
:104F00004FF0FF3005E008F12C0005600671477195
:104F10000020BDE8F08100000000C8420000C84445
:104F200023DB794023DBF94023DB793E23DBF93EA9
:104F300023DB793F23DBF93F000080BFCDCCCC3FA2
:104F4000000048410000C841000048420000C8433A
:104F50000000484400004843CECCCC3F010048410B
:104F60000100C841010048420100C8420100484315
:104F70000100C8430100484410B50446207B646921
:104F8000A04710BD10B50446207B2469A04710BD82
:104F900010B50446A0686468A04710BD10B504466B
:104FA000A0682468A04710BD38B500F097F8E0B9B4
:104FB0009DF8011005F00C0205F0030001F0F0016E
:104FC000024311438DF8011000F082F868B9012303
:104FD0006A4625212046FFF7DBFF30B99DF8000027
:104FE0002D0965F3820000F0D1F832BD38B50C46CA
:104FF000054601236A462021FFF7CAFF002848D151
:1050000000F0FEF800F006F900F0FFF89DF800301F
:10501000890001F0100102F00C02511803F00303A3
:105020005918C9B21B2932D8DFE801F01412100E4A
:10503000313131311C1A18163131313126242220F8
:105040001E3131312E2C2A2803211EE002221FE0BE
:1050500001211AE000221BE00B2116E00A2217E0D2
:10506000092112E0082213E014210EE013220FE0C0
:1050700012210AE011220BE0102106E01B2207E0BA
:105080001A2102E0192203E01821217032BD042206
:10509000227032BD38B500F021F8C0B99DF801008A
:1050A00000F00F0040EA05108DF8010000F010F844
:1050B00068B901236A4622212046FFF769FF30B90B
:1050C0009DF800002D0965F3010000F0B5F832BD30
:1050D00001230DF10102202120465FE70D46044621
:1050E00001230DF10102202152E738B500F0ABF8A1
:1050F0002021FFF74DFF002833D101236A462221EA
:1051000000F088F89DF800109DF8012001F00301DF
:10511000120902EB0112012A14D0022A20D0032A1C
:1051200012D0042A1CD0052A10D0062A18D0072A2B
:105130000ED0082A14D0092A0CD0222A0CD0322AE8
:105140000ED00CE0012108E0032106E0052104E077
:10515000072102E0092100E02221217032BD002256
:10516000227032BD38B500F045F818B900F05FF88C
:1051700000F039F832BD38B500F04EF828B99DF886
:10518000000065F3051000F001F832BD8DF8000055
:1051900001236A462521204600E71CB500F042F8AD
:1051A0009DF80010090901F00301012906D004D37C
:1051B000032903D038BF022100D30021217016BD7E
:1051C0000A4606232821E3E60A4601230F21DFE6EB
:1051D00038B500F00FF828B99DF8000065F382009B
:1051E00000F001F832BD8DF8000001236A4621214C
:1051F0002046D3E60D46044601236A462121C7E630
:1052000001230DF10102252170479DF801109DF841
:10521000002070472846BBE60D46044601236A4637
:105220002521B5E60C4601236A462521B0E69DF806
:10523000000065F3C30070478DF8000001236A4643
:1052400022212046AAE60C46054601230DF1010263
:10525000704738B500F015F818B900F003F800F001
:1052600008F832BD9DF8000000F01F0040EA45102C
:1052700070478DF8000001236A462E212046FFF773
:105280008DBE0D46044601236A462E21FFF780BEDF
:105290005DE0B7E0DFF8F41300680A68904203D1DC
:1052A000DFF8EC1301200870704780B58DF803001B
:1052B0008DF801108DF802208DF80030002269462B
:1052C000DFF8D00300F0DAFA08B100F0D3FC01BD3A
:1052D00000B585B08DF801108DF8022000218DF801
:1052E000000001910022039104918DF8032069468A
:1052F000DFF8A00300F04AFA08B100F0BBFC05B0EB
:1053000000BD30B504460FF2B830008895B00022D9
:10531000ADF80C000D46049204A905A800F0C0FCED
:1053200004980FF2C8310FF29C3202910D28CCBFC5
:105330000DF1210005A8019003AB0FF2A8300090F9
:105340004021204600F0E4FC286015B030BD3EB599
:10535000002000F0FFFC002000F039FD00F04EFCC2
:10536000CD49CA480A684FF4FA63B2FBF3F35B1EF7
:105370000021272243608160C2600161416100F029
:1053800097FD08B100F076FC00F030FF00F030FF30
:1053900000F032FF00F034FF00F036FF00F036FF7F
:1053A000BE4CBF4D204600F077FF042000F07AFF8E
:1053B000204600F067FC05F13C0105F1180000F003
:1053C0006FFC284600F074FFB648B7492860696052
:1053D000284600F083FF002000900190029068466C
:1053E00000F057FC204600F056FC002000F0DAFCEC
:1053F0004FF4FA7000F08EFF002000F0D8FC01F0AE
:105400005CF837BDF8B5A94C04F5827586B028461E
:1054100000F094FF012806D094F80801322804BF58
:10542000284601F08CF89A4D2878012840F09180A8
:105430000021984F29700022FE6801A9384600F02B
:10544000F7F900226946384600F070FA9DF804002A
:105450000299E071711A9DF805002072761C9DF882
:105460000600607264204143B1FBF6F2A272E86963
:10547000C10614D5281D00F0F5FE6968042204F168
:10548000170001F09DF9A968042204F11B0001F046
:1054900097F9E968042204F11F0001F091F9E86925
:1054A000810615D505F1100000F0DFFE2969042200
:1054B00004F1230001F084F96969042204F1270052
:1054C00001F07EF9A969042204F12B0001F078F9BA
:1054D000E869410614D5684600F0CCFE0099042224
:1054E00004F12F0001F06CF90199042204F133005A
:1054F00001F066F90299042204F1370001F060F925
:10550000E869410706D5684600F0C1FE04F11301C1
:10551000009A0A60E869810706D5684600F0B4FE83
:1055200004F10F01009A0A60E869C10706D56846D0
:1055300000F0A5FE04F10B01009A0A60204600F07D
:105540000AF8204600F0F1FF57202060204600F0C6
:10555000A1FF07B0F0BD70B58EB0044600200190E9
:105560004B4EF069C10601D5F069850640F189808E
:1055700070684F4DFFF78CF900F085F80890B0681F
:10558000FFF786F900F07FF80990F068FFF780F9DF
:1055900000F079F80A903069FFF77AF900F073F8B3
:1055A0000B907069FFF774F900F06DF80C90B0691A
:1055B000FFF76EF900F067F80D90002000F0F2FBA5
:1055C0003C48016841F0807101600020686001AAD8
:1055D000296841F00101296008A805A900F057FBDE
:1055E00000200090296881F00101296068682A493B
:1055F00000900A6830480099B2FBF0F0B1FBF0F57A
:10560000002000F0D4FB02A906F1100000F04EFBD0
:10561000059800F064FB0146042204F13B0001F010
:10562000CFF8069800F05BFB0146042204F13F002E
:1056300001F0C6F8079800F052FB0146042204F17D
:10564000430001F0BDF80299042204F1470001F083
:10565000B7F80399042204F14B0001F0B1F8049962
:10566000042204F14F0001F0ABF80199042204F187
:10567000530001F0A5F80422294604F1570001F077
:105680009FF80EB070BD0D4901F0B0B8100C0020AD
:10569000740C00204C0C00207C03002000004842C9
:1056A000D00B00206F12033C9A99193E040400208D
:1056B000001000E0FCED00E040420F0000007A44E2
:1056C000370000004D454D5320736869656C6420B8
:1056D00064656D6F2C25732C25732C25732C257315
:1056E00000000000372E312E30000000494B5330AF
:1056F0003141330070B5040013D0607F20B9002120
:105700002177204601F022F900F03AF85320216871
:10571000486200F08BF8FF2528B12068456204211B
:105720006177012070BD2168DFF858028A68024065
:105730008A60226893686668216960690E4306433F
:10574000334393602068E168016120680169A268C1
:1057500041EA024101612068C16821F08001C16015
:105760002068016C21F48021016421680A6CA06921
:1057700002430A64012021684D626077002070BDF9
:1057800002206077CA21226851627047F8B500F0A4
:10579000F4F801D10220F2BD0120207702216177C7
:1057A000002A2068806813D141065CBF0020E870A1
:1057B000287800F024F9064600F0DDF8070200F032
:1057C000D7F847EA06470743E87847EA00470DE07D
:1057D00041065CBF0020E8706F782978A8783F0206
:1057E00047EA0147E978074347EA01472168CA20A9
:1057F000486253222068426200F018F8FF2698B9E8
:105800002168DFF8840107400F602068826822F475
:105810008022826021688A68EB68286903431A4302
:105820008A6000F074F800B178E069E02046CBE0CF
:1058300038B500680C46816A89B261600169C1F3BC
:105840000E01A1600168DFF840010140080C00F082
:105850003F0323700D0A00F040006570A170E070F6
:105860003AB9207800F0D6F800F005F800F07CF89E
:10587000A070002032BD20706078CBE0F8B50446FF
:105880000E46207F012801D10220F2BD01202077A1
:105890000221617775784ABBE80603D505F0EF056C
:1058A0000A357570F07800F0AAF80746707800F0B5
:1058B000A6F80502B07800F0A2F845EA07450543CE
:1058C000307845EA40352068CA2141625322216878
:1058D0004A62FFF7ABFFFF2638B92168DFF8AC005A
:1058E00005404D6000F013F850B117E0F0783178C2
:1058F0002D0245EA0045B078054345EA4135E2E727
:10590000206846620121617700202077F2BD20687F
:10591000C16821F08001C160204639E020684662FC
:1059200004216177002020770120F2BD38B50C46B4
:105930000168DFF8580049680140A1700D0A0B0C9E
:1059400005F01F05490BE370657001F00701217038
:1059500042B9E07800F05EF8E070FFF78DFF00F0EC
:1059600003F8A070002032BD6070A07852E00602FB
:10597000A87844E00746687841E004460D46207F59
:1059800001287047BFFF8FFF7F7F7F003FFFFF0031
:1059900038B50446206881688A0613D4C16821F0AE
:1059A000A001C160FEF780F805462068C16888063E
:1059B00008D4FEF779F8401B40F2E9318842F4D36D
:1059C000032032BD002032BD38B504462068C168CE
:1059D0004A0612D44FF0FF31C160FEF765F8054664
:1059E0002068C168480608D4FEF75EF8401B40F204
:1059F000E9318842F4D3032032BD002032BD0021BA
:105A000001E0491C0A38C2B20A2AFAD240EA01105F
:105A1000C0B2704701090A2200F00F0002FB01002A
:105A2000C0B2704770B586B000F0C0FF00F0A6F8B5
:105A30006846142100F0CAFF844C854D2068854ECD
:105A400040F004002060216801F0040105910598F0
:105A5000216841F020012160226802F020020592B5
:105A60000598216841F001012160226802F00102DD
:105A700005920598216841F00201216020212268E9
:105A800002F00202059200220598284601F0F2F881
:105A90004FF4005070490090019100220292694633
:105AA000304600F097FF0120002100900191029103
:105AB0003046694600F08EFF20210091012200212E
:105AC0000291039101926946284600F083FF00226B
:105AD00000212820FEF72AF82820FEF744F8206845
