:020000040800F2
:1000000010950020E1C50008B1C40008B3C4000881
:10001000B5C40008B7C40008B9C400080000000057
:10002000000000000000000000000000BBC4000849
:10003000BDC4000800000000BFC40008C1C400081F
:100040000BC600080FC6000813C6000817C6000834
:100050001BC600081FC6000823C6000827C60008E4
:100060002BC600082FC6000833C6000837C6000894
:100070003BC600083FC6000843C6000847C6000844
:10008000C5C400084BC600084FC6000800000000A9
:1000900000000000000000000000000053C600083F
:1000A00057C600085BC600085FC6000863C60008A4
:1000B00067C60008CBC400086BC600086FC60008FE
:1000C00073C6000877C600087BC600087FC6000814
:1000D00083C6000887C600088BC600080000000021
:1000E000D9C400088FC6000893C6000800000000AD
:1000F00000000000000000000000000097C600089B
:10010000000000009BC600089FC60008A3C60008A8
:1001100000000000000000000000000000000000DF
:10012000A7C60008ABC60008AFC60008B3C60008E3
:10013000B7C600080000000000000000000000003A
:10014000000000000000000000000000BBC6000826
:10015000BFC60008C3C60008C7C60008CBC6000853
:10016000CFC60008D3C60008000000000000000051
:10017000000000000000000000000000000000007F
:1001800000000000D7C600080000000000000000CA
:10019000DBC60008000000002DE9F04FDFF8F8A3EF
:1001A0002DED108BBAF80850DAF80C60BAF902405D
:1001B000822DADF2246D40F2A38105F17E07FFB2DE
:1001C0004FF0820BDAF810C000230DF5047819B255
:1001D000CA000CEB020001331CF831E008F831E0F2
:1001E0004244DBB2D0F802E0C188C2F802E05B45CD
:1001F000D180ECD3822D86BFA5F182039BB2002370
:10020000AAF80830EFB1DAF81030791EC9B203F15C
:10021000080202EBC1014FF0000E00E0083293F833
:100220001004B3F812C4B3F8147418709142B3F800
:10023000160483F810E4A3F802C09F80D880134608
:10024000ECD1013D04FB15620BF1FF319AF8E0306F
:10025000089204FB012209910792002B00F05481BF
:10026000C94DDAED012A9AED2D3ADAED2A3A9AEDE6
:10027000314ADAED2B4A9AED355ADAED2C5A9FEDD8
:10028000C96A019547F6FF7ECDE902E50023069392
:10029000CDF810E01F461846A94618F83040C300B4
:1002A000461C7A1C08EB0301002C00F09C80B1F97D
:1002B0000440B1F90250B1F9061007EE904A17B2A6
:1002C000019A07EE105AA242F8EEE77AB8BF22462A
:1002D000F8EEC76A77EEE47A0192029A76EEE36A64
:1002E000A24267EE847AA8BF224666EE836AA945D9
:1002F00067EEA77A07EE101A0292039AB8BFA946D2
:10030000AE45E6EEA67AA8BFAE468A42B8EEC77AF8
:10031000B8BF0A4637EE657A0392049A37EE866ACA
:100320008A4267EE057AA8BF0A4603280492A7EE20
:10033000A76A58DDA3F108004044A3F1200C183B44
:100340004344C4440593B0F902300B93059BBCF9B8
:1003500002200A92B3F9022013460A9AAD1A1A46ED
:100360000B9B9A1A02EB450207EE902AB0F9045053
:10037000BCF90420059B0A95A41AB3F904500A9A03
:10038000B3F90630BCF906C0B0F90600521BF8EE0E
:10039000E77A02EB4404F0EEE77A07EE104AFCEE4F
:1003A000E77AB8EEC77AF8EE677AB0EEC77AC01A85
:1003B000A1EB0C0177EE877A00EB410107EE101AF2
:1003C000FCEEE77AB8EEC77AF8EE677AB0EEC77A55
:1003D00077EE277A069BFCEEE77A17EE902A934297
:1003E00038BF1346069330B283453FF756AF002F10
:1003F00000F0E880F7EE007AB9F5804F87EEA27A38
:1004000080F2AC801EF5804FC0F2A880019BB3F54E
:10041000804F80F2A380029A12F5804FC0F29E8036
:100420000399B1F5804F80F29980049810F5804FC0
:10043000C0F2948007EE907AF8EEE76A9A1AC6EE58
:10044000267AA9EB0E0E96457346A1EB0001B8BFC4
:1004500013468B42B8BF0B46DFED4C6AB1EEE76A3C
:1004600007EE903A67EE266AF8EEE77A26EE226A01
:10047000F4EEE76AF1EE10FA70D4DDED066ADFED16
:10048000445AF8EE666A66EEA22AF4EEE52AF1EE28
:1004900010FA63DCF1EE046A27EE267AB4EEE77A0E
:1004A000F1EE10FA3FDCF1EE006A67EE266AF4EE38
:1004B000E67AF1EE10FA40F3848507EE90EA37EE23
:1004C000077AF8EEE77AF4EEC77AF1EE10FA40F325
:1004D000788507EE902AF8EEE77AB4EEE77AF1EE47
:1004E00010FA40F16E8507EE901AF8EEE77AB4EE56
:1004F000E77AF1EE10FA4CBF01230023019362E08A
:100500004DB1AB4600275DE6CAE93A33CAE93C3350
:10051000CAE93E33A4E6AAF808500DF2246DBDECFA
:10052000108BBDE8F08F9AF8A430023B012BF4D871
:10053000DFED187AB4EEE76AF1EE10FAEDDD002394
:100540000121FF220798CAF860038AF8A4108AF8EC
:10055000E0308AF824308AF8E220DEE79AF8A43006
:10056000023B012B40F207850799CAF8601300226D
:10057000FF238AF8E0208AF8E2300DF2246DBDEC0A
:10058000108BBDE8F08F00BF0080FFFF000002432A
:1005900000007A4400004843080400200000C842DC
:1005A00000FF7F470000000000003CC29A99D93F3D
:1005B0003433234000007C420AD7233C6F12833A35
:1005C0006666663F01975FED0B7A1FED0B7A9AF92D
:1005D00066339AF8651326EE276AB4EEC76AF1EE21
:1005E00010FA88BFB0EE476A002BC0F23C8401339A
:1005F00093FBF1F201FB123252B214469AF86433C3
:100600008AF8662301338B42A8BF0B4616EE100A08
:100610008AF8643302F0FCF807EE900AFCEEE77A01
:100620000AEB440317EE900ADAF86043A3F8680374
:1006300034B1079B1A1B40F6B7339A427FF66DAF71
:10064000DDED077AB8EE67BA5FED247A2BEE27BAB4
:100650001BEE100A02F0DCF8DAF8D8300AEE900A45
:10066000002B40F0DC839AF8A4909AF864639AF81F
:1006700065138E4200F07584002707EE906AB5B2CC
:10068000B8EEE76A1FED397A002D00F011810022E3
:100690000294F0EE476A41F25C2040F6B83C144602
:1006A00007EB020E9EFBF1F301FB13E30AEB43039E
:1006B0000132B3F8683307EE903AA3F5925E8342B5
:1006C00098BFC31AAEF11C0E88BF1FFA8EF3F8EE66
:1006D000E77A98BF9BB203FB03FE37EE277A07EE5B
:1006E00090EA634588BF631CF8EEE77A1FFA82FE42
:1006F00088BFDCB2754576EEA76AD1D8C6EE867A99
:1007000006EB46063B2E0794029C5FED556AB1EE60
:10071000E78A28EE268A40F3D280B9F1000F38D05C
:10072000C7EE065A5FED607AE5EEA67AB0EE087A7B
:10073000F0EEE77AF4EEC77AF1EE10FA00F13C86BB
:10074000B1EE087AF4EEC77AF1EE10FA07D51FED94
:10075000697AB4EEC78AF1EE10FA00F12D86B1EE97
:10076000057AF4EEC77AF1EE10FA00F12A86B2EEBD
:10077000057AF4EEC77AF1EE10FA07D55FED747AD8
:10078000B4EEE78AF1EE10FA00F11B8601238AF835
:10079000A430DAED018A5FED797ADAF8E430BAF95B
:1007A00002609AF8E050B7EE007A87EE289ADDE909
:1007B000080103F5AB4201FB06067032B242F1EECE
:1007C000009A69EE299A69EEA77AFCEEE77A17EEAD
:1007D000901A89B2894654D244F6206296429AF819
:1007E000E1409AF9E2201ABFA6F59C46203E002679
:1007F000AC4202F1010200F0AB83521B92FBF4F118
:1008000004FB1122002A17B2BCBF121917B20FFA4B
:1008100085FCBCF1000F31D09B1B002198B28E46A5
:1008200005E0A3F8E02001310BB29C451ADD7A18EF
:1008300092FBF4F304FB1323DBB204330AEBC30390
:10084000B3F8E020024412B2002AEADA05F1FF3ED2
:10085000A3F8E020002D00F081835FFA8EF54FF0C1
:10086000010EE0E78AF8E050BEF1000F06D0B0EECE
:10087000690A484601F0E0FF9AF8E050CAF8E460DF
:100880003346002D4DD09AF9E2200AEBC202B2F9AC
:10089000002102F59C5208321344089A934234D343
:1008A000019B002B40D10A2D3ED8002305932FE158
:1008B000B1EEC78A07955FEDC07A28EE278AB9F1B5
:1008C000030F7FF466AFDAF8A030002B3FF461AF7E
:1008D00007EE903AF8EE677AB3EE0E7A7BEE676A2F
:1008E000F4EEC76AF1EE10FA7FF753AF07EE104A45
:1008F0005FEDCE6AB8EE477A27EE267AF4EEC77A35
:10090000F1EE10FA3FF709AE43E70023CAE93A33A4
:10091000CAE93C33CAE93E33FF228AF8E0308AF85C
:10092000E220019B002BC0D069EEA9BA5FEDDC6A22
:10093000CDF804B0B6EE007AF5EE007AB7EE08AA6C
:1009400000236BEEA6BA29EE079A68EEA78A29EE75
:100950008AAA1C46059318F8341008EBC402A4B206
:10096000002900F0CE80B2F90250B2F90460B2F969
:10097000067007EE905AF8EEE77AF0EEE77AF4EEBA
:10098000C97AF1EE10FA16D507EE906AF8EEE77A1A
:10099000F0EEE77AB4EEE79AF1EE10FA0BDD07EE2F
:1009A000907AF8EEE77AF0EEE77AB4EEE79AF1EEB5
:1009B00010FA00F3A6809AF8E0B0BBF1000F00F047
:1009C0001281BAF95A13BAF95823BAF95C33891B60
:1009D00001FB01F1521B02FB0212DB1B03FB032391
:1009E00007EE903AF8EEE77AF4EEE7BAF1EE10FA95
:1009F00000F3878095FBF9F309FB1353002BB8BF75
:100A00004B441BB207EE903AF8EEE77A67EEA87A0D
:100A100017EE900A01F0FCFE96FBF9F307EE900A40
:100A200009FB1363002BB8BF4B44FCEEE77A1BB203
:100A3000CDED027A07EE903AF8EEE77A9DF80820BD
:100A4000029267EEA87A17EE900A01F0E1FE97FB9A
:100A5000F9F307EE900A09FB1373002BB8BF4B4460
:100A6000FCEEE77A1BB2CDED037A07EE903AF8EE92
:100A7000E77A9DF80C20039267EEA87A17EE900AA9
:100A800001F0C6FE07EE900AFCEEE77ADAE93A23B7
:100A9000CDED047A9DF81010049102991F2940F2BF
:100AA000B681A1F12003012101FA03F3134208BF2B
:100AB0000021039881F001031F280693DAE93C2303
:100AC00040F29C81A0F12003012000FA03F31342BD
:100AD00014BF03460023049A1F2A83F0010C40F23E
:100AE0002981A2F1200E0120DAF8FC2000FA0EFE86
:100AF0001EEA020F00F0D681069B5CEA030340F079
:100B000089840134019A24B2A24223463FF723AFDD
:100B10009AF8DC30059A1A438AF8DC20002A3FF460
:100B2000FCAC9AF8E0300393182B7FF6F6ACDAF8B9
:100B3000A0306BB107EE903AF8EE677AB0EE007A2B
:100B40003BEE67BAB4EEC7BAF1EE10FA3FF5E5AC8A
:100B5000DAE93A8300220193DAF8FC300293114675
:100B60009AED01AADAF8F0E01B92DAE93D9B104613
:100B700013461546CDE91C22CDE91E2220924FF0E6
:100B8000010C12E0029C002F18BF0135002E18BF87
:100B900001331442EDB2DBB214BF01220022013155
:100BA00010444029C0B200F01982A1F120020CFAD1
:100BB00002F21F290CFA01F408EA02070EEA020603
:100BC000E0D8019A224218BF013509EA040218BF91
:100BD000EDB2002A18BF01331BEA040FDBB214BFC9
:100BE00001220022DBE7DAF8E4208AF8E2B04FF0D5
:100BF00001018AF8E010BAF90210002A40F03781AA
:100C0000089803FB0103CAF8E43095FBF9F309FBEC
:100C10001353002BB8BF4B441BB207EE903AF8EECB
:100C2000E77AAAF8002167EEA87AAAF8025117EE2F
:100C3000900AAAF85853AAF80461AAF85A63AAF8C5
:100C40000671AAF85C7301F0E3FD96FBF9F307EE79
:100C5000900A09FB1366002EB8BF4E44FCEEE77AFB
:100C600033B2CDED027A07EE903AF8EEE77A9DF8CE
:100C7000085067EEA87A17EE900A01F0C9FD97FBBD
:100C8000F9F307EE900A09FB1377002FB8BF4F4422
:100C9000FCEEE77A3BB2CDED027A07EE903AF8EE41
:100CA000E77A9DF8086067EEA87A17EE900A01F0DF
:100CB000AFFD07EE900AFCEEE77A1F2DCDED027A2C
:100CC0009DF8083040F2E480DAF8E810A5F120023F
:100CD000012000FA02F222EA01024A40CAF8E820A2
:100CE0001F2E40F2CB80DAF8F010A6F1200201208E
:100CF00000FA02F222EA01024A40CAF8F0201F2B51
:100D00000CD9DAF8FC200121203B01FA03F323EA95
:100D100002035340CAF8FC300591F2E6DAF8F820F5
:100D2000012101FA03F323EA02035340CAF8F83021
:100D30000591E6E610464FF0010EDAF8F8200EFABB
:100D400000FE1EEA020F7FF4D7AE9AF9E2209AF86D
:100D5000E1C001320692002940F0AD80002B40F046
:100D6000AA80069B089893FBFCF20CFB1232DAF87F
:100D7000E430BAF802E0AAF8585351B20BF101027C
:100D80006245A0EB0303A8BF62461EFB04300B1DA7
:100D90000AEBC303D2B262458AF8E020AAF85A638C
:100DA000AAF85C738AF8E210A3F8E250A3F8E460B2
:100DB000A3F8E670A3F8E00000F0F882029B1F2B76
:100DC00040F2F480DAF8E820203B012101FA03F335
:100DD00023EA02035340CAF8E830039B1F2B40F27A
:100DE000DA80DAF8F020203B012101FA03F323EA4C
:100DF00002035340CAF8F030049B80E7024601200A
:100E000000FA02F21A4214BF0346002363E60A46C0
:100E1000012101FA02F21A4208BF002149E607EE59
:100E2000903AF8EE677A9FED697A7AEEE77AFDEE0E
:100E3000E77AF8EEE77AF4EEC77AF1EE10FA00F30B
:100E400081809FED637A9AF8A490F4EEC77AF1EE70
:100E500010FA40F38E8219F1000918BF4FF0010912
:100E60008AF8A49001E400242246FFF7C7BB089B40
:100E700011FB04F19A1A0A4412B2C6E6DAF8F41029
:100E80000122B24022EA01024A40CAF8F42036E7C1
:100E9000DAF8EC100122AA4022EA01024A40CAF81C
:100EA000EC201DE79AF9E2209AF8E1C0024406928C
:100EB00000293FF453AFE345069B00F06B82A3EBA0
:100EC0000B0292FBFCF30CFB1323002B0FFA83FEA7
:100ED000BCBF63440FFA83FE002002E09B457FF60F
:100EE00040AF0EEB000292FBFCF30CFB1323DBB2D2
:100EF00004330AEBC3030130B3F9E210B3F9E42081
:100F0000B3F9E630691AB21A06EE901A07EE102A03
:100F1000FB1A07EE903AF8EEE66AB8EEC77AF0EE02
:100F2000E66AB0EEC77AF8EEE77A36EE877AF0EE48
:100F3000E77A77EE277AC3B2B4EEE7AAF1EE10FAB9
:100F4000CCDDDEE500238AF8A4309946FFF78DBB9F
:100F500092FBF5F705FB172217B258E44FF0010E8C
:100F600061E49AF96633013393FBF6F706FB173316
:100F70009FB2FFF782BBDFED177AB4EEE76AF1EEBE
:100F800010FA7FF7F1AA012200238AF8A4208AF838
:100F90002430FFF7E9BADAF8F420012101FA03F36B
:100FA00023EA02035340CAF8F43025E7DAF8EC20CC
:100FB000012101FA03F323EA02035340CAF8EC309B
:100FC0000BE700230193FFF7FEBA00BF00F0524980
:100FD00000C028480000484300003442052D40F27C
:100FE000E081052B40F2DD81052840F2DA819AF894
:100FF000E1B0039A9AF9E2505A4505F1010300F075
:1010000003829A1A92FBFBF30BFB1323002B1CB2F7
:10101000BCBF5B441CB204F11D030AEBC3030026F2
:10102000B3F91A10B3F91C20B3F91E308E461F46CF
:10103000944604EB060898FBFBF00BFB1080C0B253
:101040001D300AEBC0000136B0F91A90B0F91C80CF
:10105000B0F91E004945B8BF4946CE45A8BFCE46A7
:101060004245B8BF4246C445A8BFC4468342B8BF44
:1010700003468742A8BF074603985FFA86F94845AA
:10108000D7D8F7EE007AC7EE8A7A9AF82400A1EB57
:101090000E01A2EB0C02DB1B09B212B21BB25FED18
:1010A000325ACDED047A67EEA55A002840F0AA81A5
:1010B0009AF8A400B0FA80F0400907EE901AB0EE5A
:1010C000086A25EE866AF8EEE76AF4EEC66AF1EE83
:1010D00010FA00F37B8107EE902AB8EEE77AB4EEBF
:1010E000C76AF1EE10FA00F1718107EE903AF8EE5E
:1010F000E77AB4EEE76AF1EE10FA00F167810028B2
:1011000000F09281F4EEE65AF1EE10FA00F38981D4
:10111000F4EEC75AF1EE10FA00F38381F4EEE75AC9
:10112000F1EE10FACCBF012300230193B7EE026A5F
:1011300066EE866AF4EEE65AF1EE10FA00F33181BB
:1011400027EE067AF4EEC75AF1EE10FA00F3298181
:1011500067EE867AF4EEE75AF1EE10FA00F3218199
:1011600000234FFA84F808F101091E469E46012724
:1011700008EB030109EB030291FBFBF30BFB1313D9
:101180005CB2002CB8BF5B4492FBFBF10BFB11225D
:10119000B8BF5CB252B2043204340AEBC4010AEBA9
:1011A000C203B1F9E200B3F9E230191A00299BB287
:1011B00080B2B4BFC31A1B1A0AEBC40118B20AEBFF
:1011C000C203B1F9E410B3F9E4305D1A002D9BB20B
:1011D00089B2B4BFCB1A5B1A0AEBC4050AEBC20191
:1011E0000AEBC4040AEBC202B1F9E610B5F9E65005
:1011F000B2F8E020B4F8E040A1EB050C121B89B274
:10120000BCF1000FADB212B2B4BF691A491B002A7B
:101210001BB209B21EDD03440B444FF47A7101FB8B
:1012200003F307EE903A07EE102AF8EEE77AB8EEED
:10123000C77A67EE8A7A0EF1010EC7EE876A5FFA07
:101240008EFEFDEEE67A17EE903A1BB2642BC4BF19
:101250000136F6B23B4603990137FAB2914287D87C
:10126000BEEB860F80F29D809AF8A430023B012BE2
:1012700000F21181BF4D00240EAF55F8040B01F0B0
:10128000C7FA07EE900AFDEEE77A17EE900A27F804
:1012900014000134032CF0D10CAB0DAAB0EE4A0AB5
:1012A000B549384601F0CEFB9DED0C7ADFEDB37AFF
:1012B000FCEEEA6AB4EEE77AF1EE10FACDED026ADE
:1012C0000FD59FEDAF7ADDED0D7A77EEC77AB0EEF0
:1012D0000C7AF0EEE77AF4EEC77AF1EE10FA00F14C
:1012E000DF8000233B60BB809AF8E0409AF8E15031
:1012F0009AF9E230AC4203F1010900F03581A9EB23
:10130000040292FBF5F305FB1323002B19B2BCBFBB
:101310005B1919B2DFED9E8A0022F0EE689AB0EEFA
:10132000689AD3B29C4201EB020040F2C58090FB68
:10133000F5F305FB1303DBB204330AEBC3030132FD
:10134000B3F9E20006EE900AB3F9E400B3F9E6302F
:1013500007EE100A07EE903AF8EEE66AB8EEC77AA2
:10136000F8EEE77A39EE269A79EE879A78EEA78A30
:10137000D7E79FED847AF4EEC77AF1EE10FA7FF7A3
:1013800074A9B9F1020F28BF4FF002098AF8A4909E
:10139000FFF76BB993FBFBFE0BFB1E3E0FFA8EFEB5
:1013A0009AE500238AF8DC30FFF7B7B8B0EE690A97
:1013B000484601F041FA01E503238AF8A430FFF71B
:1013C00082BA02238AF8A430FFF7E3B90AEBC50515
:1013D000DAF8E420B5F90031DAF8601313449942E1
:1013E000DFD2DAF8D8104FF47A7303FB01F36433D9
:1013F000934238BF13460022CAF860338AF8DC20D3
:10140000FFF78BB8002058E693FBF2F402FB14338D
:101410001CB200E69AF9E2209AF8E1C0531C069348
:1014200049E50123019381E6DAED314A9AED2D6A0F
:101430009AED355A9FED544A36EE246AF7EE024A89
:1014400036EE056AB7EE005A26EE046AB4EEE46A98
:10145000F1EE10FA88BFB0EE646AB4EEC56AF1EE40
:1014600010FAB8BFB0EE456A66EE866AF4EEE65A48
:10147000F1EE10FA95DC27EE067AF4EEC75AF1EE9B
:1014800010FA8EDC67EE867AF4EEE75AF1EE10FA87
:1014900087DC019064E6FCEEEA7ACDED027A23E780
:1014A00000287FF41EAF029B8AF8A440CAF8A0303F
:1014B0008AF8DC00FFF731B807EE904AB8EEE77A19
:1014C000F7EE006AC6EE877A0022489249924A9265
:1014D0004B929FED2F7A29EE279A69EEA79A68EE34
:1014E000A78A8DED129ACDED139ACDED148AB0EE48
:1014F000475AF0EE477AF0EE474AB0EE474AF0EE30
:1015000047AAD3B29C4201EB020045D990FBF5F308
:1015100005FB1303DBB204330AEBC3030132B3F957
:10152000E20005EE900AB3F9E400B3F9E63006EE06
:10153000100A06EE903AF8EEE55AB8EEC66AF8EEF2
:10154000E66A75EEC95A36EE696A76EEE86AE5EE45
:10155000A5AAA5EE864AE6EE067AE5EEA64AA6EE2E
:10156000265AA6EEA67ACCE799FBF4F104FB11917A
:1015700009B2CFE6B0040020BC0400209A99D93FFC
:1015800000003C4200F05247ABAAAA3EABAA2A3E5A
:1015900000000000920A064064EEA46ACDED42AA63
:1015A000E4EE046A8DED434AE5EE056ACDED444A6A
:1015B000F5EE406AF1EE10FACDED457A8DED465A22
:1015C0008DED477A00F0C08037EE87BA1FED126AC2
:1015D0005FED125A3BEE2ABAB0EE005A2BEE06BA75
:1015E000B7EE006A77EECB7A7AEECBAA67EEA77AEF
:1015F00037EE4B7AEAEEAA7A4FF0000E71460DF5FF
:10160000D07BE6EE857AE7EE077A67EEA57AF1EE13
:10161000E7BA86EE2B7A01F1010C01FB0CF30222F2
:1016200093FBF2F3AEEB0303DBB25FFA81F80393B3
:101630000C2303FB01B146460020039BC2B21344B6
:10164000DBB2904542AA02EB830200F1010705924A
:1016500000FB07F200F26C81059AD2ED007A00F0EF
:101660005F8142AA02EB8303D3ED007A67EE877AAB
:10167000C1ED007A0336032FF6B201F104013846BA
:10168000DBD161460EF1030E03295FFA8EFEC2D153
:10169000DBED084A9BED036A9BED054ADBED075A3B
:1016A0009BED067A9BED045ADBED013A66EE647A17
:1016B00065EEC46AE4EE077AE5EE246A27EE457A21
:1016C00067EEA37ADBED004A9BED025AA5EE867A1F
:1016D000E4EEA67AF6EE006AE5EE077ABFEE007A4F
:1016E00067EEA67AF4EEC77AF1EE10FA40F21581B1
:1016F000B7EE007AF4EEC77AF1EE10FAC0F202818A
:101700001FED5DCA1CEE100A01F0A9FA5FED5F7AC9
:101710007CEE277A07EE100A7BEEABBA17EE900A42
:10172000F0EE4BAAEBEE87AA01F099FA06EE900ACA
:10173000B0EE4B7AF0EE087AABEEA67AF0EE6A6A7B
:10174000DBEE276A76EEC77AF0EEE77AF0EEEAAAE9
:10175000F4EEEA7AF1EE10FAB0EEC77AB4BFF0EE2A
:101760006A6AF0EE676AB4EEE67A88BFF0EE6A7AEB
:10177000F1EE10FAF4EEC77AA8BFF0EE476AF1EE88
:1017800010FA88BFF0EE477AB2EE0E7A67EE877AEB
:10179000F4EEE76AF1EE10FA07DD0023029ACAF8C8
:1017A000A0208AF8DC30FEF7B8BE002310AA4593CB
:1017B00046934793489349934A934B937D938093E1
:1017C00082938E4B136040F202210123AC42918040
:1017D000937100F00D81A9EB040191FBF5F305FB7A
:1017E0001313002B19B2BCBF5B1919B2DFED867A57
:1017F0000020CDED037AF0EE672AB0EE672AF0EE16
:10180000671AB0EE671AF0EE670AB0EE670AF0EEFC
:1018100067AAB0EE67BAF0EE67BAB0EE67CAF0EE4C
:1018200067CAB0EE67DAF0EE67DAB0EE674AF0EE5C
:10183000673AB0EE673AB0EE67EAF0EE67EAB0EE0C
:1018400067FAC3B29C4201EB000677D996FBF5F329
:1018500005FB1363DBB204330AEBC3030130B3F9B6
:10186000E26006EE906AB3F9E460B3F9E63007EEA1
:10187000106A06EE103AF8EEE66AB8EEC77AB8EEED
:10188000C66A76EEC96A36EE686A37EE697A66EE3F
:10189000A64A27EE075A66EE065A66EE87FAA6EEC5
:1018A000A4CAE7EE24BAA6EE24BAE6EE85AAA7EE0D
:1018B000050AE6EE050AA6EEA51AE7EE251A66EE7B
:1018C000866A27EE067AA6EE252A9DED036AA6EE25
:1018D000A6DA76EE266AA4EEA4FAE5EE05EAA5EE0F
:1018E000A5EAEFEEAFDAE7EE07CA33EE243A73EE7D
:1018F000853A34EE254A77EEAF7ACDED036A72EE83
:10190000872A9EE717EE900A01F0ECF99FED3CCA9A
:1019100007EE900A27EE8CCAF4E69FED3ACAF1E68C
:1019200077EECB7A471C67EE877AC1ED007AA1E6A5
:10193000022392FBF3F3F31ADBB292E607EE104AAE
:10194000B8EE477A0DF5D07B8BED1B7A9DED037ACF
:101950008BED00FACBED07EA8BED0DEA8BED123A39
:10196000CBED163A8BED194ACBED01DA8BED02DAAD
:10197000CBED08CA8BED03CACBED04BA8BED05BAEB
:10198000CBED09AA8BED0A0ACBED0B0A8BED0E1AF3
:10199000CBED0F1A8BED102ACBED172A8BED147AB5
:1019A000CBED137A8BED063ACBED0C3A8BED114A69
:1019B00000230224581C00FB03F1D65C91FBF4F1D8
:1019C000C1EBC3010BEB81010746D35C91ED007ABB
:1019D00013FB06F307EE903AF8EEE77AC5B267EE2E
:1019E000877A072D0346E1EC017A0FD00130ECE74E
:1019F00099FBF4F104FB119109B2F7E60101010230
:101A0000ABAAAA3E920A863F00000000072F3B4681
:101A1000D0D14FF07C53002222932393259321921F
:101A20002492269233A9032302245D1CDA00C3F119
:101A3000050005FB03F393FBF4F35B4210441A44E7
:101A400018440BEB820369AA02EB8002A1F1300675
:101A5000084653F8047B46F8047B9A4240F8307CF1
:101A600000F10C00F5D1062D01F110012B46DCD15F
:101A70000DF5B07840220021404601F06DF95CAAD6
:101A800060AB15A927A8CDE91582179301F06EF96F
:101A9000DBED1B8AB7EE007AC7EE287A00224CAC49
:101AA0004FF00C0E4FF00209C8ED0F7A05940EFBB3
:101AB000024108EB02150023C3EBC306581C00FBD0
:101AC00003F35FED2F7A93FBF9F3F31A9E000023E3
:101AD000F71805EB030C5F4497ED037ADCED006A21
:101AE0000433102BE6EE877AF2D10328E1EC017A79
:101AF0000346E1D10132042AD8D10DF1C009CE4606
:101B00000022C2EBC203551C05FB02F1D81C0226C1
:101B100091FBF6F699186FF0030303FB02F376428C
:101B20000C3330443144069304EB820303930BEBF4
:101B3000800089000023039A5FED4D7AD71806468E
:101B400000224FF00C0C0CFB027C9CED007AF6ECB2
:101B5000016A0132042AE6EE877AF2D1CA185A44A1
:101B600092ED007A03EB430277EE677A0EEB030601
:101B70007244C6ED007AC2ED007A069A04339A42A6
:101B8000D9D1032D0EF1100E2A46BAD10026CDF878
:101B90002CB0711C06EB4603022006FB01F292FBFF
:101BA000F0F29B1A83400893F3B2069339AA0C23F0
:101BB00003FB062303934FF0000B09EB0B035FEDD0
:101BC0006E7A0A93002000EB4003089F3344099388
:101BD00007EB800721AB1F440A9B4FF00C0C0CFB5A
:101BE000003E069B9EED007A5FFA80FC421C634536
:101BF00000FB02F500F26C85D7ED006AE6EE877A0D
:101C0000032A1046DFD1039B0BF1040BE3EC017AAE
:101C1000BBF10C0F0393D0D103290E46B9D10A466C
:101C200039A84946DDF82CB001F094F918AA4946C4
:101C300039A801F0D7FA9DED187ADDED197AB4EEE6
:101C4000E77AF1EE10FA58BFF0EE477A9DED1A7A76
:101C5000F4EE477A54BF00230123F1EE10FA48BF97
:101C6000022309EB83010A460868C9689269439117
:101C700005994492429045AB04F13002D1ED017ACE
:101C80009DED435AD1ED005A9DED426AD1ED026AB5
:101C90009DED447A67EE857A0C31E5EE867A9142C5
:101CA000E6EE877AF1EE677AE3EC017AE6D1DDEDD4
:101CB000447AF5EEC07AF1EE10FA00F1178542ABE6
:101CC0001FEDAF7A0393002505F1010EC5EBC503A7
:101CD00002210EFB05F292FBF1F29B1A8B40069358
:101CE0005FEDB77AEBB205930DF5847C0021C1EB73
:101CF000C1032B440893069E059BFCEC016ACFB2FE
:101D00004A1C06EB8106BB4201FB02F05E4400F276
:101D1000F98496ED006AE6EE267A072A1146E6D1A6
:101D2000039B7546F3EC016A072D0393A6EEA77A91
:101D3000CAD1C7EE287A00234FAE52ADC8F804309E
:101D4000C8F80830C8F80C30C8F81430C8F8183093
:101D5000C8F81C30429F439AC9F8085049469DED87
:101D6000483A9DED474ADDED464ADDED453A46935A
:101D7000B1EEE77A459347934046449BC8F800701C
:101D8000C9E90046C8F81020C8F82030F5EE007AFE
:101D9000B1EEC79A8DED4B3A8DED4A4A29EE279A5E
:101DA000CDED494ACDED483A00F0E0FF00283FF480
:101DB000F4AC94ED046A94ED032AD4ED016AD4EDF9
:101DC000002A94ED055AD4ED025A94ED077AD4ED29
:101DD000067AC9F8004024EE866A64EEA66AA2EE8E
:101DE000236A03225946E3EEA26A4046C9F804601A
:101DF000A4EE056AC9F80850E4EE256A24EE877A55
:101E0000B1EE466AA7EEA37A66EE247AF1EE666A30
:101E100094ED085ADFEDE65ACDED276AE6EEA37A97
:101E2000A4EE057A77EE837AB1EE477AE7EE047A8C
:101E30008DED286AF0EEE77AF1EEE79A8DED297ADA
:101E40006AEE297AC5EEA78A01F084F839AA5946C4
:101E5000404601F0C7F9DDED396AF5EEC06AF1EEF2
:101E600010FA00F16F84DDED3A7AF5EEC07AF1EE0A
:101E700010FA3FF592ACDDED3B7AF5EEC07AF1EE6B
:101E800010FA3FF58AAC3CAA39AB93ED007AF1EE3B
:101E9000C77AE3EC017A9342F7D100234FF00008B0
:101EA00059F823209F003A445D4619460BF10C0C6B
:101EB000DFEDC06AC2F80080AE46584639AEF0EC9D
:101EC000017AB6EC017ABEEC016A67EE277A6045CA
:101ED000E6EE276AC2ED006AF1D159F821600131BE
:101EE0005FFA81FE3E44BEF1030F02F1040205F1E8
:101EF0000C05C6ED006ADBD10133032B8346CFD13D
:101F000094ED004AD4ED044A94ED085ADFEDB20A8C
:101F1000D4ED031A94ED067A28EE844A68EEA44ABA
:101F200028EE855A74EE245AB7EE002AB4EEE44A3D
:101F300075EE855AF7EE047AF1EE10FA34EE426A45
:101F400034EEC21A8CBFF0EE642AF0EE442A65EE3D
:101F5000A05A74EEE76A74EE670AB0EEC63AB4EEC1
:101F6000E25AB0EEC11AF1EE10FAF0EEE66AB4EE03
:101F7000C31AF0EEE00AC9EE293A4FF0000363609D
:101F8000A360636135EE676A98BFF0EE452AF1EE13
:101F900010FAF4EEE06AB8BFB0EE431A74EEE57AD8
:101FA000F1EE10FA34EE653AB8BFF0EE606AB0EECA
:101FB000C66AB4EEE66AB0EEC33AF0EEE77AF1EE46
:101FC00010FAF4EEC37AB8BFB0EE666AF1EE10FA1A
:101FD00075EE656AB8BFF0EE437A35EE423AF0EE40
:101FE000E66AF4EEE76AB0EEC33AF1EE10FAB4EE48
:101FF000C13AB8BFF0EE676A84ED004AF1EE10FA1C
:10200000D4ED077AC4ED044A28EEA14ADFED6A1A3E
:1020100084ED085AB8BFB0EE413A28EE877A68EEF0
:10202000A77AB4EEE13AF1EE10FA32EE639A84ED5B
:10203000034A84ED067AC4ED077A40F1A7839FED49
:102040005F5AF4EEC56AF1EE10FA40F19F839FEDFE
:102050005C5AB4EEC56AF1EE10FA2FD59FED596ABD
:1020600025EE866AF4EEC66AF1EE10FA26D5012353
:10207000B0EEC77AB0EEC44AB4EEC47AF1EE10FA0C
:10208000B8BFB0EE447AF0EEE77ADFED4F6AF4EED7
:10209000C77AF1EE10FAF4EEE62AB8BFF0EE477A0E
:1020A000F1EE10FA40F386839FED487A65EE875A89
:1020B000F4EEE75AF1EE10FA40F37C83F6EE007A84
:1020C000F4EEE73AF1EE10FA3FF767AB0EAFDFED53
:1020D000458A27AE0DF1480B4FF00008B9460C2396
:1020E00003FB08474DAB03EB081325460393386801
:1020F00001F074FC2CA3D3E9002301F093FC01F060
:1021000071FD07EE900AF8EEE77A039B67EEA87A76
:10211000E7EC017ABB42EAD1B6EC017AFBEC017A3A
:1021200077EE277A17EE900A00F072FB07EE900A1E
:10213000FDEEE77A17EE900A29F8180008F1010879
:10214000B8F1030FCBD1E168A069029BE669CAF838
:10215000A0306160A060B0EE4A0A0CAB0DAA214627
:1021600048464F46666100F06DFC002851D1DDED18
:102170000D7A9FED0F6ADFED106A86EE277AF7EE93
:10218000007A77EE677AF0EEE77AF4EEE67AF1EE2F
:1021900010FA3ED5DFED0E6AF4EEE67AF1EE10FAB3
:1021A00037DD55AB20E000BF0000000080842E41E9
:1021B00000003C42000000003333B33E9A99993E40
:1021C0003333333FCDCC4C3ECDCCCC3E9A99193FE6
:1021D000CDCCCC3D0AD7233CABAAAA3E56550542EE
:1021E00000007A44BD37863595ED006AD5ED016A69
:1021F000D5ED027A26EE076A66EE876A67EE877A81
:1022000085ED006AC5ED016AC5ED027A0C359D4287
:10221000EAD19AF8E0501FED116A9DED0C7AC5EBFA
:1022200005135B0007EE903A06EE900AF8EEE77AA7
:10223000F8EEE66A67EE867AF4EEE76AF1EE10FAF7
:1022400000F3BC82F1EE047AB4EEE77AF1EE10FA14
:1022500040F3D6829AF82480B8FA88F84FEA5818E2
:10226000D4ED045AD4ED007A94ED086A5FED266A45
:10227000D4ED038A94ED06AADAF8A0601B9677EEF7
:10228000A57ADDED045AD4ED079A25EE877A77EE2C
:10229000867A87EE097A27EEA69A17EE100A00F0E2
:1022A000B7FAB0EECA7AF0EEE87A77EE877AB0EE57
:1022B000E97A77EE877A1FED377A67EE877A07EE4D
:1022C000100AC7EE897ABCEEC77A17EE900A17EEAD
:1022D000103A8DF8703000F09BFA07EE900AFCEE91
:1022E000E77A1FED417A17EE900A0DF1760200238E
:1022F0008DF8710004EB0311D1ED007A37F813105B
:1023000022F8041C67EE877A0133FCEEE77A032B90
:1023100017EE901A22F8021FECD1019B8BB19DEDB4
:10232000047AF1EE047A67EE277A17EE900A00F04D
:102330006FFA07EE900AFCEEE77A17EE900A8DF836
:10234000700000238AF8DC30B8F1000F3EF4E5A8F5
:102350009DF870309AED01EA0BEE103A9AF82430AD
:10236000B8EECBBA2BEE0EBA43B9B4EECB8AF1EE8F
:1023700010FA03D5079B092B7EF6CFA8BDF9723062
:10238000BDF878001FED69DA09EE903AF8EEE99AA7
:1023900000238AF8A530CAED2A9A01F04DFC0022EC
:1023A000DF4B01F03FFB01F059FCBDF9743007EE43
:1023B000900A09EE103A67EE8DAAB8EEC99ABDF8F8
:1023C0007A00CAED2DAA8AED2B9A01F035FC002285
:1023D000D34B01F027FB01F041FCBDF9763007EE4D
:1023E000900A08EE903A27EE8DAAF8EEE88ABDF83A
:1023F0007C008AED31AACAED2C8A01F01DFC002276
:10240000C74B01F00FFB01F029FC07EE900A27EE05
:102410008DDAF0EE007AB4EEE7BAF1EE10FA8AED5A
:1024200035DA40F1CE8103238AF8A4309AF8E180AE
:102430009AF9E230CAF8D8600021FF22A84503F1DA
:1024400001038AF864138AF8662300F0D2815B1BCB
:1024500093FBF8F208FB1233002B0FFA83F9BCBF91
:1024600043440FFA83F99AF86573002D00F0BE819A
:102470009FEDAC8ADAED2EDADAED2FCA9AED30CA8A
:10248000DAED32BA9AED34BA00262EEE088A3346D7
:102490004FF0FF3403EB090292FBF8F308FB132320
:1024A000DBB21D330AEBC3030134B3F91E2007EE80
:1024B000902AB3F91C20B3F91A30F8EEE77A07EE48
:1024C000102A77EEE87AB8EEC77A06EE903A94FBD7
:1024D000F7F3FDEEE77A37EE497A17EE902AF8EE39
:1024E000E66ABDEEC77A12B276EEE96A07EE902A86
:1024F00017EE102AFDEEE66A12B207EE102A16EE6B
:10250000902AF8EEE77A12B2B8EEC77A06EE902A71
:1025100067EEAC5AF8EEE66A27EEAB5AE7EE2D5AB4
:1025200007FB134464B2A6EE8C5A013636B227EE8E
:102530000B6AFDEEE55AA6EEAD6A27EE0A7A66EE64
:10254000AA6A15EE902AFDEEE66AFDEEC55ABDEECA
:10255000C77A6DEE277A16EE903A17EE100A15EE4E
:10256000901AFDEEC66AFDEEE77A1A44014416EEB3
:10257000903A17EE900A11FB01F1034412B202FBEC
:1025800002121BB203FB032307EE903AF8EEE77A40
:10259000B1EEE77A67EE087A17EE900A00F038F9A4
:1025A00007EE900AFCEEE77A0AEB440317EE900A76
:1025B000AE42A3F8680322463346FFF66BAF8AF8B3
:1025C0006643BD42294628BF3946BD428AF8641396
:1025D00080F0058100248EB200293DF49EAF9FED6E
:1025E000527A0020F0EE476A41F25C25221892FBF5
:1025F000F7F307FB13230AEB43030130B3F8683307
:1026000007EE903AA3F59252AB4298BFEB1AA2F1B3
:102610001C02F8EEE77A8CBF93B29BB203FB03F384
:1026200037EE277A07EE903A83B2F8EEE77A9E42C9
:1026300076EEA76ADAD807EE901AF8EEE77A01EBA1
:10264000410186EEA76A3B29F1EEC66A7DF765AFC8
:1026500087EE276A9FED357ADFED357AE6EE077A69
:10266000B0EE086AF0EEE77AF4EEC67AF1EE10FA10
:1026700000F1B380B1EE086AF4EEC67AF1EE10FA1A
:1026800026EE877A07D5DFED2B6AB4EEE67AF1EE17
:1026900010FA00F1A280F1EE056AF4EEE67AF1EEAE
:1026A00010FA00F1B280F2EE056AF4EEE67AF1EE8D
:1026B00010FA40F1A880DFED207AB4EEE77AF1EE6F
:1026C00010FA4CBF022301238AF8A430FDF725BF7E
:1026D000022395FBF3F0099B1B1A21A800EB83034F
:1026E000D3ED006AE6EE877AFFF78ABA42AB49AAD1
:1026F000D3ED007AF1EE677AE3EC017A9342F7D1F9
:10270000FFF7DDBA022390FBF3F1089B5B1A0BEB9A
:10271000830393ED006AE6EE267AFFF7FEBA00BF68
:1027200000408F400000C842000000000AD7233C50
:1027300000003CC29A99D93F343323403333333FAE
:10274000CDCC4C3E9DED3A7AB5EEC07AF1EE10FA62
:102750007FF523A8DDED3B7AF5EEC07AF1EE10FAB5
:102760007FF51BA8F5EEC06AB1EE477AF1EE677A05
:10277000B1EE666AF1EE10FA8DED3A7ACDED3B7A64
:102780008DED396A7FF76FABFFF707B81FED155A6C
:10279000B4EEC56AF1EE10FA7EF5FFAF1FED186AD0
:1027A00025EE866AF4EEC66AF1EE10FA7EF5F5AF14
:1027B00000235DE4002B3EF4F0AF7FE44FF000080F
:1027C0004EE5F0EE0C7AB4EEE7BAF1EE10FA4CBF3B
:1027D000022301238AF8A43028E6032374E7013298
:1027E00092FBF1F401FB142294B2F4E64FF0FF32B5
:1027F000E7E693FBF5F905FB19330FFA83F932E6A7
:102800004FF001082CE501235EE702235CE700BFDF
:10281000C0F3C7527E3A09DD182A0CDA6FF07F4107
:10282000D14020EA510040188843704700F0004032
:1028300008BF40F07E5070472DE9F04F804D2DEDE0
:10284000028B95F8E02095F8E18095F9E21089B0C7
:1028500000234245019201F10101C5E93A33C5E97E
:102860003C33C5E93E3300F0E380891A91FBF8F36D
:1028700008FB13110BB200290793C0F2D580019B0E
:10288000002B00F0CC800026F7EE007A814687EE20
:10289000808ACDE90266CDE904660696B346012733
:1028A00024E0203C07FA04F424EA0B04BAF11F0FD9
:1028B0008BEA040B40F28B80059AAAF1200107FAFB
:1028C00001F121EA02014A401F2B059240F2898062
:1028D000039A203B07FA03F323EA0203534001362D
:1028E000019A0393F3B29A4240F28880079B9919A8
:1028F00091FBF8F308FB1313DBB203F1040A05EBB9
:10290000CA01B1F9E20090FBF9F109FB11010029BC
:10291000B8BF49440BB207EE903AF8EEE77A67EE9B
:10292000887A17EE900AFFF773FF05EBCA0107EEEE
:10293000900AB1F9E40090FBF9F109FB11010029BB
:10294000B8BF4944FCEEE77A0BB2CDED007A07EE52
:10295000903AF8EEE77A9DF8004067EE887A17EE35
:10296000900AFFF755FF05EBCA0307EE900AB3F98B
:10297000E61091FBF9F309FB1313002BB8BF4B448E
:10298000FCEEE77A1BB2CDED007A07EE903AF8EE56
:10299000E77A9DF800A067EE887A17EE900AFFF7B5
:1029A00037FF07EE900AFCEEE77A1F2CCDED007A98
:1029B0009DF800303FF675AF069A07FA04F424EA52
:1029C00002046240BAF11F0F06923FF675AF049AF7
:1029D00007FA0AF121EA02014A401F2B04923FF64E
:1029E00077AF029A07FA03F323EA02035340013652
:1029F000019A0293F3B29A423FF678AF069BC5F86C
:102A0000EC30059BC5F8F030049BC5F8F430039B0F
:102A1000C5F8FC30029BC5F8E8B0C5F8F83009B03D
:102A2000BDEC028BBDE8F08F41440BB2079326E763
:102A300091FBF2F302FB13110BB207931FE700BFE8
:102A4000080400202DE9F04F804D00241C60146024
:102A500095F8E0E095F8E18095F9E240F7EE007A2C
:102A6000C64583B004F10104A94687EE804A05D12A
:102A700094FBFEF50EFB154425B20AE0A4EB0E0410
:102A800094FBF8F508FB1544002C25B2BCBF444468
:102A900025B2DFED6F3AF3EE0E7A4FF0000A6CB21A
:102AA00064EE233A24EE274A0194D346019C04EBBA
:102AB0000A055FFA8AF4A64540F2A48095FBF8F473
:102AC00008FB1454E4B2043409EBC4048788B4F856
:102AD000E660B4F8E250B0F800C0B4F8E44091ED1C
:102AE000052AD1ED022AD1ED030A91ED077A91ED85
:102AF000011AD1ED044AD1ED086AD1ED061AD1EDE3
:102B0000005A92ED003AF61B36B2478807EE906AFB
:102B1000A5EB0C052DB2F8EEE77AE41B06EE105A91
:102B200024B2B8EEC66A05EE104A27EE822AB8EE45
:102B3000C55A67EEA22AA6EE202A0BF101060AF179
:102B4000010A25EE077AE5EE012A25EE245A67EE02
:102B5000A67ABDEEC22AFDEEC56AA6EE217A26EE61
:102B6000256A16EE907A12EE104AFDEEE22ABDEECC
:102B7000C66A3C4414FB04F712EE905A16EE104A53
:102B8000BDEEC77AFDEEE77A254415FB057517EE15
:102B9000904A17EE107A274417FB075407EE904A25
:102BA000F8EEE77AB1EEE77ABDEEC77A17EE104A93
:102BB00024B207EE104AB8EEC77A77EE637A33EEA6
:102BC000077AF0EEE77AFDEEE77A82ED007A17EE0B
:102BD000904A24B207EE904A04FB04F4B8EEE77A78
:102BE00007EE904AB4EEC74AF8EEE77A93ED007A22
:102BF00077EE277AF1EE10FA48BF5FFA86FBC3ED55
:102C0000007A53E707EE90EA93ED007ADFED116A60
:102C1000F8EEE77A584687EE276AB1EEC67A20EEDC
:102C2000077AB4EEE67AF1EE10FAB8BFB0EE667A43
:102C300083ED007A92ED007A20EE070A80EE277A83
:102C400082ED007A03B0BDE8F08F00BF08040020D9
:102C500000003C429A99593F10EE100A02BD80B51F
:102C600000EE100A01F01AF9F6E7F0B40246106817
:102C700095681318506803EB5004C0071DD54D44E8
:102C80001BE013F8017B05F8017B491EF9D1A0B1C7
:102C9000B60813F8011B06F00306032E08BF13F84D
:102CA000016B01EB06214942801C294405D011F833
:102CB000016B05F8016B401EF9D1A3420ED013F849
:102CC000016B16F0030104BF13F8011BC91C300986
:102CD0000F28DAD113F8010B0F30D6E7F0BC02F160
:102CE0000C00704700EE100A734600F003F810EE77
:102CF000100A184710EE101A04204FF07E5201EE11
:102D0000902A490088BF0820490800EE101A914215
:102D100014D871EEC00A0F4A31EE801A914261EE6A
:102D2000200AF1EEE00A05D980F0040080EE800A66
:102D300001F0B6B880EE200A01F0B2B8490011F1F6
:102D4000807F9CBF6FF0004100EE101AAFF300804F
:102D500070470000F404353F10B5044610460A469B
:102D60000146204601F0EEF8204610BD90ED016AC4
:102D7000D0ED036A90ED057AD0ED077AB4EE666A7D
:102D8000F1EE10FA30B410D190ED026AD0ED066A7F
:102D9000B4EE666AF1EE10FA07D1B4EE677AF1EE9E
:102DA00010FA0CBF0125002500E00025D0ED046AD3
:102DB0008C6867EEC77A90ED087AE6EE877AD1E9FB
:102DC0000023C2ED007A90ED036AD0ED087AD0EDD1
:102DD000056A90ED067A67EEC67AE6EE877AC3ED6D
:102DE000007A90ED046A90ED067AD0ED036AD0ED9A
:102DF000077A27EE467AA6EEA77A84ED007AD0ED20
:102E0000017A93ED005AD0ED006AD2ED005A90EDB0
:102E1000026A67EE857AE6EEA57AE7EE067AF5EEC7
:102E2000407AF1EE10FA75D090ED067AD0ED085A9E
:102E300027EE467AA6EEA57A83ED017AD0ED075A01
:102E400090ED007A90ED066AD0ED016A27EE657A82
:102E5000A6EE267A84ED017AD0ED035A90ED017A40
:102E600090ED046AD0ED006A27EE657AA6EE267A28
:102E700084ED027A55BBD0ED085A90ED017A90EDC1
:102E8000076AD0ED026A27EE657AA6EE267A82ED11
:102E9000017AD0ED045A90ED027A90ED056AD0EDFA
:102EA000016A27EE657AA6EE267A82ED027AD0EDE7
:102EB000055A90ED007A90ED036AD0ED026A27EE94
:102EC000657AA6EE267A83ED027A05E018685060EE
:102ED0002068906062689A60F7EE006A86EEA77AD2
:102EE0000A1F083152F8043F914293ED006AD3ED76
:102EF000016AD3ED027A26EE076A66EE876A67EE0C
:102F0000877A83ED006AC3ED016AC3ED027AE9D1E5
:102F1000012000E0002030BC704730B4002513E0F1
:102F200050F8042BD30744BFA9F101039A18091FD5
:102F3000042942F8045BFAD213468C0744BF15807B
:102F40009B1CC90748BF1D7050F8041B0029E7D11E
:102F500030BC70472DE9F04F8FB0CDE902014FEA48
:102F6000820B0C46002000274FF07E5605B2AA4285
:102F700011DD214600230FFA83FC013365450FFA6A
:102F800083FC0CBF0E600F60624501F10401F2DCAE
:102F900001305C44EAE7022A40F31B8102999FED6D
:102FA0008F5ADFED8F5A594408460BF10401002374
:102FB0000491911E01930691BFEE006A8246069924
:102FC0008B4280F20681591C0BB2DFED856A1846F0
:102FD0005446904207DAD4ED007A0130E7EEA76A52
:102FE00000B25C44F5E7F0EEE67AF4EEC57AF1EE75
:102FF00010FA00F1E880F1EEE67ABDF804000093E3
:10300000871C08AD8C00BFB205EB04080FFA87FCE3
:103010004FEA8C0C0AEB0B0600259AED007AB5EE10
:10302000C07AF1EE10FAA8BFF1EE677A37EE677A50
:10303000CAED007A88ED007A07EB050E0FFA8EFED6
:1030400072450CDD0CEB850E08AB9E44D6F8009063
:10305000CEF80090C6ED005A01355E44ECE798EDDD
:10306000007A009B029F079367EE877A02FB013587
:1030700086EE277A07EB8505043C9900AAEB040449
:10308000461C059508AD0C440D44B6B21F464FF0E2
:10309000000C974233DA059BDFED517A0CEB030EFF
:1030A000002306EB03080FFA88F8424505EB830975
:1030B00008DDDEED006AD9ED004A0133E4EEA67AC0
:1030C000DE44EEE767EE877A0CEB040E002306EB96
:1030D00003080FFA88F8424505EB83090ADDDEEDA7
:1030E000006AD9ED004AE4EEE76A0133CEED006AEA
:1030F000DE44ECE701373FB20CF1040CC9E7029C57
:10310000079B013080B20C444FF0000CDFED347AA5
:10311000002600EB060E0FFA8EFEB700724505EB97
:103120000708274407DDD8ED004AD7ED006A0136CD
:10313000E4EEA67AEDE767EE877AAE4627461E46AE
:1031400096420ADAD7ED006AFEEC014AE4EEE76A3D
:10315000013636B2E7EC016AF2E70CF1010C0FFA26
:103160008CF6B2425C44D1DC039C00272144DFEDA5
:103170001C7A002400EB040C0FFA8CFCA6006245BC
:1031800005EB060E0E4407DDDEED004AD6ED006AC3
:103190000134E4EEA67AEDE767EE877AAC460E4698
:1031A0001C4694420ADAD6ED006AFCEC014AE4EED1
:1031B000E76A013424B2E6EC016AF2E701373CB277
:1031C000A2425944D3DC04998A4401990131019106
:1031D000F5E600200FB0BDE8F08F00BFBD378635A3
:1031E000000000002DE9F04F2DED028B9FEDB75A46
:1031F0009FEDB44A9FEDB43A93B04FF0020E834670
:1032000000910592F0EE454AF0EE453AF2460AEB9F
:103210004A030BEB83030AF1FF3E02934FEA8E034E
:103220000193AAF102030793029BA3F10C02019BF5
:10323000A3F11001079B4FEA8A0C0C2000FB03C38B
:103240000198CDF824C0101862440C92029A0B9099
:103250000A440A92029A62440692DDE901125B4432
:103260000E9301230A4403930BF104030892119374
:10327000069A029B504600281146A2F1100217DD63
:1032800011ED047AD1ED007A51ED016AB0EEC77A02
:10329000F0EEE77A77EE277AB0EEE67A67EE847A98
:1032A000B4EEE77AF1EE10FA02D901380C3BE2E70E
:1032B000BAEB0002049002D0012A0FD0D1E0049AA8
:1032C000059992001344D3ED007A75EE277A0A44EB
:1032D000C3ED007AD646C2ED007AB4E20EEB4E039F
:1032E000DDF824C00198019C0BEB830303F10C0271
:1032F00002EB0C011818D0ED005AD1ED007A2244EF
:1033000003EB0C0494ED006AD2ED006A019C35EEEB
:10331000E77A26EE266A75EE855AF6EE007A67EEB3
:10332000277AC0ED005AF0EE465AE7EEA75A059804
:1033300091ED007AF5EEC05A35EE077AF1EE10FA0B
:1033400000EB040581ED007A00EB0C0440F3828071
:10335000F1EEE56A0CF1080003447046F5EEC07A20
:10336000F1EE10FA4CBF77EEE67A77EEA67AC6EE6B
:10337000276A37EE277A27EEA76A85ED007A91ED66
:10338000007A37EE667A84ED007AD2ED006AB0EE0C
:10339000467AA6EEA67AB1EEC76A86EE867AC7EEC0
:1033A000866A04330130022853ED045A53ED017A42
:1033B00025EEC76A53ED012A67EE277AA6EEA26AC8
:1033C000E6EEA57A03ED016A43ED047AE9DD019B9F
:1033D00000210BEB03020BEB0C03514502F10C0235
:1033E00003F10C0313DC53ED037A52ED035A67EE3D
:1033F000277A25EEC76AE6EEA57A013142ED037A17
:1034000053ED037AA6EEA76A03ED036AE5E7009B96
:1034100003F12402DDE90003034419460346624434
:103420006344D3ED007AD1ED005A67EE277A25EE9A
:10343000C76AE6EEA57A17EE900A41F80C0BD3EDB9
:10344000007AA6EEA76A16EE100A43F80C0B9A4211
:10345000E7D1F8E177EE877AC5ED007AC4ED007A1E
:10346000F1E1039A039B0A2193FBF1F301FB132380
:10347000069A92ED007A5BBB35EE075A06995A46DA
:10348000534502F1100209DC12ED047AD1ED007A05
:1034900077EE677A013342ED047AF1E7089B93ED0A
:1034A000007A0A9BD3ED007AB0EEC77AF0EEE77AA5
:1034B00077EE277AB7EE087A27EEA71A67EE877AB3
:1034C00015E000BF00000034BD3786350000000065
:1034D0000C9BD3ED007A089B93ED001A0B9B21EE19
:1034E000671AD3ED006AA6EE871A76EE877A0E9BEE
:1034F000099A079902F108050F95049D141FC81C2D
:10350000A2F10807161D8D4202F114020D9201F17D
:10351000FF39844622464EDC13ED026AD3ED011AD0
:1035200093ED027A53ED012AD3ED050A76EE676A30
:10353000B0EE410AA6EE260A9846A3F1100376EEF5
:10354000876A80EE212AF0EEC65A32EE222AB0EEC9
:10355000C76AF0EEE62AB0EEE07A72EE872AB0EEA5
:10356000C27A72EE872A82EE227A86EEA22AC0EE14
:10357000A21AF0EEC76AB0EEC22A1CD018ED067A85
:1035800058ED032AB0EEC77A37EE257AF0EEE15A0D
:1035900037EE067A72EE255A27EE047AB0EEE26A2A
:1035A00025EE866A27EE267AB4EEC76AF1EE10FAA7
:1035B00001D949469EE701F1020909EB49039B0045
:1035C0008A0003EB02080F9DD844D14508F110088A
:1035D00004DC48ED044A09F10109F6E70BEB0010A1
:1035E000D44500F1100004DC40ED074A0CF1010C59
:1035F000F6E7183B5B441F4497ED007A0D9877EE91
:10360000676A1E44A7EE261A1D441C44D6ED002A04
:10361000D5ED006A94ED006A009DC1EE225A18446F
:10362000044604350D95009D08350F95009D2835FD
:103630001344084637EE267A94ED002A109577EE6B
:10364000677A75EE865AB0EEC27AB0EEE76A36EE69
:10365000076AB0EEE57A36EE076AB0EE637AC5EE39
:10366000866AC7EE862AC2EE065A704500F3E280EB
:1036700088421FDD704513ED012A93ED026A14BFE5
:10368000D3ED055A5FED6F5AB0EEC27AF0EEC67A0E
:1036900077EE277AB0EEE57A37EE877AB4EEC37A22
:1036A000F1EE10FA00F1C280C2EE076AC6EE072AF8
:1036B000C5EE875A22EEA26AF5EEC06AA6EEA66AA9
:1036C000F1EE10FAA5EEA56AF1EEC67A48BFF1EE6A
:1036D000677A884204DD27EE677A03ED017A08E015
:1036E000049C8C4205D013ED017AB1EE477A03EDCC
:1036F000017A76EEA76AC2EEA71A1C46054685EE49
:10370000A71A86EEA77AC2EEA62AC5EEA65AB1EE91
:10371000478AB1EE410AF1EE610AD4ED006A94EDF8
:10372000036AF0EE667A704505F10105E2EE867AED
:1037300007D094ED062AE5EE827AA0EE272A84EDE2
:10374000062AA0EEA76A022DE8EE276A84ED036A36
:10375000E4EC016AE1DD00F1030C119CD445A8BF43
:10376000D44602F1040902F1080814440BEB0205E7
:103770000027B1EE626AB1EE652AA4EB0906BC45EA
:10378000464424DBD4ED007AD5ED006A61EEA77AD9
:10379000704507F10107E7EE267A07D0D6ED006AFB
:1037A000E1EE267AE2EE276AC6ED006AD4ED006A01
:1037B000E6EE276A16EE906A44F80C6BD5ED006AC7
:1037C00076EEE77A17EE906A45F80C6BD5E7009C29
:1037D0000F9D109FA6180D9C154414441744B1EE7C
:1037E000652AD4ED006AD6ED007A61EEA66A7045CE
:1037F000E7EE276A07D0D5ED007AE1EE276AE2EE20
:10380000267AC5ED007AD4ED007AE6EE267A0C35FC
:1038100017EE90CA44F80CCBD6ED007A77EEE67A34
:10382000A74217EE90CA46F80CCBDAD1013010331C
:1038300004321AE7039B01330B2B03937FF418AD7B
:103840004FF0FF30BFE0BEF1010A7FF5E0AC9BED29
:10385000036ADBED005ADBED047ADBED056A9BEDD4
:10386000077ADFED5B4A9FED5B4A059EF0EEE55A75
:10387000B0EEC66A36EE256AF0EEE77A77EE867A23
:10388000F0EEE66A76EEA76A0BF1200EB0EEC77A8C
:10389000DEED007A37EE267AF0EEE77A77EE877A79
:1038A000B7EE006A84EEA75A0BF108000246022424
:1038B0004FF00C09F0EE465A8EED006A71467546DF
:1038C0002346B3F101082DD451ED046A96ED027A36
:1038D00055ED037A36EEC77AA1F10C0C09FB03070C
:1038E000A34207F10C0707DAFCEC014A57ED036A23
:1038F0000133E4EEA67AF3E7F0EEC76AF4EEC46AA9
:10390000F1EE677AF1EE10FAC8BFC7EE876AA1F14F
:103910001001D8BF65EE276A16EE903A45F80C3DC7
:103920004346CEE7013C651CAEF1100EA6F104063D
:10393000A0F10400C0D10099022301F124060099EE
:103940009F00DFED257A0D4614460020A446F5ECD5
:10395000016A9CED007A0130984204F10C04E6EE15
:10396000877AF3DDC8190C31B142C0ED007AE8D195
:10397000013B591CA2F10402E1D1009901F10C00B4
:10398000DFED157A0A460023144694ED007A0133E0
:10399000032B02F10C02E7EE077AF5D1F1EEE76AAC
:1039A0000A46002385EEA67A0133032BD2ED007A76
:1039B00067EE877A17EE904A42F80C4BF4D1043147
:1039C0008842DDD1002013B0BDEC028BBDE8F08F42
:1039D0000000004BBD37863500000000C0F3C75122
:1039E00081B1FF2906D0C110400721F0E04101F16B
:1039F0006051704741020CBF40F4E0016FF000419C
:103A00000020704700F0004100020AD0B0FA80FCAC
:103A100000FA0CF001F16051A1EB0C5101EBD02147
:103A200040057047B0B581EA030C0CF0004C40F241
:103A3000FF7515EA11541DBF15EA1357AC42AF428A
:103A400039E0E41923EA455343F48013C90241F0F5
:103A5000004141EA505EC7021100A7FB02020028A4
:103A60004FF00000EEFB01204FF00001E3FB0721C7
:103A700018BF42F00102401800214941E3FB0E014A
:103A8000A4F580640F0302D252004041494154F131
:103A900001046CDD470872F1004250F1000051EB67
:103AA0000451A1F580115CBF41EA0C01B0BD4CEAA4
:103AB00005510020B0BD05EA1357AC4214BFAF4218
:103AC00041E050EA410E1CBF52EA430E02E061465B
:103AD0000020B0BD24423C441BD15FEA070EF6D063
:103AE000090302BF01460020AEF1140EB1FA81F7BE
:103AF000AEEB070401FA07FE0C37C7F1200100FA0C
:103B000007F7C8404EEA000E23EA455343F48013FA
:103B1000A2E733F00043B3FA83F704BFB2FA82FEA0
:103B200077440B3FE41BB7F1200E2FBF02FA0EF3D0
:103B3000BB40C7F1200E22FA0EFE38BF43EA0E0347
:103B4000BA40641C82E750EA410E14BF52EA430EA9
:103B50006FF000014FF4001717EB430F8ABF1946AF
:103B600017EB410FB5E74CEA05510020B0BDD4F189
:103B70000104B4F120070FDAC4F12007520828BF6E
:103B800042F0010210FA07F501FA07F7E1BF2A43F4
:103B9000E0403843E1400FE0352C98DCC7F12004C9
:103BA00052EA400220FA07F218BF42F0010231FA4D
:103BB00007F0A1400A43002172F1004250F10000D9
:103BC00051EB0C01B0BDB1F5807F02D34FF0FF3057
:103BD00070470170012070470078401E8041C0434B
:103BE000C00F7047C1F30A5340F2FE329B1A14DD36
:103BF000D3F120034FEAE17208DDC90241EA5051D6
:103C000041F00040D84080185040704703F2E13046
:103C100010B1D24382F000407047002070478268A4
:103C2000521C8260426832B10268531C03601170FA
:103C30004168491E41607047C11768B14840401A49
:103C4000B0FA80F29040D21CC907C2F5846241EA02
:103C5000025202EBD02140057047000001F0004203
:103C60008B1AA3F16051B1F5801F0ADBB1F17F6FB0
:103C70001FD242EAC102C10071F1004142EB507013
:103C800070470B15C3F10903212B10D2890241EAB9
:103C9000905180020128494141F0004121FA03F08E
:103CA000C3F12003994071F1004150417047100069
:103CB00070476FF0000013EB103F5CBF000E42EA4C
:103CC000C0507047DFED650A60EE200A10EE901AD2
:103CD00021F0004101EE101ADFED611AB4EE611A15
:103CE000F1EE10FA27D510EE902A4FF07C5102F039
:103CF0000042114301EE101A70EE810AFDEEE00A57
:103D000010EE901A00296ED0FAEEC90A9FED551AEE
:103D100000EEC10ADFED541A00EEE10A9FED532ACE
:103D200000EEC20ADFED522A00EEE20A9FED511AC0
:103D300000EEC10A57E010EE101A49000916491C9E
:103D400010EE101A09D149000816401C02D10902D0
:103D500040F083809FED480A7047490004D1002855
:103D60007BD0B7EE000A704710EE902A4FF07C51DE
:103D700002F00042114301EE101A70EE810A10EEBB
:103D8000902A51000FD0090EC1F196011829A8BF41
:103D900002F0004205DA0129A4BF22FA01F303FA76
:103DA00001F200EE902A10EE901A490017D09FED14
:103DB000331A20EE811ADFED2B1A01EE610A9FED16
:103DC0002A2A01EE420ADFED292A01EE620A9FED5E
:103DD000283A01EE430ADFED271A01EE610AFDEEF3
:103DE000E00A10EE901A10EE102A22F0004200EEC7
:103DF000902A9FED231A01F00301F4EE410A0818FE
:103E0000F1EE10FA00F0010103D511B3B7EE000A8C
:103E10001FE060EE000A71B19FED1A0A9FED1A1AB9
:103E200000EE801ADFED191A41EE201AB7EE000AF3
:103E300001EEA00A0DE09FED162ADFED161A40EE06
:103E4000821ADFED152A20EE201A41EEA02A01EE9B
:103E5000220A800748BFB1EE400A704783F9223F2B
:103E60000000004F0000C94600A0FD400020A23A1B
:103E7000000034330030C22EFFFFFF7F0000803887
:103E8000000080399349B2BA36A02A3DDFFFFFBE59
:103E90006E8C4CB94283083CA1AA2ABE012011E7CE
:103EA0001AA210EE101A43F2A40CC3F6896CF2ECBD
:103EB000060A614509DB00EE803A70EE800A83EE67
:103EC000200A40F0020010EE101A4900D1F1E6413C
:103ED0000BD860EE000A20EE203A03EE010A01EE54
:103EE000A02A42EE202A80EE220A400810F0020F9B
:103EF00018BFB1EE400A02EB8002D2ED000A30EEAC
:103F0000200A28BFB1EE400A70470000D7B3DD3F5A
:103F10006AD5033F2B94A93DB82A593F0000803F42
:103F2000000080BF00000000920A063FDB0FC93F7F
:103F3000920A863FDB0FC93F920A0640DB0F4940D9
:103F4000368D274062F30F2262F31F42401810F0B3
:103F5000030308D0C91A1FD3DB0748BF00F8012D9F
:103F600028BF20F8022D130030B41446154610392E
:103F700028BF20E93C00FAD8490728BF20E90C00F7
:103F800048BF40F8042D890028BF20F8022D48BF03
:103F900000F8012D30BC7047C91818BF00F8012D7A
:103FA000CB0728BF00F8012D704700002DE9F04F26
:103FB0000FF2A41CA1B0DCE90089CDE900892A9D9B
:103FC000DFF8DC9B049100248DF843500D944FF0F2
:103FD000FF38824616461F460FE0B3462C461BF8B4
:103FE000011B0498D0470028049000F0A2800D988F
:103FF000401C641E0D90F2D176193078252808D126
:10400000002100220791089209910A920B910C92CB
:104010000DE06A464146304600F09EFF050001D1A2
:104020000D98A1E0D9D50125E6E741F0010116F888
:10403000010F2028F9D023280CD02B2804D02D28BC
:1040400005D0302809D076E041F00201EFE741F0D9
:104050000401ECE741F00801E9E741F01001E6E76F
:104060000F9209E00F98484505DA00EB800402EB57
:104070004402303A0F92761C3278A2F130000A28BE
:10408000F0D330782E2818BFCDF8388022D116F81A
:10409000010F2A2807D138683860761C50F8042BA5
:1040A00038600E9216E02D280CBF761C00200022EE
:1040B0000E920AE040B90E9A4A4505DA02EB8204F4
:1040C00003EB4403303B0E93761C3378A3F13002AC
:1040D0000A2AEFD3ADF8401021A0317800F046FF56
:1040E00008B116F8010B8DF842009DF842006828CF
:1040F00004D1307868280AD1622105E06C2804BF19
:1041000030786C2803D171218DF84210761C12A8EA
:1041100006903A4616F8013B02A9504600F064F8B2
:1041200038B912AA02A9504600F0C8F900287FF554
:1041300064AF404618E02A2892D13A683A6052F8B3
:10414000040B3A6000280F9003D540420F9041F0D5
:104150000401761C95E7000000000000000000004C
:10416000686A6C747A4C000021B0BDE8F08F622858
:1041700020D0682811D06A2803D06C2827D0712855
:1041800025D10868C01D20F007000860D0E9002391
:1041900008300860194610467047002A0A680A600D
:1041A000106803D0121D0A6000B217E0121D0A60E9
:1041B00080B217E0002A0A680A60106803D0121D56
:1041C0000A6040B20AE0121D0A60C0B20AE0002A8A
:1041D0000A680A60106803D0121D0A60C117704790
:1041E000121D0A60002170477CB50D4611461C4621
:1041F0002E69B4F1250200F04F811C3A00F0848052
:10420000121F022A40F280800E3A00F00981521FEC
:1042100059D0093A78D0921E16D0521E35D0521E6F
:10422000022A71D9121F30D0521F00F09880521EFE
:1042300049D0521E00F0E280D21E00F0FF80921E94
:1042400041D0D21E3FD02DE195F83A406C2C09D0D8
:104250006869421C6A610A680A6052F8043B0A6095
:10426000335429E10A680A6052F8043B0A6000935B
:10427000002201924FF0FF332B636A46294600F07B
:1042800098F9002840F1188103E195F83A000122DD
:10429000FFF76DFFC5E90001002904D56869411CDD
:1042A00069612D220DE0288F810704D56869411CC2
:1042B00069612B2205E0C00721D56869411C69614D
:1042C000202232541BE095F83A000022FFF74FFFFE
:1042D000C5E9000195F83800010710D5D5E900239C
:1042E000002B08BF002A0AD044F02000782806D10D
:1042F000686930213154401C421C6A6134542146A3
:1043000068693044E86087E00868C01D20F0070055
:104310000860D0E9002308300860C5E90023D5E92A
:104320000001C80F04D06869411C69612D220DE0AD
:10433000288F810704D56869411C69612B2205E03B
:10434000C00704D56869411C69612022325468693C
:104350003044E8602146284600F036FAACE005F12A
:104360003A02507820B14FF0FF340FF6043074E079
:104370001078622808D0682824D06A2812D06C28C7
:104380002ED071280ED02BE00A680A6052F8040B78
:104390000A6020B94FF0FF340FF6EC205DE0E96AC7
:1043A000017089E00A680A6052F8040B0A6020B9BB
:1043B0004FF0FF340FF6D0204FE0EA6AD317C0E980
:1043C000002379E00A680A6052F8040B0A6020B9F9
:1043D0004FF0FF340FF6B0203FE0E96A01806BE058
:1043E0000A680A6052F8040B0A6020B94FF0FF34E3
:1043F0000FF6942031E0E96A01605DE00A680A6026
:1044000052F8040B0A60002120F0000221F0FF3373
:10441000C5E90023EE607821284600F02DF94BE035
:104420006C2285F83A200B680B6053F8042B0B6064
:1044300052BB4FF0FF340FF684200EE095F83A207F
:104440006C2AF0D00868086050F8044B0860EC60F3
:104450003CB94FF0FF340FF6482000F093FD201ACE
:1044600076BD2E6B002E04D5204600F0ABFD044631
:1044700008E032460021204600F0C0FD002814BFAD
:10448000041B3446AC6117E0294600F092F800287E
:1044900012D54FF0FF3076BD6869411C6961252255
:1044A000325409E06969481C686125227254210070
:1044B00002D0431C6B613454002076BD2DE9F041DD
:1044C0000E4605469046726B7069316AB46A121ADC
:1044D000B069521A716A121AF069521A121A96F8D1
:1044E0003800141B41070DD4002C0BDD2746B068A3
:1044F0002021A8470028B06057D0F06A401C7F1EDA
:10450000F062F4D1736942463146284600F098FCC7
:1045100000284AD1376A002F0ADDB0683021A84749
:104520000028B06041D0F06A401C7F1EF062F4D1D8
:10453000B369F2683146284600F082FCA8BB776A6E
:10454000002F09DDB0683021A847B06068B3F06A79
:10455000401C7F1EF062F5D1F068B169F369421822
:104560003146284600F06CFCF8B9B76A002F09DD27
:10457000B0683021A847B060B8B1F06A401C7F1E17
:10458000F062F5D196F8380041070BD5002C09DD13
:10459000B0682021A847B06038B1F06A401C641EA2
:1045A000F062F5D10020BDE8F0814FF0FF30BDE8AA
:1045B000F0812DE9F8470D46A3B02F6B002F06467A
:1045C000904648BF6FF000470FF60C1400F042FD14
:1045D000D4E90023696B4018CDE90123812828BF65
:1045E0004FF0FF3042D20024002F33DDD8F8001006
:1045F00001AA684600F0B2FC8146B9F1000F38D438
:10460000D8F8000010B9B9F1010932D44F4521DBC7
:104610006869484481280AD30021696303AA2946AE
:104620003046FFF74BFF040014D40020686103AB51
:10463000D5F814A04A46694603EB0A0000F010FDC5
:10464000CA44C5F814A058F8040B002818BFA7EBFB
:104650000907C9D14CB903AA29463046FFF72EFFF6
:10466000044614B9002068616863204624B0BDE8A0
:10467000F0874FF0FF34F8E72DE9FC4307466F2938
:104680003E6908BF082405D041F02000782814BFF7
:104690000A2410243C25D7E90023642918BF69297E
:1046A0009046994605D1002B03D5D8F1000869EB57
:1046B0004909B9F1000F08BFB8F1000F1FD1386BDD
:1046C000E8B9082C4CD197F83800010748D53020BC
:1046D0003B2586F83B0043E000280ED597F83800CC
:1046E00000F01400102808D17B6B7969386A5B1AD6
:1046F0001B1A9A1A002AC8BF3A62BDE8F3838DF8E4
:104700000010404649462246E31700F0FDFC3032D7
:10471000D0B26D1E3A28019504DB9DF80000A0F18F
:1047200051018A187255404649462246E31700F067
:10473000EBFC80465FEA010908BFB8F1000F03D027
:10474000F86871198842DCD3082C09D197F8380031
:10475000010705D5705D302802D06D1E30207055E0
:10476000C5F13C02BA617119F960386B8242B3DA63
:10477000821A3A624FF6EF70398F01403987BDE8EF
:10478000F3832DE9D04306460F4614464FF0000848
:10479000DFF8109412E0E00707D542464B4630465A
:1047A0003946FFF73FF906460F464046494642461E
:1047B0004B46FFF737F9641080468946002CEAD152
:1047C00030463946BDE8D0832DE9F84F05468A4684
:1047D0004AF020048EB0D5E90089612C02AE09D0E0
:1047E000286B002848BF062003D408BF672C01D1DE
:1047F00001202863D5E900014A005215521C0DD151
:104800000B030BD0AAF1610103201A29A86102D27F
:104810000FF2CC6110E00FF2CC610DE04A005215AE
:10482000521C0ED10B030CD1AAF1610103201A29ED
:10483000A86116D30FF2B461E868032200F010FCFF
:10484000C0E1CDE90C01DDE90C2323F00043B3F511
:10485000801F0DD20027002B08BF002A019703D12B
:1048600011E00FF28461E7E701AA00F0D1FC0AE051
:10487000CD48CE4900EB1350DDE90C2301900B40ED
:10488000CB4910461943C5E90001612C0DD1E868F8
:1048900030210170821CBAF1610FEA600CBF7821EF
:1048A000582141706869801C6861D5E90001CDE933
:1048B0000C01DDE90C2333F0004104BF0028002384
:1048C00000F04881612C40F0A080286B4946002808
:1048D0004CBF4FF0210B00F1010B4046002200239A
:1048E000DDE90C8900F0CCFC01990BF1010738BF20
:1048F00089F00049091F002F01918DF808200DF162
:10490000090040F33581A9490091064640464946D1
:104910000022002300F0CCFC80F029814800400DEB
:1049200000F11C0211D0002A0FDD40F2FF739A4201
:1049300005DBA04909F000400143002011E0009B85
:10494000194041EA025140460BE028F0000039F0DE
:10495000004108BF00280FBF49461C22494600F00D
:10496000BFFC80468946FFF73DF9FF1F002F044634
:1049700009DDFFF761F902460B464046494600F063
:104980004DFD80468946F01D072104E004F00F022A
:1049900000F8012D2411002C01DD491EF6D5491E19
:1049A0005CBF002200F8012DF9D5DCE0002019469B
:1049B00002AA0A4400E05B1E12F80149491E844223
:1049C000F9D00F2804D10DF10900425C521C425469
:1049D000002904D50198001D02AE5B1C0190581EF1
:1049E0000CD43118AAF13A040A783032D7B23A2FEF
:1049F000A8BFA218401E01F80129F5D5286B002890
:104A000040F1A780591E2963A3E001996A4A47F241
:104A10009750414391FBF2F2019229F00046D2F106
:104A2000070204DD40463146FFF7ABFE0AE0524282
:104A300000206249FFF7A5FE02460B46404631467C
:104A400000F05EFD8046662C286B06BF019F0A378A
:104A500006273F18142FC8BF142730208DF80800F0
:104A600089460DF1090000E03046002F34DD06468E
:104A70004046494600F068FE01460A4606F1080332
:104A800004200A26B2FBF6F606EB860EA2EB4E02D7
:104A9000303203F8012C0A22B6FBF2F202EB820E4E
:104AA000A6EB4E063036401E03F8026DE9D1083FF2
:104AB000002F03F10806D7DD084600F059FE024634
:104AC0000B464046494600F0A9FC00223C4BFEF74D
:104AD000A9FF80468946CBE70DF10901401A0DF187
:104AE000090604E00199491E401E0191761C3178A7
:104AF0003029F7D0662C02D10199491C03E0652CBE
:104B00000CBF012100212B6BCB189842B8BF431E6C
:104B1000002B1ED4834204DAF05C3528A8BF39206C
:104B200000DA30201946721E02EB010800E05B1E1D
:104B300018F80199491E8145F9D0392802D1705CD5
:104B4000401C7054002904D50198401C16465B1C7B
:104B50000190019800B200901BB23246514628469F
:104B600000F034F82EE0C61D002F3FF7CFAE3046E0
:104B70000DF10901401A03465845C8BF5B46002B9A
:104B80000DF109063FF53AAF8342BFF60FAF0DF1C5
:104B90000900C15C07297FF709AF0F2007E7000074
:104BA000CBCCCC0C0000244002FCFFFFFFFF0F80A9
:104BB0000000E03F0000F07FA08601000000F03F11
:104BC00084D797410FB0BDE8F08F00002DE9F8477A
:104BD00083B006468A461746984600F0C1F9B8F1F8
:104BE000000F406A356B90F8009002DC4FF001082E
:104BF000BFA74AF02000BDF93040662808BF641CFA
:104C000015D0672840F0848014F1040FC0F286802C
:104C1000AC4280F2838096F83800641C010702D40D
:104C2000A845B8BF454620B22D1A48BF00250FFA47
:104C300084FAF068B169BAF1000F25DC4A1C302310
:104C40004354002D03DC96F83800010703D5F068C3
:104C500000F80290521C15EB0A0FB8BF6C4220B24C
:104C6000441941424445B8BFA046B26171620FFA8F
:104C700088F5F561F068B3692A463946184400F0B2
:104C8000EFF9641BB462C4E022B29045084417DA1D
:104C90004246394600F0E4F9B0694044B061AAEBFD
:104CA0000801002D716203DC96F838100A0705D55B
:104CB000F16801F80090F069401CF061B562A8E06D
:104CC000394600F0CDF9B069002D5044A8EB040836
:104CD00003DC96F838100A0703D5F16801F8009054
:104CE000401CB0610FFA88F08542F368B069B8BF24
:104CF000A8460FFA88F207EB0A01184400F0B0F951
:104D0000B1690FFA88F00144B161281A706280E03D
:104D1000BAF1610F14D14FF0700A16E0A84504DA19
:104D200096F838100A0758BF45466D1E48BF002543
:104D3000BAF1670F14BF4FF0450A4FF0650A04E05F
:104D4000BAF1410F08BF4FF0500AB169F368481C2F
:104D5000B061002D17F8012B5A5403DC96F8381077
:104D60000A071BD5F168431CB36101F80090002DC0
:104D700014DDA8F101080FFA88F039468542F7687A
:104D8000B8BFA8460FFA88F2F81800F069F9B069C0
:104D90000FFA88F108446D1AB0617562F068B16964
:104DA0000844002C80F800A003D42B224270811C00
:104DB00003E02D2141706442811C00206A460AE014
:104DC00023460A2493FBF4F404EB8405A3EB450388
:104DD00002F8013B401C24B2002CF1DC012806DC67
:104DE0004AF02002652A04BF302201F8012B48B99D
:104DF000302001F8010B07E0401E1DF80030303371
:104E000001F8013B0028F7DCF268B0691044091A88
:104E1000F16196F8380000F0140010280DD1726985
:104E2000B169706A8A18F1698218B06A8A188218A2
:104E3000706B8242BCBF821A326204B0BDE8F08758
:104E4000F8B505460E4617461C46002074B117F803
:104E5000011BB068A847B06030B1F06A401CF06236
:104E60000020641EF3D1F2BD4FF0FF30F2BD000010
:104E70007072696E74665F733A20256E2064697380
:104E8000616C6C6F776564007072696E74663A204D
:104E900062616420256E20617267756D656E7400B5
:104EA0007072696E74665F733A2062616420257364
:104EB00020617267756D656E740000007072696EB6
:104EC00074665F733A2062616420256C732061729E
:104ED00067756D656E740000000000000000000042
:104EE0006E616E004E414E00696E6600494E46008E
:104EF000300000001B48704770B45368D418042B6E
:104F000009DA41B1057804F8015B10F8016B16B1BC
:104F10005B1C491EF3E7536070BC704738B51446FC
:104F20001D4661B1FFF7E8FF61686A6B2046904754
:104F30006FF00102811A02D0491E01D001E003E0A6
:104F400005E00021616032BD6FF0010032BD4FF01D
:104F5000FF3032BDDA6B1047024BDFE7014BF9E758
:104F600001487047BC03002084030020C9B20278C6
:104F70008A421AB11CBF10F8012FF9E718BF0020B0
:104F80007047000080B500B906A005490B681BB149
:104F900022220021984701E000F0F7FB222002BD09
:104FA00008150020636F6E73747261696E742068F7
:104FB000616E646C65723A20626164206D65737322
:104FC0006167650000F10103810704D010F8011B3F
:104FD000820781B1FAD10268A2F10131914311F047
:104FE000803104BF50F8042FF6E709BAB1FA81F115
:104FF00000EBD100401CC01A70470000C9B2830703
:1050000006D0521E22D310F8013B9942F7D11FE07F
:10501000083A13D302F1040241EA012141EA0141B5
:1050200050F8043B121F21BF4B40A3F1013C2CEA76
:10503000030C1CF0803FF3D0C9B2001F083210F8F7
:10504000013B521E28BF91EA030FF8D818BF012078
:10505000401E704780B5FFF74DFF006C02BD000099
:1050600062B38B0708D0521E11F8013B00F8013BD8
:1050700000F024808B07F6D1830740F0208000BF2A
:10508000103A07D330B4B1E83810103AA0E838101D
:10509000F9D230BC530724BFB1E80810A0E80810CB
:1050A00044BF51F8043B40F8043BD20724BF31F819
:1050B000022B20F8022B44BF0B7803707047121F9D
:1050C00017D35B0009D151F8043B20F8023B1B0CBD
:1050D000121F20F8023BF6D20BE051F8043B00F817
:1050E000013B1B0A20F8023B1B0C121F00F8013B7E
:1050F000F3D238BF121D521E24BF11F8013B00F835
:10510000013BF8D870470000D3BBD9B1B2F5803F5E
:105110005BD2022A1ED98C46B1FBF2F102FB11C30D
:105120001B0443EA1043B3FBF2FC02FB1C3380B2C6
:1051300040EA0343B3FBF2F002FB103240EA0C40BA
:1051400000237047022A05D98446B0FBF2F002FB27
:1051500010C270474AB105D100F0010249085FEA68
:105160003000704700220023704700F011BB0B0095
:105170000200002100207047F7D30022002370476F
:10518000904271EB030CF2D370B5B1FA81F4B3FA2B
:1051900083F52C1BA340C4F1200532FA05F63343F6
:1051A000A2405FF00046E64002E05B085FEA3202A0
:1051B000841A71EB030524BF204629467641F4D3B7
:1051C00002000B003000002170BD70B5B1FA81F40F
:1051D000B2FA82F5C4F120046419B4F12006DAD3DE
:1051E000B2405FF00044F440002502E052085FEA5C
:1051F0003303C61A71EB020E24BF30467146644178
:105200006D41F3D302000B002000290070BD0000A7
:1052100010B5144600F002F8226010BDC1F30A5325
:1052200043B14A0012F5001F28D2A3F2FE32A1EBCF
:105230000251704750EA410C20D001F0004C31EA95
:105240000C01B1FA81F204BFB0FA80F3D2180B3A24
:10525000B2F120032CBF00FA03F1914041EA0C01A6
:105260003EBFC2F1200C20FA0CF319439040524289
:1052700040F2FD33D21A01EB035170470022704710
:105280004FF4001C1CEB410F94BF1CEB430F09E0D3
:1052900041EA030C50EA4C0C52EA0C0C03D299423E
:1052A00008BF9042704714BF8B4282427047000093
:1052B0004FF4001C1CEB410F94BF1CEB430F09E0A3
:1052C00041EA030C50EA4C0C52EA0C0C03D28B421C
:1052D00008BF8242704714BF994290427047000055
:1052E000124254D440F2FF7C1CEA11530FD06345A4
:1052F00031D09B1863453CBF01EB0251704701F070
:10530000004141EA0C510020AFF30080704750EAA1
:10531000410320D001F0004C91EA0C011CD0B1FAFD
:1053200081F30B3B9A420DD9D21A994051EA0C01F4
:10533000C3F1200C20FA0CFC61449840531C40F24D
:10534000FF7CD7E7914041EA0C01C2F1200C20FA22
:105350000CF3194390407047B0FA80F31533202BBB
:10536000E0D3202AEED3203A203B9A4209D9D21A20
:1053700000FA03F141EA0C010020531C40F2FF7CCB
:10538000B8E700FA02F141EA0C01002070475242EE
:1053900040F2FF7C1CEA11530DD06345DBD0B2EB29
:1053A000030C3CBFA1EB025170470CF1010221EA52
:1053B000035141F4801150EA410CCCD001F0004C73
:1053C000352A27DC30B481EA0C01B2F1200309DA76
:1053D000C2F12003044601FA03F5D0402843D1402E
:1053E0009C400CE0C3F12002450020FA03F418BFF2
:1053F00044F0010421FA03F091400C43002174F1C0
:10540000004550F1000051EB0C01244230BC7FF408
:105410007BAF70476146002076E7000070B44FF024
:10542000004591EA030F40F1B5816B40841A71EB9E
:10543000030603D2001BB141121973414FF4001C43
:105440001CEB410F34BF7CEB430442E00C0DA4EB9A
:105450001356352E4FDC45EAC323DB0A45EAC1214A
:10546000C912B6F120050DDD63FA05F6EB4086EAB8
:105470000305124218BF45F00105C01851F10001A3
:105480000CD213E062FA06F5F2405540F3415A405F
:10549000B340F3405A408018594107D349085FEAA6
:1054A00030005FEA350528BF45F0010501F58011A0
:1054B000420875F1004250F1000041EB04514E00EA
:1054C00016F5001F70BC38BF70470020090D090594
:1054D00070471CEB410F10D252EA43060BD0BCEBD5
:1054E000410F05D80C0DAB43661E342EB6DD02E02D
:1054F000AB438018594170BC704770BC70470000C6
:10550000F0B540F2FF7581EA030C0CF0004C15EA8F
:1055100011541DBF15EA1357AC42AF42E5E0BC4140
:10552000C1F31301C3F31303801A994143F48013A9
:1055300004D2641E4000494180185941C90241EA21
:105540005051B1FBF3F603FB1611A2FB0675D7EB26
:10555000C020A94102D2761E80185941C90241EAF1
:105560005051B1FBF3FE03FB1E11A2FB0E75D7EBEE
:10557000C020A94103D2AEF1010E80185941890221
:1055800041EA9051760546EA8E2EB1FBF3F603FB15
:105590001611A2FB0675D7EB8020A94102D2761E18
:1055A00080185941C90241EA50514EEA060EB1FB3A
:1055B000F3F603FB1611A2FB0675D7EBC020A94139
:1055C00002D2761E80185941C90241EA5051B1FBFE
:1055D000F3F703FB1711A2FB0735D3EBC020A9415A
:1055E00067F100070CBF004247F0010766F3D527BB
:1055F0004FEA1E31B80814F5806412DDBD0775F15D
:10560000004250EB0E5051EB045111F5801F5CBF6E
:1056100041EA0C01F0BD4CF07F6141F0E041002017
:10562000F0BDBD076D0840EA0E5041F48011D4F181
:105630000104B4F120060ADAC4F120060200E040B9
:1056400001FA06F3E1401843B24015430EE0342C52
:1056500013DCC6F1200445EA40056D0820FA06F285
:10566000154321FA06F0A1400D43002175F10042D7
:1056700050F1000051EB0C01F0BD00205FEA0C017D
:10568000F0BDCFB992185B41B3FA83F704BFB2FA09
:1056900082F6BF190B3FB7F120062FBF02FA06F3BF
:1056A000BB40C7F1200622FA06F638BF3343BA40A2
:1056B0001CB1E419641E33E77F4231F00041B1FAB6
:1056C00081F404BFB0FA80F6A4190B3CB4F12006B3
:1056D0002FBF00FA06F1A140C4F1200620FA06F619
:1056E00038BF3143A0403C1B1AE7AC421ABF05EA61
:1056F0001357AF4212E050EA41061CBF52EA43067C
:10570000BFE750EA4107304661461CBF41EA0551F8
:10571000F0BD52EA430C08BFC143F0BD00204FF476
:10572000001616EB410F98BF16EB430F08BF16EBA0
:10573000410F24BFC14305E016EB430F0CBF614688
:105740004CEA0551F0BD0000400D491840EA8120A7
:105750000CD2490DA1F58061491C40F0004005DBE9
:10576000D1F11F0154BFC840C017704700207047D7
:10577000014648B1B0FA80F18840C91CC1F5846186
:10578000090501EBD02140057047012000F0B8B8B1
:1057900070470000841A71EB030604D26E40001BB0
:1057A000B141121973414FF4001C1CEB410F34BF7F
:1057B0007CEB430683E00C0DA4EB1356362E00F36E
:1057C0007C80012E45EAC32341DC43EA525312BFD9
:1057D000D20292025B08240545EAC12141EA5051F8
:1057E000D2EBC020994125D407D1B0FA80F610FA47
:1057F00006F162D00020203608E0B1FA81F6B1400F
:10580000C6F1200220FA02F21143B0404FEAF474CC
:10581000B4EB465434F001064FEA74040AD8D6F5C6
:105820000016760D04F00044F04061FA06F2504094
:10583000F1404840C00A40EA415021F0004128BFF1
:105840005FEA500550F1000044EBD12135E0DB0A5E
:1058500045EAC121C90AB6F120050EDD42EA02423D
:10586000120CC5F1200603FA06F6EB4042EA0605E3
:105870006D42984161F100010DE062FA06F5F240D7
:10588000554063FA06FC82EA0C02F3405A406D422E
:10589000904161EB030111F4801F05D1641E620584
:1058A00002D06D004041494121F48011430875F157
:1058B000004350F1000041EB045170BC70471CEBF9
:1058C000410F15D223F0004352EA43060BD04FEAB2
:1058D0004C0CBCEB410F04D80C0D661E342EB7DD0A
:1058E000EBE7801A994150EA410608BF0021E4E73E
:1058F00008BF1CEB430F28BF6FF00001DDE700007D
:1059000080B5AFF30080024A11001820ABBEFBE760
:1059100026000200F8B5040025D004F13C056978A2
:1059200021B900202870204600F038FC242169703D
:10593000206802685208520002602068016841F441
:10594000004101602068026822F40042026000F019
:10595000ADFC01466068DFF87023904205D2DFF8A5
:10596000AC33994205D20120F2BDDFF8A403814295
:10597000F9D32068DFF89C334668B1FBF3F3B6092E
:1059800043EA861646602668376A6068904206D306
:105990004FF4967043434FF47A70B3FBF0F35B1C03
:1059A000BF0943EA87133362491E2368DE696768CB
:1059B000974206D27F0000F043F8042913D2042155
:1059C00011E0A06820B907EB470700F039F805E0BF
:1059D0001920474300F034F841F4804108050CBF1A
:1059E000012141F40041DFF8300306400E43DE613F
:1059F00022681368E169206A23F0C0030B43034364
:105A000013602268DFF81403936821690340E0689B
:105A10000B43034393602168CA68A3696069120A53
:105A2000034343EA0222CA602068016841F0010191
:105A3000016000206860202169702063A870F2BDB9
:105A4000B1FBF7F1491CC1F30B01704738B50400F5
:105A500001D1012032BD04F13C052420687000F022
:105A6000E4F900F073FC0020686068702063A8709F
:105A7000287032BD308D7262411E3185708D411E9D
:105A8000718570474146204600F000BB2DE9FC4778
:105A900000F082F800F07AF855D100F06FF8002895
:105AA00051D1387801284ED000F062F801D400F0CE
:105AB00099F94146D6F800E00C9D0B98DDF828C016
:105AC000DEF8008028F40068CEF800804FF0210E48
:105AD00087F801E04FF0400887F802804FF0000E91
