:020000040800F2
:10000000D0080020397200084171000843710008CF
:1000100045710008477100084971000800000000A0
:100020000000000000000000000000004B7100080C
:100030004D710008000000004F7100085171000868
:1000400063720008677200086B7200086F72000824
:100050007372000877720008557100087B720008FF
:100060007F72000883720008877200088B72000894
:100070008F72000893720008977200089B72000844
:100080009F720008A3720008A7720008AB720008F4
:10009000AF720008B3720008B7720008BB720008A4
:1000A000BF720008C3720008C7720008CB72000854
:1000B000CF720008D3720008D7720008DB72000804
:1000C000DF720008E3720008E7720008EB720008B4
:1000D000EF720008F3720008F7720008FB72000864
:1000E0005B710008FF7200080373000807730008C3
:1000F0000B7300080F7300081373000817730008D0
:100100001B7300081F73000823730008277300087F
:100110002B7300082F73000833730008377300082F
:100120003B7300083F7300084373000847730008DF
:100130004B7300084F73000853730008577300088F
:100140005B7300085F73000863730008677300083F
:100150006B7300086F7300087373000877730008EF
:100160007B7300087F73000883730008877300089F
:100170008B7300088F730008937300080000000061
:10018000977300089B7300082DE9F04F0FF2A41C31
:10019000A1B0DCE90089CDE900892A9DDFF8DC9B6C
:1001A000049100248DF843500D944FF0FF3882469F
:1001B00016461F460FE0B3462C461BF8011B049859
:1001C000D0470028049000F0A2800D98401C641EC7
:1001D0000D90F2D176193078252808D1002100221F
:1001E0000791089209910A920B910C920DE06A46D0
:1001F0004146304600F0DAFF050001D10D98A1E03C
:10020000D9D50125E6E741F0010116F8010F2028B4
:10021000F9D023280CD02B2804D02D2805D0302845
:1002200009D076E041F00201EFE741F00401ECE78C
:1002300041F00801E9E741F01001E6E70F9209E01B
:100240000F98484505DA00EB800402EB4402303A8F
:100250000F92761C3278A2F130000A28F0D3307861
:100260002E2818BFCDF8388022D116F8010F2A2881
:1002700007D138683860761C50F8042B38600E922D
:1002800016E02D280CBF761C002000220E920AE0FA
:1002900040B90E9A4A4505DA02EB820403EB4403A7
:1002A000303B0E93761C3378A3F130020A2AEFD349
:1002B000ADF8401021A0317800F082FF08B116F8A7
:1002C000010B8DF842009DF84200682804D1307877
:1002D00068280AD1622105E06C2804BF30786C28B8
:1002E00003D171218DF84210761C12A806903A466F
:1002F00016F8013B02A9504600F064F838B912AA7A
:1003000002A9504600F0C8F900287FF564AF4046C6
:1003100018E02A2892D13A683A6052F8040B3A6001
:1003200000280F9003D540420F9041F00401761C45
:1003300095E700000000000000000000686A6C748F
:100340007A4C000021B0BDE8F08F622820D06828E8
:1003500011D06A2803D06C2827D0712825D10868CD
:10036000C01D20F007000860D0E9002308300860B5
:10037000194610467047002A0A680A60106803D0C0
:10038000121D0A6000B217E0121D0A6080B217E069
:10039000002A0A680A60106803D0121D0A6040B281
:1003A0000AE0121D0A60C0B20AE0002A0A680A6068
:1003B000106803D0121D0A60C1177047121D0A6031
:1003C000002170477CB50D4611461C462E69B4F1DC
:1003D000250200F04F811C3A00F08480121F022A8F
:1003E00040F280800E3A00F00981521F59D0093A3C
:1003F00078D0921E16D0521E35D0521E022A71D9C4
:10040000121F30D0521F00F09880521E49D0521E49
:1004100000F0E280D21E00F0FF80921E41D0D21E7A
:100420003FD02DE195F83A406C2C09D06869421C08
:100430006A610A680A6052F8043B0A60335429E191
:100440000A680A6052F8043B0A6000930022019295
:100450004FF0FF332B636A46294600F098F90028D5
:1004600040F1188103E195F83A000122FFF76DFF92
:10047000C5E90001002904D56869411C69612D2284
:100480000DE0288F810704D56869411C69612B2222
:1004900005E0C00721D56869411C696120223254FA
:1004A0001BE095F83A000022FFF74FFFC5E9000175
:1004B00095F83800010710D5D5E90023002B08BFB7
:1004C000002A0AD044F02000782806D1686930213B
:1004D0003154401C421C6A613454214668693044DE
:1004E000E86087E00868C01D20F007000860D0E9D8
:1004F000002308300860C5E90023D5E90001C80FD2
:1005000004D06869411C69612D220DE0288F8107A4
:1005100004D56869411C69612B2205E0C00704D538
:100520006869411C69612022325468693044E8607E
:100530002146284600F036FAACE005F13A02507840
:1005400020B14FF0FF340FF6043074E010786228C9
:1005500008D0682824D06A2812D06C282ED07128A0
:100560000ED02BE00A680A6052F8040B0A6020B92A
:100570004FF0FF340FF6EC205DE0E96A017089E08E
:100580000A680A6052F8040B0A6020B94FF0FF3481
:100590000FF6D0204FE0EA6AD317C0E9002379E0D4
:1005A0000A680A6052F8040B0A6020B94FF0FF3461
:1005B0000FF6B0203FE0E96A01806BE00A680A604C
:1005C00052F8040B0A6020B94FF0FF340FF6942064
:1005D00031E0E96A01605DE00A680A6052F8040BE4
:1005E0000A60002120F0000221F0FF33C5E900235A
:1005F000EE607821284600F02DF94BE06C2285F85A
:100600003A200B680B6053F8042B0B6052BB4FF081
:10061000FF340FF684200EE095F83A206C2AF0D0D3
:100620000868086050F8044B0860EC603CB94FF073
:10063000FF340FF6482000F0EBFD201A76BD2E6B3C
:10064000002E04D5204600F003FE044608E03246A2
:100650000021204600F026FE002814BF041B34466B
:10066000AC6117E0294600F092F8002812D54FF04F
:10067000FF3076BD6869411C69612522325409E06A
:100680006969481C686125227254210002D0431C0C
:100690006B613454002076BD2DE9F0410E460546CD
:1006A0009046726B7069316AB46A121AB069521A54
:1006B000716A121AF069521A121A96F83800141B4D
:1006C00041070DD4002C0BDD2746B0682021A84738
:1006D0000028B06057D0F06A401C7F1EF062F4D151
:1006E000736942463146284600F098FC00284AD1FA
:1006F000376A002F0ADDB0683021A8470028B060B3
:1007000041D0F06A401C7F1EF062F4D1B369F268F8
:100710003146284600F082FCA8BB776A002F09DD2D
:10072000B0683021A847B06068B3F06A401C7F1EF3
:10073000F062F5D1F068B169F36942183146284694
:1007400000F06CFCF8B9B76A002F09DDB068302101
:10075000A847B060B8B1F06A401C7F1EF062F5D1C6
:1007600096F8380041070BD5002C09DDB068202130
:10077000A847B06038B1F06A401C641EF062F5D141
:100780000020BDE8F0814FF0FF30BDE8F0812DE999
:10079000F8470D46A3B02F6B002F0646904648BF82
:1007A0006FF000470FF60C1400F0A8FDD4E9002309
:1007B000696B4018CDE90123812828BF4FF0FF3035
:1007C00042D20024002F33DDD8F8001001AA684679
:1007D00000F0EEFC8146B9F1000F38D4D8F80000E3
:1007E00010B9B9F1010932D44F4521DB6869484499
:1007F00081280AD30021696303AA29463046FFF7FE
:100800004BFF040014D40020686103ABD5F814A09A
:100810004A46694603EB0A0000F082FDCA44C5F867
:1008200014A058F8040B002818BFA7EB0907C9D17A
:100830004CB903AA29463046FFF72EFF044614B9E7
:10084000002068616863204624B0BDE8F0874FF05F
:10085000FF34F8E72DE9FC4307466F293E6908BFDE
:10086000082405D041F02000782814BF0A24102461
:100870003C25D7E90023642918BF69299046994689
:1008800005D1002B03D5D8F1000869EB4909B9F16E
:10089000000F08BFB8F1000F1FD1386BE8B9082C62
:1008A0004CD197F83800010748D530203B2586F811
:1008B0003B0043E000280ED597F8380000F0140004
:1008C000102808D17B6B7969386A5B1A1B1A9A1A4F
:1008D000002AC8BF3A62BDE8F3838DF80010404695
:1008E00049462246E31700F027FD3032D0B26D1E94
:1008F0003A28019504DB9DF80000A0F151018A1807
:100900007255404649462246E31700F015FD8046E1
:100910005FEA010908BFB8F1000F03D0F868711948
:100920008842DCD3082C09D197F83800010705D597
:10093000705D302802D06D1E30207055C5F13C022C
:10094000BA617119F960386B8242B3DA821A3A627D
:100950004FF6EF70398F01403987BDE8F3832DE9F9
:10096000D04306460F4614464FF00008DFF81094B7
:1009700012E0E00707D542464B463046394600F0C4
:100980005FFD06460F464046494642464B4600F04C
:1009900057FD641080468946002CEAD1304639461E
:1009A000BDE8D0832DE9F84F05468A464AF0200479
:1009B0008EB0D5E90089612C02AE09D0286B0028E1
:1009C00048BF062003D408BF672C01D1012028634B
:1009D000D5E900014A005215521C0DD10B030BD072
:1009E000AAF1610103201A29A86102D20FF2CC6199
:1009F00010E00FF2CC610DE04A005215521C0ED1EE
:100A00000B030CD1AAF1610103201A29A86116D3A6
:100A10000FF2B461E868032200F082FCC0E1CDE986
:100A20000C01DDE90C2323F00043B3F5801F0DD248
:100A30000027002B08BF002A019703D111E00FF215
:100A40008461E7E701AA00F0CDFD0AE0CD48CE4978
:100A500000EB1350DDE90C2301900B40CB4910460D
:100A60001943C5E90001612C0DD1E86830210170FE
:100A7000821CBAF1610FEA600CBF782158214170E5
:100A80006869801C6861D5E90001CDE90C01DDE9E8
:100A90000C2333F0004104BF0028002300F04881FC
:100AA000612C40F0A080286B494600284CBF4FF0D5
:100AB000210B00F1010B404600220023DDE90C89E7
:100AC00000F0C8FD01990BF1010738BF89F000491A
:100AD000091F002F01918DF808200DF1090040F346
:100AE0003581A94900910646404649460022002327
:100AF00000F0C8FD80F029814800400D00F11C0283
:100B000011D0002A0FDD40F2FF739A4205DBA049A5
:100B100009F000400143002011E0009B194041EA28
:100B2000025140460BE028F0000039F0004108BFB8
:100B300000280FBF49461C22494600F0BBFD8046F5
:100B4000894600F055FEFF1F002F044609DD00F026
:100B50006DFE02460B464046494600F079FE80464F
:100B60008946F01D072104E004F00F0200F8012D72
:100B70002411002C01DD491EF6D5491E5CBF002260
:100B800000F8012DF9D5DCE00020194602AA0A443C
:100B900000E05B1E12F80149491E8442F9D00F287B
:100BA00004D10DF10900425C521C4254002904D5C5
:100BB0000198001D02AE5B1C0190581E0CD4311828
:100BC000AAF13A040A783032D7B23A2FA8BFA21855
:100BD000401E01F80129F5D5286B002840F1A780B7
:100BE000591E2963A3E001996A4A47F2975041438D
:100BF00091FBF2F2019229F00046D2F1070204DDE6
:100C000040463146FFF7ABFE0AE0524200206249FF
:100C1000FFF7A5FE02460B464046314600F08AFE2D
:100C20008046662C286B06BF019F0A3706273F18AF
:100C3000142FC8BF142730208DF8080089460DF105
:100C4000090000E03046002F34DD064640464946A4
:100C500000F094FF01460A4606F1080304200A2624
:100C6000B2FBF6F606EB860EA2EB4E02303203F82C
:100C7000012C0A22B6FBF2F202EB820EA6EB4E0624
:100C80003036401E03F8026DE9D1083F002F03F112
:100C90000806D7DD084600F085FF02460B464046B1
:100CA000494600F0D5FD00223C4B00F0C9FB8046D0
:100CB0008946CBE70DF10901401A0DF1090604E060
:100CC0000199491E401E0191761C31783029F7D0D8
:100CD000662C02D10199491C03E0652C0CBF01214F
:100CE00000212B6BCB189842B8BF431E002B1ED49B
:100CF000834204DAF05C3528A8BF392000DA3020BE
:100D00001946721E02EB010800E05B1E18F80199FB
:100D1000491E8145F9D0392802D1705C401C7054BD
:100D2000002904D50198401C16465B1C01900198CF
:100D300000B200901BB232465146284600F034F80B
:100D40002EE0C61D002F3FF7CFAE30460DF1090152
:100D5000401A03465845C8BF5B46002B0DF10906F3
:100D60003FF53AAF8342BFF60FAF0DF10900C15C0A
:100D700007297FF709AF0F2007E70000CBCCCC0C89
:100D80000000244002FCFFFFFFFF0F800000E03F57
:100D90000000F07FA08601000000F03F84D797415B
:100DA0000FB0BDE8F08F00002DE9F84783B006468C
:100DB0008A461746984600F0FDF9B8F1000F406AE0
:100DC000356B90F8009002DC4FF00108BFA74AF0A5
:100DD0002000BDF93040662808BF641C15D0672884
:100DE00040F0848014F1040FC0F28680AC4280F29F
:100DF000838096F83800641C010702D4A845B8BF68
:100E0000454620B22D1A48BF00250FFA84FAF06833
:100E1000B169BAF1000F25DC4A1C30234354002D80
:100E200003DC96F83800010703D5F06800F802905B
:100E3000521C15EB0A0FB8BF6C4220B24419414254
:100E40004445B8BFA046B26171620FFA88F5F561FA
:100E5000F068B3692A463946184400F061FA641B09
:100E6000B462C4E022B29045084417DA42463946DB
:100E700000F056FAB0694044B061AAEB0801002DB9
:100E8000716203DC96F838100A0705D5F16801F89D
:100E90000090F069401CF061B562A8E0394600F0AE
:100EA0003FFAB069002D5044A8EB040803DC96F823
:100EB00038100A0703D5F16801F80090401CB061B2
:100EC0000FFA88F08542F368B069B8BFA8460FFAF8
:100ED00088F207EB0A01184400F022FAB1690FFA10
:100EE00088F00144B161281A706280E0BAF1610FA4
:100EF00014D14FF0700A16E0A84504DA96F83810BD
:100F00000A0758BF45466D1E48BF0025BAF1670F56
:100F100014BF4FF0450A4FF0650A04E0BAF1410FE3
:100F200008BF4FF0500AB169F368481CB061002D4A
:100F300017F8012B5A5403DC96F838100A071BD512
:100F4000F168431CB36101F80090002D14DDA8F195
:100F500001080FFA88F039468542F768B8BFA846FD
:100F60000FFA88F2F81800F0DBF9B0690FFA88F18F
:100F700008446D1AB0617562F068B1690844002CCC
:100F800080F800A003D42B224270811C03E02D21A5
:100F900041706442811C00206A460AE023460A240C
:100FA00093FBF4F404EB8405A3EB450302F8013B47
:100FB000401C24B2002CF1DC012806DC4AF020029F
:100FC000652A04BF302201F8012B48B9302001F80E
:100FD000010B07E0401E1DF80030303301F8013BE3
:100FE0000028F7DCF268B0691044091AF16196F83C
:100FF000380000F0140010280DD17269B169706AD0
:101000008A18F1698218B06A8A188218706B824255
:10101000BCBF821A326204B0BDE8F087F8B505465D
:101020000E4617461C46002074B117F8011BB06825
:10103000A847B06030B1F06A401CF0620020641E26
:10104000F3D1F2BD4FF0FF30F2BD00007072696E57
:1010500074665F733A20256E20646973616C6C6FEF
:10106000776564007072696E74663A20626164200C
:10107000256E20617267756D656E74007072696EA1
:1010800074665F733A206261642025732061726721
:10109000756D656E740000007072696E74665F73C2
:1010A0003A2062616420256C7320617267756D65FA
:1010B0006E74000000000000000000006E616E0011
:1010C0004E414E00696E6600494E46003000F0B455
:1010D0000246106895681318506803EB5004C00767
:1010E0001DD54D441BE013F8017B05F8017B491E1B
:1010F000F9D1A0B1B60813F8011B06F00306032EC0
:1011000008BF13F8016B01EB06214942801C2944FA
:1011100005D011F8016B05F8016B401EF9D1A3420F
:101120000ED013F8016B16F0030104BF13F8011B76
:10113000C91C30090F28DAD113F8010B0F30D6E79C
:10114000F0BC02F10C0070471B48704770B4536844
:10115000D418042B09DA41B1057804F8015B10F8C2
:10116000016B16B15B1C491EF3E7536070BC7047FE
:1011700038B514461D4661B1FFF7E8FF61686A6B38
:10118000204690476FF00102811A02D0491E01D01B
:1011900001E003E005E00021616032BD6FF0010075
:1011A00032BD4FF0FF3032BDDA6B1047024BDFE744
:1011B000014BF9E70148704710020020D8010020D8
:1011C000C9B202788A421AB11CBF10F8012FF9E7A0
:1011D00018BF0020704730B4002513E050F8042BEE
:1011E000D30744BFA9F101039A18091F042942F843
:1011F000045BFAD213468C0744BF15809B1CC907B9
:1012000048BF1D7050F8041B0029E7D130BC70475F
:1012100080B500B906A005490B681BB12222002148
:10122000984701E000F0CBFC222002BDC80400205A
:10123000636F6E73747261696E742068616E646C42
:1012400065723A20626164206D6573736167650041
:1012500000F10103810704D010F8011B820781B15E
:10126000FAD10268A2F10131914311F0803104BF3B
:1012700050F8042FF6E709BAB1FA81F100EBD1007A
:10128000401CC01A7047B1F5807F02D34FF0FF3089
:1012900070470170012070470078401E8041C043B4
:1012A000C00F7047C9B2830706D0521E22D310F870
:1012B000013B9942F7D11FE0083A13D302F104022F
:1012C00041EA012141EA014150F8043B121F21BFCC
:1012D0004B40A3F1013C2CEA030C1CF0803FF3D0FF
:1012E000C9B2001F083210F8013B521E28BF91EA14
:1012F000030FF8D818BF0120401E704780B5FFF7D4
:1013000023FF006C02BD8268521C8260426832B1C9
:101310000268531C036011704168491E41607047A8
:101320004AB1000011F8013B521E00F8013B1CBFFE
:1013300011F8013BF8E77047D3BBD9B1B2F5803F54
:101340005BD2022A1ED98C46B1FBF2F102FB11C31B
:101350001B0443EA1043B3FBF2FC02FB1C3380B2D4
:1013600040EA0343B3FBF2F002FB103240EA0C40C8
:1013700000237047022A05D98446B0FBF2F002FB35
:1013800010C270474AB105D100F0010249085FEA76
:101390003000704700220023704700F013BC0B00A0
:1013A0000200002100207047F7D30022002370477D
:1013B000904271EB030CF2D370B5B1FA81F4B3FA39
:1013C00083F52C1BA340C4F1200532FA05F6334304
:1013D000A2405FF00046E64002E05B085FEA3202AE
:1013E000841A71EB030524BF204629467641F4D3C5
:1013F00002000B003000002170BD70B5B1FA81F41D
:10140000B2FA82F5C4F120046419B4F12006DAD3EB
:10141000B2405FF00044F440002502E052085FEA69
:101420003303C61A71EB020E24BF30467146644185
:101430006D41F3D302000B002000290070BD0000B5
:10144000B0B581EA030C0CF0004C40F2FF7515EAD0
:1014500011541DBF15EA1357AC42AF4239E0E419ED
:1014600023EA455343F48013C90241F0004141EAA5
:10147000505EC7021100A7FB020200284FF00000D7
:10148000EEFB01204FF00001E3FB072118BF42F003
:101490000102401800214941E3FB0E01A4F58064DC
:1014A0000F0302D252004041494154F101046CDD66
:1014B000470872F1004250F1000051EB0451A1F5D0
:1014C00080115CBF41EA0C01B0BD4CEA055100201F
:1014D000B0BD05EA1357AC4214BFAF4241E050EA39
:1014E000410E1CBF52EA430E02E061460020B0BD2F
:1014F00024423C441BD15FEA070EF6D0090302BF29
:1015000001460020AEF1140EB1FA81F7AEEB0704EC
:1015100001FA07FE0C37C7F1200100FA07F7C840AF
:101520004EEA000E23EA455343F48013A2E733F05A
:101530000043B3FA83F704BFB2FA82FE77440B3F4D
:10154000E41BB7F1200E2FBF02FA0EF3BB40C7F128
:10155000200E22FA0EFE38BF43EA0E03BA40641C86
:1015600082E750EA410E14BF52EA430E6FF00001C9
:101570004FF4001717EB430F8ABF194617EB410FC3
:10158000B5E74CEA05510020B0BDD4F10104B4F137
:1015900020070FDAC4F12007520828BF42F00102E9
:1015A00010FA07F501FA07F7E1BF2A43E040384394
:1015B000E1400FE0352C98DCC7F1200452EA4002EC
:1015C00020FA07F218BF42F0010231FA07F0A140F9
:1015D0000A43002172F1004250F1000051EB0C016E
:1015E000B0BD000010B5144600F002F8226010BD36
:1015F000C1F30A5343B14A0012F5001F28D2A3F2E7
:10160000FE32A1EB0251704750EA410C20D001F0AC
:10161000004C31EA0C01B1FA81F204BFB0FA80F358
:10162000D2180B3AB2F120032CBF00FA03F191401B
:1016300041EA0C013EBFC2F1200C20FA0CF3194321
:101640009040524240F2FD33D21A01EB03517047F1
:10165000002270474FF4001C1CEB410F94BF1CEBA1
:10166000430F09E041EA030C50EA4C0C52EA0C0C1F
:1016700003D2994208BF9042704714BF8B42824206
:10168000704700004FF4001C1CEB410F94BF1CEB93
:10169000430F09E041EA030C50EA4C0C52EA0C0CEF
:1016A00003D28B4208BF8242704714BF99429042D6
:1016B00070470000124254D440F2FF7C1CEA1153E0
:1016C0000FD0634531D09B1863453CBF01EB0251FD
:1016D000704701F0004141EA0C510020AFF3008057
:1016E000704750EA410320D001F0004C91EA0C0110
:1016F0001CD0B1FA81F30B3B9A420DD9D21A994012
:1017000051EA0C01C3F1200C20FA0CFC6144984012
:10171000531C40F2FF7CD7E7914041EA0C01C2F133
:10172000200C20FA0CF3194390407047B0FA80F374
:101730001533202BE0D3202AEED3203A203B9A42C7
:1017400009D9D21A00FA03F141EA0C010020531C16
:1017500040F2FF7CB8E700FA02F141EA0C010020F8
:101760007047524240F2FF7C1CEA11530DD0634592
:10177000DBD0B2EB030C3CBFA1EB025170470CF184
:10178000010221EA035141F4801150EA410CCCD00E
:1017900001F0004C352A27DC30B481EA0C01B2F1AB
:1017A000200309DAC2F12003044601FA03F5D04010
:1017B0002843D1409C400CE0C3F12002450020FAB0
:1017C00003F418BF44F0010421FA03F091400C43E4
:1017D000002174F1004550F1000051EB0C0124424E
:1017E00030BC7FF47BAF70476146002076E7000095
:1017F000C1F30A5340F2FE329B1A14DDD3F12003E9
:101800004FEAE17208DDC90241EA505141F000405F
:10181000D84080185040704703F2E13010B1D243F5
:1018200082F000407047002070470000C11768B187
:101830004840401AB0FA80F29040D21CC907C2F565
:10184000846241EA025202EBD02140057047000059
:1018500070B44FF0004591EA030F40F1B5816B4041
:10186000841A71EB030603D2001BB14112197341B4
:101870004FF4001C1CEB410F34BF7CEB430442E0EF
:101880000C0DA4EB1356352E4FDC45EAC323DB0ABF
:1018900045EAC121C912B6F120050DDD63FA05F64E
:1018A000EB4086EA0305124218BF45F00105C01857
:1018B00051F100010CD213E062FA06F5F2405540F6
:1018C000F3415A40B340F3405A408018594107D37E
:1018D00049085FEA30005FEA350528BF45F0010599
:1018E00001F58011420875F1004250F1000041EB12
:1018F00004514E0016F5001F70BC38BF7047002021
:10190000090D090570471CEB410F10D252EA43063E
:101910000BD0BCEB410F05D80C0DAB43661E342E2B
:10192000B6DD02E0AB438018594170BC704770BC13
:1019300070470000F0B540F2FF7581EA030C0CF02F
:10194000004C15EA11541DBF15EA1357AC42AF42C3
:10195000E5E0BC41C1F31301C3F31303801A9941BD
:1019600043F4801304D2641E400049418018594159
:10197000C90241EA5051B1FBF3F603FB1611A2FB79
:101980000675D7EBC020A94102D2761E80185941B6
:10199000C90241EA5051B1FBF3FE03FB1E11A2FB49
:1019A0000E75D7EBC020A94103D2AEF1010E80180D
:1019B0005941890241EA9051760546EA8E2EB1FBE3
:1019C000F3F603FB1611A2FB0675D7EB8020A941A5
:1019D00002D2761E80185941C90241EA50514EEA9E
:1019E000060EB1FBF3F603FB1611A2FB0675D7EB4F
:1019F000C020A94102D2761E80185941C90241EA8D
:101A00005051B1FBF3F703FB1711A2FB0735D3EBE2
:101A1000C020A94167F100070CBF004247F0010751
:101A200066F3D5274FEA1E31B80814F5806412DD3D
:101A3000BD0775F1004250EB0E5051EB045111F50A
:101A4000801F5CBF41EA0C01F0BD4CF07F6141F0AA
:101A5000E0410020F0BDBD076D0840EA0E5041F4A2
:101A60008011D4F10104B4F120060ADAC4F1200691
:101A70000200E04001FA06F3E1401843B24015438A
:101A80000EE0342C13DCC6F1200445EA40056D0855
:101A900020FA06F2154321FA06F0A1400D43002179
:101AA00075F1004250F1000051EB0C01F0BD002037
:101AB0005FEA0C01F0BDCFB992185B41B3FA83F72E
:101AC00004BFB2FA82F6BF190B3FB7F120062FBF51
:101AD00002FA06F3BB40C7F1200622FA06F638BF29
:101AE0003343BA401CB1E419641E33E77F4231F03E
:101AF0000041B1FA81F404BFB0FA80F6A4190B3C9E
:101B0000B4F120062FBF00FA06F1A140C4F120066F
:101B100020FA06F638BF3143A0403C1B1AE7AC421E
:101B20001ABF05EA1357AF4212E050EA41061CBF44
:101B300052EA4306BFE750EA4107304661461CBF00
:101B400041EA0551F0BD52EA430C08BFC143F0BD64
:101B500000204FF4001616EB410F98BF16EB430F11
:101B600008BF16EB410F24BFC14305E016EB430F3E
:101B70000CBF61464CEA0551F0BD0000400D49180C
:101B800040EA81200CD2490DA1F58061491C40F04A
:101B9000004005DBD1F11F0154BFC840C01770479A
:101BA00000207047014648B1B0FA80F18840C91C56
:101BB000C1F58461090501EBD02140057047012082
:101BC00000F0B8B870470000841A71EB030604D225
:101BD0006E40001BB141121973414FF4001C1CEB05
:101BE000410F34BF7CEB430683E00C0DA4EB13568E
:101BF000362E00F37C80012E45EAC32341DC43EA04
:101C0000525312BFD20292025B08240545EAC12159
:101C100041EA5051D2EBC020994125D407D1B0FA06
:101C200080F610FA06F162D00020203608E0B1FA02
:101C300081F6B140C6F1200220FA02F21143B04011
:101C40004FEAF474B4EB465434F001064FEA7404DE
:101C50000AD8D6F50016760D04F00044F04061FA7B
:101C600006F25040F1404840C00A40EA415021F09D
:101C7000004128BF5FEA500550F1000044EBD1213C
:101C800035E0DB0A45EAC121C90AB6F120050EDDBF
:101C900042EA0242120CC5F1200603FA06F6EB40B6
:101CA00042EA06056D42984161F100010DE062FAD9
:101CB00006F5F240554063FA06FC82EA0C02F34056
:101CC0005A406D42904161EB030111F4801F05D130
:101CD000641E620502D06D004041494121F480112B
:101CE000430875F1004350F1000041EB045170BC12
:101CF00070471CEB410F15D223F0004352EA430614
:101D00000BD04FEA4C0CBCEB410F04D80C0D661EF7
:101D1000342EB7DDEBE7801A994150EA410608BF3F
:101D20000021E4E708BF1CEB430F28BF6FF0000160
:101D3000DDE7000080B5AFF30080024A11001820F3
:101D4000ABBEFBE72600020070B5044600254FF04D
:101D5000FF362CB3086820604A6862608868A0601B
:101D60000A7B2273086920614A6962618869DFF829
:101D70001416A06121626462DFF87407E0612068D4
:101D800070B1804760B9A068022804BF94F82800A9
:101D9000002806D10C221221204600F081FB00B160
:101DA0003546284670BD38B50446802104F11C0034
:101DB00000F0FAFE002827D100F0C9FB00F0BAFEBF
:101DC000002821D100F0C3FB00F085FE00281BD1C4
:101DD00000F06EFB01F0BCF8B0B904F12805042056
:101DE000E87000F06AF878B900F062FB00F024FDBA
:101DF00050B90420287100F0A5F928B9062104F192
:101E00001C0000F0A3FD08B100F0FABC012028700E
:101E1000002032BD10B5044600F03CF818B9204649
:101E200000F07DF900B132E004F128000021C1701A
:101E300001710170002010BD80B51C3000F075FEEE
:101E400000F0CFBC0120087048700023102088608B
:101E50004FF4FA629FED4C0A00208B70CB704A6001
:101E6000CB6081ED040A81ED050A8861704710B5E9
:101E700000F129042178012907D0A1781C3000F055
:101E8000F7FC00B103E001202070002010BD4FF0EE
:101E9000FF3010BD10B5044694F8290060B104F17C
:101EA0002B0104F11C0000F025FD10B900F005F82D
:101EB00000B1ECE784F8290010BD002104F11C00FA
:101EC00000F0D6BC38B500F0E8F8002408B100F006
:101ED00097BC9DF80000032811D8DFE800F0020C41
:101EE0000508DFF8101604E0DFF80C0605E0DFF85F
:101EF0000C16296005E0DFF80806286001E04FF0C5
:101F0000FF34204632BD000038B50D4669461C300E
:101F100000F0F0FC002408B100F072BC9DF8000055
:101F20000B282CD8DFE800F0060B0E1114171A1D31
:101F3000202327082C6024E0DFF8C8051DE0DFF827
:101F4000C81516E0DFF8C40517E0DFF8C41510E087
:101F5000DFF8C00511E0DFF8C0150AE0DFF8BC05C6
:101F60000BE0DFF8BC1504E0DFF8B80505E0DFF8AA
:101F7000B815296005E0DFF8B405286001E04FF0EE
:101F8000FF34204632BD00000020D04580B500F16E
:101F9000290100F0CDF933D1F1EE10FA48BF01214B
:101FA00027D400F0BFF948BF022122D400F0B5F9D0
:101FB00048BF03211DD400F0ABF948BF042118D459
:101FC00000F0A1F948BF052113D400F097F948BFEC
:101FD00006210ED400F08DF948BF072109D400F086
:101FE00083F948BF082104D400F002FC4CBF09214A
:101FF0000A211C3000F03CFC002830D000F0EBBB84
:10200000F1EE10FA48BF012027D400F08BF948BF49
:10201000022022D400F081F948BF03201DD400F033
:1020200077F948BF042018D400F06DF948BF0520A7
:1020300013D400F063F948BF06200ED400F059F91C
:1020400048BF072009D400F04FF948BF082004D446
:1020500000F0CEFB4CBF09200A208870002002BD92
:1020600038B500F01AF8002408B100F0C9BB9DF89B
:10207000000003280DD8DFE800F002090406022161
:1020800002E0042003E00821296004E01020286019
:1020900001E04FF0FF34204632BD0D4669461C304A
:1020A00000F0D3BB80B50329B8BF002107DB0529A9
:1020B000B8BF022103DB0929B4BF032101211C3071
:1020C00000F0BAFB00F08DBB1CB50C4669461C3015
:1020D00000F00EFD00B1A3E1A5E13EB500220446EB
:1020E0000D46009201A904F11C0000F001FD20B989
:1020F00069462046FFF7E6FE00B1AFE1B1E110B559
:1021000000F12A042178012907D0A1781C3000F0C1
:102110003DFC00B1BBE601202070002010BD10B5D1
:10212000044694F82A0060B104F12C0104F11C006B
:1021300000F0A6FC10B900F005F800B1A7E684F89D
:102140002A0010BD002104F11C0000F01FBC00009B
:1021500038B500F03DF9002408B100F051BB9DF8FE
:102160000000062816D8DFE800F007040A150D1550
:102170001100DFF8BC130BE0DFF8B80304E0DFF870
:10218000B81305E0DFF8B403286005E0DFF8B0130A
:10219000296001E04FF0FF34204632BD38B50D46CE
:1021A00069461C3000F06CFC002408B100F028BB2C
:1021B0009DF800000A2829D8DFE800F006080B0E79
:1021C0001114171A1D2024002C6021E0DFF83803B9
:1021D00016E0DFF8381317E0DFF8340310E0DFF81B
:1021E000341311E0DFF830030AE0DFF830130BE0BE
:1021F000DFF82C0304E0DFF82C1305E0DFF82803F8
:10220000286005E0DFF82413296001E04FF0FF3477
:10221000204632BD80B500F12A0100F089F833D1A3
:10222000F1EE10FA48BF012127D400F07BF848BF37
:10223000022122D400F071F848BF03211DD400F020
:1022400067F848BF042118D400F05DF848BF0521A5
:1022500013D400F053F848BF06210ED400F049F81B
:1022600048BF072109D400F03FF848BF082104D433
:1022700000F0BEFA4CBF09210A211C3000F086FB99
:10228000002830D000F0A7BAF1EE10FA48BF0120C4
:1022900027D400F047F848BF022022D400F03DF8D0
:1022A00048BF03201DD400F033F848BF042018D4E1
:1022B00000F029F848BF052013D400F01FF848BFEC
:1022C00006200ED400F015F848BF072009D400F00E
:1022D0000BF848BF082004D400F08AFA4CBF09204C
:1022E0000A208870002002BDB4EE410AF1EE10FA17
:1022F0007047B4EE610AF1EE10FA7047B4EE420A8C
:10230000F1EE10FA7047B4EE620AF1EE10FA70477F
:10231000B4EE430AF1EE10FA7047B4EE630AF1EE40
:1023200010FA7047B4EE440AF1EE10FA704700005C
:10233000DFED0B4A0A78012ADFED0A0A9FED0A1A3F
:10234000DFED0A1A9FED0A2ADFED0A2A9FED0A3A0D
:10235000DFED0A3A9FED0A4AB4EE640A70470000C6
:1023600001004841015050450160D04401405044B3
:102370000180D043010050430100D042010050428F
:102380000100D0410728000838B500F021F80024EA
:1023900008B100F035BA9DF80000062814D8DFE82F
:1023A00000F0060408130B130F007D210AE0FA2049
:1023B00004E04FF4FA7105E04FF47A70286005E00C
:1023C0004FF4FA61296001E04FF0FF34204632BD3E
:1023D0000D4669461C3000F0CABA80B57E29B8BFE8
:1023E00001210FDBFB29B8BF00210BDB40F2F51206
:1023F0009142B8BF022105DB40F2E9329142B4BFFD
:10240000042106211C3000F0A1FA00F0EAB91CB545
:102410000C4669461C3000F067FB00B100E002E0AA
:102420004FF0FF3016BDBDF800002080BDF802104F
:102430006180BDF80400A080002016BD3EB50446B2
:102440000D4601A904F11C0000F04EFB20B96946BD
:102450002046FFF77DFE00B100E002E04FF0FF30C4
:102460003EBDBDF9040000F010F8C5ED000ABDF94D
:10247000060000F00AF8C5ED010ABDF9080000F0F9
:1024800004F8C5ED020A00203EBDDDED000A00EEB5
:10249000100AB8EEC00A60EE200AFDEEE00A7047AE
:1024A00004B501236A461C3000F0C0F900F099B968
:1024B000002104F11C00704702212046F2E58DF84E
:1024C000090002A904F11C0000F092BB02A904F16A
:1024D0001C0000F0F9BB8DF80100694604F11C00F6
:1024E00000F01BBC04460D469FED0C0AFFF74EBDE5
:1024F0001328000823DB793D23DBF93D23DB793EFC
:1025000023DBF93E0000D040000048410000D041EC
:10251000000050420000D042000050430080D043F1
:10252000004050440060D044005050450058D04511
:1025300000008C4000000C4100008C4100000C4267
:1025400000008C42694604F11C0000F0AABC012185
:1025500004F11C0070477FB5FFF7C4FF0026002878
:1025600021D1FFF7A9FFF0B9022104F11C0000F00E
:10257000CEFCC0B915B1012D0BD017E0FFF7A6FFB7
:1025800088B99DF8090040F00400FFF798FF50B9A2
:102590000EE0FFF7D7FF30B99DF8010040F00400CE
:1025A000FFF799FF20B14FF0FF3002E04FF0FF3608
:1025B000304604B070BD1CB500F01BF800B12FE729
:1025C0009DF8000000F0010002E11CB500F011F8D8
:1025D00000B125E79DF80000C0F34000F8E01CB50D
:1025E00000F007F800B11BE79DF80000C0F3800081
:1025F000EEE00C4601236A461D211C3000F010B9A4
:102600001CB5FFF7F6FF08B1FFF70ABF9DF8000001
:10261000C0F3C000DCE01CB5FFF7EBFF08B1FFF72B
:10262000FFBE9DF80000C0F30010D1E01CB5FFF71D
:10263000E0FF08B1FFF7F4BEC6E03EB505460C4624
:102640000421204600F012FD012301AA1B2100F005
:10265000B7F8002844D101230DF103021C2100F03A
:10266000AFF800283CD101230DF107021D2100F035
:10267000A7F8002834D1022105F11C0000F03CFA33
:1026800000282DD101230DF10602642100F098F8F5
:1026900030BB01230DF102020A2100F091F8F8B9D4
:1026A00001230DF105020E2100F08AF8C0B90021C6
:1026B00005F11C0000F020FA90B901230DF1010290
:1026C0005E2100F07DF858B901236A465F2100F0D1
:1026D00077F828B902A905F11C0000F070FC08B1D8
:1026E000FFF7BCBE9DF80100C10603D49DF80000B1
:1026F000C10607D59DF80400810603D5206840F087
:10270000010020609DF80100810603D49DF80000BF
:10271000810607D59DF80400010703D5206840F025
:10272000080020609DF80100410603D49DF80000D8
:10273000410607D59DF80300810603D5206840F0C7
:10274000020020609DF80100010703D49DF80000FD
:10275000010707D59DF80300C10603D5206840F0A6
:10276000040020609DF80100410703D49DF800009B
:10277000410707D59DF80700410603D5206840F0C2
:10278000400020609DF80200010707D59DF8060073
:10279000810603D5206840F0100020609DF80200FB
:1027A000C10603D49DF80500C10607D59DF80800B1
:1027B000012803D1216841F02001216000203EBDA5
:1027C00005F11C0000F02CB89DF80000C0F340108B
:1027D0002070002016BD4FF0FF3002BD1C3000F00D
:1027E0001FF808B14FF0FF3002BD0000DFED030A13
:1027F000B4EE600AF1EE10FA7047000001004841A3
:102800004FF0FF3032BD10B50446207B6469A0470D
:1028100010BD10B50446207B2469A04710BD000000
:1028200010B50446A0686468A04710BD10B5044602
:10283000A0682468A04710BD38B500F0A0F918B909
:1028400000F090F900F093F932BD1CB500F079F872
:102850009DF80010890800F0A3F906D004D30329DD
:1028600003D038BF022100D30021217016BD000023
:10287000F8B500F000F900282E4628D100F0D0F875
:1028800026D100F0C8F8002821D19DF803100329B3
:102890001DD8DFE801F002050B12CDB9012617E0C3
:1028A000280018BF012D13D1022611E028001CBFFB
:1028B000012D022D0CD103260AE0280018BF012D9E
:1028C00003D0022D18BF032D02D1042600E050B919
:1028D00000F00AF8FFF7A4FF28B900F093F800F021
:1028E00003F8FFF7A3FFF2BD01230DF1020210214F
:1028F000204670471CB500F024F800F023FB1DD8DB
:10290000DFE801F006080A0C0E10121416181A005F
:10291000012114E0022112E0032110E004210EE065
:1029200005210CE006210AE0072108E0082106E065
:10293000092104E00A2102E00B2100E000212170BE
:1029400016BD0C4601236A46102169E738B500F030
:10295000E7F81121FFF764FF40B99DF8000065F327
:10296000430000F0D8F8112100F0E9FA32BD1CB59F
:1029700000F0ACF800F00AF918BF022903D00429CE
:102980001CBF06290021217016BD0000F8B500F01B
:1029900072F800282E4628D100F042F826D100F027
:1029A0003AF8002821D19DF8031003291DD8DFE84B
:1029B00001F002050B12CDB9012617E0280018BF5F
:1029C000012D13D1022611E028001CBF012D022D7C
:1029D0000CD103260AE0280018BF012D03D0022DD8
:1029E00018BF032D02D1042600E050B900F03DF8D5
:1029F000FFF716FF28B900F005F800F036F8FFF7EA
:102A000015FFF2BD9DF8020000F00F0040EA06102D
:102A10008DF8020070470DF10301204600F008BB5D
:102A20009DF800109DF80170084641EA500141EA06
:102A3000900141EAD00141EA101141EA501141EA06
:102A40009011394341EA570141EA970141EAD70120
:102A500041EA171141EA571141EA971101F00101CA
:102A6000074341EAD7100128704701230DF1020204
:102A700011212046704704460D46694600F0BDBA54
:102A80001CB500F023F800F080FA491E09291AD875
:102A9000DFE801F00507090B0D0F111315170121D0
:102AA00012E0022110E003210EE004210CE00521D8
:102AB0000AE0062108E0072106E0082104E00921D8
:102AC00002E00A2100E00021217016BD0C4601231E
:102AD0006A461121A4E638B500F03DF818B900F0B7
:102AE00007FA00F030F832BD0A460623222197E6A5
:102AF0000A460623282193E638B500F011F8012193
:102B0000FFF78EFE30B900F044FA00F004F801211E
:102B100000F015FA32BD8DF8000001236A467047B7
:102B20000D46044601236A4670470A4601230F21D9
:102B3000FFF776BE38B500F00EF818B900F0E2F9EC
:102B400000F001F832BD8DF8000001236A46122121
:102B50002046FFF76BBE0D46044601236A4612214C
:102B6000FFF75EBE9DF8000065F3830070478DF8A7
:102B7000000001236A4610212046FFF757BE0D468C
:102B8000044601236A461021FFF74ABE9DF8001053
:102B9000490801F00701012970479DF80010490913
:102BA00001F003010129704738B500F001FAC0B9FE
:102BB0009DF8000000F0FD00E90940EA410000F046
:102BC000EFF970B900F00EF8FFF72AFE48B99DF84A
:102BD000010065F3C4008DF8010000F003F8FFF771
:102BE00025FE32BD01230DF101026221204670470E
:102BF0002DE9FF4100F050F988BB0123AA1C0A21EE
:102C000000F00EF958BB0123EA1C0B2100F008F973
:102C100028BB01232A1D0C2100F002F9F8B900217C
:102C20004046FFF769FFD0B900F0FDF814BF46F049
:102C3000020606F0FD066E7001232A460D2100F003
:102C4000EFF860B901236A1C5E2100F0E9F830B9A1
:102C500000F01CF918B901A9404600F022F900283B
:102C600031D16E7829789DF804009DF805704508EB
:102C700045EA901545EA9005054345EA501545EAB1
:102C8000101545EAD00500F0BFF845EA910545EA80
:102C9000911545EA51050D4345EA511545EA1115CF
:102CA00045EAD10500F0A5F80F4305F001053E43C4
:102CB0009DF8000055EAD61514BF40F0800000F0E2
:102CC0007F0000F0DBF891E038B500F091F918BB17
:102CD0000123AA1C0A2100F09DF9E8B90123EA1C8E
:102CE0000B2100F097F9B8B901232A1D0C2100F03F
:102CF00091F988B900F098F970B901232A460D219D
:102D000000F088F940B96A1C204601B0BDE83040A7
:102D100001235E21FFF784BD32BD2DE9FF4100F0A4
:102D2000BBF878BB0123AA1C00F079F850BB012343
:102D3000EA1C0F2100F074F820BB01232A1D10218A
:102D400000F06EF8F0B900214046FFF7D5FEC8B993
:102D500000F069F814BF46F0020606F0FD066E703A
:102D600001232A4600F05BF860B901236A1C5F2149
:102D700000F056F830B900F089F818B901A94046BA
:102D8000FFF7A2FF002831D16F782B789DF804203F
:102D90009DF805609DF800005D0845EA931545EA39
:102DA00093051D4345EA531545EA131545EAD30536
:102DB00000F02AF845EA920545EA921545EA5205DF
:102DC000154345EA521545EA121545EAD20500F0C9
:102DD00010F8174305F001053E4355EAD61514BF18
:102DE00040F0800000F07F0000F048F804B0BDE83B
:102DF000F08145EA960545EAD60545EA161545EA05
:102E0000561545EA9615704745EA970545EAD705F0
:102E100045EA171545EA571545EA971570470E21FB
:102E20004046FFF703BDEC78A8782F796E78C2088A
:102E300042EA501244EA000142EA1010204340EAFC
:102E4000540040EA940040EAD40040EA141040EAFA
:102E5000541040EA9410384340EA570040EA970083
:102E600040EAD70040EA171040EA571040EA9710AE
:102E7000394300F0010050EAD11070478DF800008E
:102E800001236A4658214046FFF7D0BC01236A4619
:102E900058214046FFF7C4BC0D4680460221FFF78B
:102EA0002BBE38B500F0A4F808BB0123AA1C00F023
:102EB000B0F8E0B90123EA1C0F2100F0ABF8B0B97B
:102EC00001232A1D102100F0A5F880B900F0ACF80C
:102ED00068B901232A4600F09CF840B96A1C2046D4
:102EE00001B0BDE8304001235F21FFF799BC32BD3E
:102EF0009DF8000065F3861070479DF8000065F3AB
:102F0000461070479DF8000065F38200704738B5A1
:102F100000F00EF818B9FFF7F0FF00F001F832BD2D
:102F20008DF8000001236A4659212046FFF77EBC38
:102F30000D46044601236A465921FFF771BC20461D
:102F4000FFF774BC9DF800100909491E0A29704753
:102F500038B500F013F818B900F003F800F006F8DF
:102F600032BD9DF8000065F3020070478DF8000047
:102F700001236A460A212046FFF758BC0D46044645
:102F800001236A460A21FFF74BBC9DF8001009098E
:102F900070479DF8000000F03F0040EA8510704740
:102FA0008DF8000001236A4618212046FFF73EBC39
:102FB0000D46044601236A461821FFF731BC38B597
:102FC00000F016F820B900F00DF808B900F001F88B
:102FD00032BD9DF80000C0F300102870002120468B
:102FE000FFF78ABD01236A4612212046FFF718BC6D
:102FF0000D4604460221FFF77FBD38B5FFF7F8FF05
:1030000030B902232A46462100F004F800B904E052
:1030100032BD0E212046FFF703BC2046BDE83440F8
:103020000021FFF769BD287000212046FFF764BD2D
:1030300038B5FFF7DDFF90B900F012F878B99DF8C8
:103040000000C00800F00300012806D004D30328C4
:1030500003D038BF022000D30020FFF7E4FF32BDC9
:1030600001236A465F212046FFF7DABB002200F009
:1030700001B80000401810F0030308D0C91A1FD38C
:10308000DB0748BF00F8012D28BF20F8022D1300F0
:1030900030B414461546103928BF20E93C00FAD850
:1030A000490728BF20E90C0048BF40F8042D8900DB
:1030B00028BF20F8022D48BF00F8012D30BC704712
:1030C000C91818BF00F8012DCB0728BF00F8012D43
:1030D0007047000070B5044600254FF0FF362CB352
:1030E000086820604A6862608868A0600A7B227372
:1030F000086920614A69626188690FF66501A0610B
:10310000216264620FF66500E061206870B180475B
:1031100060B9A068022804BF94F82800002806D1EE
:1031200005222121204600F0A6FA00B135462846A6
:1031300070BD38B500F0ADFA00F041FD002821D196
:1031400000F0A8FA00F005FDE0B900F09BFA00F0ED
:10315000D6FDB8B9042104F11C0000F019FC88B9AF
:1031600004F12805DFF85C036860002129726972A8
:1031700004F11C0000F084FC20B900F083FA00F098
:10318000F1FC00B1D7E101202870002032BD10B55C
:10319000044600F03AF800B134E004F128000021C0
:1031A0004160017241720170002010BD80B51C3079
:1031B00000F001FDD2E101200870002210204A70C9
:1031C0008A70CA704A608860CA600020DFF80023F5
:1031D00008614A618861704710B5044694F8290077
:1031E00001280DD004F12C004279017990ED000AFC
:1031F000204600F013FB00B104E0012084F8290010
:10320000002010BD4FF0FF3010BD10B5044694F8FB
:10321000290038B100F036FA00F032FC00B1F1E7D5
:1032200084F8290010BD00007CB504460D460DF160
:10323000010104F11C0000F0A7FC002628B9694632
:1032400004F11C0000F0C8FB00B1C4E09DF80100CF
:103250009DF8001091B1491E03291BD9C91F0DD03B
:10326000491E022916D9C91F08D0491E032911D9A0
:10327000C91F03D0491E02290CD91DE003281BD801
:10328000DFE800F0141702059FED850A18E09FEDB6
:10329000850A15E003280FD8DFE800F00205080BC7
:1032A0009FED810A0CE09FED810A09E09FED800A05
:1032B00006E09FED800A03E0BFEE000A4FF0FF3604
:1032C00085ED000A304676BD7CB506460C460DF10C
:1032D000010106F11C0000F0FEFB002510B900F012
:1032E00095F900B177E09DF800009DF80110A9B1B3
:1032F000012916D0022926D0032927D0042928D055
:10330000052929D006295BD0072928D0082935D0DE
:10331000092942D0222918BF322954D19FED660ACB
:1033200055E003280CD9001F0DD0001F032884BFCF
:103330000838032804D9001F05D0001F032842D8ED
:103340009FED5E0A43E0B2EE090A40E0B3EE090ADF
:103350003DE09FED5B0A3AE09FED5A0A37E0032813
:103360002ED9001F07D0001F032884BF0838032868
:1033700026D9001F1DD19FED540A28E003281FD92C
:10338000001F07D0001F032884BF0838032817D95F
:10339000001F0ED19FED4D0A19E0032810D9001F20
:1033A0000BD0001F032884BF0838032808D9001F4A
:1033B00003D0001F032803D905E09FED450A06E06E
:1033C0009FED440A03E0BFEE000A4FF0FF3584EDA5
:1033D000000A284676BD4FF0FF3076BD002200215E
:1033E00090F82930012B04BFC9B200F017BADFED05
:1033F0003A0A2C30B4EE600AF1EE10FA0171427113
:1034000048BF9FED2E0A46D4DFED340AB4EE600AC1
:10341000F1EE10FA48BFB2EE090A3CD4DFED300AF3
:10342000B4EE600AF1EE10FA48BFB3EE090A32D4E6
:10343000DFED2C0AB4EE600AF1EE10FA48BF9FED02
:10344000200A28D4DFED280AB4EE600AF1EE10FA63
:1034500048BF9FED1C0A1ED4DFED240AB4EE600ABB
:10346000F1EE10FA48BF9FED1B0A14D4DFED200ADD
:10347000B4EE600AF1EE10FA48BF9FED130A0AD4C9
:10348000DFED1C0AB4EE600AF1EE10FA4CBF9FEDBE
:103490000F0A9FED0F0A80ED000A00207047000020
:1034A00023DB794023DBF94023DB793E23DBF93E44
:1034B00023DB793F23DBF93F00000000CDCCCC3F7C
:1034C000000048420000C8420000C84300004844D1
:1034D0000000C84400004843CECCCC3F0100484126
:1034E0000100C841010048420100C84201004843B0
:1034F0000100C8430100484438B50C4669461C30F9
:1035000000F042FB002500B115E09DF80000032803
:103510000BD8DFE800F002040608022008E00420CF
:1035200006E0082004E0102002E04FF0FF352846B6
:103530002060284632BD4FF0FF3032BD80B50329F0
:10354000B8BF002107DB0529B8BF012103DB09292A
:10355000B4BF022103211C3000F004FB08B14FF07E
:10356000FF3002BD7FB506460D4600F04FF800243F
:1035700028B901A906F11C0000F019FB10B14FF0A9
:10358000FF3037E09DF8000090B1401E03281ED99F
:10359000C01F0DD0401E022819D9C01F08D0401EE0
:1035A000032814D9C01F03D0401E02280FD91EE0E3
:1035B000BDF9040000F025F82880BDF9060000F0F0
:1035C00020F86880BDF9080000F01BF80DE0BDF997
:1035D000040000F011F82880BDF9060000F00CF896
:1035E0006880BDF9080000F007F8A88001E04FF0FE
:1035F000FF34204604B070BD411000EB9170801084
:103600007047C11000EB117000117047694606F158
:103610001C0000F0E1B93EB500220D4600920446C0
:1036200001A9FFF79FFF20B969462046FFF7FCFD7F
:1036300010B14FF0FF303EBDBDF9040000F010F8AE
:10364000C5ED000ABDF9060000F00AF8C5ED010A53
:10365000BDF9080000F004F8C5ED020A00203EBDE7
:10366000DDED000A00EE100AB8EEC00A60EE200A96
:10367000FDEEE00A704704B501236A461C3000F0F5
:1036800081F96BE7002104F11C00704702212046FC
:1036900054E70446012104F11C0070471CB500F0FA
:1036A00025F890B9FFF7F2FF78B9022104F11C0068
:1036B00000F00BFB48B900F012F830B99DF800009B
:1036C00040F0800000F004F808B14FF0FF3016BD64
:1036D0008DF80000694604F11C0000F0B2BA69469A
:1036E00004F11C0000F0D8BA0000000004469FED71
:1036F000010A73E60000484301230DF10202242170
:1037000070471CB500F021F800B10EE09DF80000F4
:1037100000F001000CE01CB500F017F800B104E067
:103720009DF80000C0F3400002E04FF0FF3016BDEE
:103730002070002016BD1CB500F007F800B1F4E7BA
:103740009DF80000C0F38000F2E70C4601236A46B2
:103750003A211C3000F010B91CB5FFF7F6FF00B19C
:10376000E3E79DF80000C0F3C000E1E71CB5FFF7F8
:10377000ECFF00B1D9E79DF80000C0F30010D7E7D7
:103780001CB5FFF7E2FF00B1CFE79DF80000C0F3E2
:103790004010CDE738B505460C4604212046FFF71A
:1037A00065FC01236A46272100F034F858B901234B
:1037B0000DF10102232100F02DF820B9FFF79CFF45
:1037C00000F028F800B1B6E69DF80100810607D5A3
:1037D0009DF80000410603D5206840F008002060F5
:1037E0009DF80100010607D59DF80000410703D5AB
:1037F000206840F0400020609DF80200410607D597
:103800009DF80000810603D5206840F0800020600C
:10381000002032BD05F11C0000F0AEB8F8B5064638
:103820000C46E0B22DED028B401EB0EE408A03281C
:1038300015469FED3D0A03D8DFE800F00E13181D72
:10384000012DF2EE090A14BF0427142700F083F8B3
:103850001BD5B0EE608A24E0012D0CBF132703278F
:103860000DE0012D0CBF1227022708E0012D0CBF2F
:103870001127012703E0012D14BF0027102700F0B6
:1038800065F8A8BF9FED298A25DADFED290A00F047
:1038900062F848BF01212ED4DFED260A00F05BF864
:1038A00001D5022127E0DFED240A00F054F848BFDB
:1038B000032120D4DFED210A00F04DF848BF042198
:1038C00019D4DFED1F0A00F046F848BF052112D4D5
:1038D00000F03CF801D506210DE09FED1A0A00F03A
:1038E00035F848BF072106D49FED170A00F02EF8DF
:1038F0004CBF0821092106F11C0000F0C1F828B9CD
:10390000394606F11C0000F043F810B14FF0FF30CB
:1039100006E006F12C0080ED008A0471457100205C
:10392000BDEC028BF2BD000001004843000048439B
:10393000CECCCC3F010048410100C84101004842C3
:103940000100C8420100C84301004844B4EE408A67
:10395000F1EE10FA7047B4EE608AF1EE10FA70479B
:1039600010B50446207B6469A04710BD10B504461D
:10397000207B2469A04710BD10B50446A068646888
:10398000A04710BD10B50446A0682468A04710BD2C
:1039900038B500F099F8E0B99DF8011005F00C0277
:1039A00005F0030001F0F001024311438DF801100E
:1039B00000F084F868B901236A4625212046FFF704
:1039C000DBFF30B99DF800002D0965F3820000F09F
:1039D000D4F832BD0000000038B50C46054601237E
:1039E0006A462021FFF7C8FF002848D100F0FFF801
:1039F00000F00EF900F007F99DF80030890001F0A1
:103A0000100102F00C02511803F003035918C9B257
:103A10001B2932D8DFE801F01412100E3131313198
:103A20001C1A181631313131262422201E31313131
:103A30002E2C2A2803211EE002221FE001211AE079
:103A400000221BE00B2116E00A2217E0092112E0F8
:103A5000082213E014210EE013220FE012210AE0E5
:103A600011220BE0102106E01B2207E01A2102E0E0
:103A7000192203E01821217032BD0422227032BDC8
:103A800038B500F021F8C0B99DF8010000F00F0032
:103A900040EA05108DF8010000F010F868B9012324
:103AA0006A4622212046FFF767FF30B99DF80000E3
:103AB0002D0965F3010000F0BDF832BD01230DF1C1
:103AC0000102202120465DE70D46044601230DF149
:103AD0000102202150E738B500F0F1F82021FFF76E
:103AE0004BFF002834D101236A46222100F090F8D0
:103AF0009DF800109DF8012001F00301120902EB6E
:103B00000111012914D0022921D0032913D004293D
:103B10001DD0052911D0062919D007290FD0082951
:103B200015D009290DD022290DD032290FD00DE052
:103B30000123237032BD032206E0052204E00722A0
:103B400002E0092200E02222227032BD0021217011
:103B500032BD38B500F045F818B900F066F800F04D
:103B600039F832BD38B500F055F828B99DF8000095
:103B700065F3051000F001F832BD8DF80000012357
:103B80006A4625212046FDE61CB500F049F89DF85F
:103B90000010090901F00301012906D004D303290B
:103BA00003D038BF022100D30021217016BD0A4680
:103BB00006232821E0E60A4601230F21DCE638B57A
:103BC00000F00FF828B99DF8000065F3820000F0BE
:103BD00001F832BD8DF8000001236A4621212046FC
:103BE000D0E60D46044601236A462121C4E601239E
:103BF0000DF10102252170478DF8000001236A466E
:103C00003F212046BEE69DF801109DF80020704738
:103C10002846B1E60D46044601236A462521ABE657
:103C20000C4601236A462521A6E69DF8000065F3AF
:103C3000C30070478DF8000001236A462221204608
:103C4000A0E638B500F035F82421FFF795FEE8B975
:103C500000F01DF8D0B928789DF80110030943EA57
:103C6000D003014343EA501300F01AF814BF40F0A8
:103C7000200000F0DF008DF8000001232A462321F8
:103C80002046FFF77FFE08B9FFF7B8FF32BD0123DA
:103C90006A463F2120466FE60A46012323216BE650
:103CA00043EA911303F001039DF8000053EAD11396
:103CB00070470D46044601230DF1010270470C4682
:103CC000054601230DF10102704738B500F010F8E8
:103CD00028B99DF8000065F3461000F001F832BDE8
:103CE0008DF8000001236A4630212046FFF74ABEC6
:103CF0000D46044601236A463021FFF73DBE38B524
:103D000000F015F818B900F003F800F008F832BD1B
:103D10009DF8000000F01F0040EA451070478DF844
:103D2000000001236A462E212046FFF72BBE0D46D8
:103D3000044601236A462E21FFF71EBE2DE9FC47EB
:103D4000050017D0DFF8E876DFF8F466BC68F8689D
:103D500000F003082878C10604F00C0453D524B100
:103D60000C2C08BFB8F1010F2FD13868810703D59B
:103D7000A869002800F06A81396808074EBF3968D1
:103D800071680909286A01F0F001814206D200F049
:103D900013FB002809D100F00CFA08E000F009FA42
:103DA0002CB9286A00F008FB002840F04F8100F091
:103DB000A6FABA6800F099FADFF87C06006800F00D
:103DC00057FB010000F03281EDE1A86990B139683C
:103DD00041F00101396000F06DFB814638688107D0
:103DE00000F1228100F066FBA0EB09000328F5D367
:103DF0000320D8E1386840084000386000F05AFBE2
:103E000081463868810740F1118100F053FBA0EB37
:103E100009000328F5D3EBE76868B0F5803F04D1CB
:103E2000386840F48030386011E0B0F5A02F386871
:103E300006D140F480203860396841F4803105E0D3
:103E400020F480303860396821F480213960686856
:103E500068B100F02FFB81463868810300F1F880DB
:103E600000F028FBA0EB09006528F5D3C0E700F0BF
:103E700021FB81463868810340F1EA8000F01AFB9B
:103E8000A0EB09006528F5D3B2E700F013FB00F0C2
:103E90008CF9C0F00381ABE7E86880B1396841F480
:103EA0008071396000F006FB80463868410500F1FA
:103EB000E08000F0FFFA00F078F9F6D398E7386870
:103EC00020F48070386000F0F5FA804638684105CB
:103ED00040F1D68000F0EEFA00F067F9F6D387E7FC
:103EE00040084000706000F0E5FA80467068810785
:103EF00040F1D88000F0DEFA00F057F9F6D377E70A
:103F00000528306806D140F004003060316841F087
:103F1000010105E0400840003060316821F00401F3
:103F20003160A86841F2893968B100F0C3FA82466D
:103F30003068810700F1EC8000F0BCFAA0EB0A00C9
:103F40004845F5D354E700F0B5FA8246306881075A
:103F500040F1DE8000F0AEFAA0EB0A004845F5D350
:103F600046E700F400328A420FD1EA6B520800F4AF
:103F7000C001521EB1EB425F07D1296C490800F025
:103F8000C060491EB0EB416F1FD00C2C5ED038686A
:103F900041015BD43868C10058D4386820F0807083
:103FA000386000F087FA04463868810140F1D78014
:103FB00000F080FA001B0328F6D319E700F07AFA24
:103FC000401B0328C0F0EA8012E73868810104D45E
:103FD00000F001F904463868810100F1E38000F047
:103FE00069FA001B0328F6D302E70C2C2ED03868A0
:103FF00020F080703860396811F0205F03D1F868D4
:1040000080088000F860F968DFF83804014000F0AB
:10401000E9F804463868810140F1C48000F04AFAAA
:10402000001B0328F6D3E3E600F0C3F82878C107A5
:104030000ED5082C05D00C2C08BFB8F1030F7FF467
:10404000EBAE3868810303D5686808B90120AAE09F
:104050002878810714D5042C05D00C2C08BFB8F1A2
:10406000020F7FF419AF3868410502D5E8680028CF
:10407000ECD07868296920F0F85040EA0160786057
:10408000287801070ED56869002870683FF428AFCA
:1040900040F00100706000F00DFA80467068810702
:1040A0007FF5F3AE2878410739D5B86DC1004FF0E0
:1040B00000080AD4B86D40F08050B8654FF0010890
:1040C000B86D00F0805000900098DFF87C93D9F82C
:1040D0000000C10513D4D9F8000040F48070C9F87D
:1040E000000000F0E7F98246D9F80000C10506D4C7
:1040F00000F0E0F9A0EB0A000328F5D378E6A86801
:1041000001287FF4FDAE306840F00100306008E720
:10411000B8F1000F03D0B86D20F08050B865A86AE0
:1041200000283FD002287FF460AFF868EA6A00F008
:104130000301914201BF00F070012A6B521EB1EBE6
:10414000021F04D16A6B00F4FE41B1EB022F7FF431
:104150001CAFA96B07290CBF0021012101E7FA68F8
:10416000DFF8E812E86A0A40296B0243491E686BCF
:1041700042EA0112E96B490842EA0022286C491E12
:10418000400842EA4152401E42EA4062A86B0009E0
:1041900042EA4042FA6000F01EF8054638688101A4
:1041A0007FF50CAF0020BDE8F687A0EB08000328E0
:1041B0007047386840F0080038603968286A21F094
:1041C000F001014339607968E86921F47F4141EAEF
:1041D000002179607047386840F080703860F96875
:1041E00041F08071F96000F065B92DE9F0410400FB
:1041F000884678D0DFF85862306800F00700404504
:1042000009D23168C90848EAC1013160306800F05C
:104210000700404567D12078DFF81452C1074AD51E
:104220006068032802D129688A0108E0022802D1C7
:1042300029688A0303E00028296802D18A0702D48A
:1042400051E04A054FD5A968890840EA8100A86075
:1042500000F030F90746A868616800F00C00B0EB88
:10426000810F28D000F026F9C01B41F28931884225
:10427000F1D303201DE02078410705D5AA68E06846
:1042800022F4E0620243AA602178080706D5A968F3
:10429000206921F4605141EAC001A96000F02FF8C3
:1042A000AA6800F022F8BDE8F0416348006800F019
:1042B000DFB8BDE8F0812078810705D5AA68A0683D
:1042C00022F0F0020243AA60316801F0070188453C
:1042D000D1D23068C00848EAC0003060316801F0CF
:1042E00007014145C7D00120E3E75A49C2F3031251
:1042F000895C504A01F01F01C8401060704770B5DA
:104300004B4A564B9068D6680025002110F00C00EF
:1043100006F00306524C03D00C2812D1012E1AD1FC
:1043200015682E0704D4454D2E68C6F3032502E018
:104330001568C5F303154B4E56F8255048B9294664
:1043400024E0042808BF214620D008281ED11946A1
:104350001CE00C281AD1D06800F00300022803D01A
:10436000032808BF1D4600E02546D168D068D26802
:10437000C0F306204543C1F30210C2F34161401C63
:10438000491CB5FBF0F04900B0FBF1F1084670BDE7
:104390002848314A006813683349C3F3022206E013
:1043A00024482D4A006813682F49C3F3C222895C50
:1043B00001F01F01C84070477CB52C4E054630689F
:1043C0000024C10002D500F07BF80EE0306840F018
:1043D00080503060316801F080510091009800F009
:1043E0006FF8316821F080513160B0F5007F04D161
:1043F000802D0CD9A12D09D304E0802D88BF032482
:1044000005D801D1022402E0702D00D1012410480A
:104410000168C90844EAC1010160006800F00700B2
:10442000A04201D0012076BD002076BD0000000032
:1044300000100240D4010020B80100209410024076
:1044400090100240FFFFEEFE007000408C809DF94E
:1044500000200240007100080810024000127A009B
:104460000024F40010710008547200085810024033
:1044700070B50E4E0446B0680025A0B14FF47A71B5
:104480000B4AB1FBF0F11068B0FBF1F000F09EF8C0
:1044900048B9102C07D2002221464FF0FF3000F01F
:1044A0006DF8746000E00125284670BDB40100205D
:1044B000D401002001480068704700BFB40100200B
:1044C000DFF87800006800F4C060704710B5DFF8CE
:1044D0006C10B0F5007F086800F4C06015D1B0F52D
:1044E000007F1BD00868DFF85820DFF8584020F420
:1044F000C06040F4007000F018F84A6953050FD509
:10450000002818BF401EF8D10AE0B0F5806F05D032
:10451000086820F4C06040F480600860002010BD8E
:1045200048694105FAD5032010BD086032201368A0
:104530004343B3FBF4F0401C7047000000700040A0
:10454000D401002040420F000901020002D4294892
:1045500081547047284B02F00F021A4402F8041CE1
:104560007047264B19684FF6FF020002114000F415
:10457000E0600843224908431860704738B51F4B74
:104580001C68C4F30223C3F10704052C28BF0424CC
:104590001D1D072D34BF0023DB1E012505FA04F481
:1045A000641E2140994005FA03F35B1E1A40114333
:1045B000BDE83440C8E7010007D4012200F01F0124
:1045C000104B8A40400943F82020704710B5401E28
:1045D000B0F1807F01D3012010BD0B4C60600F2132
:1045E0004FF0FF30FFF7B0FF0021A16007202060EF
:1045F000002010BD00E400E018ED00E00CED00E04C
:104600000000FA0500E100E010E000E038B5040029
:1046100009D004F17005696809B900F01EF800F0CE
:1046200021F8012801D1012032BD606A08B100F0F3
:104630002AF800F00AF821F02A01FFE7816000F073
:104640001BF8BDE8324000F03CBA2068416821F414
:1046500090414160206881687047002028702046A2
:1046600000F0A3BA24216960206802685208520051
:104670000260204600F068B82068016841F001013E
:10468000016020467047204600F0B8B92DE9FC478C
:10469000054605F17004884660682028174699464B
:1046A00046D1B8F1000F14BF002F012041D020786F
:1046B00001283DD0012121700020E06021226260AC
:1046C00005F15006FFF7F6FE378082467780A8682E
:1046D000B0F5805F04BF286900280EBF47464046FA
:1046E00000270021217080460FE018F8012B028579
:1046F00008E02868B8F1000FF7D137F8021BC1F3C2
:10470000080101857088411E718053467088CDF87C
:10471000009000280FD000228021284600F0FEF9EA
:104720000028E6D0032004E020206060002000E0A4
:104730000220BDE8F68700224021284600F0EEF96D
:104740000028F1D0EEE700002DE9F04104469D4835
:1047500022681368A168034020690B436169034321
:10476000E0690B430343136000265168E06821F4BD
:104770004051014351600025A36991498A421CBF01
:10478000206A03439768904827F430673B4393605F
:104790008E4F8F4BBA4221D11B6803F00303032BCA
:1047A00029D8DFE803F0025F50710127E169B1F514
:1047B000004F4FF6F07840F0D38067B1012F00F042
:1047C000A980022F00F0A980042F00F0AB80082FF1
:1047D00000F0B180B7E0FFF7DBFDA5E07D4FBA4206
:1047E00023D11B6813F00C035FD0042B3AD0082BA5
:1047F00029D00C2B48D010278A42D7D1390006D0B7
:10480000022F09D0042F52D0082F53D0D0E0FFF749
:10481000BFFD002800F0CD80626802EB42018842B3
:1048200002D31303834248D2C2E06B4FBA420CD189
:104830001B6813F0300338D0102B13D0202B02D07C
:10484000302B21D0D7E70227D6E7644FBA420BD1ED
:104850001B6813F0C00328D0402B03D0802BF2D06C
:10486000C02BEEE70427C7E75D4FBA420ED11B68A5
:1048700013F4407319D0B3F5807FF3D0B3F5007F04
:10488000E1D0B3F5407FB6D10827B5E78A42B2D16F
:104890001B6813F4406308D0B3F5806FE2D0B3F522
:1048A000006FD0D0B3F5406FCBE70027A4E7FFF748
:1048B00026FDAEE74FF40040AEE737B1022F0AD035
:1048C000042F0ED0082F16D01BE0FFF761FD00F07B
:1048D0008FF879410AE0434911EB520045EB05019D
:1048E00004E0FFF70CFD00F083F869410023FCF7BA
:1048F00023FD064606E0530803F50003B3FBF2F67A
:1049000000E00125A6F540703749884250D2226860
:10491000D6604EE0FFF744FD06E06068334901EBE6
:1049200050010CE0FFF7EBFC61684A0802EB400223
:10493000B2FBF1F605E06068410801F58031B1FB9A
:10494000F0F6B6B200E00125A6F1100040452FD2E6
:1049500008EA0601C6F3420001432068C16028E06E
:1049600047B1012F09D0022F0CD0042F08D0082FF7
:104970000ED015E0FFF70CFD04E0FFF711FD01E09C
:10498000FFF7BDFC616800EB5100B0FBF1F605E0FC
:104990006068410801F50041B1FBF0F6B6B200E0F5
:1049A0000125A6F11000404502D22168CE6000E04A
:1049B00001250020206660662846BDE8F0810000E1
:1049C00000800040F369FFEF0024F400003801404C
:1049D000881002400044004000480040004C004065
:1049E00000500040000024F400FD0F000048E801E2
:1049F0006268010E560816EB0020704790F82410EC
:104A0000CA0706D502685368816A23F400330B4352
:104A1000536090F824108A0706D502685368C16A6B
:104A200023F480330B43536090F824104A0706D5D3
:104A300002685368016B23F480230B43536090F8A2
:104A400024100A0706D502685368416B23F400431B
:104A50000B43536090F82410CA0606D50268936889
:104A6000816B23F480530B43936090F824108A06E3
:104A700006D502689368C16B23F400530B4393601F
:104A800090F824104A0610D502685368016C23F48C
:104A900080130B435360036CB3F5801F05D153683B
:104AA000416C23F4C0030B43536090F824100A06B2
:104AB00006D501684A68806C22F4002202434A60ED
:104AC0007047F8B5044604F170050020E8606FF007
:104AD0007E47FFF7EFFC0646206801680A0708D505
:104AE0000097334600224FF40011204600F016F8DC
:104AF00060B9206801684A070AD50097334600224A
:104B00004FF48001204600F009F808B10320F2BDFF
:104B100020206860A86000202870F2BD2DE9F041D7
:104B2000069C05460E4690461F462868C1693140DE
:104B3000B1420CBF01200020404528D114F1010FE3
:104B4000F3D0FFF7B7FCC01B844200D34CB92868F0
:104B5000016821F4D071016000F01CF8002101709F
:104B600013E0286801684A07DFD5C1690A05DCD56A
:104B70004FF4006101622868026822F4D07202607A
:104B8000002200F007F8C1600270032000E000205E
:104B9000BDE8F0812868816849084900816005F115
:104BA00070002021416081607047704738B5040073
:104BB00001D1012032BD04F14005687820B90021FF
:104BC0002970204600F0AEFA00F053F860682168C2
:104BD00020F0706008612068816821F400418160E4
:104BE000E06821680128A0680CBF40F4004040F450
:104BF00004408860E068022803D120684FF4006117
:104C000041602068416841F0007141F40041416019
:104C10002068C16821F40041C16060692169A2690E
:104C20000143206841EA0221C160206AE1692268EB
:104C3000014311602068016841F00101016000201A
:104C40006860202169702063A87032BD38B5040007
:104C500001D1012032BD04F1400500F00AF82046E0
:104C600000F061FA0020686068702063A870287006
:104C700032BD24206870206801684908490001603D
:104C8000704700904FF08073FF22704700904FF004
:104C90000073D2B2704701224FF40041304600F059
:104CA00090B92DE9FE4F00F0FEF84ED10C9D002D7D
:104CB0001CBF0D9F002F03D14FF4007161603FE0D6
:104CC0002078012841D001212170FFF7F3FB00F08B
:104CD0005BF8002834D1212000F0FDF800F016F92F
:104CE00010B1002020702BE0708DFF25B0F5807F83
:104CF00019D300F0E9F800F0D2F80E9F4A46394681
:104D0000304600F07FF900281AD100F025F811D0C4
:104D100089B279B900F030F890B900F019F805D3EC
:104D200000F0D2F804E000F0C7F8E4E700F0C4F8BF
:104D300000F0B5F8708D0028E0D100F09CF808B1C3
:104D4000012003E000F02AF800E00220BDE8FE8F19
:104D5000708DB0F5807F7047706A3268017891621B
:104D6000706A411C7162708D411E7185308D411ECB
:104D70003185708D00287047CDF800903B460022A9
:104D80008021304600F01DB98146CDF800901923EE
:104D900001224FF40041304600F013B93168202061
:104DA000C8613168DFF854014A6802404A60202136
:104DB00061700020A070207070472DE9FE4F00F058
:104DC00072F855D10C9D002D1CBF0D9F002F03D1F3
:104DD0004FF40071616046E02078012848D001213D
:104DE0002170FFF767FBFFF7CFFF00283BD12220A0
:104DF00000F071F800F0A5F810B10020207032E04A
:104E0000718DDFF8F400FF25B1F5807F1CD3358567
:104E1000FFF737FF00F043F80E9FCDF800903B46B8
:104E200000220421FFF73AFF00281CD100F028F8E7
:104E300098B189B289B9FFF79FFFA0B9FFF788FF42
:104E400007D300F041F806E0728D3285FFF71EFFB0
:104E5000E0E700F031F800F022F8708D0028DCD196
:104E600000F009F808B1012003E0FFF797FF00E028
:104E70000220BDE8FE8F4A463946304600F0E9B8C8
:104E80003068416A706A0170716A308D4A1C411E37
:104E900072623185708D421E7285708D70474146F9
:104EA000304600F028B9064606F14004884660788E
:104EB000202892469B467047728D328500200090D4
:104EC0004FF00073D2B270473585002000904FF04C
:104ED0008073FF22704760704021A17000206060E5
:104EE0007562778570635B460E9900915246CDF8E6
:104EF00004904146304670470024008000E800FEE0
:104F000090F841007047406C704700002DE9FC416B
:104F100000F031F84FF08073EAB200F0ECF800F0E6
:104F20003EF858B9012D02D000F036F830B900F043
:104F30002CF88021204600F044F800B10120BDE8A3
:104F4000F6812DE9FC4100F016F80023EAB200F0EA
:104F5000D2F800F024F858B9012D02D000F01CF866
:104F600030B900F012F84021204600F02AF800B1D4
:104F70000120BDE8F6811746DDF82080099EDFF8A4
:104F8000982100921D46044670472068FFB2876250
:104F900000964346002270472168380A88623246EC
:104FA000414620462EE0006881698A0744BF0021FF
:104FB00081628169CA0703D4816941F0010181617D
:104FC00070472DE9F041069F05460E4690461C4667
:104FD000286881693140B1420CBF01200020404562
:104FE0000DD114F1010FF3D0FFF764FAC01B844216
:104FF00001D3002CECD100F020F8012000E00020CB
:10500000BDE8F08170B505460C46164628688169F2
:10501000880710D400F035F858B914F1010FF5D015
:10502000FFF748FA801B844201D3002CEED100F038
:1050300004F8012070BD002070BD05F14000202261
:10504000416841F02001416042700021817001708F
:10505000704770B505460C46164628688169880673
:105060000DD400F00EF840B9FFF724FA801B8442FB
:1050700001D3002CF1D1FFF7E0FF012070BD00202B
:1050800070BD324621462846FFE770B505460C46FE
:1050900028688169C806164618D5286881698A0675
:1050A00016D414F1010FF8D0FFF704FA801B8442E4
:1050B00001D3002CF1D105F14000416841F02001FD
:1050C00041602022FFF7C0FF012070BD002070BDAD
:1050D0001021C16120202A68D0612846FFF763FFB4
:1050E00029680E484A68024005F140004A6041685C
:1050F00041F00401E4E770B50068049C4568084E7F
:1051000046EA5456B543C1F30901294341EA024135
:1051100019432143416070BD0020008000E800FE7B
:10512000FF63FF03704770474572726F72206765B7
:105130007474696E67203644206F7269656E74619D
:1051400074696F6E20584C20617869732066726FA5
:105150006D204C49533244573132202D2061636316
:10516000656C65726F6D657465722E0D0A000000C6
:105170004572726F722067657474696E6720364479
:10518000206F7269656E746174696F6E2058482073
:10519000617869732066726F6D204C4953324457B1
:1051A0003132202D20616363656C65726F6D6574AB
:1051B00065722E0D0A0000004572726F72206765DD
:1051C0007474696E67203644206F7269656E74610D
:1051D00074696F6E20594C20617869732066726F14
:1051E0006D204C49533244573132202D2061636386
:1051F000656C65726F6D657465722E0D0A00000036
:105200004572726F722067657474696E67203644E8
:10521000206F7269656E746174696F6E20594820E1
:10522000617869732066726F6D204C495332445720
:105230003132202D20616363656C65726F6D65741A
:1052400065722E0D0A0000004572726F722067654C
:105250007474696E67203644206F7269656E74617C
:1052600074696F6E205A4C20617869732066726F82
:105270006D204C49533244573132202D20616363F5
:10528000656C65726F6D657465722E0D0A000000A5
:105290004572726F722067657474696E6720364458
:1052A000206F7269656E746174696F6E205A482050
:1052B000617869732066726F6D204C495332445790
:1052C0003132202D20616363656C65726F6D65748A
:1052D00065722E0D0A0000000D0A20205F5F5F5FDF
:1052E0005F5F5F5F5F5F5F5F5F5F5F5F20200D0AF3
:1052F000207C202020202020202020202020202052
:1053000020207C200D0A207C20202A202020202004
:1053100020202020202020207C200D0A207C2020FE
:1053200020202020202020202020202020207C2021
:105330000D0A207C2020202020202020202020203A
:10534000202020207C200D0A207C202020202020CE
:10535000202020202020202020207C200D0A207CBE
:10536000202020202020202020202020202020203D
:105370007C200D0A207C5F5F5F5F5F5F5F5F5F5F28
:105380005F5F5F5F5F5F7C200D0A00000D0A2020D9
:105390005F5F5F5F5F5F5F5F5F5F5F5F5F5F5F5F1D
:1053A00020200D0A207C20202020202020202020CA
:1053B0002020202020207C200D0A207C202020205E
:1053C0002020202020202020202A20207C200D0AA0
:1053D000207C202020202020202020202020202071
:1053E00020207C200D0A207C20202020202020202E
:1053F00020202020202020207C200D0A207C20201E
:1054000020202020202020202020202020207C2040
:105410000D0A207C20202020202020202020202059
:10542000202020207C200D0A207C5F5F5F5F5F5F73
:105430005F5F5F5F5F5F5F5F5F5F7C200D0A000003
:105440000D0A20205F5F5F5F5F5F5F5F5F5F5F5F91
:105450005F5F5F5F20200D0A207C2020202020201D
:10546000202020202020202020207C200D0A207CAD
:10547000202020202020202020202020202020202C
:105480007C200D0A207C202020202020202020208D
:105490002020202020207C200D0A207C202020207D
:1054A0002020202020202020202020207C200D0AC9
:1054B000207C202020202020202020202020202090
:1054C00020207C200D0A207C20202A202020202043
:1054D00020202020202020207C200D0A207C5F5FBF
:1054E0005F5F5F5F5F5F5F5F5F5F5F5F5F5F7C20EE
:1054F0000D0A00000D0A20205F5F5F5F5F5F5F5F46
:105500005F5F5F5F5F5F5F5F20200D0A207C202070
:1055100020202020202020202020202020207C202F
:105520000D0A207C20202020202020202020202048
:10553000202020207C200D0A207C202020202020DC
:10554000202020202020202020207C200D0A207CCC
:10555000202020202020202020202020202020204B
:105560007C200D0A207C20202020202020202020AC
:105570002020202020207C200D0A207C202020209C
:105580002020202020202020202A20207C200D0ADE
:10559000207C5F5F5F5F5F5F5F5F5F5F5F5F5F5F3D
:1055A0005F5F7C200D0A00000D0A20205F5F2A5FEC
:1055B0005F5F5F5F5F5F5F5F5F5F5F5F20200D0A20
:1055C000207C5F5F5F5F5F5F5F5F5F5F5F5F5F5F0D
:1055D0005F5F7C200D0A00000D0A20205F5F5F5F87
:1055E0005F5F5F5F5F5F5F5F5F5F5F5F20200D0AF0
:1055F000207C5F5F5F5F5F5F5F5F5F5F5F5F5F5FDD
:105600005F5F7C200D0A202020202A2020202020DF
:10561000202020202020202020200D0A0000000033
:105620004E6F6E65206F6620746865203644206F6B
:105630007269656E746174696F6E2061786573203C
:1056400069732073657420696E204C495332445746
:105650003132202D20616363656C65726F6D6574F6
:1056600065722E0D0A0000002DE9FC470546002456
:105670002868DFF8FC630105A14621D5686E70B18A
:10568000B0F5800F17D0B0F5000F03D0B0F5400F84
:1056900009D013E0326842F48032326004E0002125
:1056A00000F07FF9044654B9F16F686E21F44001AF
:1056B0000143F16704E000F06EF9F3E70124A1462D
:1056C0002868C10421D5A86EA8B1B0F1807F17D099
:1056D000B0F1007F03D0B0F1407F04D013E0316817
:1056E00041F4803131607CB9F16FA86E21F04071D6
:1056F0000143F16709E0002100F053F90446F2E7A5
:1057000000F049F9FAE70124A146286881032BD566
:10571000F06CC1004FF000080AD4F06C40F08050EB
:10572000F0644FF00108F06C00F080500090009899
:10573000DFF81874386840F480703860FEF7BAFEFD
:1057400082463868C10500F1F780FEF7B3FEA0EB92
:105750000A000328F5D30324A146B8F1000F03D0B3
:10576000F06C20F08050F0642878C10705D5F26F06
:10577000A86B920840EA8202F2672978880705D56B
:10578000F16FE86B21F00C010143F16729784807BC
:1057900005D5F16F286C21F030010143F1672978BC
:1057A000080705D5F16F686C21F0C0010143F1676E
:1057B0002978C80605D5F16FA86C21F44071014322
:1057C000F1672978880605D5F16FE86C21F440610E
:1057D0000143F1672968880505D5F16FE86D21F46B
:1057E00040210143F1672968480505D5F16F286E0E
:1057F00021F440110143F1672978480605D5F16F7E
:10580000286D21F440510143F1672978080605D538
:10581000F16F686D21F440410143F1672968C805C3
:1058200005D5F16FA86D21F440310143F167296876
:1058300088041FD5F16FE86E21F040610143F167E4
:10584000E86EB0F1006F0DD100F0A0F812E0FEF7A5
:1058500031FE001B41F289318842C0F08B804FF04D
:1058600003097AE7B0F1806F04D100F099F80100E4
:1058700018BF81462868010314D5F26F286F22F003
:1058800040620243F267286FB0F1006F02D100F06E
:105890007DF807E0B0F1806F04D100F081F80100DD
:1058A00018BF81462868410314D5F26F686F22F053
:1058B00040620243F267686FB0F1006F02D100F0FE
:1058C00065F807E0B0F1806F04D100F069F80100DD
:1058D00018BF81462868410418D5F26FA86F22F0DE
:1058E00040520243F267A86FB0F1805F03D10221FA
:1058F00000F057F807E0B0F1005F07D1022105F191
:10590000200000F0B7F8010018BF814628680104A4
:1059100005D5F26FE86F22F080420243F2672968F2
:10592000C80306D5F16FD5F8800021F0004101438E
:10593000F1674846BDE8F687002C7FF40DAFDFF82D
:105940004C72386810F440701CBFD5F8841088423F
:105950000BD03868396841F48031396020F44070E8
:105960003A6822F480323A603860C00706D5FEF704
:10597000A1FD0446386881077FF569AF3A68D5F81C
:10598000840022F4407202433A60E6E6306840F454
:10599000801030607047002105F1200000F06AB8E7
:1059A0000121281DFFE72DE9F04100F0E5F809D0BD
:1059B000F16801F0030181422BD150B300F0C8F827
:1059C0000CD026E0012804D023D303281BD016D303
:1059D0001FE0326891071CD500F0C1F8306820F054
:1059E000806000F0C6F880463068010133D5FEF7CC
:1059F00061FDA0EB08000328F6D3032536E03168EB
:105A00004A05E9D405E031688A03E5D431684A03E0
:105A1000E2D401252AE0012C326909D13B695D48B5
:105A200002405B0842EA01215B1E41EA435102E069
:105A30007B6900F081F83161306840F0806000F0EF
:105A400098F80446306801010CD4FEF733FD001BC2
:105A50000328F7D3D1E7B968002CDCD1326900F014
:105A600062F8E8E73169B8690143316158E0000044
:105A70000C1002402DE9F04100F07EF809D0F168E9
:105A800001F0030181422BD150B300F061F80CD03A
:105A900026E0012804D023D303281BD016D31FE00F
:105AA000326891071CD500F05AF8306820F0805019
:105AB00000F05FF880463068810026D5FEF7FAFCDA
:105AC000A0EB08000328F6D3032529E031684A0536
:105AD000E9D405E031688A03E5D431684A03E2D4A9
