:020000040800F2
:10000000708B002089890008A9880008AB88000847
:10001000AD880008AF880008B18800080000000023
:10002000000000000000000000000000B38800088D
:10003000B588000800000000B7880008B9880008EB
:10004000B3890008B7890008BB890008BF89000888
:10005000C3890008C7890008CB890008CF89000838
:10006000D3890008D7890008DB890008DF890008E8
:10007000E3890008E7890008EB890008EF89000898
:10008000BD880008F3890008F78900080000000017
:10009000000000000000000000000000FB890008D4
:1000A000FF890008038A0008078A00080B8A0008F5
:1000B0000F8A0008C3880008138A0008178A0008FE
:1000C0001B8A00081F8A0008238A0008278A000864
:1000D0002B8A00082F8A0008338A000800000000DD
:1000E000D1880008378A00083B8A00080000000019
:1000F0000000000000000000000000003F8A00082F
:1001000000000000438A0008478A00084B8A000864
:1001100000000000000000000000000000000000DF
:100120004F8A0008538A0008578A00085B8A000833
:100130005F8A0008000000000000000000000000CE
:10014000000000000000000000000000638A0008BA
:10015000678A00086B8A00086F8A0008738A0008A3
:10016000778A00087B8A0008000000000000000079
:10017000000000000000000000000000000000007F
:10018000000000007F8A000800000000000000005E
:10019000838A00082DE9F04F0FF2A41CA1B0DCE91E
:1001A0000089CDE900892A9DDFF8DC9B04910024B9
:1001B0008DF843500D944FF0FF38824616461F4687
:1001C0000FE0B3462C461BF8011B0498D0470028CB
:1001D000049000F0A2800D98401C641E0D90F2D196
:1001E00076193078252808D100210022079108923D
:1001F00009910A920B910C920DE06A4641463046F5
:1002000000F0DAFF050001D10D98A1E0D9D5012554
:10021000E6E741F0010116F8010F2028F9D0232864
:100220000CD02B2804D02D2805D0302809D076E01A
:1002300041F00201EFE741F00401ECE741F0080171
:10024000E9E741F01001E6E70F9209E00F98484511
:1002500005DA00EB800402EB4402303A0F92761C80
:100260003278A2F130000A28F0D330782E2818BF57
:10027000CDF8388022D116F8010F2A2807D1386826
:100280003860761C50F8042B38600E9216E02D284A
:100290000CBF761C002000220E920AE040B90E9A94
:1002A0004A4505DA02EB820403EB4403303B0E932C
:1002B000761C3378A3F130020A2AEFD3ADF8401050
:1002C00021A0317800F082FF08B116F8010B8DF8FB
:1002D00042009DF84200682804D1307868280AD18D
:1002E000622105E06C2804BF30786C2803D17121AD
:1002F0008DF84210761C12A806903A4616F8013B7B
:1003000002A9504600F064F838B912AA02A9504672
:1003100000F0C8F900287FF564AF404618E02A28AD
:1003200092D13A683A6052F8040B3A6000280F9074
:1003300003D540420F9041F00401761C95E7000080
:100340000000000000000000686A6C747A4C000035
:1003500021B0BDE8F08F622820D0682811D06A282B
:1003600003D06C2827D0712825D10868C01D20F043
:1003700007000860D0E900230830086019461046DD
:100380007047002A0A680A60106803D0121D0A60CC
:1003900000B217E0121D0A6080B217E0002A0A6856
:1003A0000A60106803D0121D0A6040B20AE0121DF4
:1003B0000A60C0B20AE0002A0A680A60106803D026
:1003C000121D0A60C1177047121D0A600021704794
:1003D0007CB50D4611461C462E69B4F1250200F08D
:1003E0004F811C3A00F08480121F022A40F2808064
:1003F0000E3A00F00981521F59D0093A78D0921E66
:1004000016D0521E35D0521E022A71D9121F30D07A
:10041000521F00F09880521E49D0521E00F0E28018
:10042000D21E00F0FF80921E41D0D21E3FD02DE19F
:1004300095F83A406C2C09D06869421C6A610A68D8
:100440000A6052F8043B0A60335429E10A680A60E2
:1004500052F8043B0A600093002201924FF0FF33F0
:100460002B636A46294600F098F9002840F118816C
:1004700003E195F83A000122FFF76DFFC5E900019D
:10048000002904D56869411C69612D220DE0288F7F
:10049000810704D56869411C69612B2205E0C0070A
:1004A00021D56869411C6961202232541BE095F80E
:1004B0003A000022FFF74FFFC5E9000195F8380028
:1004C000010710D5D5E90023002B08BF002A0AD068
:1004D00044F02000782806D1686930213154401C4E
:1004E000421C6A613454214668693044E86087E000
:1004F0000868C01D20F007000860D0E9002308301C
:100500000860C5E90023D5E90001C80F04D0686977
:10051000411C69612D220DE0288F810704D568698F
:10052000411C69612B2205E0C00704D56869411CA4
:1005300069612022325468693044E86021462846C7
:1005400000F036FAACE005F13A02507820B14FF0F5
:10055000FF340FF6043074E01078622808D0682861
:1005600024D06A2812D06C282ED071280ED02BE00F
:100570000A680A6052F8040B0A6020B94FF0FF3491
:100580000FF6EC205DE0E96A017089E00A680A6014
:1005900052F8040B0A6020B94FF0FF340FF6D02058
:1005A0004FE0EA6AD317C0E9002379E00A680A60DD
:1005B00052F8040B0A6020B94FF0FF340FF6B02058
:1005C0003FE0E96A01806BE00A680A6052F8040BB8
:1005D0000A6020B94FF0FF340FF6942031E0E96A49
:1005E00001605DE00A680A6052F8040B0A600021AD
:1005F00020F0000221F0FF33C5E90023EE607821EE
:10060000284600F02DF94BE06C2285F83A200B6863
:100610000B6053F8042B0B6052BB4FF0FF340FF606
:1006200084200EE095F83A206C2AF0D00868086023
:1006300050F8044B0860EC603CB94FF0FF340FF603
:10064000482000F0EBFD201A76BD2E6B002E04D55D
:10065000204600F003FE044608E032460021204612
:1006600000F026FE002814BF041B3446AC6117E0DE
:10067000294600F092F8002812D54FF0FF3076BDE1
:100680006869411C69612522325409E06969481C86
:10069000686125227254210002D0431C6B613454DE
:1006A000002076BD2DE9F0410E4605469046726B5E
:1006B0007069316AB46A121AB069521A716A121AF0
:1006C000F069521A121A96F83800141B41070DD41B
:1006D000002C0BDD2746B0682021A8470028B06019
:1006E00057D0F06A401C7F1EF062F4D17369424615
:1006F0003146284600F098FC00284AD1376A002F7E
:100700000ADDB0683021A8470028B06041D0F06A07
:10071000401C7F1EF062F4D1B369F268314628466E
:1007200000F082FCA8BB776A002F09DDB068302199
:10073000A847B06068B3F06A401C7F1EF062F5D134
:10074000F068B169F36942183146284600F06CFC44
:10075000F8B9B76A002F09DDB0683021A847B0604A
:10076000B8B1F06A401C7F1EF062F5D196F83800EF
:1007700041070BD5002C09DDB0682021A847B060E7
:1007800038B1F06A401C641EF062F5D10020BDE86B
:10079000F0814FF0FF30BDE8F0812DE9F8470D46BC
:1007A000A3B02F6B002F0646904648BF6FF000475E
:1007B0000FF60C1400F0A8FDD4E90023696B401873
:1007C000CDE90123812828BF4FF0FF3042D2002419
:1007D000002F33DDD8F8001001AA684600F0EEFCC7
:1007E0008146B9F1000F38D4D8F8000010B9B9F13A
:1007F000010932D44F4521DB6869484481280AD376
:100800000021696303AA29463046FFF74BFF040025
:1008100014D40020686103ABD5F814A04A46694699
:1008200003EB0A0000F082FDCA44C5F814A058F892
:10083000040B002818BFA7EB0907C9D14CB903AABC
:1008400029463046FFF72EFF044614B900206861A0
:100850006863204624B0BDE8F0874FF0FF34F8E726
:100860002DE9FC4307466F293E6908BF082405D0DF
:1008700041F02000782814BF0A2410243C25D7E931
:100880000023642918BF69299046994605D1002B99
:1008900003D5D8F1000869EB4909B9F1000F08BF89
:1008A000B8F1000F1FD1386BE8B9082C4CD197F87C
:1008B0003800010748D530203B2586F83B0043E04F
:1008C00000280ED597F8380000F01400102808D141
:1008D0007B6B7969386A5B1A1B1A9A1A002AC8BF9F
:1008E0003A62BDE8F3838DF800104046494622463F
:1008F000E31700F027FD3032D0B26D1E3A28019583
:1009000004DB9DF80000A0F151018A1872554046A1
:1009100049462246E31700F015FD80465FEA0109CB
:1009200008BFB8F1000F03D0F86871198842DCD312
:10093000082C09D197F83800010705D5705D3028DB
:1009400002D06D1E30207055C5F13C02BA6171199C
:10095000F960386B8242B3DA821A3A624FF6EF706E
:10096000398F01403987BDE8F3832DE9D04306462E
:100970000F4614464FF00008DFF8109412E0E0072D
:1009800007D542464B463046394600F05FFD0646E5
:100990000F464046494642464B4600F057FD64101C
:1009A00080468946002CEAD130463946BDE8D083DE
:1009B0002DE9F84F05468A464AF020048EB0D5E965
:1009C0000089612C02AE09D0286B002848BF0620A0
:1009D00003D408BF672C01D101202863D5E90001A9
:1009E0004A005215521C0DD10B030BD0AAF1610124
:1009F00003201A29A86102D20FF2CC6110E00FF295
:100A0000CC610DE04A005215521C0ED10B030CD1E3
:100A1000AAF1610103201A29A86116D30FF2B4616B
:100A2000E868032200F082FCC0E1CDE90C01DDE9B9
:100A30000C2323F00043B3F5801F0DD20027002BB9
:100A400008BF002A019703D111E00FF28461E7E7A4
:100A500001AA00F0CDFD0AE0CD48CE4900EB1350CD
:100A6000DDE90C2301900B40CB4910461943C5E941
:100A70000001612C0DD1E86830210170821CBAF1AF
:100A8000610FEA600CBF7821582141706869801CB1
:100A90006861D5E90001CDE90C01DDE90C2333F0F3
:100AA000004104BF0028002300F04881612C40F081
:100AB000A080286B494600284CBF4FF0210B00F165
:100AC000010B404600220023DDE90C8900F0C8FD3F
:100AD00001990BF1010738BF89F00049091F002F68
:100AE00001918DF808200DF1090040F33581A949E5
:100AF00000910646404649460022002300F0C8FD0A
:100B000080F029814800400D00F11C0211D0002A1C
:100B10000FDD40F2FF739A4205DBA04909F0004067
:100B20000143002011E0009B194041EA0251404678
:100B30000BE028F0000039F0004108BF00280FBF8B
:100B400049461C22494600F0BBFD8046894600F01C
:100B500055FEFF1F002F044609DD00F06DFE024622
:100B60000B464046494600F079FE80468946F01D16
:100B7000072104E004F00F0200F8012D2411002CDD
:100B800001DD491EF6D5491E5CBF002200F8012D8B
:100B9000F9D5DCE00020194602AA0A4400E05B1EF9
:100BA00012F80149491E8442F9D00F2804D10DF1F1
:100BB0000900425C521C4254002904D50198001DD2
:100BC00002AE5B1C0190581E0CD43118AAF13A04F5
:100BD0000A783032D7B23A2FA8BFA218401E01F8C7
:100BE0000129F5D5286B002840F1A780591E2963FB
:100BF000A3E001996A4A47F29750414391FBF2F210
:100C0000019229F00046D2F1070204DD4046314648
:100C1000FFF7ABFE0AE0524200206249FFF7A5FE53
:100C200002460B464046314600F08AFE8046662C5E
:100C3000286B06BF019F0A3706273F18142FC8BF2D
:100C4000142730208DF8080089460DF1090000E0D6
:100C50003046002F34DD06464046494600F094FFFA
:100C600001460A4606F1080304200A26B2FBF6F6FE
:100C700006EB860EA2EB4E02303203F8012C0A225C
:100C8000B6FBF2F202EB820EA6EB4E063036401EA9
:100C900003F8026DE9D1083F002F03F10806D7DD04
:100CA000084600F085FF02460B464046494600F0E4
:100CB000D5FD00223C4B00F0C9FB80468946CBE7BE
:100CC0000DF10901401A0DF1090604E00199491ED0
:100CD000401E0191761C31783029F7D0662C02D164
:100CE0000199491C03E0652C0CBF012100212B6BED
:100CF000CB189842B8BF431E002B1ED4834204DA9F
:100D0000F05C3528A8BF392000DA30201946721E61
:100D100002EB010800E05B1E18F80199491E8145AD
:100D2000F9D0392802D1705C401C7054002904D5D8
:100D30000198401C16465B1C0190019800B200907F
:100D40001BB232465146284600F034F82EE0C61D4C
:100D5000002F3FF7CFAE30460DF10901401A034690
:100D60005845C8BF5B46002B0DF109063FF53AAF69
:100D70008342BFF60FAF0DF10900C15C07297FF771
:100D800009AF0F2007E70000CBCCCC0C00002440BB
:100D900002FCFFFFFFFF0F800000E03F0000F07F3C
:100DA000A08601000000F03F84D797410FB0BDE856
:100DB000F08F00002DE9F84783B006468A461746B3
:100DC000984600F0FDF9B8F1000F406A356B90F8D5
:100DD000009002DC4FF00108BFA74AF02000BDF9E7
:100DE0003040662808BF641C15D0672840F0848016
:100DF00014F1040FC0F28680AC4280F2838096F832
:100E00003800641C010702D4A845B8BF454620B28B
:100E10002D1A48BF00250FFA84FAF068B169BAF1BB
:100E2000000F25DC4A1C30234354002D03DC96F8C8
:100E30003800010703D5F06800F80290521C15EB4A
:100E40000A0FB8BF6C4220B2441941424445B8BFB2
:100E5000A046B26171620FFA88F5F561F068B36976
:100E60002A463946184400F061FA641BB462C4E0B3
:100E700022B29045084417DA4246394600F056FA45
:100E8000B0694044B061AAEB0801002D716203DC37
:100E900096F838100A0705D5F16801F80090F06956
:100EA000401CF061B562A8E0394600F03FFAB06935
:100EB000002D5044A8EB040803DC96F838100A070C
:100EC00003D5F16801F80090401CB0610FFA88F07A
:100ED0008542F368B069B8BFA8460FFA88F207EBFD
:100EE0000A01184400F022FAB1690FFA88F00144AF
:100EF000B161281A706280E0BAF1610F14D14FF02D
:100F0000700A16E0A84504DA96F838100A0758BFA8
:100F100045466D1E48BF0025BAF1670F14BF4FF05C
:100F2000450A4FF0650A04E0BAF1410F08BF4FF0DF
:100F3000500AB169F368481CB061002D17F8012B05
:100F40005A5403DC96F838100A071BD5F168431C85
:100F5000B36101F80090002D14DDA8F101080FFA2B
:100F600088F039468542F768B8BFA8460FFA88F27C
:100F7000F81800F0DBF9B0690FFA88F108446D1A2F
:100F8000B0617562F068B1690844002C80F800A077
:100F900003D42B224270811C03E02D214170644256
:100FA000811C00206A460AE023460A2493FBF4F4DD
:100FB00004EB8405A3EB450302F8013B401C24B27B
:100FC000002CF1DC012806DC4AF02002652A04BF6F
:100FD000302201F8012B48B9302001F8010B07E05D
:100FE000401E1DF80030303301F8013B0028F7DCCB
:100FF000F268B0691044091AF16196F8380000F0FF
:10100000140010280DD17269B169706A8A18F169EB
:101010008218B06A8A188218706B8242BCBF821A2A
:10102000326204B0BDE8F087F8B505460E461746B3
:101030001C46002074B117F8011BB068A847B060C7
:1010400030B1F06A401CF0620020641EF3D1F2BDA2
:101050004FF0FF30F2BD00007072696E74665F730E
:101060003A20256E20646973616C6C6F776564004B
:101070007072696E74663A2062616420256E206128
:101080007267756D656E74007072696E74665F73F9
:101090003A2062616420257320617267756D656E08
:1010A000740000007072696E74665F733A2062614A
:1010B0006420256C7320617267756D656E74000025
:1010C00000000000000000006E616E004E414E0006
:1010D000696E6600494E46003000F0B40246106862
:1010E00095681318506803EB5004C0071DD54D4494
:1010F0001BE013F8017B05F8017B491EF9D1A0B173
:10110000B60813F8011B06F00306032E08BF13F8F8
:10111000016B01EB06214942801C294405D011F8DE
:10112000016B05F8016B401EF9D1A3420ED013F8F4
:10113000016B16F0030104BF13F8011BC91C300931
:101140000F28DAD113F8010B0F30D6E7F0BC02F10B
:101150000C0070471B48704770B45368D418042BB8
:1011600009DA41B1057804F8015B10F8016B16B19A
:101170005B1C491EF3E7536070BC704738B51446DA
:101180001D4661B1FFF7E8FF61686A6B2046904732
:101190006FF00102811A02D0491E01D001E003E084
:1011A00005E00021616032BD6FF0010032BD4FF0FB
:1011B000FF3032BDDA6B1047024BDFE7014BF9E736
:1011C00001487047540300201C030020C9B2027874
:1011D0008A421AB11CBF10F8012FF9E718BF00208E
:1011E000704730B4002513E050F8042BD30744BFF8
:1011F000A9F101039A18091F042942F8045BFAD2E5
:1012000013468C0744BF15809B1CC90748BF1D703F
:1012100050F8041B0029E7D130BC704780B500B9F5
:1012200006A005490B681BB122220021984701E066
:1012300000F0CBFC222002BD6C0B0020636F6E73AC
:10124000747261696E742068616E646C65723A20B4
:10125000626164206D6573736167650000F101036D
:10126000810704D010F8011B820781B1FAD102680E
:10127000A2F10131914311F0803104BF50F8042FE5
:10128000F6E709BAB1FA81F100EBD100401CC01AAF
:101290007047B1F5807F02D34FF0FF307047017087
:1012A000012070470078401E8041C043C00F704746
:1012B000C9B2830706D0521E22D310F8013B9942CF
:1012C000F7D11FE0083A13D302F1040241EA0121E9
:1012D00041EA014150F8043B121F21BF4B40A3F1EA
:1012E000013C2CEA030C1CF0803FF3D0C9B2001F74
:1012F000083210F8013B521E28BF91EA030FF8D8BC
:1013000018BF0120401E704780B5FFF723FF006C17
:1013100002BD8268521C8260426832B10268531C6E
:10132000036011704168491E416070474AB1000076
:1013300011F8013B521E00F8013B1CBF11F8013BA4
:10134000F8E77047D3BBD9B1B2F5803F5BD2022A30
:101350001ED98C46B1FBF2F102FB11C31B0443EA18
:101360001043B3FBF2FC02FB1C3380B240EA0343A0
:10137000B3FBF2F002FB103240EA0C40002370474E
:10138000022A05D98446B0FBF2F002FB10C2704776
:101390004AB105D100F0010249085FEA3000704708
:1013A00000220023704700F013BC0B000200002154
:1013B00000207047F7D3002200237047904271EB62
:1013C000030CF2D370B5B1FA81F4B3FA83F52C1B98
:1013D000A340C4F1200532FA05F63343A2405FF082
:1013E0000046E64002E05B085FEA3202841A71EBD5
:1013F000030524BF204629467641F4D302000B00A2
:101400003000002170BD70B5B1FA81F4B2FA82F5F6
:10141000C4F120046419B4F12006DAD3B2405FF0BD
:101420000044F440002502E052085FEA3303C61A84
:1014300071EB020E24BF3046714664416D41F3D317
:1014400002000B002000290070BD0000B0B581EA49
:10145000030C0CF0004C40F2FF7515EA11541DBF4F
:1014600015EA1357AC42AF4239E0E41923EA455379
:1014700043F48013C90241F0004141EA505EC702C3
:101480001100A7FB020200284FF00000EEFB012034
:101490004FF00001E3FB072118BF42F001024018A2
:1014A00000214941E3FB0E01A4F580640F0302D241
:1014B00052004041494154F101046CDD470872F18A
:1014C000004250F1000051EB0451A1F580115CBFC6
:1014D00041EA0C01B0BD4CEA05510020B0BD05EA5F
:1014E0001357AC4214BFAF4241E050EA410E1CBF5B
:1014F00052EA430E02E061460020B0BD24423C4463
:101500001BD15FEA070EF6D0090302BF0146002097
:10151000AEF1140EB1FA81F7AEEB070401FA07FE43
:101520000C37C7F1200100FA07F7C8404EEA000E59
:1015300023EA455343F48013A2E733F00043B3FAA0
:1015400083F704BFB2FA82FE77440B3FE41BB7F186
:10155000200E2FBF02FA0EF3BB40C7F1200E22FA75
:101560000EFE38BF43EA0E03BA40641C82E750EA1D
:10157000410E14BF52EA430E6FF000014FF4001702
:1015800017EB430F8ABF194617EB410FB5E74CEA3B
:1015900005510020B0BDD4F10104B4F120070FDAE9
:1015A000C4F12007520828BF42F0010210FA07F5E3
:1015B00001FA07F7E1BF2A43E0403843E1400FE07A
:1015C000352C98DCC7F1200452EA400220FA07F2D9
:1015D00018BF42F0010231FA07F0A1400A4300218E
:1015E00072F1004250F1000051EB0C01B0BD00005F
:1015F00010B5144600F002F8226010BDC1F30A5382
:1016000043B14A0012F5001F28D2A3F2FE32A1EB2B
:101610000251704750EA410C20D001F0004C31EAF1
:101620000C01B1FA81F204BFB0FA80F3D2180B3A80
:10163000B2F120032CBF00FA03F1914041EA0C0102
:101640003EBFC2F1200C20FA0CF3194390405242E5
:1016500040F2FD33D21A01EB03517047002270476C
:101660004FF4001C1CEB410F94BF1CEB430F09E02F
:1016700041EA030C50EA4C0C52EA0C0C03D299429A
:1016800008BF9042704714BF8B42824270470000EF
:101690004FF4001C1CEB410F94BF1CEB430F09E0FF
:1016A00041EA030C50EA4C0C52EA0C0C03D28B4278
:1016B00008BF8242704714BF9942904270470000B1
:1016C000124254D440F2FF7C1CEA11530FD0634500
:1016D00031D09B1863453CBF01EB0251704701F0CC
:1016E000004141EA0C510020AFF30080704750EAFE
:1016F000410320D001F0004C91EA0C011CD0B1FA5A
:1017000081F30B3B9A420DD9D21A994051EA0C0150
:10171000C3F1200C20FA0CFC61449840531C40F2A9
:10172000FF7CD7E7914041EA0C01C2F1200C20FA7E
:101730000CF3194390407047B0FA80F31533202B17
:10174000E0D3202AEED3203A203B9A4209D9D21A7C
:1017500000FA03F141EA0C010020531C40F2FF7C27
:10176000B8E700FA02F141EA0C010020704752424A
:1017700040F2FF7C1CEA11530DD06345DBD0B2EB85
:10178000030C3CBFA1EB025170470CF1010221EAAE
:10179000035141F4801150EA410CCCD001F0004CCF
:1017A000352A27DC30B481EA0C01B2F1200309DAD2
:1017B000C2F12003044601FA03F5D0402843D1408A
:1017C0009C400CE0C3F12002450020FA03F418BF4E
:1017D00044F0010421FA03F091400C43002174F11C
:1017E000004550F1000051EB0C01244230BC7FF465
:1017F0007BAF70476146002076E70000C1F30A53D3
:1018000040F2FE329B1A14DDD3F120034FEAE1725D
:1018100008DDC90241EA505141F00040D84080182B
:101820005040704703F2E13010B1D24382F00040E3
:101830007047002070470000C11768B14840401A47
:10184000B0FA80F29040D21CC907C2F5846241EA26
:10185000025202EBD02140057047000070B44FF0F7
:10186000004591EA030F40F1BD816B40841A71EB92
:10187000030603D2001BB141121973414FF4001C3F
:101880001CEB410F34BF7CEB430442E00C0DA4EB96
:101890001356352E4FDC45EAC323DB0A45EAC12146
:1018A000C912B6F120050DDD63FA05F6EB4086EAB4
:1018B0000305124218BF45F00105C01851F100019F
:1018C0000CD213E062FA06F5F2405540F3415A405B
:1018D000B340F3405A408018594107D349085FEAA2
:1018E00030005FEA350528BF45F0010501F580119C
:1018F000420875F1004250F1000041EB04514E00E6
:1019000016F5001F70BC38BF70470020090D09058F
:1019100070471CEB410F10D252EA43060BD0BCEBD0
:10192000410F05D80C0DAB43661E342EB6DD02E028
:10193000AB438018594170BC704770BC70470000C1
:10194000F0B540F2FF7581EA030C0CF0004C15EA8B
:1019500011541DBF15EA1357AC42AF42E5E0BC413C
:10196000C1F31301C3F31303801A994143F48013A5
:1019700004D2641E4000494180185941C90241EA1D
:101980005051B1FBF3F603FB1611A2FB0675D7EB22
:10199000C020A94102D2761E80185941C90241EAED
:1019A0005051B1FBF3FE03FB1E11A2FB0E75D7EBEA
:1019B000C020A94103D2AEF1010E8018594189021D
:1019C00041EA9051760546EA8E2EB1FBF3F603FB11
:1019D0001611A2FB0675D7EB8020A94102D2761E14
:1019E00080185941C90241EA50514EEA060EB1FB36
:1019F000F3F603FB1611A2FB0675D7EBC020A94135
:101A000002D2761E80185941C90241EA5051B1FBF9
:101A1000F3F703FB1711A2FB0735D3EBC020A94155
:101A200067F100070CBF004247F0010766F3D527B6
:101A30004FEA1E31B80814F5806412DDBD0775F158
:101A4000004250EB0E5051EB045111F5801F5CBF6A
:101A500041EA0C01F0BD4CF07F6141F0E041002013
:101A6000F0BDBD076D0840EA0E5041F48011D4F17D
:101A70000104B4F120060ADAC4F120060200E040B5
:101A800001FA06F3E1401843B24015430EE0342C4E
:101A900013DCC6F1200445EA40056D0820FA06F281
:101AA000154321FA06F0A1400D43002175F10042D3
:101AB00050F1000051EB0C01F0BD00205FEA0C0179
:101AC000F0BDCFB992185B41B3FA83F704BFB2FA05
:101AD00082F6BF190B3FB7F120062FBF02FA06F3BB
:101AE000BB40C7F1200622FA06F638BF3343BA409E
:101AF0001CB1E419641E33E77F4231F00041B1FAB2
:101B000081F404BFB0FA80F6A4190B3CB4F12006AE
:101B10002FBF00FA06F1A140C4F1200620FA06F614
:101B200038BF3143A0403C1B1AE7AC421ABF05EA5C
:101B30001357AF4212E050EA41061CBF52EA430677
:101B4000BFE750EA4107304661461CBF41EA0551F4
:101B5000F0BD52EA430C08BFC143F0BD00204FF472
:101B6000001616EB410F98BF16EB430F08BF16EB9C
:101B7000410F24BFC14305E016EB430F0CBF614684
:101B80004CEA0551F0BD0000400D491840EA8120A3
:101B90000CD2490DA1F58061491C40F0004005DBE5
:101BA000D1F11F0154BFC840C017704700207047D3
:101BB000014648B1B0FA80F18840C91CC1F5846182
:101BC000090501EBD02140057047012000F0C0B8A5
:101BD0007047000070B44FF0004591EA030F7FF5A5
:101BE00045AE6B40841A71EB030604D26E40001BB5
:101BF000B141121973414FF4001C1CEB410F34BF6B
:101C00007CEB430683E00C0DA4EB1356362E00F359
:101C10007C80012E45EAC32341DC43EA525312BFC4
:101C2000D20292025B08240545EAC12141EA5051E3
:101C3000D2EBC020994125D407D1B0FA80F610FA32
:101C400006F162D00020203608E0B1FA81F6B140FA
:101C5000C6F1200220FA02F21143B0404FEAF474B8
:101C6000B4EB465434F001064FEA74040AD8D6F5B2
:101C70000016760D04F00044F04061FA06F2504080
:101C8000F1404840C00A40EA415021F0004128BFDD
:101C90005FEA500550F1000044EBD12135E0DB0A4A
:101CA00045EAC121C90AB6F120050EDD42EA024229
:101CB000120CC5F1200603FA06F6EB4042EA0605CF
:101CC0006D42984161F100010DE062FA06F5F240C3
:101CD000554063FA06FC82EA0C02F3405A406D421A
:101CE000904161EB030111F4801F05D1641E620570
:101CF00002D06D004041494121F48011430875F143
:101D0000004350F1000041EB045170BC70471CEBE4
:101D1000410F15D223F0004352EA43060BD04FEA9D
:101D20004C0CBCEB410F04D80C0D661E342EB7DDF5
:101D3000EBE7801A994150EA410608BF0021E4E729
:101D400008BF1CEB430F28BF6FF00001DDE7000068
:101D500080B5AFF30080024A11001820ABBEFBE74C
:101D600026000200F8B5040025D004F13C0569788E
:101D700021B900202870204600F038FC2421697029
:101D8000206802685208520002602068016841F42D
:101D9000004101602068026822F40042026000F005
:101DA000ADFC01466068DFF87023904205D2DFF891
:101DB000AC33994205D20120F2BDDFF8A403814281
:101DC000F9D32068DFF89C334668B1FBF3F3B6091A
:101DD00043EA861646602668376A6068904206D3F2
:101DE0004FF4967043434FF47A70B3FBF0F35B1CEF
:101DF000BF0943EA87133362491E2368DE696768B7
:101E0000974206D27F0000F043F8042913D2042140
:101E100011E0A06820B907EB470700F039F805E0AA
:101E20001920474300F034F841F4804108050CBF05
:101E3000012141F40041DFF8300306400E43DE612A
:101E400022681368E169206A23F0C0030B4303434F
:101E500013602268DFF81403936821690340E06887
:101E60000B43034393602168CA68A3696069120A3F
:101E7000034343EA0222CA602068016841F001017D
:101E8000016000206860202169702063A870F2BDA5
:101E9000B1FBF7F1491CC1F30B01704738B50400E1
:101EA00001D1012032BD04F13C052420687000F00E
:101EB000E4F900F073FC0020686068702063A8708B
:101EC000287032BD308D7262411E3185708D411E89
:101ED000718570474146204600F000BB2DE9FC4764
:101EE00000F082F800F07AF855D100F06FF8002881
:101EF00051D1387801284ED000F062F801D400F0BA
:101F000099F94146D6F800E00C9D0B98DDF828C001
:101F1000DEF8008028F40068CEF800804FF0210E33
:101F200087F801E04FF0400887F802804FF0000E7C
:101F3000C7F804E000F005F900F0B1F9002825D158
:101F400008E0716A0A780261706A411C7162308D22
:101F5000FFF7BAFF308D88B100F02DF888B900F096
:101F60001DF8308D411E3185708D421E728530689E
:101F700042695307EED589B20029E2D100F016F884
:101F800030B17868042801D100F03BFA012003E069
:101F900000F030F800E00220BDE8F687706A326891
:101FA00001781161706A411C7162704722462946AE
:101FB000304600F0BDBA22462946304600F08EBABF
:101FC0000121397030680268D107704700941923E5
:101FD0000122DFF87C12304600F01CBA06F13C0703
:101FE00004467878202870470646884691469A46E7
:101FF00000F0D6BB3068016841F400710160202018
:1020000078700021B9700020387070472DE9FC47C6
:10201000FFF7EAFFFFF7E2FF72D1FFF7D7FF0028D3
:102020006ED1387801286BD0FFF7CAFF01D400F0D9
:1020300001F94146D6F800E00C9D0B98DDF828C068
:10204000DEF8008028F40068CEF800804FF0220E01
:1020500087F801E04FF0400887F802804FF0000E4B
:10206000C7F804E000F06DF800F05CF9002840D1FA
:10207000308D18B1012804D100F0A7F800F04EF817
:1020800017E0022807D1306800F09AF800F070F8E5
:102090000020009001E000210091316800F0E7F895
:1020A00007E000F088F8002823D100F067F8FFF778
:1020B00009FF308D002826D0042817D20128F0D03F
:1020C00000F024F80AD100F071F8002811D100F0D6
:1020D00083F8716A0870706A421CE8E700F066F8DD
:1020E000002806D100F08DF818B9F0E700F063F889
:1020F00008B1012005E000F048F8DAD50069E8E70A
:102100000220BDE8F68700F015F8FAE70228DFF8AC
:10211000508100942B467047A186010000903168E1
:102120004A6900928B69009300980A6842F4007231
:102130000A607047202078700021B9700020387044
:102140007047C6F824C070855346708D30854A4666
:102150003B48F062019400953046704780841E0031
:1021600000093D0040420F000030FFFF007CFFFFF0
:102170003068026842F400620260704730680169AA
:10218000706A0170716A4A1C704730680169706A30
:102190000170716A308D4A1C411E72623185708DEA
:1021A000411E7185306841694A07704700224146E7
:1021B000304600F02FB922462946304600F0D4B907
:1021C000016821F48061016070473068016821F482
:1021D00080610160002070473068016841F400713F
:1021E000016030680169706A0170716A308D4A1C43
:1021F000411E72623185708D411E71853268106991
:1022000070473068016821F4806101602B463068B6
:102210000169706A0170716A308D4A1C411E7262D8
:1022200031850022708D411E7185009441463046F3
:1022300000F0F0B8026842F001020260704700004E
:102240000000FFFF3068016841F480710160704751
:1022500002001000016841F48061016070470000D5
:102260000400010090F83D007047006C70474A6917
:1022700000928969009100987047206801684908B8
:102280004900016020467047434600224FF001118B
:102290002046BFE04B46424651462046E2E02DE94B
:1022A000F84304462068DDF82080099F89460168CC
:1022B00041F4807115461E4601600097FFF7E4FF68
:1022C00040B120680168CA0544BF4FF40070206423
:1022D000032025E0206809F0FE0101613B464246EB
:1022E0004B49FFF7DAFFA8B90090216800F07AF8AF
:1022F000FFF7F1FD40B9012E0ED02168280A0861D0
:102300003A46FFF7E7FD38B1206C042802D1206877
:1023100000F078F8012003E02068EDB205610020AC
:10232000BDE8F2832DE9F84F05462868DDF82880DE
:102330000B9F0C46FFF78EFF16462868016841F494
:1023400080719946016000F055F800284FF4007A3A
:102350002CD12968DFF8B8B004F0FE00086100F065
:1023600038F8002832D10090296800F03BF800F0DE
:1023700037F870B9B9F1010F05D02968300A086142
:1023800000F02CF828B92868F6B2066100F026F8AB
:1023900030B1286C042819D1286800F033F815E012
:1023A0002868FFF750FF00F025F838B12868016869
:1023B000CA0548BFC5F840A0032008E0286844F0DB
:1023C0000104E4B2046100F004F800B10120BDE8AA
:1023D000F28F3B4642465946284643E03A4641463C
:1023E00028467BE04A6900923A4689690091414655
:1023F000009870470097434600224FF0011128468D
:1024000008E03068016841F4007101607047000025
:10241000020001002DE9F041069F05460E46904658
:102420001C4631022868090E01290CBF40698069E9
:10243000304080B2B1B288420CBF0120002040453C
:102440000DD114F1010FECD000F0AAF9C01B8442A9
:1024500001D3002CE5D100F05DF8012000E0002060
:10246000BDE8F081F8B505460E4614461F46310218
:10247000090E286801291BD14169314089B2B2B2E5
:1024800091421BD041694A051AD5FFF7BBFF6FF493
:1024900080602A685061002105F13C0029632022F8
:1024A00042708170426842F004024260017013E0A1
:1024B0008169314089B2B2B29142E3D10020F2BDCC
:1024C00014F1010FD3D000F06BF9C01B844201D38B
:1024D000002CCCD100F01EF80120F2BD70B50546ED
:1024E0000C46164628684169080611D4284600F0B3
:1024F00067F858B914F1010FF4D000F051F9801BBE
:10250000844201D3002CEDD100F004F8012070BD0D
:10251000002070BD00202863202105F13C0000222E
:1025200041708270416841F0200141600270704743
:1025300070B505460C46164628684169480711D40F
:10254000284600F03DF858B914F1010FF4D000F01E
:1025500027F9801B844201D3002CEDD1FFF7DAFF6D
:10256000012070BD002070BD70B505460C461646B2
:10257000286841694A0617D44169CA060BD400F09D
:102580000FF9801B844201D3002CF1D100F00EF82A
:1025900041F0200104E06FF01001416100F006F805
:1025A00041600270012070BD002070BD00202863D2
:1025B000202105F13C000022417082704168704783
:1025C00001684A6953050FD56FF480624A610021A2
:1025D00001633C30202242708170426842F0040264
:1025E0004260017001207047002070477047000072
:1025F0002DE9F04104000F4678D0494E306800F0D4
:102600000F00B84202D200F073F86FD12068454D38
:10261000810712D5400703D5A96841F4E051A960AC
:102620002078010703D5A86840F46040A860A96835
:10263000A06821F0F0010143A9602178C8074DD5B9
:102640006068012802D129688A0305E0022818BFC2
:10265000032803D129688A0103D447E029688A073F
:1026600044D5A968890840EA8100A86000F098F87C
:102670008046A868616800F00C00B0EB810F2DD097
:1026800000F08EF8A0EB080041F289318842F0D3C7
:10269000032021E02078410705D5AA68E06822F4EC
:1026A000E0520243AA602178080706D5A96820698C
:1026B00021F4604141EAC001A96000F03FF8AA6836
:1026C00019491A4BC2F30312895CC84018601848B4
:1026D000006800F06BF80020BDE8F081306800F081
:1026E0000F008742D6D200F003F8D3D00120F3E7E1
:1026F0003770316801F00F01B94270470B480D4A3D
:10270000006813680C49C3F3822206E00748094AAF
:10271000006813680849C3F34232895CC8407047B7
:10272000003C02400038024058880008080300209E
:10273000B802002008380240A489000830B5144CC3
:10274000606800F00C00042802D0082802D01DE0C8
:10275000104830BD226820680023410202F03F0289
:1027600004D525680B49C5F3881003E020680A49A1
:10277000C0F38810A1FB0001FEF7E4FD2168C1F35E
:102780000141491C4900B0FBF1F030BD024830BDA9
:102790000438024000127A000024F4007047000060
:1027A00001484068704700BFB002002038B50D4DA9
:1027B0000D4B2A7804464FF47A711868B1FBF2F297
:1027C000B0FBF2F000F054F850B9102C08D20022FF
:1027D00021464FF0FF3000F023F8AC60002032BDFE
:1027E000012032BDB00200200803002009010200D0
:1027F00002D4294881547047284B02F00F021A4432
:1028000002F8041C7047264B19684FF6FF020002BD
:10281000114000F4E0600843224908431860704703
:1028200038B51F4B1C68C4F30223C3F10704052C01
:1028300028BF04241D1D072D34BF0023DB1E0125E6
:1028400005FA04F4641E2140994005FA03F35B1E67
:102850001A401143BDE83440C8E7010007D4012203
:1028600000F01F01104B8A40400943F820207047B8
:1028700010B5401EB0F1807F01D3012010BD0B4C7C
:1028800060600F214FF0FF30FFF7B0FF0021A16023
:1028900007202060002010BD00E400E018ED00E0FB
:1028A0000CED00E00000FA0500E100E010E000E0BF
:1028B00070B5044600254FF0FF362CB30868206041
:1028C0004A6862608868A0600A7B22730869206198
:1028D0004A6962618869DFF80816A0612162646252
:1028E000DFF80006E061206870B1804760B9A06839
:1028F000022804BF94F82800002806D10C221221D7
:10290000204600F07CFB00B13546284670BD38B546
:10291000044600F086FB00F0C2FC002821D100F044
:1029200080FB00F0A7FC00281BD100F076FB00F034
:10293000E1FCB0B904F128050420E87000F06BF860
:1029400078B900F06AFB00F0B7FB50B90420287199
:1029500000F0A3F928B9062104F11C0000F016FCD0
:1029600008B100F08BBB01202870002032BD10B5EB
:10297000044600F03DF818B9204600F07BF900B19C
:1029800033E004F128000021C170017101700020C2
:1029900010BD80B51C3000F07EFC00F03ABB00009A
:1029A0000120087048700023102088604FF4FA62FC
:1029B0009FED4B0A00208B70CB704A60CB6081ED9D
:1029C000040A81ED050A8861704710B500F12904F9
:1029D0002178012907D0A1781C3000F090FB00B1CC
:1029E00003E001202070002010BD4FF0FF3010BD2B
:1029F00010B5044694F8290060B104F12B0104F1EC
:102A00001C0000F093FB10B900F005F800B1ECE7F2
:102A100084F8290010BD002104F11C0000F06FBBF8
:102A200038B500F0E6F8002408B100F027BB9DF8A7
:102A30000000032811D8DFE800F0020C0508DFF8D9
:102A4000EC1504E0DFF8E80505E0DFF8E81529609B
:102A500005E0DFF8E405286001E04FF0FF34204690
:102A600032BD000038B50D4669461C3000F05EFBF3
:102A7000002408B100F002BB9DF800000B282BD801
:102A8000DFE800F0060B0E1114171A1D202327088B
:102A90002C6023E0DFF8A4051CE0DFF8A41516E0A5
:102AA000DFF8A00516E0DFF8A01510E0DFF89C05C0
:102AB00010E0DFF89C150AE0DFF898050AE0DFF87F
:102AC000981504E0DFF8940504E0DFF89415296018
:102AD00004E00348286001E04FF0FF34204632BD97
:102AE0000020D04580B500F1290100F0CFF933D1A5
:102AF000F1EE10FA48BF012127D400F0C2F948BF17
:102B0000022122D400F0B8F948BF03211DD400F0FF
:102B1000A9F948BF042118D400F09FF948BF052146
:102B200013D400F095F948BF06210ED400F08BF9BC
:102B300048BF072109D400F081F948BF082104D417
:102B400000F095F94CBF09210A211C3000F0D7FA9A
:102B5000002830D000F095BAF1EE10FA48BF0120FD
:102B600027D400F08EF948BF022022D400F084F967
:102B700048BF03201DD400F075F948BF042018D4C5
:102B800000F06BF948BF052013D400F061F948BF8D
:102B900006200ED400F057F948BF072009D400F0F2
:102BA0004DF948BF082004D400F061F94CBF09205A
:102BB0000A208870002002BD38B500F01AF8002401
:102BC00008B100F05BBA9DF8000003280DD8DFE8DB
:102BD00000F002090406022102E0042003E00821BB
:102BE000296004E01020286001E04FF0FF34204607
:102BF00032BD0D4669461C3000F068BA80B5032925
:102C0000B8BF002107DB0529B8BF022103DB092972
:102C1000B4BF032101211C3000F04EFAF9E11CB5CC
:102C20000C4669461C3000F032FB00B1A7E1A9E177
:102C30003EB5002204460D46009201A904F11C0095
:102C400000F025FB20B969462046FFF7E9FE00B1F8
:102C5000B3E1B5E110B500F12A042178012907D0CC
:102C6000A1781C3000F0BBFA00B1BEE60120207054
:102C7000002010BD10B5044694F82A0060B104F19C
:102C80002C0104F11C0000F0C7FA10B900F005F89F
:102C900000B1AAE684F82A0010BD002104F11C004E
:102CA00000F09DBA38B500F043F9002408B100F0F7
:102CB000E5B99DF80000062816D8DFE800F0070403
:102CC0000A150D151100DFF89C130BE0DFF89803CF
:102CD00004E0DFF8981305E0DFF89403286005E0CE
:102CE000DFF89013296001E04FF0FF34204632BD39
:102CF00038B50D4669461C3000F08EFA002408B144
:102D000000F0BCB99DF800000A2829D8DFE800F0DF
:102D100006080B0E1114171A1D2024002C6021E048
:102D2000DFF81C0316E0DFF81C1317E0DFF81803C8
:102D300010E0DFF8181311E0DFF814030AE0DFF801
:102D400014130BE0DFF8100304E0DFF8101305E0C4
:102D5000DFF80C03286005E0DFF81C13296001E0B0
:102D60004FF0FF34204632BD80B500F12A0100F05B
:102D70008DF833D1F1EE10FA48BF012127D400F0CD
:102D800080F848BF022122D400F076F848BF032122
:102D90001DD400F067F848BF042118D400F05DF896
:102DA00048BF052113D400F053F848BF06210ED4C4
:102DB00000F049F848BF072109D400F03FF848BFA8
:102DC000082104D400F053F84CBF09210A211C301B
:102DD00000F005FA002830D000F053B9F1EE10FAF7
:102DE00048BF012027D400F04CF848BF022022D46D
:102DF00000F042F848BF03201DD400F033F848BF6C
:102E0000042018D400F029F848BF052013D400F09E
:102E10001FF848BF06200ED400F015F848BF072061
:102E200009D400F00BF848BF082004D400F01FF8C4
:102E30004CBF09200A208870002002BDB4EE410A70
:102E4000F1EE10FA7047B4EE610AF1EE10FA704735
:102E5000B4EE420AF1EE10FA7047B4EE620AF1EEF7
:102E600010FA7047B4EE430AF1EE10FA7047B4EE70
:102E7000600AF1EE10FA7047B4EE630AF1EE10FA50
:102E80007047B4EE440AF1EE10FA7047DFED0B4ADA
:102E90000A78012ADFED0A0A9FED0A1ADFED0A1A05
:102EA0009FED0A2ADFED0A2A9FED0A3ADFED0A3A82
:102EB0009FED0A4AB4EE640A7047000001004841E1
:102EC000012050450180CF44014050440100D043CF
:102ED000010050430100D042010050420100D041A6
:102EE000893000089530000838B500F021F800243A
:102EF00008B100F0C3B89DF80000062814D8DFE838
:102F000000F0060408130B130F007D210AE0FA20DD
:102F100004E04FF4FA7105E04FF47A70286005E0A0
:102F20004FF4FA61296001E04FF0FF34204632BDD2
:102F30000D4669461C3000F035B980B57E29B8BF12
:102F400001210FDBFB29B8BF00210BDB40F2F5129A
:102F50009142B8BF022105DB40F2E9329142B4BF91
:102F6000042106211C3000F011F952E01CB50C467A
:102F700069461C3000F087F900B100E002E04FF034
:102F8000FF3016BDBDF800002080BDF80210618042
:102F9000BDF80400A080002016BD3EB504460D46D5
:102FA00001A904F11C0000F06EF920B96946204621
:102FB000FFF778FE00B100E002E04FF0FF303EBDC9
:102FC000BDF9040000F010F8C5ED000ABDF90600D7
:102FD00000F00AF8C5ED010ABDF9080000F004F898
:102FE000C5ED020A00203EBDDDED000A00EE100A2C
:102FF000B8EEC00A60EE200AFDEEE00A704704B5A4
:1030000001236A461C3000F051F802E01C3000F049
:1030100047F808B14FF0FF3002BD002104F11C0059
:103020007047012104F11C007047000023DB793D4B
:1030300023DBF93D23DB793E23DBF93ECDCCCC3FCE
:10304000000048410000D041000050420000D04242
:10305000000050430000D043004050440080CF4463
:103060000020504500008C4000000C4100008C41C5
:1030700000000C4200008C420020D0454FF0FF3091
:1030800032BD4FF0FF3002BD10B50446207B6469AD
:10309000A04710BD10B50446207B2469A04710BD91
:1030A00010B50446A0686468A04710BD10B504467A
:1030B000A0682468A04710BD38B500F030F818B9F2
:1030C00000F003F900F024F832BD00001CB500F058
:1030D00058F89DF80010890801F0030103290BD866
:1030E000DFE801F002040608002106E0012104E007
:1030F000022102E0032100E00421217016BD38B551
:1031000000F00DF818B900F073F800F001F832BDC6
:103110008DF8000001236A4610212046C6E70D46BF
:10312000044601236A461021BAE700001CB500F0EE
:1031300028F89DF8001009090B291FD8DFE801F0D5
:1031400006080A0C0E10121416181A1C002116E09C
:10315000012114E0022112E0032110E004210EE01D
:1031600005210CE006210AE0072108E0082106E01D
:10317000092104E00A2102E00B2100E00C2121706A
:1031800016BD0C4601236A46102189E738B500F0C8
:103190003DF828B99DF8000065F3430000F02FF8D2
:1031A00032BD00001CB500F060F89DF80010490821
:1031B00001F0070106290FD8DFE801F00406080E28
:1031C0000A0E0C00002108E0012106E0022104E0C3
:1031D000042102E0062100E00721217016BD38B568
:1031E00000F014F818B900F003F800F008F832BD48
:1031F0009DF8000000F00F0040EA051070478DF8C0
:10320000000001236A46112120464FE70D4604467F
:1032100001236A46112143E71CB500F026F89DF80A
:10322000001009090A291DD8DFE801F006080A0C78
:103230000E10121416181A00002114E0012112E0D9
:10324000022110E003210EE004210CE005210AE038
:10325000062108E0072106E0082104E0092102E038
:103260000A2100E00B21217016BD0C4601236A469D
:10327000112115E738B500F022F818B900F035F83B
:1032800000F016F832BD0A460623222108E70A4656
:103290000623282104E70A4601230F2100E738B559
:1032A00000F00DF818B900F015F800F001F832BD83
:1032B0008DF8000001236A4612212046F6E60D46ED
:1032C000044601236A461221EAE69DF8000065F3F0
:1032D000830070479DF8000065F3820070479DF8F9
:1032E000000065F30200704700009DF8000065F3E0
:1032F0008610704738B500F00EF818B9FFF7EFFFE9
:1033000000F001F832BD8DF8000001236A460A2161
:103310002046FFF7CBBE0D46044601236A460A212C
:10332000FFF7BEBE38B5044600256CB100F06EFA5A
:103330000FF24171A061216264620FF25170E0618D
:10334000206808B1804718B14FF0FF35284632BDDC
:10335000A068012804BF94F828000028F6D10122B3
:103360002321204600F02BFA0028EFD04FF0FF3049
:1033700032BD38B50446012104F11C0000F03EFCCA
:1033800090B9002104F11C0000F0E5FC60B904F1E3
:1033900028050520A87000F055F828B9002104F18F
:1033A0001C0000F00AFC00B1E0E7012028700020BA
:1033B00032BD10B5044600F032F800B12CE004F143
:1033C0002800002181700170002010BD80B51C30E4
:1033D00000F075FC49E301200870002210204A70BB
:1033E0008A70CA704A608860CA600020DFF8802551
:1033F00008614A618861704710B500F1290421789D
:10340000012907D061781C3000F08FFB00B103E088
:1034100001202070002010BD4FF0FF3010BD10B50E
:10342000044694F8290060B104F12A0104F11C005B
:1034300000F094FB10B900F005F800B1ECE784F857
:10344000290010BD002104F11C0000F06EBB00003B
:103450007CB500F0A1F80024002848D19DF80100B7
:1034600018B102282DD017D342E000F045F800280B
:103470003DD100F02DF93AD8DFE800F00B08050245
:10348000DFF8F01431E0DFF8F0042AE0DFF8EC14A4
:103490002BE0DFF8EC0424E000F02EF8002826D121
:1034A00000F016F923D8DFE800F002090603EAE786
:1034B000DFF8D01419E0DFF8D00412E0DFF8CC1404
:1034C00013E000F019F890B900F002F90FD8DFE826
:1034D00000F0020A0603EEE7DFF8B41405E0DFF8B7
:1034E000B404286006E0DFF8B014296002E05BE075
:1034F0004FF0FF34204676BD694606F11C0000F00F
:1035000067BB00007CB500F047F8002428B9694685
:1035100006F11C0000F022FB00B145E09DF801100F
:103520009DF8000002290ED1092831D8DFE800F00B
:103530001416191C1F2225280508DFF8600425E051
:10354000DFF85C141EE0092822D8DFE800F0050748
:103550000A0D10131619211D2C601BE04FF07E512F
:1035600010E0DFF8400411E0DFF83C140AE0DFF877
:103570003C040BE0DFF8381404E0DFF8380405E021
:10358000DFF8EC13296005E0DFF82C04286001E087
:103590004FF0FF34204676BD06460D460DF1010181
:1035A00006F11C0000F0A6BA4FF0FF3076BD000017
:1035B00080B500F129019FED333A0A78012ADFED49
:1035C000320A9FED321ADFED321A9FEDB82ADFED95
:1035D000B82AB4EE430A2CD1F1EE10FA48BF01210B
:1035E00020D4B4EE620AF1EE10FA48BF022119D4D9
:1035F000B4EE420AF1EE10FA48BF032112D4B4EE41
:10360000610AF1EE10FA48BF04210BD4B4EE410A6E
:10361000F1EE10FA48BF052104D400F0D1F94CBFF7
:10362000062107211C3000F080FA50B34FF0FF3024
:1036300002BDF1EE10FA48BF012020D4B4EE620AB8
:10364000F1EE10FA48BF022019D4B4EE420AF1EEAE
:1036500010FA48BF032012D4B4EE610AF1EE10FA5A
:1036600048BF04200BD4B4EE410AF1EE10FA48BF73
:10367000052004D400F0A4F94CBF062007204870B0
:10368000002002BD0100803F010048430100C84204
:103690000100484238B50D4669461C3000F098FAE2
:1036A000002400B162E600F013F80DD8DFE800F066
:1036B00002040609022102E0042003E00821296037
:1036C00004E01020286001E04FF0FF34204632BDB6
:1036D0009DF800000328704780B50329B8BF00217A
:1036E00007DB0529B8BF012103DB0929B4BF02218B
:1036F00003211C3000F061FAB7E17FB505460C46A6
:10370000694605F11C0000F0F5F998B99DF8000034
:1037100018B102280BD008D30CE0102601A905F13E
:103720001C0000F074FA40B104E04026F6E74FF4C4
:103730008076F3E74FF0FF300FE0BDF9040090FB17
:10374000F6F02080BDF9061091FBF6F16180BDF91D
:10375000080090FBF6F0A080002004B070BD3EB5DC
:1037600000220D460092044601A9FFF7C6FF20B9CA
:1037700069462046FFF76CFE10B14FF0FF303EBDAA
:10378000BDF9040000F010F8C5ED000ABDF906000F
:1037900000F00AF8C5ED010ABDF9080000F004F8D0
:1037A000C5ED020A00203EBDDDED000A00EE100A64
:1037B000B8EEC00A60EE200AFDEEE00A704704B5DC
:1037C0004EE138B5044600256CB100F01FF80FF249
:1037D000D521A061216264620FF2E520E0612068DA
:1037E00008B1804718B14FF0FF35284632BDA068B8
:1037F0000028FAD094F828000028F6D1012104F11D
:103800001C0000F0B4FA0028EFD0AFE50868206093
:103810004A6862608868A0600A7B22730869206138
:103820004A6962618869704710B50446012104F154
:103830001C0000F037FA70B900F013F858B90321F2
:1038400004F11C0000F0F2F928B9002104F11C0079
:1038500000F04FFA00B1DFE5012084F828000020D5
:1038600010BD022104F11C0000F0D5B910B50446CA
:1038700000F030F800B1CFE584F8280010BD80B525
:103880001C3000F032FAF0E0002008704870C87078
:103890004860886008613222CA6001234448886118
:1038A00000228B704A610020704700000100C8416F
:1038B0000100204110B5044694F82900012807D0E2
:1038C0000021FFF7CFFF00B1A6E5012084F8290011
:1038D000002010BD10B5044694F8290028B1FFF768
:1038E000C0FF00B198E584F8290010BD4FF07F506B
:1038F0006CE0000038B50D4669461C3000F0A1F9B7
:10390000002400B132E5FFF7E3FE0DD8DFE800F058
:1039100002040609234902E0284803E023492960FC
:1039200004E02348286001E04FF0FF34204632BD18
:10393000DFED0C0A80B500F043F848BF00210DD43C
:10394000DFED090A00F03CF848BF012106D4DFEDA5
:10395000070A00F035F84CBF022103211C3000F0AB
:1039600065F982E0010020410100A04101004842C8
:103970000000C8431F853B419A9979409A99F93FC5
:1039800048E17A3F9A993B427B147A41713DFA4073
:103990007B943B437B147A427B14FA410080CA44F7
:1039A0000000A845000020410000C8410000484236
:1039B0000000C842000048430000A8440000A041A5
:1039C000B4EE600AF1EE10FA704732200860002071
:1039D0007047002070471CB500F03AF800B13CE099
:1039E000BDF800002080BDF802106180BDF8040021
:1039F000A080002016BD1CB500F02AF800B12CE014
:103A0000BDF9000000EE900AB7EE080AF8EEE00AF1
:103A100060EE800AFDEEE00AC4ED000ABDF9021076
:103A200001EE101AB8EEC11A21EE001ABDEEC11A4D
:103A300084ED011ABDF9040000EE900AF8EEE00AE8
:103A400020EE800ABDEEC00A84ED020A002016BDF9
:103A50000C4669461C3000F02EB94FF0FF3016BD01
:103A600001236A461C3000F03FF808B14FF0FF30E8
:103A700002BD000070B58568047B4669002D0CBF4F
:103A800041F0800141F0400116E0000070B585680A
:103A9000047B0669002D0CBF41F0800141F040011C
:103AA00018E0000070B58568047B4669002D0CBFE6
:103AB00041F0800141F040012046B04770BD000058
:103AC00070B58568047B0669002D0CBF41F080014C
:103AD00041F040012046B04770BD000010B50446DB
:103AE000A0686468A04710BD10B50446A0682468AB
:103AF000A04710BD38B500F02AF830B901230DF108
:103B0000010223212046FFF7E9FF9DF80010C1F3D1
:103B1000C00109B1022106E09DF80110C1F3C00205
:103B2000511E8941C90F297032BD38B500F00FF818
:103B300060B99DF8000000F00F0040EA05108DF814
:103B4000000001236A46202100F00EF932BD0D4627
:103B5000044601236A462021C0E700001CB500F09E
:103B6000D3F82021FFF7BAFF9DF800100909491E7C
:103B7000082918D8DFE801F00507090B0D0F11130C
:103B80001500012110E002210EE003210CE00421C8
:103B90000AE0052108E0062106E0072104E00821EB
:103BA00002E0092100E00021217016BD9DF800000F
:103BB00000F03F0040EA8510704738B500F08AF801
:103BC00028B99DF8000065F3051000F07CF832BDBF
:103BD0001CB500F085F800F00AF806D004D30329DC
:103BE00003D038BF022100D30021217016BD9DF8FB
:103BF0000010090901F003010129704738B500F0F0
:103C000069F818B900F035F800F05DF832BD0A46E1
:103C10000623282162E738B500F039F828B99DF865
:103C2000000065F3010000F02BF832BD38B500F05C
:103C30002EF828B99DF8000065F3830000F020F805
:103C400032BD1CB500F010F89DF80010890801F095
:103C50000301012906D004D3032903D038BF022170
:103C600000D30021217016BD0C4601236A46602155
:103C700034E79DF8000000F07F0040EAC51070476F
:103C80008DF8000001236A46602120462CE70D468E
:103C9000044601236A46602120E79DF8000065F391
:103CA0000410704738B500F03BF818B9FFF7F5FF7E
:103CB00000F02EF832BD0A46062368210EE70A46B8
:103CC00001230F210AE78DF8000001236A46232112
:103CD000204609E70D46044601236A462321FDE6F6
:103CE0000C4601236A462321F8E60A4601234F21A8
:103CF000F4E638B500F014F828B99DF8000065F333
:103D0000410000F005F832BD0C4601236A467047B9
:103D10008DF8000001236A4662212046FFF7E4BEC9
:103D20000D46044601236A466221FFF7D7BE9DF87F
:103D3000000065F3451070478DF8000001236A46C6
:103D40002E212046FFF7D0BE0D46044601236A46C9
:103D50002E21FFF7C3BE38B5FFF7F6FF18B9FFF7FE
:103D600025FFFFF7E9FF32BD2046FFF7BDBE38B59E
:103D7000FFF7D6FF18B9FFF7DAFFFFF7C9FF32BD2B
:103D800080B5002000F06AFA002000F0A6FA00F0EA
:103D9000CDFBDFF86014DFF860040A684FF4FA63C3
:103DA000B2FBF3F35B1E0021272243608160C260F7
:103DB0000161816100F05EFC08B100F053FC00F08D
:103DC00023FE00F023FE00F025FE00F027FE00F0A9
:103DD00029FE00F029FE9FEDC20A00F06BFE0420D0
:103DE00000F073FE00F077FEDFF8100400F124010C
:103DF00000F07FFE002000F05BFA4FF4FA7000F054
:103E000095FE002000F059FABDE8014000F063BFC4
:103E1000BDE0DFF8E41300680A68904203D1DFF8E0
:103E2000E01301204870704780B58DF803008DF8CD
:103E300001108DF802208DF8003000226946DFF86D
:103E4000C40301F049F808B100F00CFC01BD00B555
:103E500085B08DF801108DF8022000218DF800004A
:103E600001910022039104918DF803206946E548F1
:103E700000F0B3FF08B100F0F5FB05B000BD78B568
:103E80000FF2943295B0044604A8136803600D46FF
:103E90000026039603A905A800F02BFE03980FF255
:103EA000A4310FF2783202910D28CCBF0DF1210020
:103EB00005A8019004AB0FF2843000904021204609
:103EC00001F0F0F8286016B070BD00002DE9F04157
:103ED000CB4F0446F86988460026C10658BF01202A
:103EE0002DD57E700C2527E078780128FCD10021A3
:103EF0007970381D00F0C4FD05FB06F097ED010A4E
:103F0000211800F06BF9C1ED000A221D97ED021A8D
:103F1000B8EEC11A9FEDB50A104481EE000A80ED9B
:103F2000000A9FEDB20AD7ED030AF8EEE00A80EE30
:103F3000800A81ED020A761C4645D5D30020BDE8F3
:103F4000F081000038B504460D460020AC490090D1
:103F5000CA69D00602D40021216031BD00F068FD9D
:103F6000684600F0ACFD9DED000ADFEDA10AB4EE5D
:103F7000600AF1EE10FA09DB00EE105AB8EE400AC2
:103F80009DED001A80EE010A84ED000A31BDF8B5FE
:103F90009D4C04F5827586B0284600F0DBFD0128B3
:103FA00006D094F80801322804BF284601F0B0F882
:103FB000934D6878012840F090800021914F6970FE
:103FC0000022FE6801A9384600F068FF0022694619
:103FD000384600F0D5FF9DF804000299E071711A8F
:103FE0009DF805002072761C9DF806006072642022
:103FF0004143B1FBF6F2A272E869C10614D5281D4F
:1040000000F03EFD6968042204F1170001F004FA93
:10401000A968042204F11B0001F0FEF9E9680422FA
:1040200004F11F0001F0F8F9E869810614D568462B
:1040300000F029FD0099042204F1230001F0ECF9BD
:104040000199042204F1270001F0E6F90299042203
:1040500004F12B0001F0E0F9E869410614D5684647
:1040600000F016FD0099042204F12F0001F0D4F9AC
:104070000199042204F1330001F0CEF902990422DF
:1040800004F1370001F0C8F9E869410706D5684630
:1040900000F00BFD04F11301009A0A60E869810742
:1040A00006D5684600F0FEFC04F10F01009A0A6094
:1040B000E869C10706D5684600F0EFFC04F10B0182
:1040C000009A0A60204600F00DF8204601F015F82D
:1040D00047202060204600F0EBFD07B0F0BD000057
:1040E00000004842F0B585B0044600BF57A1444ED9
:1040F00001A891EC040A80EC040AFEF751FB054686
:10410000F069C10668D596ED010A00F067F8CDEDBB
:10411000010ADFED360A96ED020A306A3B4FB8EE2F
:10412000C00AC0EE200ACDED020ADFED300A96ED9E
:10413000030AB8EEC00AC0EE200A281ACDED030A21
:1041400000EE100AB8EE400ADFED280AC0EE200AA1
:10415000CDED040A002000F0ABF82D48016841F0D5
:10416000807101600020786001A8396841F0010188
:10417000396000F0BAFC317806F1100000F0B7FCAD
:1041800000200090396881F0010139607868194990
:1041900000900A681F480099B2FBF0F0B1FBF0F7FD
:1041A000002000F08AF896ED040A04F13B0001F0CB
:1041B00048F996ED050A04F13F0001F042F996ED49
:1041C000060A04F1430001F03CF90422394604F1E7
:1041D000470001F021F9356205B0F0BDB8EEC00A24
:1041E000DFED020AC0EE200A7047000000007A44AA
:1041F0007012833A08030020600A0020DC0A0020C5
:104200002C0B0020040B0020A0030020001000E075
:10421000FCED00E040420F00313600004D454D53AB
:1042200020736869656C642064656D6F2C25732C40
:1042300025732C25732C257300000000372E312E9A
:1042400030000000494B5330314132000000000083
:1042500000000000000000000000000070B586B003
:10426000044600200090464E4648016841F0010196
:104270000160006848A100F001000090009831F84A
:10428000145001950121029103910221049101A989
:1042900056F8240001F0DCF800F004F8002006B025
:1042A00070BD000056F824000022294601F009BA2A
:1042B00010B500F00BF8012203E010B500F006F88D
:1042C000002201F0FEF9002010BD000032A32C4CAA
:1042D00033F8101054F82000704770B500240228FD
:1042E00086B028BF6FF0010447D22749274E01EB63
:1042F000801501EB80000222416C22486960009425
:10430000016941F400310161016901F4003100915A
:10431000009900940C21036843F001030360072314
:10432000006800F001000090009819480191029285
:1043300005930394049401A901F08AF815483060AC
:104340004FF0006171604FF480704FF48061F06154
:104350003161B460F4607461B46134627462304697
:1043600001F0D0F908B100F07DF9AE63281DB0630B
:1043700000F014F808B16FF00304204606B070BDD9
:10438000BC02002030380240C0020020A8090020F2
:1043900000000240886002402000000010B509497A
:1043A00001604FF461220C2100244260416184606D
:1043B000C46004618461C46101F04CFB00B101245C
:1043C000204610BD0044004010B586B001F022FD2B
:1043D00000F052F800F0D1F800200090002296483A
:1043E000964C016841F4001101600021006800F45E
:1043F0000010009000981020FEF712FA1020FEF72F
:104400002CFA8F48206204F1200001F01DFD00F01D
:1044100088F800BF94A08B4A01680091002060607A
:104420007F21A160FF20E0600021226021616161A5
:10443000A161204600F084FC0020ADF804008DF856
:10444000060004900590012201A9204600F0C5FC59
:10445000012100228DF800108DF801108DF8021056
:104460008DF8032069460122204600F035FDFFF754
:1044700087FCFFF7CDFCFCE700B597B006A830211C
:1044800001F0F2FC00F04DF812A8142101F0ECFC50
:104490000020009001236C48016841F080510160C8
:1044A0000021006800F0805000900098674800915B
:1044B000026822F4404242F4004202600A2200688C
:1044C00000F44040009006A80099069210210A913D
:1044D000002202210C910D9210214FF4A8720E912E
:1044E0000F920421072209930B931091119201F06E
:1044F000BFFC022102910F204FF480510190002255
:10450000049103920592022101A8FEF771F802219D
:104510004FF400721291159212A801F03BFE17B0F1
:1045200000BD01A8142101F09FBC0000D0B586B0E9
:1045300002A8102101F098FC4CA44548D4E900677A
:10454000444CCDE90067206000216160A160E1601A
:104550002161A161204600F08DF84FF48050029057
:1045600002A9204600F06EF9002100910191204639
:10457000694601F0AFFE06B0D0BD38B586B0FFF792
:10458000D0FF00242C48344D00940168334C41F096
:1045900004010160026802F0040200920022009906
:1045A0000092036843F080030360016801F080011A
:1045B000009100990092036843F0010303600168D1
:1045C00001F001010091009900922021036843F05D
:1045D00002030360006800F002000090009820468B
:1045E00001F06FF84FF400501D4901900291002234
:1045F000039201A9284600F02BFF01200021019021
:1046000002910391284601A900F022FF2021019187
:104610000122002103910491029201A9204600F099
:1046200017FF002200212820FEF7FAF82820FEF7C5
:1046300014F907B030BD000030380240040B0020F0
:104640000030024000280040403802400070004026
:1046500000040040600A0020000802400000024000
:104660000000211070470000000000000000000062
:104670000000000038B5040001D1012032BD00F077
:1046800039F818B900F032F801F097FE24E000681C
:10469000C16841F00101C160816801F0070106298C
:1046A00003D0016841F001010160002070470068FB
:1046B000C16849084900C16041F21112016A114202
:1046C00002BF016A40F24442114203D10168490825
:1046D000490001600020704702206870211D206899
:1046E00000F00DF901206870002032BD0021297012
:1046F0002046704704F13C056878704710B50446C1
:10470000206801698A0715D5C1688A0712D56FF03C
:104710000201016101222277806910F0030F204617
:1047200002D001F071FE03E001F06FFE00F087F8A7
:1047300000202077206801694A0715D5C1684A071B
:1047400012D56FF00401016102222277806910F412
:10475000407F204602D001F057FE03E001F055FEF5
:1047600000F06DF800202077206801690A0715D550
:10477000C1680A0712D56FF008010161042222778F
:10478000C06910F0030F204602D001F03DFE03E0A7
:1047900001F03BFE00F053F800202077206801690B
:1047A000CA0615D5C168CA0612D56FF0100101619D
:1047B00008222277C06910F4407F204602D001F021
:1047C00023FE03E001F021FE00F039F800202077FD
:1047D00020680169CA0708D5C168CA0705D56FF006
:1047E000010101612046FFF714FB206801690A06F8
:1047F00008D5C1680A0605D56FF080010161204621
:1048000001F004FE206801694A0608D5C1684A061D
:1048100005D56FF040010161204601F0F8FD2068E8
:1048200001698A060AD5C1688A0607D56FF020019A
:1048300001612046BDE8104001F0EABD10BD2046F0
:1048400001F0E7BD38B500F04EF801D1022032BDCD
:104850000120207002226270DFF81C012A68936830
:10486000034093600868020018BF10282DD020284C
:1048700018BF302829D0402823D0502816D06028CF
:1048800018D0702803D0B0F5005F07D021E000F009
:1048900025F82868816841F0770105E000F01EF8EE
:1048A0002868816841F48041816012E000F012F8CC
:1048B00050210BE0CA684968286800F07EF8602142
:1048C00004E000F007F8402100E00146286800F00D
:1048D00086F80EE0CA68496828685FE0CB684A68D5
:1048E0008968286883E0054605F13C0420780128A2
:1048F00070470120607000212170002032BDF0B5AA
:104900001E4B04681E4D1F4E1F4F984218BFB0F13A
:10491000804F04D0B8421CBFB042A8420CD14A68B4
:1049200024F070041443984218BFB0F1804F0ED0A9
:10493000B84218BFB0420AD0A8421CBF134A9042E6
:1049400005D0134DA8421CBF124A904203D1CA6839
:1049500024F4407414434A6924F08004144304602E
:1049600098428C68C4620A68826202D109690A4A64
:10497000116001234361F0BD8800FFFF000001408A
:10498000000C0040000800400004004000400140CE
:1049900000440140004801403000014010B5036A66
:1049A000046A64086400046223F00A03846924F042
:1049B000F00444EA0214846123E010B5036A23F092
:1049C000100303628369046A23F4704343EA0233E9
:1049D00024F0A004836144EA0114046210BD8268DB
:1049E00022F07002114341F007018160704710B559
:1049F000846824F47F442143114341EA0321816008
:104A000010BD1943016210BD022100E00121002008
:104A100001F000BD0421022001F0FCBC02210120B4
:104A200001F0FEBE012100E00421002001F0F8BEEB
:104A3000022100E00121002001F059BD04210220E3
:104A400001F055BD0221012001F04DBF012100E020
:104A50000421002001F047BF022100E001210020D5
:104A600001F055BD0421022001F051BD02210120B9
:104A700001F049BF012100E00421002001F043BF03
:104A80000246022101E002460121002001F064BD3E
:104A900002460421022001F05FBD024602210120EE
:104AA00001F055BF0246012101E002460421002029
:104AB00001F04DBF0221FFE7002001F086BD024654
:104AC0000221FFE7002001F05ABD02460221FFE764
:104AD000002001F08ABD80B502F028F8684602F097
:104AE00081F8684602F088F801BD02F011B902F0C1
:104AF0006BBA10B50C4602F0AFFA206010BD10B5CD
:104B0000ADF5966D044664216846FFF7DFF920B9DC
:104B100022466421684602F0C3FA0DF5966D10BD79
:104B200002F036BC6421FFF70DBA000038B5044628
:104B3000FDF736FE14F1010F054602D00448017856
:104B40006418FDF72DFE401BA042FAD331BD00BF13
:104B5000B00200202DE9FE4F6449654E4A6B136890
:104B6000644A93424FF000084FF400714FF0007414
:104B70004FF400250DD3604A766893420EBF08219A
:104B80005E4A934234D05E498B4214BF2146294687
:104B90002EE05C4A93420CD35B4A3668934226D09F
:104BA0005A4A934224D05A498B420CBF2946214687
:104BB0001EE0584A584E93420CD3584A76689342A6
:104BC00015D0574A934213D056498B420CBF294601
:104BD00021460DE0544A3668934208D0534A934226
:104BE00006D053498B420CBF2946214600E00821DC
:104BF00031404CD159684F4CC1F5007189B20091D8
:104C0000C146A788B942AEBFCD1B01F50075ED1BAB
:104C1000ADB2064601E009F10109A94531DA46487D
:104C20000190C05D7F1CBFB2B7F5007FA8BF002711
:104C3000F028F0D1A7884FF0000A0AE0C71939120E
:104C400007EBD1525212A7EB4227BFB208F101087D
:104C500082441FFA8AF048451CDA781CC0F3080B1E
:104C60000198C05D019B13F80B10321D1FFA88F3E9
:104C70001A4400F09CFBC0B20028DFD1A4F804B0B5
:104C800006E040F201108542A4BF0099A1800020F7
:104C9000BDE8FE8F1FFA88F07F1C3060C7F308075D
:104CA000A780304600F0A4FB0028B4D00120EFE735
:104CB00038B5044600F08CFB204D2146284600F014
:104CC00062FB294601B0BDE8304082B241F2883330
:104CD000064800F0FABE0548174981624FF4007299
:104CE00082850023C36300F04ABF0000C402002095
:104CF00000640240596402407064024088640240CB
:104D0000A0640240B960024010640240286402407E
:104D100040640240596002400060024070600240FE
:104D200088600240A060024010600240286002409B
:104D300040600240640B0020A8050020A807002066
:104D400070B5040031D0607F20B900212177204662
:104D500001F02BFB00F03BF853202168486200F083
:104D60009BF8FF25E8B92168DFF8AC028A680240A9
:104D70008A60226893686668216960690E43064309
:104D8000334393602068E168016120680169A2688B
:104D900041EA0241016100F074F808D400F07AF8A9
:104DA00028B12068456204216177012070BD206828
:104DB000016C21F48021016421680A6CA06902431E
:104DC0000A64012021684D626077002070BD0220D6
:104DD0006077CA21226851627047F8B504460D46D3
:104DE000207F012801D10220F2BD00F0BCF820682C
:104DF000806815D141065CBF0020E870287800F07B
:104E000045F90646687800F041F90702A87800F0F5
:104E10003DF947EA06470743E87847EA00470DE0CF
:104E200041065CBF0020E8706F782978A8783F02BF
:104E300047EA0147E978074347EA01472168CA2062
:104E4000486253222068426200F026F8FF26B0B97B
:104E50002168DFF8C80107400F602068826822F4EB
:104E60008022826021688A68EB68286903431A43BC
:104E70008A6000F006F803D400F00CF800B178E086
:104E80006AE02068C16821F08001C1602068816803
:104E9000880670472046C5E02046DCE030B5006853
:104EA000836A4B600469C4F30E048C600368DFF806
:104EB0006C010340180C00F03F040C701D0A00F058
:104EC00040004D708B70C87022B900F091F812FB51
:104ED00003028A70002030BDF8B504460E46207FDC
:104EE000012801D10220F2BD00F03DF875782CD1E7
:104EF000E80603D505F0EF050A357570F07800F087
:104F0000C5F80746707800F0C1F80502B07800F0E7
:104F1000BDF845EA07450543307845EA4035206845
:104F2000CA214162532221684A62FFF7B5FFFF267A
:104F300050B92168DFF8E80005404D60FFF7A1FF98
:104F40000AD4FFF7A7FF38B113E0F078317800F00A
:104F500043F845EA4135E2E720684662012161777E
:104F600000202077F2BD0120207702216177002AFE
:104F7000704720684662042100F02AF80120F2BD43
:104F800030B50368DFF898005B6803408B701D0A3A
:104F90001C0C05F01F055B0BCC704D7003F0070374
:104FA0000B7092B9C87803090A2200F00F0012FBB7
:104FB0000300C8704878030900F00F0012FB0300DB
:104FC0004870887800F00EF88A70002030BD032108
:104FD00061770020207770472D0245EA0045B078C0
:104FE00005437047030900F00F0012FB03027047EE
:104FF000087803090A2200F00F0012FB0300087072
:105000004878030900F00F0012FB0300487088780D
:10501000030900F00F007047BFFF8FFF7F7F7F0005
:105020003FFFFF0038B504462068C16821F0A001A9
:10503000C160FDF7B5FB05462068C168880608D445
:10504000FDF7AEFB401B40F2E9318842F4D3032068
:1050500032BD002032BD38B504462068C1684A061A
:1050600012D44FF0FF31C160FDF79AFB054620686E
:10507000C168480608D4FDF793FB401B40F2E931B4
:105080008842F4D3032032BD002032BD002101E06C
:10509000491C0A38C2B20A2AFAD240EA0110C0B248
:1050A0007047000008B438B585B009AC00250494F9
:1050B000039500290EBF01950190491E02910095AC
:1050C00004AB01A9074878441A30FBF763F801994B
:1050D00001B10D70002858BF039806B030BC5DF8D0
:1050E00008FB00BF2FC2FFFF4179017132224271DC
:1050F0008179A1F180028271704793490A78027127
:10510000322308214371817103220260704700003D
:105110002DE9F04198B0054600200190012428684F
:10512000012840F2C180297932292CD1A979874EF2
:10513000DFF81C82874F012917D0022922D00829C5
:1051400056D0092900F084800C2900F099800E299E
:1051500011D0522900F0A680602933D0622926D0D0
:1051600076292FD07A2938D0E9E003280BD100F036
:10517000F5F80320D4E0032805D100F0EFF8032070
:105180002860DDE0032840F08F8000F0E7F801A9F7
:1051900008A8FEF774FE0020EB1D03E008A90A5CD6
:1051A0001A54401C01998842F8D3C01CB8E0032867
:1051B0007AD300F0D3F804220121E81D00F02CF985
:1051C0000720ADE003286FD300F0C8F804220321C4
:1051D000E81D00F021F90720A2E0032864D300F0C5
:1051E000BDF804220221E81D00F016F9072097E01F
:1051F000032859D30421E81D00F00BF93060306812
:10520000C10748BFFFF71EFC3068810748BFFFF7A2
:105210001DFC3068410748BFFFF71AFC3068C10623
:1052200048BFFFF705FC3068810648BFFFF702FC66
:105230003068410648BFFFF701FC4046FFF727FAF8
:105240003C706979404A117000F088F8032067E0EB
:10525000032829D3002038704046FFF728FAFFF7CB
:10526000FBFBFFF7FBFBFFF7FDFBFFF7FFFBFFF788
:1052700001FCFFF701FC0020306000F06FF85AE0FD
:10528000032811D300F06AF8032028606A7A297A8B
:10529000E879FEF7DCFD6B7B2A7BE97AA87AFEF7DA
:1052A000C3FD48E0032801D200204AE000F056F890
:1052B00004202860E9792848491E09293BD8DFE8FD
:1052C00001F005080A0C0E101214183100220270A9
:1052D00031E004702FE0042008E0052006E0022001
:1052E00004E0012002E0032000E00020FFF707FCBB
:1052F00021E002A8FFF714FC06460C2202A905F1E2
:105300000900FCF713F80C2205A905F11500FCF7BC
:105310000DF80122314605F1210000F07DF81E2034
:10532000286008E06846FFF7FDFB05F10901009AD7
:105330000A6009222A602846FFF7BAFC00E0002430
:10534000204618B0BDE8F0819C030020480B0020E7
:10535000600A0020DB0A00202C0B00202846C3E650
:10536000024610B50220F02902D0F12905D007E04D
:10537000F1211170F224547010BD1170517010BDE4
:105380001170012010BDF8B504460D460026002717
:1053900006E0E8197F1C0179A019FFF7E1FF8619E3
:1053A00028688742F5D3F021A155701CF2BDF12881
:1053B0000BD1F12908BF117003D0F22903D1F020DD
:1053C0001070022070470020704710700120704755
:1053D00010B504680021002202E01B79C91A521C92
:1053E0008318A242F9D319710168491C016010BDEC
:1053F0000021002203E08318521C1B79C91803689E
:105400009A42F8D35B1E0360C8B2401E8041C00FB1
:1054100070470BE00000000000BF002302E0C15411
:105420005B1C090A9342FAD3704700000246491EEA
:10543000505C03E0491E535C03EB00200029F9D1C6
:1054400070472DED010A009A026001B0704700001C
:105450002DE9F84F0D464FF00008A0490F22012317
:1054600004462E6803FA08F000EA0609814540F078
:10547000B1804FEA480C032606FA0CF66FEA060ED6
:105480006E68012E18BF022E03D0112E18BF122EE7
:1054900011D1A668EF680EEA060607FA0CF73E433C
:1054A000A660666826EA00006E68C6F3001606FA73
:1054B00008F630436060E068AE680EEA000006FA65
:1054C0000CF63043E0604FEA88006E68022E18BF89
:1054D000122E12D14FEAD80604EB860600F01C0704
:1054E000D6F820A002FA07FB2AEA0B0AD5F810B07A
:1054F0000BFA07F747EA0A07376226680EEA06073B
:105500002E7906F0030606FA0CF63E4326606E6816
:10551000F6005FD5002600964FEA980C0E68DFF87B
:10552000C0E146F480460E6000F00C000E6806F400
:1055300080460096009E5EF82C7002FA00F627EA7C
:105540000606684FBC4208BF002713D0664FBC4216
:1055500008BF01270ED0654FBC4208BF022709D003
:10556000634FBC4208BF032704D0624FBC420CBF4C
:105570000427072707FA00F030434EF82C006FEAA3
:10558000090C5D4806680CEA060E6E68F70348BF12
:1055900049EA0E0EC0F800E046680CEA060E6E6896
:1055A000B70348BF49EA0E0EC0F804E086680CEA6B
:1055B000060E6E68F70248BF49EA0E0EC0F808E012
:1055C000C6680CEA060E6E68B60248BF49EA0E0EBF
:1055D000C0F80CE008F10108B8F10F0F7FF641AFF9
:1055E000BDE8F18F2DE9F84F03460D4600244248EF
:1055F0003B4900950122009E02FA04F909EA0606D9
:105600004E4559D14FEA940C4FEA840A51F82C5078
:10561000344F0AF00C0E4FF00F0B0BFA0EF8BB4292
:1056200008EA050508BF002713D02F4FBB4208BF6B
:1056300001270ED02D4FBB4208BF022709D02C4FA7
:10564000BB4208BF032704D02A4FBB420CBF04272C
:10565000072707FA0EF7BD4212D10568F643354019
:105660000560456835404560856835408560C5689A
:105670002E40C66051F82C5025EA080541F82C5000
:1056800003256600B540EE431D6835401D600AF0F5
:105690001C0AE50803EB85050BFA0AFA2F6A27EACC
:1056A0000A072F62DD683540DD605D6825EA09057F
:1056B0005D609D6835409D60641C0F2C9BD9BDE8E2
:1056C000F18F02B90904816170470C4A13680342E3
:1056D0001CBF106000F014B870470000443802404E
:1056E0000838014000000240000402400008024067
:1056F000000C024000100240003C0140143C0140FC
:105700007047000070B50446FDF74AF806460CB92C
:10571000012070BD04F13405002028700221697059
:105720002068026852085200026022681068C107AF
:1057300022D5FDF735F8801B0628F6D320202862F5
:1057400003216970032070BDB0F5005F09D1032EFD
:1057500042D8DFE806F00C0A0C02B1F1C07F3BD161
:1057600005E0022E03D9F61E36D1C80134D54021FA
:1057700029620120687070BD1368DFF86C026168EF
:105780000340A0680B43E168034320690B43616950
:105790000343A0690B43E1690343206A0B43616A39
:1057A0000343042903D1E16A206B01430B431360D7
:1057B00023685A69606AD208042840EAC2020BD101
:1057C000A66AE16A324339B1A0690028BCD1002E33
:1057D00018BF022EC9D0C0D35A61204600F022F96A
:1057E000A96A3F228A4082600020286201216970F4
:1057F00070BDF8B5044604F1340600253078776AA8
:10580000012801D10220F2BD0120307070780128FA
:105810001CD1022070703562204600F0F3F8B06AA7
:105820003F2101FA00F0B8602068016841F01601DC
:105830000160F06820B12068016841F00801016052
:105840002068016841F00101016001E03570022526
:105850002846F2BD2DE9FC41044604F1340600203F
:10586000624900904FF41650776A0A683D68B2FBAF
:10587000F0F8B06A082100F0BCF80ED02068026889
:1058800053070AD5026822F004020260B06A814020
:10589000B960316A41F001013162B06A25FA00F164
:1058A000CA070BD521684A69110607D5012202FAF9
:1058B00000F0B860306A40F002003062042100F06D
:1058C00097F808D021680A68930704D5B860306A51
:1058D00040F004003062102100F08AF819D02168ED
:1058E0000A68130715D5B860206801684A0307D510
:1058F0000068010309D5716959B12046884708E05D
:105900000168CA0501D400F078F8F16809B12046B1
:105910008847B06A202100F06CF843D021680A68FB
:10592000D3063FD5B86020687178052920D1026878
:1059300022F0160202602068416921F08001416175
:10594000F068002804BF7069002802D0206800F0C9
:1059500054F83F22B06A8240BA60002131700122BF
:105960007270F16900293CD02046BDE8FC4108472F
:1059700001684A0307D5006801030FD4316989B172
:10598000204688470EE00168CA0507D4016821F067
:10599000100101600020307001227270B16809B1FD
:1059A00020468847306AE0B1306AC10713D5052028
:1059B0007070206801684908490001600098401C27
:1059C0008045009003D320680168CA07F6D4002000
:1059D000307001217170B16919B12046BDE8FC41F8
:1059E0000847BDE8F38100003F8010F00803002065
:1059F000B06A01FA00F005427047016821F0080121
:105A00000160704730B50468256825F4802525605D
:105A100063608068402802D1A260E16030BDA1606F
:105A2000E26030BD30B5016808A401F0FF02103A11
:105A30001823B2FBF3F2890A8902A55CC565042A22
:105A400028BF091D8165084630BD000000061016FC
:105A50000006101638B5040001D1012032BD00F057
:105A600021F808B900F022F800F012F800F023F84D
:105A7000FFE7416100F001F832BD2068C16841F4E0
:105A80000051C1600020686020216970A9707047D2
:105A9000242068702068C16821F40051C16020464C
:105AA00000F044B904F13805687870470021297086
:105AB000204600F0ADB92068016921F490410161F0
:105AC0002068416921F02A0170472DE9F843054615
:105AD00005F138070C4678782028164698463DD1BF
