:020000040800F2
:10000000E8080020CD6F0008496F00084B6F00081A
:100010004D6F00084F6F0008516F0008000000008E
:10002000000000000000000000000000536F000806
:10003000556F000800000000576F0008596F000856
:10004000F76F0008FB6F0008FF6F000803700008DF
:10005000077000080B7000080F700008137000088C
:10006000177000081B7000081F700008237000083C
:10007000277000082B7000082F70000833700008EC
:10008000377000083B7000083F7000080000000057
:1000900000000000000000000000000043700008A5
:1000A000477000084B7000084F700008537000083C
:1000B000577000085B7000085F70000863700008EC
:1000C000677000086B7000086F700008737000089C
:1000D000777000087B7000087F7000080000000047
:1000E0005D6F000883700008877000080000000042
:1000F0000000000000000000000000008B700008FD
:10010000000000008F7000089370000897700008CE
:1001100000000000000000000000000000000000DF
:100120009B7000089F700008A3700008A77000086B
:10013000AB7000080000000000000000000000009C
:10014000000000000000000000000000AF70000888
:10015000B3700008B7700008BB700008BF700008DB
:10016000C3700008C7700008000000000000000015
:10017000000000000000000000000000000000007F
:1001800000000000CB70000800000000000000002C
:10019000CF7000082DE9F04F0FF2A41CA1B0DCE9EC
:1001A0000089CDE900892A9DDFF8DC9B04910024B9
:1001B0008DF843500D944FF0FF38824616461F4687
:1001C0000FE0B3462C461BF8011B0498D0470028CB
:1001D000049000F0A2800D98401C641E0D90F2D196
:1001E00076193078252808D100210022079108923D
:1001F00009910A920B910C920DE06A4641463046F5
:1002000000F0DAFF050001D10D98A1E0D9D5012554
:10021000E6E741F0010116F8010F2028F9D0232864
:100220000CD02B2804D02D2805D0302809D076E01A
:1002300041F00201EFE741F00401ECE741F0080171
:10024000E9E741F01001E6E70F9209E00F98484511
:1002500005DA00EB800402EB4402303A0F92761C80
:100260003278A2F130000A28F0D330782E2818BF57
:10027000CDF8388022D116F8010F2A2807D1386826
:100280003860761C50F8042B38600E9216E02D284A
:100290000CBF761C002000220E920AE040B90E9A94
:1002A0004A4505DA02EB820403EB4403303B0E932C
:1002B000761C3378A3F130020A2AEFD3ADF8401050
:1002C00021A0317800F082FF08B116F8010B8DF8FB
:1002D00042009DF84200682804D1307868280AD18D
:1002E000622105E06C2804BF30786C2803D17121AD
:1002F0008DF84210761C12A806903A4616F8013B7B
:1003000002A9504600F064F838B912AA02A9504672
:1003100000F0C8F900287FF564AF404618E02A28AD
:1003200092D13A683A6052F8040B3A6000280F9074
:1003300003D540420F9041F00401761C95E7000080
:100340000000000000000000686A6C747A4C000035
:1003500021B0BDE8F08F622820D0682811D06A282B
:1003600003D06C2827D0712825D10868C01D20F043
:1003700007000860D0E900230830086019461046DD
:100380007047002A0A680A60106803D0121D0A60CC
:1003900000B217E0121D0A6080B217E0002A0A6856
:1003A0000A60106803D0121D0A6040B20AE0121DF4
:1003B0000A60C0B20AE0002A0A680A60106803D026
:1003C000121D0A60C1177047121D0A600021704794
:1003D0007CB50D4611461C462E69B4F1250200F08D
:1003E0004F811C3A00F08480121F022A40F2808064
:1003F0000E3A00F00981521F59D0093A78D0921E66
:1004000016D0521E35D0521E022A71D9121F30D07A
:10041000521F00F09880521E49D0521E00F0E28018
:10042000D21E00F0FF80921E41D0D21E3FD02DE19F
:1004300095F83A406C2C09D06869421C6A610A68D8
:100440000A6052F8043B0A60335429E10A680A60E2
:1004500052F8043B0A600093002201924FF0FF33F0
:100460002B636A46294600F098F9002840F118816C
:1004700003E195F83A000122FFF76DFFC5E900019D
:10048000002904D56869411C69612D220DE0288F7F
:10049000810704D56869411C69612B2205E0C0070A
:1004A00021D56869411C6961202232541BE095F80E
:1004B0003A000022FFF74FFFC5E9000195F8380028
:1004C000010710D5D5E90023002B08BF002A0AD068
:1004D00044F02000782806D1686930213154401C4E
:1004E000421C6A613454214668693044E86087E000
:1004F0000868C01D20F007000860D0E9002308301C
:100500000860C5E90023D5E90001C80F04D0686977
:10051000411C69612D220DE0288F810704D568698F
:10052000411C69612B2205E0C00704D56869411CA4
:1005300069612022325468693044E86021462846C7
:1005400000F036FAACE005F13A02507820B14FF0F5
:10055000FF340FF6043074E01078622808D0682861
:1005600024D06A2812D06C282ED071280ED02BE00F
:100570000A680A6052F8040B0A6020B94FF0FF3491
:100580000FF6EC205DE0E96A017089E00A680A6014
:1005900052F8040B0A6020B94FF0FF340FF6D02058
:1005A0004FE0EA6AD317C0E9002379E00A680A60DD
:1005B00052F8040B0A6020B94FF0FF340FF6B02058
:1005C0003FE0E96A01806BE00A680A6052F8040BB8
:1005D0000A6020B94FF0FF340FF6942031E0E96A49
:1005E00001605DE00A680A6052F8040B0A600021AD
:1005F00020F0000221F0FF33C5E90023EE607821EE
:10060000284600F02DF94BE06C2285F83A200B6863
:100610000B6053F8042B0B6052BB4FF0FF340FF606
:1006200084200EE095F83A206C2AF0D00868086023
:1006300050F8044B0860EC603CB94FF0FF340FF603
:10064000482000F0EBFD201A76BD2E6B002E04D55D
:10065000204600F003FE044608E032460021204612
:1006600000F026FE002814BF041B3446AC6117E0DE
:10067000294600F092F8002812D54FF0FF3076BDE1
:100680006869411C69612522325409E06969481C86
:10069000686125227254210002D0431C6B613454DE
:1006A000002076BD2DE9F0410E4605469046726B5E
:1006B0007069316AB46A121AB069521A716A121AF0
:1006C000F069521A121A96F83800141B41070DD41B
:1006D000002C0BDD2746B0682021A8470028B06019
:1006E00057D0F06A401C7F1EF062F4D17369424615
:1006F0003146284600F098FC00284AD1376A002F7E
:100700000ADDB0683021A8470028B06041D0F06A07
:10071000401C7F1EF062F4D1B369F268314628466E
:1007200000F082FCA8BB776A002F09DDB068302199
:10073000A847B06068B3F06A401C7F1EF062F5D134
:10074000F068B169F36942183146284600F06CFC44
:10075000F8B9B76A002F09DDB0683021A847B0604A
:10076000B8B1F06A401C7F1EF062F5D196F83800EF
:1007700041070BD5002C09DDB0682021A847B060E7
:1007800038B1F06A401C641EF062F5D10020BDE86B
:10079000F0814FF0FF30BDE8F0812DE9F8470D46BC
:1007A000A3B02F6B002F0646904648BF6FF000475E
:1007B0000FF60C1400F0A8FDD4E90023696B401873
:1007C000CDE90123812828BF4FF0FF3042D2002419
:1007D000002F33DDD8F8001001AA684600F0EEFCC7
:1007E0008146B9F1000F38D4D8F8000010B9B9F13A
:1007F000010932D44F4521DB6869484481280AD376
:100800000021696303AA29463046FFF74BFF040025
:1008100014D40020686103ABD5F814A04A46694699
:1008200003EB0A0000F082FDCA44C5F814A058F892
:10083000040B002818BFA7EB0907C9D14CB903AABC
:1008400029463046FFF72EFF044614B900206861A0
:100850006863204624B0BDE8F0874FF0FF34F8E726
:100860002DE9FC4307466F293E6908BF082405D0DF
:1008700041F02000782814BF0A2410243C25D7E931
:100880000023642918BF69299046994605D1002B99
:1008900003D5D8F1000869EB4909B9F1000F08BF89
:1008A000B8F1000F1FD1386BE8B9082C4CD197F87C
:1008B0003800010748D530203B2586F83B0043E04F
:1008C00000280ED597F8380000F01400102808D141
:1008D0007B6B7969386A5B1A1B1A9A1A002AC8BF9F
:1008E0003A62BDE8F3838DF800104046494622463F
:1008F000E31700F06FFD3032D0B26D1E3A2801953B
:1009000004DB9DF80000A0F151018A1872554046A1
:1009100049462246E31700F05DFD80465FEA010983
:1009200008BFB8F1000F03D0F86871198842DCD312
:10093000082C09D197F83800010705D5705D3028DB
:1009400002D06D1E30207055C5F13C02BA6171199C
:10095000F960386B8242B3DA821A3A624FF6EF706E
:10096000398F01403987BDE8F3832DE9D04306462E
:100970000F4614464FF00008DFF8109412E0E0072D
:1009800007D542464B463046394600F0A7FD06469D
:100990000F464046494642464B4600F09FFD6410D4
:1009A00080468946002CEAD130463946BDE8D083DE
:1009B0002DE9F84F05468A464AF020048EB0D5E965
:1009C0000089612C02AE09D0286B002848BF0620A0
:1009D00003D408BF672C01D101202863D5E90001A9
:1009E0004A005215521C0DD10B030BD0AAF1610124
:1009F00003201A29A86102D20FF2CC6110E00FF295
:100A0000CC610DE04A005215521C0ED10B030CD1E3
:100A1000AAF1610103201A29A86116D30FF2B4616B
:100A2000E868032200F082FCC0E1CDE90C01DDE9B9
:100A30000C2323F00043B3F5801F0DD20027002BB9
:100A400008BF002A019703D111E00FF28461E7E7A4
:100A500001AA00F015FE0AE0CD48CE4900EB135084
:100A6000DDE90C2301900B40CB4910461943C5E941
:100A70000001612C0DD1E86830210170821CBAF1AF
:100A8000610FEA600CBF7821582141706869801CB1
:100A90006861D5E90001CDE90C01DDE90C2333F0F3
:100AA000004104BF0028002300F04881612C40F081
:100AB000A080286B494600284CBF4FF0210B00F165
:100AC000010B404600220023DDE90C8900F010FEF6
:100AD00001990BF1010738BF89F00049091F002F68
:100AE00001918DF808200DF1090040F33581A949E5
:100AF00000910646404649460022002300F010FEC1
:100B000080F029814800400D00F11C0211D0002A1C
:100B10000FDD40F2FF739A4205DBA04909F0004067
:100B20000143002011E0009B194041EA0251404678
:100B30000BE028F0000039F0004108BF00280FBF8B
:100B400049461C22494600F003FE8046894600F0D3
:100B50009DFEFF1F002F044609DD00F0B5FE024692
:100B60000B464046494600F0C1FE80468946F01DCE
:100B7000072104E004F00F0200F8012D2411002CDD
:100B800001DD491EF6D5491E5CBF002200F8012D8B
:100B9000F9D5DCE00020194602AA0A4400E05B1EF9
:100BA00012F80149491E8442F9D00F2804D10DF1F1
:100BB0000900425C521C4254002904D50198001DD2
:100BC00002AE5B1C0190581E0CD43118AAF13A04F5
:100BD0000A783032D7B23A2FA8BFA218401E01F8C7
:100BE0000129F5D5286B002840F1A780591E2963FB
:100BF000A3E001996A4A47F29750414391FBF2F210
:100C0000019229F00046D2F1070204DD4046314648
:100C1000FFF7ABFE0AE0524200206249FFF7A5FE53
:100C200002460B464046314600F0D2FE8046662C16
:100C3000286B06BF019F0A3706273F18142FC8BF2D
:100C4000142730208DF8080089460DF1090000E0D6
:100C50003046002F34DD06464046494600F0DCFFB2
:100C600001460A4606F1080304200A26B2FBF6F6FE
:100C700006EB860EA2EB4E02303203F8012C0A225C
:100C8000B6FBF2F202EB820EA6EB4E063036401EA9
:100C900003F8026DE9D1083F002F03F10806D7DD04
:100CA000084600F0CDFF02460B464046494600F09C
:100CB0001DFE00223C4B00F011FC80468946CBE72C
:100CC0000DF10901401A0DF1090604E00199491ED0
:100CD000401E0191761C31783029F7D0662C02D164
:100CE0000199491C03E0652C0CBF012100212B6BED
:100CF000CB189842B8BF431E002B1ED4834204DA9F
:100D0000F05C3528A8BF392000DA30201946721E61
:100D100002EB010800E05B1E18F80199491E8145AD
:100D2000F9D0392802D1705C401C7054002904D5D8
:100D30000198401C16465B1C0190019800B200907F
:100D40001BB232465146284600F034F82EE0C61D4C
:100D5000002F3FF7CFAE30460DF10901401A034690
:100D60005845C8BF5B46002B0DF109063FF53AAF69
:100D70008342BFF60FAF0DF10900C15C07297FF771
:100D800009AF0F2007E70000CBCCCC0C00002440BB
:100D900002FCFFFFFFFF0F800000E03F0000F07F3C
:100DA000A08601000000F03F84D797410FB0BDE856
:100DB000F08F00002DE9F84783B006468A461746B3
:100DC000984600F0FDF9B8F1000F406A356B90F8D5
:100DD000009002DC4FF00108BFA74AF02000BDF9E7
:100DE0003040662808BF641C15D0672840F0848016
:100DF00014F1040FC0F28680AC4280F2838096F832
:100E00003800641C010702D4A845B8BF454620B28B
:100E10002D1A48BF00250FFA84FAF068B169BAF1BB
:100E2000000F25DC4A1C30234354002D03DC96F8C8
:100E30003800010703D5F06800F80290521C15EB4A
:100E40000A0FB8BF6C4220B2441941424445B8BFB2
:100E5000A046B26171620FFA88F5F561F068B36976
:100E60002A463946184400F061FA641BB462C4E0B3
:100E700022B29045084417DA4246394600F056FA45
:100E8000B0694044B061AAEB0801002D716203DC37
:100E900096F838100A0705D5F16801F80090F06956
:100EA000401CF061B562A8E0394600F03FFAB06935
:100EB000002D5044A8EB040803DC96F838100A070C
:100EC00003D5F16801F80090401CB0610FFA88F07A
:100ED0008542F368B069B8BFA8460FFA88F207EBFD
:100EE0000A01184400F022FAB1690FFA88F00144AF
:100EF000B161281A706280E0BAF1610F14D14FF02D
:100F0000700A16E0A84504DA96F838100A0758BFA8
:100F100045466D1E48BF0025BAF1670F14BF4FF05C
:100F2000450A4FF0650A04E0BAF1410F08BF4FF0DF
:100F3000500AB169F368481CB061002D17F8012B05
:100F40005A5403DC96F838100A071BD5F168431C85
:100F5000B36101F80090002D14DDA8F101080FFA2B
:100F600088F039468542F768B8BFA8460FFA88F27C
:100F7000F81800F0DBF9B0690FFA88F108446D1A2F
:100F8000B0617562F068B1690844002C80F800A077
:100F900003D42B224270811C03E02D214170644256
:100FA000811C00206A460AE023460A2493FBF4F4DD
:100FB00004EB8405A3EB450302F8013B401C24B27B
:100FC000002CF1DC012806DC4AF02002652A04BF6F
:100FD000302201F8012B48B9302001F8010B07E05D
:100FE000401E1DF80030303301F8013B0028F7DCCB
:100FF000F268B0691044091AF16196F8380000F0FF
:10100000140010280DD17269B169706A8A18F169EB
:101010008218B06A8A188218706B8242BCBF821A2A
:10102000326204B0BDE8F087F8B505460E461746B3
:101030001C46002074B117F8011BB068A847B060C7
:1010400030B1F06A401CF0620020641EF3D1F2BDA2
:101050004FF0FF30F2BD00007072696E74665F730E
:101060003A20256E20646973616C6C6F776564004B
:101070007072696E74663A2062616420256E206128
:101080007267756D656E74007072696E74665F73F9
:101090003A2062616420257320617267756D656E08
:1010A000740000007072696E74665F733A2062614A
:1010B0006420256C7320617267756D656E74000025
:1010C00000000000000000006E616E004E414E0006
:1010D000696E6600494E46003000F0B40246106862
:1010E00095681318506803EB5004C0071DD54D4494
:1010F0001BE013F8017B05F8017B491EF9D1A0B173
:10110000B60813F8011B06F00306032E08BF13F8F8
:10111000016B01EB06214942801C294405D011F8DE
:10112000016B05F8016B401EF9D1A3420ED013F8F4
:10113000016B16F0030104BF13F8011BC91C300931
:101140000F28DAD113F8010B0F30D6E7F0BC02F10B
:101150000C0070471B48704770B45368D418042BB8
:1011600009DA41B1057804F8015B10F8016B16B19A
:101170005B1C491EF3E7536070BC704738B51446DA
:101180001D4661B1FFF7E8FF61686A6B2046904732
:101190006FF00102811A02D0491E01D001E003E084
:1011A00005E00021616032BD6FF0010032BD4FF0FB
:1011B000FF3032BDDA6B1047024BDFE7014BF9E736
:1011C000014870474C02002014020020C9B2027886
:1011D0008A421AB11CBF10F8012FF9E718BF00208E
:1011E000704730B4002513E050F8042BD30744BFF8
:1011F000A9F101039A18091F042942F8045BFAD2E5
:1012000013468C0744BF15809B1CC90748BF1D703F
:1012100050F8041B0029E7D130BC704780B500B9F5
:1012200006A005490B681BB122220021984701E066
:1012300000F013FD222002BDDC040020636F6E73FA
:10124000747261696E742068616E646C65723A20B4
:10125000626164206D6573736167650000F101036D
:10126000810704D010F8011B820781B1FAD102680E
:10127000A2F10131914311F0803104BF50F8042FE5
:10128000F6E709BAB1FA81F100EBD100401CC01AAF
:101290007047B1F5807F02D34FF0FF307047017087
:1012A000012070470078401E8041C043C00F704746
:1012B000C9B2830706D0521E22D310F8013B9942CF
:1012C000F7D11FE0083A13D302F1040241EA0121E9
:1012D00041EA014150F8043B121F21BF4B40A3F1EA
:1012E000013C2CEA030C1CF0803FF3D0C9B2001F74
:1012F000083210F8013B521E28BF91EA030FF8D8BC
:1013000018BF0120401E704780B5FFF723FF006C17
:1013100002BD8268521C8260426832B10268531C6E
:10132000036011704168491E4160704762B38B07CA
:1013300008D0521E11F8013B00F8013B00F0248058
:101340008B07F6D1830740F0208000BF103A07D307
:1013500030B4B1E83810103AA0E83810F9D230BCF7
:10136000530724BFB1E80810A0E8081044BF51F8A3
:10137000043B40F8043BD20724BF31F8022B20F88D
:10138000022B44BF0B7803707047121F17D35B000A
:1013900009D151F8043B20F8023B1B0C121F20F826
:1013A000023BF6D20BE051F8043B00F8013B1B0A6C
:1013B00020F8023B1B0C121F00F8013BF3D238BF90
:1013C000121D521E24BF11F8013B00F8013BF8D852
:1013D00070470000D3BBD9B1B2F5803F5BD2022A7F
:1013E0001ED98C46B1FBF2F102FB11C31B0443EA88
:1013F0001043B3FBF2FC02FB1C3380B240EA034310
:10140000B3FBF2F002FB103240EA0C4000237047BD
:10141000022A05D98446B0FBF2F002FB10C27047E5
:101420004AB105D100F0010249085FEA3000704777
:1014300000220023704700F013BC0B0002000021C3
:1014400000207047F7D3002200237047904271EBD1
:10145000030CF2D370B5B1FA81F4B3FA83F52C1B07
:10146000A340C4F1200532FA05F63343A2405FF0F1
:101470000046E64002E05B085FEA3202841A71EB44
:10148000030524BF204629467641F4D302000B0011
:101490003000002170BD70B5B1FA81F4B2FA82F566
:1014A000C4F120046419B4F12006DAD3B2405FF02D
:1014B0000044F440002502E052085FEA3303C61AF4
:1014C00071EB020E24BF3046714664416D41F3D387
:1014D00002000B002000290070BD0000B0B581EAB9
:1014E000030C0CF0004C40F2FF7515EA11541DBFBF
:1014F00015EA1357AC42AF4239E0E41923EA4553E9
:1015000043F48013C90241F0004141EA505EC70232
:101510001100A7FB020200284FF00000EEFB0120A3
:101520004FF00001E3FB072118BF42F00102401811
:1015300000214941E3FB0E01A4F580640F0302D2B0
:1015400052004041494154F101046CDD470872F1F9
:10155000004250F1000051EB0451A1F580115CBF35
:1015600041EA0C01B0BD4CEA05510020B0BD05EACE
:101570001357AC4214BFAF4241E050EA410E1CBFCA
:1015800052EA430E02E061460020B0BD24423C44D2
:101590001BD15FEA070EF6D0090302BF0146002007
:1015A000AEF1140EB1FA81F7AEEB070401FA07FEB3
:1015B0000C37C7F1200100FA07F7C8404EEA000EC9
:1015C00023EA455343F48013A2E733F00043B3FA10
:1015D00083F704BFB2FA82FE77440B3FE41BB7F1F6
:1015E000200E2FBF02FA0EF3BB40C7F1200E22FAE5
:1015F0000EFE38BF43EA0E03BA40641C82E750EA8D
:10160000410E14BF52EA430E6FF000014FF4001771
:1016100017EB430F8ABF194617EB410FB5E74CEAAA
:1016200005510020B0BDD4F10104B4F120070FDA58
:10163000C4F12007520828BF42F0010210FA07F552
:1016400001FA07F7E1BF2A43E0403843E1400FE0E9
:10165000352C98DCC7F1200452EA400220FA07F248
:1016600018BF42F0010231FA07F0A1400A430021FD
:1016700072F1004250F1000051EB0C01B0BD0000CE
:1016800010B5144600F002F8226010BDC1F30A53F1
:1016900043B14A0012F5001F28D2A3F2FE32A1EB9B
:1016A0000251704750EA410C20D001F0004C31EA61
:1016B0000C01B1FA81F204BFB0FA80F3D2180B3AF0
:1016C000B2F120032CBF00FA03F1914041EA0C0172
:1016D0003EBFC2F1200C20FA0CF319439040524255
:1016E00040F2FD33D21A01EB0351704700227047DC
:1016F0004FF4001C1CEB410F94BF1CEB430F09E09F
:1017000041EA030C50EA4C0C52EA0C0C03D2994209
:1017100008BF9042704714BF8B428242704700005E
:101720004FF4001C1CEB410F94BF1CEB430F09E06E
:1017300041EA030C50EA4C0C52EA0C0C03D28B42E7
:1017400008BF8242704714BF994290427047000020
:10175000124254D440F2FF7C1CEA11530FD063456F
:1017600031D09B1863453CBF01EB0251704701F03B
:10177000004141EA0C510020AFF30080704750EA6D
:10178000410320D001F0004C91EA0C011CD0B1FAC9
:1017900081F30B3B9A420DD9D21A994051EA0C01C0
:1017A000C3F1200C20FA0CFC61449840531C40F219
:1017B000FF7CD7E7914041EA0C01C2F1200C20FAEE
:1017C0000CF3194390407047B0FA80F31533202B87
:1017D000E0D3202AEED3203A203B9A4209D9D21AEC
:1017E00000FA03F141EA0C010020531C40F2FF7C97
:1017F000B8E700FA02F141EA0C01002070475242BA
:1018000040F2FF7C1CEA11530DD06345DBD0B2EBF4
:10181000030C3CBFA1EB025170470CF1010221EA1D
:10182000035141F4801150EA410CCCD001F0004C3E
:10183000352A27DC30B481EA0C01B2F1200309DA41
:10184000C2F12003044601FA03F5D0402843D140F9
:101850009C400CE0C3F12002450020FA03F418BFBD
:1018600044F0010421FA03F091400C43002174F18B
:10187000004550F1000051EB0C01244230BC7FF4D4
:101880007BAF70476146002076E70000C1F30A5342
:1018900040F2FE329B1A14DDD3F120034FEAE172CD
:1018A00008DDC90241EA505141F00040D84080189B
:1018B0005040704703F2E13010B1D24382F0004053
:1018C0007047002070470000C11768B14840401AB7
:1018D000B0FA80F29040D21CC907C2F5846241EA96
:1018E000025202EBD02140057047000070B44FF067
:1018F000004591EA030F40F1BD816B40841A71EB02
:10190000030603D2001BB141121973414FF4001CAE
:101910001CEB410F34BF7CEB430442E00C0DA4EB05
:101920001356352E4FDC45EAC323DB0A45EAC121B5
:10193000C912B6F120050DDD63FA05F6EB4086EA23
:101940000305124218BF45F00105C01851F100010E
:101950000CD213E062FA06F5F2405540F3415A40CA
:10196000B340F3405A408018594107D349085FEA11
:1019700030005FEA350528BF45F0010501F580110B
:10198000420875F1004250F1000041EB04514E0055
:1019900016F5001F70BC38BF70470020090D0905FF
:1019A00070471CEB410F10D252EA43060BD0BCEB40
:1019B000410F05D80C0DAB43661E342EB6DD02E098
:1019C000AB438018594170BC704770BC7047000031
:1019D000F0B540F2FF7581EA030C0CF0004C15EAFB
:1019E00011541DBF15EA1357AC42AF42E5E0BC41AC
:1019F000C1F31301C3F31303801A994143F4801315
:101A000004D2641E4000494180185941C90241EA8C
:101A10005051B1FBF3F603FB1611A2FB0675D7EB91
:101A2000C020A94102D2761E80185941C90241EA5C
:101A30005051B1FBF3FE03FB1E11A2FB0E75D7EB59
:101A4000C020A94103D2AEF1010E8018594189028C
:101A500041EA9051760546EA8E2EB1FBF3F603FB80
:101A60001611A2FB0675D7EB8020A94102D2761E83
:101A700080185941C90241EA50514EEA060EB1FBA5
:101A8000F3F603FB1611A2FB0675D7EBC020A941A4
:101A900002D2761E80185941C90241EA5051B1FB69
:101AA000F3F703FB1711A2FB0735D3EBC020A941C5
:101AB00067F100070CBF004247F0010766F3D52726
:101AC0004FEA1E31B80814F5806412DDBD0775F1C8
:101AD000004250EB0E5051EB045111F5801F5CBFDA
:101AE00041EA0C01F0BD4CF07F6141F0E041002083
:101AF000F0BDBD076D0840EA0E5041F48011D4F1ED
:101B00000104B4F120060ADAC4F120060200E04024
:101B100001FA06F3E1401843B24015430EE0342CBD
:101B200013DCC6F1200445EA40056D0820FA06F2F0
:101B3000154321FA06F0A1400D43002175F1004242
:101B400050F1000051EB0C01F0BD00205FEA0C01E8
:101B5000F0BDCFB992185B41B3FA83F704BFB2FA74
:101B600082F6BF190B3FB7F120062FBF02FA06F32A
:101B7000BB40C7F1200622FA06F638BF3343BA400D
:101B80001CB1E419641E33E77F4231F00041B1FA21
:101B900081F404BFB0FA80F6A4190B3CB4F120061E
:101BA0002FBF00FA06F1A140C4F1200620FA06F684
:101BB00038BF3143A0403C1B1AE7AC421ABF05EACC
:101BC0001357AF4212E050EA41061CBF52EA4306E7
:101BD000BFE750EA4107304661461CBF41EA055164
:101BE000F0BD52EA430C08BFC143F0BD00204FF4E2
:101BF000001616EB410F98BF16EB430F08BF16EB0C
:101C0000410F24BFC14305E016EB430F0CBF6146F3
:101C10004CEA0551F0BD0000400D491840EA812012
:101C20000CD2490DA1F58061491C40F0004005DB54
:101C3000D1F11F0154BFC840C01770470020704742
:101C4000014648B1B0FA80F18840C91CC1F58461F1
:101C5000090501EBD02140057047012000F0C0B814
:101C60007047000070B44FF0004591EA030F7FF514
:101C700045AE6B40841A71EB030604D26E40001B24
:101C8000B141121973414FF4001C1CEB410F34BFDA
:101C90007CEB430683E00C0DA4EB1356362E00F3C9
:101CA0007C80012E45EAC32341DC43EA525312BF34
:101CB000D20292025B08240545EAC12141EA505153
:101CC000D2EBC020994125D407D1B0FA80F610FAA2
:101CD00006F162D00020203608E0B1FA81F6B1406A
:101CE000C6F1200220FA02F21143B0404FEAF47428
:101CF000B4EB465434F001064FEA74040AD8D6F522
:101D00000016760D04F00044F04061FA06F25040EF
:101D1000F1404840C00A40EA415021F0004128BF4C
:101D20005FEA500550F1000044EBD12135E0DB0AB9
:101D300045EAC121C90AB6F120050EDD42EA024298
:101D4000120CC5F1200603FA06F6EB4042EA06053E
:101D50006D42984161F100010DE062FA06F5F24032
:101D6000554063FA06FC82EA0C02F3405A406D4289
:101D7000904161EB030111F4801F05D1641E6205DF
:101D800002D06D004041494121F48011430875F1B2
:101D9000004350F1000041EB045170BC70471CEB54
:101DA000410F15D223F0004352EA43060BD04FEA0D
:101DB0004C0CBCEB410F04D80C0D661E342EB7DD65
:101DC000EBE7801A994150EA410608BF0021E4E799
:101DD00008BF1CEB430F28BF6FF00001DDE70000D8
:101DE00080B5AFF30080024A11001820ABBEFBE7BC
:101DF00026000200F8B5040025D004F13C056978FE
:101E000021B900202870204600F038FC2421697098
:101E1000206802685208520002602068016841F49C
:101E2000004101602068026822F40042026000F074
:101E3000ADFC01466068DFF87023904205D2DFF800
:101E4000AC33994205D20120F2BDDFF8A4038142F0
:101E5000F9D32068DFF89C334668B1FBF3F3B60989
:101E600043EA861646602668376A6068904206D361
:101E70004FF4967043434FF47A70B3FBF0F35B1C5E
:101E8000BF0943EA87133362491E2368DE69676826
:101E9000974206D27F0000F043F8042913D20421B0
:101EA00011E0A06820B907EB470700F039F805E01A
:101EB0001920474300F034F841F4804108050CBF75
:101EC000012141F40041DFF8300306400E43DE619A
:101ED00022681368E169206A23F0C0030B430343BF
:101EE00013602268DFF81403936821690340E068F7
:101EF0000B43034393602168CA68A3696069120AAF
:101F0000034343EA0222CA602068016841F00101EC
:101F1000016000206860202169702063A870F2BD14
:101F2000B1FBF7F1491CC1F30B01704738B5040050
:101F300001D1012032BD04F13C052420687000F07D
:101F4000E4F900F073FC0020686068702063A870FA
:101F5000287032BD308D7262411E3185708D411EF8
:101F6000718570474146204600F000BB2DE9FC47D3
:101F700000F082F800F07AF855D100F06FF80028F0
:101F800051D1387801284ED000F062F801D400F029
:101F900099F94146D6F800E00C9D0B98DDF828C071
:101FA000DEF8008028F40068CEF800804FF0210EA3
:101FB00087F801E04FF0400887F802804FF0000EEC
:101FC000C7F804E000F005F900F0B1F9002825D1C8
:101FD00008E0716A0A780261706A411C7162308D92
:101FE000FFF7BAFF308D88B100F02DF888B900F006
:101FF0001DF8308D411E3185708D421E728530680E
:1020000042695307EED589B20029E2D100F016F8F3
:1020100030B17868042801D100F03BFA012003E0D8
:1020200000F030F800E00220BDE8F687706A326800
:1020300001781161706A411C71627047224629461D
:10204000304600F0BDBA22462946304600F08EBA2E
:102050000121397030680268D10770470094192354
:102060000122DFF87C12304600F01CBA06F13C0772
:1020700004467878202870470646884691469A4656
:1020800000F0D6BB3068016841F400710160202087
:1020900078700021B9700020387070472DE9FC4736
:1020A000FFF7EAFFFFF7E2FF72D1FFF7D7FF002843
:1020B0006ED1387801286BD0FFF7CAFF01D400F049
:1020C00001F94146D6F800E00C9D0B98DDF828C0D8
:1020D000DEF8008028F40068CEF800804FF0220E71
:1020E00087F801E04FF0400887F802804FF0000EBB
:1020F000C7F804E000F06DF800F05CF9002840D16A
:10210000308D18B1012804D100F0A7F800F04EF886
:1021100017E0022807D1306800F09AF800F070F854
:102120000020009001E000210091316800F0E7F804
:1021300007E000F088F8002823D100F067F8FFF7E7
:1021400009FF308D002826D0042817D20128F0D0AE
:1021500000F024F80AD100F071F8002811D100F045
:1021600083F8716A0870706A421CE8E700F066F84C
:10217000002806D100F08DF818B9F0E700F063F8F8
:1021800008B1012005E000F048F8DAD50069E8E779
:102190000220BDE8F68700F015F8FAE70228DFF81C
:1021A000508100942B467047A18601000090316851
:1021B0004A6900928B69009300980A6842F40072A1
:1021C0000A607047202078700021B97000203870B4
:1021D0007047C6F824C070855346708D30854A46D6
:1021E0003B48F062019400953046704780841E00A1
:1021F00000093D0040420F000030FFFF007CFFFF60
:102200003068026842F40062026070473068016919
:10221000706A0170716A4A1C704730680169706A9F
:102220000170716A308D4A1C411E72623185708D59
:10223000411E7185306841694A0770470022414656
:10224000304600F02FB922462946304600F0D4B976
:10225000016821F48061016070473068016821F4F1
:1022600080610160002070473068016841F40071AE
:10227000016030680169706A0170716A308D4A1CB2
:10228000411E72623185708D411E71853268106900
:1022900070473068016821F4806101602B46306826
:1022A0000169706A0170716A308D4A1C411E726248
:1022B00031850022708D411E718500944146304663
:1022C00000F0F0B8026842F00102026070470000BE
:1022D0000000FFFF3068016841F4807101607047C1
:1022E00002001000016841F4806101607047000045
:1022F0000400010090F83D007047006C70474A6987
:102300000092896900910098704720680168490827
:102310004900016020467047434600224FF00111FA
:102320002046BFE04B46424651462046E2E02DE9BA
:10233000F84304462068DDF82080099F894601683B
:1023400041F4807115461E4601600097FFF7E4FFD7
:1023500040B120680168CA0544BF4FF40070206492
:10236000032025E0206809F0FE0101613B4642465A
:102370004B49FFF7DAFFA8B90090216800F07AF81E
:10238000FFF7F1FD40B9012E0ED02168280A08613F
:102390003A46FFF7E7FD38B1206C042802D12068E7
:1023A00000F078F8012003E02068EDB2056100201C
:1023B000BDE8F2832DE9F84F05462868DDF828804E
:1023C0000B9F0C46FFF78EFF16462868016841F404
:1023D00080719946016000F055F800284FF4007AAA
:1023E0002CD12968DFF8B8B004F0FE00086100F0D5
:1023F00038F8002832D10090296800F03BF800F04E
:1024000037F870B9B9F1010F05D02968300A0861B1
:1024100000F02CF828B92868F6B2066100F026F81A
:1024200030B1286C042819D1286800F033F815E081
:102430002868FFF750FF00F025F838B128680168D8
:10244000CA0548BFC5F840A0032008E0286844F04A
:102450000104E4B2046100F004F800B10120BDE819
:10246000F28F3B4642465946284643E03A464146AB
:1024700028467BE04A6900923A46896900914146C4
:10248000009870470097434600224FF001112846FC
:1024900008E03068016841F4007101607047000095
:1024A000020001002DE9F041069F05460E469046C8
:1024B0001C4631022868090E01290CBF4069806959
:1024C000304080B2B1B288420CBF012000204045AC
:1024D0000DD114F1010FECD000F0AAF9C01B844219
:1024E00001D3002CE5D100F05DF8012000E00020D0
:1024F000BDE8F081F8B505460E4614461F46310288
:10250000090E286801291BD14169314089B2B2B254
:1025100091421BD041694A051AD5FFF7BBFF6FF402
:1025200080602A685061002105F13C002963202267
:1025300042708170426842F004024260017013E010
:102540008169314089B2B2B29142E3D10020F2BD3B
:1025500014F1010FD3D000F06BF9C01B844201D3FA
:10256000002CCCD100F01EF80120F2BD70B505465C
:102570000C46164628684169080611D4284600F022
:1025800067F858B914F1010FF4D000F051F9801B2D
:10259000844201D3002CEDD100F004F8012070BD7D
:1025A000002070BD00202863202105F13C0000229E
:1025B00041708270416841F02001416002707047B3
:1025C00070B505460C46164628684169480711D47F
:1025D000284600F03DF858B914F1010FF4D000F08E
:1025E00027F9801B844201D3002CEDD1FFF7DAFFDD
:1025F000012070BD002070BD70B505460C46164622
:10260000286841694A0617D44169CA060BD400F00C
:102610000FF9801B844201D3002CF1D100F00EF899
:1026200041F0200104E06FF01001416100F006F874
:1026300041600270012070BD002070BD0020286341
:10264000202105F13C0000224170827041687047F2
:1026500001684A6953050FD56FF480624A61002111
:1026600001633C30202242708170426842F00402D3
:1026700042600170012070470020704770470000E1
:102680002DE9F04104000F4678D0494E306800F043
:102690000F00B84202D200F073F86FD12068454DA8
:1026A000810712D5400703D5A96841F4E051A9601C
:1026B0002078010703D5A86840F46040A860A968A5
:1026C000A06821F0F0010143A9602178C8074DD529
:1026D0006068012802D129688A0305E0022818BF32
:1026E000032803D129688A0103D447E029688A07AF
:1026F00044D5A968890840EA8100A86000F098F8EC
:102700008046A868616800F00C00B0EB810F2DD006
:1027100000F08EF8A0EB080041F289318842F0D336
:10272000032021E02078410705D5AA68E06822F45B
:10273000E0520243AA602178080706D5A9682069FB
:1027400021F4604141EAC001A96000F03FF8AA68A5
:1027500019491A4BC2F30312895CC8401860184823
:10276000006800F06BF80020BDE8F081306800F0F0
:102770000F008742D6D200F003F8D3D00120F3E750
:102780003770316801F00F01B94270470B480D4AAC
:10279000006813680C49C3F3822206E00748094A1F
:1027A000006813680849C3F34232895CC840704727
:1027B000003C0240003802408C62000810020020F9
:1027C000B401002008380240E86F000830B5144C0E
:1027D000606800F00C00042802D0082802D01DE038
:1027E000104830BD226820680023410202F03F02F9
:1027F00004D525680B49C5F3881003E020680A4911
:10280000C0F38810A1FB0001FEF7E4FD2168C1F3CD
:102810000141491C4900B0FBF1F030BD024830BD18
:102820000438024000127A000024F40070470000CF
:1028300001484068704700BFAC01002038B50D4D1D
:102840000D4B2A7804464FF47A711868B1FBF2F206
:10285000B0FBF2F000F054F850B9102C08D200226E
:1028600021464FF0FF3000F023F8AC60002032BD6D
:10287000012032BDAC01002010020020090102003D
:1028800002D4294881547047284B02F00F021A44A1
:1028900002F8041C7047264B19684FF6FF0200022D
:1028A000114000F4E0600843224908431860704773
:1028B00038B51F4B1C68C4F30223C3F10704052C71
:1028C00028BF04241D1D072D34BF0023DB1E012556
:1028D00005FA04F4641E2140994005FA03F35B1ED7
:1028E0001A401143BDE83440C8E7010007D4012273
:1028F00000F01F01104B8A40400943F82020704728
:1029000010B5401EB0F1807F01D3012010BD0B4CEB
:1029100060600F214FF0FF30FFF7B0FF0021A16092
:1029200007202060002010BD00E400E018ED00E06A
:102930000CED00E00000FA0500E100E010E000E02E
:1029400070B5044600254FF0FF362CB308682060B0
:102950004A6862608868A0600A7B22730869206107
:102960004A6962618869DFF84C17A061216264627C
:10297000DFF84407E061206870B1804760B9A06863
:10298000022804BF94F82800002806D10C22122146
:10299000204600F07EFB00B13546284670BD38B5B4
:1029A000044600F033F800282BD100F07EFB00F045
:1029B000E2FD002825D100F029F8002821D100F0FF
:1029C00074FB00F0A0FD00281BD100F06AFB00F0B2
:1029D00025FEB0B904F128050420E87000F06FF876
:1029E00078B900F05EFB00F0BFFB50B904202871FD
:1029F00000F0A5F928B90C2104F11C0000F07AFCC4
:102A000000B181E001202870002032BD012104F1D5
:102A10001C0000F0B9BD10B5044600F03DF818B92F
:102A2000204600F079F900B133E004F128000021DC
:102A3000C17001710170002010BD80B51C3000F024
:102A400095FD00F075BB0000012008704870002360
:102A5000102088604FF4FA629FED4A0A00208B70C4
:102A6000CB704A60CB6081ED040A81ED050A886174
:102A7000704710B500F129042178012907D0A17809
:102A80001C3000F089FB00B103E001202070002021
:102A900010BD4FF0FF3010BD10B5044694F829006A
:102AA00060B104F12B0104F11C0000F0F7FB10B938
:102AB00000F005F800B1ECE784F8290010BD002112
:102AC00004F11C0000F068BB38B500F0E3F8002406
:102AD00000B119E09DF80000032811D8DFE800F0EC
:102AE000020C0508DFF8D81504E0DFF8D80505E08A
:102AF000DFF8D415296005E0DFF8D005286001E093
:102B00004FF0FF34204632BD4FF0FF3032BD0000A1
:102B100038B50D4669461C3000F0C0FB002400B1FA
:102B2000F2E79DF800000A2828D8DFE800F0060840
:102B30000B0E1114171A1D2024002C6020E0DFF862
:102B4000900516E0DFF88C1516E0DFF88C0510E034
:102B5000DFF8881510E0DFF888050AE0DFF85C157B
:102B60000AE0DFF8800504E0DFF87C1504E0DFF818
:102B70007C05286004E00349296001E04FF0FF3440
:102B8000204632BD0058D04580B500F1290100F043
:102B9000CBF933D1F1EE10FA48BF012127D400F070
:102BA000BEF948BF022122D400F0B4F948BF032186
:102BB0001DD400F0AAF948BF042118D400F0A0F9F0
:102BC00048BF052113D400F096F948BF06210ED462
:102BD00000F08CF948BF072109D400F082F948BF02
:102BE000082104D400F090FA4CBF09210A211C30BE
:102BF00000F0D2FA002830D000F090BAF1EE10FACE
:102C000048BF012027D400F08AF948BF022022D40F
:102C100000F080F948BF03201DD400F076F948BFCA
:102C2000042018D400F06CF948BF052013D400F03C
:102C300062F948BF06200ED400F058F948BF0720BB
:102C400009D400F04EF948BF082004D400F05CFA23
:102C50004CBF09200A208870002002BD38B500F062
:102C600019F8002400B14FE79DF8000003280DD8A3
:102C7000DFE800F002090406022102E0042003E07C
:102C80000821296004E01020286001E04FF0FF34A3
:102C9000204632BD0D4669461C3000F06EBA80B544
:102CA0000329B8BF002107DB0529B8BF022103DBD8
:102CB0000929B4BF032101211C3000F055FA00F0AE
:102CC00037BA1CB50C4669461C3000F029FC00B12F
:102CD000A1E1A3E13EB5002204460D46009201A900
:102CE00004F11C0000F01CFC20B969462046FFF7E7
:102CF000EBFE00B1ABE1ADE110B500F12A042178A3
:102D0000012907D0A1781C3000F016FB00B1C0E605
:102D100001202070002010BD10B5044694F82A0050
:102D200060B104F12C0104F11C0000F0C1FB10B9EA
:102D300000F005F800B1ACE684F82A0010BD0021CF
:102D400004F11C0000F0F8BA38B500F03CF900249A
:102D500000B1D9E69DF8000058B1022806D0042839
:102D60000AD008280BD00C280DD010E0DFF8801313
:102D70000BE0DFF8800304E0DFF87C1305E0DFF808
:102D80007C03286005E0DFF87813296001E04FF04C
:102D9000FF34204632BD000038B50D4669461C3070
:102DA00000F086FB002400B1AEE69DF800000A2882
:102DB00029D8DFE800F006080B0E1114171A1D20A1
:102DC00024002C6021E0DFF8080316E0DFF804138C
:102DD00017E0DFF8040310E0DFF8001311E0DFF87C
:102DE00000030AE0DFF8D4120BE0DFF8F80204E099
:102DF000DFF8F41205E0DFF8F402286005E0DFF800
:102E00001413296001E04FF0FF34204632BD80B535
:102E100000F12A0100F088F833D1F1EE10FA48BF32
:102E2000012127D400F07BF848BF022122D400F012
:102E300071F848BF03211DD400F067F848BF042192
:102E400018D400F05DF848BF052113D400F053F802
:102E500048BF06210ED400F049F848BF072109D425
:102E600000F03FF848BF082104D400F04DF94CBFF2
:102E700009210A211C3000F05FFA002830D000F050
:102E80004DB9F1EE10FA48BF012027D400F047F801
:102E900048BF022022D400F03DF848BF03201DD4D3
:102EA00000F033F848BF042018D400F029F848BFD8
:102EB000052013D400F01FF848BF06200ED400F000
:102EC00015F848BF072009D400F00BF848BF0820C8
:102ED00004D400F019F94CBF09200A2088700020A2
:102EE00002BDB4EE410AF1EE10FA7047B4EE610A89
:102EF000F1EE10FA7047B4EE420AF1EE10FA7047A4
:102F0000B4EE620AF1EE10FA7047B4EE430AF1EE45
:102F100010FA7047B4EE630AF1EE10FA7047B4EE9F
:102F2000440AF1EE10FA7047DFED0B4A0A78012AE5
:102F3000DFED0A0A9FED0A1ADFED0A1A9FED0A2A51
:102F4000DFED0A2A9FED0A3ADFED0A3A9FED0A4AC1
:102F5000B4EE640A7047000001004841015050453A
:102F60000160D044014050440180D04301005043EF
:102F70000100D042010050420100D04138B500F0BC
:102F800022F8002400B1BFE59DF8000050B10228EE
:102F900006D0042808D0082809D00C280BD00EE051
:102FA0007D210AE0FA2004E04FF4FA7105E04FF4C5
:102FB0007A70286005E04FF4FA61296001E04FF073
:102FC000FF34204632BD0D4669461C3000F0A1B9E1
:102FD00080B57E29B8BF02210FDBFB29B8BF0021D5
:102FE0000BDB40F2F5129142B8BF042105DB40F241
:102FF000E9329142B4BF08210C211C3000F07AF96B
:1030000000F096B81CB50C4669461C3000F084FAF6
:1030100000B100E002E04FF0FF3016BDBDF8000047
:103020002080BDF802106180BDF80400A08000205F
:1030300016BD3EB504460D4601A904F11C0000F082
:103040006BFA10B900F06DF800B100E002E04FF04B
:10305000FF303EBDBDF9040000F010F8C5ED000AD8
:10306000BDF9060000F00AF8C5ED010ABDF9080037
:1030700000F004F8C5ED020A00203EBDDDED000AB7
:1030800000EE100AB8EEC00A60EE200AFDEEE00A7B
:10309000704704B501236A461C3000F05FF800F069
:1030A00047B8002104F11C007047012104F11C0005
:1030B0007047000039310008453100080080D043D6
:1030C00023DB793D23DBF93D23DB793E23DBF93E2E
:1030D000000048410000D041000050420000D042B2
:1030E00000005043004050440060D0440050504520
:1030F00000008C4000000C4100008C4100000C429C
:1031000000008C42DFED040AB4EE600AF1EE10FA22
:10311000704700000058D0450100D0414FF0FF300B
:1031200002BD69462046FFF70FBE1C3000F015FABD
:1031300008B14FF0FF3002BD10B50446207B646932
:10314000A04710BD10B50446207B2469A04710BDE0
:1031500010B50446A0686468A04710BD10B50446C9
:10316000A0682468A04710BD38B500F039FA18B936
:1031700000F022FA00F02CFA32BD1CB500F0B5F8D0
:1031800000F01FFA06D004D3032903D038BF022170
:1031900000D30021217016BDFEB500F082F9002891
:1031A0002E4630D100F052F924D100F04AF900281F
:1031B00029D19DF80510032925D8DFE801F0020682
:1031C0000C13280016D1012614E0280018BF012D89
:1031D00010D102260EE028001CBF012D022D09D1BE
:1031E000032607E0280018BF012D07D0022D18BFC5
:1031F000032D03D000208DF8000009E000210426F3
:103200008DF8001004E0002200288DF8002032D153
:103210006946204600F099FA9DF8001001292AD14C
:1032200001A9204600F09EFA002824D19DF8040050
:1032300003281ED8DFE800F002060C13280018D17E
:10324000012619E0280018BF012D12D1022613E033
:1032500028001CBF012D022D0BD103260CE02800F5
:1032600018BF012D03D0022D18BF032D01D1042654
:1032700002E02E4600E050B900F00AF8FFF768FFC0
:1032800028B900F0D5F800F003F8FFF767FFFEBD9E
:1032900001230DF101021021204670471CB500F0FA
:1032A00024F800F0B5F91DD8DFE801F006080A0C93
:1032B0000E10121416181A00012114E0022112E057
:1032C000032110E004210EE005210CE006210AE0B4
:1032D000072108E0082106E0092104E00A2102E0B4
:1032E0000B2100E00021217016BD0C4601236A4627
:1032F00010212DE738B500F017F91121FFF728FF4D
:1033000030B900F080F900F023F9112100F0C2F982
:1033100032BD1CB500F0F2F89DF8001011F00F015D
:1033200018BF012906D0042918BF082902D00C298A
:1033300018BF0221217016BDFEB500F0B2F80028BA
:103340002E4630D100F082F824D100F07AF800281F
:1033500029D19DF80510032925D8DFE801F00206E0
:103360000C13280016D1012614E0280018BF012DE7
:1033700010D102260EE028001CBF012D022D09D11C
:10338000032607E0280018BF012D07D0022D18BF23
:10339000032D03D000208DF8000009E00021042651
:1033A0008DF8001004E0002200288DF8002032D1B2
:1033B0006946204600F0C9F99DF8001001292AD17C
:1033C00001A9204600F0CEF9002824D19DF8040080
:1033D00003281ED8DFE800F002060C13280018D1DD
:1033E000012619E0280018BF012D12D1022613E092
:1033F00028001CBF012D022D0BD103260CE0280054
:1034000018BF012D03D0022D18BF032D01D10426B2
:1034100002E02E4600E050B900F03DF8FFF798FEBC
:1034200028B900F005F800F036F8FFF797FEFEBD6A
:103430009DF8010000F00F0040EA06108DF8010031
:1034400070470DF10501204600F058B99DF80210B3
:103450009DF80370084641EA500141EA900141EAB3
:10346000D00141EA101141EA501141EA901139436B
:1034700041EA570141EA970141EAD70141EA1711B0
:1034800041EA571141EA971101F00101074341EA6E
:10349000D7100128704701230DF1010211212046A8
:1034A000704704460D460DF1020100F00BB9000013
:1034B0001CB500F023F800F0CEF8491E09291AD8EF
:1034C000DFE801F00507090B0D0F11131517012196
:1034D00012E0022110E003210EE004210CE005219E
:1034E0000AE0062108E0072106E0082104E009219E
:1034F00002E00A2100E00021217016BD0C460123E4
:103500006A46112124E638B500F04FF818B900F0EA
:10351000ADF800F042F832BD0A460623222117E634
:103520000A460623282113E60D46044601236A466F
:10353000704738B5FFF7F8FF0121FFF709FE30B9F2
:1035400000F08DF800F004F8012100F0A3F832BD7E
:103550008DF8000001236A46704738B500F093F8F3
:1035600018B900F044F800F086F832BD0A4601238D
:103570000F21FFF7EDBD38B500F017F818B900F0CE
:1035800091F800F00AF832BD38B500F00EF818B91D
:1035900000F083F800F001F832BD8DF8000001233F
:1035A0006A4612212046FFF7D9BD0D460446012385
:1035B0006A461221FFF7CCBD9DF8000065F3830039
:1035C00070479DF80010890801F003010129704738
:1035D0008DF8000001236A4610212046FFF7BEBD8A
:1035E0000D46044601236A461021FFF7B1BD9DF840
:1035F000000000F07F0040EAC51070479DF8001001
:10360000C1F3001170479DF8000065F30300704797
:103610009DF800100909491E0A29704738B500F0C5
:1036200013F818B900F003F800F006F832BD9DF861
:10363000000065F3020070478DF8000001236A4620
:103640000A212046FFF78ABD0D46044601236A463B
:103650000A21FFF77DBD9DF80010090970479DF80C
:10366000000000F03F0040EA851070479DF8000020
:1036700065F3861070478DF8000001236A460B2120
:103680002046FFF76BBD0D46044601236A460B2119
:10369000FFF75EBD2046FFF761BD9DF8000065F3B2
:1036A000820070479DF8000065F3000070470D46EA
:1036B00004460221FFF73DBF01236A46052120464B
:1036C000FFF746BD38B5FFF7F2FF60B901232A4680
:1036D000462100F00AF830B901236A1C472100F0A6
:1036E00004F800B904E032BD0D212046FFF730BDDB
:1036F0002046BDE834400021FFF71BBF38B5FFF777
:10370000D6FF20B900F01BF808B900F014F800F05B
:103710000AF806D004D3032903D038BF022100D30E
:103720000021297032BD9DF80010C90801F0030185
:1037300001297047287000212046FFF7FABE0123B7
:103740006A465F212046FFF703BD38B5FFF7AFFF9C
:1037500038B9FFF7B1FF20B9FFF7EDFFFFF74EFFD4
:10376000297032BD38B5FFF7A2FF90B900F012F80A
:1037700078B99DF80000000900F00300012806D088
:1037800004D3032803D038BF022000D30020FFF762
:10379000D1FF32BD01236A4660212046FFF7D8BC25
:1037A00070B5044600254FF0FF362CB30868206042
:1037B0004A6862608868A0600A7B22730869206199
:1037C0004A69626188690FF2D561A0612162646211
:1037D0000FF2D560E061206870B1804760B9A068E1
:1037E000022804BF94F82800002806D105222121D0
:1037F000204600F0A8FA00B13546284670BD38B51D
:103800000446012104F11C0000F077FC002824D1BB
:10381000012104F11C0000F03AFCF0B9002104F190
:103820001C0000F0ABFCC0B9042104F11C0000F046
:103830004DFB90B904F12805DFF8600368600021B2
:103840002972697204F11C0000F0B8FB28B900214C
:1038500004F11C0000F024FC00B1D4E10120287028
:10386000002032BD10B5044600F03AF800B134E053
:1038700004F12800002141600172417201700020B2
:1038800010BD80B51C3000F034FCCFE10120087081
:10389000002210204A708A70CA704A608860CA602C
:1038A0000020DFF8042308614A618861704710B581
:1038B000044694F8290001280DD004F12C00427927
:1038C000017990ED000A204600F044FA00B104E0CE
:1038D000012084F82900002010BD4FF0FF3010BDFA
:1038E00010B5044694F8290040B1002104F11C00F1
:1038F00000F064FB00B1F0E784F8290010BD00007F
:103900007CB504460D460DF1010104F11C0000F0E8
:10391000D9FB002628B9694604F11C0000F0FAFA28
:1039200000B1C4E09DF801009DF8001091B1491E5E
:1039300003291BD9C91F0DD0491E022916D9C91F39
:1039400008D0491E032911D9C91F03D0491E0229D5
:103950000CD91DE003281BD8DFE800F0141702057E
:103960009FED850A18E09FED850A15E003280FD822
:10397000DFE800F00205080B9FED810A0CE09FEDE7
:10398000810A09E09FED800A06E09FED800A03E0CE
:10399000BFEE000A4FF0FF3685ED000A304676BDD7
:1039A0007CB506460C460DF1010106F11C0000F045
:1039B00030FB002510B900F091F900B177E09DF8D7
:1039C00000009DF80110A9B1012916D0022926D0C6
:1039D000032927D0042928D0052929D006295BD01E
:1039E000072928D0082935D0092942D0122918BF23
:1039F000222954D19FED660A55E003280CD9001FF7
:103A00000DD0001F032884BF0838032804D9001FE5
:103A100005D0001F032842D89FED5E0A43E0B2EEB6
:103A2000090A40E0B3EE090A3DE09FED5B0A3AE087
:103A30009FED5A0A37E003282ED9001F07D0001F38
:103A4000032884BF0838032826D9001F1DD19FED05
:103A5000540A28E003281FD9001F07D0001F03289D
:103A600084BF0838032817D9001F0ED19FED4D0AD7
:103A700019E0032810D9001F0BD0001F032884BFB2
:103A80000838032808D9001F03D0001F032803D9D2
:103A900005E09FED450A06E09FED440A03E0BFEE16
:103AA000000A4FF0FF3584ED000A284676BD4FF03E
:103AB000FF3076BD0022002190F82930012B04BF91
:103AC000C9B200F047B9DFED3A0A2C30B4EE600A13
:103AD000F1EE10FA0171427148BF9FED2E0A46D4F3
:103AE000DFED340AB4EE600AF1EE10FA48BFB2EE30
:103AF000090A3CD4DFED300AB4EE600AF1EE10FAA8
:103B000048BFB3EE090A32D4DFED2C0AB4EE600AE6
:103B1000F1EE10FA48BF9FED200A28D4DFED280A05
:103B2000B4EE600AF1EE10FA48BF9FED1C0A1ED4F5
:103B3000DFEDB80AB4EE600AF1EE10FA48BF9FED6F
:103B40001B0A14D4DFEDB60AB4EE600AF1EE10FAE7
:103B500048BF9FED130A0AD4DFED1A0AB4EE600ADB
:103B6000F1EE10FA4CBF9FED0F0A9FED0F0A80EDAA
:103B7000000A00207047000023DB794023DBF94076
:103B800023DB793E23DBF93E23DB793F23DBF93F5F
:103B900000000000CDCCCC3F000048420000C842ED
:103BA0000000C843000048440000C84400004843E7
:103BB000CECCCC3F010048410100C8410100484241
:103BC0000100C8420100484438B50C4669461C3023
:103BD00000F078FA002500B115E09DF800000328F8
:103BE0000BD8DFE800F002040608022008E00420F9
:103BF00006E0082004E0102002E04FF0FF352846E0
:103C00002060284632BD4FF0FF3032BD80B5032919
:103C1000B8BF002107DB0529B8BF012103DB092953
:103C2000B4BF022103211C3000F03AFA08B14FF072
:103C3000FF3002BD7FB506460D4600F04FF8002468
:103C400028B901A906F11C0000F04FFA10B14FF09D
:103C5000FF3037E09DF8000090B1401E03281ED9C8
:103C6000C01F0DD0401E022819D9C01F08D0401E09
:103C7000032814D9C01F03D0401E02280FD91EE00C
:103C8000BDF9040000F025F82880BDF9060000F019
:103C900020F86880BDF9080000F01BF80DE0BDF9C0
:103CA000040000F011F82880BDF9060000F00CF8BF
:103CB0006880BDF9080000F007F8A88001E04FF027
:103CC000FF34204604B070BD411000EB91708010AD
:103CD0007047C11000EB117000117047694606F182
:103CE0001C0000F017B93EB500220D4600920446B4
:103CF00001A9FFF79FFF20B969462046FFF700FEA4
:103D000010B14FF0FF303EBDBDF9040000F010F8D7
:103D1000C5ED000ABDF9060000F00AF8C5ED010A7C
:103D2000BDF9080000F004F8C5ED020A00203EBD10
:103D3000DDED000A00EE100AB8EEC00A60EE200ABF
:103D4000FDEEE00A704704B501236A461C3000F01E
:103D5000B7F86BE7F8B506460C46E0B22DED028BDE
:103D6000401EB0EE408A032815469FED2A0A03D86C
:103D7000DFE800F00E13181D012DF2EE090A14BF42
:103D80000427142700F085F81BD5B0EE608A24E0E4
:103D9000012D0CBF132703270DE0012D0CBF1227A7
:103DA000022708E0012D0CBF1127012703E0012D98
:103DB00014BF0027102700F067F8A8BF9FED2B8ADB
:103DC00025DADFED2B0A00F064F848BF012135D475
:103DD000DFED280A00F05DF801D502212EE0DFEDCD
:103DE000260A00F056F848BF032127D4DFED230A46
:103DF00000F04FF848BF042120D4DFED210A00F085
:103E000048F848BF052119D400F03EF804D5062132
:103E100014E000BF010048439FED010A02E000BF2B
:103E20000100C84300F030F848BF072106D49FEDD9
:103E3000150A00F029F84CBF0821092106F11C00E1
:103E400000F0BCF828B9394606F11C0000F03EF835
:103E500010B14FF0FF3006E006F12C0080ED008A33
:103E6000047145710020BDEC028BF2BD0000484397
:103E7000CECCCC3F010048410100C841010048427E
:103E80000100C84201004844B4EE408AF1EE10FA45
:103E90007047B4EE608AF1EE10FA704710B5044630
:103EA000207B6469A04710BD10B50446207B2469BF
:103EB000A04710BD10B50446A0686468A04710BDB7
:103EC00010B50446A0682468A04710BD38B500F0BE
:103ED00099F8E0B99DF8011005F00C0205F0030017
:103EE00001F0F001024311438DF8011000F084F855
:103EF00068B901236A4625212046FFF7DBFF30B968
:103F00009DF800002D0965F3820000F0D4F832BD61
:103F10000000000038B50C46054601236A46202102
:103F2000FFF7C8FF002848D100F0FFF800F007F9BC
:103F300000F000F99DF80030890001F0100102F056
:103F40000C02511803F003035918C9B21B2932D8C7
:103F5000DFE801F01412100E313131311C1A18163D
:103F600031313131262422201E3131312E2C2A28A4
:103F700003211EE002221FE001211AE000221BE0C3
:103F80000B2116E00A2217E0092112E0082213E0B3
:103F900014210EE013220FE012210AE011220BE09F
:103FA000102106E01B2207E01A2102E0192203E09B
:103FB0001821217032BD0422227032BD38B500F0C4
:103FC00021F8C0B99DF8010000F00F0040EA05108B
:103FD0008DF8010000F010F868B901236A4622212B
:103FE0002046FFF767FF30B99DF800002D0965F303
:103FF000010000F0B6F832BD01230DF101022021CD
:1040000020465DE70D46044601230DF10102202103
:1040100050E738B500F0ACF82021FFF74BFF00283F
:1040200034D101236A46222100F089F89DF800105E
:104030009DF8012001F00301120902EB0111012991
:1040400014D0022921D0032913D004291DD0052919
:1040500011D0062919D007290FD0082915D0092910
:104060000DD0122911D022290BD00DE0012323708D
:1040700032BD032206E0052204E0072202E0092205
:1040800000E02222227032BD0021217032BD38B5FD
:1040900000F045F818B900F05FF800F039F832BDCB
:1040A00038B500F04EF828B99DF8000065F305100A
:1040B00000F001F832BD8DF8000001236A46252189
:1040C0002046FDE61CB500F042F89DF800100909F5
:1040D00001F00301012906D004D3032903D038BF1E
:1040E000022100D30021217016BD0A460623282193
:1040F000E0E60A4601230F21DCE638B500F00FF8B0
:1041000028B99DF8000065F3820000F001F832BD87
:104110008DF8000001236A4621212046D0E60D4695
:10412000044601236A462121C4E601230DF1010260
:10413000252170479DF801109DF800207047284602
:10414000B8E60D46044601236A462521B2E60C4630
:1041500001236A462521ADE69DF8000065F3C30002
:1041600070478DF8000001236A4622212046A7E609
:104170000C46054601230DF10102704738B500F0E9
:1041800015F818B900F003F800F008F832BD9DF8F2
:10419000000000F01F0040EA451070478DF8000055
:1041A00001236A462E212046FFF78ABE0D460446AB
:1041B00001236A462E21FFF77DBE00002DE9F84C51
:1041C0002DED0A8B82B041EC190B149C43EC182B9B
:1041D0000CB10020206051EC180B20F0000631F0EB
:1041E000004708BF002E14D053EC192B0020DFF835
:1041F000241600F063FB0CD0DFF8141600F05EFB11
:104200000FD151EC180B48004015401C09D109038F
:1042100007D102B00020BDEC0A8BDFF8F815BDE82D
:10422000F48C51EC190B48004015401C0DD051EC9A
:10423000190B31F0004108BF002806D051EC180BD3
:1042400048004015401C40F0F58051EC190B480027
:104250004015401C05D1090318BF51EC190B40F063
:10426000CF8251EC180B48004015401C05D10903C2
:1042700018BF51EC180B40F0C38251EC180B4800EA
:1042800001244015401C61D051EC180B4B0043EA4F
:10429000D0734200002B08BF002A04D1B0EE48AA18
:1042A000F0EE68AA19E040F23345A5EB5352352AE7
:1042B00004DB00F0000001F000410CE0202A03DDE7
:1042C000203AD140914000E001D1002003E0002AD3
:1042D000C4BFD040904041EC1A0B53EC182B51EC6A
:1042E0001A0B00F0EBFA18BF00244B0043EAD0731E
:1042F0004200002B08BF002A04D1B0EE4A0AF0EEBB
:104300006A0A19E040F23445A5EB5352352A04DB22
:1043100000F0000001F000410CE0202A03DD203A0B
:10432000D140914000E001D1002003E0002AC4BF49
:10433000D040904041EC100B44B153EC1A2B51EC9F
:10434000100B00F0BBFA0CBF0024012451EC190B38
:1043500048004015401C0ED109030CD151EC190B3B
:10436000C80F25D153EC182BDA0F0CBF9FED8C0B27
:104370009FED8D0B42E251EC180B48004015401C9C
:1043800028D1090326D153EC192B23F00041B1F5B4
:10439000801F22F000002ED20022002908BF002832
:1043A00000922DD06A4651EC190BFDF769F927E010
:1043B00051EC180BC80F06D1002C0CBF9FED780BE9
:1043C0009FED7B0B1AE2002C0CBF9FED770B9FED4E
:1043D0007A0B13E2002C1ABF51EC190BC80F002006
:1043E00053EC182BDA0F1ED100280CBF9FED6E0B7B
:1043F0009FED710B02E2DFF8204404EB11500090B6
:1044000051EC180BC80F009806D10028CCBF9FEDC7
:10441000640B9FED650BF1E10028CCBF9FED620BB3
:104420009FED5F0BEAE100280CBF9FED5D0B9FED58
:10443000600BE3E151EC180B4B0043EAD0734200F0
:10444000002B08BF002A04D1B0EE48AAF0EE68AAFB
:1044500019E040F23345A5EB5352352A04DB00F056
:10446000000001F000410CE0202A03DD203AD14099
:10447000914000E001D1002003E0002AC4BFD040F9
:10448000904041EC1A0B51EC190BC80F11D053ECB2
:10449000182B51EC1A0B00F011FA0AD0AFF3008080
:1044A00002B04FF0FF30BDEC0A8B6FF00041BDE869
:1044B000F48C53EC192B23F00041B1F5801F22F04E
:1044C00000000BD20022002908BF0028009211D062
:1044D0006A4651EC190BFDF7D3F809E0CE4E06EB16
:1044E00011500090DFF89C13CC480340104619434C
:1044F00041EC190B51EC190BC80F36D021F00040DC
:1045000053EC192B034643EC192B51EC1A0B4B00BF
:1045100043EAD0734200002B08BF002A04D1B0EE5A
:104520004A0AF0EE6A0A19E040F23445A5EB53520C
:10453000352A04DB00F0000001F000410CE0202AE5
:1045400003DD203AD140914000E001D1002003E09A
:10455000002AC4BFD040904041EC100B53EC1A2B02
:1045600051EC100B00F0AAF901D1002600E0012661
:104570000098012824D151EC190BA94AA94BFDF749
:10458000B7F81DD253EC192B00204FF08041FCF7F7
:10459000A5FF00259FEDC0BB41EC190B2EE000BF2D
:1045A000000000000000F07F00000000000000009C
:1045B000000000000000F0FF00000000000000808C
:1045C00053EC192B00209849FCF788FF9FED97AB1F
:1045D00053EC1A2BFDF746FBFDF758F9A0F1200527
:1045E0002846FDF771F90022924BFCF777FF53EC58
:1045F0001A2BFDF737FB41EC1B0B6D0151EC190B2E
:1046000053EC1B2BFDF772F941EC1A0B53EC192BF1
:1046100051EC1B0BFDF726FB02460B4651EC1A0B27
:10462000FDF7D6F941EC190B53EC192BFCF756FFAB
:1046300041EC1C0B53EC1C2B7F488049FCF74EFFD0
:104640007F4A804BFDF70EFB53EC1C2BFCF746FF1B
:104650007D4A7E4BFDF706FB53EC1C2BFCF73EFF1F
:104660007B4A7C4BFDF7FEFA53EC1C2BFCF736FF24
:10467000794A7A4BFDF7F6FA53EC1C2BFCF72EFF28
:10468000774A784BFDF7EEFA53EC1C2BFCF726FF2C
:10469000754A764BFDF7E6FA53EC1C2BFCF71EFF30
:1046A00053EC1A2BFDF722F907468B460020594997
:1046B00053EC1B2BFDF71AF900224FF08043FCF757
:1046C0000DFF3A465B46FDF7CDFA53EC192BFCF78C
:1046D00005FF53EC1A2BFDF7C5FA41EC190B0098B6
:1046E0004A4F7F4407F593772F44FDF7EDF8D7E95C
:1046F0000023FDF7B7FA41EC1A0B53EC192B5C4879
:104700005C49FCF7EBFE53EC1A2BFDF7ABFA53ECCC
:10471000182BFCF7E3FE0022574BFCF7E9FF41ECB6
:104720001B0B68D30122554BFCF7FAFF59D9C80F70
:1047300053EC1B2B1ABF002051495249FDF792FA46
:10474000FDF7A4F8054653EC192B51EC180BFCF7B8
:10475000C5FE82468B46D7E90201D7E90423FDF75F
:1047600081FA53EC182BFCF7B9FE9FED47BB53ECD5
:104770001B2BFCF7B3FE52465B46FDF773FACDE9FF
:10478000000153EC1A2B51EC180BFCF7A7FE07465F
:104790008B462846FDF798F802460B4638465946A0
:1047A000FDF7A4F853EC1B2BFCF798FEDDE9002382
:1047B000FDF758FA0CB12560002500950022154B35
:1047C00000F08CF820F0000231F0004308BF002A0E
:1047D00041EC100B0FD048004015401C03D10903D9
:1047E00001D19FED2B0B4EB151EC100B81F000412C
:1047F00041EC100B02E09FED2A0BF4E751EC100B9B
:1048000002B0BDEC0A8BBDE8F48C00BF941A000026
:104810000000F0BF0000F03F02FCFFFFFFFF0F8031
:10482000CD3B7F669EA0E63F0000504000000000A8
:104830000000E03F0000903FF7DE29BFD8F8C23FFC
:10484000F4B3FECC1A99C33F62CB68D96F46C73F19
:10485000C6C912DAC471CC3F4AE98A942449D23FCE
:10486000F75F97999999D93FBC5555555555E53FEF
:10487000FE822B654715F73F0000E0C00000E040D6
:104880000000E0BF0000E03FEF39FAFE422EE63FB5
:10489000000000000000F07F000000000000F03F7A
:1048A000000000000000000080B541EC100B00206B
:1048B000009051EC100BFFF781FC04BD90420CD12D
:1048C00041EA030C50EA4C0C07D0994205D14FF451
:1048D000001C1CEB410F38BF89427047F8B52DED25
:1048E0000A8B41EC1A0B48004015109D401C43EC0C
:1048F000182B23D051EC1A0B31F0004108BF0028CF
:104900001CD051EC180B48004015401C16D051EC3F
:10491000180B31F0004108BF00280FD051EC1A0BE2
:104920000022DFF84833FCF7E3FE80F0A38055EC6B
:10493000184B9FED800B05F00042ACE051EC1A0BD8
:1049400048004015401C02D1090340F0898151EC18
:10495000180B48004015401C01D1090353D151ECFC
:10496000180B31F0004308BF002A08D151EC1A0B94
:1049700048004015401C46D1090344D10DE04800D1
:104980004015401C12D1090310D151EC1A0B4800FC
:104990004015401C37D1090335D1AFF30080BDEC81
:1049A0000A8B4FF0FF306FF00041F4BD51EC1A0B51
:1049B00031F0004108BF002828D151EC180B480005
:1049C000400D05EB000234D151EC180B31F00041E1
:1049D00008BF002806D02A4651EC180BFCF7B8FE99
:1049E00041EC180B51EC180B20F0000231F00043A1
:1049F00008BF002A05D048004015401C03D1090318
:104A000001D1AFF3008051EC180B2BE151EC1A0BE4
:104A100048004015401C26D1090324D153EC1A2B21
:104A200051EC180BBDEC0A8B01B0BDE8F040FCF76F
:104A300055BD002AC8DD40F2FF70824209DB9FEDC0
:104A40009F0B53EC102B01F000410B4343EC182B50
:104A5000C8E76FF31E5141EA025155EC184B0D4661
:104A600045EC184BBEE755EC184B9FED320B05F0AB
:104A7000004210E001227E4BFCF752FE11D89FED60
:104A80008F0B51EC100B55EC184BAFF3008005F079
:104A9000004040EA010251EC100BBDEC0A8B1146BC
:104AA000F4BD53EC1A2B73487349FCF717FD41EC26
:104AB000100B53EC102B9FED719B03F0004251EC57
:104AC000190B0C46144353EC192B51EC100B2346D5
:104AD000FDF7C8F8FCF7DAFE0446FCF7F5FE41ECFA
:104AE0001B0B53EC1B2B4FF078406649FCF7F6FC90
:104AF00002460B4651EC1A0BFCF7F8FE06460F4631
:104B000053EC1B2B60486149FCF7E8FC02460B465E
:104B100030463946FCF7EAFE41EC1A0B21F0004121
:104B200000225B4BFCF7E4FD08D2B0EE48AAF0EEA1
:104B300068AA55E0000000000000000053EC1A2BAA
:104B400051EC1A0BFCF7CAFC41EC1B0B53EC1B2B72
:104B500050485149FCF7C2FC504A514BFDF782F8CE
:104B600053EC1B2BFCF7BAFC41EC1C0B53EC1B2B3E
:104B70004C484D49FCF7B2FC4C4A4D4BFDF772F8DE
:104B800053EC1B2BFCF7AAFC53EC192BFDF76AF82E
:104B900053EC1A2BFCF7A2FC41EC190B53EC1C2B29
:104BA000FDF760F89FED43AB53EC1A2BFDF75AF875
:104BB00006460F4651EC1C0B53EC192BFCF796FEE6
:104BC00053EC1A2BFDF74EF802460B463046394699
:104BD000FCF7FEFE53EC182BFCF780FC41EC1A0BA3
:104BE00051EC1A0B2A194800400D02EB000319D0B2
:104BF000002B17DD40F2FF70834209DB9FED2F0B86
:104C000053EC102B01F000410B4343EC1A2B16E040
:104C10006FF31E5141EA035155EC1A4B0D4645EC1A
:104C20001A4B0CE051EC1A0B31F0004108BF002880
:104C300005D051EC1A0BFCF78BFD41EC1A0B51EC33
:104C40001A0B20F0000231F0004308BF002A05D003
:104C500048004015401C03D1090301D1AFF3008087
:104C600051EC1A0BBDEC0A8BF4BD000000C89CC0CF
:104C700000C89C40FE822B654715F73F00000000EE
:104C80000000E03F422EE63FF2E4D5BCE7E84B3EB1
:104C90000000903C112E5781A03F503F5843128C8A
:104CA0008F71BC3F4BE8A541B752013F0BBDF3DA12
:104CB000E8708C3F000000000000F03F00000000A2
:104CC0000000F07F30E070B5DFF83454DFF8344492
:104CD000287868B1322000F091FA002000F016FB2D
:104CE000616D8842F9D0322000F088FA00202870E7
:104CF00000251C2169436618307810B1284600F061
:104D0000F1F8707810B1284600F032F9B07810B19F
:104D1000284600F0AFF96D1C032DEAD34FF47A70EA
:104D2000BDE8704000F06ABA2DE9F84187B0002074
:104D300000F078FA0121002000F09EFA002000F037
:104D4000E5FA401E8041DFF8BC43DFF8BC83C00FAA
:104D500060650027002000F0EAFA0321002000F03F
:104D60004BFB0221012000F047FB0421022000F050
:104D700043FBA9A51C20784326183146384600F08D
:104D8000A8FBF07803903B46B17802914FF4807114
:104D90007078019004F15800327800927F1C4246EE
:104DA00000F00AFD00F035F8032104A896ED050A8D
:104DB00000F03FF8B06806990190009108F1740284
:104DC00000F02CF800F025F8032104A896ED040A61
:104DD00000F02FF8706806990190009108F1A00288
:104DE00000F01CF800F015F8032104A896ED060A5F
:104DF00000F01FF8F06806990190009108F1D002C8
:104E000000F00CF800F005F8032FB3D308B0BDE8AC
:104E1000F08104F15801284600F0F0BC059B4FF4E6
:104E2000807104F1580000F0C7BCB549012008703A
:104E3000704770B52DED048BB0EE408AB5EE408A18
:104E40000646F1EE10FAAEBF00200120B1EE488A0E
:104E500030700846FCF738FD41EC190B18EE100ACB
:104E600000F0E0FC04460D46B0EE491A00F034F8BC
:104E700053EC102B0020A649FCF7AAFD22462B4636
:104E8000FCF7F0FE00F0F2FC00EE100ABDEEC01AD6
:104E900086ED011AB0EE491AD6ED010AF8EE600A65
:104EA00030EE608A00F018F8B0EE409AF0EE609AAA
:104EB00018EE100A00F0B6FC53EC192BFCF70EFBB1
:104EC00041EC100B00F006FD51EC100BFCF7DEFC82
:104ED000B060BDEC048B70BDF0EE691A9FED8D0BD8
:104EE00000F01FBD70B58EB0044608AA022100F084
:104EF0000FFB844D20B123468AA200F0B4F806E0EF
:104F00000A980999854A00F091F800F0A2F800F09B
:104F10007CF800F076F810B100F0A2F801E000F0A3
:104F200093F800F073F807AA0221204600F003FB73
:104F300020B123468AA200F096F805E000F07EF842
:104F400000F06CF800F085F800F060F806AA022185
:104F5000204600F016FB28B14FEA04038BA200F0B4
:104F600082F804E0DDF818008CA200F070F844E04C
:104F700070B58EB0044608AA012100F0C9FA614D4F
:104F800020B1234689A200F06EF806E00A9809993C
:104F90005E4A00F04BF800F05CF800F036F800F0E4
:104FA00030F810B100F05CF801E000F04DF800F0CE
:104FB0002DF807AA0121204600F0BDFA20B12346B2
:104FC00067A200F050F805E000F038F800F026F88D
:104FD00000F03FF800F01AF806AA0121204600F080
:104FE000D0FA28B14FEA040368A200F03CF804E0CC
:104FF000DDF8180072A200F02AF800F007F80EB0F1
:1050000070BD05A9204600F070BA03A605F158014D
:10501000304600F0F3BB0000257300000D980C999A
:10502000019000914FEA040352A27047049002914C
:1050300003940194234608980090704703210BA81D
:105040009DED070AF5E600009DF814003FA20090D0
:1050500023464FF4807105F1580000F0ADBB00000D
:105060004FEA040334A24FF4807105F1580000F0B8
:10507000A3BB000070B58EB0044608AA042100F05E
:1050800047FA204D20B1234652A2FFF7ECFF06E07D
:105090000A980999224AFFF7C9FFFFF7DAFFFFF7DD
:1050A000B4FFFFF7AEFF10B1FFF7DAFF01E0FFF743
:1050B000CBFFFFF7ABFF07AA0421204600F03BFA25
:1050C00020B1234626A2FFF7CEFF05E0FFF7B6FF8B
:1050D000FFF7A4FFFFF7BDFFFFF798FF06AA042123
:1050E000204600F04EFA28B14FEA040327A2FFF74A
:1050F000BAFF04E0DDF818003BA2FFF7A8FF7CE749
:10510000E0040020DC020020506D00087C6E0008E6
:105110000000E03F00000000000024404C6E00084A
:10512000AC6E00080D0A4143435B25645D3A20459F
:1051300072726F720D0A000057484F414D495B254E
:10514000645D3A204572726F720D0A0057484F41F4
:105150004D495B25645D3A20307825780D0A0000C2
:105160004F44525B25645D3A204552524F520D0A1E
:10517000000000004F44525B25645D3A2025642EF8
:105180002530336420487A0D0A00000046535B2521
:10519000645D3A204552524F520D0A0046535B253A
:1051A000645D3A20256420670D0A00000D0A475906
:1051B000525B25645D3A204572726F720D0A0000E1
:1051C00046535B25645D3A202564206470730D0AA4
:1051D000000000000D0A4D41475B25645D3A204503
:1051E00072726F720D0A000046535B25645D3A20AF
:1051F00025642067617573730D0A000038B5044695
:10520000FDF716FB14F1010F054602D004480178A2
:105210006418FDF70DFB401BA042FAD331BD00BF5F
:10522000AC01002070B586B0044600200090664EA8
:105230006648016841F001010160006868A100F062
:1052400001000090009831F814500195012102915D
:1052500003910221049101A956F8240000F06AFB91
:1052600000F004F8002006B070BD000056F82400DD
:105270000022294600F09DBCF8B586B00446002502
:105280005248534E0095026842F0040202600068E2
:1052900054A200F004000090009832F814300193FA
:1052A00002220392049256F8240021B9029501A922
:1052B00000F040FB27E0474A029201A900F03AFBC8
:1052C0004CA151F82410301D00EBC406304600F00C
:1052D0008CFC6FF0030738B944A050F8242000215B
:1052E000304600F07BFC08B13D460CE00FF2F800C0
:1052F0003FA1065751F8241000223046FDF7D8FA96
:105300003046FDF7F2FA284607B0F0BD80B500BF81
:1053100034A22F4B32F8101053F8200000F043FC59
:10532000401E8041C00F02BD0020FFF77EBD70B55A
:105330000024022886B028BF6FF0010430D2850116
:10534000254E06EB800006F1080241681F485151C6
:1053500000940222016941F400310161016901F404
:1053600000310091009900940C21036843F001037F
:1053700003600723006800F00100009000981748C0
:105380000191029205930394049401A900F0D2FACA
:1053900006F10801481900F041FC08B16FF0030460
:1053A000204606B070BD11B50B48047881B000EB03
:1053B00084104FF47A73012201A9083000F07FFCB9
:1053C000019816BD00000000B801002030380240EE
:1053D000BC01002000001110C801002000000240A4
:1053E00020000000002000002800000029530008D1
:1053F0000F0000000D0000062DE9F84705004FF0F2
:10540000000887B089464FF0010A4746DFF8746309
:1054100003D0022D49D041D358E0484600F0C1F8EE
:10542000002846D1B06B726C6946D3689847002853
:1054300049D19DF8000001289DF8010008BF02270E
:1054400001289DF8020008BF47F00107012808BFA6
:1054500047F0040703240AEA0900504504BF0AEA9A
:10546000070050450FD10C2106F124026943711841
:1054700052F82A3051F823100A6806F1380050F823
:105480002500904738B9641E4FEA4A0AE3D14046E6
:1054900008B0BDE8F0876FF00400F9E7484600F077
:1054A000D5F830B9F06BB26CBEE7484600F01DF994
:1054B00010B14FF0FF30EBE7F26C306CD368694607
:1054C00098470028B5D06FF00600E1E76FF00108BB
:1054D000DDE780B5032800D304E000F012F8D368BC
:1054E00098470AE06FF0010002BD80B5032800D3A1
:1054F000F8E700F006F89368984708B16FF00600E7
:1055000002BDDFF8802202EB8002906B526C704784
:1055100038B500F027F808D200F01DF805D100F0EA
:1055200026F8D369984710B102E06FF0010032BD50
:105530006FF0040032BD38B500F014F808D200F066
:105540000AF805D100F013F8D368984710B1EFE7D7
:105550006FF0010032BD8B4D05EB8300026D2240E0
:10556000A242704703460C46032B114670470C229B
:105570005343EA1805EB84035C6A52F82420806BDD
:10558000704738B5FFF7EEFF08D2FFF7E4FF05D10B
:10559000FFF7EDFF5369984710B1C9E76FF00100BD
:1055A00032BDD721F0B500F093F88FB000F093F83A
:1055B000039506F15C007449744A0591079201A9AC
:1055C000FDF7BEF950B9694606F15C00FDF735FA02
:1055D000002804BF9DF800006B2802D06FF006057C
:1055E00031E008A906F15C00FDF72EFA9DF82100D4
:1055F0009DF8202040EA42019DF8222041EA8201E4
:105600003165E20706F15C01B1636FF004076049A0
:10561000716408D5012806D15E48306006F15C004F
:105620000968884770B9A0070AD59DF8201001299C
:1056300006D15948716C70600A68B06B904708B920
:10564000600700D53D4628460FB0F0BD2DE9F84172
:10565000332100F03DF88FB000F03DF806F18C07E3
:1056600000F086F8FEF79CF848B969463846FEF720
:1056700008F9002804BF9DF80000442802D06FF00C
:10568000060524E008A93846FEF700F99DF8210038
:105690009DF82010F76340EA41009DF8221040EA8F
:1056A00081007065A0073D49B1646FF0040809D519
:1056B0009DF82020012A05D1394830613846096813
:1056C000884718B9E00701D4610700D545464BE08B
:1056D000344A2C4E704704468DF810100192002574
:1056E0003149324A0291069270472DE9F8413D2135
:1056F000FFF7EEFF8FB0FFF7EEFF06F1C00700F0F7
:1057000037F800F0DDFB48B96946384600F03CFC4C
:10571000002804BF9DF80000402802D06FF0060565
:1057200022E008A9384600F034FC9DF821109DF8CD
:1057300020209DF82200376441EA420141EA8001BD
:10574000B16562071A49F1646FF0040807D50128B2
:1057500005D11848306238460968884718B9A0074B
:1057600001D4E10700D54546284610B0BDE8F081D8
:105770000549064A05910792039501A938467047E5
:105780000000000068000020A36C0008196D0008EC
:105790005401002088010020640100200000002046
:1057A00010000020F96B00086F6C0008C36C000843
:1057B000340000204400002008B438B585B009AC9E
:1057C00000250494039500290EBF01950190491E00
:1057D0000291009504AB01A9074878441A30FAF702
:1057E000D9FC019901B10D70002858BF039806B08B
:1057F00030BC5DF808FB00BF1BBBFFFF0EB4C0B59B
:10580000024603A800210190009101AB0121044848
:1058100078440C30FAF7BEFC06BC5DF810FB00BF04
:105820008B170000C0F3C75181B1FF2906D0C1100A
:10583000400721F0E04101F16051704741020CBF87
:1058400040F4E0016FF000410020704700F000419B
:1058500000020AD0B0FA80FC00FA0CF001F16051AD
:10586000A1EB0C5101EBD0214005704701F0004243
:105870008B1AA3F16051B1F5801F0ADBB1F17F6F84
:105880001FD242EAC102C10071F1004142EB5070E7
:1058900070470B15C3F10903212B10D2890241EA8D
:1058A000905180020128494141F0004121FA03F062
:1058B000C3F12003994071F100415041704710003D
:1058C00070476FF0000013EB103F5CBF000E42EA20
:1058D000C050704751EC100B00B500F003F841ECDC
:1058E000100B00BD40F2FF7C1CEA115240F2FE3367
:1058F000D21A0FDD352A10DAB2F1150305DA6FEA94
:105900004C53D3400020994370476FF00002DA40B7
:105910009043704701F000410020704741EC100BAC
:1059200001BD80B553EC112B51EC100BFEF7BCFF01
:10593000F4E700002DE9F84F0D464FF000089F49AD
:105940000F22012304462E6803FA08F000EA060934
:10595000814540F0B1804FEA480C032606FA0CF668
:105960006FEA060E6E68012E18BF022E03D0112EAC
:1059700018BF122E11D1A668EF680EEA060607FAC4
:105980000CF73E43A660666826EA00006E68C6F320
:10599000001606FA08F630436060E068AE680EEA6A
:1059A000000006FA0CF63043E0604FEA88006E68AB
:1059B000022E18BF122E12D14FEAD80604EB86062B
:1059C00000F01C07D6F820A002FA07FB2AEA0B0A0F
:1059D000D5F810B00BFA07F747EA0A0737622668CE
:1059E0000EEA06072E7906F0030606FA0CF63E4389
:1059F00026606E68F6005FD5002600964FEA980C88
:105A00000E68DFF8BCE146F480460E6000F00C0042
:105A10000E6806F480460096009E5EF82C7002FA2E
:105A200000F627EA0606674FBC4208BF002713D0DE
:105A3000654FBC4208BF01270ED0644FBC4208BF6F
:105A4000022709D0624FBC4208BF032704D0614F30
:105A5000BC420CBF0427072707FA00F030434EF87A
:105A60002C006FEA090C5C4806680CEA060E6E68AA
:105A7000F70348BF49EA0E0EC0F800E046680CEA9A
:105A8000060E6E68B70348BF49EA0E0EC0F804E080
:105A900086680CEA060E6E68F70248BF49EA0E0EE9
:105AA000C0F808E0C6680CEA060E6E68B60248BF89
:105AB00049EA0E0EC0F80CE008F10108B8F10F0F2A
:105AC0007FF641AFBDE8F18F2DE9F84F03460D4653
:105AD000002441483A4900950122009E02FA04F947
