:020000040800F2
:10000000B006002005490008114800081348000800
:1000100015480008174800081948000800000000AB
:100020000000000000000000000000001B48000865
:100030001D480008000000001F4800082148000873
:10004000294900082D4900083149000835490008B0
:10005000394900083D490008414900084549000860
:10006000494900084D490008254800085149000841
:1000700055490008594900085D49000861490008D0
:1000800065490008694900086D4900087149000880
:1000900075490008794900087D4900082B48000887
:1000A0008149000885490008894900088D490008F0
:1000B0009149000895490008994900089D490008A0
:1000C000A1490008A5490008A9490008AD49000850
:1000D000B1490008B5490008B9490008BD49000800
:1000E00031480008C1490008C5490008C94900084D
:1000F000CD490008D1490008D5490008D949000870
:10010000DD490008E1490008E5490008E94900081F
:10011000ED490008F1490008F5490008F9490008CF
:10012000FD490008014A0008054A0008094A00087C
:100130000D4A0008114A0008154A0008194A00082B
:100140001D4A0008214A0008254A0008294A0008DB
:100150002D4A0008314A0008354A0008394A00088B
:100160003D4A0008414A0008454A0008494A00083B
:100170004D4A0008514A0008554A00080000000096
:10018000594A00085D4A000870B5044600254FF042
:10019000FF362CB3086820604A6862608868A060F7
:1001A0000A7B2273086920614A6962618869DFF805
:1001B0000816A06121626462DFF80006E061206831
:1001C00070B1804760B9A068022804BF94F8280085
:1001D000002806D10C221221204600F07CFB00B141
:1001E0003546284670BD38B5044600F0FBFB00F0EC
:1001F0001DFE002821D100F0F5FB00F0F9FD0028DC
:100200001BD100F0DEFB01F098F8B0B904F128052D
:100210000420E87000F06BF878B900F0D2FB00F031
:1002200009FD50B90420287100F0A3F928B906216E
:1002300004F11C0000F068FD08B100F0DDBC0120F5
:100240002870002032BD10B5044600F03DF818B902
:10025000204600F07BF900B133E004F128000021D2
:10026000C17001710170002010BD80B51C3000F01C
:10027000D9FD00F09FBB00000120087048700023EA
:10028000102088604FF4FA629FED4B0A00208B70BB
:10029000CB704A60CB6081ED040A81ED050A88616C
:1002A000704710B500F129042178012907D0A17801
:1002B0001C3000F0E2FC00B103E0012020700020BF
:1002C00010BD4FF0FF3010BD10B5044694F8290062
:1002D00060B104F12B0104F11C0000F0E5FC10B941
:1002E00000F005F800B1ECE784F8290010BD00210A
:1002F00004F11C0000F0C1BC38B500F0E6F80024A1
:1003000008B100F079BC9DF80000032811D8DFE89F
:1003100000F0020C0508DFF81C1704E0DFF81807EE
:1003200005E0DFF81817296005E0DFF814072860FA
:1003300001E04FF0FF34204632BD000038B50D46D5
:1003400069461C3000F0B0FC002408B100F054BC39
:100350009DF800000B282BD8DFE800F0060B0E11EB
:1003600014171A1D202327082C6023E0DFF8D40679
:100370001CE0DFF8D41616E0DFF8D00616E0DFF850
:10038000D01610E0DFF8CC0610E0DFF8CC160AE05B
:10039000DFF8C8060AE0DFF8C81604E0DFF8C40694
:1003A00004E0DFF8C416296004E00348286001E097
:1003B0004FF0FF34204632BD0020D04580B500F11B
:1003C000290100F0CFF933D1F1EE10FA48BF012135
:1003D00027D400F0C2F948BF022122D400F0B8F9B6
:1003E00048BF03211DD400F0A9F948BF042118D447
:1003F00000F09FF948BF052113D400F095F948BFDC
:1004000006210ED400F08BF948BF072109D400F073
:1004100081F948BF082104D400F095F94CBF0921A7
:100420000A211C3000F029FC002830D000F0E7BB86
:10043000F1EE10FA48BF012027D400F08EF948BF32
:10044000022022D400F084F948BF03201DD400F01C
:1004500075F948BF042018D400F06BF948BF052097
:1004600013D400F061F948BF06200ED400F057F90C
:1004700048BF072009D400F04DF948BF082004D434
:1004800000F061F94CBF09200A208870002002BDED
:1004900038B500F01AF8002408B100F0ADBB9DF8A3
:1004A000000003280DD8DFE800F00209040602214D
:1004B00002E0042003E00821296004E01020286005
:1004C00001E04FF0FF34204632BD0D4669461C3036
:1004D00000F0BABB80B50329B8BF002107DB0529AE
:1004E000B8BF022103DB0929B4BF032101211C305D
:1004F00000F0A0FB5EE21CB50C4669461C3000F023
:100500008DFC00B1A7E1A9E13EB5002204460D46ED
:10051000009201A904F11C0000F080FC20B969469A
:100520002046FFF7E9FE00B1B3E1B5E110B500F1F7
:100530002A042178012907D0A1781C3000F00DFC95
:1005400000B1BEE601202070002010BD10B50446A9
:1005500094F82A0060B104F12C0104F11C0000F0B1
:1005600019FC10B900F005F800B1AAE684F82A00D9
:1005700010BD002104F11C0000F0EFBB38B500F005
:1005800043F9002408B100F037BB9DF800000628AD
:1005900016D8DFE800F007040A150D151100DFF882
:1005A000CC140BE0DFF8C80404E0DFF8C81405E061
:1005B000DFF8C404286005E0DFF8C014296001E01A
:1005C0004FF0FF34204632BD38B50D4669461C3029
:1005D00000F0E0FB002408B100F00EBB9DF8000025
:1005E0000A2829D8DFE800F006080B0E1114171AA4
:1005F0001D2024002C6021E0DFF84C0416E0DFF819
:100600004C1417E0DFF8480410E0DFF8481411E05C
:10061000DFF844040AE0DFF844140BE0DFF840049C
:1006200004E0DFF8401405E0DFF83C04286005E052
:10063000DFF84C14296001E04FF0FF34204632BD52
:1006400080B500F12A0100F08DF833D1F1EE10FAF7
:1006500048BF012127D400F080F848BF022122D4EE
:1006600000F076F848BF03211DD400F067F848BFBA
:10067000042118D400F05DF848BF052113D400F020
:1006800053F848BF06210ED400F049F848BF0721AF
:1006900009D400F03FF848BF082104D400F053F813
:1006A0004CBF09210A211C3000F057FB002830D034
:1006B00000F0A5BAF1EE10FA48BF012027D400F0EF
:1006C0004CF848BF022022D400F042F848BF032073
:1006D0001DD400F033F848BF042018D400F029F8E6
:1006E00048BF052013D400F01FF848BF06200ED4E1
:1006F00000F015F848BF072009D400F00BF848BFF8
:10070000082004D400F01FF84CBF09200A2088708C
:10071000002002BDB4EE410AF1EE10FA7047B4EECB
:10072000610AF1EE10FA7047B4EE420AF1EE10FAE7
:100730007047B4EE620AF1EE10FA7047B4EE430A65
:10074000F1EE10FA7047B4EE600AF1EE10FA70475D
:10075000B4EE630AF1EE10FA7047B4EE440AF1EE1B
:1007600010FA7047DFED0B4A0A78012ADFED0A0A1A
:100770009FED0A1ADFED0A1A9FED0A2ADFED0A2A19
:100780009FED0A3ADFED0A3A9FED0A4AB4EE640A99
:100790007047000001004841012050450180CF44CE
:1007A000014050440100D043010050430100D042B9
:1007B000010050420100D041050C0008110C000856
:1007C00038B500F021F8002408B100F015BA9DF802
:1007D0000000062814D8DFE800F0060408130B1305
:1007E0000F007D210AE0FA2004E04FF4FA7105E0E1
:1007F0004FF47A70286005E04FF4FA61296001E057
:100800004FF0FF34204632BD0D4669461C3000F0E3
:1008100087BA80B57E29B8BF01210FDBFB29B8BF9D
:1008200000210BDB40F2F5129142B8BF022105DB3B
:1008300040F2E9329142B4BF042106211C3000F09D
:1008400063FAB7E01CB50C4669461C3000F0E2FACA
:1008500000B100E002E04FF0FF3016BDBDF800002F
:100860002080BDF802106180BDF80400A080002047
:1008700016BD3EB504460D4601A904F11C0000F06A
:10088000C9FA20B969462046FFF778FE00B100E0BA
:1008900002E04FF0FF303EBDBDF9040000F010F85B
:1008A000C5ED000ABDF9060000F00AF8C5ED010A21
:1008B000BDF9080000F004F8C5ED020A00203EBDB5
:1008C000DDED000A00EE100AB8EEC00A60EE200A64
:1008D000FDEEE00A704704B501236A461C3000F0C3
:1008E000A3F967E07CB500F09FF80026002836D118
:1008F00000F075F8002832D1062104F11C0000F048
:10090000C6FC00282BD100F060F8002827D100F0A9
:1009100058F800F076FA002821D100F067F8F0B915
:10092000032104F11C0000F0D4FCC0B915B1012D65
:100930000BD015E000F04EF888B99DF8050040F0A6
:10094000100000F064F850B90CE000F054F830B931
:100950009DF8010040F0100000F052F810B12DE0B9
:100960004FF0FF36304676BD1CB500F057F8002832
:100970001AD19DF8050000F0EF0000F048F898B992
:1009800000F039F880B99DF8010000F0EF0000F0A8
:1009900037F848B900F015F800F079FC20B900F0FC
:1009A00010F800F096FC08B14FF0FF3016BD1C3077
:1009B00000F034F908B14FF0FF3002BD4FF0FF30C6
:1009C00076BD002104F11C007047002104F11C00D9
:1009D00000F027BC01A904F11C0000F0AEBA02210E
:1009E000204677E5012104F11C007047002104F145
:1009F0001C0000F03CBC694604F11C0000F06FBB19
:100A00008DF8010004F11C00009900F0C7BA8DF8C0
:100A1000050004F11C00019900F023BA044601A965
:100A200004F11C0000F089BA04460D469FED0B0A44
:100A3000FFF7C4BC23DB793D23DBF93D23DB793EA3
:100A400023DBF93ECDCCCC3F000048410000D04133
:100A5000000050420000D042000050430000D0434C
:100A6000004050440080CF440020504500008C409E
:100A700000000C4100008C4100000C4200008C4240
:100A80000020D0453EB505460C460421204600F026
:100A9000CBFC01230DF102021B2100F0A9F838BBA9
:100AA000012301AA1C2100F0A3F808BB01230DF1CA
:100AB00006021D2100F09CF8D0B901230DF10302BC
:100AC000532100F095F898B901230DF101025E2140
:100AD00000F08EF860B901236A465F2100F088F8C3
:100AE00030B901230DF105020D2100F081F808B1A4
:100AF000FFF7CFBE9DF80100C10603D49DF80000AA
:100B0000C10607D59DF80200810603D5206840F094
:100B1000010020609DF80100810603D49DF80000CB
:100B2000810607D59DF80200010703D5206840F033
:100B3000080020609DF80100010603D49DF8000024
:100B4000010607D59DF80200C10603D5206840F0D4
:100B5000800020609DF80100410603D49DF800004C
:100B6000410607D59DF80400810603D5206840F0B2
:100B7000020020609DF80100010703D49DF80000E9
:100B8000010707D59DF80400C10603D5206840F091
:100B9000040020609DF80100410703D49DF8000087
:100BA000410707D59DF80600410603D5206840F0AF
:100BB000400020609DF80500010607D59DF8030060
:100BC000C10603D5206840F0100020609DF80100A8
:100BD000810703D49DF80000810707D59DF8030025
:100BE000810603D5206840F02000206000203EBD33
:100BF00005F11C0000F012B84FF0FF3032BD4FF08D
:100C0000FF3002BD10B50446207B6469A04710BDCB
:100C100010B50446207B2469A04710BD10B50446DA
:100C2000A0686468A04710BD10B50446A068246899
:100C3000A04710BD38B500F030F818B900F00CF935
:100C400000F024F832BD00001CB500F058F89DF803
:100C50000010890801F0030103290BD8DFE801F037
:100C600002040608002106E0012104E0022102E05E
:100C7000032100E00421217016BD38B500F00DF805
:100C800018B900F073F800F001F832BD8DF80000DB
:100C900001236A4610212046C6E70D46044601237B
:100CA0006A461021BAE700001CB500F028F89DF84C
:100CB000001009090B291FD8DFE801F006080A0C0B
:100CC0000E10121416181A1C002116E0012114E04F
:100CD000022112E0032110E004210EE005210CE0C6
:100CE00006210AE0072108E0082106E0092104E0C6
:100CF0000A2102E00B2100E00C21217016BD0C46F8
:100D000001236A46102189E738B500F03DF828B97B
:100D10009DF8000065F3430000F02FF832BD00009D
:100D20001CB500F060F89DF80010490801F00701BB
:100D300006290FD8DFE801F00406080E0A0E0C00A1
:100D4000002108E0012106E0022104E0042102E084
:100D5000062100E00721217016BD38B500F014F817
:100D600018B900F003F800F008F832BD9DF8000053
:100D700000F00F0040EA051070478DF800000123D5
:100D80006A46112120464FE70D46044601236A4674
:100D9000112143E71CB500F026F89DF80010090961
:100DA0000A291DD8DFE801F006080A0C0E101214FB
:100DB00016181A00002114E0012112E0022110E0AF
:100DC00003210EE004210CE005210AE0062108E0E1
:100DD000072106E0082104E0092102E00A2100E0E1
:100DE0000B21217016BD0C4601236A46112115E71F
:100DF00038B500F02BF818B900F09AFA00F01FF897
:100E000032BD38B500F01EFA18B900F005FA00F04E
:100E100011FA32BD0A4606232221FFE60A460623BE
:100E20002821FBE60A4601230F21F7E638B500F03A
:100E30000DF818B900F026FA00F001F832BD8DF86F
:100E4000000001236A4612212046EDE60D460446C5
:100E500001236A461221E1E69DF8000065F3830054
:100E6000704773B582B00446012301AA0D21FFF734
:100E7000D5FE98B900F0FFF88DF80400012301AA0F
:100E80000D2100F08AFA48B900F04BF8FFF7C6FED2
:100E900020B901230DF1050200F03AFA9DF80D503A
:100EA00050B900F0D0F88DF8036000F03AF8FFF781
:100EB000BBFE08B900F062FA9DF80E6078BB9DF8A1
:100EC000010066F3041000F050FA40BB00F02FF868
:100ED000FFF7A4FE18BB9DF8020000F07F0040EA77
:100EE000C6108DF8020000F022F8FFF79DFEB0B9A1
:100EF00000F0EFF815F0FC0F04BF9DF8051011F09D
:100F0000FC0F19BF9DF8001041F080019DF8001002
:100F100001F07F018DF8001008B900F0A1F904B0CC
:100F200070BD01230DF103025E21204670470123AD
:100F30000DF102021A212046704738B500F0E2F99F
:100F40000D21FFF76BFE002820D100F0E5F85E21AF
:100F500000F0DFF9002819D100F01FF900F017F8B0
:100F6000A0B99DF80200A978000960F30001A970FA
:100F700001230DF103021A2100F0CBF9A9789DF8A5
:100F8000032001F0FE0141EAD211A97032BD012314
:100F90000DF1020213212046FFF740BE73B582B067
:100FA000044601230DF103020E21FFF737FEA0B91D
:100FB00000F061F88DF8030001230DF103020E210A
:100FC00000F0EBF948B9012301AA5E2100F0A1F974
:100FD00018B900F078F8FFF721FE9DF80D5080BB9E
:100FE00000F031F88DF8026000F06DF8FFF71CFE9C
:100FF00038BB00F093F90B2100F08BF908BB9DF88A
:101000000E009DF8011060F300018DF8011000F052
:10101000C7F9B0B900F05DF89DF8041011F0FC0FAD
:1010200008BF15F0FC0F19BF9DF8001041F08001BA
:101030009DF8001001F07F018DF8001008B900F054
:101040000FF904B070BD05F0010605F00202164369
:1010500005F004010E4305F00800064305F01003F7
:101060001E4305F02002164305F040010E4305F033
:101070008000064370479DF80C009DF80C109DF809
:101080000C2000F0010001F0020108439DF80C1053
:1010900002F0040210439DF80C2001F008010843FF
:1010A0009DF80C1002F0100210439DF80C2001F086
:1010B000200108439DF80C1002F04002104301F09B
:1010C00080010843704701230DF102025F21204691
:1010D000704701236A4658212046FFF79FBD38B567
:1010E00000F010F90E21FFF799FD002813D100F050
:1010F00013F800F00DF900280DD100F04EF801238F
:101100000DF102020B2100F004F99DF80210AA78FB
:1011100061F30002AA7032BD9DF80100297860F3E6
:101120000001297001F0FD009DF8011001F002019D
:101130000843287000F0FB009DF8011001F0040145
:101140000843287000F0F7009DF8011001F0080135
:101150000843287000F0EF009DF8011001F0100125
:101160000843287000F0DF009DF8011001F0200115
:101170000843287000F0BF009DF8011001F0400105
:101180000843287000F07F009DF8011001F08001F5
:101190000843287001236A4670479DF8000069786B
:1011A00060F30001697001F0FD009DF8001001F08E
:1011B00002010843687000F0FB009DF8001001F088
:1011C00004010843687000F0F7009DF8001001F07A
:1011D00008010843687000F0EF009DF8001001F06E
:1011E00010010843687000F0DF009DF8001001F066
:1011F00020010843687000F0BF009DF8001001F066
:1012000040010843687000F07F009DF8001001F075
:1012100080010843687070479DF8000065F3041072
:10122000704738B500F00EF818B900F012F800F069
:1012300001F832BD8DF8000001236A465C2120468A
:10124000FFF7F2BC0D46044601236A465C21FFF716
:10125000E5BC9DF8000065F3461070478DF800006E
:1012600001236A4658212046FFF7DEBC000038B54E
:10127000FFF7E8FF28B99DF8000065F30300FFF7CA
:10128000D9FF32BD9DF8000065F38200704738B584
:1012900000F030F8B0B900F078F800F023F888B921
:1012A00000F011F8FFF7BAFC60B99DF8010000F0FA
:1012B0007F006D0940EAC5108DF8010000F003F8C9
:1012C000FFF7B2FC32BD01230DF101025C21204683
:1012D000704738B500F00EF818B900F023F800F0A8
:1012E00001F832BD8DF8000001236A465D212046D9
:1012F000FFF79ABC0D46044601236A465D21FFF7BD
:101300008DBC00000D46044601230DF1010270471B
:101310005F212046FFF782BC8DF8010001230DF10B
:10132000010270479DF8000065F30200704700005D
:101330009DF8000065F38610704738B500F00EF890
:1013400018B9FFF7EFFF00F001F832BD8DF800008B
:1013500001236A460A212046FFF766BC0D46044673
:1013600001236A460A21FFF759BC8DF801000123C9
:101370000DF1010213212046FFF756BC01230DF1A8
:10138000010213212046FFF749BC9DF8000000F040
:10139000070040EAC500704705212046FFF744BC1E
:1013A00001230DF101020B212046FFF73DBCF0B4F3
:1013B0000246106895681318506803EB5004C00784
:1013C0001DD54D441BE013F8017B05F8017B491E38
:1013D000F9D1A0B1B60813F8011B06F00306032EDD
:1013E00008BF13F8016B01EB06214942801C294418
:1013F00005D011F8016B05F8016B401EF9D1A3422D
:101400000ED013F8016B16F0030104BF13F8011B93
:10141000C91C30090F28DAD113F8010B0F30D6E7B9
:10142000F0BC02F10C007047002200F01DB830B48F
:10143000002513E050F8042BD30744BFA9F10103A2
:101440009A18091F042942F8045BFAD213468C0744
:1014500044BF15809B1CC90748BF1D7050F8041B72
:101460000029E7D130BC7047401810F0030308D0C2
:10147000C91A1FD3DB0748BF00F8012D28BF20F889
:10148000022D130030B414461546103928BF20E948
:101490003C00FAD8490728BF20E90C0048BF40F8B3
:1014A000042D890028BF20F8022D48BF00F8012D27
:1014B00030BC7047C91818BF00F8012DCB0728BFF2
:1014C00000F8012D7047000038B5044600256CB1C6
:1014D00000F06EFA0FF24171A061216264620FF2B6
:1014E0005170E061206808B1804718B14FF0FF35B6
:1014F000284632BDA068012804BF94F828000028BF
:10150000F6D101222321204600F02BFA0028EFD04B
:101510004FF0FF3032BD38B50446012104F11C0004
:1015200000F03EFC90B9002104F11C0000F0E5FC45
:1015300060B904F128050520A87000F055F828B915
:10154000002104F11C0000F00AFC00B1E0E70120DA
:101550002870002032BD10B5044600F032F800B10A
:101560002CE004F12800002181700170002010BDE2
:1015700080B51C3000F075FC49E3012008700022A2
:1015800010204A708A70CA704A608860CA60002061
:10159000DFF8802508614A618861704710B500F165
:1015A00029042178012907D061781C3000F08FFBD5
:1015B00000B103E001202070002010BD4FF0FF308B
:1015C00010BD10B5044694F8290060B104F12A0159
:1015D00004F11C0000F094FB10B900F005F800B114
:1015E000ECE784F8290010BD002104F11C0000F094
:1015F0006EBB00007CB500F0A1F80024002848D1A3
:101600009DF8010018B102282DD017D342E000F058
:1016100045F800283DD100F02DF93AD8DFE800F078
:101620000B080502DFF8F01431E0DFF8F0042AE0DF
:10163000DFF8EC142BE0DFF8EC0424E000F02EF8E7
:10164000002826D100F016F923D8DFE800F00209BF
:101650000603EAE7DFF8D01419E0DFF8D00412E05F
:10166000DFF8CC1413E000F019F890B900F002F99B
:101670000FD8DFE800F0020A0603EEE7DFF8B41443
:1016800005E0DFF8B404286006E0DFF8B014296054
:1016900002E05BE04FF0FF34204676BD694606F17C
:1016A0001C0000F067BB00007CB500F047F8002488
:1016B00028B9694606F11C0000F022FB00B145E0A4
:1016C0009DF801109DF8000002290ED1092831D89B
:1016D000DFE800F01416191C1F2225280508DFF882
:1016E000600425E0DFF85C141EE0092822D8DFE85A
:1016F00000F005070A0D10131619211D2C601BE0C0
:101700004FF07E5110E0DFF8400411E0DFF83C14A8
:101710000AE0DFF83C040BE0DFF8381404E0DFF8FF
:10172000380405E0DFF8EC13296005E0DFF82C044D
:10173000286001E04FF0FF34204676BD06460D4696
:101740000DF1010106F11C0000F0A6BA4FF0FF30C8
:1017500076BD000080B500F129019FED333A0A788B
:10176000012ADFED320A9FED321ADFED321A9FEDCA
:10177000B82ADFEDB82AB4EE430A2CD1F1EE10FA04
:1017800048BF012120D4B4EE620AF1EE10FA48BF3E
:10179000022119D4B4EE420AF1EE10FA48BF032137
:1017A00012D4B4EE610AF1EE10FA48BF04210BD452
:1017B000B4EE410AF1EE10FA48BF052104D400F05E
:1017C000D1F94CBF062107211C3000F080FA50B33C
:1017D0004FF0FF3002BDF1EE10FA48BF012020D4D7
:1017E000B4EE620AF1EE10FA48BF022019D4B4EE4A
:1017F000420AF1EE10FA48BF032012D4B4EE610A97
:10180000F1EE10FA48BF04200BD4B4EE410AF1EE19
:1018100010FA48BF052004D400F0A4F94CBF0620FC
:1018200007204870002002BD0100803F01004843AE
:101830000100C8420100484238B50D4669461C30D7
:1018400000F098FA002400B162E600F013F80DD819
:10185000DFE800F002040609022102E0042003E0B0
:101860000821296004E01020286001E04FF0FF34D7
:10187000204632BD9DF800000328704780B503293B
:10188000B8BF002107DB0529B8BF012103DB092907
:10189000B4BF022103211C3000F061FAB7E17FB52B
:1018A00005460C46694605F11C0000F0F5F998B9AB
:1018B0009DF8000018B102280BD008D30CE01026C8
:1018C00001A905F11C0000F074FA40B104E04026C3
:1018D000F6E74FF48076F3E74FF0FF300FE0BDF905
:1018E000040090FBF6F02080BDF9061091FBF6F1A4
:1018F0006180BDF9080090FBF6F0A080002004B0E4
:1019000070BD3EB500220D460092044601A9FFF7C6
:10191000C6FF20B969462046FFF76CFE10B14FF0B4
:10192000FF303EBDBDF9040000F010F8C5ED000A1F
:10193000BDF9060000F00AF8C5ED010ABDF908007E
:1019400000F004F8C5ED020A00203EBDDDED000AFE
:1019500000EE100AB8EEC00A60EE200AFDEEE00AC2
:10196000704704B54EE138B5044600256CB100F06F
:101970001FF80FF2D521A061216264620FF2E52009
:10198000E061206808B1804718B14FF0FF35284664
:1019900032BDA0680028FAD094F828000028F6D1BB
:1019A000012104F11C0000F0B4FA0028EFD0AFE5EB
:1019B000086820604A6862608868A0600A7B2273B9
:1019C000086920614A6962618869704710B50446F8
:1019D000012104F11C0000F037FA70B900F013F88F
:1019E00058B9032104F11C0000F0F2F928B90021D4
:1019F00004F11C0000F04FFA00B1DFE5012084F88B
:101A00002800002010BD022104F11C0000F0D5B90F
:101A100010B5044600F030F800B1CFE584F8280096
:101A200010BD80B51C3000F032FAF0E000200870E4
:101A30004870C8704860886008613222CA6001231B
:101A40004448886100228B704A6100207047000082
:101A50000100C8410100204110B5044694F8290056
:101A6000012807D00021FFF7CFFF00B1A6E5012034
:101A700084F82900002010BD10B5044694F8290010
:101A800028B1FFF7C0FF00B198E584F8290010BD28
:101A90004FF07F506CE0000038B50D4669461C30B1
:101AA00000F0A1F9002400B132E5FFF7E3FE0DD804
:101AB000DFE800F002040609234902E0284803E0B9
:101AC0002349296004E02348286001E04FF0FF34F7
:101AD000204632BDDFED0C0A80B500F043F848BF68
:101AE00000210DD4DFED090A00F03CF848BF0121C8
:101AF00006D4DFED070A00F035F84CBF02210321C0
:101B00001C3000F065F982E0010020410100A04195
:101B1000010048420000C8431F853B419A99794023
:101B20009A99F93F48E17A3F9A993B427B147A416E
:101B3000713DFA407B943B437B147A427B14FA411B
:101B40000080CA440000A845000020410000C841B0
:101B5000000048420000C842000048430000A8447A
:101B60000000A041B4EE600AF1EE10FA7047322096
:101B7000086000207047002070471CB500F03AF85C
:101B800000B13CE0BDF800002080BDF8021061808B
:101B9000BDF80400A080002016BD1CB500F02AF896
:101BA00000B12CE0BDF9000000EE900AB7EE080A83
:101BB000F8EEE00A60EE800AFDEEE00AC4ED000AED
:101BC000BDF9021001EE101AB8EEC11A21EE001A8A
:101BD000BDEEC11A84ED011ABDF9040000EE900AB1
:101BE000F8EEE00A20EE800ABDEEC00A84ED020A9B
:101BF000002016BD0C4669461C3000F02EB94FF08F
:101C0000FF3016BD01236A461C3000F03FF808B1D2
:101C10004FF0FF3002BD000070B58568047B466957
:101C2000002D0CBF41F0800141F0400116E00000A2
:101C300070B58568047B0669002D0CBF41F08001FA
:101C400041F0400118E0000070B58568047B4669EA
:101C5000002D0CBF41F0800141F040012046B0470B
:101C600070BD000070B58568047B0669002D0CBF4F
:101C700041F0800141F040012046B04770BD0000B6
:101C800010B50446A0686468A04710BD10B50446AE
:101C9000A0682468A04710BD38B500F02AF830B914
:101CA00001230DF1010223212046FFF7E9FF9DF8F2
:101CB0000010C1F3C00109B1022106E09DF8011036
:101CC000C1F3C002511E8941C90F297032BD38B518
:101CD00000F00FF860B99DF8000000F00F0040EA36
:101CE00005108DF8000001236A46202100F00EF94E
:101CF00032BD0D46044601236A462021C0E700009C
:101D00001CB500F0D3F82021FFF7BAFF9DF80010B2
:101D10000909491E082918D8DFE801F00507090B51
:101D20000D0F11131500012110E002210EE0032117
:101D30000CE004210AE0052108E0062106E0072165
:101D400004E0082102E0092100E00021217016BD15
:101D50009DF8000000F03F0040EA8510704738B55C
:101D600000F08AF828B99DF8000065F3051000F02E
:101D70007CF832BD1CB500F085F800F00AF806D0FA
:101D800004D3032903D038BF022100D300212170DE
:101D900016BD9DF80010090901F0030101297047E3
:101DA00038B500F069F818B900F035F800F05DF8C2
:101DB00032BD0A460623282162E738B500F039F81B
:101DC00028B99DF8000065F3010000F02BF832BD42
:101DD00038B500F02EF828B99DF8000065F38300AF
:101DE00000F020F832BD1CB500F010F89DF800108E
:101DF000890801F00301012906D004D3032903D087
:101E000038BF022100D30021217016BD0C460123EA
:101E10006A46602134E79DF8000000F07F0040EA48
:101E2000C51070478DF8000001236A4660212046E6
:101E30002CE70D46044601236A46602120E79DF801
:101E4000000065F30410704738B500F03BF818B98E
:101E5000FFF7F5FF00F02EF832BD0A460623682191
:101E60000EE70A4601230F210AE78DF8000001233F
:101E70006A462321204609E70D46044601236A46A7
:101E80002321FDE60C4601236A462321F8E60A4693
:101E900001234F21F4E638B500F014F828B99DF875
:101EA000000065F3410000F005F832BD0C46012347
:101EB0006A4670478DF8000001236A466221204679
:101EC000FFF7E4BE0D46044601236A466221FFF790
:101ED000D7BE9DF8000065F3451070478DF80000EF
:101EE00001236A462E212046FFF7D0BE0D46044648
:101EF00001236A462E21FFF7C3BE38B5FFF7F6FF70
:101F000018B9FFF725FFFFF7E9FF32BD2046FFF7BD
:101F1000BDBE38B5FFF7D6FF18B9FFF7DAFFFFF7F8
:101F2000C9FF32BD2DE9FC47050017D0DFF8E87680
:101F3000DFF8F466BC68F86800F003082878C1068A
:101F400004F00C0453D524B10C2C08BFB8F1010FD8
:101F50002FD13868810703D5A869002800F06A816D
:101F6000396808074EBF396871680909286A01F0A5
:101F7000F001814206D200F013FB002809D100F0E5
:101F80000CFA08E000F009FA2CB9286A00F008FB06
:101F9000002840F04F8100F0A6FABA6800F099FAE4
:101FA000DFF87C06006800F057FB010000F032818A
:101FB000EDE1A86990B1396841F00101396000F0A4
:101FC0006DFB81463868810700F1228100F066FBD5
:101FD000A0EB09000328F5D30320D8E138684008B6
:101FE0004000386000F05AFB81463868810740F1B4
:101FF000118100F053FBA0EB09000328F5D3EBE7B8
:102000006868B0F5803F04D1386840F480303860AB
:1020100011E0B0F5A02F386806D140F48020386078
:10202000396841F4803105E020F480303860396847
:1020300021F480213960686868B100F02FFB814687
:102040003868810300F1F88000F028FBA0EB09005C
:102050006528F5D3C0E700F021FB8146386881038D
:1020600040F1EA8000F01AFBA0EB09006528F5D3E7
:10207000B2E700F013FB00F08CF9C0F00381ABE78E
:10208000E86880B1396841F48071396000F006FB7E
:1020900080463868410500F1E08000F0FFFA00F06A
:1020A00078F9F6D398E7386820F48070386000F04B
:1020B000F5FA80463868410540F1D68000F0EEFA26
:1020C00000F067F9F6D387E740084000706000F041
:1020D000E5FA80467068810740F1D88000F0DEFAAA
:1020E00000F057F9F6D377E70528306806D140F0BD
:1020F00004003060316841F0010105E04008400013
:102100003060316821F004013160A86841F28939FA
:1021100068B100F0C3FA82463068810700F1EC80B4
:1021200000F0BCFAA0EB0A004845F5D354E700F0F4
:10213000B5FA82463068810740F1DE8000F0AEFAE1
:10214000A0EB0A004845F5D346E700F400328A4286
:102150000FD1EA6B520800F4C001521EB1EB425F8E
:1021600007D1296C490800F0C060491EB0EB416FEF
:102170001FD00C2C5ED0386841015BD43868C10098
:1021800058D4386820F08070386000F087FA044630
:102190003868810140F1D78000F080FA001B0328E5
:1021A000F6D319E700F07AFA401B0328C0F0EA8062
:1021B00012E73868810104D400F001F90446386858
:1021C000810100F1E38000F069FA001B0328F6D3D7
:1021D00002E70C2C2ED0386820F080703860396807
:1021E00011F0205F03D1F86880088000F860F9687A
:1021F000DFF83804014000F0E9F80446386881014E
:1022000040F1C48000F04AFA001B0328F6D3E3E64D
:1022100000F0C3F82878C1070ED5082C05D00C2C87
:1022200008BFB8F1030F7FF4EBAE3868810303D524
:10223000686808B90120AAE02878810714D5042C21
:1022400005D00C2C08BFB8F1020F7FF419AF386825
:10225000410502D5E8680028ECD07868296920F0AB
:10226000F85040EA01607860287801070ED5686967
:10227000002870683FF428AF40F00100706000F063
:102280000DFA8046706881077FF5F3AE2878410724
:1022900039D5B86DC1004FF000080AD4B86D40F0D0
:1022A0008050B8654FF00108B86D00F08050009084
:1022B0000098DFF87C93D9F80000C10513D4D9F851
:1022C000000040F48070C9F8000000F0E7F9824691
:1022D000D9F80000C10506D400F0E0F9A0EB0A002F
:1022E0000328F5D378E6A86801287FF4FDAE3068AE
:1022F00040F00100306008E7B8F1000F03D0B86D7E
:1023000020F08050B865A86A00283FD002287FF4EA
:1023100060AFF868EA6A00F00301914201BF00F083
:1023200070012A6B521EB1EB021F04D16A6B00F4DC
:10233000FE41B1EB022F7FF41CAFA96B07290CBF44
:102340000021012101E7FA68DFF8E812E86A0A4093
:10235000296B0243491E686B42EA0112E96B490886
:1023600042EA0022286C491E400842EA4152401EBF
:1023700042EA4062A86B000942EA4042FA6000F07B
:102380001EF80546386881017FF50CAF0020BDE8D6
:10239000F687A0EB080003287047386840F0080073
:1023A00038603968286A21F0F001014339607968A2
:1023B000E86921F47F4141EA00217960704738687B
:1023C00040F080703860F96841F08071F96000F089
:1023D00065B92DE9F0410400884678D0DFF85862ED
:1023E000306800F00700404509D23168C90848EA62
:1023F000C1013160306800F00700404567D12078A6
:10240000DFF81452C1074AD56068032802D1296851
:102410008A0108E0022802D129688A0303E0002823
:10242000296802D18A0702D451E04A054FD5A9682C
:10243000890840EA8100A86000F030F90746A868E2
:10244000616800F00C00B0EB810F28D000F026F995
:10245000C01B41F289318842F1D303201DE020786E
:10246000410705D5AA68E06822F4E0620243AA6049
:102470002178080706D5A968206921F4605141EA4E
:10248000C001A96000F02FF8AA6800F022F8BDE8AA
:10249000F0416348006800F0DFB8BDE8F0812078C3
:1024A000810705D5AA68A06822F0F0020243AA605D
:1024B000316801F007018845D1D23068C00848EA88
:1024C000C0003060316801F007014145C7D00120EC
:1024D000E3E75A49C2F30312895C504A01F01F0135
:1024E000C8401060704770B54B4A564B9068D6682C
:1024F0000025002110F00C0006F00306524C03D01A
:102500000C2812D1012E1AD115682E0704D4454D7E
:102510002E68C6F3032502E01568C5F303154B4E7C
:1025200056F8255048B9294624E0042808BF21461A
:1025300020D008281ED119461CE00C281AD1D068DA
:1025400000F00300022803D0032808BF1D4600E066
:102550002546D168D068D268C0F306204543C1F350
:102560000210C2F34161401C491CB5FBF0F0490068
:10257000B0FBF1F1084670BD2848314A0068136885
:102580003349C3F3022206E024482D4A0068136849
:102590002F49C3F3C222895C01F01F01C840704774
:1025A0007CB52C4E054630680024C10002D500F0F1
:1025B0007BF80EE0306840F080503060316801F008
:1025C00080510091009800F06FF8316821F080513F
:1025D0003160B0F5007F04D1802D0CD9A12D09D335
:1025E00004E0802D88BF032405D801D1022402E035
:1025F000702D00D1012410480168C90844EAC101C6
:102600000160006800F00700A04201D0012076BD03
:10261000002076BD0000000000100240D80100201C
:10262000BC0100209410024090100240FFFFEEFE1B
:10263000007000408C809DF900200240D0470008C7
:102640000810024000127A000024F400E04700085D
:10265000204900085810024070B50E4E0446B0687C
:102660000025A0B14FF47A710B4AB1FBF0F110686C
:10267000B0FBF1F000F09EF848B9102C07D2002210
:1026800021464FF0FF3000F06DF8746000E0012546
:10269000284670BDB8010020D8010020014800681C
:1026A000704700BFB8010020DFF87800006800F430
:1026B000C060704710B5DFF86C10B0F5007F086897
:1026C00000F4C06015D1B0F5007F1BD00868DFF8BA
:1026D0005820DFF8584020F4C06040F4007000F04B
:1026E00018F84A6953050FD5002818BF401EF8D1C5
:1026F0000AE0B0F5806F05D0086820F4C06040F4AF
:1027000080600860002010BD48694105FAD50320AB
:1027100010BD0860322013684343B3FBF4F0401C43
:102720007047000000700040D801002040420F00B8
:102730000901020002D4294881547047284B02F055
:102740000F021A4402F8041C7047264B19684FF612
:10275000FF020002114000F4E060084322490843F0
:102760001860704738B51F4B1C68C4F30223C3F1CF
:102770000704052C28BF04241D1D072D34BF00238A
:10278000DB1E012505FA04F4641E2140994005FA78
:1027900003F35B1E1A401143BDE83440C8E7010053
:1027A00007D4012200F01F01104B8A40400943F872
:1027B0002020704710B5401EB0F1807F01D301206A
:1027C00010BD0B4C60600F214FF0FF30FFF7B0FFE2
:1027D0000021A16007202060002010BD00E400E07F
:1027E00018ED00E00CED00E00000FA0500E100E06B
:1027F00010E000E038B5040001D1012032BD04F141
:102800004005687820B900212970204600F0AEFA12
:1028100000F053F86068216820F07060086120685B
:10282000816821F400418160E06821680128A06886
:102830000CBF40F4004040F404408860E068022887
:1028400003D120684FF4006141602068416841F085
:10285000007141F4004141602068C16821F40041E9
:10286000C16060692169A2690143206841EA0221CF
:10287000C160206AE1692268014311602068016833
:1028800041F001010160002068602021697020632F
:10289000A87032BD38B5040001D1012032BD04F169
:1028A000400500F00AF8204600F061FA0020686058
:1028B00068702063A870287032BD2420687020687A
:1028C0000168490849000160704700904FF080732B
:1028D000FF22704700904FF00073D2B27047012280
:1028E0004FF40041304600F090B92DE9FE4F00F062
:1028F000FEF84ED10C9D002D1CBF0D9F002F03D163
:102900004FF4007161603FE02078012841D001213F
:102910002170FFF7C3FE00F05BF8002834D12120BE
:1029200000F0FDF800F016F910B1002020702BE047
:10293000708DFF25B0F5807F19D300F0E9F800F025
:10294000D2F80E9F4A463946304600F07FF90028FB
:102950001AD100F025F811D089B279B900F030F819
:1029600090B900F019F805D300F0D2F804E000F0B7
:10297000C7F8E4E700F0C4F800F0B5F8708D00285F
:10298000E0D100F09CF808B1012003E000F02AF843
:1029900000E00220BDE8FE8F708DB0F5807F7047AB
:1029A000706A326801789162706A411C7162708D40
:1029B000411E7185308D411E3185708D0028704714
:1029C000CDF800903B4600228021304600F01DB932
:1029D0008146CDF80090192301224FF40041304682
:1029E00000F013B931682020C8613168DFF8540164
:1029F0004A6802404A60202161700020A070207067
:102A000070472DE9FE4F00F072F855D10C9D002D56
:102A10001CBF0D9F002F03D14FF40071616046E091
:102A20002078012848D001212170FFF737FEFFF7F9
:102A3000CFFF00283BD1222000F071F800F0A5F86C
:102A400010B10020207032E0718DDFF8F400FF2516
:102A5000B1F5807F1CD33585FFF737FF00F043F8D1
:102A60000E9FCDF800903B4600220421FFF73AFF6D
:102A700000281CD100F028F898B189B289B9FFF775
:102A80009FFFA0B9FFF788FF07D300F041F806E0E9
:102A9000728D3285FFF71EFFE0E700F031F800F09D
:102AA00022F8708D0028DCD100F009F808B101206F
:102AB00003E0FFF797FF00E00220BDE8FE8F4A46E3
:102AC0003946304600F0E9B83068416A706A0170F2
:102AD000716A308D4A1C411E72623185708D421EB2
:102AE0007285708D70474146304600F028B9064621
:102AF00006F1400488466078202892469B4670473D
:102B0000728D3285002000904FF00073D2B2704772
:102B10003585002000904FF08073FF227047607071
:102B20004021A170002060607562778570635B460C
:102B30000E9900915246CDF80490414630467047B8
:102B40000024008000E800FE90F841007047406CCF
:102B5000704700002DE9FC4100F031F84FF0807320
:102B6000EAB200F0ECF800F03EF858B9012D02D0BE
:102B700000F036F830B900F02CF88021204600F043
:102B800044F800B10120BDE8F6812DE9FC4100F0D8
:102B900016F80023EAB200F0D2F800F024F858B991
:102BA000012D02D000F01CF830B900F012F84021DD
:102BB000204600F02AF800B10120BDE8F681174652
:102BC000DDF82080099EDFF8982100921D4604461A
:102BD00070472068FFB28762009643460022704724
:102BE0002168380A88623246414620462EE0006855
:102BF00081698A0744BF002181628169CA0703D4C1
:102C0000816941F00101816170472DE9F041069F22
:102C100005460E4690461C46286881693140B142FF
:102C20000CBF0120002040450DD114F1010FF3D05D
:102C3000FFF734FDC01B844201D3002CECD100F01F
:102C400020F8012000E00020BDE8F08170B50546C5
:102C50000C46164628688169880710D400F035F8BC
:102C600058B914F1010FF5D0FFF718FD801B84420D
:102C700001D3002CEED100F004F8012070BD00203B
:102C800070BD05F140002022416841F02001416003
:102C90004270002181700170704770B505460C4686
:102CA00016462868816988060DD400F00EF840B9F0
:102CB000FFF7F4FC801B844201D3002CF1D1FFF715
:102CC000E0FF012070BD002070BD3246214628463D
:102CD000FFE770B505460C4628688169C8061646A8
:102CE00018D5286881698A0616D414F1010FF8D026
:102CF000FFF7D4FC801B844201D3002CF1D105F1F5
:102D00004000416841F0200141602022FFF7C0FFF0
:102D1000012070BD002070BD1021C16120202A68F3
:102D2000D0612846FFF763FF29680E484A680240D1
:102D300005F140004A60416841F00401E4E770B5E4
:102D40000068049C4568084E46EA5456B543C1F3F2
:102D50000901294341EA024119432143416070BD01
:102D60000020008000E800FEFF63FF03704770470B
:102D70002DE9FC47054600242868DFF8FC630105BF
:102D8000A14621D5686E70B1B0F5800F17D0B0F5AF
:102D9000000F03D0B0F5400F09D013E0326842F4C1
:102DA0008032326004E0002100F07FF9044654B91B
:102DB000F16F686E21F440010143F16704E000F017
:102DC0006EF9F3E70124A1462868C10421D5A86E55
:102DD000A8B1B0F1807F17D0B0F1007F03D0B0F17F
:102DE000407F04D013E0316841F4803131607CB918
:102DF000F16FA86E21F040710143F16709E00021F5
:102E000000F053F90446F2E700F049F9FAE701242B
:102E1000A146286881032BD5F06CC1004FF0000853
:102E20000AD4F06C40F08050F0644FF00108F06C70
:102E300000F0805000900098DFF81874386840F473
:102E400080703860FFF72AFC82463868C10500F1BF
:102E5000F780FFF723FCA0EB0A000328F5D3032437
:102E6000A146B8F1000F03D0F06C20F08050F06460
:102E70002878C10705D5F26FA86B920840EA820254
:102E8000F2672978880705D5F16FE86B21F00C010E
:102E90000143F1672978480705D5F16F286C21F0C7
:102EA00030010143F1672978080705D5F16F686C97
:102EB00021F0C0010143F1672978C80605D5F16FFB
:102EC000A86C21F440710143F1672978880605D583
:102ED000F16FE86C21F440610143F16729688805CE
:102EE00005D5F16FE86D21F440210143F1672968B0
:102EF000480505D5F16F286E21F440110143F167B3
:102F00002978480605D5F16F286D21F44051014319
:102F1000F1672978080605D5F16F686D21F4404105
:102F20000143F1672968C80505D5F16FA86D21F443
:102F300040310143F167296888041FD5F16FE86EBD
:102F400021F040610143F167E86EB0F1006F0DD1EF
:102F500000F0A0F812E0FFF7A1FB001B41F289315D
:102F60008842C0F08B804FF003097AE7B0F1806FA0
:102F700004D100F099F8010018BF814628680103C8
:102F800014D5F26F286F22F040620243F267286F77
:102F9000B0F1006F02D100F07DF807E0B0F1806F72
:102FA00004D100F081F8010018BF81462868410370
:102FB00014D5F26F686F22F040620243F267686FC7
:102FC000B0F1006F02D100F065F807E0B0F1806F5A
:102FD00004D100F069F8010018BF81462868410457
:102FE00018D5F26FA86F22F040520243F267A86F23
:102FF000B0F1805F03D1022100F057F807E0B0F193
:10300000005F07D1022105F1200000F0B7F80100B0
:1030100018BF81462868010405D5F26FE86F22F0D9
:1030200080420243F2672968C80306D5F16FD5F8DC
:10303000800021F000410143F1674846BDE8F68772
:10304000002C7FF40DAFDFF84C72386810F440703C
:103050001CBFD5F8841088420BD03868396841F419
:103060008031396020F440703A6822F480323A604E
:103070003860C00706D5FFF711FB044638688107A2
:103080007FF569AF3A68D5F8840022F440720243B4
:103090003A60E6E6306840F4801030607047002106
:1030A00005F1200000F06AB80121281DFFE72DE995
:1030B000F04100F0E5F809D0F16801F00301814228
:1030C0002BD150B300F0C8F80CD026E0012804D072
:1030D00023D303281BD016D31FE0326891071CD5D9
:1030E00000F0C1F8306820F0806000F0C6F880463B
:1030F0003068010133D5FFF7D1FAA0EB08000328AF
:10310000F6D3032536E031684A05E9D405E0316895
:103110008A03E5D431684A03E2D401252AE0012C70
:10312000326909D13B695D4802405B0842EA0121EE
:103130005B1E41EA435102E07B6900F081F8316196
:10314000306840F0806000F098F804463068010173
:103150000CD4FFF7A3FA001B0328F7D3D1E7B96813
:10316000002CDCD1326900F062F8E8E73169B86917
:103170000143316158E000000C1002402DE9F0419C
:1031800000F07EF809D0F16801F0030181422BD1F3
:1031900050B300F061F80CD026E0012804D023D30E
:1031A00003281BD016D31FE0326891071CD500F00E
:1031B0005AF8306820F0805000F05FF880463068A0
:1031C000810026D5FFF76AFAA0EB08000328F6D3A2
:1031D000032529E031684A05E9D405E031688A030E
:1031E000E5D431684A03E2D401251DE03B6900F0D3
:1031F00027F87161306840F0805000F03EF80446D6
:10320000306881000CD4FFF749FA001B0328F7D37C
:10321000DEE7B9687269002CE8D100F008F8E8E749
:1032200071697869014371612846BDE8F0811C48E5
:10323000FB68024042EA01211B0941EA4341704711
:10324000184802405B0842EA01215B1E41EA4361E3
:103250007047000000700040F0687968C0F3021009
:10326000401C88427047F268796822F0730210436C
:10327000491E40EA0110F06070473060FFF70EBA57
:103280000746054E38680C46F168002511F0030F1B
:10329000704700009010024000100240FF809FFF26
:1032A000FF80FDFFFF80FFF938B5040009D004F16D
:1032B0007005696809B900F01EF800F021F80128CE
:1032C00001D1012032BD606A08B100F02AF800F097
:1032D0000AF821F02A01FFE7816000F01BF8BDE841
:1032E000324000F0DEB92068416821F4904141602D
:1032F00020688168704700202870204600F045BA99
:103300002421696020680268520852000260204649
:1033100000F00AB82068016841F001010160204610
:103320007047204600F05AB92DE9F04104469D4807
:1033300022681368A168034020690B436169034355
:10334000E0690B430343136000265168E06821F4F1
:103350004051014351600025A36991498A421CBF35
:10336000206A03439768904827F430673B43936093
:103370008E4F8F4BBA4221D11B6803F00303032BFE
:1033800029D8DFE803F0025F50710127E169B1F548
:10339000004F4FF6F07840F0D38067B1012F00F076
:1033A000A980022F00F0A980042F00F0AB80082F25
:1033B00000F0B180B7E0FFF7DFF8A5E07D4FBA423B
:1033C00023D11B6813F00C035FD0042B3AD0082BD9
:1033D00029D00C2B48D010278A42D7D1390006D0EB
:1033E000022F09D0042F52D0082F53D0D0E0FFF77E
:1033F000C3F8002800F0CD80626802EB42018842E9
:1034000002D31303834248D2C2E06B4FBA420CD1BD
:103410001B6813F0300338D0102B13D0202B02D0B0
:10342000302B21D0D7E70227D6E7644FBA420BD121
:103430001B6813F0C00328D0402B03D0802BF2D0A0
:10344000C02BEEE70427C7E75D4FBA420ED11B68D9
:1034500013F4407319D0B3F5807FF3D0B3F5007F38
:10346000E1D0B3F5407FB6D10827B5E78A42B2D1A3
:103470001B6813F4406308D0B3F5806FE2D0B3F556
:10348000006FD0D0B3F5406FCBE70027A4E7FFF77C
:103490002AF8AEE74FF40040AEE737B1022F0AD06A
:1034A000042F0ED0082F16D01BE0FFF765F800F0B0
:1034B0008FF879410AE0434911EB520045EB0501D1
:1034C00004E0FFF710F800F083F86941002300F0F2
:1034D0005DF9064606E0530803F50003B3FBF2F678
:1034E00000E00125A6F540703749884250D2226895
:1034F000D6604EE0FFF748F806E06068334901EB1C
:1035000050010CE0FEF7EFFF61684A0802EB400251
:10351000B2FBF1F605E06068410801F58031B1FBCE
:10352000F0F6B6B200E00125A6F1100040452FD21A
:1035300008EA0601C6F3420001432068C16028E0A2
:1035400047B1012F09D0022F0CD0042F08D0082F2B
:103550000ED015E0FFF710F804E0FFF715F801E0D2
:10356000FEF7C1FF616800EB5100B0FBF1F605E02A
:103570006068410801F50041B1FBF0F6B6B200E029
:103580000125A6F11000404502D22168CE6000E07E
:1035900001250020206660662846BDE8F081000015
:1035A00000800040F369FFEF0024F4000038014080
:1035B000881002400044004000480040004C004099
:1035C00000500040000024F400FD0F000048E80116
:1035D0006268010E560816EB0020704790F8241020
:1035E000CA0706D502685368816A23F400330B4387
:1035F000536090F824108A0706D502685368C16AA0
:1036000023F480330B43536090F824104A0706D507
:1036100002685368016B23F480230B43536090F8D6
:1036200024100A0706D502685368416B23F400434F
:103630000B43536090F82410CA0606D502689368BD
:10364000816B23F480530B43936090F824108A0617
:1036500006D502689368C16B23F400530B43936053
:1036600090F824104A0610D502685368016C23F4C0
:1036700080130B435360036CB3F5801F05D153686F
:10368000416C23F4C0030B43536090F824100A06E6
:1036900006D501684A68806C22F4002202434A6021
:1036A0007047F8B5044604F170050020E8606FF03B
:1036B0007E47FEF7F3FF0646206801680A0708D533
:1036C0000097334600224FF40011204600F016F810
:1036D00060B9206801684A070AD50097334600227E
:1036E0004FF48001204600F009F808B10320F2BD34
:1036F00020206860A86000202870F2BD2DE9F0410C
:10370000069C05460E4690461F462868C169314012
:10371000B1420CBF01200020404528D114F1010F17
:10372000F3D0FEF7BBFFC01B844200D34CB928681E
:10373000016821F4D071016000F01CF800210170D3
:1037400013E0286801684A07DFD5C1690A05DCD59E
:103750004FF4006101622868026822F4D0720260AE
:10376000002200F007F8C1600270032000E0002092
:10377000BDE8F0812868816849084900816005F149
:10378000700020214160816070477047D3BBD9B180
:10379000B2F5803F5BD2022A1ED98C46B1FBF2F112
:1037A00002FB11C31B0443EA1043B3FBF2FC02FB10
:1037B0001C3380B240EA0343B3FBF2F002FB103249
:1037C00040EA0C4000237047022A05D98446B0FB2A
:1037D000F2F002FB10C270474AB105D100F00102BD
:1037E00049085FEA3000704700220023704700F06C
:1037F00051B80B000200002100207047F7D30022CF
:1038000000237047904271EB030CF2D370B5B1FA0C
:1038100081F4B3FA83F52C1BA340C4F1200532FADE
:1038200005F63343A2405FF00046E64002E05B0845
:103830005FEA3202841A71EB030524BF2046294651
:103840007641F4D302000B003000002170BD70B54A
:10385000B1FA81F4B2FA82F5C4F120046419B4F12A
:103860002006DAD3B2405FF00044F440002502E0C5
:1038700052085FEA3303C61A71EB020E24BF3046CA
:10388000714664416D41F3D302000B002000290012
:1038900070BD0000704700002DE9F84F4FF00008A0
:1038A000B54A0F2304460D4635E0B44EB44214BF6A
:1038B000072606268E4046EA0E064CF82760C743C8
:1038C000AF490E6807EA060C6E68F60348BF40EA87
:1038D0000C0CC1F800C04E6807EA060C6E68B6030F
:1038E00048BF40EA0C0CC1F804C08E6807EA060C19
:1038F0006E68F60248BF40EA0C0CC1F808C0CE68FA
:1039000007EA060C6F68BE0248BF40EA0C0CC1F81B
:103910000CC008F10108296831FA08F000F09A801B
:10392000012000FA08F616EA0100F2D04FEA480733
:103930000321B9406FEA010C6968012918BF022907
:103940006FEA060E03D0112918BF122910D1A16801
:10395000EE680CEA0101BE403143A16061686E6807
:10396000C6F300160EEA010106FA08F6314361605B
:10397000696801F00306032E08D1E66AC1F3C001AD
:103980000EEA060601FA08F13143E162E168AE6829
:103990000CEA0101BE403143E1604FEA88016E68E4
:1039A000022E18BF122E13D14FEAD80604EB860E52
:1039B00001F01C09DEF82060D5F810B003FA09FA0E
:1039C00026EA0A060BFA09F949EA0606CEF820604B
:1039D000266895F804E00EF0030E0CEA06060EFACF
:1039E00007F7374327606F68FE0092D51768DFF846
:1039F00094C147F00107176001F00C01166806F04A
:103A00000106009603FA01FE009F4FEA98075CF852
:103A1000276026EA0E0EB4F1904F08BF002618D09A
:103A2000594EB44208BF012613D0584EB44208BFC5
:103A300002260ED0564EB44208BF032609D0554E7A
:103A4000B44208BF042604D0534EB4427FF42DAFD5
:103A500005262FE7BDE8F18F2DE9F04F8A460025B6
:103A60004749484A03463DE0444FBB4214BF07273D
:103A7000062707FA0EF7BC4212D10C68C043044077
:103A80000C604C6804404C608C6804408C60CC68CE
:103A90002040C86052F8280020EA090042F82800B7
:103AA0000324680004FA00F01C6804431C6006F05C
:103AB0001C06EC0803EB84040BFA06F6276A27EAD7
:103AC00006062662C0439E6806409E606FEA0C04AC
:103AD0005E6826405E60DE683040D860D86A20406C
:103AE000D8626D1C3AFA05F030D0012000FA05FCCE
:103AF0001CEA0A00F5D04FEA9508AE0052F82840BB
:103B000006F00C0E4FF00F0B0BFA0EF9B3F1904FBD
:103B100009EA040408BF0027ABD01B4FBB4208BF13
:103B20000127A6D0194FBB4208BF0227A1D0184FCA
:103B3000BB4208BF03279CD0164FBB4208BF0427D7
:103B400097D0154FBB428FD1052792E7BDE8F08F84
:103B50000069084018BF0120C0B270470AB18161F6
:103B60007047816270470D4A136803421CBF1060A2
:103B700000F016B8704700006010024000180048BE
:103B8000000401400800014000040048000800480B
:103B9000000C0048001000480014004814040140C4
:103BA000704700002DE9F84705004FF0000887B086
:103BB00089464FF0010A4746DFF8A46203D0022D80
:103BC00049D041D358E0484600F059F8002846D182
:103BD000B06B726C6946D3689847002849D19DF84C
:103BE000000001289DF8010008BF022701289DF868
:103BF000020008BF47F00107012808BF47F004078B
:103C000003240AEA0900504504BF0AEA07005045A8
:103C10000FD10C2106F124026943711852F82A30A1
:103C200051F823100A6806F1380050F82500904733
:103C300038B9641E4FEA4A0AE3D1404608B0BDE8ED
:103C4000F0876FF00400F9E7484600F06DF830B9EE
:103C5000F06BB26CBEE7484600F0B5F810B14FF01B
:103C6000FF30EBE7F26C306CD36869469847002868
:103C7000B5D06FF00600E1E76FF00108DDE7D7216E
:103C8000F0B500F093F88FB000F093F8039506F1CB
:103C90005C007449744A0591079201A9FCF774FA13
:103CA00050B9694606F15C00FCF7DFFA002804BF52
:103CB0009DF800006A2802D06FF0060531E008A9DF
:103CC00006F15C00FCF7D8FA9DF821009DF8202051
:103CD00040EA42019DF8222041EA82013165E20773
:103CE00006F15C01B1636FF004076049716408D5A7
:103CF000012806D15E48306006F15C0009688847FB
:103D000070B9A0070AD59DF82010012906D159489D
:103D1000716C70600A68B06B904708B9600700D595
:103D20003D4628460FB0F0BD2DE9F841332100F0A3
:103D30003DF88FB000F03DF806F18C0700F086F8F2
:103D4000FDF7C2FB48B969463846FDF711FC00286B
:103D500004BF9DF80000332802D06FF0060524E070
:103D600008A93846FDF709FC9DF821009DF82010B0
:103D7000F76340EA41009DF8221040EA8100706537
:103D8000A0073D49B1646FF0040809D59DF82020D3
:103D9000012A05D13948306138460968884718B981
:103DA000E00701D4610700D545464BE0344A2C4E6C
:103DB000704704468DF81010019200253149324AAF
:103DC0000291069270472DE9F8413D21FFF7EEFF81
:103DD0008FB0FFF7EEFF06F1B80700F037F8FDF7F8
:103DE000C2FD48B969463846FDF71BFE002804BFEE
:103DF0009DF80000402802D06FF0060522E008A9D7
:103E00003846FDF713FE9DF821109DF820209DF8FF
:103E10002200376441EA420141EA8001B16562074C
:103E20001A49F1646FF0040807D5012805D1184834
:103E3000306238460968884718B9A00701D4E107FD
:103E400000D54546284610B0BDE8F0810549064A30
:103E500005910792039501A93846704700000000BC
:103E60001400002075450008E945000860010020A5
:103E70009401002070010020F800002008010020BB
:103E8000C144000841450008954500082C01002068
:103E90003C01002070B504466848694E86B0016850
:103EA00041F00101016000686AA100F0010000908A
:103EB000009831F8145001950121029103910221DB
:103EC000049101A956F82400FFF7E6FC00F004F87D
:103ED000002006B070BD000056F8240000222946DC
:103EE000FFF73CBE10B500F00BF8012203E010B55F
:103EF00000F006F80022FFF731FE002010BD0000A0
:103F000054A34F4C33F8101054F8200070470000B1
:103F1000F8B5044649484B4E86B0026842F00402A8
:103F200002600025D0F800004BA200F004000090D1
:103F3000009832F81430019302220392049256F84A
:103F4000240021B9029501A9FFF7A6FC27E03E4A0B
:103F5000029201A9FFF7A0FC43A151F82410301DE3
:103F600000EBC406304600F088F86FF0030738B95C
:103F70003BA050F824200021304600F077F808B12B
:103F80003D460CE00FF2D40036A1065751F824103C
:103F900000223046FEF7E6FB3046FEF700FC2846DE
:103FA00007B0F0BD80B500BF2BA2264B32F8101031
:103FB00053F82000FFF7CCFD401E8041C00F02BD2A
:103FC000002000F0DDB870B50024022886B028BFBC
:103FD0006FF0010428D200F02AF807231748C168BF
:103FE00041F40031C160C16801F4003100910099D1
:103FF000026842F0010202600222006800F0010043
:1040000000900C21009802920191032204920593E2
:10401000039401A94FF09040FFF73EFC701900F0A7
:10402000B5F808B16FF00304204606B070BD07492B
:10403000074EC50151F82000705170474C100240E6
:10404000C4010020C801002000001110D40100208C
:10405000DC010020200000000020000028000000FB
:10406000C13F00080F0000000D00001603460020AD
:1040700009B95A6070470120704708B9012070479C
:1040800001600020704710B502680A4C012302F05D
:104090001F01C2F3004204EB421203FA01F113685C
:1040A0000B421EBF11604068002802D0BDE81040DE
:1040B000004710BD1404014080B50020FFF7EAFE60
:1040C00001210020FFF724FF0020FFF76BFF401EB7
:1040D00080412D49C00F886000F070F80020FFF784
:1040E00072FFBDE8044003210020FFF75BBD1CB553
:1040F000254C6178A1B1322000F080F80020FFF754
:1041000051FFA1688842F9D0322000F077F80021F1
:1041100061702079002819BF0121E1700122A2708D
:104120002078A0B1002121700020694600F09BF8A2
:1041300008B100F06BF90098C10708D50020FFF71F
:10414000D1FE642000F05AF80020FFF7D0FEA078DE
:1041500050B10021002000F068F808B100F056F9D5
:10416000012000212071A170E07840B1002000F012
:1041700067F808B100F04AF900202071E07013BD23
:1041800001490120487070470800002010B50A4915
:1041900001604FF4E1320C210024426041618460EF
:1041A000C46004618461C46104624462FFF77CF806
:1041B00000B10124204610BD0044004010B50C4C55
:1041C0000C492046FFF759FF0FF21D02002120463F
:1041D000FFF74CFF002200211720FEF7C3FABDE8CD
:1041E00010401720FEF7DBBA034901200870704722
:1041F00000000020050000160800002038B5044625
:10420000FEF74CFA14F1010F054602D00449886804
:104210000419FEF743FA401BA042FAD331BD00BF98
:10422000B80100206FF0040002BD80B528B900F08D
:1042300016F8FCF757FB10B1F4E76FF0010002BD70
:1042400080B528B900F007F8FCF78EFB10B1E9E75C
:104250006FF0010002BDDFF8241008687047DFF836
:104260001C201068704780B528B9FFF7F8FFFCF7ED
:1042700009FC10B1D6E76FF0010002BD4C00002030
:1042800080B500F0C5F800F007F800F047F8FFF738
:1042900013FFFFF72CFFFCE710B5B8B0524C05A890
:1042A0002146442200F0CAF86846142100F0D2F8F2
:1042B00016A804F14401882200F0C0F802214FF44E
:1042C0008072059108921021022209910F9210929A
:1042D0000A210122119212910722022113921491B4
:1042E000159105A8FDF71EFE0F20032100900191F6
:1042F000002202920392049204216846FEF769F8B4
:1043000042201690002125912A9116A8FEF730FD33
:104310004FF40070FEF7CEF938B010BD10B586B07E
:104320006846142100F096F83048046844F004040C
:104330000460016801F0040105910599026842F0EA
:1043400080020260036803F0800305930599026808
:1043500042F001020260036803F00103059305992E
:10436000026842F0020202600022006800F00200CF
:104370000590202105984FF09040FFF7EFFB4FF498
:1043800000501B4900F03CF81A48FFF785FA20213D
:1043900000910122002102910391019269464FF0A0
:1043A0009040FFF779FA3020134900F029F81348BC
:1043B000FFF772FA002200210A20FEF7D3F90A2043
:1043C000FEF7EDF9002200211720FEF7CBF91720A8
:1043D000FEF7E5F9002200212820FEF7C3F9282086
:1043E000FEF7DDF906B010BDB84600084C100240DB
:1043F00000002110000800480000111000040048CF
:1044000000900191002202926946704770470000B7
:10441000094810B5016841F4807101600320FEF77E
:1044200094F90020FEF718F90024002814BF012495
:1044300000F014F8204610BD002002404AB10000F0
:1044400011F8013B521E00F8013B1CBF11F8013B63
:10445000F8E77047002200F019B800000A4881B060
:10446000816841F001018160816801F001010091E2
:104470000099026842F080520260006800F08050AB
:104480000090009801B070475810024000B500BF7E
:10449000130096469446103928BFA0E80C50FAD86D
:1044A0005FEA417C28BF0CC048BF40F8042BC90715
:1044B00028BF20F8022B48BF00F8012B00BD0000E8
:1044C000444870B5444D28600024E86C411C002825
:1044D00086B0E96431D12846FEF736FB68BB3F4E13
:1044E000306840F0020030601222316801F00201B1
:1044F00000914FF4407100983948019102920121D6
:104500000391032204210591049201A9FFF7C4F944
:10451000F06840F40010F060F06800F400100090C3
:104520006FF007060098284600F060F820B90021D7
:10453000284600F081F800B13446204606B070BD30
:1045400038B5254DE86C002490B1401EE8640FD1C9
:104550002448026822F4001202604FF4407120489F
:10456000FFF77AFA2846FEF795F908B16FF00704CD
:10457000204632BD7FB500F01FF8FEF7B6F90024E3
:1045800038B100F024F804280CBF6FF065046FF018
:1045900003040EE07FB500F00FF8FEF732FA0024B6
:1045A00038B100F014F804280CBF6FF065046FF008
:1045B0000304204604B070BD009201930A46064DE4
:1045C0004FF480560146029601232846704728463C
:1045D000FEF7BDBA005400405C0200204C100240BF
:1045E0000004004858100240FEF758B838B5044699
:1045F0000F481049206000250120E0606160A5603F
:1046000025616561A561E56125622046FEF7F2F846
:1046100000B101250021204600F00EF800B101256F
:104620000021204600F01DF800B10125284632BDCA
:1046300000540040EC9C901030B500F140025378DB
:10464000202B0CD11478012C09D000F01DF824F493
:1046500080541C6003681D682943196020E0022013
:1046600030BD30B500F140025378202B0AD11478C8
:10467000012C07D000F008F824F4706444EA012407
:104680001C600DE0022030BD0123137024245470FF
:1046900003681D686D086D001D6003681C68704725
:1046A0000068016841F00101016020205070002184
:1046B0001170002030BD000000000000000000006C
:1046C00000000000000000000000000000000000EA
:1046D00000000000000000000000000000000000DA
:1046E00000000000000000000000000000000000CA
:1046F00000000000000000000000000000000000BA
:1047000000000000000000000000000000000000A9
:104710000000000000000000000000000000000099
:104720000000000000000000000000000000000089
:104730000000000000000000000000000000000079
:104740000000000000000000000000000000000069
:104750000000000000000000000000000000000059
:104760000000000000000000000000000000000049
:104770000000000000000000000000000000000039
:10478000000000000E48016841F470010160002241
:104790000C49086840F0010008608A604FF48052BC
:1047A0000B68094803400B60CA6000200B68074A89
:1047B00023F480230B6088614FF000611160704723
:1047C00088ED00E000100240FFFFF6EA08ED00E08F
:1047D00000000000000000000102030406070809B1
:1047E000A0860100400D0300801A060000350C0071
:1047F00040420F0080841E0000093D0000127A0034
:104800000024F40000366E010048E801006CDC0270
:104810007047FEE7FEE7FEE7FEE770477047704728
:1048200000F00EB81020FFF79EB90348FFF72BBC2D
:104830000248FFF728BC000000000020CC01002047
:1048400002490A68886882180A607047B801002027
:1048500010B5074979441831064C7C44163404E0FD
:104860000A68081D114488470146A142F8D110BDCD
:104870002C000000480000004EF68851CEF20001E6
:10488000086840F470000860BFF34F8FBFF36F8F6C
:104890004FF00070E1EE100A7047000093CBFFFF6D
:1048A000D0000000DC0100200000000003CBFFFF6F
:1048B000B0010000A60100000000002000F00DF88B
:1048C000002801D0FFF7C4FFAFF300800020AFF352
:1048D0000080FFF7D5FC00F002F80120704700F0DF
:1048E00001B800000746384600F002F8FBE7000078
:1048F00080B5AFF30080024A11001820ABBEFBE781
:10490000260002000148804701480047854700080B
:1049100015490008AFF30080FFF7AEFFFFF7CEFFA9
:104920000000000001020304FFF7FEBFFFF7FEBF17
:10493000FFF7FEBFFFF7FEBFFFF7FEBFFFF7FEBFAB
:10494000FFF7FEBFFFF7FEBFFFF7FEBFFFF7FEBF9B
:10495000FFF7FEBFFFF7FEBFFFF7FEBFFFF7FEBF8B
:10496000FFF7FEBFFFF7FEBFFFF7FEBFFFF7FEBF7B
:10497000FFF7FEBFFFF7FEBFFFF7FEBFFFF7FEBF6B
:10498000FFF7FEBFFFF7FEBFFFF7FEBFFFF7FEBF5B
:10499000FFF7FEBFFFF7FEBFFFF7FEBFFFF7FEBF4B
:1049A000FFF7FEBFFFF7FEBFFFF7FEBFFFF7FEBF3B
:1049B000FFF7FEBFFFF7FEBFFFF7FEBFFFF7FEBF2B
:1049C000FFF7FEBFFFF7FEBFFFF7FEBFFFF7FEBF1B
:1049D000FFF7FEBFFFF7FEBFFFF7FEBFFFF7FEBF0B
:1049E000FFF7FEBFFFF7FEBFFFF7FEBFFFF7FEBFFB
:1049F000FFF7FEBFFFF7FEBFFFF7FEBFFFF7FEBFEB
:104A0000FFF7FEBFFFF7FEBFFFF7FEBFFFF7FEBFDA
:104A1000FFF7FEBFFFF7FEBFFFF7FEBFFFF7FEBFCA
:104A2000FFF7FEBFFFF7FEBFFFF7FEBFFFF7FEBFBA
:104A3000FFF7FEBFFFF7FEBFFFF7FEBFFFF7FEBFAA
:104A4000FFF7FEBFFFF7FEBFFFF7FEBFFFF7FEBF9A
:104A5000FFF7FEBFFFF7FEBFFFF7FEBFFFF7FEBF8A
:104A60003003050000160001F32301000121362167
:104A700004F39D020001100317150008570412717A
:104A800004127B04129D0412C30412F504100BA936
:104A900016000855170008391800087D0410030394
:104AA0001900089F0812CD081003111A00082304EA
:104AB000122D04125904127904129104129904124D
:104AC000D50410036F1B00087704129B04127B04AB
:104AD0001007E7010008470200086B04127904126E
:104AE000A30412C90412F90410033D030008BD0415
:104AF0001391043C1104100309050008F708122D56
:104B000008124D04127D0412C904100B410600085E
:104B1000C1070008130800087304124504256F77C5
:104B20001000B612481267480DCC00054400400042
:034B3000093D003C
:040000050800491591
:00000001FF
