:020000040800F2
:10000000B00800209D5D0008755C0008775C000862
:10001000795C00087B5C00087D5C00080000000043
:100020000000000000000000000000007F5C0008ED
:10003000815C000800000000835C0008855C00080B
:10004000C75D0008CB5D0008CF5D0008D35D0008E8
:10005000D75D0008DB5D0008DF5D0008E35D000898
:10006000E75D0008EB5D0008895C0008EF5D0008B3
:10007000F35D0008F75D0008FB5D0008FF5D000808
:10008000035E0008075E00080B5E00080000000029
:100090000000000000000000000000008F5C00086D
:1000A0000F5E0008135E0008175E00081B5E000864
:1000B0001F5E0008235E0008275E00082B5E000814
:1000C0002F5E0008335E0008375E00083B5E0008C4
:1000D0003F5E0008435E0008475E00080000000025
:1000E000955C00084B5E00084F5E000800000000B1
:1000F000000000000000000000000000535E000847
:1001000000000000575E00085B5E00085F5E0008AC
:1001100000000000000000000000000000000000DF
:10012000635E0008675E00086B5E00086F5E000893
:10013000735E0008000000000000000000000000E6
:10014000000000000000000000000000775E0008D2
:100150007B5E00087F5E0008835E0008875E000803
:100160008B5E00088F5E00080000000000000000A9
:10017000000000000000000000000000000000007F
:1001800000000000935E0008000000000000000076
:10019000975E00082DE9F04F0FF2A41CA1B0DCE936
:1001A0000089CDE900892A9DDFF8DC9B04910024B9
:1001B0008DF843500D944FF0FF38824616461F4687
:1001C0000FE0B3462C461BF8011B0498D0470028CB
:1001D000049000F0A2800D98401C641E0D90F2D196
:1001E00076193078252808D100210022079108923D
:1001F00009910A920B910C920DE06A4641463046F5
:1002000000F0DAFF050001D10D98A1E0D9D5012554
:10021000E6E741F0010116F8010F2028F9D0232864
:100220000CD02B2804D02D2805D0302809D076E01A
:1002300041F00201EFE741F00401ECE741F0080171
:10024000E9E741F01001E6E70F9209E00F98484511
:1002500005DA00EB800402EB4402303A0F92761C80
:100260003278A2F130000A28F0D330782E2818BF57
:10027000CDF8388022D116F8010F2A2807D1386826
:100280003860761C50F8042B38600E9216E02D284A
:100290000CBF761C002000220E920AE040B90E9A94
:1002A0004A4505DA02EB820403EB4403303B0E932C
:1002B000761C3378A3F130020A2AEFD3ADF8401050
:1002C00021A0317800F082FF08B116F8010B8DF8FB
:1002D00042009DF84200682804D1307868280AD18D
:1002E000622105E06C2804BF30786C2803D17121AD
:1002F0008DF84210761C12A806903A4616F8013B7B
:1003000002A9504600F064F838B912AA02A9504672
:1003100000F0C8F900287FF564AF404618E02A28AD
:1003200092D13A683A6052F8040B3A6000280F9074
:1003300003D540420F9041F00401761C95E7000080
:100340000000000000000000686A6C747A4C000035
:1003500021B0BDE8F08F622820D0682811D06A282B
:1003600003D06C2827D0712825D10868C01D20F043
:1003700007000860D0E900230830086019461046DD
:100380007047002A0A680A60106803D0121D0A60CC
:1003900000B217E0121D0A6080B217E0002A0A6856
:1003A0000A60106803D0121D0A6040B20AE0121DF4
:1003B0000A60C0B20AE0002A0A680A60106803D026
:1003C000121D0A60C1177047121D0A600021704794
:1003D0007CB50D4611461C462E69B4F1250200F08D
:1003E0004F811C3A00F08480121F022A40F2808064
:1003F0000E3A00F00981521F59D0093A78D0921E66
:1004000016D0521E35D0521E022A71D9121F30D07A
:10041000521F00F09880521E49D0521E00F0E28018
:10042000D21E00F0FF80921E41D0D21E3FD02DE19F
:1004300095F83A406C2C09D06869421C6A610A68D8
:100440000A6052F8043B0A60335429E10A680A60E2
:1004500052F8043B0A600093002201924FF0FF33F0
:100460002B636A46294600F098F9002840F118816C
:1004700003E195F83A000122FFF76DFFC5E900019D
:10048000002904D56869411C69612D220DE0288F7F
:10049000810704D56869411C69612B2205E0C0070A
:1004A00021D56869411C6961202232541BE095F80E
:1004B0003A000022FFF74FFFC5E9000195F8380028
:1004C000010710D5D5E90023002B08BF002A0AD068
:1004D00044F02000782806D1686930213154401C4E
:1004E000421C6A613454214668693044E86087E000
:1004F0000868C01D20F007000860D0E9002308301C
:100500000860C5E90023D5E90001C80F04D0686977
:10051000411C69612D220DE0288F810704D568698F
:10052000411C69612B2205E0C00704D56869411CA4
:1005300069612022325468693044E86021462846C7
:1005400000F036FAACE005F13A02507820B14FF0F5
:10055000FF340FF6043074E01078622808D0682861
:1005600024D06A2812D06C282ED071280ED02BE00F
:100570000A680A6052F8040B0A6020B94FF0FF3491
:100580000FF6EC205DE0E96A017089E00A680A6014
:1005900052F8040B0A6020B94FF0FF340FF6D02058
:1005A0004FE0EA6AD317C0E9002379E00A680A60DD
:1005B00052F8040B0A6020B94FF0FF340FF6B02058
:1005C0003FE0E96A01806BE00A680A6052F8040BB8
:1005D0000A6020B94FF0FF340FF6942031E0E96A49
:1005E00001605DE00A680A6052F8040B0A600021AD
:1005F00020F0000221F0FF33C5E90023EE607821EE
:10060000284600F02DF94BE06C2285F83A200B6863
:100610000B6053F8042B0B6052BB4FF0FF340FF606
:1006200084200EE095F83A206C2AF0D00868086023
:1006300050F8044B0860EC603CB94FF0FF340FF603
:10064000482000F0EBFD201A76BD2E6B002E04D55D
:10065000204600F003FE044608E032460021204612
:1006600000F026FE002814BF041B3446AC6117E0DE
:10067000294600F092F8002812D54FF0FF3076BDE1
:100680006869411C69612522325409E06969481C86
:10069000686125227254210002D0431C6B613454DE
:1006A000002076BD2DE9F0410E4605469046726B5E
:1006B0007069316AB46A121AB069521A716A121AF0
:1006C000F069521A121A96F83800141B41070DD41B
:1006D000002C0BDD2746B0682021A8470028B06019
:1006E00057D0F06A401C7F1EF062F4D17369424615
:1006F0003146284600F098FC00284AD1376A002F7E
:100700000ADDB0683021A8470028B06041D0F06A07
:10071000401C7F1EF062F4D1B369F268314628466E
:1007200000F082FCA8BB776A002F09DDB068302199
:10073000A847B06068B3F06A401C7F1EF062F5D134
:10074000F068B169F36942183146284600F06CFC44
:10075000F8B9B76A002F09DDB0683021A847B0604A
:10076000B8B1F06A401C7F1EF062F5D196F83800EF
:1007700041070BD5002C09DDB0682021A847B060E7
:1007800038B1F06A401C641EF062F5D10020BDE86B
:10079000F0814FF0FF30BDE8F0812DE9F8470D46BC
:1007A000A3B02F6B002F0646904648BF6FF000475E
:1007B0000FF60C1400F0A8FDD4E90023696B401873
:1007C000CDE90123812828BF4FF0FF3042D2002419
:1007D000002F33DDD8F8001001AA684600F0EEFCC7
:1007E0008146B9F1000F38D4D8F8000010B9B9F13A
:1007F000010932D44F4521DB6869484481280AD376
:100800000021696303AA29463046FFF74BFF040025
:1008100014D40020686103ABD5F814A04A46694699
:1008200003EB0A0000F082FDCA44C5F814A058F892
:10083000040B002818BFA7EB0907C9D14CB903AABC
:1008400029463046FFF72EFF044614B900206861A0
:100850006863204624B0BDE8F0874FF0FF34F8E726
:100860002DE9FC4307466F293E6908BF082405D0DF
:1008700041F02000782814BF0A2410243C25D7E931
:100880000023642918BF69299046994605D1002B99
:1008900003D5D8F1000869EB4909B9F1000F08BF89
:1008A000B8F1000F1FD1386BE8B9082C4CD197F87C
:1008B0003800010748D530203B2586F83B0043E04F
:1008C00000280ED597F8380000F01400102808D141
:1008D0007B6B7969386A5B1A1B1A9A1A002AC8BF9F
:1008E0003A62BDE8F3838DF800104046494622463F
:1008F000E31700F06FFD3032D0B26D1E3A2801953B
:1009000004DB9DF80000A0F151018A1872554046A1
:1009100049462246E31700F05DFD80465FEA010983
:1009200008BFB8F1000F03D0F86871198842DCD312
:10093000082C09D197F83800010705D5705D3028DB
:1009400002D06D1E30207055C5F13C02BA6171199C
:10095000F960386B8242B3DA821A3A624FF6EF706E
:10096000398F01403987BDE8F3832DE9D04306462E
:100970000F4614464FF00008DFF8109412E0E0072D
:1009800007D542464B463046394600F0A7FD06469D
:100990000F464046494642464B4600F09FFD6410D4
:1009A00080468946002CEAD130463946BDE8D083DE
:1009B0002DE9F84F05468A464AF020048EB0D5E965
:1009C0000089612C02AE09D0286B002848BF0620A0
:1009D00003D408BF672C01D101202863D5E90001A9
:1009E0004A005215521C0DD10B030BD0AAF1610124
:1009F00003201A29A86102D20FF2CC6110E00FF295
:100A0000CC610DE04A005215521C0ED10B030CD1E3
:100A1000AAF1610103201A29A86116D30FF2B4616B
:100A2000E868032200F082FCC0E1CDE90C01DDE9B9
:100A30000C2323F00043B3F5801F0DD20027002BB9
:100A400008BF002A019703D111E00FF28461E7E7A4
:100A500001AA00F015FE0AE0CD48CE4900EB135084
:100A6000DDE90C2301900B40CB4910461943C5E941
:100A70000001612C0DD1E86830210170821CBAF1AF
:100A8000610FEA600CBF7821582141706869801CB1
:100A90006861D5E90001CDE90C01DDE90C2333F0F3
:100AA000004104BF0028002300F04881612C40F081
:100AB000A080286B494600284CBF4FF0210B00F165
:100AC000010B404600220023DDE90C8900F010FEF6
:100AD00001990BF1010738BF89F00049091F002F68
:100AE00001918DF808200DF1090040F33581A949E5
:100AF00000910646404649460022002300F010FEC1
:100B000080F029814800400D00F11C0211D0002A1C
:100B10000FDD40F2FF739A4205DBA04909F0004067
:100B20000143002011E0009B194041EA0251404678
:100B30000BE028F0000039F0004108BF00280FBF8B
:100B400049461C22494600F003FE8046894600F0D3
:100B50009DFEFF1F002F044609DD00F0B5FE024692
:100B60000B464046494600F0C1FE80468946F01DCE
:100B7000072104E004F00F0200F8012D2411002CDD
:100B800001DD491EF6D5491E5CBF002200F8012D8B
:100B9000F9D5DCE00020194602AA0A4400E05B1EF9
:100BA00012F80149491E8442F9D00F2804D10DF1F1
:100BB0000900425C521C4254002904D50198001DD2
:100BC00002AE5B1C0190581E0CD43118AAF13A04F5
:100BD0000A783032D7B23A2FA8BFA218401E01F8C7
:100BE0000129F5D5286B002840F1A780591E2963FB
:100BF000A3E001996A4A47F29750414391FBF2F210
:100C0000019229F00046D2F1070204DD4046314648
:100C1000FFF7ABFE0AE0524200206249FFF7A5FE53
:100C200002460B464046314600F0D2FE8046662C16
:100C3000286B06BF019F0A3706273F18142FC8BF2D
:100C4000142730208DF8080089460DF1090000E0D6
:100C50003046002F34DD06464046494600F0DCFFB2
:100C600001460A4606F1080304200A26B2FBF6F6FE
:100C700006EB860EA2EB4E02303203F8012C0A225C
:100C8000B6FBF2F202EB820EA6EB4E063036401EA9
:100C900003F8026DE9D1083F002F03F10806D7DD04
:100CA000084600F0CDFF02460B464046494600F09C
:100CB0001DFE00223C4B00F011FC80468946CBE72C
:100CC0000DF10901401A0DF1090604E00199491ED0
:100CD000401E0191761C31783029F7D0662C02D164
:100CE0000199491C03E0652C0CBF012100212B6BED
:100CF000CB189842B8BF431E002B1ED4834204DA9F
:100D0000F05C3528A8BF392000DA30201946721E61
:100D100002EB010800E05B1E18F80199491E8145AD
:100D2000F9D0392802D1705C401C7054002904D5D8
:100D30000198401C16465B1C0190019800B200907F
:100D40001BB232465146284600F034F82EE0C61D4C
:100D5000002F3FF7CFAE30460DF10901401A034690
:100D60005845C8BF5B46002B0DF109063FF53AAF69
:100D70008342BFF60FAF0DF10900C15C07297FF771
:100D800009AF0F2007E70000CBCCCC0C00002440BB
:100D900002FCFFFFFFFF0F800000E03F0000F07F3C
:100DA000A08601000000F03F84D797410FB0BDE856
:100DB000F08F00002DE9F84783B006468A461746B3
:100DC000984600F0FDF9B8F1000F406A356B90F8D5
:100DD000009002DC4FF00108BFA74AF02000BDF9E7
:100DE0003040662808BF641C15D0672840F0848016
:100DF00014F1040FC0F28680AC4280F2838096F832
:100E00003800641C010702D4A845B8BF454620B28B
:100E10002D1A48BF00250FFA84FAF068B169BAF1BB
:100E2000000F25DC4A1C30234354002D03DC96F8C8
:100E30003800010703D5F06800F80290521C15EB4A
:100E40000A0FB8BF6C4220B2441941424445B8BFB2
:100E5000A046B26171620FFA88F5F561F068B36976
:100E60002A463946184400F061FA641BB462C4E0B3
:100E700022B29045084417DA4246394600F056FA45
:100E8000B0694044B061AAEB0801002D716203DC37
:100E900096F838100A0705D5F16801F80090F06956
:100EA000401CF061B562A8E0394600F03FFAB06935
:100EB000002D5044A8EB040803DC96F838100A070C
:100EC00003D5F16801F80090401CB0610FFA88F07A
:100ED0008542F368B069B8BFA8460FFA88F207EBFD
:100EE0000A01184400F022FAB1690FFA88F00144AF
:100EF000B161281A706280E0BAF1610F14D14FF02D
:100F0000700A16E0A84504DA96F838100A0758BFA8
:100F100045466D1E48BF0025BAF1670F14BF4FF05C
:100F2000450A4FF0650A04E0BAF1410F08BF4FF0DF
:100F3000500AB169F368481CB061002D17F8012B05
:100F40005A5403DC96F838100A071BD5F168431C85
:100F5000B36101F80090002D14DDA8F101080FFA2B
:100F600088F039468542F768B8BFA8460FFA88F27C
:100F7000F81800F0DBF9B0690FFA88F108446D1A2F
:100F8000B0617562F068B1690844002C80F800A077
:100F900003D42B224270811C03E02D214170644256
:100FA000811C00206A460AE023460A2493FBF4F4DD
:100FB00004EB8405A3EB450302F8013B401C24B27B
:100FC000002CF1DC012806DC4AF02002652A04BF6F
:100FD000302201F8012B48B9302001F8010B07E05D
:100FE000401E1DF80030303301F8013B0028F7DCCB
:100FF000F268B0691044091AF16196F8380000F0FF
:10100000140010280DD17269B169706A8A18F169EB
:101010008218B06A8A188218706B8242BCBF821A2A
:10102000326204B0BDE8F087F8B505460E461746B3
:101030001C46002074B117F8011BB068A847B060C7
:1010400030B1F06A401CF0620020641EF3D1F2BDA2
:101050004FF0FF30F2BD00007072696E74665F730E
:101060003A20256E20646973616C6C6F776564004B
:101070007072696E74663A2062616420256E206128
:101080007267756D656E74007072696E74665F73F9
:101090003A2062616420257320617267756D656E08
:1010A000740000007072696E74665F733A2062614A
:1010B0006420256C7320617267756D656E74000025
:1010C00000000000000000006E616E004E414E0006
:1010D000696E6600494E46003000F0B40246106862
:1010E00095681318506803EB5004C0071DD54D4494
:1010F0001BE013F8017B05F8017B491EF9D1A0B173
:10110000B60813F8011B06F00306032E08BF13F8F8
:10111000016B01EB06214942801C294405D011F8DE
:10112000016B05F8016B401EF9D1A3420ED013F8F4
:10113000016B16F0030104BF13F8011BC91C300931
:101140000F28DAD113F8010B0F30D6E7F0BC02F10B
:101150000C0070471B48704770B45368D418042BB8
:1011600009DA41B1057804F8015B10F8016B16B19A
:101170005B1C491EF3E7536070BC704738B51446DA
:101180001D4661B1FFF7E8FF61686A6B2046904732
:101190006FF00102811A02D0491E01D001E003E084
:1011A00005E00021616032BD6FF0010032BD4FF0FB
:1011B000FF3032BDDA6B1047024BDFE7014BF9E736
:1011C000014870477003002038030020C9B202783C
:1011D0008A421AB11CBF10F8012FF9E718BF00208E
:1011E000704730B4002513E050F8042BD30744BFF8
:1011F000A9F101039A18091F042942F8045BFAD2E5
:1012000013468C0744BF15809B1CC90748BF1D703F
:1012100050F8041B0029E7D130BC704780B500B9F5
:1012200006A005490B681BB122220021984701E066
:1012300000F013FD222002BDA8040020636F6E732E
:10124000747261696E742068616E646C65723A20B4
:10125000626164206D6573736167650000F101036D
:10126000810704D010F8011B820781B1FAD102680E
:10127000A2F10131914311F0803104BF50F8042FE5
:10128000F6E709BAB1FA81F100EBD100401CC01AAF
:101290007047B1F5807F02D34FF0FF307047017087
:1012A000012070470078401E8041C043C00F704746
:1012B000C9B2830706D0521E22D310F8013B9942CF
:1012C000F7D11FE0083A13D302F1040241EA0121E9
:1012D00041EA014150F8043B121F21BF4B40A3F1EA
:1012E000013C2CEA030C1CF0803FF3D0C9B2001F74
:1012F000083210F8013B521E28BF91EA030FF8D8BC
:1013000018BF0120401E704780B5FFF723FF006C17
:1013100002BD8268521C8260426832B10268531C6E
:10132000036011704168491E4160704762B38B07CA
:1013300008D0521E11F8013B00F8013B00F0248058
:101340008B07F6D1830740F0208000BF103A07D307
:1013500030B4B1E83810103AA0E83810F9D230BCF7
:10136000530724BFB1E80810A0E8081044BF51F8A3
:10137000043B40F8043BD20724BF31F8022B20F88D
:10138000022B44BF0B7803707047121F17D35B000A
:1013900009D151F8043B20F8023B1B0C121F20F826
:1013A000023BF6D20BE051F8043B00F8013B1B0A6C
:1013B00020F8023B1B0C121F00F8013BF3D238BF90
:1013C000121D521E24BF11F8013B00F8013BF8D852
:1013D00070470000D3BBD9B1B2F5803F5BD2022A7F
:1013E0001ED98C46B1FBF2F102FB11C31B0443EA88
:1013F0001043B3FBF2FC02FB1C3380B240EA034310
:10140000B3FBF2F002FB103240EA0C4000237047BD
:10141000022A05D98446B0FBF2F002FB10C27047E5
:101420004AB105D100F0010249085FEA3000704777
:1014300000220023704700F013BC0B0002000021C3
:1014400000207047F7D3002200237047904271EBD1
:10145000030CF2D370B5B1FA81F4B3FA83F52C1B07
:10146000A340C4F1200532FA05F63343A2405FF0F1
:101470000046E64002E05B085FEA3202841A71EB44
:10148000030524BF204629467641F4D302000B0011
:101490003000002170BD70B5B1FA81F4B2FA82F566
:1014A000C4F120046419B4F12006DAD3B2405FF02D
:1014B0000044F440002502E052085FEA3303C61AF4
:1014C00071EB020E24BF3046714664416D41F3D387
:1014D00002000B002000290070BD0000B0B581EAB9
:1014E000030C0CF0004C40F2FF7515EA11541DBFBF
:1014F00015EA1357AC42AF4239E0E41923EA4553E9
:1015000043F48013C90241F0004141EA505EC70232
:101510001100A7FB020200284FF00000EEFB0120A3
:101520004FF00001E3FB072118BF42F00102401811
:1015300000214941E3FB0E01A4F580640F0302D2B0
:1015400052004041494154F101046CDD470872F1F9
:10155000004250F1000051EB0451A1F580115CBF35
:1015600041EA0C01B0BD4CEA05510020B0BD05EACE
:101570001357AC4214BFAF4241E050EA410E1CBFCA
:1015800052EA430E02E061460020B0BD24423C44D2
:101590001BD15FEA070EF6D0090302BF0146002007
:1015A000AEF1140EB1FA81F7AEEB070401FA07FEB3
:1015B0000C37C7F1200100FA07F7C8404EEA000EC9
:1015C00023EA455343F48013A2E733F00043B3FA10
:1015D00083F704BFB2FA82FE77440B3FE41BB7F1F6
:1015E000200E2FBF02FA0EF3BB40C7F1200E22FAE5
:1015F0000EFE38BF43EA0E03BA40641C82E750EA8D
:10160000410E14BF52EA430E6FF000014FF4001771
:1016100017EB430F8ABF194617EB410FB5E74CEAAA
:1016200005510020B0BDD4F10104B4F120070FDA58
:10163000C4F12007520828BF42F0010210FA07F552
:1016400001FA07F7E1BF2A43E0403843E1400FE0E9
:10165000352C98DCC7F1200452EA400220FA07F248
:1016600018BF42F0010231FA07F0A1400A430021FD
:1016700072F1004250F1000051EB0C01B0BD0000CE
:1016800010B5144600F002F8226010BDC1F30A53F1
:1016900043B14A0012F5001F28D2A3F2FE32A1EB9B
:1016A0000251704750EA410C20D001F0004C31EA61
:1016B0000C01B1FA81F204BFB0FA80F3D2180B3AF0
:1016C000B2F120032CBF00FA03F1914041EA0C0172
:1016D0003EBFC2F1200C20FA0CF319439040524255
:1016E00040F2FD33D21A01EB0351704700227047DC
:1016F0004FF4001C1CEB410F94BF1CEB430F09E09F
:1017000041EA030C50EA4C0C52EA0C0C03D2994209
:1017100008BF9042704714BF8B428242704700005E
:101720004FF4001C1CEB410F94BF1CEB430F09E06E
:1017300041EA030C50EA4C0C52EA0C0C03D28B42E7
:1017400008BF8242704714BF994290427047000020
:10175000124254D440F2FF7C1CEA11530FD063456F
:1017600031D09B1863453CBF01EB0251704701F03B
:10177000004141EA0C510020AFF30080704750EA6D
:10178000410320D001F0004C91EA0C011CD0B1FAC9
:1017900081F30B3B9A420DD9D21A994051EA0C01C0
:1017A000C3F1200C20FA0CFC61449840531C40F219
:1017B000FF7CD7E7914041EA0C01C2F1200C20FAEE
:1017C0000CF3194390407047B0FA80F31533202B87
:1017D000E0D3202AEED3203A203B9A4209D9D21AEC
:1017E00000FA03F141EA0C010020531C40F2FF7C97
:1017F000B8E700FA02F141EA0C01002070475242BA
:1018000040F2FF7C1CEA11530DD06345DBD0B2EBF4
:10181000030C3CBFA1EB025170470CF1010221EA1D
:10182000035141F4801150EA410CCCD001F0004C3E
:10183000352A27DC30B481EA0C01B2F1200309DA41
:10184000C2F12003044601FA03F5D0402843D140F9
:101850009C400CE0C3F12002450020FA03F418BFBD
:1018600044F0010421FA03F091400C43002174F18B
:10187000004550F1000051EB0C01244230BC7FF4D4
:101880007BAF70476146002076E70000C1F30A5342
:1018900040F2FE329B1A14DDD3F120034FEAE172CD
:1018A00008DDC90241EA505141F00040D84080189B
:1018B0005040704703F2E13010B1D24382F0004053
:1018C0007047002070470000C11768B14840401AB7
:1018D000B0FA80F29040D21CC907C2F5846241EA96
:1018E000025202EBD02140057047000070B44FF067
:1018F000004591EA030F40F1B5816B40841A71EB0A
:10190000030603D2001BB141121973414FF4001CAE
:101910001CEB410F34BF7CEB430442E00C0DA4EB05
:101920001356352E4FDC45EAC323DB0A45EAC121B5
:10193000C912B6F120050DDD63FA05F6EB4086EA23
:101940000305124218BF45F00105C01851F100010E
:101950000CD213E062FA06F5F2405540F3415A40CA
:10196000B340F3405A408018594107D349085FEA11
:1019700030005FEA350528BF45F0010501F580110B
:10198000420875F1004250F1000041EB04514E0055
:1019900016F5001F70BC38BF70470020090D0905FF
:1019A00070471CEB410F10D252EA43060BD0BCEB40
:1019B000410F05D80C0DAB43661E342EB6DD02E098
:1019C000AB438018594170BC704770BC7047000031
:1019D000F0B540F2FF7581EA030C0CF0004C15EAFB
:1019E00011541DBF15EA1357AC42AF42E5E0BC41AC
:1019F000C1F31301C3F31303801A994143F4801315
:101A000004D2641E4000494180185941C90241EA8C
:101A10005051B1FBF3F603FB1611A2FB0675D7EB91
:101A2000C020A94102D2761E80185941C90241EA5C
:101A30005051B1FBF3FE03FB1E11A2FB0E75D7EB59
:101A4000C020A94103D2AEF1010E8018594189028C
:101A500041EA9051760546EA8E2EB1FBF3F603FB80
:101A60001611A2FB0675D7EB8020A94102D2761E83
:101A700080185941C90241EA50514EEA060EB1FBA5
:101A8000F3F603FB1611A2FB0675D7EBC020A941A4
:101A900002D2761E80185941C90241EA5051B1FB69
:101AA000F3F703FB1711A2FB0735D3EBC020A941C5
:101AB00067F100070CBF004247F0010766F3D52726
:101AC0004FEA1E31B80814F5806412DDBD0775F1C8
:101AD000004250EB0E5051EB045111F5801F5CBFDA
:101AE00041EA0C01F0BD4CF07F6141F0E041002083
:101AF000F0BDBD076D0840EA0E5041F48011D4F1ED
:101B00000104B4F120060ADAC4F120060200E04024
:101B100001FA06F3E1401843B24015430EE0342CBD
:101B200013DCC6F1200445EA40056D0820FA06F2F0
:101B3000154321FA06F0A1400D43002175F1004242
:101B400050F1000051EB0C01F0BD00205FEA0C01E8
:101B5000F0BDCFB992185B41B3FA83F704BFB2FA74
:101B600082F6BF190B3FB7F120062FBF02FA06F32A
:101B7000BB40C7F1200622FA06F638BF3343BA400D
:101B80001CB1E419641E33E77F4231F00041B1FA21
:101B900081F404BFB0FA80F6A4190B3CB4F120061E
:101BA0002FBF00FA06F1A140C4F1200620FA06F684
:101BB00038BF3143A0403C1B1AE7AC421ABF05EACC
:101BC0001357AF4212E050EA41061CBF52EA4306E7
:101BD000BFE750EA4107304661461CBF41EA055164
:101BE000F0BD52EA430C08BFC143F0BD00204FF4E2
:101BF000001616EB410F98BF16EB430F08BF16EB0C
:101C0000410F24BFC14305E016EB430F0CBF6146F3
:101C10004CEA0551F0BD0000400D491840EA812012
:101C20000CD2490DA1F58061491C40F0004005DB54
:101C3000D1F11F0154BFC840C01770470020704742
:101C4000014648B1B0FA80F18840C91CC1F58461F1
:101C5000090501EBD02140057047012000F0B8B81C
:101C600070470000841A71EB030604D26E40001B1B
:101C7000B141121973414FF4001C1CEB410F34BFEA
:101C80007CEB430683E00C0DA4EB1356362E00F3D9
:101C90007C80012E45EAC32341DC43EA525312BF44
:101CA000D20292025B08240545EAC12141EA505163
:101CB000D2EBC020994125D407D1B0FA80F610FAB2
:101CC00006F162D00020203608E0B1FA81F6B1407A
:101CD000C6F1200220FA02F21143B0404FEAF47438
:101CE000B4EB465434F001064FEA74040AD8D6F532
:101CF0000016760D04F00044F04061FA06F2504000
:101D0000F1404840C00A40EA415021F0004128BF5C
:101D10005FEA500550F1000044EBD12135E0DB0AC9
:101D200045EAC121C90AB6F120050EDD42EA0242A8
:101D3000120CC5F1200603FA06F6EB4042EA06054E
:101D40006D42984161F100010DE062FA06F5F24042
:101D5000554063FA06FC82EA0C02F3405A406D4299
:101D6000904161EB030111F4801F05D1641E6205EF
:101D700002D06D004041494121F48011430875F1C2
:101D8000004350F1000041EB045170BC70471CEB64
:101D9000410F15D223F0004352EA43060BD04FEA1D
:101DA0004C0CBCEB410F04D80C0D661E342EB7DD75
:101DB000EBE7801A994150EA410608BF0021E4E7A9
:101DC00008BF1CEB430F28BF6FF00001DDE70000E8
:101DD00080B5AFF30080024A11001820ABBEFBE7CC
:101DE00026000200F8B5040025D004F13C0569780E
:101DF00021B900202870204600F038FC24216970A9
:101E0000206802685208520002602068016841F4AC
:101E1000004101602068026822F40042026000F084
:101E2000ADFC01466068DFF87023904205D2DFF810
:101E3000AC33994205D20120F2BDDFF8A403814200
:101E4000F9D32068DFF89C334668B1FBF3F3B60999
:101E500043EA861646602668376A6068904206D371
:101E60004FF4967043434FF47A70B3FBF0F35B1C6E
:101E7000BF0943EA87133362491E2368DE69676836
:101E8000974206D27F0000F043F8042913D20421C0
:101E900011E0A06820B907EB470700F039F805E02A
:101EA0001920474300F034F841F4804108050CBF85
:101EB000012141F40041DFF8300306400E43DE61AA
:101EC00022681368E169206A23F0C0030B430343CF
:101ED00013602268DFF81403936821690340E06807
:101EE0000B43034393602168CA68A3696069120ABF
:101EF000034343EA0222CA602068016841F00101FD
:101F0000016000206860202169702063A870F2BD24
:101F1000B1FBF7F1491CC1F30B01704738B5040060
:101F200001D1012032BD04F13C052420687000F08D
:101F3000E4F900F073FC0020686068702063A8700A
:101F4000287032BD308D7262411E3185708D411E08
:101F5000718570474146204600F000BB2DE9FC47E3
:101F600000F082F800F07AF855D100F06FF8002800
:101F700051D1387801284ED000F062F801D400F039
:101F800099F94146D6F800E00C9D0B98DDF828C081
:101F9000DEF8008028F40068CEF800804FF0210EB3
:101FA00087F801E04FF0400887F802804FF0000EFC
:101FB000C7F804E000F005F900F0B1F9002825D1D8
:101FC00008E0716A0A780261706A411C7162308DA2
:101FD000FFF7BAFF308D88B100F02DF888B900F016
:101FE0001DF8308D411E3185708D421E728530681E
:101FF00042695307EED589B20029E2D100F016F804
:1020000030B17868042801D100F03BFA012003E0E8
:1020100000F030F800E00220BDE8F687706A326810
:1020200001781161706A411C71627047224629462D
:10203000304600F0BDBA22462946304600F08EBA3E
:102040000121397030680268D10770470094192364
:102050000122DFF87C12304600F01CBA06F13C0782
:1020600004467878202870470646884691469A4666
:1020700000F0D6BB3068016841F400710160202097
:1020800078700021B9700020387070472DE9FC4746
:10209000FFF7EAFFFFF7E2FF72D1FFF7D7FF002853
:1020A0006ED1387801286BD0FFF7CAFF01D400F059
:1020B00001F94146D6F800E00C9D0B98DDF828C0E8
:1020C000DEF8008028F40068CEF800804FF0220E81
:1020D00087F801E04FF0400887F802804FF0000ECB
:1020E000C7F804E000F06DF800F05CF9002840D17A
:1020F000308D18B1012804D100F0A7F800F04EF897
:1021000017E0022807D1306800F09AF800F070F864
:102110000020009001E000210091316800F0E7F814
:1021200007E000F088F8002823D100F067F8FFF7F7
:1021300009FF308D002826D0042817D20128F0D0BE
:1021400000F024F80AD100F071F8002811D100F055
:1021500083F8716A0870706A421CE8E700F066F85C
:10216000002806D100F08DF818B9F0E700F063F808
:1021700008B1012005E000F048F8DAD50069E8E789
:102180000220BDE8F68700F015F8FAE70228DFF82C
:10219000508100942B467047A18601000090316861
:1021A0004A6900928B69009300980A6842F40072B1
:1021B0000A607047202078700021B97000203870C4
:1021C0007047C6F824C070855346708D30854A46E6
:1021D0003B48F062019400953046704780841E00B1
:1021E00000093D0040420F000030FFFF007CFFFF70
:1021F0003068026842F4006202607047306801692A
:10220000706A0170716A4A1C704730680169706AAF
:102210000170716A308D4A1C411E72623185708D69
:10222000411E7185306841694A0770470022414666
:10223000304600F02FB922462946304600F0D4B986
:10224000016821F48061016070473068016821F401
:1022500080610160002070473068016841F40071BE
:10226000016030680169706A0170716A308D4A1CC2
:10227000411E72623185708D411E71853268106910
:1022800070473068016821F4806101602B46306836
:102290000169706A0170716A308D4A1C411E726258
:1022A00031850022708D411E718500944146304673
:1022B00000F0F0B8026842F00102026070470000CE
:1022C0000000FFFF3068016841F4807101607047D1
:1022D00002001000016841F4806101607047000055
:1022E0000400010090F83D007047006C70474A6997
:1022F0000092896900910098704720680168490838
:102300004900016020467047434600224FF001110A
:102310002046BFE04B46424651462046E2E02DE9CA
:10232000F84304462068DDF82080099F894601684B
:1023300041F4807115461E4601600097FFF7E4FFE7
:1023400040B120680168CA0544BF4FF400702064A2
:10235000032025E0206809F0FE0101613B4642466A
:102360004B49FFF7DAFFA8B90090216800F07AF82E
:10237000FFF7F1FD40B9012E0ED02168280A08614F
:102380003A46FFF7E7FD38B1206C042802D12068F7
:1023900000F078F8012003E02068EDB2056100202C
:1023A000BDE8F2832DE9F84F05462868DDF828805E
:1023B0000B9F0C46FFF78EFF16462868016841F414
:1023C00080719946016000F055F800284FF4007ABA
:1023D0002CD12968DFF8B8B004F0FE00086100F0E5
:1023E00038F8002832D10090296800F03BF800F05E
:1023F00037F870B9B9F1010F05D02968300A0861C2
:1024000000F02CF828B92868F6B2066100F026F82A
:1024100030B1286C042819D1286800F033F815E091
:102420002868FFF750FF00F025F838B128680168E8
:10243000CA0548BFC5F840A0032008E0286844F05A
:102440000104E4B2046100F004F800B10120BDE829
:10245000F28F3B4642465946284643E03A464146BB
:1024600028467BE04A6900923A46896900914146D4
:10247000009870470097434600224FF0011128460C
:1024800008E03068016841F40071016070470000A5
:10249000020001002DE9F041069F05460E469046D8
:1024A0001C4631022868090E01290CBF4069806969
:1024B000304080B2B1B288420CBF012000204045BC
:1024C0000DD114F1010FECD000F0AAF9C01B844229
:1024D00001D3002CE5D100F05DF8012000E00020E0
:1024E000BDE8F081F8B505460E4614461F46310298
:1024F000090E286801291BD14169314089B2B2B265
:1025000091421BD041694A051AD5FFF7BBFF6FF412
:1025100080602A685061002105F13C002963202277
:1025200042708170426842F004024260017013E020
:102530008169314089B2B2B29142E3D10020F2BD4B
:1025400014F1010FD3D000F06BF9C01B844201D30A
:10255000002CCCD100F01EF80120F2BD70B505466C
:102560000C46164628684169080611D4284600F032
:1025700067F858B914F1010FF4D000F051F9801B3D
:10258000844201D3002CEDD100F004F8012070BD8D
:10259000002070BD00202863202105F13C000022AE
:1025A00041708270416841F02001416002707047C3
:1025B00070B505460C46164628684169480711D48F
:1025C000284600F03DF858B914F1010FF4D000F09E
:1025D00027F9801B844201D3002CEDD1FFF7DAFFED
:1025E000012070BD002070BD70B505460C46164632
:1025F000286841694A0617D44169CA060BD400F01D
:102600000FF9801B844201D3002CF1D100F00EF8A9
:1026100041F0200104E06FF01001416100F006F884
:1026200041600270012070BD002070BD0020286351
:10263000202105F13C000022417082704168704702
:1026400001684A6953050FD56FF480624A61002121
:1026500001633C30202242708170426842F00402E3
:1026600042600170012070470020704770470000F1
:102670002DE9F04104000F4678D0494E306800F053
:102680000F00B84202D200F073F86FD12068454DB8
:10269000810712D5400703D5A96841F4E051A9602C
:1026A0002078010703D5A86840F46040A860A968B5
:1026B000A06821F0F0010143A9602178C8074DD539
:1026C0006068012802D129688A0305E0022818BF42
:1026D000032803D129688A0103D447E029688A07BF
:1026E00044D5A968890840EA8100A86000F098F8FC
:1026F0008046A868616800F00C00B0EB810F2DD017
:1027000000F08EF8A0EB080041F289318842F0D346
:10271000032021E02078410705D5AA68E06822F46B
:10272000E0520243AA602178080706D5A96820690B
:1027300021F4604141EAC001A96000F03FF8AA68B5
:1027400019491A4BC2F30312895CC8401860184833
:10275000006800F06BF80020BDE8F081306800F000
:102760000F008742D6D200F003F8D3D00120F3E760
:102770003770316801F00F01B94270470B480D4ABC
:10278000006813680C49C3F3822206E00748094A2F
:10279000006813680849C3F34232895CC840704737
:1027A000003C024000380240CC5C000834030020AA
:1027B000D802002008380240B85D000830B5144C3B
:1027C000606800F00C00042802D0082802D01DE048
:1027D000104830BD226820680023410202F03F0209
:1027E00004D525680B49C5F3881003E020680A4921
:1027F000C0F38810A1FB0001FEF7ECFD2168C1F3D6
:102800000141491C4900B0FBF1F030BD024830BD28
:102810000438024000127A000024F40070470000DF
:1028200001484068704700BFD002002038B50D4D08
:102830000D4B2A7804464FF47A711868B1FBF2F216
:10284000B0FBF2F000F054F850B9102C08D200227E
:1028500021464FF0FF3000F023F8AC60002032BD7D
:10286000012032BDD0020020340300200901020003
:1028700002D4294881547047284B02F00F021A44B1
:1028800002F8041C7047264B19684FF6FF0200023D
:10289000114000F4E0600843224908431860704783
:1028A00038B51F4B1C68C4F30223C3F10704052C81
:1028B00028BF04241D1D072D34BF0023DB1E012566
:1028C00005FA04F4641E2140994005FA03F35B1EE7
:1028D0001A401143BDE83440C8E7010007D4012283
:1028E00000F01F01104B8A40400943F82020704738
:1028F00010B5401EB0F1807F01D3012010BD0B4CFC
:1029000060600F214FF0FF30FFF7B0FF0021A160A2
:1029100007202060002010BD00E400E018ED00E07A
:102920000CED00E00000FA0500E100E010E000E03E
:1029300070B5044600254FF0FF362CB308682060C0
:102940004A6862608868A0600A7B22730869206117
:102950004A6962618869DFF80816A06121626462D1
:10296000DFF80006E061206870B1804760B9A068B8
:10297000022804BF94F82800002806D10C22122156
:10298000204600F07FFB00B13546284670BD38B5C3
:10299000044600F089FB00F004FD002821D100F07E
:1029A00083FB00F0D3FC00281BD100F079FB00F082
:1029B00048FDB0B904F128050420E87000F06BF878
:1029C00078B900F06DFB00F0E3FB50B904202871EA
:1029D00000F0A3F928B9062104F11C0000F042FC24
:1029E00008B100F0A1BB01202870002032BD10B555
:1029F000044600F03DF818B9204600F07BF900B11C
:102A000033E004F128000021C17001710170002041
:102A100010BD80B51C3000F0B8FC00F03DBB0000DC
:102A20000120087048700023102088604FF4FA627B
:102A30009FED4B0A00208B70CB704A60CB6081ED1C
:102A4000040A81ED050A8861704710B500F1290478
:102A50002178012907D0A1781C3000F0BCFB00B11F
:102A600003E001202070002010BD4FF0FF3010BDAA
:102A700010B5044694F8290060B104F12B0104F16B
:102A80001C0000F0BFFB10B900F005F800B1ECE746
:102A900084F8290010BD002104F11C0000F09BBB4C
:102AA00038B500F0E6F8002408B100F03DBB9DF811
:102AB0000000032811D8DFE800F0020C0508DFF859
:102AC000F01504E0DFF8EC0505E0DFF8EC1529600F
:102AD00005E0DFF8E805286001E04FF0FF3420460C
:102AE00032BD000038B50D4669461C3000F08AFB47
:102AF000002408B100F018BB9DF800000B282BD86B
:102B0000DFE800F0060B0E1114171A1D202327080A
:102B10002C6023E0DFF8A8051CE0DFF8A81516E01C
:102B2000DFF8A40516E0DFF8A41510E0DFF8A00533
:102B300010E0DFF8A0150AE0DFF89C050AE0DFF8F6
:102B40009C1504E0DFF8980504E0DFF8981529608B
:102B500004E00348286001E04FF0FF34204632BD16
:102B60000020D04580B500F1290100F0CFF933D124
:102B7000F1EE10FA48BF012127D400F0C2F948BF96
:102B8000022122D400F0B8F948BF03211DD400F07F
:102B9000A9F948BF042118D400F09FF948BF0521C6
:102BA00013D400F095F948BF06210ED400F08BF93C
:102BB00048BF072109D400F081F948BF082104D497
:102BC00000F095F94CBF09210A211C3000F003FBED
:102BD000002830D000F0C0BAF1EE10FA48BF012052
:102BE00027D400F08EF948BF022022D400F084F9E7
:102BF00048BF03201DD400F075F948BF042018D445
:102C000000F06BF948BF052013D400F061F948BF0C
:102C100006200ED400F057F948BF072009D400F071
:102C20004DF948BF082004D400F061F94CBF0920D9
:102C30000A208870002002BD38B500F01AF8002480
:102C400008B100F071BA9DF8000003280DD8DFE844
:102C500000F002090406022102E0042003E008213A
:102C6000296004E01020286001E04FF0FF34204686
:102C700032BD0D4669461C3000F094BA80B5032978
:102C8000B8BF002107DB0529B8BF022103DB0929F2
:102C9000B4BF032101211C3000F07AFAFCE11CB51D
:102CA0000C4669461C3000F06CFB00B1A7E1A9E1BD
:102CB0003EB5002204460D46009201A904F11C0015
:102CC00000F05FFB20B969462046FFF7E9FE00B13E
:102CD000B3E1B5E110B500F12A042178012907D04C
:102CE000A1781C3000F0E7FA00B1BEE601202070A8
:102CF000002010BD10B5044694F82A0060B104F11C
:102D00002C0104F11C0000F0F3FA10B900F005F8F2
:102D100000B1AAE684F82A0010BD002104F11C00CD
:102D200000F0C9BA38B500F043F9002408B100F04A
:102D3000FBB99DF80000062816D8DFE800F007046C
:102D40000A150D151100DFF8A0130BE0DFF89C0346
:102D500004E0DFF89C1305E0DFF89803286005E045
:102D6000DFF89413296001E04FF0FF34204632BDB4
:102D700038B50D4669461C3000F0BAFA002408B197
:102D800000F0D2B99DF800000A2829D8DFE800F049
:102D900006080B0E1114171A1D2024002C6021E0C8
:102DA000DFF8200316E0DFF8201317E0DFF81C033C
:102DB00010E0DFF81C1311E0DFF818030AE0DFF879
:102DC00018130BE0DFF8140304E0DFF8141305E038
:102DD000DFF81003286005E0DFF82013296001E028
:102DE0004FF0FF34204632BD80B500F12A0100F0DB
:102DF0008DF833D1F1EE10FA48BF012127D400F04D
:102E000080F848BF022122D400F076F848BF0321A1
:102E10001DD400F067F848BF042118D400F05DF815
:102E200048BF052113D400F053F848BF06210ED443
:102E300000F049F848BF072109D400F03FF848BF27
:102E4000082104D400F053F84CBF09210A211C309A
:102E500000F031FA002830D000F07EB9F1EE10FA1F
:102E600048BF012027D400F04CF848BF022022D4EC
:102E700000F042F848BF03201DD400F033F848BFEB
:102E8000042018D400F029F848BF052013D400F01E
:102E90001FF848BF06200ED400F015F848BF0720E1
:102EA00009D400F00BF848BF082004D400F01FF844
:102EB0004CBF09200A208870002002BDB4EE410AF0
:102EC000F1EE10FA7047B4EE610AF1EE10FA7047B5
:102ED000B4EE420AF1EE10FA7047B4EE620AF1EE77
:102EE00010FA7047B4EE430AF1EE10FA7047B4EEF0
:102EF000600AF1EE10FA7047B4EE630AF1EE10FAD0
:102F00007047B4EE440AF1EE10FA7047DFED0B4A59
:102F10000A78012ADFED0A0A9FED0A1ADFED0A1A84
:102F20009FED0A2ADFED0A2A9FED0A3ADFED0A3A01
:102F30009FED0A4AB4EE640A704700000100484160
:102F4000012050450180CF44014050440100D0434E
:102F5000010050430100D042010050420100D04125
:102F60005F3100086B31000838B500F021F800240B
:102F700008B100F0D9B89DF80000062814D8DFE8A1
:102F800000F0060408130B130F007D210AE0FA205D
:102F900004E04FF4FA7105E04FF47A70286005E020
:102FA0004FF4FA61296001E04FF0FF34204632BD52
:102FB0000D4669461C3000F061B980B57E29B8BF66
:102FC00001210FDBFB29B8BF00210BDB40F2F5121A
:102FD0009142B8BF022105DB40F2E9329142B4BF11
:102FE000042106211C3000F03DF955E01CB50C46CB
:102FF00069461C3000F0C1F900B100E002E04FF07A
:10300000FF3016BDBDF800002080BDF802106180C1
:10301000BDF80400A080002016BD3EB504460D4654
:1030200001A904F11C0000F0A8F920B96946204666
:10303000FFF778FE00B100E002E04FF0FF303EBD48
:10304000BDF9040000F010F8C5ED000ABDF9060056
:1030500000F00AF8C5ED010ABDF9080000F004F817
:10306000C5ED020A00203EBDDDED000A00EE100AAB
:10307000B8EEC00A60EE200AFDEEE00A704780B5A7
:10308000012306E004B501236A461C3000F07AF8FB
:1030900002E01C3000F070F808B14FF0FF3002BDC4
:1030A000002104F11C007047012104F11C0070474D
:1030B00023DB793D23DBF93D23DB793E23DBF93E3E
:1030C000CDCCCC3F000048410000D0410000504230
:1030D0000000D042000050430000D0430040504464
:1030E0000080CF440020504500008C4000000C417F
:1030F00000008C4100000C4200008C420020D045B2
:1031000080B50A0008BF002103D001291CBF022995
:1031100003211C3000F05BF9FFF7BEBF80B51C3007
:1031200000F01DF9FFF7B8BF4FF0FF3032BD80B59A
:103130000A000CBF0021012903D002290CBF032182
:1031400004211C3000F04CF9FFF7A6BF80B51C30FD
:1031500000F009F9FFF7A0BF4FF0FF3002BD10B536
:103160000446207B6469A04710BD10B50446207B4F
:103170002469A04710BD000010B50446A06864682B
:10318000A04710BD10B50446A0682468A04710BD34
:1031900038B500F030F818B900F02BF900F024F839
:1031A00032BD00001CB500F058F89DF800108908E9
:1031B00001F0030103290BD8DFE801F0020406083F
:1031C000002106E0012104E0022102E0032100E0E9
:1031D0000421217016BD38B500F00DF818B900F0C3
:1031E00073F800F001F832BD8DF8000001236A4643
:1031F00010212046C6E70D46044601236A461021E9
:10320000BAE700001CB500F028F89DF80010090985
:103210000B291FD8DFE801F006080A0C0E10121463
:1032200016181A1C002116E0012114E0022112E0F8
:10323000032110E004210EE005210CE006210AE044
:10324000072108E0082106E0092104E00A2102E044
:103250000B2100E00C21217016BD0C4601236A46AB
:10326000102189E738B500F03DF828B99DF8000035
:1032700065F3430000F02FF832BD00001CB500F0EC
:1032800060F89DF80010490801F0070106290FD8E1
:10329000DFE801F00406080E0A0E0C00002108E029
:1032A000012106E0022104E0042102E0062100E001
:1032B0000721217016BD38B500F014F818B900F0D8
:1032C00003F800F008F832BD9DF8000000F00F0090
:1032D00040EA051070478DF8000001236A4611216D
:1032E00020464FE70D46044601236A46112143E775
:1032F0001CB500F026F89DF8001009090A291DD810
:10330000DFE801F006080A0C0E10121416181A0055
:10331000002114E0012112E0022110E003210EE05F
:1033200004210CE005210AE0062108E0072106E05F
:10333000082104E0092102E00A2100E00B212170AC
:1033400016BD0C4601236A46112115E738B500F079
:1033500038F818B900F070F800F02CF832BD1CB540
:1033600000F006F815E01CB500F002F800F04CB8CB
:103370000C4601236A461E2170470A460623222175
:10338000FAE60A4606232821F6E60A4601230F211B
:10339000F2E6FFF7F1FE9DF8001001F00101217047
:1033A00016BD38B500F00DF818B900F035F800F08A
:1033B00001F832BD8DF8000001236A461221204633
:1033C000E0E60D46044601236A461221D4E638B5EC
:1033D00000F014F818B900F024F800F04AF832BDF3
:1033E00038B500F00BF818B900F003F800F041F818
:1033F00032BD9DF8000065F3830070470D4604461A
:1034000001236A461421B7E6FFF7B6FE9DF80010C7
:10341000C1F34001217016BD9DF8000065F38200E4
:1034200070479DF8000065F3010070479DF80000AB
:1034300065F30200704700009DF8000065F38610F8
:10344000704738B500F00EF818B9FFF7EFFF00F03D
:1034500001F832BD8DF8000001236A460A2120469A
:10346000FFF790BE0D46044601236A460A21FFF786
:1034700083BE8DF8000001236A4614212046FFF721
:1034800081BE000038B5044600256CB100F079FA21
:103490000FF27171A061216264620FF28170E061CC
:1034A000206808B1804718B14FF0FF35284632BD7B
:1034B000A068012804BF94F828000028F6D1012252
:1034C0002321204600F031FA0028EFD04FF0FF30E2
:1034D00032BD38B50446012104F11C0000F056FC51
:1034E00090B9002104F11C0000F00EFD60B904F158
:1034F00028050520A87000F055F828B9002104F12E
:103500001C0000F022FC00B1E0E701202870002040
:1035100032BD10B5044600F032F800B12CE004F1E1
:103520002800002181700170002010BD80B51C3082
:1035300000F09EFC5CE301200870002210204A701D
:103540008A70CA704A608860CA600020DFF89825D7
:1035500008614A618861704710B500F1290421783B
:10356000012907D061781C3000F0A7FB00B103E00F
:1035700001202070002010BD4FF0FF3010BD10B5AD
:10358000044694F8290060B104F12A0104F11C00FA
:1035900000F0ACFB10B900F005F800B1ECE784F8DE
:1035A000290010BD002104F11C0000F086BB0000C2
:1035B0007CB500F0A1F80024002848D19DF8010056
:1035C00018B102282DD017D342E000F045F80028AA
:1035D0003DD100F02DF93AD8DFE800F00B080502E4
:1035E000DFF8081531E0DFF808052AE0DFF80415F8
:1035F0002BE0DFF8040524E000F02EF8002826D1A7
:1036000000F016F923D8DFE800F002090603EAE724
:10361000DFF8E81419E0DFF8E80412E0DFF8E4145A
:1036200013E000F019F890B900F002F90FD8DFE8C4
:1036300000F0020A0603EEE7DFF8CC1405E0DFF83D
:10364000CC04286006E0DFF8C814296002E05BE0E3
:103650004FF0FF34204676BD694606F11C0000F0AD
:103660007FBB00007CB500F047F8002428B969460C
:1036700006F11C0000F03AFB00B145E09DF8011096
:103680009DF8000002290ED1092831D8DFE800F0AA
:103690001416191C1F2225280508DFF8780425E0D8
:1036A000DFF874141EE0092822D8DFE800F00507CF
:1036B0000A0D10131619211D2C601BE04FF07E51CE
:1036C00010E0DFF8580411E0DFF854140AE0DFF8E6
:1036D00054040BE0DFF8501404E0DFF8500405E078
:1036E000DFF80414296005E0DFF84404286001E0F5
:1036F0004FF0FF34204676BD06460D460DF1010120
:1037000006F11C0000F0BEBA4FF0FF3076BD00009D
:1037100080B500F129019FED333A0A78012ADFEDE7
:10372000320A9FED321ADFED321A9FEDBE2ADFED2D
:10373000BE2AB4EE430A2CD1F1EE10FA48BF0121A3
:1037400020D4B4EE620AF1EE10FA48BF022119D477
:10375000B4EE420AF1EE10FA48BF032112D4B4EEDF
:10376000610AF1EE10FA48BF04210BD4B4EE410A0D
:10377000F1EE10FA48BF052104D400F0DDF94CBF8A
:10378000062107211C3000F098FA50B34FF0FF30AB
:1037900002BDF1EE10FA48BF012020D4B4EE620A57
:1037A000F1EE10FA48BF022019D4B4EE420AF1EE4D
:1037B00010FA48BF032012D4B4EE610AF1EE10FAF9
:1037C00048BF04200BD4B4EE410AF1EE10FA48BF12
:1037D000052004D400F0B0F94CBF06200720487043
:1037E000002002BD0100803F010048430100C842A3
:1037F0000100484238B50D4669461C3000F0B0FA69
:10380000002400B162E600F013F80DD8DFE800F004
:1038100002040609022102E0042003E008212960D5
:1038200004E01020286001E04FF0FF34204632BD54
:103830009DF800000328704780B50329B8BF002118
:1038400007DB0529B8BF012103DB0929B4BF022129
:1038500003211C3000F079FACAE17FB505460C4619
:10386000694605F11C0000F00DFA98B99DF80000BA
:1038700018B102280BD008D30CE0102601A905F1DD
:103880001C0000F098FA40B104E04026F6E74FF43F
:103890008076F3E74FF0FF300FE0BDF9040090FBB6
:1038A000F6F02080BDF9061091FBF6F16180BDF9BC
:1038B000080090FBF6F0A080002004B070BD3EB57B
:1038C00000220D460092044601A9FFF7C6FF20B969
:1038D00069462046FFF76CFE10B14FF0FF303EBD49
:1038E000BDF9040000F010F8C5ED000ABDF90600AE
:1038F00000F00AF8C5ED010ABDF9080000F004F86F
:10390000C5ED020A00203EBDDDED000A00EE100A02
:10391000B8EEC00A60EE200AFDEEE00A704780B5FE
:1039200001231C3000F0A2F962E104B55BE180B52F
:103930001C3000F034FA5BE138B5044600256CB168
:1039400000F01FF80FF2ED21A061216264620FF216
:103950000130E061206808B1804718B14FF0FF35B1
:10396000284632BDA0680028FAD094F82800002824
:10397000F6D1012104F11C0000F0D2FA0028EFD0AA
:10398000A4E5086820604A6862608868A0600A7BD5
:103990002273086920614A6962618869704710B5BD
:1039A0000446012104F11C0000F050FA70B900F047
:1039B00013F858B9032104F11C0000F00BFA28B9E0
:1039C000002104F11C0000F06DFA00B1D4E50120E3
:1039D00084F82800002010BD022104F11C0000F032
:1039E000EEB910B5044600F031F800B1C4E584F832
:1039F000280010BD80B51C3000F050FAF8E000201F
:103A000008704870C8704860886008613222CA60D7
:103A100001234548886100228B704A61002070476D
:103A2000000000000100C8410100204110B504461B
:103A300094F82900012807D00021FFF7CEFF00B13C
:103A40009AE5012084F82900002010BD10B5044635
:103A500094F8290028B1FFF7BFFF00B18CE584F886
:103A6000290010BD4FF07F506CE0000038B50D46C6
:103A700069461C3000F0B9F9002400B126E5FFF7D3
:103A8000D7FE0DD8DFE800F002040609234902E062
:103A9000284803E02349296004E02348286001E026
:103AA0004FF0FF34204632BDDFED0C0A80B500F048
:103AB00043F848BF00210DD4DFED090A00F03CF8BF
:103AC00048BF012106D4DFED070A00F035F84CBFEE
:103AD000022103211C3000F07DF989E00100204122
:103AE0000100A041010048420000C8431F853B413E
:103AF0009A9979409A99F93F48E17A3F9A993B42DD
:103B00007B147A41713DFA407B943B437B147A42AB
:103B10007B14FA410080CA440000A84500002041FF
:103B20000000C841000048420000C842000048436D
:103B30000000A8440000A041B4EE600AF1EE10FAC3
:103B400070473220086000207047002070471CB585
:103B500000F03AF800B13CE0BDF800002080BDF86C
:103B600002106180BDF80400A080002016BD1CB5C5
:103B700000F02AF800B12CE0BDF9000000EE900A38
:103B8000B7EE080AF8EEE00A60EE800AFDEEE00A01
:103B9000C4ED000ABDF9021001EE101AB8EEC11A08
:103BA00021EE001ABDEEC11A84ED011ABDF9040020
:103BB00000EE900AF8EEE00A20EE800ABDEEC00AA0
:103BC00084ED020A002016BD0C4669461C3000F048
:103BD0004BB94FF0FF3016BD80B501231C3000F00B
:103BE00045F805E004B501236A461C3000F044F8AE
:103BF00008B14FF0FF3002BD80B51C3000F02FF946
:103C0000F6E7000070B58568047B4669002D0CBF9F
:103C100041F0800141F0400116E0000070B5856878
:103C2000047B0669002D0CBF41F0800141F040018A
:103C300018E0000070B58568047B4669002D0CBF54
:103C400041F0800141F040012046B04770BD0000C6
:103C500070B58568047B0669002D0CBF41F08001BA
:103C600041F040012046B04770BD000010B5044649
:103C7000A0686468A04710BD10B50446A068246819
:103C8000A04710BD38B500F02AF830B901230DF176
:103C9000010223212046FFF7E9FF9DF80010C1F340
:103CA000C00109B1022106E09DF80110C1F3C00274
:103CB000511E8941C90F297032BD38B500F00FF887
:103CC00060B99DF8000000F00F0040EA05108DF883
:103CD000000001236A46202100F01FF932BD0D4685
:103CE000044601236A462021C0E700001CB500F00D
:103CF000E4F82021FFF7BAFF9DF800100909491EDA
:103D0000082918D8DFE801F00507090B0D0F11137A
:103D10001500012110E002210EE003210CE0042136
:103D20000AE0052108E0062106E0072104E0082159
:103D300002E0092100E00021217016BD9DF800007D
:103D400000F03F0040EA8510704738B500F09BF85E
:103D500028B99DF8000065F3051000F08DF832BD1C
:103D60001CB500F096F800F00AF806D004D3032939
:103D700003D038BF022100D30021217016BD9DF869
:103D80000010090901F003010129704738B500F05E
:103D90007AF818B900F041F800F06EF832BD1CB5A1
:103DA00000F08BF82721FFF761FF9DF80010C1F3A9
:103DB000C001217016BD0A460623282156E738B5F2
:103DC00000F039F828B99DF8000065F3010000F013
:103DD0002BF832BD38B500F02EF828B99DF8000058
:103DE00065F3830000F020F832BD1CB500F010F838
:103DF0009DF80010890801F00301012906D004D3C1
:103E0000032903D038BF022100D30021217016BD41
:103E10000C4601236A46602128E79DF8000000F067
:103E20007F0040EAC51070478DF8000001236A4604
:103E30006021204620E70D46044601236A466021A2
:103E400014E79DF8000065F30410704738B500F0E2
:103E500040F818B9FFF7F5FF00F033F832BD1CB594
:103E600000F02BF867219EE70A4606236821FDE64D
:103E70000A4601230F21F9E68DF8000001236A4666
:103E800023212046F8E60D46044601236A462321F5
:103E9000ECE60C4601236A462321E7E60A460123A5
:103EA0004F21E3E638B500F014F828B99DF800007A
:103EB00065F3410000F005F832BD0C4601236A4667
:103EC00070478DF8000001236A4662212046FFF703
:103ED000D3BE0D46044601236A466221FFF7C6BEE3
:103EE0009DF8000065F3451070478DF80000012330
:103EF0006A462E212046FFF7BFBE0D460446012329
:103F00006A462E21FFF7B2BE38B5FFF7F6FF18B9A3
:103F1000FFF714FFFFF7E9FF32BD2046FFF7ACBE05
:103F200038B5FFF7D6FF18B9FFF7DAFFFFF7C9FF7B
:103F300032BD000010B5002000F044FB012100203C
:103F400000F080FB002000F0C7FB401E8041DFF83E
:103F50004C45C00FA062002000F0CFFB03210020E1
:103F600000F030FCDFF8382500F049F804F12C01AE
:103F7000BDE81040B0A000F0C5BD10B5DFF81C458D
:103F80002178D9B1322000F0D1FD002000F0A4FB4F
:103F9000A16A8842F9D0322000F0C8FD00202070CC
:103FA000607000F037F808B100F0AAFE00F05EF98A
:103FB00008B100F0A5FE0120607010BD60780028F7
:103FC000EFD0012817D1DFF8DC2400F018F804F155
:103FD0002C0199A000F096FDDFF8CC44206820F079
:103FE000020020600121002000F08CFE206840F0DB
:103FF0000200206010BDBDE8104000F081BE4FF40B
:10400000807104F12C0000F08DBEDFF890140120C7
:10401000087070472DE9F84FDFF88074DFF88C8462
:104020008EB0424600F01BF90FF20C2900F008F99F
:104030004FF47A7000F07AFD002000F0EDFA4FF0B6
:10404000000B0024391D00F039FA002809D1641C46
:104050000A2CF7D3002407F11000391D00F039FABB
:10406000002840F0DC80641C0A2CF4D3642000F0AB
:104070005DFD00F0E3F808B100F042FE00250026E7
:10408000AA46052400F0DAF808B100F039FE0298DB
:10409000039986194D190498641E8244F2D10521B2
:1040A00096FBF1F10D910522052195FBF2F29AFBA9
:1040B000F1F10C92019101220221002000F0BAFEE0
:1040C0000028089040F0AD80642000F02FFD00F043
:1040D000B5F808B100F014FEDA460026052500F018
:1040E000ADF808B100F00CFE0298039982440498E0
:1040F0000C1986196D1EF2D105209AFBF0F596FB7E
:10410000F0FA94FBF0F4002605A8391D825D895D64
:1041100000F0E1F9002840F08380761C0A2EF3D3EA
:10412000089040F2A4660D980FF22042291A48BF69
:1041300049426FF004005A290B91B8BF8346B1423F
:104140000C99C8BF8346611A48BF49425A290A914F
:10415000B8BF8346B1420199C8BF8346BAEB01019B
:1041600048BF49425A29B8BF83460991B142C8BFE6
:10417000834600F074F800F063F808F14C0200F098
:104180006EF800F05DF800F068F800F059F80D9B4B
:10419000009508F1AC0200F05AF800F051F80C9BC1
:1041A000009408F1D00200F052F800F049F8019BA9
:1041B000CDF800A008F1F40200F049F800F040F852
:1041C0000FF2A83200F04BF800F03AF808F58C72C4
:1041D00000F045F800F034F800F03FF800F030F857
:1041E00001965A230B980FF2A43400F02EF800F039
:1041F00027F801965A230A9800F027F800F020F8D3
:1042000001965A23099800F020F800F019F8BBF144
:10421000000F0CBF08F5A47208F5BA7203E06DE157
:1042200008900898FBE700F01AF800F009F8002061
:1042300000F0F7F9F5E700002573000002A860E13F
:1042400007F12C01484600F05DBC009022464FF477
:10425000807107F12C0000F065BD08F17C024FF47D
:10426000807107F12C0000F05DBD00002DE9F04FDA
:104270008A4EDFF838B28FB00BF5D07200F038F903
:104280000FF2142800F020F94FF47A7000F04EFC81
:10429000002000F0C1F94FF0000A0024311D00F0A9
:1042A0000DF9002809D1641C0A2CF7D3002406F16B
:1042B0001C00311D00F00DF9002840F0E080641C66
:1042C0000A2CF4D3962000F031FC00F0F5F808B188
:1042D00000F016FD0027D1460025052400F0ECF87B
:1042E00008B100F00DFD02980399C719049845190B
:1042F000641E8944F2D1052197FBF1F10E9105224C
:10430000052199FBF2F295FBF1F10D920C9101223E
:104310000121002000F08EFD0028089040F0B180BF
:10432000322000F003FC00F0C7F808B100F0E8FC10
:104330000025D1460027052400F0BEF808B100F0A2
:10434000DFFC0298039945190498C719641E894433
:10435000F2D10520052195FBF0F099FBF1F40190D5
:1043600097FBF1F9002505A8311D425D495D00F07C
:10437000B2F8002840F084806D1C0A2DF3D3089019
:104380000BF5F47201990E98494D4A4F091A48BF2E
:1043900049426FF00400A9420B91B8BF8246B9426E
:1043A0000D99C8BF8246611A48BF4942A9420A9185
:1043B000B8BF8246B9420C99C8BF8246B9EB010129
:1043C00048BF4942A942B8BF82460991B942C8BF15
:1043D000824600F08DF800F077F80BF14C0200F007
:1043E00087F800F071F800F081F800F06DF801989E
:1043F0000E9B00900BF5047200F072F800F064F868
:104400000D9B00940BF50D7200F06AF800F05CF85B
:104410000C9BCDF800900BF5167200F061F800F0DF
:1044200053F80BF51F7200F063F800F04DF80BF530
:104430008C7200F05DF800F047F800F057F800F0DB
:1044400043F801972B460B9857A400F047F800F06B
:104450003BF801972B460A9800F040F800F034F83A
:1044600001972B46099800F039F800F02DF8BAF1C1
:10447000000F0CBF0BF528720BF5327203E03DE024
:1044800008900898FBE700F033F800F01DF80020D2
:1044900000F0C7F8F5E700002573000000000020D9
:1044A0001C5C0008485C000810E000E0D4570008DD
:1044B000F049020060AE0A0002A834E005A8021923
:1044C000095D002000F078BC06F12C01404600F0A8
:1044D00019BB025D095D002000F089BC00902246F6
:1044E0004FF4807106F12C0000F01CBC0BF17C0233
:1044F0004FF4807106F12C0000F014BC0FB0BDE841
:10450000F08F1CB504466A460221002000F02CFC06
:1045100040B99DF800000028F5D022460221002075
:1045200000F0BDF916BD1CB504466A460121002005
:1045300000F01AFC40B99DF800000028F5D0224692
:104540000121002000F0ABF916BD00000D0A4D65F9
:1045500061737572656420616363656C6572617413
:10456000696F6E205B6D675D3A0D0A000D0A546538
:104570007374206C696D69747320616E642064616A
:104580007461205B6D675D3A0D0A00002538642078
:1045900020202020207C2025386420202020207C02
:1045A000202538640D0A00002020253864202020B2
:1045B000207C2020253864202020207C20202538C5
:1045C000640D0A0070B586B0044600200090714E5C
:1045D0007148016841F001010160006873A100F0B9
:1045E00001000090009831F81450019501210291CA
:1045F00003910221049101A956F8240000F030FC37
:1046000000F004F8002006B070BD000056F8240049
:104610000022294600F063BD10B500F00BF801221E
:1046200003E010B500F006F8002200F058FD00206D
:1046300010BD00005DA3574C33F8101054F8200053
:1046400070470000F8B586B0044600255248534E26
:104650000095026842F004020260006854A200F073
:1046600004000090009832F8143001930222039263
:10467000049256F8240021B9029501A900F0F0FB3C
:1046800027E0474A029201A900F0EAFB4CA151F849
:104690002410301D00EBC406304600F048FD6FF0DA
:1046A000030738B944A050F824200021304600F018
:1046B00037FD08B13D460CE00FF2F8003FA1065768
:1046C00051F8241000223046FEF7EAF83046FEF793
:1046D00004F9284607B0F0BD80B500BF34A22F4BC7
:1046E00032F8101053F8200000F0F3FC401E804117
:1046F000C00F02BD0020FFF788BC70B5002402285F
:1047000086B028BF6FF0010430D28501254E06EB3C
:10471000800006F1080241681F48515100940222AE
:10472000016941F400310161016901F40031009136
:10473000009900940C21036843F0010303600723F0
:10474000006800F001000090009817480191029263
:1047500005930394049401A900F082FB06F108017B
:10476000481900F0FDFC08B16FF00304204606B0C4
:1047700070BD11B50B48047881B000EB84104FF484
:104780007A73012201A9083000F03BFD019816BDA3
:1047900000000000DC02002030380240E00200206F
:1047A00000001110EC020020000002402000000078
:1047B0000020000028000000F54600080F0000005F
:1047C0000D0000062DE9F84705004FF0000887B0FE
:1047D00089464FF0010A4746DFF8F46203D0022D04
:1047E00049D041D358E0484600F082F8002846D12D
:1047F000B06B726C6946D3689847002849D19DF820
:10480000000001289DF8010008BF022701289DF83B
:10481000020008BF47F00107012808BF47F004075E
:1048200003240AEA0900504504BF0AEA070050457C
:104830000FD10C2106F124026943711852F82A3075
:1048400051F823100A6806F1380050F82500904707
:1048500038B9641E4FEA4A0AE3D1404608B0BDE8C1
:10486000F0876FF00400F9E7484600F096F830B999
:10487000F06BB26CBEE7484600F0DEF810B14FF0C6
:10488000FF30EBE7F26C306CD3686946984700283C
:10489000B5D06FF00600E1E76FF00108DDE738B54D
:1048A00000F017F808D200F00DF805D100F016F866
:1048B000D369984710B102E06FF0010032BD6FF08C
:1048C000040032BD824D05EB8300026D2240A242FE
:1048D000704703460C46032B114670470C22534386
:1048E000EA1805EB84035C6A52F82420806B704759
:1048F000D721F0B500F093F88FB000F093F803954E
:1049000006F15C007349744A0591079201A9FEF70C
:104910000FF850B9694606F15C00FEF77AF80028F6
:1049200004BF9DF800006A2802D06FF0060531E050
:1049300008A906F15C00FEF773F89DF821009DF8C8
:10494000202040EA42019DF8222041EA820131659F
:10495000E20706F15C01B1636FF004075F4971641F
:1049600008D5012806D15E48306006F15C00096870
:10497000884770B9A0070AD59DF82010012906D1F3
:104980005848716C70600A68B06B904708B960074E
:1049900000D53D4628460FB0F0BD2DE9F841332142
:1049A00000F03DF88FB000F03DF806F18C0700F004
:1049B00086F8FEF767FD48B969463846FEF7B6FD4A
:1049C000002804BF9DF80000332802D06FF00605D0
:1049D00024E008A93846FEF7AEFD9DF821009DF8B9
:1049E0002010F76340EA41009DF8221040EA810060
:1049F0007065A0073C49B1646FF0040809D59DF8C3
:104A00002020012A05D13948306138460968884795
:104A100018B9E00701D4610700D545464BE0344A98
:104A20002B4E704704468DF8101001920025314935
:104A3000314A0291069270472DE9F8413D21FFF776
:104A4000EEFF8FB0FFF7EEFF06F1B80700F037F882
:104A5000FEF772FF48B969463846FEF7CBFF0028DB
:104A600004BF9DF80000402802D06FF0060522E048
:104A700008A93846FEF7C3FF9DF821109DF82020B5
:104A80009DF82200376441EA420141EA8001B165A4
:104A900062071A49F1646FF0040807D5012805D1AF
:104AA0001748306238460968884718B9A00701D40A
:104AB000E10700D54546284610B0BDE8F08105491C
:104AC000054A05910792039501A9384670470000F1
:104AD0002C0100206F5B0008E55B000878020020D5
:104AE000AC020020880200201002002020020020DA
:104AF000C55A00083B5B00088F5B00084402002099
:104B0000540200200EB4C0B5024603A80021019053
:104B1000009101AB0121044878440C30FBF73AFBCB
:104B200006BC5DF810FB00BF5312000038B5044608
:104B3000FDF776FE14F1010F054602D00448017816
:104B40006418FDF76DFE401BA042FAD331BD00BFD3
:104B5000D002002080B500F055FC00F007F800F00E
:104B60004FF8FFF7E7F9FFF708FAFCE780B592B0D6
:104B700006A8302100F060FC01A8142100F05CFCC4
:104B8000002000905348016841F0805101600021ED
:104B9000006800F08050009000984F48009102217A
:104BA000026822F4404242F400420260012200689E
:104BB00000F44040009000980691099210210A915B
:104BC000022200210C920D9110224FF4A8710E9236
:104BD0000F91042207211092119106A800F030FCD9
:104BE000022102910F204FF4805101900022049184
:104BF00003920592022101A8FDF73AFD13B000BD12
:104C000010B586B001A8142100F016FC002433482A
:104C100000940168324C41F004010160026802F026
:104C200004020092002200990092036843F080037E
:104C30000360016801F0800100910099009203680F
:104C400043F001030360016801F001010091009944
:104C500000922021036843F002030360006800F023
:104C6000020000900098204600F039FA4FF40050FE
:104C70001C4900F03FF81C4800F0F2F82021019197
:104C80000122002103910491029201A9204600F023
:104C9000E7F83020154900F02DF8154800F0E0F84D
:104CA000002200210A20FDF7FBFD0A20FDF715FE7A
:104CB000002200211720FDF7F3FD1720FDF70DFE60
:104CC000002200212820FDF7EBFD2820FDF705FE3E
:104CD00006B010BD4038024000700040303802403D
:104CE00000000240000021100008024000001110E6
:104CF00000040240019002910022039201A9704732
:104D0000704700000648026822F004020129026090
:104D100001D130BF704740BF20BF20BF70470000A7
:104D200010ED00E008B438B585B009AC0025049456
:104D3000039500290EBF01950190491E029100952F
:104D400004AB01A9074878441A30FBF723FA01990C
:104D500001B10D70002858BF039806B030BC5DF853
:104D600008FB00BFAFC5FFFF10B50B4611466FF043
:104D700004042F4A18B1022812D00BD318E010688F
:104D80009A0702D5FEF7CAF90FE0DA0712D5FEF747
:104D9000DDF90AE098070DD55068FEF7C8FD04E07C
:104DA000580707D59068FEF727FF18B9002401E0DF
:104DB0006FF00104204610BD10B56FF004041C4BC9
:104DC00018B1022809D004D30DE01868FEF757F98E
:104DD00006E05868FEF7A3FD02E09868FEF7FCFEC7
:104DE00018B9002401E06FF00104204610BD10B591
:104DF0006FF004040E4B18B1022809D004D30DE063
:104E00001868FEF73FF906E05868FEF78EFD02E0ED
:104E10009868FEF7E7FE18B9002401E06FF001047E
:104E2000204610BD024800688B076FF004047047ED
:104E30006401002010B570B9FFF7F4FF03D51146E7
:104E4000FEF75EF904E0C90705D51146FEF76FF9D4
:104E500018B9002401E06FF00104204610BD0000E5
:104E60002DE9F84F0D464FF00008A3490F2201230A
:104E700004462E6803FA08F000EA0609814540F06E
:104E8000B1804FEA480C032606FA0CF66FEA060ECC
:104E90006E68012E18BF022E03D0112E18BF122EDD
:104EA00011D1A668EF680EEA060607FA0CF73E4332
:104EB000A660666826EA00006E68C6F3001606FA69
:104EC00008F630436060E068AE680EEA000006FA5B
:104ED0000CF63043E0604FEA88006E68022E18BF7F
:104EE000122E12D14FEAD80604EB860600F01C07FA
:104EF000D6F820A002FA07FB2AEA0B0AD5F810B070
:104F00000BFA07F747EA0A07376226680EEA060730
:104F10002E7906F0030606FA0CF63E4326606E680C
:104F2000F6005FD5002600964FEA980C0E68DFF871
:104F3000CCE146F480460E6000F00C000E6806F4EA
:104F400080460096009E5EF82C7002FA00F627EA72
:104F500006066B4FBC4208BF002713D0694FBC4206
:104F600008BF01270ED0684FBC4208BF022709D0F6
:104F7000664FBC4208BF032704D0654FBC420CBF3C
:104F80000427072707FA00F030434EF82C006FEA99
:104F9000090C604806680CEA060E6E68F70348BF05
:104FA00049EA0E0EC0F800E046680CEA060E6E688C
:104FB000B70348BF49EA0E0EC0F804E086680CEA61
:104FC000060E6E68F70248BF49EA0E0EC0F808E008
:104FD000C6680CEA060E6E68B60248BF49EA0E0EB5
:104FE000C0F80CE008F10108B8F10F0F7FF641AFEF
:104FF000BDE8F18F2DE9F84F03460D4600244548E2
:105000003E4900950122009E02FA04F909EA0606CB
:105010004E4559D14FEA940C4FEA840A51F82C506E
:10502000374F0AF00C0E4FF00F0B0BFA0EF8BB4285
:1050300008EA050508BF002713D0324FBB4208BF5E
:1050400001270ED0304FBB4208BF022709D02F4F97
:10505000BB4208BF032704D02D4FBB420CBF04271F
:10506000072707FA0EF7BD4212D10568F64335400F
:105070000560456835404560856835408560C56890
:105080002E40C66051F82C5025EA080541F82C50F6
:1050900003256600B540EE431D6835401D600AF0EB
:1050A0001C0AE50803EB85050BFA0AFA2F6A27EAC2
:1050B0000A072F62DD683540DD605D6825EA090575
:1050C0005D609D6835409D60641C0F2C9BD9BDE8D8
:1050D000F18F0069084018BF0120C0B2704702B9C3
:1050E0000904816170470C4A136803421CBF1060B9
:1050F00000F014B8704700004438024008380140FE
:10510000000002400004024000080240000C02407F
:1051100000100240003C0140143C01407047000078
:105120000346002009B95A6070470120704708B94A
:10513000012070470160002070470178012201F0D2
:105140001F0102FA01F1054A13680B4204D01160F5
:105150004068002818BF004770470000143C014019
:1051600010B5094901604FF4E1320C21002442607E
:1051700041618460C46004618461C46100F006F828
:1051800000B10124204610BD0044004038B50400A1
:1051900001D1012032BD00F021F808B900F022F859
:1051A00000F012F800F023F8FFE7416100F001F889
:1051B00032BD2068C16841F40051C16000206860C0
:1051C00020216970A9707047242068702068C16828
:1051D00021F40051C160204600F09FB804F1380569
:1051E0006878704700212970204600F009B92068CE
:1051F000016921F4904101612068416921F02A018F
:1052000070472DE9F843054605F138070C467878D4
:105210002028164698463DD1002C14BF002E0120B0
:1052200039D03878012835D00121397000207860D4
:1052300021227A70FDF7F4FA8146AE84EE840020D4
:10524000387003E02A6814F8011B5160E88C20B321
:10525000E88C411EE9844B46A868CDF80080B0F583
:10526000805F0DD100F023F870B920882968C0F361
:10527000080048602869002814BF641CA41CE5E7E6
:1052800000F015F80028DDD0032004E0202078701D
:10529000002000E00220BDE8F283CDF800804B46FC
:1052A0000022402100F005F80028EFD0ECE70022B2
:1052B00080212846FFE72DE9F041069C05460E4671
:1052C00090461F46286801683140B1420CBF01205A
:1052D0000020404517D114F1010FF3D024B1FDF7A0
:1052E0009FFAC01B8442EDD22868C16821F4D071B6
:1052F00000F00CF805F13800202141708170002188
:105300000170032000E00020BDE8F081C160286842
:1053100041694908490041617047D0B50646642794
:1053200032681169F06821F4405101431161192478
:10533000D3682D48B168034030690B43716903435A
:10534000F0690B430343D3605169B06921F44071A4
:1053500001435161F36925482549B3F5004F1FD139
:105360008A4218BF824202D1FDF710FA01E0FDF730
:1053700005FA0246A4FB02017268D30F5200FCF743
:1053800029F800F037F8FF0032376420B7FBF0F05F
:10539000420002F4F87202EB011200F007001DE077
:1053A0008A4218BF824202D1FDF7F0F901E0FDF711
:1053B000E5F90246A4FB02017268930F9200FCF724
:1053C00009F800F017F83F0132376420B7FBF0F01E
:1053D00000F0F00202EB011200F00F0031688018BB
:1053E0008860D0BD00000000F369FFFF0014014099
:1053F000001001406421B0FBF1F107FB1107704779
:105400007047000080B50B48016841F400710160ED
:10541000026842F480620260016841F480710160B8
:105420000320FDF730FA0020FDF700FA00F09AF9AA
:10543000002002BD003C0240002200F0B1B9000093
:105440002DE9F843040016D02078DFF80863C1077F
:1054500013D5B06800F00C00042807D0B06800F045
:105460000C0008283ED1706841023BD530688103AA
:1054700003D56068002800F0FF802078B64F8107D0
:1054800019D5B06810F00C0F07D0B06800F00C0010
:1054900008285CD17068410259D43068810703D56F
:1054A000E068012840F0E8803168206921F0F801C7
:1054B00041EAC0013160217808076CD56069A749CD
:1054C000002862D001220A60FDF7AAF90546706F34
:1054D000810700F1D380FDF7A3F9401B0228F6D91C
:1054E000032034E16068B0F5803F04D1306840F4B7
:1054F0008030306011E0B0F5A02F306806D140F464
:1055000080203060316841F4803105E020F4803043
:105510003060316821F480213160606858B1FDF756
:105520007FF9054630688103A7D4FDF779F9401B60
:105530006528F7D3D4E7FDF773F905463068810392
:105540009BD5FDF76DF9401B6528F7D3C8E7E068E8
:1055500070B101213960FDF763F9054630688107B4
:1055600000F1B880FDF75CF9401B0228F6D9B7E7D7
:105570003860FDF755F90546316888079BD5FDF77A
:105580004FF9401B0228F7D9AAE70860FDF748F950
:105590000546706F810771D5FDF742F9401B02285F
:1055A000F7D99DE70528306F06D140F00400306739
:1055B000306F40F0010005E0400840003067306F78
:1055C00020F00400306741F28938A06868B1FDF727
:1055D00027F98146306F810700F18980FDF720F9B6
:1055E000A0EB09004045F5D37AE7FDF719F98146AC
:1055F000306F81077BD5FDF713F9A0EB090040451B
:10560000F6D36DE7FDF70CF9401B022840F28280CB
:1056100066E7FDF705F9001B022840F293805FE77B
:1056200000203866FDF7FCF804463068810140F13F
:105630008D80FDF7F5F8001B0228F6D950E7012808
:105640001AD07068E26900F48001914202BF00F054
:105650003F01226A91420FD147F6C071626A014050
:10566000914202BF00F44031A26A914202BF00F0B1
:105670007060E16A884269D0012068E020784107C3
:105680003AD5306C0025C1000AD400950125316C53
:1056900041F080513164306C00F0805000900098EF
:1056A000DFF8BC80D8F80000C1051BD4D8F8000092
:1056B00040F48070C8F80000FDF7B2F88146D8F8D1
:1056C0000000C1050ED4FDF7ABF8A0EB09000228DD
:1056D000F5D905E73068216920F0F80040EAC100FB
:1056E0003060E8E6A06801287FF45CAF60E71DB198
:1056F000306C20F080503064A06938B3B16801F09C
:105700000C0108299BD002288AD100203866FDF7B9
:1057100087F80546306881013FF574AFE269206A79
:10572000616A0243A06A400842EA8112401E42EACE
:105730000042E06A42EA0062726001213966FDF7C8
:105740006FF80446306881017FF563AF0020BDE843
:10575000F28300BF0038024000004742800E4742FB
:105760000070004082B00020009000220B48416889
:1057700041F480414160416801F480410091009909
:105780000092036843F080530360006800F080508B
:1057900000900098072002B0FDF775B8403802402D
:1057A00000B500BF130096469446103928BFA0E804
:1057B0000C50FAD85FEA417C28BF0CC048BF40F8C3
:1057C000042BC90728BF20F8022B48BF00F8012B83
:1057D00000BD00000D0A5374617274696E67204C3D
:1057E000534D3644534C20616363656C65726F6D35
:1057F000657465722073656C662D74657374202EF4
:105800002E2E0D0A4B6565702074686520646576E0
:10581000696365207374696C6C2121210D0A000095
:105820000D0A2020202020415849532020202020EC
:105830007C205052452D53454C4654455354207CB2
:1058400020202053454C46544553540D0A00000077
:105850002D2D2D2D2D2D2D2D2D2D2D2D2D2D7C2D29
:105860002D2D2D2D2D2D2D2D2D2D2D2D2D7C2D2D19
:105870002D2D2D2D2D2D2D2D2D2D2D2D0D0A0000F5
:1058800020202020202020582020202020207C2084
:1058900025386C6420202020207C2025386C640D65
:1058A0000A00000020202020202020592020202035
:1058B00020207C2025386C6420202020207C20257E
:1058C000386C640D0A000000202020202020205A7F
:1058D0002020202020207C2025386C6420202020BF
:1058E000207C2025386C640D0A0000000D0A202061
:1058F0004C4F57204C494D49542020207C202044B7
:105900004946464552454E434520207C2020484983
:105910004748204C494D49540D0A00000D0A4C538C
:105920004D3644534C20616363656C65726F6D65E1
:105930007465722073656C662D74657374205041B4
:1059400053534544210D0A000D0A4C534D36445320
:105950004C20616363656C65726F6D657465722060
:1059600073656C662D74657374204641494C4544DB
:10597000210D0A000D0A5374617274696E67204C20
:10598000534D3644534C206779726F73636F706563
:105990002073656C662D74657374202E2E2E0D0A8F
:1059A0004B65657020746865206465766963652061
:1059B0007374696C6C2121210D0A00000D0A4D657C
:1059C00061737572656420616E67756C61722076B3
:1059D000656C6F63697479205B6D6470735D3A0DFB
:1059E0000A000000202020202020205820202020F5
:1059F00020207C202025386C64202020207C202042
:105A000025386C640D0A0000202020202020205919
:105A10002020202020207C202025386C642020207D
:105A2000207C202025386C640D0A000020202020D6
:105A30002020205A2020202020207C202025386C67
:105A400064202020207C202025386C640D0A000072
:105A50000D0A54657374206C696D69747320616EEE
:105A6000642064617461205B6D6470735D3A0D0A3B
:105A7000000000000D0A4C534D3644534C2067790A
:105A8000726F73636F70652073656C662D746573D8
:105A90007420504153534544210D0A000D0A4C53C4
:105AA0004D3644534C206779726F73636F70652075
:105AB00073656C662D74657374204641494C45448A
:105AC000210D0A00424870B5424D286086B0686DCD
:105AD000411C0024696568BB2846FCF703FC48BBF1
