:020000040800F2
:10000000F88B00208DA0000861A0000863A0000804
:10001000B1A00008B5A00008B9A0000800000000C9
:10002000000000000000000000000000BDA000086B
:1000300065A0000800000000C1A0000867A000083B
:10004000C5A00008C9A00008CDA00008D1A00008E4
:10005000D5A00008D9A00008DDA00008E1A0000894
:10006000E5A00008E9A00008EDA00008F1A0000844
:10007000F5A00008F9A00008FDA0000801A10008F3
:1000800005A1000809A100080DA10008000000005A
:1000900000000000000000000000000011A10008A6
:1000A00015A1000819A100081DA1000821A1000840
:1000B00025A100086BA0000829A100082DA10008B7
:1000C00031A1000835A1000839A100083DA10008B0
:1000D00041A1000845A1000849A100080000000056
:1000E00075A000084DA1000851A100080000000003
:1000F00000000000000000000000000055A1000802
:100100000000000059A100085DA1000861A10008DD
:1001100000000000000000000000000000000000DF
:1001200065A1000869A100086DA1000871A100087F
:1001300075A10008000000000000000000000000A1
:1001400000000000000000000000000079A100088D
:100150007DA1000881A1000885A1000889A10008EF
:100160008DA1000891A1000800000000000000001F
:10017000000000000000000000000000000000007F
:100180000000000095A10008000000000000000031
:1001900099A10008000000002DE9F04F2DED108B13
:1001A000DFF834B4ADF20C5D9BAC0BF5E271204688
:1001B0004FF4277202F056F8A3880493022B40F202
:1001C0009F83BBF8502023680B9207932AB94FF600
:1001D000FF73CBF85420ABF85830DDED077AB8EE5A
:1001E000678ADFEDF27A28EE278A18EE100A02F00D
:1001F0003FF8DBF848300A9307EE900AFCEEE78AF6
:10020000002B40F085839BF81430032B04D1DBF8DE
:100210001030002B40F06683E54BB4F90860D3ED55
:10022000007AB4F90A50049A9BF86C84B4F90C3043
:10023000DFEDE0CADFEDE01A9FEDE02A9FEDE01A66
:10024000B7EE007A87EE27CAB8F1010F4FEA520ADB
:10025000A64607EE906AB8EEE79A07EE905AF8EED7
:10026000E7FA07EE903A0CBF9FEDD60A9FEDD60A4B
:100270002CEE0CDA5245F8EEE7EA28BF52469146DA
:100280002DEE000A6CEE2CCA11EE902AB0EE495AFF
:10029000F0EE495AF0EE6F3AF0EE6F4AB0EE6E3A79
:1002A000B0EE6E4AF0EE420ABEF90870BEF90A00DE
:1002B000BEF90C1007FB07FC00FB00CC01FB01CCD6
:1002C00007EE90CAB8EEE76AF8EE619AF1EEC62A38
:1002D000013292B20EF1060E07EE907AB8EE41AA04
:1002E000F8EEE76AF4EEE29A07EE900AF1EE10FA01
:1002F000B4EEE2AAB8EEE77A48BFFCEEE21A07EEE7
:10030000901AF1EE10FAB4EEE65AC8BFBCEEE21A4B
:10031000F1EE10FAF4EEE65AF8EEE77AB8BFB0EE76
:10032000665AF1EE10FAF4EEC73A88BFF0EE665A5C
:10033000F1EE10FAF4EEC74AB8BFF0EE473AF1EE2C
:1003400010FAB4EEE73A88BFF0EE474AF1EE10FA41
:10035000B4EEE74AB8BFB0EE673AF1EE10FA88BFE4
:10036000B0EE674A4A4570EEA20A32EE062A9BD3E7
:100370000499914240F2ED8202EB420E9FED8FAA6A
:10038000894604EB4E0EBEF90870BEF90A00BEF9AC
:100390000C1007FB07FC00FB00CC01FB01CC07EEB7
:1003A00090CAB8EEE76AF8EE619AF1EEC62A013219
:1003B00092B20EF1060E07EE907AF8EE41AAF8EE30
:1003C000E76AF4EEE29A07EE900AF1EE10FAF4EE24
:1003D000E2AAB8EEE77A48BFFCEEE21A07EE901AFE
:1003E000F1EE10FAB4EEE65AC8BFBCEEE21AF1EE36
:1003F00010FAF4EEE65AF8EEE77AB8BFB0EE665AB5
:10040000F1EE10FAF4EEC73A88BFF0EE665AF1EE5C
:1004100010FAF4EEC74AB8BFF0EE473AF1EE10FA20
:10042000B4EEE73A88BFF0EE474AF1EE10FAB4EEC8
:10043000E74AB8BFB0EE673AF1EE10FA88BFB0EE07
:10044000674A91453AEE22AA32EE062A9BD8049AD0
:1004500075EE655A02F1FF39F4EEEC5A1FFA89F293
:10046000F1EE10FA0C9202F1010207DC73EEE44A9D
:10047000F4EEEC4AF1EE10FA40F36082B8F1010FAD
:1004800000F03E8200210D9107EE902A30EE8A7A2C
:10049000F8EEE77A0E93C7EE27DA2DEEAD7AA7EEE7
:1004A000C72ADDED0C7AF8EEE77A82EE277AB4EE11
:1004B000C07AF1EE10FA00F32382444911EE903A2B
:1004C00091ED007A11EE101A5B1A07EE903A2CEEBD
:1004D000077AF8EE677AB4EEE77AF1EE10FA00F1F7
:1004E0000F82A2EB0A0207EE10AA07EE902AF8EE9E
:1004F000C76AF8EEE77A8AEE277AC0EEA67A77EE38
:10050000C77AF0EEE77AF4EEEC7AF1EE10FA00F347
:10051000F7817DEECC7AF0EEE77A77EEA77AB4EE4B
:10052000E7CAF1EE10FA00F1EB81DBF86434DFED9D
:10053000287ADDF8108007EE103AF8EE479A0FFAA5
:1005400088F769EEA77A069717EE900A01F0A4FEE5
:1005500001F0C6FE01F0EAFE9FED1E7A0F94C7EE91
:10056000297A4346A8F1020803EB430A1FFA88F8E8
:100570000DF266234FEA4A0A08EB4802AAF1060C7C
:10058000AAF10C0A0AEE900A07EB47004000B7EE0A
:1005900000AA191823189DAF7AEE6A6A09933AEEF9
:1005A000CA7AA1EB4203B0EE6ABA17E06F12833A3F
:1005B000000B0020CDCCCC3D00000000000000006E
:1005C000FEFFFFFF6F12033A0AD7A33C080B00207F
:1005D0004BE5D5BD39321941A0060020089307EB41
:1005E0000C03029397EEA6BA07EB0A030393A7EE58
:1005F00087AA032305930E9BF6EE00BAF0EE6E9ADF
:10060000B4F90E20B4F91000B4F91210324407EE18
:10061000902ACB1842190EEE102A0EEE903AF8EE00
:10062000E77AB8EECEEAF8EEEEEA4FF0000A67EEAF
:10063000AB7A2EEE2BEA6EEEABEA524615E037F9B6
:100640001300B1F9023007EE100A0FEE903AB1F93B
:100650000430F0EE497AB8EEC79A07EE103AF0EEA1
:1006600069EAF8EEEFFAF8EEC79A02EB0A056E00B7
:1006700006F1060829EE0B9A37F90830AAEEA79A78
:10068000B8443E4407EE103AB8EEC77A17EE900A27
:10069000AAEE079A01F0ECFDB8F902306FEE8B7A02
:1006A00007EE103AEAEE8E7A0AF1010A0FFA8AFA98
:1006B00006EE900AB8EEC77AFDEEE66AEAEE077A31
:1006C00016EE903A1EEE100A27F81530B0EE67EAE3
:1006D00001F0CEFD07EE100AB8F9043069EE8B9AEE
:1006E000BDEEC77A07EE903AEAEEAE9A17EE103AF0
:1006F000F8EEE77A73801EEE900AEAEE279A01F090
:10070000B7FD07EE900AFDEEE77A4FEA4A0217EED0
:10071000900A02EB0A03CA4507EB4301B0808EDB67
:1007200019EE100A01F0A4FD07EE900AFDEEE77A3B
:100730001EEE100A17EE903A1EB2029B1E8001F0C8
:1007400097FD07EE900AFDEEE77A029A17EE901AEF
:100750000DB2558019EE900A01F08AFD07EE900A5D
:10076000FDEEE77A03990298B1F90030B1F9021071
:1007700017EE90CA0FFA8CF282809819039BB3F996
:100780000430294413440FEE103A07EE900A0EEE9F
:10079000901A069BB8EECFFAF8EEE77AF8EEEEEA9A
:1007A000012B2FEE2BFA67EEAB7A6EEEABEA40F33D
:1007B0003683DDE9086535F9043C09EE903AB5F970
:1007C0000230F8EEE99A07EE103A69EE8A9AB8EE2E
:1007D000C77A17EE900AEBEE079A063DEAEEA79A63
:1007E00001F046FDB5F9043007EE100A0EEE103A9E
:1007F000B5F90A30BDEEC77A07EE903AB8EECEEA08
:1008000017EE100AF8EEE77A2EEE0AEA28811EEEBD
:10081000900AABEE27EA01F02BFDB5F9063007EEA2
:10082000100A09EE103AB5F90C30BDEEC77A07EEA2
:10083000903AB8EEC99A17EE100AF8EEE77A29EE68
:100840000A9A68811FEE100AABEE279A01F010FD9C
:1008500007EE900AFDEEE77AAAEEAEEA17EE900AEE
:10086000AAEE8F9AA881AE42F0EE697AF0EE4EEAD7
:10087000B0EE49FA9FD119EE900A01F0F9FC07EEAB
:10088000900AFDEEE77A1EEE100A17EE903A1EB2BD
:10089000268101F0EDFC07EE900AFDEEE77A19EEF5
:1008A000100A17EE903A1DB2658101F0E1FC07EEE7
:1008B000900A059BFDEEE77A013B9AB217EE903A5B
:1008C0001BB20592A381002A51D007EE906AB8EEC0
:1008D000E79A07EE905AF8EEE7FA07EE903AF8EE4C
:1008E000E79A8DE607EE903AF8EE677AB3EE0E7A65
:1008F00078EE677AF4EEC77AF1EE10FA7FF78CACF7
:10090000002318460DF20C5DBDEC108BBDE8F08F96
:1009100018EE902A1946594B521A9A420AD8584949
:100920009BF814308A4218D9003318BF01238BF882
:10093000143071E400238BF814306DE433EE444A34
:10094000B4EEEC4AF1EE10FA3FF798AD01210D91AB
:100950009AE59FED4CAA0A467AE54B498A427FF612
:1009600054AC022B28BF02238BF8143054E4DBF87C
:1009700054200692079902F572423032914251D9C1
:100980004EF6602291421ABFA1F56A42603A059A7A
:10099000BBF852700B990292BBF95820B94202F190
:1009A000010200F0EC82521A92FBF7F107FB1122D0
:1009B0000FFA82FEBEF1000FBCBFD2190FFA82FE01
:1009C000BDF92CA0BAF1000F28DD069A0299BBF8F8
:1009D0005080A2EB010C002003E0013002B29245EE
:1009E0001ADD0EEB000191FBF7F207FB121212B2B7
:1009F00002EB42020BEB8202D16D1CEB0101D165CF
:100A0000EBD5B8F1000FE8D0013002B208F1FF38A1
:100A100092451FFA88F8E4DCABF85080029ACBF8D4
:100A200054200692B4F910E0B4F90EC0B4F9127073
:100A3000BBF85020DFED157ADFED155A0392AEEBCF
:100A4000050505FB05F5ACEB060606FB0656FB1A8D
:100A500003FB0363BBF95820029301200023BBF87A
:100A600052A005929FED0B5A08932DEE27DA6CEEFB
:100A7000255A0546F7EE004A1AE000BF008D270010
:100A8000002F0D0000000000809706000AD7233CCD
:100A90009A99993E1F856B3F00EB400304EB43039B
:100AA000CDED027AB3F908C0B3F90AE0B3F90C70DE
:100AB0006B1C03EB430304EB4303B3F90A10B3F9D4
:100AC0000820B3F90C60A1EB0E0101FB01F1A2EBD0
:100AD0000C0202FB0212F31B03FB032307EE903A06
:100AE000B8EE677AB4EEC7DAF1EE10FA44D49DEDB1
:100AF000027AB8EE477AB4EEC7DAF1EE10FA3BD4D8
:100B00000EFB0EF30CFB0C3307FB073307EE103A1A
:100B1000B8EEC77AF1EEC76A36EECC6AB0EEC66AB6
:100B2000F4EEC65AF1EE10FA26D476EEED6AF0EE47
:100B3000E66AF4EEEC6AF1EE10FA1DDC039B002B82
:100B400040F07481049B07995A1BDBF86434013A26
:100B500003FB1213069A002A00F0F9819B1A012266
:100B6000CBF85C3000230392ABF860C0ABF862E0D6
:100B7000ABF8647008920593013000B24845054611
:100B80008ADB039A9BF84C30ABF85020089A1A4342
:100B90001346059AABF85820069ACBF854200D9AC4
:100BA0008BF84C30002A40F0D180002B3FF4A8AEE7
:100BB000DBF81050D5B1079801F0ECFBE9A3D3E9BD
:100BC000002301F031FC064628460F4601F0E2FB07
:100BD00002460B463046394601F014FD00224FF024
:100BE000804301F081FD00287FF48AAE9BF86C34CD
:100BF000BBF85070012B00F0CA810A2F7FF680AE3F
:100C0000D54B93ED009A00230025194662A83422A3
:100C10008DF846308DF847301693ADF85C3012955C
:100C200013951495159501F065FDBBF852E0BBF9DD
:100C30005830BE4503F1010300F0AD81DB1B93FB8F
:100C4000FEF20EFB12331AB2002A029202DA734449
:100C50001BB20293029B03EB43030BEB8303B3F939
:100C60006010B3F96260B3F964C0002F00F0B08186
:100C700000221346E246B14688460298184490FB8B
:100C8000FEF30EFB13031BB203EB43030BEB8303D7
:100C90000132B3F96050B3F96200B3F96430A9428C
:100CA000B8BF2946A845A8BFA8468642B8BF064691
:100CB0008145A8BF81469C4512B2B8BF9C469A4563
:100CC000A8BF9A46BA421346D7DBA1EB080107EE4C
:100CD000901AF8EEE77A9FEDA17A9FEDA16AC7EE30
:100CE000095A25EE866AB4EEE76AF1EE10FA29DCBD
:100CF000A6EB090607EE106AB8EEC77AB4EEC76A2B
:100D0000F1EE10FA1EDCACEB0A0C06EE90CAF8EE1F
:100D1000E66AB4EEE66AF1EE10FA13DCB0EE046AAD
:100D200065EE865AF4EEE75AF1EE10FA0AD4B4EE04
:100D3000E57AF1EE10FA05DCF4EEE56AF1EE10FA70
:100D400040F34B8100238BF84C30DAE50A9A002AF5
:100D50007FF42BAF804A0F9DD2ED007A0C9AF7EE0C
:100D6000006A86EEA77A02EB420204F1060C0CEB55
:100D7000420C0A9A11461046B5F908E0B5F90A7016
:100D8000B5F90C600635AC45724438443144F3D1B2
:100D9000049D92FBF5F507EE905AF8EEE77A7FADE9
:100DA000B4EEE77AF1EE10FAC5E90020A96000F18F
:100DB0000A81F1EE476AF4EEE76AF1EE10FA03DD1C
:100DC00077EE277ACBED067A6A68049992FBF1F206
:100DD00007EE902AF8EEE77AB4EEE77AF1EE10FA31
:100DE00000F1EC80F1EE476AF4EEE76AF1EE10FAFA
:100DF00003DD77EE277ACBED077AAA6892FBF1F252
:100E000007EE902AF8EEE77AB4EEE77AF1EE10FA00
:100E100040F1C88037EEC77A8BED087AC5E6B0EEB0
:100E20004F9AB0EE6EEAF0EE679A24E5059B013327
:100E30000293039B9A4500F09B801A46029B9A1AE4
:100E400092FBFAF10AFB11210AB2002ABCBF0AEB9D
:100E5000010212B2039B5E1E36B2002E50DBB118A7
:100E600091FBFAF30AFB13131BB203EB43030BEBE7
:100E70008303B3F86280B3F86010B3F8643018FBF2
:100E80000EF811FB0C8817FB038806EE908AF8EE2B
:100E9000E66A86EE876AB4EEC56AF1EE10FA3FF7AD
:100EA0006BAE039BA3F10208C4EE876A02FA88F8CE
:100EB00022E098FBFAF30AFB13831BB203EB430314
:100EC0000BEB830308F1FF38B3F86210B3F860202E
:100ED000B3F8643011FB0EF11CFB021217FB032365
:100EE00007EE103AB8EEC77A26EE877AB4EEC57AE6
:100EF000F1EE10FA3FF740AE013E36B2731CD8D186
:100F0000029B93FBFAF10AFB1131049B079E5A1BCB
:100F1000DBF86434039D09B2013A013503FB126327
:100F20000591069A01EB41010BEB81015545A3EBBD
:100F30000203A8BF5546AAB2CB6501230392A1F8CC
:100F400060C0A1F862E0A1F86470089314E606930B
:100F5000039B04E6AFF30080000B0020CDCC8C3F58
:100F60009A99993FFCA9F1D24D62503F00000000D0
:100F7000029B93FBFAF20AFB123212B26AE70846AE
:100F800092FBF1F100FB11220FFA82FE18E5052F0A
:100F90003FF636AEB4E493FBF7F207FB12331BB215
:100FA000029357E6F1EE476AF4EEE67AF1EE10FAB4
:100FB00044BF37EE277A8BED087AF6E577EEC77AED
:100FC000CBED077A19E777EEC77ACBED067AFBE629
:100FD0005FED1A7AE246B1467DE6DBED066A9BEDEF
:100FE000077ADBED087AFDEEE66A0DF14703BDEE08
:100FF000C77AFDEEE77A009316EE903A17EE901A54
:10100000ADF8603017EE103AADF86410ADF862300C
:1010100014AAB0EE490A18A815ABC34901F074FB35
:10102000DFEDC27A9DED157AB4EEE77AF1EE10FAB3
:1010300007D59BF86C34012B03D00A9B002B40F0A2
:10104000CC800DF1C80A0023002219461C93CDE97B
:101050001D33CDE92B33CDE92D33CDE92F3331933A
:1010600001204FF07E537FAD8DF86E00CAF804204A
:10107000CAF80820CAF80C20CAF81420CAF81820A8
:10108000CAF81C20CAF80020CAF810307022CAF82A
:101090002030A74F1A9740F202262846ADF86C6020
:1010A00001F028FBBBF85020BBF85210BBF95830B8
:1010B0008A4203F1010301F0A8809B1A93FBF1F02F
:1010C00001FB10331EB2002EBCBF5B181EB207EE30
:1010D000902AB8EEE77A002A00F02D83DFED957AAA
:1010E0000020F0EE676AB0EE676A871997FBF1F3AC
:1010F00001FB1373DBB203EB43030BEB8303013000
:10110000B3F9607004EE907AB3F96270B3F96430A9
:1011100005EE107A05EE903AF8EEE44AB8EEC55ABC
:10112000F8EEE55AC0B2824236EE246A76EE856A5F
:1011300077EEA57AD9D8C6EE079A002086EE87AA60
:10114000C7EE87AADFED7B7AF0EE675AB0EE675AFA
:10115000F0EE674AB0EE674AF0EE673A871997FB00
:10116000F1F301FB1373DBB203EB43030BEB8303DC
:101170000130B3F9607006EE107AB3F96270B3F91A
:10118000643006EE907A07EE103AB8EEC66AF8EED2
:10119000E66AB8EEC77A36EE696A76EECA6A37EE64
:1011A0006A7AC0B28242E6EE063AA6EE264AA6EE79
:1011B000A65AE6EE074AE6EE875AE7EE077ACDD85A
:1011C000CDED2B3A8DED2C4ACDED2D4A8DED2E5ADD
:1011D000CDED2F5ACDED307AB3E29BF81430032BCE
:1011E00000F0A282544DCBED048A0FCD62AC0FC447
:1011F0000FCD0FC40FCD0FC42A68DBF84830226032
:10120000032100228BF814108BF84C20002B00F0E7
:10121000558207EE903AF8EE677A9FED487A38EEFD
:10122000678AB4EEC78AF1EE10FA00F15282DFED60
:10123000447AB4EEE78AF1EE10FA40F14F8237EECD
:10124000488AF7EE008A9FED3F7ADFED3A7AF0EEBA
:10125000686AE8EE076AB6EE007A26EE878AB4EE90
:10126000E78AF1EE10FAB8BFB0EE678A78EEC88A66
:101270009DED637ADDED667ADBED066A9BED096A2A
:1012800028EE877A68EEA77AA6EE887AE6EE087AE4
:1012900017EE100ACBED097A00F0EAFF9DED647AB3
:1012A000DDED6A7ADBED076A9BED0D6ACBF818007D
:1012B00028EE877A68EEA77AA8EE267AE8EE067A14
:1012C00017EE100ACBED0D7A00F0D2FF9DED656AA6
:1012D000DDED6E7A9BED087ADBED116ACBF81C0030
:1012E00068EEA77A68EE868AE6EE887AE7EE088AE4
:1012F000CBED117A18EE900A00F0BAFFCBF820007F
:10130000079801F047F806A3D3E9002301F08CF811
:1013100001F0DCFA0123CBF84800FFF7F2BA00BF76
:10132000FCA9F1D24D62503FC40600200AD7233DEC
:101330000101010200000000B40600200000F0429C
:101340000000E1459D1A9438ABAAAA3E9A99993EAD
:1013500000247449BD3786350AD7233C9A99193E33
:10136000CDCC4C3E8FC2753DB0EEC77A87EE0B6A8E
:10137000F1EE007AB1EEC67A22EE272AF1EEC77AB4
:10138000F7EE005A87EE825AF7EE007AB4EEE7CA1B
:10139000F1EE10FA3BEE8C7AF4EEE56A37EEC5BA60
:1013A0004CBF77EECC7A7CEE677AF1EE10FA4CBF48
:1013B00075EEE65A76EEE55A1FED1D6A37EE267A8F
:1013C000F4EEE57A27EE067AB7EE006AF1EE10FA4F
:1013D000F4EEC6BAB8BFF0EE657AF1EE10FA4CBF83
:1013E00036EE6B6A3BEEC66A3BEEC77AF4EEC67A1F
:1013F000F1EE10FAB8BFF0EE467AB0EEC77A1FED04
:101400002D6AB4EEE77AF1EE10FAF4EEC67AB8BFC0
:10141000B0EE677AF1EE10FA7FF594AC5FED307ABA
:10142000B4EEE77AF1EE10FA7FF58CACF6EE007AC6
:10143000B4EEE75AF1EE10FA3FF784AC5FED3CEA08
:101440001FED3CEA66EEAE7A17EE900A00F010FF50
:1014500007EE900A2CEE2E7A67EE8E7A17EE100ABF
:10146000CAED007A00F004FF07EE900A2BEEAE7A88
:1014700067EE8E7A17EE100ACAED047A00F0F8FED5
:1014800007EE900A39EEAD7A67EE8E7A17EE100A03
:10149000CAED087A00F0ECFE07EE900AFDEEE77A5E
:1014A00017EE903A7DEE0A7AADF8583017EE900AB2
:1014B00000F0DEFE07EE900AFDEEE77A17EE903AB6
:1014C0007AEEAC7AADF85A3017EE900A00F0D0FE02
:1014D00007EE900AFDEEE77A0DF1460317EE904A0B
:1014E000009312AA13AB5146B0EE490A16A8ADF804
:1014F0005C40CBED048A01F007F9BBF850109DF871
:1015000046205FED6B6A1E2303FB01F307EE903A62
:1015100007EE102AF8EEE77AB8EEC77A67EEA67AF9
:10152000B4EEE77AF1EE10FA3FF70CACDDED133ACA
:101530005FED767AF4EEE73AF1EE10FA3FF702AC9F
:10154000DDED157AF4EEE73AF1EE10FA04DD9DF8E0
:10155000473093427FF6F6AB0A9B002B6FD1BDF963
:1015600058209BF86C349BED061A9AED004ADBED8F
:10157000071A5FED852A9BED082ADAED044A9AEDF9
:10158000085A06EE902ABDF95A20B7EE006A07EE17
:10159000102A012BBDF95C20F0EE085AF8EEE66A3D
:1015A00018BFF0EE465AB1EE043A33EE653A07EE54
:1015B000902AB8EEC77A66EEA56AF8EEE77AE1EE11
:1015C000036A27EE257A34EE464AA3EE217A67EEC7
:1015D000A57A24EE224AE3EE027A66EEA26AB0EE23
:1015E000463AA4EE253A74EEC64A35EE465A27EE40
:1015F000227AFDEEE66A64EEA24A16EE903A25EEF5
:10160000225A67EEA27ABDEEC77AB0EE434AB0EE38
:10161000463AA4EEA53AADF85830A5EE856A17EE25
:10162000103AFDEEE77AADF85A3017EE903A8AEDAF
:10163000004AADF85C308AED043A8AED086A83EE20
:101640008B6ABDF95830DAF81000DAF820106A9089
:1016500003226E918DF8882106EE903ABDF95A303A
:101660005FEDC05A07EE103ABDF95C3007EE903AD4
:10167000F8EEE66ADAF800306693B8EEC77AF8EE6C
:10168000E77AB4EEE56A0123F1EE10FACDED636A74
:101690008DED647ACDED657A8DF8893140F3BF85A3
:1016A00002238DF88831DBF8483000228BF84C207B
:1016B00023B19BF81420032A3FF4ABAD62AD0FCDEC
:1016C000B04C0FC40FCD0FC40FCD0FC42B682360D7
:1016D00016E6F6EE008AB0EE688AC9E59FEDAA7AB2
:1016E000B4EEC78AF1EE10FA19D537EEC88ADFEDED
:1016F000A76A9FEDA77AF6EE007AB0EE676AA8EEC9
:10170000266AF7EE008A26EE278AB4EEC78AF1EE43
:1017100010FAB8BFB0EE478A78EEC88AA8E5DFEDC8
:101720009D8A9FED9D8AA3E50023CBED048A8BF86B
:101730004C30FFF7E6B8DFED969AF0EE69AAB0EE0E
:1017400069AA2B992E9A309B3B912C993F924393F7
:101750002D9A2F9B3C913E913BA81CA93D92419212
:101760004093429301F0C6F8DDED1D7ADDED1C6A71
:101770009DED1E7AF0EEE77AF0EEE66AF4EEE67A98
:10178000F1EE10FAB0EEC77AB4BFB0EE666AB0EE12
:10179000676AB4EEC67A88BFF0EE667AF1EE10FAA8
:1017A000F4EEC77AA8BFB0EE476AF1EE10FA88BF30
:1017B000F0EE477AB2EE0E7A67EE877AB4EEE76A19
:1017C000F1EE10FA3FF7BEAADFED717ABBF85010C8
:1017D000BBF85200CDED027A0022CDED037AF0EE97
:1017E000672AB0EE672AF0EE671AB0EE671AF0EEDD
:1017F000670AB0EE670AB0EE67BAF0EE67BAB0EE0D
:1018000067CAF0EE67CAB0EE67DAF0EE67DAB0EEFC
:10181000674AF0EE673AB0EE673AB0EE67EAF0EE8C
:1018200067EAB0EE67FACDE92B22CDE92D22CDE9AA
:101830002F2231920C275CE09CFBF0F300FB13C3DA
:10184000DBB207FB03B3B3F960C006EE90CAB3F98D
:1018500062C0B3F9643007EE10CA06EE103AF8EE33
:10186000E66AB8EEC77AB8EEC66A76EEE96A36EE90
:101870006A6A37EE4A7A66EEA64A27EE075A66EE9D
:10188000065A66EE87FAA6EEA4CAE7EE24BAA6EEDA
:1018900024BAA6EE850AE7EE050AA6EE051AE6EEDC
:1018A000A51AA7EE252A66EE866A27EE067AE6EEE8
:1018B000252A9DED026AA6EEA6DA76EE266AA4EE49
:1018C000A4FACDED026ADDED036AE5EE05EAA5EEC8
:1018D000A5EAEFEEAFDAE7EE07CA36EE877A33EE27
:1018E000243A73EE853A34EE254A77EEAF7A8DEDE1
:1018F000037AD3B28B4203EB060C02F101029BD3B5
:10190000DDED036A85ED00FA07EE101AC5ED176AE2
:10191000B8EE477ADDED026AC5ED07EA032385EDEF
:101920000DEA85ED123AC5ED163A85ED194AC5ED79
:1019300001DA85ED02DAC5ED08CA85ED03CAC5ED09
:1019400004BA85ED05BA85ED090AC5ED0A0A85EDEB
:101950000B1AC5ED0E1A85ED0F2AC5ED102AC5ED3F
:10196000146AC5ED137A85ED063AC5ED0C3A85ED9E
:10197000114A0DF1680885ED1B7A03934FF00009B9
:1019800079E000BFB406002000C0A84744337E368B
:10199000000000003333733FCDCC4C3D6F12833ACF
:1019A00098F800200692059A069ED0ED006AA2EBF8
:1019B0000909029A16FB02F607EE906AF8EEE77A3A
:1019C00009F1060907EE102A67EEA67A4B44052FA7
:1019D00005EB8303B8EEC77AC0ED007A46D098F8DD
:1019E0000100D1ED006A10FB02F007EE900AF8EE5C
:1019F000E77A042F67EEA67A1646C1ED007A35D055
:101A000098F80210DEED006A11FB02F107EE901A61
:101A1000F8EEE77A032F67EEA67ACEED007A25D0AE
:101A200098F80310DCED006A11FB02F107EE901A42
:101A3000F8EEE77A022F67EEA67ACCED007A15D0A1
:101A400098F80410089A11FB06F107EE901AD2EDEF
:101A5000006AF8EEE77A67EEA67AC2ED007A2FB94F
:101A6000D3ED007A67EE877AC3ED007A039BDDF849
:101A700010900833039309F101030222049303FB3E
:101A800009F393FBF2F318F8012B0292039A5B42DD
:101A9000901E511E02EB030E029A4FEAC90712FB79
:101AA00002F2FE1807EE902A05EB860696ED007A04
:101AB0000597F8EEE77A07F1040C05371F4467EE47
:101AC000877A05EB8702184419449C44B9F1060F44
:101AD00005EB800005EB810105EB8E0E05EB8C0C10
:101AE00008925FFA89F7C6ED007A7FF459AF2E4667
:101AF0002B46D3ED006A95ED1B7AC6EE877AE3ECB0
:101B0000017A9C42F5D1002495ED13CAD5ED19DA7E
:101B1000D5ED14BA95ED17BA95ED16DAD5ED12CAD2
:101B200025944FF07C533C22214670A8279329939B
:101B3000269428942A9400F0DDFD6DEECC6A2BEEFD
:101B40004B6AEBEE8B6A6FAB1FA8ADEE2D6A73AAE2
:101B5000426066EE8C7A2DEE6B7AE6EE2C7A77AAEE
:101B60000360ACEE0B7A82605FED745A83ED006A1D
:101B7000E7EE2B7AC3ED046AB0EEE76AB4EEE56AED
:101B8000F1EE10FA83ED087A33DDB7EE006A86EEE7
:101B9000275A22466BEE6C7A6BEEEB5A2CEE4C6AAF
:101BA000ECEE2B7AECEEAD5AACEE8D6AC3ED097A11
:101BB000C3ED067AC3ED055A83ED0A6AC3ED016AE7
:101BC00083ED027A50F82210D1ED006A91ED017A8E
:101BD000D1ED027A66EE856A27EE057A67EE857AA0
:101BE0000132032AC1ED006A81ED017AC1ED027A6A
:101BF000E8D1D5ED046AD5ED0A7A93ED014A95ED69
:101C00001BBA95ED03EA93ED000AD5ED09CA95EDEF
:101C10000F6A95ED0ECAD5ED05BA95ED0B1AD3ED09
:101C2000054AD3ED02FA93ED047A93ED095AD5ED06
:101C3000062A93ED032A95ED0C3A93ED08DAD5EDDB
:101C4000101A93ED06FAD3ED0A0AF7EE005AC5EE24
:101C50008B3A0DF588784AA9CDF80880039156AAE9
:101C60004FF0030C4FF0000E66EE84EA67EE845AE4
:101C7000EEEE00EAECEE805A26EE044A66EEA4DAB6
:101C8000ACEE004AEBEEAFEA27EEA40AE1EE2F5AE3
:101C900066EE244AEEEE07DAACEE870AECEE074A6F
:101CA00026EE857AE2EE82EAE3EE025AAEEE0D7A95
:101CB000EBEE8FDAA1EE0F0AE1EE8F4AA1EEAF4A0A
:101CC000B0EE65FACDED56EAD5ED115AD3ED07EA3F
:101CD0008DED57FAABEEA07AE2EEAEDAA3EE2E0A65
:101CE000A5EE824AE5EEAE4A93ED0B2ACDED59DA28
:101CF000A2EE827A8DED5A0A8DED584ACDED5B4AFF
:101D0000D3ED0DEAD3ED0CDA8DED5C7A6EEEA66ABA
:101D100027EE857A26EE055A6EEEA77A2EEE866AB3
:101D2000EDEE8E6A0495ACEE8D7AACEE0D5AEDEECA
:101D3000AC7AADEE8C6A93ED0E0AC3ED0F3AE0EE8D
:101D40002B6AA1EE207AA1EEA05AE0EE017AA0EE75
:101D5000216AE3EEA26AA3EE027AA5EE825AE3EECE
:101D6000837AA3EEA56ACDED5F6A8DED5D7A8DED88
:101D70005E5ACDED607A8DED616A33E092ED037AC3
:101D8000D2ED002A27EE877AD3ED007AA3EE227AED
:101D9000D2ED062A92ED093A77EEC77AE5EEA27AFD
:101DA000E6EE837AC8ED017AC8ED037ABEF1000F42
:101DB0000DD1D0ED007A029B77EEE37AE5EE857ADD
:101DC000E6EE867AC3ED027A039BC3ED007A029BAE
:101DD0000C330293039B04330CF1070C08F1100839
:101DE0000393AE460EF1010502210EFB05F393FBB2
:101DF000F1F35B420CEB03010DF5A16000EB8100F8
:101E0000F2EC016AA0F54270D0ED007A92ED027A10
:101E100092ED052AD2ED082A0DF5A16000EB8100B4
:101E2000A0F5437090ED003A27EE877A0DF5A1609A
:101E3000A3EE267A03EBCE0300EB830700EB8104CD
:101E4000A7F54377F0EE476A00EB830397ED007A3E
:101E50002046A4F54174D4ED005A37EE667A0DF5AC
:101E6000A164F1EE655A04EB8101A5EE827AA1F539
:101E70004071BEF1020FD1ED006AF1EE666AA6EE86
:101E8000A27AA3F54273A0F5447067EEA43A88EDF8
:101E9000007AE3EE043A7FF471AFDDED4B1A9DED6D
:101EA000484ADDED284A9DED453A9DED297A9DEDA4
:101EB0004A6ADDED492A9DED4C2A9DED461ADDED7D
:101EC000275A049DF6EE007A21EEA75A64EE076ABF
:101ED000F0EE453AE4EE243A4DA822A926EE276A10
:101EE000E3EE273AE3EE276A9DED473ACDED513A0E
:101EF00022EE877AF0EE463AA4EE275AE3EE243A31
:101F0000A5EE817A62EE275A8DED4E5AB0EE654A03
:101F1000A2EEA44A9DED2A5AF0EE634ADDED443A62
:101F2000E1EE856AA5EE027A23EEA75AA1EE274AD2
:101F3000E2EEA75AA3EE276AE3EEA74AA3EE275ADA
:101F40008DED524ACDED546A8DED557ACDED4F5A57
:101F50008DED4D6ACDED504A8DED535A00F0CAFC1F
:101F6000DDED4D5A9DED236A9DED223ADDED534A9C
:101F70009DED4F7A9DED514A9DED555ADDED527A1A
:101F8000DDED503ADDED4E2A35EEC66A24EE877A55
:101F900076EE436A64EEA77A36EE844A36EE855AC8
:101FA000DDED546AA2EEA37A63EEA66AE3EE847ACC
:101FB000E4EE856A75EEC35AF0EEE77AA5EE867A0E
:101FC00086EEA7CAC7EE27BA6CEE0C7AF7EE00CA07
:101FD000EBEEAB7A77EEAC7A17EE900A00F05CF994
:101FE00000F080FD00F0A2F907EE900ACCEE275A2F
:101FF000CCEEA74A8BEEA75A9DED586A9DED574A45
:10200000DDED5B6A9DED5E7ADDED617A9DED5A3A1C
:10201000DDED5D3ADDED562A8DED2B5A25EE866A13
:1020200065EEA66AA4EE846A25EE877A9DED604A85
:10203000CDED2D5A65EEA77AE4EE836AA3EEA47A7D
:10204000E4EE247A9DED593ADDED5C3A9DED5F4A70
:10205000CDED2C4AA5EE226AE5EE036AA3EE857A61
:10206000E5EE047AF5EEC05AB1EE466AF1EE666A24
:10207000B1EE477AF1EE677AF1EE10FA8DED2E6A45
:10208000CDED2F6A8DED307ACDED317A00F1D28031
:10209000DDED2F3A9DED2C5A9DED2E4A9DED2B6ADC
:1020A000DDED305ADDED2D4A9DED313AD5ED1A2AA0
:1020B000D5ED001A9FED697AF1EE637A87EE85DA45
:1020C0002BAB012000210224F1EE447AC7EE86DA20
:1020D000F1EE657AC7EEA4CA63EE8D7AB7EE001A08
:1020E000E4EE2D7AF1EEE4BA77EE837AB1EEC5CA6A
:1020F000E5EEAC7A65EEA22AF0EEE77AB1EEE72AD9
:1021000066EE211A69EE027AC1EE276AF1EEC67A0E
:1021100066EEABBA26EE8CCA66EEA76A3BE0D6ED59
:10212000007A012A66EE277A3AD096ED061A022A3C
:10213000E5EE017A00F0888096ED0B1A032AE4EEB2
:10214000817A00F0878096ED0F1A042AE1EE047A76
:102150007DD096ED121A062AE3EE817A5CD177EEF5
:10216000A27A01FB00F292FBF4F2A9EB020205EB6A
:102170008202D2ED000AB3EC011AE3EE207A0131BB
:10218000072900F1010009F1070906F10406A1EE93
:10219000277A3FF4E9A8CAB20029C0D1F0EE617AEB
:1021A00001FB00F292FBF4F7A9EB070705EB8707A9
:1021B00017ED051AE1EE057A92FBF4F7A9EB070794
:1021C00005EB870717ED041AE4EE817A92FBF4F72A
:1021D000A9EB070705EB870717ED031AE4EE017A71
:1021E00092FBF4F7A9EB070705EB870717ED021A37
:1021F000E3EE817A92FBF4F7A9EB070705EB87077B
:1022000017ED011AE5EE817AADE793FBF2F602FBDA
:1022100016331EB2FEF75BBF01FB00F2EAE7DFED0B
:10222000107AB4EEE76AF1EE10FAC8BF8DF8883183
:10223000FFF739BA2BABD3ED007AF1EE677AE3EC16
:10224000017A5345F7D123E701FB00F2B4E701FB24
:1022500000F2C5E701FB00F2B8E700BF0000000094
:102260008FC2F53D10B5044600F0B6FC204610BD07
:10227000C0F3C7527E3A09DD182A0CDA6FF07F41AD
:10228000D14020EA510040188843704700F00040D8
:1022900008BF40F07E507047C0F3C75181B1FF299D
:1022A00006D0C110400721F0E04101F160517047B4
:1022B00041020CBF40F4E0016FF000410020704784
:1022C00000F0004100020AD0B0FA80FC00FA0CF0E5
:1022D00001F16051A1EB0C5101EBD0214005704799
:1022E00041EC100B480080B54015401C0ED1480051
:1022F0004015401C01D1090305D151EC100BC80F4A
:1023000018BF9FED080B51EC100B04BD002000908E
:102310000022034B51EC100B00F0B2FC04BD00BFD7
:102320000000F03F000000000000000001F000424B
:102330008B1AA3F16051B1F5801F0ADBB1F17F6FF9
:102340001FD242EAC102C10071F1004142EB50705C
:1023500070470B15C3F10903212B10D2890241EA02
:10236000905180020128494141F0004121FA03F0D7
:10237000C3F12003994071F10041504170471000B2
:1023800070476FF0000013EB103F5CBF000E42EA95
:10239000C0507047014648B1B0FA80F18840C91C6E
:1023A000C1F58461090501EBD02140057047F0B407
:1023B0000246106895681318506803EB5004C00774
:1023C0001DD54D441BE013F8017B05F8017B491E28
:1023D000F9D1A0B1B60813F8011B06F00306032ECD
:1023E00008BF13F8016B01EB06214942801C294408
:1023F00005D011F8016B05F8016B401EF9D1A3421D
:102400000ED013F8016B16F0030104BF13F8011B83
:10241000C91C30090F28DAD113F8010B0F30D6E7A9
:10242000F0BC02F10C007047B0B581EA030C0CF06F
:10243000004C40F2FF7515EA11541DBF15EA135701
:10244000AC42AF4239E0E41923EA455343F4801328
:10245000C90241F0004141EA505EC7021100A7FBEA
:10246000020200284FF00000EEFB01204FF00001B7
:10247000E3FB072118BF42F0010240180021494147
:10248000E3FB0E01A4F580640F0302D25200404129
:10249000494154F101046CDD470872F1004250F1EA
:1024A000000051EB0451A1F580115CBF41EA0C0121
:1024B000B0BD4CEA05510020B0BD05EA1357AC424F
:1024C00014BFAF4241E050EA410E1CBF52EA430E36
:1024D00002E061460020B0BD24423C441BD15FEACB
:1024E000070EF6D0090302BF01460020AEF1140E1C
:1024F000B1FA81F7AEEB070401FA07FE0C37C7F11A
:10250000200100FA07F7C8404EEA000E23EA4553BF
:1025100043F48013A2E733F00043B3FA83F704BF18
:10252000B2FA82FE77440B3FE41BB7F1200E2FBFB7
:1025300002FA0EF3BB40C7F1200E22FA0EFE38BF9E
:1025400043EA0E03BA40641C82E750EA410E14BF0E
:1025500052EA430E6FF000014FF4001717EB430FE0
:102560008ABF194617EB410FB5E74CEA0551002029
:10257000B0BDD4F10104B4F120070FDAC4F1200793
:10258000520828BF42F0010210FA07F501FA07F7D6
:10259000E1BF2A43E0403843E1400FE0352C98DCAE
:1025A000C7F1200452EA400220FA07F218BF42F0B5
:1025B000010231FA07F0A1400A43002172F1004202
:1025C00050F1000051EB0C01B0BD30B4002513E018
:1025D00050F8042BD30744BFA9F101039A18091F2F
:1025E000042942F8045BFAD213468C0744BF1580D5
:1025F0009B1CC90748BF1D7050F8041B0029E7D178
:1026000030BC704770B44FF0004591EA030F40F1C1
:1026100033856B40841A71EB030603D2001BB14172
:10262000121973414FF4001C1CEB410F34BF7CEBBB
:10263000430442E00C0DA4EB1356352E4FDC45EA63
:10264000C323DB0A45EAC121C912B6F120050DDD1D
:1026500063FA05F6EB4086EA0305124218BF45F01F
:102660000105C01851F100010CD213E062FA06F521
:10267000F2405540F3415A40B340F3405A4080186D
:10268000594107D349085FEA30005FEA350528BFA2
:1026900045F0010501F58011420875F1004250F145
:1026A000000041EB04514E0016F5001F70BC38BF0E
:1026B00070470020090D090570471CEB410F10D22F
:1026C00052EA43060BD0BCEB410F05D80C0DAB43CF
:1026D000661E342EB6DD02E0AB438018594170BC53
:1026E000704770BC7047000000B500F07BFD804172
:1026F000404200BD10B5044610460A460146204639
:1027000000F088FD204610BDF7EE007AC7EE803A53
:102710002DE9F04F002414601C60099CDFF8A8C16B
:1027200000252570BCF850E0BCF852509FED644A7B
:10273000BCF95840AE4523EE844A04F1010400F090
:10274000B180A4EB0E0494FBF5F805FB18440FFAD6
:1027500084F8B8F1000FBCBF64190FFA84F8BEF119
:10276000000F00F0A980B0F900B0B0F902A0B0F9F4
:102770000490002717E0099C099E247801343470E6
:10278000D3ED007ABCF850E0E6EEA67AAFB2BE45D3
:10279000C3ED007A67D9B0F900B0B0F902A0B0F982
:1027A0000490BCF8525091ED045A91ED006AD1EDBD
:1027B000086AD2ED004A07EB080696FBF5F405FB24
:1027C000146424B204EB44040CEB8404B4F9626096
:1027D000B4F96050B4F96440A6EB0A0605EE906ABD
:1027E000A5EB0B0507EE105AA4EB090407EE904A7F
:1027F000F8EEE55AB8EEC77A65EE855AF8EEE77A54
:1028000027EE067A67EEA67ABDEEE56ABDEEC77AD8
:10281000FDEEE77A16EE105A17EE106A05FB05F585
:1028200017EE904A06FB065604FB046407EE904A36
:10283000F8EEE77A7D1CB1EEE77A77EE636A34EE64
:10284000877AF0EEE67AB4EEE74AF1EE10FA82ED1E
:10285000007A90D4D3ED007AE6EEA67AAFB277454F
:10286000C3ED007A9DD307EE10EAB8EEC77ADFED2C
:10287000156A87EE876AF1EEC67A60EE277AF4EE83
:10288000E67AF1EE10FAB8BFF0EE667AC3ED007AA0
:10289000D2ED007A20EE270AC0EE077AC2ED007A68
:1028A000BDE8F08F94FBFEF80EFB18440FFA84F895
:1028B000BEF1000F7FF457AFD3ED007AD3E700BF2E
:1028C000CDCC4C3E0AD7A33CA0060020400D4918B1
:1028D00040EA81200CD2490DA1F58061491C40F0ED
:1028E000004005DBD1F11F0154BFC840C01770473D
:1028F00000207047D0ED020AD0ED014AD0ED056A04
:10290000DFED727AD0ED003A20EEA07AA4EEA47A40
:10291000A6EEA67AB4EEE77AF1EE10FA00F1A58001
:1029200010B5D0ED045A90ED083AD0ED062AD0ED5E
:10293000037A90ED076ADFED661A2DED048B35EE14
:10294000A38A9FED649A38EE038A20EEA24A28EE0D
:10295000098AA4EEA74A8AB00C4675EEC85A33EE2F
:10296000C87A25EEA55AA6EE864AA7EE075AF0EEDB
:10297000003AA4EE235A33EE483AB7EE002AA3EE0B
:10298000035AB6EE001A25EE215AFFEE001AF1EEB8
:10299000C58A82EE284AC3EE283A65EE845A22EEB2
:1029A000843A66EE846A67EE842A26EE046A63EE51
:1029B000657A20EE845AE6EE227A26EE666A27EEE3
:1029C000047AA5EEA36A67EE857A63EEE23AE7EE53
:1029D000067AE6EE833A64EE844AE4EEA37A67EE82
:1029E000817AF4EEE17AF1EE10FA52D9F4EEC27A7D
:1029F000F1EE10FA50DBDFED381AF0EE429A78EE85
:102A0000A88AB0EE487AA8EEA97AF0EE087AF0EE3D
:102A1000486AB0EE476AE8EEA16A98EE276A84ED4C
:102A2000007A76EE667AC4ED026AB4EEE77AF1EEE9
:102A300010FAC4ED017A09DDB0EE476A84ED017A3F
:102A4000C4ED007AB0EE677AF0EE467AF4EEC76A2B
:102A5000F1EE10FA10D5C4ED027A84ED017AC4EDDE
:102A6000006A0AB0BDEC048B10BDC1ED003A0369E9
:102A70004B60036A8B607047F4EEE76AF1EE10FA80
:102A800044BFC4ED027AC4ED016A0AB0BDEC048B08
:102A900010BDDFED129AB2E717EE900A00F0EEFBE0
:102AA00007EE900A27EE899A19EE100A00F023FC2F
:102AB000DFED0B7A79EE277A09EE900A17EE900A8D
:102AC00000F019FC01EE900A99E700BFBD3786358A
:102AD000ABAA2A3EABAAAA3E010000BFFFFFFF3E01
:102AE000920A064040F2FF7C0B0D4DD0634566D242
:102AF00030B421EA035141F4801103F2FD3C5FEA56
:102B00005C0C01D300184941890041EA90718000B2
:102B10004FF440140023E202D50AB1F5100107D4A6
:102B20006D081DD2091B641900184941491BF7D5CE
:102B30006D080AD20919641B00184941491BEFD5D9
:102B40006D08F7D301E0520817D0C01861419B1AF5
:102B5000AC4100184941801AA941F4D452080AD066
:102B6000C01AA1419B186C4100184941801AA94123
:102B7000E9D45208F4D15B1C6C4161084FEA330080
:102B800001EB0C5130BC704750EA0103FBD030B46C
:102B9000B1FA81F311B9B0FA80F41B190B3BB3F110
:102BA00020042FBF00FA04F19940C3F1200420FA59
:102BB00004F438BF21439840D3F101039DE76345F6
:102BC00014BF50EA410CDEE711F5801FDBD8D94372
:102BD000AFF300807047000062B38B0708D0521E2D
:102BE00011F8013B00F8013B00F024808B07F6D17F
:102BF000830740F0208000BF103A07D330B4B1E81B
:102C00003810103AA0E83810F9D230BC530724BF6E
:102C1000B1E80810A0E8081044BF51F8043B40F8A0
:102C2000043BD20724BF31F8022B20F8022B44BF0B
:102C30000B7803707047121F17D35B0009D151F84E
:102C4000043B20F8023B1B0C121F20F8023BF6D27B
:102C50000BE051F8043B00F8013B1B0A20F8023B53
:102C60001B0C121F00F8013BF3D238BF121D521E7D
:102C700024BF11F8013B00F8013BF8D87047000071
:102C8000F8B52DED0A8B41EC1A0B48004015109D4C
:102C9000401C43EC182B23D051EC1A0B31F00041AF
:102CA00008BF00281CD051EC180B48004015401CF0
:102CB00016D051EC180B31F0004108BF00280FD09E
:102CC00051EC1A0B0022DFF8483300F08BFA80F049
:102CD000A38055EC184B9FED800B05F00042ACE053
:102CE00051EC1A0B48004015401C02D1090340F07A
:102CF000898151EC180B48004015401C01D1090393
:102D000053D151EC180B31F0004308BF002A08D111
:102D100051EC1A0B48004015401C46D1090344D120
:102D20000DE048004015401C12D1090310D151ECB0
:102D30001A0B48004015401C37D1090335D1AFF3B9
:102D40000080BDEC0A8B4FF0FF306FF00041F4BD06
:102D500051EC1A0B31F0004108BF002828D151EC8A
:102D6000180B4800400D05EB000234D151EC180B54
:102D700031F0004108BF002806D02A4651EC180B5C
:102D800000F0C0FA41EC180B51EC180B20F00002D7
:102D900031F0004308BF002A05D048004015401C10
:102DA00003D1090301D1AFF3008051EC180B2BE1E3
:102DB00051EC1A0B48004015401C26D1090324D1C0
:102DC00053EC1A2B51EC180BBDEC0A8B01B0BDE88B
:102DD000F040FFF729BB002AC8DD40F2FF708242B5
:102DE00009DB9FED9F0B53EC102B01F000410B43CF
:102DF00043EC182BC8E76FF31E5141EA025155EC22
:102E0000184B0D4645EC184BBEE755EC184B9FEDA3
:102E1000320B05F0004210E001227E4B00F010FB67
:102E200011D89FED8F0B51EC100B55EC184BAFF3F5
:102E3000008005F0004040EA010251EC100BBDECAF
:102E40000A8B1146F4BD53EC1A2B73487349FFF7F4
:102E5000EBFA41EC100B53EC102B9FED719B03F040
:102E6000004251EC190B0C46144353EC192B51EC56
:102E7000100B234600F0F8F800F0FAFA044600F0D0
:102E800015FB41EC1B0B53EC1B2B4FF078406649B4
:102E9000FFF7CAFA02460B4651EC1A0BFFF7B2FBDA
:102EA00006460F4653EC1B2B60486149FFF7BCFAFE
:102EB00002460B4630463946FFF7A4FB41EC1A0B9D
:102EC00021F0004100225B4B00F08CF908D2B0EEFB
:102ED00048AAF0EE68AA55E00000000000000000DB
:102EE00053EC1A2B51EC1A0BFFF79EFA41EC1B0B1B
:102EF00053EC1B2B50485149FFF796FA504A514B5F
:102F000000F0B2F853EC1B2BFFF78EFA41EC1C0BD0
:102F100053EC1B2B4C484D49FFF786FA4C4A4D4B5E
:102F200000F0A2F853EC1B2BFFF77EFA53EC192BA1
:102F300000F09AF853EC1A2BFFF776FA41EC190BD4
:102F400053EC1C2B00F090F89FED43AB53EC1A2B85
:102F500000F08AF806460F4651EC1C0B53EC192B77
:102F6000FFF750FB53EC1A2B00F07EF802460B469D
:102F70003046394600F0ACFA53EC182BFFF754FA00
:102F800041EC1A0B51EC1A0B2A194800400D02EBC8
:102F9000000319D0002B17DD40F2FF70834209DBDC
:102FA0009FED2F0B53EC102B01F000410B4343EC32
:102FB0001A2B16E06FF31E5141EA035155EC1A4BE0
:102FC0000D4645EC1A4B0CE051EC1A0B31F0004168
:102FD00008BF002805D051EC1A0B00F093F941EC22
:102FE0001A0B51EC1A0B20F0000231F0004308BF1D
:102FF000002A05D048004015401C03D1090301D127
:10300000AFF3008051EC1A0BBDEC0A8BF4BD00004D
:1030100000C89CC000C89C40FE822B654715F73F46
:10302000000000000000E03F422EE63FF2E4D5BC85
:10303000E7E84B3E0000903C112E5781A03F503FE7
:103040005843128C8F71BC3F4BE8A541B752013FEA
:103050000BBDF3DAE8708C3F000000000000F03F89
:10306000000000000000F07F70B44FF0004591EACE
:10307000030F7FF5CFAA6B40841A71EB030604D2CD
:103080006E40001BB141121973414FF4001C1CEB40
:10309000410F34BF7CEB430683E00C0DA4EB1356C9
:1030A000362E00F37C80012E45EAC32341DC43EA3F
:1030B000525312BFD20292025B08240545EAC12195
:1030C00041EA5051D2EBC020994125D407D1B0FA42
:1030D00080F610FA06F162D00020203608E0B1FA3E
:1030E00081F6B140C6F1200220FA02F21143B0404D
:1030F0004FEAF474B4EB465434F001064FEA74041A
:103100000AD8D6F50016760D04F00044F04061FAB6
:1031100006F25040F1404840C00A40EA415021F0D8
:10312000004128BF5FEA500550F1000044EBD12177
:1031300035E0DB0A45EAC121C90AB6F120050EDDFA
:1031400042EA0242120CC5F1200603FA06F6EB40F1
:1031500042EA06056D42984161F100010DE062FA14
:1031600006F5F240554063FA06FC82EA0C02F34091
:103170005A406D42904161EB030111F4801F05D16B
:10318000641E620502D06D004041494121F4801166
:10319000430875F1004350F1000041EB045170BC4D
:1031A00070471CEB410F15D223F0004352EA43064F
:1031B0000BD04FEA4C0CBCEB410F04D80C0D661E33
:1031C000342EB7DDEBE7801A994150EA410608BF7B
:1031D0000021E4E708BF1CEB430F28BF6FF000019C
:1031E000DDE700004FF4001C1CEB410F94BF1CEB0B
:1031F000430F09E041EA030C50EA4C0C52EA0C0C74
:1032000003D2994208BF9042704714BF8B4282425A
:103210007047000062F30F2262F31F42401810F063
:10322000030308D0C91A1FD3DB0748BF00F8012DDC
:1032300028BF20F8022D130030B41446154610396B
:1032400028BF20E93C00FAD8490728BF20E90C0034
:1032500048BF40F8042D890028BF20F8022D48BF40
:1032600000F8012D30BC7047C91818BF00F8012DB7
:10327000CB0728BF00F8012D7047000000EE100AB0
:10328000734600F003F810EE100A184710EE101AFB
:1032900004204FF07E5201EE902A490088BF08209A
:1032A000490800EE101A914214D871EEC00A0F4A74
:1032B00031EE801A914261EE200AF1EEE00A05D962
:1032C00080F0040080EE800A00F026BA80EE200A2A
:1032D00000F022BA490011F1807F9CBF6FF00041DD
:1032E00000EE101AAFF3008070470000F404353F81
:1032F00010EE100A02BD80B500EE100A00F04AFB85
:10330000F6E70000124254D440F2FF7C1CEA11534D
:103310000FD0634531D09B1863453CBF01EB025190
:10332000704701F0004141EA0C510020AFF30080EA
:10333000704750EA410320D001F0004C91EA0C01A3
:103340001CD0B1FA81F30B3B9A420DD9D21A9940A5
:1033500051EA0C01C3F1200C20FA0CFC61449840A6
:10336000531C40F2FF7CD7E7914041EA0C01C2F1C7
:10337000200C20FA0CF3194390407047B0FA80F308
:103380001533202BE0D3202AEED3203A203B9A425B
:1033900009D9D21A00FA03F141EA0C010020531CAA
:1033A00040F2FF7CB8E700FA02F141EA0C0100208C
:1033B0007047524240F2FF7C1CEA11530DD0634526
:1033C000DBD0B2EB030C3CBFA1EB025170470CF118
:1033D000010221EA035141F4801150EA410CCCD0A2
:1033E00001F0004C352A27DC30B481EA0C01B2F13F
:1033F000200309DAC2F12003044601FA03F5D040A4
:103400002843D1409C400CE0C3F12002450020FA43
:1034100003F418BF44F0010421FA03F091400C4377
:10342000002174F1004550F1000051EB0C012442E1
:1034300030BC7FF47BAF70476146002076E7000028
:103440004FF4001C1CEB410F94BF1CEB430F09E031
:1034500041EA030C50EA4C0C52EA0C0C03D28B42AA
:1034600008BF8242704714BF9942904270470000E3
:10347000C1F30A5340F2FE329B1A14DDD3F120034C
:103480004FEAE17208DDC90241EA505141F00040C3
:10349000D84080185040704703F2E13010B1D24359
:1034A00082F000407047002070470000C11768B1EB
:1034B0004840401AB0FA80F29040D21CC907C2F5C9
:1034C000846241EA025202EBD021400570470000BD
:1034D000F0B540F2FF7581EA030C0CF0004C15EAE0
:1034E00011541DBF15EA1357AC42AF42E5E0BC4191
:1034F000C1F31301C3F31303801A994143F48013FA
:1035000004D2641E4000494180185941C90241EA71
:103510005051B1FBF3F603FB1611A2FB0675D7EB76
:10352000C020A94102D2761E80185941C90241EA41
:103530005051B1FBF3FE03FB1E11A2FB0E75D7EB3E
:10354000C020A94103D2AEF1010E80185941890271
:1035500041EA9051760546EA8E2EB1FBF3F603FB65
:103560001611A2FB0675D7EB8020A94102D2761E68
:1035700080185941C90241EA50514EEA060EB1FB8A
:10358000F3F603FB1611A2FB0675D7EBC020A94189
:1035900002D2761E80185941C90241EA5051B1FB4E
:1035A000F3F703FB1711A2FB0735D3EBC020A941AA
:1035B00067F100070CBF004247F0010766F3D5270B
:1035C0004FEA1E31B80814F5806412DDBD0775F1AD
:1035D000004250EB0E5051EB045111F5801F5CBFBF
:1035E00041EA0C01F0BD4CF07F6141F0E041002068
:1035F000F0BDBD076D0840EA0E5041F48011D4F1D2
:103600000104B4F120060ADAC4F120060200E04009
:1036100001FA06F3E1401843B24015430EE0342CA2
:1036200013DCC6F1200445EA40056D0820FA06F2D5
:10363000154321FA06F0A1400D43002175F1004227
:1036400050F1000051EB0C01F0BD00205FEA0C01CD
:10365000F0BDCFB992185B41B3FA83F704BFB2FA59
:1036600082F6BF190B3FB7F120062FBF02FA06F30F
:10367000BB40C7F1200622FA06F638BF3343BA40F2
:103680001CB1E419641E33E77F4231F00041B1FA06
:1036900081F404BFB0FA80F6A4190B3CB4F1200603
:1036A0002FBF00FA06F1A140C4F1200620FA06F669
:1036B00038BF3143A0403C1B1AE7AC421ABF05EAB1
:1036C0001357AF4212E050EA41061CBF52EA4306CC
:1036D000BFE750EA4107304661461CBF41EA055149
:1036E000F0BD52EA430C08BFC143F0BD00204FF4C7
:1036F000001616EB410F98BF16EB430F08BF16EBF1
:10370000410F24BFC14305E016EB430F0CBF6146D8
:103710004CEA0551F0BD00001AA210EE101A43F257
:10372000A40CC3F6896CF2EC060A614509DB00EED5
:10373000803A70EE800A83EE200A40F0020010EE1C
:10374000101A4900D1F1E6410BD860EE000A20EED4
:10375000203A03EE010A01EEA02A42EE202A80EE72
:10376000220A400810F0020F18BFB1EE400A02EB27
:103770008002D2ED000A30EE200A28BFB1EE400AE6
:1037800070470000D7B3DD3F6AD5033F2B94A93DB6
:10379000B82A593F0000803F000080BF00000000B1
:1037A000920A063FDB0FC93F920A863FDB0FC93FF3
:1037B000920A0640DB0F4940368D2740DFED650A4F
:1037C00060EE200A10EE901A21F0004101EE101A6E
:1037D000DFED611AB4EE611AF1EE10FA27D510EEA2
:1037E000902A4FF07C5102F00042114301EE101A72
:1037F00070EE810AFDEEE00A10EE901A00296ED0FC
:10380000FAEEC90A9FED551A00EEC10ADFED541A0F
:1038100000EEE10A9FED532A00EEC20ADFED522AC4
:1038200000EEE20A9FED511A00EEC10A57E010EED9
:10383000101A49000916491C10EE101A09D1490046
:103840000816401C02D1090240F083809FED480A0F
:103850007047490004D100287BD0B7EE000A7047BA
:1038600010EE902A4FF07C5102F00042114301EE1D
:10387000101A70EE810A10EE902A51000FD0090E36
:10388000C1F196011829A8BF02F0004205DA01290A
:10389000A4BF22FA01F303FA01F200EE902A10EE1F
:1038A000901A490017D09FED331A20EE811ADFEDF0
:1038B0002B1A01EE610A9FED2A2A01EE420ADFED82
:1038C000292A01EE620A9FED283A01EE430ADFED54
:1038D000271A01EE610AFDEEE00A10EE901A10EED2
:1038E000102A22F0004200EE902A9FED231A01F0E8
:1038F0000301F4EE410A0818F1EE10FA00F001019C
:1039000003D511B3B7EE000A1FE060EE000A71B1F3
:103910009FED1A0A9FED1A1A00EE801ADFED191AB0
:1039200041EE201AB7EE000A01EEA00A0DE09FED6D
:10393000162ADFED161A40EE821ADFED152A20EE68
:10394000201A41EEA02A01EE220A800748BFB1EEFC
:10395000400A704783F9223F0000004F0000C9462B
:1039600000A0FD400020A23A000034330030C22EF7
:10397000FFFFFF7F00008038000080399349B2BA12
:1039800036A02A3DDFFFFFBE6E8C4CB94283083C57
:10399000A1AA2ABE012011E7F0B5040081B026D00B
:1039A00094F83D0028B9002184F83C10204600F02E
:1039B000A8FD242184F83D102068026852085200B6
:1039C00002602068016841F40041016020680268DB
:1039D00022F40042026000F064FE01466068DFF8F5
:1039E0003C21904206D2DFF83831994206D20120BC
:1039F00001B0F0BDDFF82C018142F8D32068DFF878
:103A000028514668A1FB0553DB0CB60943EA86162C
:103A1000466025682E6A6068904208D34FF496701D
:103A200010FB03F3DFF80401A3FB00C77B0A5B1C58
:103A3000B60943EA86132B62491E2368DD6966686E
:103A4000964209D27600B1FBF6F1491CC1F30B0195
:103A5000042919D2042117E0A06838B906EB4606FC
:103A6000B1FBF6F1491CC1F30B0108E019204643F4
:103A7000B1FBF6F1491CC1F30B0141F4804108058B
:103A80000CBF012141F40041DFF8A40005400D43C3
:103A9000DD6122681368E169206A23F0C0030B43EB
:103AA000034313602268DFF88C00936821690340A8
:103AB000E0680B43034393602168CA68A3696069A7
:103AC000120A034343EA0222CA602068016841F0F7
:103AD0000101016000202064202184F83D10206352
:103AE00084F83E0001B0F0BD10B5040001D1012002
:103AF00010BD242084F83D00206801684908490071
:103B00000160204600F027FD0020206484F83D007D
:103B1000206384F83E0084F83C0010BDA1860100BB
:103B200080841E0000093D0006BD3786986E128312
:103B30000030FFFF007CFFFF2DE9F04383B0064615
:103B40000F469046994600F0FDFD054696F83D006B
:103B5000202815D1306881698A0766D500F0F2FD0A
:103B6000401B1A28F6D300203063202186F83D1030
:103B700086F83E00316C41F02001316486F83C004B
:103B8000022003B0BDE8F083716A0A780261706AAE
:103B9000411C7162308D411E3185708D411E7185D1
:103BA000308D002800F08980306841690A066FD4A2
:103BB00041694A0510D56FF480614161002030638E
:103BC000202186F83D1086F83E00316C41F004015A
:103BD000316486F83C0077E014F1010FE4D000F086
:103BE000B1FD401B844201D3002CDDD100203063A5
:103BF000202186F83D1086F83E00316C41F020010E
:103C0000316486F83C005FE03068016841F400717F
:103C10000160202086F83D00002186F83E1000203B
:103C200086F83C0003B0BDE8F08396F83C1001290B
:103C3000A6D0012286F83C200168CA0703D4016897
:103C400041F001010160394637680C9C0B98DDF8A2
:103C500028C0D7F800E02EF4006EC7F800E0212756
:103C600086F83D704B46402786F83E704246002756
:103C70003764C6F824C07085DFF8A073708D308576
:103C8000F76201950094304600F0CEF920BB87E73B
:103C9000716A0A780261706A411C7162308D411E3E
:103CA0003185708D421E72853068426953077FF5F9
:103CB00077AF89B200297FF467AF2A4621463046A4
:103CC00000F07EFB00289FD0306C042804D13068BF
:103CD000016841F400710160012003B0BDE8F08388
:103CE0002DE9F04383B006460F469046994600F012
:103CF00029FD054696F83D00202816D130688169D7
:103D00008A0740F1B68000F01DFD401B1A28F5D34C
:103D100000203063202186F83D1086F83E00316C8B
:103D200041F02001316486F83C00022003B0BDE878
:103D3000F083012811D13068016821F480610160AD
:103D40000020009031684A6900928B6900930098C6
:103D50000A6842F400720A6023E002280CD130683D
:103D6000016821F4806101603068026842F40062F9
:103D700002600020009001E00021009131684A6952
:103D800000928969009100980BE00169706A0170E6
:103D9000716A4A1C308D7262411E3185708D411EE0
:103DA0007185308D002800F09D80042880F0A68069
:103DB00001282AD1306841694A06E6D44169CA0619
:103DC00011D400F0BFFC401B844201D3002CF1D180
:103DD00000203063202186F83D1086F83E00316CCB
:103DE00041F020010AE06FF01001416100203063D2
:103DF000202186F83D1086F83E00316C316486F84B
:103E00003C00012003B0BDE8F083022840F0908020
:103E1000306841694A0700F1A48014F1010FF7D01E
:103E200000F090FC401B844201D3002CF0D1002014
:103E30003063202186F83D1086F83E00316C41F059
:103E40002001DBE714F1010F00F0B48000F07AFCF0
:103E5000401B844202D3002C40F0AC800020306331
:103E6000202186F83D1086F83E00316C41F020019B
:103E7000C4E796F83C1001293FF457AF012286F8B9
:103E80003C200168CA0703D4016841F001010160C8
:103E9000394637680C9C0B98DDF828C0D7F800E04D
:103EA0002EF4006EC7F800E0222786F83D704B46DE
:103EB000402786F83E70424600273764C6F824C083
:103EC0007085DFF85871708D3085F7620195009428
:103ED000304600F049F9002893D1308D00287FF456
:103EE00028AF2EE7202086F83D00002186F83E10FE
:103EF000002086F83C0003B0BDE8F08330684169DB
:103F00004A0674D44169CA063FF56DAF00F01AFC49
:103F1000401B844201D3002CF0D1002030632021CB
:103F200086F83D1086F83E00316C41F0200165E7CF
:103F3000306841694A072CD414F1010FF8D000F021
:103F400001FC401B844201D3002CF1D100203063DE
:103F5000202186F83D1086F83E00316C41F02001AA
:103F60004CE7016841F40071016030680169706AD2
:103F70000170716A308D4A1C411E72623185708DEC
:103F8000411E718532681069716A0870706A421C3E
:103F900000E7026822F48062026030680169706A9A
:103FA0000170716A308D4A1C411E72623185708DBC
:103FB000411E7185306841694A077FF543AF01684A
:103FC00041F40071016030680169706A0170716AC2
:103FD000308D4A1C411E72623185708D411E718583
:103FE00032681069716A0870706A421CD2E6006912
:103FF000716A0870706A421C308D7262411E318590
:10400000708D411E7185306841694A077FF5C9AEE0
:104010000069716A0870706A421CBBE60000FFFF0D
:1040200090F83D00704700002DE9F043054681B04F
:104030002868089C099E8946016841F480711746EA
:104040009846016028684169CA0776D414F1010FC7
:10405000F8D000F077FB801B844201D3002CF1D113
:1040600000202863202185F83D1085F83E00296C4A
:1040700041F02001296485F83C0029680A68D005D0
:1040800044BF4FF400712964032001B0BDE8F08300
:104090004869420518D5086840F4007008606FF45C
:1040A00080612A68516100202863202185F83D1035
:1040B00085F83E00296C41F00401296485F83C0034
:1040C00001B00120BDE8F08314F1010F38D000F0F9
:1040D00039FB801B844200D394BB0020286320213D
:1040E00085F83D1085F83E00296C41F020012964D7
:1040F00085F83C0001B00120BDE8F083B8F1010F64
:1041000014D02968380A086132462146284600F052
:104110001DF958B1286C042804D12868016841F4BD
:1041200000710160012001B0BDE8F0832868FFB292
:104130000761002001B0BDE8F08309F0FE010161D4
:10414000296848698207A3D5002000904A69009237
:1041500032468969009121460098284600F0F6F819
:104160000028CBD0D6E700002DE9F046054683B005
:1041700028680A9C0B9F8A46016841F480610160AF
:1041800016462868026842F48072994602602868E0
:104190004169CA0700F1B68014F1010FF7D000F0B1
:1041A000D1FAC01B844268D3002CF0D165E0486985
:1041B000420519D5086840F4007008606FF480610A
:1041C0002A68516100202863202185F83D1085F878
:1041D0003E00296C41F00401296485F83C0001206F
:1041E00003B0BDE8F08600BF14F1010F00F08D8030
:1041F00000F0A8FAC01B844202D3002C40F0858056
:1042000000202863202185F83D1085F83E00296CA8
:1042100041F02001E0E7B9F1010F11D02968300A1F
:1042200008613A462146284600F090F840B1286CD3
:104230000428D4D12868016841F400710160CEE7F8
:104240002868F6B206613A462146284600F07EF814
:104250000028ECD12868016841F480710160286869
:104260004169CA0766D414F1010FF8D000F06AFA68
:10427000C01B844201D3002CF1D1002028632021EF
:1042800085F83D1085F83E00296C41F02001296435
:1042900085F83C0029680A68D00544BF4FF40071D6
:1042A0002964032003B0BDE8F08641694A0515D5AD
:1042B000016841F4007101606FF480602A68506108
:1042C00000212963202085F83D0085F83E10286CE8
:1042D00040F00400286485F83C1080E714F1010FD9
:1042E0002CD000F02FFAC01B844200D334BB002036
:1042F0002863202185F83D1085F83E00296C41F0A7
:10430000200169E70AF0FE01016129684869820716
:104310007FF54DAF002000904A6900923A468969C6
:10432000009121460098284600F010F800283FF43C
:1043300072AF7CE74AF00101C9B2016128684169A6
:104340008A07B2D5002003B0BDE8F08670B50546F7
:104350000C461646286841690A062ED441694A056A
:1043600012D56FF48061416100202863202185F817
:104370003D1085F83E00296C41F00401296485F860
:104380003C00012070BD00BF14F1010FE2D000F02D
:10439000D9F9801B844201D3002CDBD10020286393
:1043A000202185F83D1085F83E00296C41F0200160
:1043B000296485F83C00012070BD002070BD00001C
:1043C00070B505460C461646286841694A072ED442
:1043D00041694A0512D56FF480614161002028636C
:1043E000202185F83D1085F83E00296C41F004013C
:1043F000296485F83C00012070BD00BF14F1010F55
:10440000E2D000F09FF9801B844201D3002CDBD165
:1044100000202863202185F83D1085F83E00296C96
:1044200041F02001296485F83C00012070BD002086
:1044300070BD000000B593B0002000904B480168AB
:1044400041F080510160006800F0805000900098B9
:1044500000F07EF94649086888B90C2106910022CF
:1044600001210C9208910B9206A800F077F908B18F
:1044700000F0B1FD022101914FF4807210E00C2197
:104480000691002201210C920B91089206A800F0DF
:1044900065F908B100F09FFD022101914FF400720F
:1044A000049201A800F0C4FD08B100F094FD314968
:1044B0000120086000220F21292000F06EFE292033
:1044C00000F094FE13B000BD00682B49884200D074
:1044D000704700B581B0002224480092016841F085
:1044E000020101600F21006800F0020000900098B6
:1044F0001D2000F052FE01B05DF804EB1D2000F01D
:1045000075BE00B587B00020009000221B480169ED
:1045100041F400110161016901F400110091009959
:1045200000924FF44071036843F0020303601222CB
:10453000006800F00200009000981148019102927A
:1045400001210391032204210591049201A900F0A5
:1045500075FE07B000BD0548016821F40011016037
:104560004FF44071064800F033BF0000403802406D
:10457000EC0B00203C0E4742000400403038024063
:10458000000402402DE9F04104000E4600F0868050
:104590004E4DD5F8000400F00F00B04207D285F868
:1045A0000064D5F8000400F00F00B04276D1206816
:1045B000810712D5400703D5A96841F4E051A960ED
:1045C0002078010703D5A86840F46040A860A96876
:1045D000A06821F0F0010143A9602178C8074FD5F8
:1045E0006068012802D129688A0305E0022818BF03
:1045F000032805D129688A0105D40120BDE8F0818E
:1046000029688A074AD5A968890840EA8100A86014
:1046100041F2893800F096F80746A868616800F012
:104620000C00B0EB810F2BD000F08CF8C01B404584
:10463000F3D30320BDE8F0812078410705D5AA68AF
:10464000E06822F4E0520243AA602178080706D508
:10465000A968206921F4604141EAC001A96000F025
:1046600041F8AA681A491B4BC2F30312895CC8407F
:1046700018601948006800F045FF0020BDE8F0818F
:10468000D5F8000400F00F008642D5D285F800640A
:10469000D5F8000400F00F00B042CDD00120BDE8F5
:1046A000F0810C480D4A006813680D49C3F382225B
:1046B000895CC84070470748084A00681368084981
:1046C000C3F34232895CC8407047000000380240A2
:1046D0009C9F0008980600208C06002008380240A5
:1046E000A8A0000830B5144C606800F00C00042845
:1046F00003D0082803D0114830BD114830BD2268CE
:1047000020680023410202F03F0204D525680C49CD
:10471000C5F3881003E020680849C0F38810A1FBA6
:10472000000100F013FF2168C1F30141491C490059
:10473000B0FBF1F030BD00BF043802400024F400AB
:1047400000127A0001484068704700BF84060020CC
:10475000014901200860704720000E422DE9F04118
:10476000040082B000F03D812078DFF85C63C1076F
:1047700013D5B06800F00C00042807D0B06800F032
:104780000C00082841D1706841023ED53068810391
:1047900003D56068002800F024812178880719D5A6
:1047A000B16811F00C0F07D0B06800F00C000828B9
:1047B00066D17068410263D43068810703D5E06830
:1047C000012840F00E813168206921F0F80141EAAA
:1047D000C00131602178080740F107816069BB4959
:1047E000002872D00122C1F8802EFFF7ABFF0546EA
:1047F000706F810700F1F980FFF7A4FF401B0228CA
:10480000F6D9032002B0BDE8F0816068B0F5803FC2
:1048100004D1306840F48030306011E0B0F5A02F52
:10482000306806D140F480203060316841F4803136
:1048300005E020F480303060316821F4802131605F
:10484000606870B1FFF77EFF054630688103A4D42D
:10485000FFF778FF401B6528F7D3032002B0BDE8BF
:10486000F081FFF76FFF05463068810395D5FFF7AC
:1048700069FF401B6528F7D3032002B0BDE8F08133
:10488000E068924988B101220A60FFF75BFF0546A4
:104890003068810700F1D380FFF754FF401B0228E6
:1048A000F6D9032002B0BDE8F0810860FFF74AFFA7
:1048B0000546316888078DD5FFF744FF401B022865
:1048C000F7D9032002B0BDE8F081C1F8800EFFF7F0
:1048D00039FF0546706F810740F18780FFF732FF8F
:1048E000401B0228F6D9032002B0BDE8F08105285C
:1048F000306F06D140F004003067306F40F00100A7
:1049000005E0400840003067306F20F00400306759
:10491000A06888B1FFF716FF074641F28938306F6B
:10492000810700F19C80FFF70DFFC01B4045F6D3C7
:10493000032002B0BDE8F081FFF704FF074641F213
:104940008938306F810740F18A80FFF7FBFEC01B7A
:104950004045F6D3032002B0BDE8F081FFF7F2FE38
:10496000C01B022840F28F80032002B0BDE8F08116
:10497000FFF7E8FE001B022840F29D80032002B0F2
:10498000BDE8F08100202866FFF7DCFE04463068B1
:10499000810140F19480FFF7D5FE001B0228F6D973
:1049A000032002B0BDE8F08101281AD07068E269E6
:1049B00000F48001914202BF00F03F01226A91425F
:1049C0000FD147F6C071626A0140914202BF00F404
:1049D0004031A26A914202BF00F07060E16A8842F1
:1049E0006DD0012002B0BDE8F081207841073BD5B1
:1049F000306C0025C1000AD400950125316C41F0CE
:104A000080513164306C00F0805000900098304F3D
:104A10003868C1051BD4386840F480703860FFF7EF
:104A200091FE80463868C10511D4FFF78BFEA0EBDC
:104A300008000228F6D9032002B0BDE8F0813068F2
:104A4000216920F0F80040EAC1003060C2E6A068A9
:104A500001287FF44CAF306F40F0010057E71DB1E3
:104A6000306C20F080503064A06940B3B16801F030
:104A70000C01082998D00228144D83D10020286603
:104A8000FFF760FE0746306881013FF567AFE269D6
:104A9000206A616A0243A06A400842EA8112401E0D
:104AA00042EA0042E06A42EA00627260012129663D
:104AB000FFF748FE0446306881017FF559AF0020BA
:104AC00002B0BDE8F08100BF00380240000047425C
:104AD0000070004030B5ADF51F7D00F04FFE00F0D6
:104AE00067FE00220E214FF0FF3000F056FB002041
:104AF00000F058FF0121002000F09CFF00200090F2
:104B0000DFF81445DFF81405016841F480510160B5
:104B10000321006800F4805000900098002000F00D
:104B2000DDFF0421022000F0D9FF9FEDA10A022140
:104B3000002001F0CDF804220221002001F0E6F867
:104B4000012001F023FA04F16C0001F0D5FADFF83E
:104B5000D00494F87810606784F86C1014202067F3
:104B600004F16C0001F0DCFA01A907A801F014FAC5
:104B700001F09DFB0C21109100220121169212914F
:104B8000159210A8FFF7EAFD00281ABF0120F921AD
:104B9000FF21E1600A467F21DFF88834A1601860B8
:104BA000C4F880204021DFF880042060002261608A
:104BB00022616261A261204601F0E8FB60B1002041
:104BC00000F01AFF642001F063FE002000F023FFD4
:104BD000642001F05DFEF2E701218DF8031001224F
:104BE0008DF802108DF801208DF8002069462046CE
:104BF00001F04EFD60B1002000F0FEFE642001F0E7
:104C000047FE002000F007FF642001F041FEF2E7BC
:104C10000021029105910691012202A9204601F08E
:104C200029FC60B1002000F0E7FE642001F030FEB6
:104C3000002000F0F0FE642001F02AFEF2E7DFF829
:104C4000EC0320624AF20F4161620020A06227213A
:104C50002063E16204F1200001F030FE4FF4805047
:104C6000109010A904F1200001F00DFF0021029125
:104C7000039104F1200002A902F006F8002000F0E0
:104C8000BBFE4FF4FA7001F003FE002000F0C3FEFB
:104C900064251CA801F070FA012807D09DF8740063
:104CA000322804BF1CA802F039F800BF94F879003C
:104CB0000128EED1002184F87910002202A92046B3
:104CC00001F0B1FC00226946204601F0AAFD9DF8E2
:104CD000080003998DF87B019DF809008DF87C018F
:104CE0009DF80A008DF87D01D4F88000411A6943CF
:104CF000401C91FBF0F08DF87E01E06FC10617D5E6
:104D000004F160020221002000F0BEFF216E62A8C3
:104D10000422C01C02F09AF9616E63A80422C01C30
:104D200002F094F9A16E64A80422C01C02F08EF96E
:104D3000E06F810616D502AA0121002000F0A4FF31
:104D4000029965A80422C01C02F080F9039966A8A4
:104D50000422C01C02F07AF9049967A80422C01C3E
:104D600002F074F9E06F410616D502AA0421022070
:104D700000F08AFF029968A80422C01C02F066F9BC
:104D8000039969A80422C01C02F060F904996AA87A
:104D90000422C01C02F05AF95DA800F00BF85DA8CF
:104DA00001F0B2FF77205D905DA801F05BFA70E73B
:104DB0000000484270B5002200230025002696B06E
:104DC00004A9044681E86C0000208DF80000924D93
:104DD000E86FC10640F1BB8095F8780095F87A102D
:104DE000884211D0002001F0D1F8012001F0CEF866
:104DF00095F8780085F86C0005F16C0001F090F9E9
:104E000095F8780085F87A00DFED820A95ED180AAA
:104E1000B8EEC00AC0EE200ACDED040ADFED7D0A2F
:104E200095ED190AB8EEC00AC0EE200ACDED050ACC
:104E3000DFED780A95ED1A0AB8EEC00AC0EE200A36
:104E4000CDED060AD5F8840000EB800189000791BA
:104E5000002000F0D1FD694604A801F099F8002077
:104E600000F0D9FD08A801F095F801A905F160004E
:104E700001F098F89DED080A01F01AF901460422A4
:104E800004F13B0002F0E2F89DED090A01F010F98F
:104E90000146042204F13F0002F0D8F89DED0A0A11
:104EA00001F006F90146042204F1430002F0CEF8B5
:104EB0009DED0B0A04F1470002F0E3F89DED0C0AAA
:104EC00004F14B0002F0DDF89DED0D0A04F14F00F6
:104ED00002F0D7F89DED0E0A04F1530002F0D1F86C
:104EE0009DED0F0A04F1570002F0CBF89DED100A7A
:104EF00004F15B0002F0C5F89DED110A04F15F00BA
:104F000002F0BFF89DED120A04F1630002F0B9F857
:104F10009DED130A04F1670002F0B3F80199042231
:104F200004F16B0002F092F80299042204F16F0080
:104F300002F08CF80399042204F1730002F086F861
:104F40009DF85010042204F1770002F07FF816B0AB
:104F500070BD00B581B08DF803008DF801108DF89B
:104F600002208DF80030002269462B4801F090FBAA
:104F700060B1002000F040FD642001F089FC0020B9
:104F800000F049FD642001F083FCF2E701B000BDB0
:104F900010B586B000248DF802208DF800008DF841
:104FA000011000220192039204928DF80340694699
:104FB000194801F05FFA60B1002000F01DFD642087
:104FC00001F066FC002000F026FD642001F060FC8A
:104FD000F2E706B010BD00B581B0002000F00CFD76
:104FE000642001F055FC002000F015FD642001F064
:104FF0004FFCF2E7704700680C49884208D1064828
:10500000012280F87920D0F88410491CC0F884105F
:105010007047000000007A44100B00203038024036
:10502000CDCC4C3EEC0B002000280040000400409A
:10503000F0B5044681B0207810F0050F4ED0DFF8AF
:105040002C51DFF82C6100202860FFF77BFB07461E
:105050003068010133D5FFF775FBC01B0228F7D973
:10506000032001B0F0BD00BFFFF76CFB401B02281E
:1050700031D9032001B0F0BDFFF764FB801B02288B
:1050800043D9032001B0F0BDFFF75CFB801BB842A1
:105090005AD3032001B0F0BDA86820F4F810A8602E
:1050A000286FE168C1F30B010843286720780107E6
:1050B00002D5207C2F490860002001B0F0BDA16816
:1050C0006068090741EA8011C6F884100120286051
:1050D000FFF738FB054631680801C5D521788807F8
:1050E000E4D50021224D244F0091286C40F08050DF
:1050F0002864286C00F0805000900098396841F4D2
:1051000080713960FFF71EFB06463868C105B3D5CC
:10511000286F10F440701EBFE16801F440718842AE
:1051200015D0296F11480122C0F8D82D0023C0F8EE
:10513000D83D21F440712967286FC10707D5FFF7D3
:1051400001FB064641F28937286F81079CD5E1684B
:1051500001F44070B0F5407F9ED1AA68074822F460
:10516000F81201401143A9609AE700006800474225
:1051700000380240E011474200700040FFFCFF0F82
:10518000284B19684FF6FF020002114000F4E0605E
:105190000843254908431860704730B4214B1C6808
:1051A000C4F30223C3F10704052C28BF04241D1DEA
:1051B000072D34BF0023DB1E012505FA04F4641E0D
:1051C0002140994005FA03F35B1E1A40114309017F
:1051D000020003D41548815430BC7047144B02F0D0
:1051E0000F021A4402F8041C30BC7047010007D4B7
:1051F000012200F01F010F4B8A40400943F8202094
:105200007047401EB0F1807F01D3012070470A49EA
:105210004860F02081F8130D00228A6007200860A2
:10522000002070470CED00E00000FA0500E400E00B
:1052300018ED00E000E100E010E000E02DE9F04FA3
:1052400003460C464FF0000881B0C146C246A44850
:10525000A449A54A0125266805FA08F505EA060EBF
:10526000AE4540F0A780032606FA09F66FEA060C61
:105270006668012E18BF022E03D0112E18BF122E01
:1052800011D19E68E7680CEA060607FA09F73E4363
:105290009E605E6826EA05056668C6F3001606FA93
:1052A00008F635435D60DD68A6680CEA050506FA78
:1052B00009F63543DD606568022D18BF122D12D145
:1052C0004FEAD80503EB85050AF01C062F6A4FF05C
:1052D0000F0B0BFA06FB27EA0B07D4F810B00BFAFA
:1052E00006F63E432E621D680CEA0506257905F098
:1052F000030505FA09F535431D606568ED0059D5CC
:10530000002600964FEA980C156845F48045156014
:10531000166806F4804600960F26009D51F82C7002
:105320000AF00C05AE4027EA0606704FBB4208BFE4
:10533000002713D06E4FBB4208BF01270ED06D4F20
:10534000BB4208BF022709D06B4FBB4208BF0327EF
:1053500004D06A4FBB420CBF0427072707FA05F5A4
:10536000354341F82C506FEA0E0C056866680CEA6C
:105370000505F70348BF4EEA050505604568666800
:105380000CEA0505B70348BF4EEA05054560856888
:1053900066680CEA0505F70248BF4EEA0505856018
:1053A000C56866680CEA0505B60248BF4EEA050501
:1053B000C0F80C5008F10108B8F10F0F0AF1040A07
:1053C00009F102097FF646AF01B0BDE8F08F000099
:1053D0002DE9F04F81B003460F464FF00009CA4651
:1053E000CB463F483F4A00970F210127009D07FA0F
:1053F00009F73D40BD4259D14FEA990C52F82C4073
:105400003A4E0BF00C0E01FA0EF8B34208EA04040F
:1054100008BF002614D0364EB34208BF01260FD075
:10542000344EB34208BF02260AD0334EB34208BFFF
:10543000032605D0314EB3420CBF0426072600BF19
:1054400006FA0EF6B44212D10468ED432C40046013
:1054500044682C40446084682C408460C4682540C3
:10546000C56052F82C4024EA080442F82C4003247A
:1054700004FA0AF4E5431C682C401C600BF01C087D
:105480004FEAD90403EB840601FA08F8346A24EAE7
:1054900008043462DC682C40DC605C6824EA07079E
:1054A0005F609F6805EA0704C3F8084009F1010935
:1054B000B9F10F0F0BF1040B0AF1020A95D901B0F3
:1054C000BDE8F08F02B90904816170470C4A136886
:1054D00003421CBF1060FFF78DBD70470000000045
:1054E000003C0140083801404438024000000240BE
:1054F0000004024000080240000C0240001002407C
:10550000143C014030B50F4D0F4B2A7804464FF440
:105510007A711868B1FBF2F281B0B0FBF2F0FFF7DC
:1055200070FE58B9102C09D2002221464FF0FF30EE
:10553000FFF733FEAC60002001B030BD012001B0A8
:1055400030BD00BF8406002098060020BBBBE1B13F
:10555000B2F5803F80F07E80022A1ED98C46B1FBD6
:10556000F2F102FB11C31B0443EA1043B3FBF2FC4C
:1055700002FB1C3380B240EA0343B3FBF2F002FBB0
:10558000103240EA0C4000237047022A05D98446B5
:10559000B0FBF2F002FB10C270474AB105D100F037
:1055A000010249085FEA300070470022002370477B
:1055B00001F06EBD0B0002000021002070479042F8
:1055C00071EB030CF6D3B3F5803F2FD2F0B5B3FAED
:1055D00083F7B1FA81F4A7F10F0E3D1B5340CEF1D2
:1055E000200602FA0EF2F3415340B5F10F0746D8F8
:1055F0000F3C2C444140C4F12006A040F141414001
:10560000B1FBF3F603FB1611A2FB0645001BA941F3
:1056100002D2761E8018594180EA010221FA0EF367
:1056200062FA0EF200215A403046F0BD30B4B1FBB0
:10563000F3FC03FB1C11A2FB0C45001BA94103D288
:10564000ACF1010C8018594130BC02460B46604653
:1056500000217047B2F1807F65D3F0B5B2FA82F7CE
:10566000B1FA81F4C7F10F063D1B22FA06F307F1E8
:10567000110EF24120355A40B5F10F07B8D941401B
:10568000C4F12006A040F1414140B1FBF3FC03FB13
:105690001C11A2FB0C45001BA94103D2BCF1010C5B
:1056A000801859410F2F12D30F3FC90341EA5041CF
:1056B000B1FBF3F603FB1611A2FB0645D4EBC03099
:1056C000A94102D2761E8018594146EACC3C07B364
:1056D0004140C7F12006B840F1414140B1FBF3F62B
:1056E00003FB1611A2FB0645001BA94102D2761E40
:1056F0008018594180EA010221FA0EF3C7F1200413
:1057000062FA0EF20CFA07F05A402CFA04F1304318
:10571000F0BD80EA010221FA0EF3002162FA0EF2D6
:1057200060465A40F0BD8C46B1FBF2F102FB11C35A
:105730001B0243EA1063B3FBF2FC02FB1C331B02A7
:105740004CEA002043EA1063B3FBF2FC02FB1C337B
:105750001B024CEA002043EA1063B3FBF2FC02FB9D
:105760001C331B024CEA002043EA1063B3FBF2FC3B
:1057700002FB1C324CEA00200023704700B50A48A7
:1057800081B0016841F400710160026842F48062F6
:1057900002600320FFF7F4FC0F20FFF7B3FE00F0D8
:1057A00005F8002001B000BD003C02407047000039
:1057B000F0B593B001A80021002200230EC006C05E
:1057C00006AC0025002600278E46A4E8E040A4E8A9
:1057D000E040A4E8E04000916048016841F0805159
:1057E00001600221006800F08050009000985C4841
:1057F0000092026822F4404242F400420260012218
:10580000006800F440400090009806910992102131
:1058100002220A910C924FF4A87110220E920F915D
:10582000042207210D931092119106A8FEF796FF0E
:1058300008B1FFF7D0FB022102910F204FF48051F5
:105840000190049103950595022101A8FEF79AFEA7
:1058500008B1FFF7C0FB13B0F0BD0168414A4248F0
:10586000914214D3414AD0F80404914208BF012167
:1058700054D03F4A914208BF40214FD03D4A914207
:1058800014BF4FF480014FF48031084070473A4A0A
:10589000914216D3394AD0F80004914205D0384BD2
:1058A000994205D1402108407047012108407047C6
:1058B000344A914214BF4FF480014FF480310840C4
:1058C0007047314A914215D3304A4068914205D021
:1058D0002F4B994205D140210840704701210840D3
:1058E00070472C4A914214BF4FF480014FF480312D
:1058F00008407047284A0068914205D0274B9942DA
:1059000005D1402108407047012108407047244AD2
:1059100091420CBF4FF480314FF480010840704732
:105920000068406870471A4901604FF000624260A9
:105930004FF480714FF480620261C1614FF4803294
:105940000262002303224FF400018360C3604361BD
:10595000836143628262C1620163704740380240E2
:1059600000700040596402400060024070640240D0
:1059700088640240A0640240B960024010640240A2
:105980002864024040640240596002407060024056
:1059900088600240A060024010600240286002401F
:1059A0004060024070B586B004460020009000229E
:1059B000DFF80C01DFF80C61016841F001010160C2
:1059C00000680FF20C1100F001000090009831F80F
:1059D000145001950121029103920221049101A921
:1059E00056F82400FFF72AFC56F824000022294626
:1059F000FFF768FD06B070BD10B40FF2D403DFF8F6
:105A0000C44081B033F8101054F8200001B010BC2D
:105A10000122FFF757BD10B40FF2B403DFF8A44022
:105A200081B033F8101054F8200001B010BC0022EF
:105A3000FFF748BD10B586B0044600200090DFF89F
:105A40008000026842F004020260006800F0040076
:105A500000900800009812D10FF2780131F814205C
:105A600001920021022203920492029101A9DFF81F
:105A7000582052F82400FFF7E1FB06B010BD0129C1
:105A80001BD10FF2500030F81410DFF83C000191E8
:105A90000022DFF838100392029101A950F8240087
:105AA000FFF7CCFB0FF23000045D00220F2160B243
:105AB000FFF773FB60B2FFF799FB06B010BD000063
:105AC000303802409006002094060020000021108B
:105AD0002000000000200000280000002DE9F04117
