:020000040800F2
:10000000F0120020CD7B0008297A00082B7A000826
:1000100000000000000000000000000000000000E0
:10002000000000000000000000000000EF100008C9
:100030000000000000000000BF1F00082D7A00082B
:10004000072200085B310008AF360008873C000833
:100050009B5200082B5800089F580008397A000866
:10006000F3670008DB68000817690008497A000890
:100070003B6F00089B6F0008BB6F0008A37B000864
:10008000CB7B0008FF7B0008017C0008000000001B
:10009000037C0008057C0008077C0008097C000838
:1000A0000B7C00080D7C00080F7C0008117C000808
:1000B0005D7A0008137C0008157C0008177C000896
:1000C000F0B5FFB092B000F00FFD00F065FD042424
:1000D000BD4E30682043306030682040009000986A
:1000E000012700970197002502956946B74800F05F
:1000F000F5FD00220121B54800F025FF002000F0A9
:100100004BFF0121002000F097FF6846142100F00A
:10011000D5FF306838433060306838400590059826
:1001200030680221014331603068022108400590A7
:100130000598306820433060306804400594059885
:100140008220C00000900195029503956946A02089
:10015000C00500F0C3FDBA480090019502950395D3
:100160006946B84800F0BAFD02200090019502955A
:1001700003956946954800F0B1FD01F067F80C2041
:1001800000900A95F43002900595684601F0CEF88B
:10019000002803D001209821490000E0FF21AA4C4B
:1001A000E1617F21A1612067A84820616561256226
:1001B000A562E5622000103001F06AFC002801D041
:1001C00000F05AFC6846C5704770877007700122BE
:1001D00069462000103001F0C5FD002801D000F074
:1001E0004BFC01A8056004950595012201A920009A
:1001F000103001F0D5FC002801D000F03DFCC748CC
:100200000068C74901F084FE471E02A8102100F0D3
:1002100055FF00BF8EA003C86A4603C2F0680221E2
:100220000143F160BF486063A763E563BC48206495
:100230006564A5642000343001F0C2FE002801D0BE
:1002400000F01AFCB00C029002A92000343001F03A
:1002500013FF002801D000F00FFC009501956946BE
:100260002000343001F0ADFF002801D000F004FC84
:100270002000343001F0E7FE002801D000F0FCFB44
:100280000221A948006801F0BFFF0121A7480068CA
:1002900001F0BAFFA64F0421386801F0B5FF002035
:1002A00000F0A0FE642002F035FA002000F0A8FE65
:1002B000200084300090CB4E5BE0607A002810D0A4
:1002C0000B0000BF64A280214900009802F034FABC
:1002D000009802F057FAC44B82B20099C34802F06A
:1002E000ADFA7420205CC00604D58F4801684FA881
:1002F00000F0BCF87420205C800604D58B480168AF
:100300004FA800F017F97420205C400603D5396827
:100310004FA800F06DF9606FC00502D54FA800F03E
:10032000BEF9606F400502D54FA800F02FFA606F4C
:10033000800502D54FA800F0AFFAA07A002811D0AE
:100340004FA802F013FF20000E304FA90B310278A6
:100350000A7042784A70E07A4F904FA800F03AFF56
:10036000A572E581607A002803D0FA20400002F0EF
:10037000D1F90EA800F0BCFE01280AD00EA8007921
:10038000322806D10EA802F0FBFE3078002800D0FB
:100390006572616FE06F884229D0E167624800684A
:1003A000C90603D5022101F0C0FF02E0022101F0DD
:1003B000DAFF5E4800687421615C890608D5012176
:1003C00001F0B3FF07E000BF2C100240000800500E
:1003D000012101F0C8FF38687421615C490603D52A
:1003E000042101F0A2FF02E0042101F0BCFF607AC9
:1003F000012802D10020C04360673078002802D174
:10040000607A002803D0002000F008FE01E000F030
:10041000F7FD30780028A5D0606B406AA26F811A82
:1004200001D23F4809183078002800D145E704225E
:100430004FA8C01D02F0FBFF0920E07251E7000049
:1004400031040000000400500C0800200028004087
:10045000000000000000000054696D655374616D78
:10046000703A20256C640D0A0000000070B586B05B
:1004700005000E0000206946087202AA0221300021
:1004800003F032F8002846D16846007A012842D1AC
:10049000BC4CA07A401CA072E08908210143E18194
:1004A00003AA0221300001F07CFF4E4800780028AA
:1004B00019D004220399281DE37AC01802F0FAFF2C
:1004C0000422049928000830E37AC01802F0F2FFF1
:1004D00004220599E07A28180C3002F0EBFFE07A4C
:1004E0000C30E07217E0607A002814D0843405984C
:1004F000019004980090039BA34A802149002000AA
:1005000002F01AF9200002F03DF9374B82B22100C7
:10051000364802F093F906B070BD0000BC0500201B
:1005200040420F00000400406404002068040020E2
:100530006C04002070B586B005000E0000206946EE
:10054000087202AA0121300002F0CEFF002846D135
:100550006846007A012842D18A4CA07A401CA072D9
:10056000E08910210143E18103AA0121300001F05B
:1005700018FF1C480078002819D004220399281D70
:10058000E37AC01802F096FF04220499280008308C
:10059000E37AC01802F08EFF04220599E07A281849
:1005A0000C3002F087FFE07A0C30E07217E0607ADE
:1005B000002814D084340598019004980090039B7F
:1005C000AF4A80214900200002F0B6F8200002F076
:1005D000D9F8054B82B22100044802F02FF906B089
:1005E00070BD00008402002088130000000000207D
:1005F00070B586B005000E0000206946087202AA98
:100600000421300002F070FF002846D16846007ACD
:10061000012842D15B4CA07A401CA072E0892021C5
:100620000143E18103AA0421300001F0BAFE95489C
:100630000078002819D004220399281DE37AC018F5
:1006400002F038FF0422049928000830E37AC01829
:1006500002F030FF04220599E07A28180C3002F0ED
:1006600029FFE07A0C30E07217E0607A002814D09D
:1006700084340598019004980090039B824A80215D
:100680004900200002F058F8200002F07BF87F4B70
:1006900082B221007E4802F0D1F806B070BDF0B5FC
:1006A00081B00700002400257A4E2021300000F0A0
:1006B00043FC012800D101251021300000F03CFC52
:1006C000012802D12800022505438021C9003000FD
:1006D00000F032FC012802D1280004250543022144
:1006E000C44800F029FC012802D128000825054350
:1006F0000121C04800F020FC012802D1280010256B
:1007000005431021A020C00500F016FC012802D1ED
:100710002800202505430121300000F00DFC0128B0
:1007200002D12800402505438021C900A020C00532
:1007300000F002FC012802D1280080250543114E5B
:10074000307BA84209D1307A012806D002F054FF4C
:1007500080217158401A652811D33472B07A401C38
:10076000B072F08940210143F181F07A3A18157195
:10077000401CF072357302F03FFF8021705001B0D1
:10078000F0BD00000C080020EC7A000870B582B0C3
:1007900005006C46B7480068C9490968014332D171
:1007A00080220121002002F001FF6A467021002012
:1007B00002F0D8FE621C7121002002F0D3FEA21CC0
:1007C0007221002002F0CEFEE21C7321002002F014
:1007D000C9FE221D7421002002F0C4FE621D752195
:1007E000002002F0BFFEA21D7621002002F0BAFE1A
:1007F000E21D7721002002F0B5FE00220121002039
:1008000002F0D4FE02E0002020606060AD4E20784F
:100810003178884215D0F47A08226946281D0019DB
:1008200002F010FF08226946300002F00BFF083486
:10083000F472B07A401CB072F08980210143F181DA
:100840001BE0607871788842E5D1A078B178884261
:10085000E1D1E078F1788842DDD1207931798842A0
:10086000D9D1607971798842D5D1A079B17988429E
:10087000D1D1E079F1798842CDD102B070BD0000CC
:10088000107B000884020020347B000888130000DD
:100890000000002000040050F0B585B005006C4653
:1008A0007448006886490968014362D180220121A9
:1008B000002002F07BFE6A464C21002002F052FE2E
:1008C000621C4D21002002F04DFEA21C4E21002092
:1008D00002F048FEE21C4F21002002F043FE221DE0
:1008E0005021002002F03EFE621D5121002002F046
:1008F00039FEA21D5221002002F034FEE21D5321D8
:10090000002002F02FFE220008325421002002F0C5
:1009100029FE220009325521002002F023FE220088
:100920000A325621002002F01DFE22000B32572110
:10093000002002F017FE22000C325821002002F0A5
:1009400011FE22000D325921002002F00BFE220080
:100950000E325A21002002F005FE22000F325B21E8
:10096000002002F0FFFD00220121002002F01EFE07
:1009700004E0002020606060A060E060524E2078BB
:100980003178884217D04F4CE77A10226946281DEB
:10099000C01902F057FE10226946300002F052FEE4
:1009A0001037E772A07A401CA072E08980214900CC
:1009B0000143E1811BE0607871788842E3D1A0783F
:1009C000B1788842DFD1E078F1788842DBD12079B4
:1009D00031798842D7D1607971798842D3D1A079B1
:1009E000B1798842CFD1E079F1798842CBD105B095
:1009F000F0BD00000008005080218901884200D02D
:100A0000704710B5314C60682168084302D102F08C
:100A1000F3FD0AE002F0F0FD606060682168401AB2
:100A2000FF212E3188420DD3606820602548284977
:100A30000978002901D0002103E0417A491E89414B
:100A4000C90F417210BD10B586B000236C46E3702B
:100A500020706170A2700193039304930022694691
:100A60001C4801F09DF8002801D000F005F806B000
:100A700010BD00006404002010B51248417A00291E
:100A800011D00400843400BF15A280214900200049
:100A900001F052FE200001F075FE0F4B82B22100E2
:100AA0000E4801F0CBFE002000F09CFA642001F01B
:100AB00031FE002000F0A4FA642001F02BFEF2E7E2
:100AC000680400200C080020D00A0020E00A002062
:100AD000840200201C080020881300000000002071
:100AE0004572726F7200000010B500240948016859
:100AF00040220A430260016802220A430260032086
:100B000002F0D6FD002801D0012401E000F004F835
:100B1000200010BD002002407047F1B40168421867
:100B200041684808131800988068C9071ED54946CF
:100B300040181BE01778521C0770401C761EF9D134
:100B4000002C13D01678521C89080D40032D01D1BA
:100B50001578521C290271184D424119A41C05D068
:100B60000D78491C0570401C641EF9D19A420FD0C3
:100B70001178521C032503260E4002D11678F61C6C
:100B8000521C0C090F2CD9D114780F34521CD5E704
:100B900000980C30F2BC704710B59EB0494801680F
:100BA000494A0A40C10C1143016002200F90012103
:100BB000129110211391199000241A9440041B9053
:100BC00000011C900FA800F0B1FB002801D0FFF736
:100BD00053FF0F200090032001900294039404948B
:100BE0000121684600F034FE002801D0FFF744FFE1
:100BF0000A20059009940B9405A802F075FD0028C1
:100C000001D0FFF739FF00F00FFFFA21890001F052
:100C10007FF902F07CFE042002F08EFE002200210B
:100C20000020C04302F04CFE1EB010BD27490968E9
:100C30000068274A904201D108201DE014329042FA
:100C400001D1802018E01432904201D1D00C13E081
:100C50001432904202D1802000020DE01432904202
:100C600002D18020000307E01432904202D180209C
:100C7000000401E0802000050840704700684068DB
:100C800070471449016000218160C16080220261C7
:100C9000416181612021C161C9010162042141607A
:100CA00070470D490160102181600021C1608022E0
:100CB000026141618161C1615101016204214160B0
:100CC0007047000000700040FFE7FFFF0000024097
:100CD000080002405800024044000240F0B482B0D4
:100CE0000A000023A34900911168002900D1AEE059
:100CF00001000120984001901068019C044000D13F
:100D0000A0E05068022801D0122810D1D808800035
:100D10000D18286A9F001C263E400F27B740B84395
:100D20001769BC4637006646BE4006432E625068CF
:100D3000012805D0022803D0112801D0122812D191
:100D400088685D000326AE40B043D668AE400643D7
:100D50008E604D680120019EB543566836093040CB
:100D600098402843486008685D000327AF40FE4371
:100D700030401779BF07BF0FAF4007430F60C86807
:100D800006409068A8403043C8605068C00059D5FC
:100D90000120794D2D680543774E3560774D9E08CB
:100DA000B600AD1901952E680C259F003D400F2718
:100DB000AF40BE43A027FF05B94201D1002017E094
:100DC0006F4FB94214D06F48814201D102200FE029
:100DD0006D48814201D103200AE06C48814201D173
:100DE000042005E06A48814201D1052000E0062088
:100DF000A8403043019D286000980568E043054005
:100E00005668F60300D52543009E3560009D6D6849
:100E100005405668B60300D52543009E7560009DC9
:100E2000AD6805405668F60200D52543009EB560C2
:100E3000009DED6828405568AD0201D504432000AF
:100E4000009CE0605B1C1068D84000D051E702B005
:100E5000F0BC7047002900D17047F0B482B0019116
:100E6000002101228A40019B13400093009B002B2C
:100E70005BD003234C00A34004681C430460CC08EF
:100E8000A40004198D00266AB4460F271C262E40A4
:100E9000B7406646BE432662DC43836823408360D6
:100EA0000123466896434660C2681440C460334AD2
:100EB0008C08A400121914680C262E400F25B5408A
:100EC0002C40A027FF05B84201D1002317E02C4F8A
:100ED000B84214D02B4B984201D102230FE02A4B89
:100EE000984201D103230AE0284B984201D1042300
:100EF00005E0274B984201D1052300E00623B340CB
:100F00009C4212D11368AB431360009BDA43194B28
:100F10001B681340174C2360636813406360A36829
:100F20001340A360E3681A40E260491C019ACA407A
:100F300097D102B0F0BC704700690840401E804164
:100F4000C043C00F7047002A01D0816170478162A1
:100F5000704742694A40426170470E4A1368034035
:100F600000D1704700B581B01060FFF745FD01B0BA
:100F700000BD0000000401403410024008000140A0
:100F80000004005000080050000C005000100050F9
:100F9000001C00501404014030B587B0012102004C
:100FA00007D1424A13680B43136012680A4000924B
:100FB000009A00BF1FA24300D55A0195029100215B
:100FC0000391032104913A4980000C1801A920687B
:100FD000FFF784FE002229002068FFF7B4FF07B066
:100FE00030BD000000B581B0012200BF11A1430057
:100FF000C95A2F4B80001858FFF7A5FF01B000BD5C
:1010000000B581B0002200BF0AA14300C95A284B95
:1010100080001858FFF797FF01B000BD00B581B000
:1010200004A14200895A224A80001058FFF791FF1C
:1010300001B000BD2000000010B586B0020008D14C
:1010400004221A4B1C6814431C601B681A4000924F
:10105000009A040014A06200805A019000200390BE
:10106000012204920A0007D1029001A91248A200AD
:101070008058FFF733FE13E0012911D10D4802908B
:1010800001A90D48A2008058FFF728FE05A0045DC5
:1010900000220F2160B202F013FC60B202F02EFCBD
:1010A00006B010BD07000000002000002C10024018
:1010B000B405002000002110B80500200022FFE741
:1010C0001300103906D330B41400150010393CC099
:1010D000FCD230BC490700D30CC000D504C0890045
:1010E00002D30280801C002900D502707047FEE701
:1010F000F0B585B0060000258448FFF797FD00286D
:1011000065D18024A4008148FFF7B8FD201A80B281
:1011100001907F4884880198A04202DA80218900EA
:101120004018001B80B20027002849DD0290794852
:10113000005D641CA4B2802189008C4200DB002485
:10114000F02839D172488488039600260AE02218D4
:1011500011001312DB0D9A18521252028C1AA4B20B
:101160006D1C3618B0B2B84219DA601CC005C00D4B
:10117000694608806749085D6A461288895C039A57
:10118000121DABB2D21802F0F3F8C0B20028DED1C3
:10119000684600885E49888019E0012018E0039EB7
:1011A000A8B23060641CE405E40D59498C8030001D
:1011B00002F015F90028F0D17F1C02988742B6DBB7
:1011C000FF21891C884202DB019851498880002058
:1011D00005B0F0BDF0B581B04F4D29780029FCD0A5
:1011E000070002F0D6F84D4C260084363900300056
:1011F00002F096F80021297082B23100200001F03F
:10120000CBFB01B0F0BD30B581B0002200210B2036
:1012100002F056FB0B2002F071FB3D4D2800083018
:10122000FFF72FFD2800083002F09EFB3B4C280002
:101230000830E0662C633A4D2800FFF732FD2800A5
:1012400002F092FBA566AC6201B030BD70B586B00D
:10125000012034490A6802430A600A680240009289
:10126000009A0A6802430A600A6802400092009AE3
:10127000CA6843041343CB604A6802434A60496822
:101280000840009000980424019402200290002558
:10129000039504900594A026F60501A93000FFF7F8
:1012A0001DFD08200190059401A93000FFF716FDEF
:1012B0001A4C1D48206026005036306B6060A560D7
:1012C000E5602561A5610C206061200001F07EFAD7
:1012D000002200211C2002F0F3FA1C2002F00EFB79
:1012E000FFF791FF0B49716080229200328120004C
:1012F0008430E0643280F562200001F09CFB06B08F
:1013000070BD01200449087070470000F4090020F6
:10131000EC0900200C060020080600200000002038
:10132000880A00202C10024000440040F1B584B02F
:10133000002800D1C5E1B74CE0680C2101400091C4
:10134000E068802149020840019004980078C007B5
:101350000FD50098082804D00C287CD10198884229
:1013600079D12068800304D504984068002800D112
:10137000A7E104980078800736D50498C06820213A
:10138000084204D02268114321602021884300993B
:10139000042906D00C2900D0A0E00199002900D032
:1013A0009CE02168490702D5002800D189E16168E5
:1013B000994A0A4004990969090211436160216848
:1013C000092291430843206000F0F8FAC249E2681C
:1013D0001206120F895CC840C0490860032002F061
:1013E00067F9010000D027E204980078C00600D415
:1013F0008DE1650D0098002800D095E0206805403B
:1014000004D00498C069002800D15AE16068B64948
:1014100001400498406A0843606060680002000A66
:101420000499096A09060143616001200499496A27
:10143000490B491C8840C003A749E2681206120FF5
:10144000895CC840A5490860032002F031F9010019
:1014500000D15CE1F0E104984068884202D1206844
:10146000014319E0A021C9028842206808D18021E7
:10147000C9020143216020688021490201430BE039
:101480009A49014021602068802149020840029069
:10149000029820689649014021608025AD02049899
:1014A000406800280DD002F0A7F806002068284008
:1014B00000D05EE702F0A0F8801B6528F6D3032079
:1014C000BAE102F099F806002068284000D150E700
:1014D00002F092F8801B6528F6D3F0E70425002877
:1014E00011D02168092291430843206002F084F85A
:1014F00006002068284000D0E5E002F07DF8801B5F
:101500000328F6D3DBE7206801218843206002F03E
:1015100073F806002068284000D165E702F06CF8F7
:10152000801B0328F6D3CAE70498C0690028206806
:1015300016D0A10D0143216002F05EF8060020687C
:10154000284000D0CCE002F057F8801B0328F6D3E7
:10155000B5E702F051F8801B032800D2E8E0AEE7BF
:10156000B6490140216002F047F806002068284093
:1015700000D1CCE002F040F8801B0328F6D39EE7B0
:1015800001218843206502F037F806000225206D0E
:10159000284000D1D0E002F02FF8801B0328F6D3BA
:1015A0008DE7002801D1206D0BE0A021C900884201
:1015B000206D06D1210D01432165206D0543256570
:1015C00006E09E4901402165206D9D49014021654D
:1015D0000498806800280ED002F00EF8994D670D2F
:1015E0000600206D384000D0D1E002F005F8801BE5
:1015F000A842F6D363E701F0FFFF924F650D0600A6
:10160000206D284000D1C2E001F0F6FF801BB842F7
:10161000F6D354E700100240FFE0FFFF01F0ECFFBB
:10162000801B032800D2D2E049E7A1680122914340
:10163000A1600168844A0A40026001F0DDFF0600F3
:101640000225A068284000D1C5E001F0D5FF801B2D
:101650000328F6D333E701F0CFFF801B032800D225
:10166000CDE02CE701F0C8FF801B032800D2DEE0AC
:1016700025E70140216001F0BFFF060020682840F7
:1016800000D1D8E001F0B8FF801B0328F6D316E79D
:10169000012816D0E068802149020140049AD26AEC
:1016A00091420ED1F02189030140049A126B9142BC
:1016B00007D1C021090401400498406B814200D148
:1016C000B9E00120B8E06068604901400498006911
:1016D00000020843606087E60C7A0008BC05002021
:1016E0006068014906E000BFFF1FFFFFFFFFFEFF2C
:1016F000FFFFFBFF01400498406A08436060606898
:101700000002000A0499096A09060143616004980D
:101710000078000710D5049840690028206D00D19A
:101720002EE701210143216501F066FF0600022535
:10173000206D284000D10CE70498007840072DD593
:101740000020019080204005A16B014004D1A16BD5
:101750000843A06301200190A50D9548006828402A
:101760000FD1934F38682843386001F045FF0600D9
:101770003868284005D101F03FFF801B6528F7D36A
:101780009DE604988068A84200D00AE715E7019812
:10179000002803D0A06B87490140A163049800781A
:1017A000800618D5844804998969002900D13CE74E
:1017B0000121A2680A43A260626B11436163016860
:1017C000420C0A43026001F017FF06000225A068E0
:1017D000284000D122E70498806A00282BD0009985
:1017E0000C2900D154E78025AD048E4902282068D9
:1017F00000D03EE70140216001F0FEFE06002068B7
:10180000284000D027E7E068934901400498C06A67
:1018100008430499096B01430498406B0843E06056
:10182000206869080143216001F0E6FE0600206897
:10183000284000D116E7002005B0F0BDFFFEFFFFF5
:10184000FFFBFFFF89130000FFDFFFFFFFE0FFFF4B
:10185000F0B581B0070000D19DE000917F4800689D
:10186000C107C90F009881420DD27C48016801224E
:101870009143009A0A4302600068C107C90F0098AB
:10188000814200D087E0764C3878800705D5E06843
:10189000F0218843B9680143E1603878C00769D511
:1018A0007868022802D12168890308E0032802D160
:1018B0002168890103E00128216802D1490702D487
:1018C00069E0890567D5E168032291430843E06038
:1018D00001F092FE060078680C2502280BD1E06822
:1018E0002840082846D001F087FE801B5D498842C9
:1018F000F5D303203CE003280AD1E06828400C28F7
:1019000038D001F079FE801B56498842F5D3F0E7C4
:10191000012842D1E068284004282BD001F06CFE59
:10192000801B50498842F5D3E3E73878400705D556
:10193000E0684D490140F8680843E06038780007E6
:1019400006D5E068494901403869C0000843E060B5
:1019500000F034F84649E2681206120F895CC8406C
:1019600044490860032001F0A3FE010000D10020DB
:1019700001B0F0BD01203949009A0B6803409A423A
:10198000D3D20A688243009B13430B600968084066
:1019900000998842C9D00120EAE7E0682840E9D0F0
:1019A00001F02AFE801B2F498842F6D3A1E70000F0
:1019B00000700040FFFFFFEF2000014000B5284A03
:1019C000D1680C200840042804D0082809D00C282D
:1019D00009D01EE01068C00601D5284800BD28487F
:1019E00000BD284800BD28488B021B0FC05C0902BF
:1019F000890F491CD368DB0301D5224A05E0126830
:101A0000D20601D51D4A00E01D4A504300F080FA7D
:101A100000BD506801210004400F401C8140C803F4
:101A200000BD0000FFFFFFFE12480068704711482C
:101A300000681649104A12685205520F895CC84066
:101A400070470C48006811490B4A12689204520F03
:101A5000895CC84070470000FFFF02FF0020024081
:101A60000010024089130000FFF8FFFFFFC7FFFFCF
:101A70000C7A0008BC0500200C10024000093D0053
:101A80000024F40000127A001C7A0008F47B00089D
:101A9000F0B581B004003AD02120205C002804D1A8
:101AA00020216054200002F075F8022021216054AA
:101AB000CA20216848625320216848622068402576
:101AC000C168294025D10021C943C16001F094FDBE
:101AD000314F06002068C06828401AD101F08CFD03
:101AE000801BB842F6D3FF202168486204202121E0
:101AF00060540CE001F080FD801BB8423ED3FF2013
:101B00002168486204202121605400206055012092
:101B10003FE020688168214A0A408260206881682D
:101B2000626823691343A2691A430A438260E0682A
:101B30002168086120680169A26812040A430261F1
:101B40002068C16880229143C1602068C16C032273
:101B50009143C1642068C16CE269636913430B431C
:101B6000C36420682025816829400BD1C168A02268
:101B70009143C16001F040FD074F06002068C06836
:101B80002840B7D0FF2021684862012021216054FD
:101B9000002001B0F0BD0000E9030000BFFF8FFF8F
:101BA000F0B583B004002020205C012801D1022080
:101BB000D3E001202023E05402202123E0542068B8
:101BC00000250F00002A80685CD1400600D4FD701B
:101BD000002039780A2913D3401C0A39CAB20A2ACC
:101BE0000ED3401C0A39CAB20A2A09D3401C0A394A
:101BF000CAB20A2A04D3401C0A39CAB20A2AEBD252
:101C000000010143002278780A2813D3521C0A38B5
:101C1000C3B20A2B0ED3521C0A38C3B20A2B09D303
:101C2000521C0A38C3B20A2B04D3521C0A38C3B25E
:101C30000A2BEBD2120110430022BB780A2B13D3DC
:101C4000521C0A3BDEB20A2E0ED3521C0A3BDEB2F5
:101C50000A2E09D3521C0A3BDEB20A2E04D3521CB0
:101C60000A3BDEB20A2EEBD20906090A0006000C76
:101C7000084311010B43DBB20343F8780004184317
:101C800001900DE0400600D4FD70387800047978AA
:101C900009020143B8780843F97809040143019126
:101CA000CA20216848625320216848622068C168C0
:101CB000490622D40021C943C16001F09DFC284996
:101CC000009106002068C068400616D401F094FC1C
:101CD000801B00998842F5D3FF20216848620420C8
:101CE0002121605420202554012036E001F084FC9D
:101CF000801B0099884224D3EEE701988049014077
:101D000020680160206881687E4A0A4082602068FD
:101D10008168FA683B6913430B4383602068C1689C
:101D200080229143C16020682027816839400CD10E
:101D3000C168A0229143C16001F05EFC0849009196
:101D400006002068C0683840D0D0FF202168486273
:101D5000012021216054E555002003B0F0BD0000B2
:101D6000E9030000F0B581B004002020205C0128C8
:101D700001D10220C2E001202023E05402202123CF
:101D8000E05448780025002A00D083E0C20603D53D
:101D9000EF2202400A324A700020CA780A2A13D37E
:101DA000401C0A3AD3B20A2B0ED3401C0A3AD3B2D3
:101DB0000A2B09D3401C0A3AD3B20A2B04D3401C85
:101DC0000A3AD3B20A2BEBD200010243002348782F
:101DD0000A2813D35B1C0A38C6B20A2E0ED35B1C2A
:101DE0000A38C6B20A2E09D35B1C0A38C6B20A2EBC
:101DF00004D35B1C0A38C6B20A2EEBD21B0118436F
:101E000000268B780A2B13D3761C0A3BDFB20A2FED
:101E10000ED3761C0A3BDFB20A2F09D3761C0A3B8D
:101E2000DFB20A2F04D3761C0A3BDFB20A2FEBD2B3
:101E30001206120A0006000C104332011343DBB2F3
:101E40000343087847031F43CA2021684862532090
:101E5000216848622068C16849062CD40021C94322
:101E6000C16001F0C9FB2849009106002068C068E4
:101E7000400620D401F0C0FB801B00998842F5D3B6
:101E8000FF2021684862042021216054202025542D
:101E9000012033E0CA781204000210438A7802431A
:101EA000087847031743CFE701F0A6FB801B009992
:101EB000884217D3E4E71548384021684860206815
:101EC000C16880229143C160206820278168394021
:101ED0000CD1C168A0229143C16001F08DFB0A4979
:101EE000009106002068C0683840DDD0FF202168DE
:101EF0004862012021216054E555002001B0F0BD69
:101F00007F7F7F00FFFFFBFFE90300003FFFFF0033
:101F10000022030A8B420BD203098B4219D24308D9
:101F20008B422ED2411A00D20146524110467047D0
:101F3000FF2209023FD012068B4205D3121209027A
:101F40008B4201D31212090203098B4219D300E01C
:101F5000090AC3098B4201D3CB01C01A524183093C
:101F60008B4201D38B01C01A524143098B4201D3EA
:101F70004B01C01A524103098B4201D30B01C01A15
:101F80005241C3088B4201D3CB00C01A524183088F
:101F90008B4201D38B00C01A524143088B4201D3BC
:101FA0004B00C01A5241884200D3401A5241CFD24E
:101FB00001461046704708B501F064FE08BDFEE713
:101FC00010B5040001D1012010BD3920205C00288B
:101FD00004D138216054200000F0F2F802203921A9
:101FE0006054206802688021C905884208D01E4BD1
:101FF000984205D01D4B984202D01D4B98420CD1FF
:1020000070239A431300A2681A43884208D01649E5
:10201000884205D01549884202D01549884203D12B
:102020001449114022690A4380218A43616911439E
:102030000160E168C162616881620121416139200A
:102040002154002010BD02213922815401688B687F
:1020500001225B075B0F062B02D00B6813430B605A
:10206000392142540020704700040040000801401C
:1020700000140140FFFCFFFFF0B43822825C012A0B
:1020800001D1022093E001223823C25402233924D3
:10209000035503689C68484D25409D600B681C00F3
:1020A00077D0102B75D0202B73D0302B71D0402BD4
:1020B00058D0502B27D0602B3CD0702B03D0550329
:1020C000AB4210D06DE0CB684C688D6801688E68BB
:1020D000384F37403D432C431B0223438B6001683C
:1020E0008B6877245BE0CB684C688D6801688E68EC
:1020F000304F37403D432C431B0223438B60016824
:102100008B6894034BE0CB6849680468256A2E46C7
:1021100096432662A669F027BE431B013343A361A1
:102120000A239D432943216201688B687024A343DD
:10213000572434E0CB6849680468256A1026B54303
:102140002562A7691D4E3E401B033343A361A023B4
:102150009D4309012943216201688B687024A343D0
:1021600067241CE0CB6849680468256A2E469643BC
:102170002662A669F027BE431B013343A3610A23ED
:102180009D432943216201688B687024A34347243F
:1021900005E001688C687025AC43234307241C4389
:1021A0008C60392142540021382281540020F0BC37
:1021B00070470000FF00FFFF8800FFFFFF0FFFFFD9
:1021C0007047F0B43822825C012A01D1022018E065
:1021D0000200383201231370022439254455046863
:1021E0006568A6688027BE434F6837437026B543AD
:1021F00009682943616001688F60392143540020D8
:102200001070F0BC7047FEE7F0B589B004000F0015
:1022100000250095002C03D0022C42D037D352E089
:10222000380000F06FF9002840D16F4A01A9906B87
:10223000526CD2689047002842D101A80178012948
:1022400000D102254178012902D1290001250D4341
:102250008078012802D1280004250543624E012020
:1022600001213940012932D1284001282FD1A00075
:102270003018806B6100091989007118B26A9200E8
:10228000895809688847002821D0042019E03800BF
:1022900000F091F9002809D1534A01A9D06B926C42
:1022A000C7E7380000F0D2F9002801D0002008E08C
:1022B0004D4A01A9106CD26CD26890470028BCD05E
:1022C0000620C0432FE00120C04300902AE00220F6
:1022D00002213940022910D1284002280DD1A00046
:1022E0003018806B6100091989007118F26A920038
:1022F0008958096888470028C7D104200740042F5F
:1023000010D1284004280DD1A0003018806B610046
:10231000091989007118726B9200895809688847F9
:102320000028B2D1009809B0F0BD10B50200032A10
:1023300016D22D4B90001818046D0C408C420FD112
:10234000806B5400A21892009A1889005918496AA3
:102350008900515809688847002803D0042000E00C
:102360000120C04310BD10B50200032A16D21E4B37
:1023700090001818046D0C408C420FD1806B5400F3
:10238000A21892009A1889005918496A8900515870
:1023900049688847002803D0042000E00120C0439A
:1023A00010BD30B581B0030008001100032B17D217
:1023B00002000D4C98002018056D154095420FD174
:1023C000806B5D00EB189B00E3189200A218526A24
:1023D00092009A58D2699047002803D0042000E068
:1023E0000120C04301B030BD1C03002030B581B0D6
:1023F000030008001100032B17D20200B84C98000C
:102400002018056D154095420FD1806B5D00EB18CB
:102410009B00E3189200A218526A92009A58D26860
:102420009047002803D0042000E00120C04301B001
:1024300030BD30B581B0030008001100032B17D266
:102440000200A74C98002018056D154095420FD149
:10245000806B5D00EB189B00E3189200A218526A93
:1024600092009A5852699047002803D0042000E057
:102470000120C04301B030BD30B581B00300080079
:102480001100032B17D20200954C98002018056DFF
:10249000154095420FD1806B5D00EB189B00E3184F
:1024A0009200A218526A92009A5812699047002826
:1024B00003D0042000E00120C04301B030BD30B59E
:1024C00081B0030008001100032B17D20200844CD6
:1024D00098002018056D154095420FD1806B5D0066
:1024E000EB189B00E3189200A218526A92009A58C7
:1024F00092699047002803D0042000E00120C043E7
:1025000001B030BDF0B58FB0060000240394D72091
:1025100001A90873734801907348029073480690AC
:1025200073480590734807906D4D28005C3001F0AA
:10253000ABFB00280AD1694628005C3001F060FC42
:10254000002803D1684600786B2801D006242EE0CD
:1025500008A928005C3001F05EFC08AF7878397873
:1025600049000143BA7892000A432A6529005C3188
:10257000A96361496964F20709D5012807D15F4859
:10258000286028005C300968884700280ED1B00711
:102590000AD53878012807D159486860A86B696C5A
:1025A00009688847002801D1700701D50424E44355
:1025B00020000FB0F0BDF0B58FB0060000240394EA
:1025C000332001A9087347480190474802904748C3
:1025D00006904748059047480790414D2F008C379B
:1025E000380002F04DF8002809D16946380002F0A1
:1025F000D2F8002803D168460078442801D0062488
:1026000020E008A9380002F0D1F808A84278017843
:1026100049001143827892000A436A65EF633949A1
:10262000A964B20709D50078012806D13648286187
:10263000380009688847002803D1F00701D47007E3
:1026400001D50424E44320000FB0F0BDF0B58FB0F5
:102650000600002403943D2001A90873214801903D
:102660002148029021480690214805902148079072
:102670001B4D2F00C037380002F064FC002809D140
:102680006946380002F0D7FC002803D1684600787C
:10269000402801D006241FE008A9380002F0D6FC2B
:1026A00008AA90785178127852000A4381001143A9
:1026B000A9652F641549E964720708D5012806D178
:1026C00013482862380009688847002803D1B007FA
:1026D00001D4F00701D50424E44320000FB0F0BD7D
:1026E0001C030020C17700082178000875780008D5
:1026F0004B780008B5780008080400203C0400204E
:1027000018040020B4020020C4020020E8020020C7
:10271000F802002030B581B0040000F06DFF050024
:102720000020C043844200D0641C00F065FF401BC1
:10273000A042FAD301B030BD08B410B585B007ABE4
:10274000049300240394002902D10194029402E02E
:102750000190491E0291009404AB01A908487844F5
:102760001E3002F09BFD0199002900D00C7000285A
:1027700000D4039805B0019910BC02B0084700BF0F
:102780002F540000431C810705D00178401C0942EA
:1027900017D08107F9D130B40B4CE50104C8111BE7
:1027A00091432942FAD030BCDB1CFF210A4208D0F9
:1027B000120A5B1E0A4204D0120A5B1E0A4200D0B3
:1027C0005B1EC01A704700000101010130B581B0E5
:1027D000040014D0250070356868002803D12870E3
:1027E000200000F0B9FC2420686020680168012204
:1027F00091430160200000F01FFA012801D101205F
:1028000017E0606A002802D0200000F041FB206839
:102810004168094A0A404260206881682A2291433F
:1028200081602068016801220A430260200000F0F4
:1028300097FB01B030BD0000FFB7FFFFF1B584B0DA
:102840001F0070304068202800D096E00C000DD0AA
:1028500015000BD08026760104988068B04207D11D
:1028600004980069002803D1E00701D5012085E024
:1028700004987021405C012800D17EE004987030FB
:10288000009001200099087000200099C860212064
:102890000099486000F0B0FE02900498503000901B
:1028A0000580009845803D0004988068B04206D1BC
:1028B00004980069002802D10027019417E027003E
:1028C0000024FAE7397881627F1C0BE004940296B9
:1028D000002FF7D101990988C905C90D81620198B6
:1028E000801C019000984088401E00994880009804
:1028F000408800281CD0049C029E2068C1690906FB
:10290000E4D40020C0438542F7D000F075FE801B60
:10291000854201D3002DF0D1206801681D4A0A408C
:1029200002602068816801229143816021001CE0DF
:1029300004980068C069400622D40020C043854244
:10294000F6D000F059FE0299401A854201D3002DBD
:10295000EED1049801680A680E4B13400B600168C1
:102960008A6801239A438A60010070312020486000
:10297000886000200870032000E0022005B0F0BD50
:102980000498703020214160002101700020F5E79B
:10299000000000005FFEFFFF70B505002E007036DE
:1029A0007068202844D1002935D0100033D0A868A1
:1029B00080235B01984204D12869002801D1C8070F
:1029C00029D47020285C012832D001203070E964BD
:1029D00028005030028042800024F4602121716080
:1029E0008169002919D03E4BCB623E498369196346
:1029F0003D498369596381698C6313002A682832D1
:102A0000E96C806900F0FAFF002806D01020F06021
:102A1000347020207060012070BD40202968086259
:102A200034702868816880220A438260002070BD6B
:102A3000022070BD0000F0B581B0060035005835A9
:102A4000286A202848D100290BD0100009D0B0688E
:102A500080235B01984206D13069002803D1C80762
:102A600001D5012039E0287E012835D001272F76B5
:102A700071652A8000246C6222202862686900281F
:102A800019D01A49C1621A48696908631648696908
:102A90004863686984631300726D31682431686922
:102AA00000F0ACFF002806D0102068622C762020B1
:102AB000E861012011E02C76306801683A020A438F
:102AC0000260306881680F43876030688168402207
:102AD0000A438260002000E0022001B0F0BD000047
:102AE000193000084D300008A73000085B3000089E
:102AF0009930000870B504002268D06911689368A5
:102B000005070AD185066FD58D066DD5216E002982
:102B100000D18DE02000884770BD01252B4203D1F4
:102B2000902676000E405FD0C60705D5CE0503D5AA
:102B30001562E26F1543E567820708D5DA0706D507
:102B4000022225682A62E26F04251543E5674207E1
:102B500008D5DA0706D5042225682A62E26F022525
:102B60001543E567020709D58A0601D4DA0705D5BA
:102B7000082223681A62E36F1A43E267E26F002AB1
:102B800056D0800606D5880604D5216E002901D0CE
:102B900020008847E06F21688968490601D4000752
:102BA0001CD5200000F024FA20688168490611D560
:102BB0008168402291438160E06E00280AD01D495F
:102BC0008163E06E00F063FF002831D0E06E816B1E
:102BD000884770BD200002F027FE70BD200002F083
:102BE00023FE0020E06770BDC50208D55B0206D554
:102BF000802040031062200002F018FE70BD030622
:102C000007D50B0605D5616E002911D02000884735
:102C100070BD40060CD548060AD51068402188438F
:102C2000106020206067002060662000FEF769FBCE
:102C300070BD000039310008F0B581B005001022E8
:102C40001023002000242E6831688A4F0F40A968A5
:102C500039432F690F4369693943EF690F4337607F
:102C6000776885493940EF680F437760A96900911B
:102C700082498E4203D0009F296A39430091B76888
:102C80007F493940009F0F43B7607E498E4222D171
:102C90007D49C96C8907890F04D0022929D048D3FE
:102CA000032942E00123D602E969B14200D0A2E043
:102CB000082B00D994E002A1C95C49008F4400BFF1
:102CC00005727890829090908800FEF7B0FE696857
:102CD00040004A087FE06D498E420CD16A49C96CB8
:102CE0000C270F4023D0042F23D0082F01D00C2F06
:102CF0001BE0022320E098498E4201D10023D2E755
:102D000096498E42FAD05D498E4215D15E49CF6C0C
:102D1000C021090139400AD09701B94209D0D70131
:102D2000B942E6D0C0273F01B94204D004E00023F5
:102D300002E0042300E0082350498E42B3D1002B67
:102D400006D0022B13D0042B19D0082B1AD08AE0FE
:102D5000FEF76DFE002800D186E06E6871008919CB
:102D6000884200D27FE0310381420DD27BE04648A9
:102D70000068024001D09A48EFE79A48EDE7FEF775
:102D80001DFEE7E7C80BE8E7030E0202700800210A
:102D9000801859413200002302F049FD9249411840
:102DA000924A5BE0FEF74DFE696840004A0812E077
:102DB00069684808344B1B681A4001D0944A0AE0FD
:102DC000944A08E0FEF7FAFD696840004A0802E00C
:102DD0006968480812038018FFF79AF880B200E08B
:102DE0000124AC490200103A8A423CD2014000075B
:102DF000400F084334E0082B2CD801A1C95C8F4454
:102E000008142052385252524400FEF710FE6968EE
:102E10004A0880181AE0FEF714FE69684A0880180C
:102E200014E069684808184B1B681A4002D06C4AC5
:102E300080180BE06B4A801808E0FEF7BFFD696858
:102E40004A08801802E0696848088019FFF760F8AE
:102E500080B200E00124010010398E4A914202D272
:102E60002968C86000E00124002028666866200008
:102E700001B0F0BDF369FFEFFFCFFFFF0048004056
:102E8000FFF4FFFF00380140001002400044004002
:102E90002421415CC90706D501684A689C4B134050
:102EA000826A1A434A602421415C890706D5016879
:102EB0004A68984B1340C26A1A434A602421415C15
:102EC000490706D501684A68934B1340026B1A43C1
:102ED0004A602421415C090706D501684A688F4B86
:102EE0001340426B1A434A602421415CC90606D54F
:102EF00001688A688A4B1340826B1A438A602421D6
:102F0000415C890606D501688A68864B1340C26B0E
:102F10001A438A602421415C490611D501684A6838
:102F2000814B1340026C1A434A60026C80235B039E
:102F30009A4205D14A687D4B1340426C1A434A605D
:102F40002421415C090606D501684A68784B134084
:102F5000806C184348607047004C004000500040AF
:102F6000F0B581B00600370070370024FC6000F037
:102F700043FB050030680068000722D53068C0694F
:102F800080021ED400F038FB401B80218904884257
:102F9000F4D306E000F030FB401B80218904884216
:102FA00013D330680168634A0A4002603068816860
:102FB00001229143816020207860B8603C7003203A
:102FC0000CE030680068400703D53068C0694002F3
:102FD000E0D520207860B8603C70002001B0F0BDE2
:102FE00000093D000024F40000FDFFFF00FD0F007C
:102FF00001680A68564B13400B6001688A68012318
:103000009A438A6020218167002101667047000091
:1030100000127A000048E80100B581B00100886A1A
:103020000968096889060DD400215222815201687D
:103030008A6880239A438A600068016840220A43B4
:10304000026001E0FEF75DF901B000BD00B581B09E
:10305000806A02F021FC01B000BD10B50100886A51
:10306000202209680968114011D15A23C152016810
:103070000B68384C1C400C6001688B680124A3432A
:103080008B6001688B684024A3438B60826702F0E9
:1030900004FC10BDF0FF000000B581B0806A02F0B2
:1030A000FDFB01B000BD30B581B0806A0100603128
:1030B0004C698A6903689D682D060AD5212C08D1C0
:1030C0000024522544531C68C025AC431C602023B7
:1030D0004B6103689C68640611D5222A0FD1002237
:1030E000050052352A811C68194D25401D60036872
:1030F0009C680125AC439C6020238B610A60CA69EF
:1031000010231343CB6102F08FFB01B030BD0000F0
:10311000FFFFFDFFFFFFFEFFFFFFFBFFFF7FFFFF46
:10312000FFEFFFFFFFDFFFFFFFFFEFFFFFFF9FFF4F
:10313000FFFFF7FF5FFEFFFF00B581B0806A01006F
:10314000523100220A810A8002F06EFB01B000BDFC
:10315000DFFEFFFFFFFEFFFF7047FEE741790171D1
:10316000322141718179803981717047654949788F
:103170000171322141710821817103210160704781
:1031800070B50400012501262168022900D2A1E0C2
:103190002079322800D09DE0A0790200012811D0CA
:1031A000022826D004283FD0082852D009286ED003
:1031B0000C2800D18CE00E2810D0102876D0502892
:1031C00041D09AE0032900D084E061792171322155
:1031D00061718038A071032020608AE0032979D1D1
:1031E00061792171322161718038A07103202060E2
:1031F00084E003296ED161792171322161718038B7
:10320000A0710020E11D404A13780B7053784B7079
:1032100093788B70D378CB70001D121D091D282860
:10322000F2D3C01C206064E0032953D3617921717B
:10323000322161718038A0716521E01D00F03AF9FA
:103240000720206055E0052944D3200002F028FB28
:1032500054E003293ED30421E01D00F002F92B497C
:103260000860284805702A490968496A294A116096
:10327000294A157029490D706179417021713220F8
:103280006071A0798038A0710320206031E00329AB
:1032900020D300201D4908601A4908706079207108
:1032A00032206071A0798038A07122E0042911D306
:1032B0000421E01D00F0D5F8144908606079207100
:1032C00032206071A0798038A0710420206010E065
:1032D000032901D2002070BD617921713221617111
:1032E0008038A07103202060627A217AE079FDF7AE
:1032F000AAFB2000FDF76EFF00E00026300070BD45
:1033000000000000840200208802002080080020C5
:10331000400800208408002008060020140800202F
:10332000F0B481B0002200230D1DF1240E68002EA0
:1033300018D000912E780221F02E05D0F12E08D160
:103340008454461CB45406E08454F226471CBE54F0
:1033500001E08654012152185B1C6D1C009909681C
:103360008B42E7D3F0218154501C01B0F0BC704770
:10337000F1280BD1F12901D1117003E0F22903D119
:10338000F02010700220704700207047107001205C
:10339000704710B4002200210368002B18D0031DD1
:1033A0009B5CC91A521C03689A4211D2041DA45C8A
:1033B000091B521C9A420BD2041DA45C091B521C0F
:1033C0009A4205D2041DA45C091B521C9A42E6D302
:1033D000031D99540168491C016010BC704710B46A
:1033E0000100002200230868002818D0081DC05CD6
:1033F00012185B1C0868834211D20C1DE45C121980
:103400005B1C83420BD20C1DE45C12195B1C8342D3
:1034100005D20C1DE45C12195B1C8342E6D3401EEE
:103420000860D0B2401E8041C00F10BC7047002A17
:1034300016D093079B0F05D00170090A5B1E401C34
:10344000002BF9D192080BD00170090A4170090ACA
:103450008170090AC1700021521E001D002AF3D19B
:1034600070470200491E53181878002900D1704790
:1034700070B40C005B1EA507AD0F07D0491E0002FB
:103480001E7880196D1E5B1E002DF7D1A3080FD08A
:103490005118091FC87800028A78801800024A78FB
:1034A000801800020A7880185B1E091F002BF1D1DA
:1034B00070BC7047002A16D093079B0F05D001708F
:1034C000090A5B1E401C002BF9D192080BD0017039
:1034D000090A4170090A8170090AC1700021521E4F
:1034E000001D002AF3D1704700B581B0002803D039
:1034F000022826D018D331E0880708D511003D48AE
:10350000006801F09BF800282AD0042027E0C807B3
:1035100008D511003748006801F09BF800281FD03B
:1035200004201CE004201AE0880708D51100314867
:10353000406801F050FC002812D004200FE0042065
:103540000DE0480708D511002A48806801F07AFE8E
:10355000002805D0042002E0042000E00120C04340
:1035600001B000BD00B581B0002803D0022811D001
:1035700008D317E01F48006801F048F8002813D06E
:10358000042010E01B48406801F00DFC00280BD01F
:10359000042008E01748806801F03CFE002803D0B2
:1035A000042000E00120C04301B000BD00B581B09F
:1035B000002803D0022811D008D317E00D48006876
:1035C00001F030F8002813D0042010E009484068CA
:1035D00001F0F5FB00280BD0042008E005488068C6
:1035E00001F024FE002803D0042000E00120C043A5
:1035F00001B000BD5403002001480068704700BFBF
:10360000E80A002070B4103A03D378C9103A78C0A1
:10361000FBD2530701D318C918C001D508C908C087
:10362000D20704D30B880380891C801C002A01D593
:103630000B78037070BC7047521E22D30B78491C64
:103640000370401C8B07F7D18307DBD0DB4219D016
:10365000401E121F08D308C943701B0A43801B0C6D
:103660000371001D121FF6D2D20707D30B884370D7
:1036700001D08A78C2701B0A8370704701D00B7822
:1036800043707047121F06D308C903801B0C438088
:10369000001D121FF8D2D20705D30B88038005D076
:1036A0008B788370704701D00B7803707047FEE70A
:1036B00030B581B0050000240A480068FA2189006D
:1036C000FEF726FC00F023F9002801D0012405E0D4
:1036D000290000220020C04300F0F2F8200001B0D1
:1036E00030BD00BFBC050020F0B583B00400694DBB
:1036F000206882210901014000D189E00020019069
:1037000080204005A96B014004D1A96B0843A86340
:1037100001200190AF0D60480068384042D15E48FA
:1037200000900068384300990860FFF765FF0600C5
:1037300000980068384035D1FFF75EFF801B652890
:10374000F6D30320A4E0296DC0208002084045D0B4
:10375000C02189020A40904202D02278920606D403
:10376000A2681140884239D02068000536D5296DFD
:103770004A480840296DFA020A432A65296D484AD9
:103780000A402A652865074028D0FFF735FF060064
:10379000286D800522D4FFF72FFF801B4149884206
:1037A000F6D3CEE72968C020800308406268C021B4
:1037B00089031140884205D1A168C0239B030B40B7
:1037C0009842C0D0C02080021040C02189028842A7
:1037D000B9D128688003B6D5012059E06168C020BE
:1037E000800202000A40824206D12A682E4B134012
:1037F00002010A401A432A60296D6268104008439A
:1038000028650198002803D0A86B28490140A963C6
:103810002078C00705D5E86C03218843E16801439F
:10382000E9642078800705D5E86C0C21884321697C
:103830000143E9642078400705D5E86C1C49014044
:1038400060690843E8642078000705D5E86C1949E9
:103850000140A0690843E8642068C00505D5E86C0C
:103860000E490140E0690843E8642078400605D528
:10387000E86C11490140606A0843E864207800065A
:1038800005D5E86C0D490140206A0843E864002032
:1038900003B0F0BD0010024000700040FFFFFCFFCD
:1038A000FFFFF7FF89130000FFFFCFFFFFFFFFEFD0
:1038B000FFF3FFFFFFCFFFFFFFFFFFFBFFFFF3FF64
:1038C00010B4C20018231340FF249C40E243890730
:1038D000090E9940030004D41D489B089B00C018A2
:1038E00006E01C4B0007000F0838800880001818FD
:1038F00003681A401143016010BC7047010005D4F1
:103900000121C006C00E8140134801607047401E6F
:103910001249884201D90120704711494860114875
:1039200002681202120AC0231B0613430360002020
:10393000886007220A60704709490428086803D193
:10394000042202430A6070470422904308607047D3
:1039500000E400E01CED00E000E100E0FFFFFF00FC
:1039600010E000E020ED00E070B5040001D101207E
:1039700070BD25681D4828181421FEF7C9FA80007B
:1039800060641B482064022025216054286819497E
:103990000140A0680843E168014320690843616968
:1039A0000143A0690843E1690143206A0843286094
:1039B000A0688021C901884210D00F481C210268EC
:1039C0000F23656C1C262E40B3409A4302600268A8
:1039D0006368656C29408B40134303600020E063FB
:1039E00001212522A1542421605470BDF8FFFDBFA0
:1039F000000002400F80FFFFA8000240F2B4002543
:103A000000212424045D012C01D102203CE001248A
:103A10002427C45502262527C75D012F30D125272D
:103A2000C655C56305682E68A6432E604425455DCE
:103A30001C262E400125B540066C756005686B603C
:103A4000009B8568102D056803D1AA600268D360C9
:103A500002E0AB600368DA600268036B002B136856
:103A600001D00E2505E00425AB43136002681368FE
:103A70000A251D431560006802681443046002E0D3
:103A8000242145540221080001B0F0BC704770B5F4
:103A90000022002401212523C35C022B03D0042231
:103AA000C263012418E003681D680E26B5431D603B
:103AB00003681D688D431D604423C35C1C251D40A5
:103AC0000123AB40056C6B602523C1542421425473
:103AD000816B002900D08847200070BDF0B581B00F
:103AE000016C0968026813681C24466C2640042592
:103AF0000427B7400F4011D02B420FD01168890620
:103B000002D41168A9431160416C0C40A540016CBE
:103B10004D60016B00293BD0884739E00225022720
:103B2000B7400F4018D02B4216D01168890606D432
:103B300011680A2399431160012125228154416CA7
:103B40000C40A540016C4D60002124228154C16AC3
:103B500000291DD088471BE008250827B7400F40E3
:103B600016D01D4014D011680E2399431160012115
:103B7000426C14400122A240036C5A60C1632522AA
:103B80008154002124228154416B002900D08847B0
:103B900001B0F0BD00B599B00C210020334A126885
:103BA000002A0A9114900DD1F4310C910F900AA8BB
:103BB000FDF7BCFB002801D0FCF75EFF2020009041
:103BC000C0020CE001210F910C900AA8FDF7AEFB9A
:103BD000002801D0FCF750FF202000900003019046
:103BE0006846FFF781FD002801D0FCF745FF20481B
:103BF00001688022D2020A43026000220F210220C3
:103C0000FFF75EFE0220FFF779FE19B000BD00B598
:103C100087B01848C168802292030A43C26002211B
:103C200002680A4302600068014000910098C020C9
:103C30008000019012200290012003900320049044
:103C40000420059001A90C48FDF748F807B000BD15
:103C500000B581B009480168094A0A400260C021E4
:103C600089000548FDF7F6F801B000BD7C0800208A
:103C7000501002402C100240000400503810024046
:103C8000FFFFDFFF7047FEE730B581B0050000247D
:103C9000002D2BD008682860486868608868A86094
:103CA000087B287308692861486968618869A86188
:103CB000A7482862A748E8616D622868002815D0E7
:103CC0008047002812D1A868022810D12820285C3B
:103CD00000280CD10C206946087001236A46122185
:103CE00028001C3002F026F9002800D0E443200010
:103CF00001B030BD30B581B0040001211C3002F0AC
:103D0000E8FC00283CD1012120001C3002F0C4FC5A
:103D1000002835D1012120001C3002F0DAFC0028F7
:103D20002ED1012120001C3002F03FFC002827D1B9
:103D3000002120001C3002F0EAFC002820D10425DC
:103D40002B202554002120001C3002F035F90028DA
:103D500016D1002120001C3002F0F2F800280FD10B
:103D60002C202554002120001C3002F0C6FA002827
:103D700006D10C2120001C3002F078FA002802D075
:103D80000020C04303E0012028216054002001B03E
:103D900030BD10B504002920205C002810D021007F
:103DA0002B3120001C3002F02DFA002825D10021F3
:103DB00020001C3002F000F900281ED12921605497
:103DC0002A20205C002810D021002C3120001C303B
:103DD00002F0BAFB002810D1002120001C3002F0B4
:103DE0008CFA002809D12A21605400202B22A054EB
:103DF0002C22A0542821605410BD0020C04310BDC7
:103E000000B581B01C3002F03EFC002801D000203B
:103E1000C04301B000BD01200870487000208870C8
:103E2000C870FA22D2004A6010228A60C8608C48AA
:103E30000861486100208861704710B5040029209E
:103E4000205C01280DD02B20215C20001C3002F0CA
:103E5000B3F8002802D00020C04310BD0120292162
:103E60006054002010BD10B504002920205C0028FB
:103E700013D021002B3120001C3002F0C3F90028A0
:103E800006D1002120001C3002F096F8002802D054
:103E90000020C04310BD2921605410BD30B581B051
:103EA0000C00002569461C3002F068F8002802D09A
:103EB0000020C04314E068460078002805D002289E
:103EC00005D008D3032804D008E0664804E066481B
:103ED00002E0664800E06648206000E0ED4328000C
:103EE00001B030BD30B581B00C00002569461C30F2
:103EF00002F088F9002802D00020C04325E068467F
:103F000000780A281FD801A1095C8F440A0E1216F6
:103F10001A1E22262A2E3200256015E0554810E090
:103F200055480EE055480CE055480AE0A34808E023
:103F3000A34806E0A34804E0A34802E0A34800E049
:103F40004748206000E0ED43280001B030BD00008C
:103F5000694600087546000800B581B002000800F7
:103F60009B492923D35C012B3ED102F02FFC01D2C7
:103F7000012130E0974902F029FC01D202212AE018
:103F8000954902F023FC01D2032124E0934902F079
:103F90001DFC01D204211EE0914902F017FC01D260
:103FA000052118E08F4902F011FC01D2062112E030
:103FB0008D4902F00BFC01D207210CE08B4902F085
:103FC00005FC01D2082106E0B74902F0FFFB01D24F
:103FD000092100E00A2110001C3001F0EDFF00284B
:103FE0003BD00020C04338E002F0F0FB01D20120BA
:103FF00030E0784902F0EAFB01D202202AE076495B
:1040000002F0E4FB01D2032024E0744902F0DEFB5D
:1040100001D204201EE0724902F0D8FB01D2052033
:1040200018E0704902F0D2FB01D2062012E06E497E
:1040300002F0CCFB01D207200CE06C4902F0C6FB79
:1040400001D2082006E0984902F0C0FB01D2092005
:1040500000E00A202B215054002001B000BD0000D8
:104060000058D04523DB793D23DBF93D23DB793E46
:1040700023DBF93E000048410000D04100005042DF
:104080000000D04230B581B00C00002569461C30DC
:1040900001F074FF002802D00020C04314E06846FD
:1040A0000078002805D0022805D008D3032804D0C2
:1040B00008E0022004E0042002E0082000E01020D4
:1040C000206000E0ED43280001B030BD00B581B0B4
:1040D000032901DA002108E0052901DA022104E0C0
:1040E000092901DA032100E001211C3001F028FF39
:1040F000002801D00020C04301B000BD10B582B03F
:104100000C0069461C3002F099FA002802D0002009
:10411000C04307E06846018821804188618080882B
:10412000A080002002B010BD70B584B005000C0066
:1041300001A91C3002F082FA00283CD1694628000F
:104140001C3001F01BFF002835D16846007800289C
:104150002FD002282BD002D3032826D02BE06E4D7F
:1041600001AE0020305E02F055FB0100280002F095
:104170005CFB02F0B3FB20600220305E02F04AFBE1
:104180000100280002F051FB02F0A8FB606004204F
:10419000305E02F03FFB0100280002F046FB02F017
:1041A0009DFBA060002004B070BD5C4DD8E79E4D23
:1041B000D6E79E4DD4E70020C043F4E7000050430B
:1041C0000080D043004050440060D044005050452F
:1041D000010048410100D041010050420100D0429D
:1041E000010050430180D043014050440160D0445D
:1041F00010B504002A20205C01280DD02C20215C61
:1042000020001C3002F079F8002802D00020C043C2
:1042100010BD01202A216054002010BD10B50400FB
:104220002A20205C002813D021002C3120001C30D3
:1042300002F08AF9002806D1002120001C3002F08B
:104240005CF8002802D00020C04310BD2A21605431
:1042500010BD000030B581B00C00002569461C304F
:1042600002F022F8002802D00020C0431AE068467D
:1042700000780C2814D801A1095C8F4410220C226C
:1042800014222222182222221C008F4806E08F4886
:1042900004E08F4802E08F4800E08F48206000E093
:1042A000ED43280001B030BD0150504530B581B01C
:1042B0000C00002569461C3002F046F9002802D0A7
:1042C0000020C04325E0684600780A281FD801A1D5
:1042D000095C8F440A0E12161A1E22262A2E32005C
:1042E000256015E07D4810E07D480EE07D480CE03B
:1042F0007D480AE07D4808E07D4806E07D4804E00E
:104300007D4802E07D4800E07D48206000E0ED430C
:10431000280001B030BD000023DBF93E23DB793EED
:1043200000B581B002000800A9492A23D35C012B03
:104330003ED102F04BFA01D2012130E0A54902F052
:1043400045FA01D202212AE0A34902F03FFA01D244
:10435000032124E0A14902F039FA01D204211EE030
:104360009F4902F033FA01D2052118E09D4902F07D
:104370002DFA01D2062112E09B4902F027FA01D260
:1043800007210CE0994902F021FA01D2082106E048
:10439000974902F01BFA01D2092100E00A2110001E
:1043A0001C3001F0AAFF00283BD00020C04338E0B9
:1043B00002F00CFA01D2012030E0864902F006FA40
:1043C00001D202202AE0844902F000FA01D203203F
:1043D00024E0824902F0FAF901D204201EE080496B
:1043E00002F0F4F901D2052018E07E4902F0EEF95E
:1043F00001D2062012E07C4902F0E8F901D2072040
:104400000CE07A4902F0E2F901D2082006E078498E
:1044100002F0DCF901D2092000E00A202C215054DE
:10442000002001B000BD000023DBF93D23DB793D16
:1044300030B581B00C00002569461C3001F034FF16
:10444000002802D00020C0431DE0684600780C28F8
:1044500017D801A1095C8F4410280C28142828289B
:104460001A28282820007D2009E0FA2007E0FA20F9
:10447000400004E0FA20800001E0FA20C000206043
:1044800000E0ED43280001B030BD00B581B07E29C9
:1044900001DA02210FE0FB2901DA00210BE0FF2203
:1044A000F632914201DA042105E0524A914201DAE2
:1044B000082100E00C211C3001F0D8FE002801D0BA
:1044C0000020C04301B000BD00008C4000000C4142
:1044D00000008C4100000C4200008C42000048416A
:1044E0000000D041000050420000D0420000504384
:1044F0000080D043004050440060D04400505045FC
:104500000058D04510B582B00C0069461C3002F04E
:104510008CF8002802D00020C04307E068460188DC
:104520002180418861808088A080002002B010BD79
:1045300070B584B005000C0001A91C3002F075F8BC
:10454000002842D1694628001C3001F0ADFE002849
:104550003BD1684600780C2837D801A1095C8F440C
:10456000606864685C686868586868680C00224D18
:1045700001AE0020305E02F04DF90100280002F08B
:1045800054F902F0ABF920600220305E02F042F9EB
:104590000100280002F049F902F0A0F9606004204F
:1045A000305E02F037F90100280002F03EF902F017
:1045B00095F9A060002004B070BD104DD8E7104DF3
:1045C000D6E7104DD4E7104DD2E70020C043F2E704
:1045D000010048410100D041010050420100D04299
:1045E000010050430180D043014050440160D04459
:1045F00001505045E903000000008C4200000C42CD
:1046000000008C4100000C4100008C4000B581B0DE
:1046100001231C3001F088FC002801D00020C04399
:1046200001B000BD04B501236A461C3001F082FCD4
:10463000002801D00020C04301B000BD00B581B00A
:104640001C3001F0D0FF002801D00020C04301B091
:1046500000BD00B581B01C3001F0D6FF002801D0AC
:104660000020C04301B000BD10B50400207B646988
:10467000A04710BD10B50400207B2469A04710BDE1
:1046800030B581B005000024002D2BD008682860CB
:10469000486868608868A860087B28730869286192
:1046A000486968618869A861864828628648E86127
:1046B0006D622868002815D08047002812D1A868AC
:1046C000022810D12820285C00280CD1052069463A
:1046D000087001236A46212128001C3002F022F9CB
:1046E000002800D0E443200001B030BD10B5040024
:1046F00001211C3002F0B2FA002829D1012120004A
:104700001C3002F02EFA002822D1002120001C309B
:1047100002F0C2FA00281BD1042120001C3002F054
:1047200007F9002814D16948E06200203022A05423
:1047300031216054002120001C3002F08FF9002844
:1047400006D1002120001C3002F029FA002802D0F6
:104750000020C04310BD012028216054002010BD5E
:1047600010B504002920205C00280BD00021200077
:104770001C3002F073F9002802D00020C04310BDA5
:10478000292160540020E0623022A0543122A0543C
:104790002821605410BD00B581B01C3002F055FADC
:1047A000002801D00020C04301B000BD01200870E6
:1047B000002048708870C870486010228A60C86005
:1047C0000861954A4A618861704710B50400292044
:1047D000205C01280FD03120235C3020225CE16A6C
:1047E000200000F003FB002802D00020C04310BDD1
:1047F000012029216054002010BD10B5040029209B
:10480000205C00280BD0002120001C3002F026F98B
:10481000002802D00020C04310BD2921605410BDE3
:1048200070B582B004000E00002569461C3002F00D
:10483000D4F9002807D100A9491C20001C3002F03F
:10484000B3F8002802D00020C04339E06846407821
:104850001B2831D801A1095C8F4400BF1C383838AF
:10486000385C5C5C1C3838385C5C5C5C1C38383804
:10487000385C5C5C1C38383868460078002817D0F3
:10488000022803D016D3032802D015E0824815E091
:10489000824813E068460078002805D0022807D037
:1048A00004D3032806D007E07D4807E07D4805E0F3
:1048B0007D4803E07D4801E07D48ED4330602800FD
:1048C00002B070BD2D4F0008394F00080000C842EB
:1048D00070B582B004000E00002500A9491C1C30F0
:1048E00002F0F4F8002806D1694620001C3002F0DE
:1048F0005BF8002802D00020C0438BE06846407877
:10490000222800D982E002A1095C49008F4400BF3F
:1049100012142C2E30327C344C647E7E7E7E7E7E61
:104920007E7E127E7E7E7E7E7E7E7E7E7E7E7E7E13
:104930007E7E120000206BE0684600781B2800D9BC
:1049400064E001A1095C8F441A1A1A1A1EC2C2C27D
:104950001A1A1A1AC2C2C2C21A1A1A1A1EC2C2C21B
:104960001A1A1A1A534853E0534851E053484FE07B
:1049700053484DE053484BE0684600781B2845D823
:1049800001A1095C8F4400BF808080801C848484E6
:104990008080808084848484808080801C8484845F
:1049A00080808080484833E0684600781B282DD8F6
:1049B00001A1095C8F4400BF505050501C54545406
:1049C0005050505054545454505050501C545454FF
:1049D000505050503D481BE0684600781B2815D8C1
:1049E00001A1095C8F4400BF202020201C24242426
:1049F0002020202024242424202020201C2424249F
:104A000020202020044803E0314801E02848ED43FD
:104A10003060280002B070BD0000C84400B581B00D
:104A20000023002200F002F801B000BD10B5040020
:104A300008002921615C012904D10100200000F057
:104A4000D5F910BD3021625431216354214901F060
:104A5000BDFE1BD3204901F0B9FE17D31F4901F059
:104A6000B5FE13D31E4901F0B1FE0FD31D4901F06D
:104A7000ADFE0BD31C4901F0A9FE07D31B4901F081
:104A8000A5FE03D31A4901F0A1FE01D2481E00E0A1
:104A90001848E062002010BD23DB794023DBF94099
:104AA00023DB793E23DBF93E23DB793F23DBF93F30
:104AB000000080BFCDCCCC3F000048410000C84181
:104AC000000048420000C8420000C84300004844BB
:104AD00000004843CECCCC3F010048410100C84112
:104AE000010048420100C842010048430100C84398
:104AF000010048440000C84430B581B00C000025D6
:104B000069461C3002F069F8002802D00020C0433A
:104B100016E068460078002805D0022807D004D3A4
:104B2000032806D007E0022008E0042006E0082061
:104B300004E0102002E00020C043050020602800AF
:104B400001B030BD00B581B0032901DA002108E0D1
:104B5000052901DA012104E0092901DA022100E036
:104B600003211C3002F01BF8002801D00020C043B4
:104B700001B000BD70B584B004000E000025694688
:104B80001C3001F011FF002806D101A920001C30C3
:104B900002F052F8002802D00020C04343E06846EB
:104BA00000781B283DD801A1095C8F441A4646466F
:104BB000467474741A464646747474741A464646AB
:104BC000467474741A46464601A80021415ECA1014
:104BD000120F5118091131800221415ECA10120FC3
:104BE0005118091171800421405EC110090F081885
:104BF000001114E001A80021415E4A10920F5118E3
:104C0000891031800221415E4A10920F511889109B
:104C100071800421405E4110890F08188010B08017
:104C200000E0ED43280004B070BD0000F0B583B093
:104C300004000D0069461C3001F0B6FE002800D0CB
:104C4000AEE001A920001C3001F0F6FF002800D0E2
:104C5000A6E0684600781B2800D9A1E001A1095C04
:104C600049008F44230D0D0D0D9D9D9D230D0D0DB0
:104C70009D9D9D9D230D0D0D0D9D9D9D230D0D0D48
:104C800001A80021415E4A10920F51188E10022196
:104C9000415E4A10920F511889106A4651800421D2
:104CA000405E4110890F0818871014E001A8002108
:104CB000415ECA10120F51180E110221415ECA1036
:104CC000120F511809116A4651800421405EC1102B
:104CD000090F08180711694620001C3001F07DFFFC
:104CE00000285DD100A9491C20001C3001F05CFEA9
:104CF000002855D1684640781B2851D801A1095C8D
:104D00008F4400BF7A1C1C1C1C9C9C9C7A1C1C1C85
:104D10009C9C9C9C7A1C1C1C1C9C9C9C7A1C1C1C97
:104D200068460078002828D0022837D002D303280C
:104D300032D035E06E4C30B201F06CFD0100200045
:104D400001F073FD01F0CAFD28600098001401F025
:104D500061FD0100200001F068FD01F0BFFD686009
:104D600038B201F057FD0100200001F05EFD01F0B6
:104D7000B5FDA860002003B0F0BD5E4CDBE76846DF
:104D8000007800280AD0022804D005D3032807D1D0
:104D9000594CD0E7594CCEE7594CCCE7594CCAE7AF
:104DA0000020C043E7E700B581B001231C3001F0CB
:104DB000B3FD002801D00020C04301B000BD04B500
:104DC00001236A461C3001F0ADFD002801D000200F
:104DD000C04301B000BD00B581B01C3001F01BFF25
:104DE000002801D00020C04301B000BDF4B5070089
:104DF0000C001E00012A11D004D3032A1AD013D3A9
:104E0000042A1DD0012E01D0042500E014253E49BE
:104E1000200001F0DBFC1FD20C0027E0012E01D0A6
:104E2000032512E0132510E0012E01D002250CE02D
:104E300012250AE0012E01D0012506E0112504E02B
:104E4000012E01D0002500E0102520002F4901F09F
:104E50003FFF01D84C1E21E02D4901F0B7FC01D2E3
:104E600001212AE02B4901F0B1FC01D2022124E00A
:104E7000294901F0ABFC01D203211EE0274901F0D2
:104E8000A5FC01D2042118E0254901F09FFC01D2C4
:104E9000052112E01D4901F099FC01D206210CE028
:104EA000204901F093FC01D2072106E01E4901F0E0
:104EB0008DFC01D2082100E0092138001C3001F0EE
:104EC000CDFD002806D1290038001C3001F030FD4E
:104ED000002802D00020C04307E0FC62684600784A
:104EE0003021785431203E54002001B0F0BD000044
:104EF00023DBF93E23DB793E23DBF94023DB7940DA
:104F000023DBF93F23DB793F0000484101004843A0
:104F1000CECCCC3F010048410100C84101004842CD
:104F20000100C8420100C8430100484410B5040014
:104F3000207B6469A04710BD10B50400207B246964
:104F4000A04710BD30B581B005000024002D33D03E
:104F500008682860486868608868A860087B2873CB
:104F600008692861486968618869A8617948286288
:104F70007948E8616D62286800281DD080470028C4
:104F80001AD1A868002818D02821695C002914D1FA
:104F900001280AD134206946087001236A4662213B
:104FA00028001C3001F0AEFE04E0012128001C3076
:104FB00001F066FF002800D0E443200001B030BDBE
:104FC00010B5040001211C3001F0FBFE002814D1B3
:104FD000022120001C3001F09BFE00280DD103218E
:104FE00020001C3001F0B1FE002806D10021200075
:104FF0001C3001F027FF002802D00020C04310BD64
:10500000012028216054002010BD10B50400292083
:10501000205C00280BD0022120001C3001F078FE1B
:10502000002802D00020C04310BD29216054002078
:105030002821605410BD00B581B01C3001F0F9FE8C
:10504000002801D00020C04301B000BD002008703E
:10505000487001228A70C870486088603220C86039
:105060000020086148613D4888610020704710B504
:1050700004002920205C01280CD0002120001C30D5
:1050800001F046FE002802D00020C04310BD0120E0
:1050900029216054002010BD10B504002920205C97
:1050A00000280BD0022120001C3001F031FE002826
:1050B00002D00020C04310BD2921605410BDFF2044
:1050C000800508600020704730B581B00C000025D5
:1050D00069461C3001F057FE002802D00020C04372
:1050E00014E068460078002805D0022807D004D3D1
:1050F000032806D008E01A4804E01A4802E01A48DB
:1051000000E01648206000E0ED43280001B030BD0B
:1051100000B581B002000800144901F057FB01D22C
:1051200000210CE0124901F051FB01D2012106E0FF
:10513000104901F04BFB01D2022100E003211000D5
:105140001C3001F002FE002801D00020C04301B055
:1051500000BD00005B5200087B5200080000C842FE
:10516000000020410000A041000048420100204111
:105170000100A04101004842322008600020704731
:105180000020704710B582B00C0069461C3001F059
:1051900047FE002802D00020C04307E0684601888F
:1051A0002180418861808088A080002002B010BDED
:1051B00070B582B00C0069461C3001F031FE002849
:1051C00002D00020C04323E0FF25AD056E46305ECF
:1051D00001F020FB0100280001F027FB01F07EFB1D
:1051E00020600220305E01F015FB0100280001F074
:1051F0001CFB01F073FB60600420305E01F00AFBD1
:105200000100280001F011FB01F068FBA060002004
:1052100002B070BD00B581B001231C3001F06CFDFF
:10522000002801D00020C04301B000BD04B5012317
:105230006A461C3001F066FD002801D00020C04302
:1052400001B000BD00B581B01C3001F0D8FD0028D0
:1052500001D00020C04301B000BD30B581B0057B56
:1052600044698068002801D1802000E04020084384
:1052700001002800A04701B030BD30B581B0057BEA
:1052800004698068002801D1802000E040200843A4
:1052900001002800A04701B030BDFEE7F8B598B086
:1052A00005000C0017001E001E9A00BFA3A003C833
:1052B0006B4603C3079406A82B21425400200D908F
:1052C00003950597049616E0059C3D00039E217802
:1052D0000798B0470790002800D114E10D98401CB2
:1052E0000D90641C6D1EF2D1039601E0ECD50127F0
:1052F0000598C019059005980078252806D1002545
:105300000A950B950C950021059C0CE06A4600213E
:10531000C943059801F000FE0700E7D10D98F4E0BD
:10532000080001210143641C20782028F8D023289C
:105330000CD02B2804D02D2805D0302809D0E6E049
:1053400008000221EEE708000421EBE7080008212D
:10535000E8E708001021E5E70F950AE00F9A764B81
:105360009A4205DA93009A185200101830380F90BC
:10537000641C20780200303A0A2AEFD320782E28C5
:1053800003D00020C0430E9028E0641C20782A2817
:105390000AD104980068049A10600268001D049BFA
:1053A00018600E92641C19E02D2802D12D22641C75
:1053B00000E000220E950CE0002A09D10E9B5E4E03
:1053C000B34205DA9E00F3185B00181830380E90CF
:1053D000641C20780300303B0A2BEDD306AF3985DF
:1053E0002678310057A001F09FFD002801D0641CF1
:1053F00000E000262A203E54385C682806D1207838
:10540000682803D162202A217854641C12A80990CC
:105410002378049A06A9039800F0C6F8611C059148
:10542000002870D10F980A99401A0C99401A0B99CC
:10543000401A11902820385C400712D42020694679
:105440000872119800280CDD119C039D012302AA0B
:1054500006A9280000F0C0F9002854D1641EF5D137
:1054600003950A9D12AC002D0DD0039E217807985C
:10547000B0470790002846D00D98401C0D90641C42
:105480006D1EF3D103963020694608720C9C002CE7
:105490000BDD039D012302AA06A9280000F09CF958
:1054A000002830D1641EF5D10395089C0B9D002D7A
:1054B0000DD0039E21780798B0470790002822D08E
:1054C0000D98401C0D90641C6D1EF3D1039628208E
:1054D000385C400700D40EE7202069460872119816
:1054E000002800DC07E7119C039D059F049E012313
:1054F00002AA06A9280000F06FF9002803D1641E53
:1055000000D1DDE6F3E70020C04319B0F0BD2A2842
:1055100000D021E70498026802601068121D049B05
:105520001A600F90002804D542420F92080004210F
:105530000143641C22E70000CBCCCC0C000000002F
:1055400000000000686C747A4C000000622810D0E3
:10555000682801D06C2819E0002A0A680A601068DF
:1055600003D0121D0A6000B217E0121D0A6080B25B
:1055700017E0002A0A680A60106803D0121D0A604A
:1055800040B20AE0121D0A60C0B20AE0002A0A68AE
:105590000A60106803D0121D0A60C1177047121DFF
:1055A0000A6000217047000070B50C0011001E0059
:1055B000E568252E00D185E0582E37D0632E0ED019
:1055C000642E16D0692E14D06F2E2FD0702E4AD094
:1055D000732E54D0752E29D0782E27D078E02069EC
:1055E000421C22610A680A601368121D0A602B546B
:1055F00078E001222A20205CFFF7A8FF2060002825
:1056000004D52069411C21612D210DE0208D8107E9
:1056100004D52069411C21612B2105E0C0071DD55F
:105620002069411C21612021295417E000222A20F1
:10563000205CFFF78BFF20602820205C00070DD541
:10564000206800280AD020203043782806D120691D
:1056500030212954401C411C21612E5420692818F6
:10566000A060310007E0086808600268001D08605B
:105670002260A5607821200000F036F832E008684A
:1056800008600568001D0860A560002D07D1002492
:10569000E44300BF5DA001F051FC201A70BD266AF2
:1056A000002E03D52800FDF76DF809E03200002137
:1056B000280001F067FC002801D0401B00E030000A
:1056C00060610FE02069411C21612521295409E016
:1056D0002169481C206125226A54310002D0411CF6
:1056E00021612E54002070BDF0B583B00A00C4685B
:1056F0006F2901D1082506E020211143782901D026
:105700000A2500E01025182701680E00642A01D040
:10571000692A03D1002901D571420E00002E1FD144
:10572000016A00291CD1082D44D12821415C0907B8
:1057300040D517273021E1753CE0002A0ED52822FC
:10574000825C14231340102B08D1426A0369D21AD9
:105750008369D21A511A012900DB816103B0F0BDBF
:105760000290684602707F1E019730002900FCF706
:10577000CFFB3031C8B23A2803DB68460078513895
:105780000918E15530002900FCF7C2FB060004D0DF
:1057900002988068E1198842E5D30298082D09D162
:1057A0002821415C090705D5E15D302902D07F1E23
:1057B0003021E1551821C91B4161E2198260026A5A
:1057C0009142BADA511A8161018D024A0A4002857A
:1057D000C4E70000EFFF0000F8B50024002B13D051
:1057E00007000E0014001D0021787068B847706033
:1057F000002807D0F069401CF061641C6D1EF3D1D5
:10580000002401E00024E4432000F2BD7072696EC0
:1058100074665F733A206261642025732061726749
:10582000756D656E740000007047FEE770471242A8
:1058300024D0994228D970B500251B4202D00C0013
:10584000002109E00024012649186441944200D354
:10585000A41A7641F8D33100012601E0764109D23D
:10586000001864416D41A41A9D41F7D2A4185D410E
:10587000B619F5D3300022002B0070BD1B42D8D1E1
:1058800008B501F08BFB08BD01D19042D3D20200D4
:105890000B00002100207047704770477047FEE7FB
:1058A00030B583B00400E079401E1E2800D997E18E
:1058B00001A14000095A8F443C008600E6003201F5
:1058C000780122026E0226032603260326032603FE
:1058D00026032603260326032603260326032A037C
:1058E0003203260326032603260326032603260364
:1058F0002603C801C2020125207A012815D000D252
:105900006EE1032801D008D36AE1BC4881788A009F
:105910005118890041185C310EE0B84841788A007E
:10592000511889004118483106E0B44801788A00CE
:105930005118890041182031200000F03CFA59E14B
:10594000002569460D70207A012820D000D251E14F
:10595000032801D011D34DE16A46617AA748C06897
:10596000FDF700FE002800D03AE12000FDF7F6FB2D
:1059700068460078A07207201EE16A46617A9F4857
:105980008068FDF7EFFD002800D029E1EDE76A46C9
:10599000617A9A484068FDF7E5FD0028E5D01FE1EF
:1059A000207A01281DD000D21AE1032801D00ED39D
:1059B00016E1A27A617A9148C068FDF7F7FD0028E8
:1059C00000D00DE12000FDF7C9FB0720F4E0A27A2A
:1059D000617A8A488068FDF7E9FD002800D0FFE081
:1059E000F0E7A27A617A85484068F4E70125207AD9
:1059F000012813D000D2F3E0032801D006D3EFE052
:105A00007E488178C9004118B4310EE07B48417866
:105A1000CA00511A89004118983106E07748017888
:105A20008A005118890041187031200000F0DEF919
:105A3000E0E0042120000930FDF713FD0200207A88
:105A400001281AD000D2CBE0032801D00CD3C7E044
:105A500004216A48C068FCF732FD002800D0BFE08E
:105A60002000FDF77BFBA6E0012164488068FCF77D
:105A700026FD002800D0B3E0F2E702215F4840682D
:105A8000F5E700250095207A012822D000D2B1E068
:105A9000032801D013D3ADE06A4604215748C068FB
:105AA000FCF7C7FC002800D09AE02000FDF756FB69
:105AB0000422009920000930FDF7B9FC7BE06A461A
:105AC00001214E488068FCF7B4FC002800D087E034
:105AD000EBE76A46022149484068F4E70125207A4D
