:020000040800F2
:10000000288D0020E57E0008057E0008077E000898
:10001000097E00080B7E00080D7E0008000000002D
:100020000000000000000000000000000F7E00083B
:10003000117E000800000000137E0008157E0008F5
:100040000F7F0008137F0008177F00081B7F000840
:100050001F7F0008237F0008277F00082B7F0008F0
:100060002F7F0008337F0008377F00083B7F0008A0
:100070003F7F0008437F0008477F00084B7F000850
:10008000197E00084F7F0008537F0008577F000843
:100090005B7F00085F7F0008637F0008677F0008C0
:1000A0006B7F00086F7F0008737F0008777F000870
:1000B0007B7F00081F7E00087F7F0008837F000889
:1000C000877F00088B7F00088F7F0008937F0008E0
:1000D000977F00089B7F00089F7F0008A37F000890
:1000E0002D7E0008A77F0008AB7F0008AF7F0008C7
:1000F000B37F000800000000B77F0008BB7F000846
:10010000BF7F0008C37F0008C77F0008CB7F0008BF
:10011000CF7F0008D37F0008D77F000800000000D1
:10012000DB7F00082DE9F04F0FF2A41CA1B0DCE941
:100130000089CDE900892A9DDFF8DC9B0491002429
:100140008DF843500D944FF0FF38824616461F46F7
:100150000FE0B3462C461BF8011B0498D04700283B
:10016000049000F0A2800D98401C641E0D90F2D106
:1001700076193078252808D10021002207910892AD
:1001800009910A920B910C920DE06A464146304665
:1001900000F0DAFF050001D10D98A1E0D9D50125C5
:1001A000E6E741F0010116F8010F2028F9D02328D5
:1001B0000CD02B2804D02D2805D0302809D076E08B
:1001C00041F00201EFE741F00401ECE741F00801E2
:1001D000E9E741F01001E6E70F9209E00F98484582
:1001E00005DA00EB800402EB4402303A0F92761CF1
:1001F0003278A2F130000A28F0D330782E2818BFC8
:10020000CDF8388022D116F8010F2A2807D1386896
:100210003860761C50F8042B38600E9216E02D28BA
:100220000CBF761C002000220E920AE040B90E9A04
:100230004A4505DA02EB820403EB4403303B0E939C
:10024000761C3378A3F130020A2AEFD3ADF84010C0
:1002500021A0317800F082FF08B116F8010B8DF86B
:1002600042009DF84200682804D1307868280AD1FD
:10027000622105E06C2804BF30786C2803D171211D
:100280008DF84210761C12A806903A4616F8013BEB
:1002900002A9504600F064F838B912AA02A95046E3
:1002A00000F0C8F900287FF564AF404618E02A281E
:1002B00092D13A683A6052F8040B3A6000280F90E5
:1002C00003D540420F9041F00401761C95E70000F1
:1002D0000000000000000000686A6C747A4C0000A6
:1002E00021B0BDE8F08F622820D0682811D06A289C
:1002F00003D06C2827D0712825D10868C01D20F0B4
:1003000007000860D0E9002308300860194610464D
:100310007047002A0A680A60106803D0121D0A603C
:1003200000B217E0121D0A6080B217E0002A0A68C6
:100330000A60106803D0121D0A6040B20AE0121D64
:100340000A60C0B20AE0002A0A680A60106803D096
:10035000121D0A60C1177047121D0A600021704704
:100360007CB50D4611461C462E69B4F1250200F0FD
:100370004F811C3A00F08480121F022A40F28080D4
:100380000E3A00F00981521F59D0093A78D0921ED6
:1003900016D0521E35D0521E022A71D9121F30D0EB
:1003A000521F00F09880521E49D0521E00F0E28089
:1003B000D21E00F0FF80921E41D0D21E3FD02DE110
:1003C00095F83A406C2C09D06869421C6A610A6849
:1003D0000A6052F8043B0A60335429E10A680A6053
:1003E00052F8043B0A600093002201924FF0FF3361
:1003F0002B636A46294600F098F9002840F11881DD
:1004000003E195F83A000122FFF76DFFC5E900010D
:10041000002904D56869411C69612D220DE0288FEF
:10042000810704D56869411C69612B2205E0C0077A
:1004300021D56869411C6961202232541BE095F87E
:100440003A000022FFF74FFFC5E9000195F8380098
:10045000010710D5D5E90023002B08BF002A0AD0D8
:1004600044F02000782806D1686930213154401CBE
:10047000421C6A613454214668693044E86087E070
:100480000868C01D20F007000860D0E9002308308C
:100490000860C5E90023D5E90001C80F04D06869E8
:1004A000411C69612D220DE0288F810704D5686900
:1004B000411C69612B2205E0C00704D56869411C15
:1004C00069612022325468693044E8602146284638
:1004D00000F036FAACE005F13A02507820B14FF066
:1004E000FF340FF6043074E01078622808D06828D2
:1004F00024D06A2812D06C282ED071280ED02BE080
:100500000A680A6052F8040B0A6020B94FF0FF3401
:100510000FF6EC205DE0E96A017089E00A680A6084
:1005200052F8040B0A6020B94FF0FF340FF6D020C8
:100530004FE0EA6AD317C0E9002379E00A680A604D
:1005400052F8040B0A6020B94FF0FF340FF6B020C8
:100550003FE0E96A01806BE00A680A6052F8040B28
:100560000A6020B94FF0FF340FF6942031E0E96AB9
:1005700001605DE00A680A6052F8040B0A6000211D
:1005800020F0000221F0FF33C5E90023EE6078215E
:10059000284600F02DF94BE06C2285F83A200B68D4
:1005A0000B6053F8042B0B6052BB4FF0FF340FF677
:1005B00084200EE095F83A206C2AF0D00868086094
:1005C00050F8044B0860EC603CB94FF0FF340FF674
:1005D000482000F0EBFD201A76BD2E6B002E04D5CE
:1005E000204600F003FE044608E032460021204683
:1005F00000F026FE002814BF041B3446AC6117E04F
:10060000294600F092F8002812D54FF0FF3076BD51
:100610006869411C69612522325409E06969481CF6
:10062000686125227254210002D0431C6B6134544E
:10063000002076BD2DE9F0410E4605469046726BCE
:100640007069316AB46A121AB069521A716A121A60
:10065000F069521A121A96F83800141B41070DD48B
:10066000002C0BDD2746B0682021A8470028B06089
:1006700057D0F06A401C7F1EF062F4D17369424685
:100680003146284600F098FC00284AD1376A002FEE
:100690000ADDB0683021A8470028B06041D0F06A78
:1006A000401C7F1EF062F4D1B369F26831462846DF
:1006B00000F082FCA8BB776A002F09DDB06830210A
:1006C000A847B06068B3F06A401C7F1EF062F5D1A5
:1006D000F068B169F36942183146284600F06CFCB5
:1006E000F8B9B76A002F09DDB0683021A847B060BB
:1006F000B8B1F06A401C7F1EF062F5D196F8380060
:1007000041070BD5002C09DDB0682021A847B06057
:1007100038B1F06A401C641EF062F5D10020BDE8DB
:10072000F0814FF0FF30BDE8F0812DE9F8470D462C
:10073000A3B02F6B002F0646904648BF6FF00047CE
:100740000FF60C1400F0A8FDD4E90023696B4018E3
:10075000CDE90123812828BF4FF0FF3042D2002489
:10076000002F33DDD8F8001001AA684600F0EEFC37
:100770008146B9F1000F38D4D8F8000010B9B9F1AA
:10078000010932D44F4521DB6869484481280AD3E6
:100790000021696303AA29463046FFF74BFF040096
:1007A00014D40020686103ABD5F814A04A4669460A
:1007B00003EB0A0000F082FDCA44C5F814A058F803
:1007C000040B002818BFA7EB0907C9D14CB903AA2D
:1007D00029463046FFF72EFF044614B90020686111
:1007E0006863204624B0BDE8F0874FF0FF34F8E797
:1007F0002DE9FC4307466F293E6908BF082405D050
:1008000041F02000782814BF0A2410243C25D7E9A1
:100810000023642918BF69299046994605D1002B09
:1008200003D5D8F1000869EB4909B9F1000F08BFF9
:10083000B8F1000F1FD1386BE8B9082C4CD197F8EC
:100840003800010748D530203B2586F83B0043E0BF
:1008500000280ED597F8380000F01400102808D1B1
:100860007B6B7969386A5B1A1B1A9A1A002AC8BF0F
:100870003A62BDE8F3838DF80010404649462246AF
:10088000E31700F06FFD3032D0B26D1E3A280195AB
:1008900004DB9DF80000A0F151018A187255404612
:1008A00049462246E31700F05DFD80465FEA0109F4
:1008B00008BFB8F1000F03D0F86871198842DCD383
:1008C000082C09D197F83800010705D5705D30284C
:1008D00002D06D1E30207055C5F13C02BA6171190D
:1008E000F960386B8242B3DA821A3A624FF6EF70DF
:1008F000398F01403987BDE8F3832DE9D04306469F
:100900000F4614464FF00008DFF8109412E0E0079D
:1009100007D542464B463046394600F03BFE064678
:100920000F464046494642464B4600F033FE6410AF
:1009300080468946002CEAD130463946BDE8D0834E
:100940002DE9F84F05468A464AF020048EB0D5E9D5
:100950000089612C02AE09D0286B002848BF062010
:1009600003D408BF672C01D101202863D5E9000119
:100970004A005215521C0DD10B030BD0AAF1610194
:1009800003201A29A86102D20FF2CC6110E00FF205
:10099000CC610DE04A005215521C0ED10B030CD154
:1009A000AAF1610103201A29A86116D30FF2B461DC
:1009B000E868032200F082FCC0E1CDE90C01DDE92A
:1009C0000C2323F00043B3F5801F0DD20027002B2A
:1009D00008BF002A019703D111E00FF28461E7E715
:1009E00001AA00F0A9FE0AE0CD48CE4900EB135061
:1009F000DDE90C2301900B40CB4910461943C5E9B2
:100A00000001612C0DD1E86830210170821CBAF11F
:100A1000610FEA600CBF7821582141706869801C21
:100A20006861D5E90001CDE90C01DDE90C2333F063
:100A3000004104BF0028002300F04881612C40F0F1
:100A4000A080286B494600284CBF4FF0210B00F1D5
:100A5000010B404600220023DDE90C8900F0A4FED2
:100A600001990BF1010738BF89F00049091F002FD8
:100A700001918DF808200DF1090040F33581A94955
:100A800000910646404649460022002300F0A4FE9D
:100A900080F029814800400D00F11C0211D0002A8D
:100AA0000FDD40F2FF739A4205DBA04909F00040D8
:100AB0000143002011E0009B194041EA02514046E9
:100AC0000BE028F0000039F0004108BF00280FBFFC
:100AD00049461C22494600F097FE8046894600F0B0
:100AE00031FFFF1F002F044609DD00F049FF0246D9
:100AF0000B464046494600F055FF80468946F01DAA
:100B0000072104E004F00F0200F8012D2411002C4D
:100B100001DD491EF6D5491E5CBF002200F8012DFB
:100B2000F9D5DCE00020194602AA0A4400E05B1E69
:100B300012F80149491E8442F9D00F2804D10DF161
:100B40000900425C521C4254002904D50198001D42
:100B500002AE5B1C0190581E0CD43118AAF13A0465
:100B60000A783032D7B23A2FA8BFA218401E01F837
:100B70000129F5D5286B002840F1A780591E29636B
:100B8000A3E001996A4A47F29750414391FBF2F280
:100B9000019229F00046D2F1070204DD40463146B9
:100BA000FFF7ABFE0AE0524200206249FFF7A5FEC4
:100BB00002460B464046314600F066FF8046662CF2
:100BC000286B06BF019F0A3706273F18142FC8BF9E
:100BD000142730208DF8080089460DF1090000E047
:100BE0003046002F34DD06464046494601F070F895
:100BF00001460A4606F1080304200A26B2FBF6F66F
:100C000006EB860EA2EB4E02303203F8012C0A22CC
:100C1000B6FBF2F202EB820EA6EB4E063036401E19
:100C200003F8026DE9D1083F002F03F10806D7DD74
:100C3000084601F061F802460B464046494600F07E
:100C4000B1FE00223C4B00F0A5FC80468946CBE774
:100C50000DF10901401A0DF1090604E00199491E40
:100C6000401E0191761C31783029F7D0662C02D1D4
:100C70000199491C03E0652C0CBF012100212B6B5D
:100C8000CB189842B8BF431E002B1ED4834204DA0F
:100C9000F05C3528A8BF392000DA30201946721ED2
:100CA00002EB010800E05B1E18F80199491E81451E
:100CB000F9D0392802D1705C401C7054002904D549
:100CC0000198401C16465B1C0190019800B20090F0
:100CD0001BB232465146284600F034F82EE0C61DBD
:100CE000002F3FF7CFAE30460DF10901401A034601
:100CF0005845C8BF5B46002B0DF109063FF53AAFDA
:100D00008342BFF60FAF0DF10900C15C07297FF7E1
:100D100009AF0F2007E70000CBCCCC0C000024402B
:100D200002FCFFFFFFFF0F800000E03F0000F07FAC
:100D3000A08601000000F03F84D797410FB0BDE8C6
:100D4000F08F00002DE9F84783B006468A46174623
:100D5000984600F0FDF9B8F1000F406A356B90F845
:100D6000009002DC4FF00108BFA74AF02000BDF957
:100D70003040662808BF641C15D0672840F0848086
:100D800014F1040FC0F28680AC4280F2838096F8A2
:100D90003800641C010702D4A845B8BF454620B2FC
:100DA0002D1A48BF00250FFA84FAF068B169BAF12C
:100DB000000F25DC4A1C30234354002D03DC96F839
:100DC0003800010703D5F06800F80290521C15EBBB
:100DD0000A0FB8BF6C4220B2441941424445B8BF23
:100DE000A046B26171620FFA88F5F561F068B369E7
:100DF0002A463946184400F061FA641BB462C4E024
:100E000022B29045084417DA4246394600F056FAB5
:100E1000B0694044B061AAEB0801002D716203DCA7
:100E200096F838100A0705D5F16801F80090F069C6
:100E3000401CF061B562A8E0394600F03FFAB069A5
:100E4000002D5044A8EB040803DC96F838100A077C
:100E500003D5F16801F80090401CB0610FFA88F0EA
:100E60008542F368B069B8BFA8460FFA88F207EB6D
:100E70000A01184400F022FAB1690FFA88F001441F
:100E8000B161281A706280E0BAF1610F14D14FF09D
:100E9000700A16E0A84504DA96F838100A0758BF19
:100EA00045466D1E48BF0025BAF1670F14BF4FF0CD
:100EB000450A4FF0650A04E0BAF1410F08BF4FF050
:100EC000500AB169F368481CB061002D17F8012B76
:100ED0005A5403DC96F838100A071BD5F168431CF6
:100EE000B36101F80090002D14DDA8F101080FFA9C
:100EF00088F039468542F768B8BFA8460FFA88F2ED
:100F0000F81800F0DBF9B0690FFA88F108446D1A9F
:100F1000B0617562F068B1690844002C80F800A0E7
:100F200003D42B224270811C03E02D2141706442C6
:100F3000811C00206A460AE023460A2493FBF4F44D
:100F400004EB8405A3EB450302F8013B401C24B2EB
:100F5000002CF1DC012806DC4AF02002652A04BFDF
:100F6000302201F8012B48B9302001F8010B07E0CD
:100F7000401E1DF80030303301F8013B0028F7DC3B
:100F8000F268B0691044091AF16196F8380000F06F
:100F9000140010280DD17269B169706A8A18F1695C
:100FA0008218B06A8A188218706B8242BCBF821A9B
:100FB000326204B0BDE8F087F8B505460E46174624
:100FC0001C46002074B117F8011BB068A847B06038
:100FD00030B1F06A401CF0620020641EF3D1F2BD13
:100FE0004FF0FF30F2BD00007072696E74665F737F
:100FF0003A20256E20646973616C6C6F77656400BC
:101000007072696E74663A2062616420256E206198
:101010007267756D656E74007072696E74665F7369
:101020003A2062616420257320617267756D656E78
:10103000740000007072696E74665F733A206261BA
:101040006420256C7320617267756D656E74000095
:1010500000000000000000006E616E004E414E0076
:10106000696E6600494E46003000F0B402461068D2
:1010700095681318506803EB5004C0071DD54D4404
:101080001BE013F8017B05F8017B491EF9D1A0B1E3
:10109000B60813F8011B06F00306032E08BF13F869
:1010A000016B01EB06214942801C294405D011F84F
:1010B000016B05F8016B401EF9D1A3420ED013F865
:1010C000016B16F0030104BF13F8011BC91C3009A2
:1010D0000F28DAD113F8010B0F30D6E7F0BC02F17C
:1010E0000C0070471B48704770B45368D418042B29
:1010F00009DA41B1057804F8015B10F8016B16B10B
:101100005B1C491EF3E7536070BC704738B514464A
:101110001D4661B1FFF7E8FF61686A6B20469047A2
:101120006FF00102811A02D0491E01D001E003E0F4
:1011300005E00021616032BD6FF0010032BD4FF06B
:10114000FF3032BDDA6B1047024BDFE7014BF9E7A6
:1011500001487047440300200C030020C9B2027804
:101160008A421AB11CBF10F8012FF9E718BF0020FE
:10117000704730B4002513E050F8042BD30744BF68
:10118000A9F101039A18091F042942F8045BFAD255
:1011900013468C0744BF15809B1CC90748BF1D70B0
:1011A00050F8041B0029E7D130BC704780B500B966
:1011B00006A005490B681BB122220021984701E0D7
:1011C00000F0A7FD222002BD240D0020636F6E7386
:1011D000747261696E742068616E646C65723A2025
:1011E000626164206D6573736167650000F10103DE
:1011F000810704D010F8011B820781B1FAD102687F
:10120000A2F10131914311F0803104BF50F8042F55
:10121000F6E709BAB1FA81F100EBD100401CC01A1F
:101220007047B1F5807F02D34FF0FF3070470170F7
:10123000012070470078401E8041C043C00F7047B6
:10124000C9B2830706D0521E22D310F8013B99423F
:10125000F7D11FE0083A13D302F1040241EA012159
:1012600041EA014150F8043B121F21BF4B40A3F15A
:10127000013C2CEA030C1CF0803FF3D0C9B2001FE4
:10128000083210F8013B521E28BF91EA030FF8D82C
:1012900018BF0120401E704780B5FFF723FF006C88
:1012A00002BD8268521C8260426832B10268531CDF
:1012B000036011704168491E4160704762B38B073B
:1012C00008D0521E11F8013B00F8013B00F02480C9
:1012D0008B07F6D1830740F0208000BF103A07D378
:1012E00030B4B1E83810103AA0E83810F9D230BC68
:1012F000530724BFB1E80810A0E8081044BF51F814
:10130000043B40F8043BD20724BF31F8022B20F8FD
:10131000022B44BF0B7803707047121F17D35B007A
:1013200009D151F8043B20F8023B1B0C121F20F896
:10133000023BF6D20BE051F8043B00F8013B1B0ADC
:1013400020F8023B1B0C121F00F8013BF3D238BF00
:10135000121D521E24BF11F8013B00F8013BF8D8C2
:1013600070470000BBBBE1B1B2F5803F80F07E80EA
:10137000022A1ED98C46B1FBF2F102FB11C31B04F9
:1013800043EA1043B3FBF2FC02FB1C3380B240EA99
:101390000343B3FBF2F002FB103240EA0C4000239F
:1013A0007047022A05D98446B0FBF2F002FB10C256
:1013B00070474AB105D100F0010249085FEA3000E8
:1013C000704700220023704700F0A6BC0B0002000B
:1013D000002100207047904271EB030CF6D3B3F567
:1013E000803F2FD2F0B5B3FA83F7B1FA81F4A7F1B9
:1013F0000F0E3D1B5340CEF1200602FA0EF2F341D0
:101400005340B5F10F0746D80F3C2C444140C4F17E
:101410002006A040F1414140B1FBF3F603FB161159
:10142000A2FB0645001BA94102D2761E8018594135
:1014300080EA010221FA0EF362FA0EF200215A400C
:101440003046F0BD30B4B1FBF3FC03FB1C11A2FB32
:101450000C45001BA94103D2ACF1010C8018594185
:1014600030BC02460B46604600217047B2F1807FD7
:1014700065D3F0B5B2FA82F7B1FA81F4C7F10F067D
:101480003D1B22FA06F307F1110EF24120355A40B6
:10149000B5F10F07B8D94140C4F12006A040F14191
:1014A0004140B1FBF3FC03FB1C11A2FB0C45001BEC
:1014B000A94103D2BCF1010C801859410F2F12D35E
:1014C0000F3FC90341EA5041B1FBF3F603FB16118C
:1014D000A2FB0645D4EBC030A94102D2761E80188B
:1014E000594146EACC3C07B34140C7F12006B84019
:1014F000F1414140B1FBF3F603FB1611A2FB064597
:10150000001BA94102D2761E8018594180EA0102CF
:1015100021FA0EF3C7F1200462FA0EF20CFA07F07A
:101520005A402CFA04F13043F0BD80EA010221FA5E
:101530000EF3002162FA0EF260465A40F0BD8C466E
:10154000B1FBF2F102FB11C31B0243EA1063B3FBD0
:10155000F2FC02FB1C331B024CEA002043EA10633E
:10156000B3FBF2FC02FB1C331B024CEA002043EAF3
:101570001063B3FBF2FC02FB1C331B024CEA00209D
:1015800043EA1063B3FBF2FC02FB1C324CEA00207E
:1015900000237047B0B581EA030C0CF0004C40F218
:1015A000FF7515EA11541DBF15EA1357AC42AF423F
:1015B00039E0E41923EA455343F48013C90241F0AA
:1015C000004141EA505EC7021100A7FB0202002859
:1015D0004FF00000EEFB01204FF00001E3FB07217C
:1015E00018BF42F00102401800214941E3FB0E01FF
:1015F000A4F580640F0302D252004041494154F1E6
:1016000001046CDD470872F1004250F1000051EB1B
:101610000451A1F580115CBF41EA0C01B0BD4CEA58
:1016200005510020B0BD05EA1357AC4214BFAF42CC
:1016300041E050EA410E1CBF52EA430E02E061460F
:101640000020B0BD24423C441BD15FEA070EF6D017
:10165000090302BF01460020AEF1140EB1FA81F772
:10166000AEEB070401FA07FE0C37C7F1200100FAC0
:1016700007F7C8404EEA000E23EA455343F48013AF
:10168000A2E733F00043B3FA83F704BFB2FA82FE55
:1016900077440B3FE41BB7F1200E2FBF02FA0EF385
:1016A000BB40C7F1200E22FA0EFE38BF43EA0E03FC
:1016B000BA40641C82E750EA410E14BF52EA430E5E
:1016C0006FF000014FF4001717EB430F8ABF194664
:1016D00017EB410FB5E74CEA05510020B0BDD4F13E
:1016E0000104B4F120070FDAC4F12007520828BF23
:1016F00042F0010210FA07F501FA07F7E1BF2A43A9
:10170000E0403843E1400FE0352C98DCC7F120047D
:1017100052EA400220FA07F218BF42F0010231FA01
:1017200007F0A1400A43002172F1004250F100008D
:1017300051EB0C01B0BD000010B5144600F002F8EA
:10174000226010BDC1F30A5343B14A0012F5001FD5
:1017500028D2A3F2FE32A1EB0251704750EA410CAD
:1017600020D001F0004C31EA0C01B1FA81F204BF43
:10177000B0FA80F3D2180B3AB2F120032CBF00FA72
:1017800003F1914041EA0C013EBFC2F1200C20FA66
:101790000CF319439040524240F2FD33D21A01EB50
:1017A00003517047002270474FF4001C1CEB410F9F
:1017B00094BF1CEB430F09E041EA030C50EA4C0CC8
:1017C00052EA0C0C03D2994208BF9042704714BFF2
:1017D0008B428242704700004FF4001C1CEB410F0B
:1017E00094BF1CEB430F09E041EA030C50EA4C0C98
:1017F00052EA0C0C03D28B4208BF8242704714BFDE
:101800009942904270470000124254D440F2FF7C4B
:101810001CEA11530FD0634531D09B1863453CBF80
:1018200001EB0251704701F0004141EA0C510020E8
:10183000AFF30080704750EA410320D001F0004C24
:1018400091EA0C011CD0B1FA81F30B3B9A420DD9FD
:10185000D21A994051EA0C01C3F1200C20FA0CFC79
:1018600061449840531C40F2FF7CD7E7914041EA25
:101870000C01C2F1200C20FA0CF319439040704780
:10188000B0FA80F31533202BE0D3202AEED3203A90
:10189000203B9A4209D9D21A00FA03F141EA0C011D
:1018A0000020531C40F2FF7CB8E700FA02F141EA45
:1018B0000C0100207047524240F2FF7C1CEA115399
:1018C0000DD06345DBD0B2EB030C3CBFA1EB025162
:1018D00070470CF1010221EA035141F4801150EAF2
:1018E000410CCCD001F0004C352A27DC30B481EA21
:1018F0000C01B2F1200309DAC2F12003044601FA17
:1019000003F5D0402843D1409C400CE0C3F12002B5
:10191000450020FA03F418BF44F0010421FA03F053
:1019200091400C43002174F1004550F1000051EB4F
:101930000C01244230BC7FF47BAF7047614600202D
:1019400076E70000C1F30A5340F2FE329B1A14DD21
:10195000D3F120034FEAE17208DDC90241EA505198
:1019600041F00040D84080185040704703F2E13009
:1019700010B1D24382F00040704700207047000051
:10198000C11768B14840401AB0FA80F29040D21CAA
:10199000C907C2F5846241EA025202EBD021400538
:1019A0007047000070B44FF0004591EA030F40F11A
:1019B000B5816B40841A71EB030603D2001BB14161
:1019C000121973414FF4001C1CEB410F34BF7CEB28
:1019D000430442E00C0DA4EB1356352E4FDC45EAD0
:1019E000C323DB0A45EAC121C912B6F120050DDD8A
:1019F00063FA05F6EB4086EA0305124218BF45F08C
:101A00000105C01851F100010CD213E062FA06F58D
:101A1000F2405540F3415A40B340F3405A408018D9
:101A2000594107D349085FEA30005FEA350528BF0E
:101A300045F0010501F58011420875F1004250F1B1
:101A4000000041EB04514E0016F5001F70BC38BF7A
:101A500070470020090D090570471CEB410F10D29B
:101A600052EA43060BD0BCEB410F05D80C0DAB433B
:101A7000661E342EB6DD02E0AB438018594170BCBF
:101A8000704770BC70470000F0B540F2FF7581EA06
:101A9000030C0CF0004C15EA11541DBF15EA135746
:101AA000AC42AF42E5E0BC41C1F31301C3F3130301
:101AB000801A994143F4801304D2641E40004941C6
:101AC00080185941C90241EA5051B1FBF3F603FBBA
:101AD0001611A2FB0675D7EBC020A94102D2761ED3
:101AE00080185941C90241EA5051B1FBF3FE03FB92
:101AF0001E11A2FB0E75D7EBC020A94103D2AEF197
:101B0000010E80185941890241EA9051760546EA52
:101B10008E2EB1FBF3F603FB1611A2FB0675D7EB75
:101B20008020A94102D2761E80185941C90241EA9B
:101B300050514EEA060EB1FBF3F603FB1611A2FB61
:101B40000675D7EBC020A94102D2761E80185941F4
:101B5000C90241EA5051B1FBF3F703FB1711A2FB95
:101B60000735D3EBC020A94167F100070CBF004245
:101B700047F0010766F3D5274FEA1E31B80814F580
:101B8000806412DDBD0775F1004250EB0E5051EB41
:101B9000045111F5801F5CBF41EA0C01F0BD4CF00F
:101BA0007F6141F0E0410020F0BDBD076D0840EAD3
:101BB0000E5041F48011D4F10104B4F120060ADA88
:101BC000C4F120060200E04001FA06F3E1401843A8
:101BD000B24015430EE0342C13DCC6F1200445EA74
:101BE00040056D0820FA06F2154321FA06F0A140DF
:101BF0000D43002175F1004250F1000051EB0C0142
:101C0000F0BD00205FEA0C01F0BDCFB992185B4136
:101C1000B3FA83F704BFB2FA82F6BF190B3FB7F1EC
:101C200020062FBF02FA06F3BB40C7F1200622FAB6
:101C300006F638BF3343BA401CB1E419641E33E7DB
:101C40007F4231F00041B1FA81F404BFB0FA80F66E
:101C5000A4190B3CB4F120062FBF00FA06F1A140F5
:101C6000C4F1200620FA06F638BF3143A0403C1BE1
:101C70001AE7AC421ABF05EA1357AF4212E050EA26
:101C800041061CBF52EA4306BFE750EA410730460F
:101C900061461CBF41EA0551F0BD52EA430C08BF42
:101CA000C143F0BD00204FF4001616EB410F98BF62
:101CB00016EB430F08BF16EB410F24BFC14305E0ED
:101CC00016EB430F0CBF61464CEA0551F0BD000016
:101CD000400D491840EA81200CD2490DA1F58061E0
:101CE000491C40F0004005DBD1F11F0154BFC84042
:101CF000C017704700207047014648B1B0FA80F124
:101D00008840C91CC1F58461090501EBD02140055B
:101D10007047012000F0B8B870470000841A71EBDA
:101D2000030604D26E40001BB141121973414FF4F7
:101D3000001C1CEB410F34BF7CEB430683E00C0D11
:101D4000A4EB1356362E00F37C80012E45EAC32304
:101D500041DC43EA525312BFD20292025B082405CF
:101D600045EAC12141EA5051D2EBC020994125D426
:101D700007D1B0FA80F610FA06F162D000202036C2
:101D800008E0B1FA81F6B140C6F1200220FA02F271
:101D90001143B0404FEAF474B4EB465434F00106FA
:101DA0004FEA74040AD8D6F50016760D04F0004404
:101DB000F04061FA06F25040F1404840C00A40EA63
:101DC000415021F0004128BF5FEA500550F100006A
:101DD00044EBD12135E0DB0A45EAC121C90AB6F15D
:101DE00020050EDD42EA0242120CC5F1200603FA7C
:101DF00006F6EB4042EA06056D42984161F10001AA
:101E00000DE062FA06F5F240554063FA06FC82EAFC
:101E10000C02F3405A406D42904161EB030111F412
:101E2000801F05D1641E620502D06D00404149410A
:101E300021F48011430875F1004350F1000041EB9B
:101E4000045170BC70471CEB410F15D223F00043C6
:101E500052EA43060BD04FEA4C0CBCEB410F04D8BE
:101E60000C0D661E342EB7DDEBE7801A994150EA5F
:101E7000410608BF0021E4E708BF1CEB430F28BF61
:101E80006FF00001DDE7000080B5AFF30080024A8B
:101E900011001820ABBEFBE726000200F8B50400D5
:101EA0001BD004F13C05697821B900202870204638
:101EB00000F002FC24216970206802685208520078
:101EC000026000F0B8FE01466068DFF844229042EC
:101ED00005D2DFF84032994205D20120F2BDDFF889
:101EE00038028142F9D32068DFF830324668B1FB0E
:101EF000F3F3B60943EA861646602668376A6068D7
:101F0000904206D34FF4967043434FF47A70B3FB7C
:101F1000F0F35B1CBF0943EA87133362491E236851
:101F2000DE696768974206D27F0000F043F8042913
:101F300013D2042111E0A06820B907EB470700F095
:101F400039F805E01920474300F034F841F48041A6
:101F500008050CBF012141F40041DFF8D40206401E
:101F60000E43DE6122681368E169206A23F0C00332
:101F70000B43034313602268DFF83403936821693D
:101F80000340E0680B43034393602168CA68A36978
:101F90006069120A034343EA0222CA6020680168AA
:101FA00041F0010101600020686020216970206318
:101FB000A870F2BDB1FBF7F1491CC1F30B017047EA
:101FC00038B5040001D1012032BD04F13C052420C4
:101FD000687000F0C4F900F095FE00206860687039
:101FE0002063A870287032BD4146204600F0DCBA5C
:101FF00031684A69009289690091009870472DE91B
:10200000FC4700F08DF800F060F85BD100F078F844
:10201000002857D13878012854D000F06BF801D44B
:1020200000F091F94146D6F800E00C9D0B98DDF8E0
:1020300028C0DEF8008028F40068CEF800804FF059
:10204000210E87F801E04FF0400887F802804FF03A
:10205000000EC7F804E000F01EF900F08FF9002828
:1020600029D106E0716A0A78026100F03BF8411E4E
:102070007185308DA0B122462946304600F094FA91
:10208000A0B9706A32680178116100F02BF8421E25
:102090007285306842695307EBD589B20029E1D1D6
:1020A00022462946304600F0A9FA30B17868042863
:1020B00001D100F073FA012005E000F06FFA00F0A2
:1020C0000AF800E00220BDE8F68706F13C07044666
:1020D000787820287047202078700021B97000207F
:1020E00038707047706A411C7162308D411E3185B5
:1020F000708D70470121397030680268D1077047D0
:102100000094192301226B49304600F0E3B9000026
:10211000A186010080841E0000093D0040420F009E
:102120000646884691469A4600F0EEBD2DE9FC47EA
:10213000FFF7F6FFFFF7C9FF6ED1FFF7E1FF0028B9
:102140006AD13878012867D0FFF7D4FF01D400F0B6
:10215000FAF84146D6F800E00C9D0B98DDF828C04F
:10216000DEF8008028F40068CEF800804FF0220EE0
:1021700087F801E04FF0400887F802804FF0000E2A
:10218000C7F804E000F087F800F045F900283CD1DA
:10219000308D18B1012804D100F095F800F06FF8E7
:1021A00013E0022804D100F0C3F80020009001E001
:1021B00000210091FFF71CFF07E000F042F8002823
:1021C00023D100F037F800F041F8308D002826D0F8
:1021D000042817D20128F0D000F024F80AD100F02A
:1021E0006DF8002811D100F075F8716A0870706AF6
:1021F000421CE8E700F062F8002806D100F07FF802
:1022000018B9F0E700F01DF808B1012005E000F072
:1022100025F8DAD50069E8E70220BDE8F687FFF780
:102220005AFFFAE70228DFF8288100942B4670470E
:102230000030FFFF30680169706A0170716A4A1CE2
:10224000704722462946304600F0F4B9308D72625C
:10225000411E3185708D411E71857047306801695E
:10226000706A0170716A308D4A1C411E726231853C
:10227000708D411E7185306841694A077047009032
:1022800031684A6900928B69009300980A6842F4A9
:1022900000720A607047C6F824C070855346708D7E
:1022A00030854A460448F0620194009530467047F4
:1022B000007CFFFF020010000000FFFF00224146EB
:1022C000304600F007B93068016821F48061016090
:1022D000002070473068016841F400710160306887
:1022E0000169706A0170716A308D4A1C411E726208
:1022F0003185708D411E7185326810697047306874
:10230000016821F4806101602B4630680169706AC0
:102310000170716A308D4A1C411E72623185002243
:10232000708D411E718500944146304600F0D2B850
:102330003068016821F4806101603068026842F40D
:10234000006202607047026842F00102026070475A
:102350000400010090F83D007047006C7047206851
:1023600001684908490001602046704701600096F5
:10237000534600224FF001112046ABE02DE9F8430F
:1023800004462068DDF82080099F8946016841F4F1
:10239000807115461E46016000974346FFF7E9FF2E
:1023A00008BB206809F0FE0101613B4642464849EE
:1023B00000F02FF8B8B900F01EF83A46896900918C
:1023C00041460098FFF711FE40B9012E0DD021685B
:1023D000280A08613A46FFF707FE30B1206C04284E
:1023E00001D100F00DF8012003E02068EDB2056195
:1023F0000020BDE8F283009021684A69009270478E
:102400002068016841F4007101607047334642461C
:102410004946204686E02DE9FC4704462068DDF861
:1024200028A00B9E0F46016841F4806101601546AB
:102430002068016841F480719846FFF797FF0028F3
:102440003CD12168DFF8889007F0FE000861334630
:102450005246FFF7DDFF002830D1FFF7CCFF3246B0
:102460008969009151460098FFF7BFFD90B9B8F116
:10247000010F07D02168280A086132465146FFF74C
:10248000B4FD38B92068EDB2056132465146FFF718
:10249000ACFD28B1206C042810D1FFF7B1FF0DE08E
:1024A0002068016841F48071FFF760FF30B900F0E7
:1024B00008F833465246FFF7ABFF00B10120BDE8F4
:1024C000F687206847F00107FFB2076170470000F8
:1024D000020001002DE9F041069F05460E46904698
:1024E0001C4631022868090E01290CBF4069806929
:1024F000304080B2B1B288420CBF0120002040457C
:102500000DD114F1010FECD000F0FEFBC01B844292
:1025100001D3002CE5D100F063F8012000E0002099
:10252000BDE8F081F8B505460E4614461F46310257
:10253000090E286801291BD14169314089B2B2B224
:1025400091421BD041694A051AD500F028F86FF472
:1025500080602A685061002105F13C002963202237
:1025600042708170426842F004024260017013E0E0
:102570008169314089B2B2B29142E3D10020F2BD0B
:1025800014F1010FD3D000F0BFFBC01B844201D374
:10259000002CCCD100F024F80120F2BD3068016895
:1025A00041F400710160704770B505460C4616464F
:1025B00028684169080611D4284600F067F858B920
:1025C00014F1010FF4D000F09FFB801B844201D373
:1025D000002CEDD100F004F8012070BD002070BD8A
:1025E00000202863202105F13C0000224170827008
:1025F000416841F0200141600270704770B50546A6
:102600000C46164628684169480711D4284600F050
:102610003DF858B914F1010FF4D000F075FB801BA0
:10262000844201D3002CEDD1FFF7DAFF012070BD09
:10263000002070BD70B505460C46164628684169F5
:102640004A0617D44169CA060BD400F05DFB801B13
:10265000844201D3002CF1D100F00EF841F02001AA
:1026600004E06FF01001416100F006F84160027073
:10267000012070BD002070BD00202863202105F1DD
:102680003C000022417082704168704701684A69CD
:1026900053050FD56FF480624A61002101633C301D
:1026A000202242708170426842F004024260017050
:1026B0000120704700207047704700002DE9F84F57
:1026C00004003BD0DFF80476BD68BE682078C107FF
:1026D00005F00C0506F480360CD5082D04D00C2D21
:1026E00008BFB6F5803F39D13868810302D56068EC
:1026F000002823D02078DFF8E495810712D5042D37
:1027000003D00C2D08BF002E61D13868810702D597
:10271000E06801281DD17868216920F4F85040EA6A
:10272000012078602078C10640F13181002D40F011
:1027300097803868810503D5A069002800F02381BF
:10274000206A796801F4604181425FD200F085FA25
:10275000002840F0188100F082F968E060680128E4
:1027600004D1386840F48030386013E008B9386824
:1027700009E00528386806D140F4802038603968BF
:1027800041F4803105E020F480303860396821F46C
:1027900080213960606868B100F0B6FA8046386818
:1027A0008103A7D400F0B0FAA0EB08006528F6D3A7
:1027B000032052E100F0A8FA80463868810399D5D9
:1027C00000F0A2FAA0EB08006528F6D3F0E7E06875
:1027D00070B10121C9F8001000F096FA0646386879
:1027E000810798D400F090FA801B0228F7D9DFE720
:1027F000C9F8000000F088FA06463968880791D5C4
:1028000000F082FA801B0228F7D9D1E7796821F419
:102810006041084378607868E16920F07F4040EAD1
:1028200001607860206A00F018FA002891D1216ACE
:10283000BA68490BC2F303120120491C8840DFF833
:10284000A014DFF88C34895CC003C8401860DFF83E
:102850008804006800F05EFA010000F09880FCE057
:10286000A069B0B10121C9F8201000F04DFA064668
:102870003868810500F1898000F046FA801B022843
:10288000F6D995E700F040FA801B022840F28C80D0
:102890008EE7C9F8200000F037FA0646386881054F
:1028A00075D500F031FA801B0228F7D980E708605F
:1028B00000F02AFA0646786B810779D500F024FAF1
:1028C000801B0228F7D973E708B9786B09E005285F
:1028D000786B06D140F480607863786B40F4807048
:1028E00005E020F480707863786B20F48060786372
:1028F00041F28936A06868B100F006FA8246786B2A
:10290000810500F1838000F0FFF9A0EB0A00B042DE
:10291000F5D34DE700F0F8F98246786B810575D55F
:1029200000F0F2F9A0EB0A00B042F6D340E700F065
:10293000EBF9401B022879D93AE700F0E5F9001BD2
:10294000022840F2858033E700F097F804463868A3
:10295000810140F1818000F0D7F9001B0228F6D9EF
:1029600026E701280FD0B868A26A00F480319142AE
:1029700002BF00F47011E26A914202BF00F440000D
:10298000216B884268D0012067E000F068F8207869
:1029900001070DD56069DFF84C13002887D00122AC
:1029A0000A6000F0B1F90646786B81077FF56AAFDF
:1029B0002078410731D5786AC1004FF000080AD469
:1029C000786A40F0805078624FF00108786A00F031
:1029D000805000900098DFF810633068C10510D473
:1029E000306840F48070306000F08EF983463068C3
:1029F000C10506D400F088F9A0EB0B006528F6D3DA
:102A0000D6E6A06801287FF45FAF66E7B8F1000F53
:102A100003D0786A20F080507862606AE0B10C2DB3
:102A20009FD0022890D100F028F80546386881012F
:102A30003FF57DAFBA68A16AE06A22F47D020A43DD
:102A4000216B02430A43BA60012000F017F80446E4
:102A5000386881017FF571AF0020BDE8F28F796899
:102A6000206A21F46041014379607968E06921F0CE
:102A70007F4141EA0061796070470020C9F8600039
:102A800000F042B92DE9F8430400894627D0DFF869
:102A90005C62306800F00100484502D200F08EF818
:102AA0001DD12078DFF82452810705D5AA68A068D7
:102AB00022F0F0020243AA602178C8076AD5606854
:102AC000022802D129688A0308E0032802D1296874
:102AD0008A0103E00128296802D18A0702D461E053
:102AE0008A055FD5A968890840EA8100A86041F29B
:102AF000893800F009F90746606802280BD1A868F8
:102B000000F00C00082845D000F0FEF8C01B40453E
:102B1000F5D303203CE003280AD1A86800F00C009C
:102B20000C2837D000F0F0F8C01B4045F5D3F0E793
:102B3000012839D1A86800F00C0004282AD000F040
:102B4000E3F8C01B4045F5D3E3E72078410705D5FE
:102B5000AA68E06822F4E0620243AA6021780807CC
:102B600006D5A968206921F4605141EAC001A96035
:102B700000F035F8AA685A49554BC2F30312895C34
:102B8000C8401860BDE8F2435348006800F0C2B87E
:102B9000BDE8F283306800F001008145D5D200F035
:102BA0000DF8D2D00120F3E7A86810F00C0FF1D097
:102BB00000F0AAF8C01B4045F6D3AAE7B9F1010F0F
:102BC00003D1306840F0040030603168490849EAB8
:102BD00041013160306800F001004845704730B570
:102BE00044493C484A68444B02F00C04042C21D070
:102BF000082C02D00C2C02D013E0184630BD3F4DFB
:102C0000C2F38344C2F381522C5D4968521CCD0348
:102C100003D56343B3FBF2F030BD6043B0FBF2F089
:102C200030BD0868400B00F007000121401C01FA8C
:102C300000F0C00330BD26482D4A006813683049B3
:102C4000C3F3022206E02248294A006813682C498F
:102C5000C3F3C222895CC840704778B5244B23492E
:102C60001C68002214F0F00F22D1DD691E4CEE002A
:102C700003D5246804F4C0540FE0DD6945F08055A5
:102C8000DD61DD6905F080550095009D2468DD69F2
:102C900025F0805504F4C054DD61B4F5C05F08BF71
:102CA000B0F5404F04D1086840F0040001220860EC
:102CB0000B685B0842EA43030B60086800F0010000
:102CC000904201D0012072BD002072BD0038024048
:102CD000080300200024F400B40200200000474252
:102CE000F47D00088006474200700040003C02402E
:102CF000083802400438024000127A00E87D0008DB
:102D0000007F00087047000001480068704700BF5E
:102D1000B002002070B50E4E0446B0680025A0B188
:102D20004FF47A710B4AB1FBF0F11068B0FBF1F08F
:102D300000F054F848B9102C07D2002221464FF079
:102D4000FF3000F023F8746000E00125284670BDD4
:102D5000B0020020080300200901020002D4294823
:102D600081547047284B02F00F021A4402F8041CE9
:102D70007047264B19684FF6FF020002114000F41D
:102D8000E0600843224908431860704738B51F4B7C
:102D90001C68C4F30223C3F10704052C28BF0424D4
:102DA0001D1D072D34BF0023DB1E012505FA04F489
:102DB000641E2140994005FA03F35B1E1A4011433B
:102DC000BDE83440C8E7010007D4012200F01F012C
:102DD000104B8A40400943F82020704710B5401E30
:102DE000B0F1807F01D3012010BD0B4C60600F213A
:102DF0004FF0FF30FFF7B0FF0021A16007202060F7
:102E0000002010BD00E400E018ED00E00CED00E053
:102E10000000FA0500E100E010E000E070B50446B3
:102E200000254FF0FF362CB3086820604A686260C6
:102E30008868A0600A7B2273086920614A69626120
:102E40008869DFF80817A06121626462DFF8000773
:102E5000E061206870B1804760B9A068022804BFB3
:102E600094F82800002806D10C221221204600F0F8
:102E70005FFB00B13546284670BD38B5044600F00A
:102E80006DFB00F0B8FC002821D100F067FB00F0DA
:102E90009DFC00281BD100F05DFB00F0D7FCB0B911
:102EA00004F128050420E87000F068F878B900F013
:102EB00051FB00F0ADFB50B90420287100F0A5F9DA
:102EC00028B9062104F11C0000F00CFC08B100F048
:102ED00083BB01202870002032BD10B5044600F0ED
:102EE0003AF818B9204600F07DF900B130E004F15D
:102EF00028000021C17001710170002010BD80B553
:102F00001C3000F074FC00F01DBB012008704870FC
:102F10000023102088604FF4FA62DFF84806086149
:102F200048618B700020CB704A60CB60886170472D
:102F300010B500F129042178012907D0A1781C30AF
:102F400000F089FB00B103E001202070002010BDDB
:102F50004FF0FF3010BD10B5044694F8290060B161
:102F600004F12B0104F11C0000F08CFB10B900F0FF
:102F700005F800B1ECE784F8290010BD002104F148
:102F80001C0000F068BB000038B500F0EAF800242F
:102F900008B100F021BB9DF80000032811D8DFE83C
:102FA00000F0020C0508DFF8C01504E0DFF8BC05EE
:102FB00005E0DFF8BC15296005E0DFF8B8052860FA
:102FC00001E04FF0FF34204632BD000038B50D4619
:102FD00069461C3000F056FB002408B100F0FCBA32
:102FE0009DF800000B282CD8DFE800F0060B0E112E
:102FF00014171A1D202327082C6024E0DFF8780519
:103000001DE0DFF8781516E0DFF8740517E0DFF84B
:10301000741510E0DFF8700511E0DFF870150AE0B4
:10302000DFF86C050BE0DFF86C1504E0DFF86805ED
:1030300005E0DFF86815296005E0DFF8280528605D
:1030400001E04FF0FF34204632BD2DE9F84F024633
:1030500002F1290700F0C7F935D100F00FFC38BFA5
:10306000012127D300F0BCF938BF022122D300F0A0
:10307000B4F938BF03211DD300F0ACF938BF0421E7
:1030800018D300F0A4F938BF052113D300F09CF940
:1030900038BF06210ED300F094F938BF072109D3B9
:1030A00000F08CF938BF082104D300F084F934BF54
:1030B00009210A2102F11C0000F0CDFA002831D0CC
:1030C0004FF0FF302EE000F0D9FB38BF012027D3AE
:1030D00000F086F938BF022022D300F07EF938BF15
:1030E00003201DD300F076F938BF042018D300F078
:1030F0006EF938BF052013D300F066F938BF0620FB
:103100000ED300F05EF938BF072009D300F056F95E
:1031100038BF082004D300F04EF934BF09200A203C
:10312000B8700020BDE8F28F38B500F01AF800241E
:1031300008B100F051BA9DF8000003280DD8DFE86F
:1031400000F002090406022102E0042003E0082145
:10315000296004E01020286001E04FF0FF34204691
:1031600032BD0D4669461C3000F05CBA80B50329BB
:10317000B8BF002107DB0529B8BF022103DB0929FD
:10318000B4BF032101211C3000F042FADAE11CB582
:103190000C4669461C3000F026FB00B187E189E14E
:1031A0003EB5002204460D46009201A904F11C0020
:1031B00000F019FB20B969462046FFF7E5FE00B193
:1031C00093E195E110B500F12A042178012907D097
:1031D000A1781C3000F0AFFA00B1B9E601202070F0
:1031E000002010BD10B5044694F82A0060B104F127
:1031F0002C0104F11C0000F0BBFA10B900F005F836
:1032000000B1A5E684F82A0010BD002104F11C00DD
:1032100000F091BA38B500F023F9002408B100F0AD
:10322000DBB99DF80000062816D8DFE800F0070497
:103230000A150D151100DFF868130BE0DFF86403C1
:1032400004E0DFF8641305E0DFF86003286005E0C0
:10325000DFF85C13296001E04FF0FF34204632BDF7
:1032600038B50D4669461C3000F082FA002408B1DA
:1032700000F0B2B99DF800000A2829D8DFE800F074
:1032800006080B0E1114171A1D2024002C6021E0D3
:10329000DFF8E80216E0DFF8E81217E0DFF8E402F2
:1032A00010E0DFF8E41211E0DFF8E0020AE0DFF8F6
:1032B000E0120BE0DFF8DC0204E0DFF8DC1205E0EE
:1032C000DFF8D802286005E0DFF89812296001E0F5
:1032D0004FF0FF34204632BD2DE9F84F024602F18F
:1032E0002A0700F080F835D100F0C8FA38BF012174
:1032F00027D300F075F838BF022122D300F06DF813
:1033000038BF03211DD300F065F838BF042118D35E
:1033100000F05DF838BF052113D300F055F838BF31
:1033200006210ED300F04DF838BF072109D300F075
:1033300045F838BF082104D300F03DF834BF092117
:103340000A2102F11C0000F0F6F9002831D04FF0FC
:10335000FF302EE000F092FA38BF012027D300F0B2
:103360003FF838BF022022D300F037F838BF0320DF
:103370001DD300F02FF838BF042018D300F027F831
:1033800038BF052013D300F01FF838BF06200ED336
:1033900000F017F838BF072009D300F00FF838BF46
:1033A000082004D300F007F834BF09200A20B870C1
:1033B0000020BDE8F28F194600F060BA214600F007
:1033C0005DBA294600F05ABA314600F057BA59465C
:1033D00000F054BA414600F051BA494600F04EBAE6
:1033E000514600F04BBA084697F800C0DFF8C431E8
:1033F000DFF8C441DFF8C451DFF8C461DFF8C4B1BD
:10340000DFF8C481DFF8C491DFF8C4A1DFF8C4118C
:10341000BCF1010F7047000038B500F021F800241E
:1034200008B100F0D9B89DF80000062814D8DFE8EC
:1034300000F0060408130B130F007D210AE0FA20A8
:1034400004E04FF4FA7105E04FF47A70286005E06B
:103450004FF4FA61296001E04FF0FF34204632BD9D
:103460000D4669461C3000F049B980B57E29B8BFC9
:1034700001210FDBFB29B8BF00210BDB40F2F51265
:103480009142B8BF022105DB40F2E9329142B4BF5C
:10349000042106211C3000F025F953E01CB50C4630
:1034A00069461C3000F09BF900B100E002E04FF0EB
:1034B000FF3016BDBDF800002080BDF8021061800D
:1034C000BDF80400A080002016BD3EB504460D46A0
:1034D00001A904F11C0000F082F920B969462046D8
:1034E000FFF798FE00B100E002E04FF0FF303EBD74
:1034F000BDF9040000F0D4F9009900F0E3F900F000
:103500004DFA2860BDF9060000F0CAF9009900F0F4
:10351000D9F900F043FA6860BDF9080000F0C0F97D
:10352000009900F0CFF900F039FAA86000203EBD04
:1035300004B501236A461C3000F064F802E01C3038
:1035400000F05AF808B14FF0FF3002BDDF35000837
:10355000EB350008002104F11C007047012104F143
:103560001C0070470020D04523DB793D23DBF93D6B
:1035700023DB793E23DBF93ECDCCCC3F0000484134
:103580000000D041000050420000D04200005043F3
:103590000000D043004050440080CF4400205045FC
:1035A00000008C4000000C4100008C4100000C42E7
:1035B00000008C42012050450180CF44014050441E
:1035C0000100D043010050430100D04201005042AD
:1035D0000100D041010048414FF0FF3032BD10B52D
:1035E0000446207B6469A04710BD10B50446207BCB
:1035F0002469A04710BD000010B50446A0686468A7
:10360000A04710BD10B50446A0682468A04710BDAF
:1036100038B500F030F818B900F003F900F024F8DC
:1036200032BD00001CB500F058F89DF80010890864
:1036300001F0030103290BD8DFE801F002040608BA
:10364000002106E0012104E0022102E0032100E064
:103650000421217016BD38B500F00DF818B900F03E
:1036600073F800F001F832BD8DF8000001236A46BE
:1036700010212046C6E70D46044601236A46102164
:10368000BAE700001CB500F028F89DF80010090901
:103690000B291FD8DFE801F006080A0C0E101214DF
:1036A00016181A1C002116E0012114E0022112E074
:1036B000032110E004210EE005210CE006210AE0C0
:1036C000072108E0082106E0092104E00A2102E0C0
:1036D0000B2100E00C21217016BD0C4601236A4627
:1036E000102189E738B500F03DF828B99DF80000B1
:1036F00065F3430000F02FF832BD00001CB500F068
:1037000060F89DF80010490801F0070106290FD85C
:10371000DFE801F00406080E0A0E0C00002108E0A4
:10372000012106E0022104E0042102E0062100E07C
:103730000721217016BD38B500F014F818B900F053
:1037400003F800F008F832BD9DF8000000F00F000B
:1037500040EA051070478DF8000001236A461121E8
:1037600020464FE70D46044601236A46112143E7F0
:103770001CB500F026F89DF8001009090A291DD88B
:10378000DFE801F006080A0C0E10121416181A00D1
:10379000002114E0012112E0022110E003210EE0DB
:1037A00004210CE005210AE0062108E0072106E0DB
:1037B000082104E0092102E00A2100E00B21217028
:1037C00016BD0C4601236A46112115E738B500F0F5
:1037D00022F818B900F035F800F016F832BD0A46A4
:1037E0000623222108E70A460623282104E70A4681
:1037F00001230F2100E738B500F00DF818B900F0EB
:1038000015F800F001F832BD8DF8000001236A467A
:1038100012212046F6E60D46044601236A4612218F
:10382000EAE69DF8000065F3830070479DF800000C
:1038300065F3820070479DF8000065F30200704751
:1038400000009DF8000065F38610704738B500F061
:103850000EF818B9FFF7EFFF00F001F832BD8DF850
:10386000000001236A460A212046FFF7CBBE0D4621
:10387000044601236A460A21FFF7BEBE4FF0807C52
:103880001CEB400F94BF1CEB410F05E040EA010C1C
:103890001CEB0C0F01D28842704718BF8142704761
:1038A000C2175040801AB0FA80F10AD08840D1F196
:1038B0009D01D20742EAC151020672F1004241EB7A
:1038C00010207047FF2212EAD05C1DBF12EAD153CC
:1038D000944593422BE09C44D30780EA01021A40AE
:1038E00043EA002043EA0121A1FB0030C04238BF77
:1038F00040007CF17F010BDBFE294ADA5B0842EADB
:10390000C15153EA006373F1004C51EB1020704732
:10391000D1F1080CDCF120012FDB5B0810FA01F17A
:103920000B4320FA0CF073F100415041704794456D
:103930001CBF02EAD153934280EA010202F0004226
:103940001DD0400019D0490017D05BB9634514D091
:103950000902B1FA81F39940BCEB030CC00140F0BD
:103960000040C1E70002B0FA80FC10FA0CF0B3EBA3
:103970000C0CC90141F00041B6E71000704740004F
:103980000AD0490008D010F1807F94BF11F1807FE8
:1039900002E042F0FF407047D0437047C0F3C75188
:1039A0007E390EDDC217D1F1200106DD000240F0A4
:1039B0000040C840104450407047D04380F0004061
:1039C000704700207047000038B5044600256CB1F0
:1039D00000F063FA0FF22171A061216264620FF2BC
:1039E0003170E061206808B1804718B14FF0FF35B1
:1039F000284632BDA068012804BF94F8280000289A
:103A0000F6D101222321204600F020FA0028EFD031
:103A10004FF0FF3032BD38B50446012104F11C00DF
:103A200000F02EFC90B9002104F11C0000F0D5FC40
:103A300060B904F128050520A87000F055F828B9F0
:103A4000002104F11C0000F0FAFB00B1E0E70120C6
:103A50002870002032BD10B5044600F032F800B1E5
:103A60002CE004F12800002181700170002010BDBD
:103A700080B51C3000F065FC39E30120087000229D
:103A800010204A708A70CA704A608860CA6000203C
:103A9000DFF8542508614A618861704710B500F16C
:103AA00029042178012907D061781C3000F07FFBC0
:103AB00000B103E001202070002010BD4FF0FF3066
:103AC00010BD10B5044694F8290060B104F12A0134
:103AD00004F11C0000F084FB10B900F005F800B1FF
:103AE000ECE784F8290010BD002104F11C0000F06F
:103AF0005EBB00007CB500F0A1F80024002848D18E
:103B00009DF8010018B102282DD017D342E000F033
:103B100045F800283DD100F023F93AD8DFE800F05D
:103B20000B080502DFF8C41431E0DFF8C4042AE012
:103B3000DFF8C0142BE0DFF8C00424E000F02EF81A
:103B4000002826D100F00CF923D8DFE800F00209A4
:103B50000603EAE7DFF8A41419E0DFF8A40412E092
:103B6000DFF8A01413E000F019F890B900F0F8F8AD
:103B70000FD8DFE800F0020A0603EEE7DFF888144A
:103B800005E0DFF88804286006E0DFF88414296087
:103B900002E05BE04FF0FF34204676BD694606F157
:103BA0001C0000F057BB00007CB500F047F8002473
:103BB00028B9694606F11C0000F012FB00B145E08F
:103BC0009DF801109DF8000002290ED1092831D876
:103BD000DFE800F01416191C1F2225280508DFF85D
:103BE000340425E0DFF830141EE0092822D8DFE88D
:103BF00000F005070A0D10131619211D2C601BE09B
:103C00004FF07E5110E0DFF8140411E0DFF81014DB
:103C10000AE0DFF810040BE0DFF80C1404E0DFF832
:103C20000C0405E0DFF8C013296005E0DFF80004AC
:103C3000286001E04FF0FF34204676BD06460D4671
:103C40000DF1010106F11C0000F096BA4FF0FF30B3
:103C500076BD2DE9F041024602F12903084693F8AA
:103C600000C0DFF8D043DFF8D053DFF8D063DFF8CF
:103C7000D073DFF8D083DFF8D013BCF1010F2AD165
:103C8000FFF7FCFD38BF01211DD34146FFF7F6FDCC
:103C900038BF022117D33946FFF7F0FD38BF0321A3
:103CA00011D33146FFF7EAFD38BF04210BD3294673
:103CB000FFF7E4FD38BF052105D32146FFF7DEFD00
:103CC00034BF0621072102F11C0000F070FA38B35E
:103CD0004FF0FF3024E0FFF7D1FD38BF01201DD3A6
:103CE0004146FFF7CBFD38BF022017D33946FFF717
:103CF000C5FD38BF032011D33146FFF7BFFD38BFE4
:103D000004200BD32946FFF7B9FD38BF052005D3A2
:103D10002146FFF7B3FD34BF06200720587000206E
:103D2000BDE8F08138B50D4669461C3000F092FAC6
:103D3000002400B16CE600F013F80DD8DFE800F0C5
:103D400002040609022102E0042003E008212960A0
:103D500004E01020286001E04FF0FF34204632BD1F
:103D60009DF800000328704780B50329B8BF0021E3
:103D700007DB0529B8BF012103DB0929B4BF0221F4
:103D800003211C3000F05BFAB1E17FB505460C461B
:103D9000694605F11C0000F0EFF998B99DF80000A4
:103DA00018B102280BD008D30CE0102601A905F1A8
:103DB0001C0000F06EFA40B104E04026F6E74FF434
:103DC0008076F3E74FF0FF300FE0BDF9040090FB81
:103DD000F6F02080BDF9061091FBF6F16180BDF987
:103DE000080090FBF6F0A080002004B070BD3EB546
:103DF00000220D460092044601A9FFF7C6FF20B934
:103E000069462046FFF776FE00B168E1BDF904007F
:103E1000FFF746FD0099FFF755FDFFF7BFFD28604E
:103E2000BDF90600FFF73CFD0099FFF74BFDFFF7DA
:103E3000B5FD6860BDF90800FFF732FD0099FFF796
:103E400041FDFFF7ABFDA86000203EBD04B549E190
:103E500038B5044600256CB100F01FF80FF2C921F7
:103E6000A061216264620FF2DD20E061206808B188
:103E7000804718B14FF0FF35284632BDA0680028B2
:103E8000FAD094F828000028F6D1012104F11C0092
:103E900000F0AFFA0028EFD0BAE5086820604A6861
:103EA00062608868A0600A7B2273086920614A69A1
:103EB00062618869704710B50446012104F11C0055
:103EC00000F032FA70B900F013F858B9032104F188
:103ED0001C0000F0EDF928B9002104F11C0000F0ED
:103EE0004AFA00B1EAE5012084F82800002010BD5C
:103EF000022104F11C0000F0D0B910B5044600F016
:103F00002BF800B1DAE584F8280010BD80B51C302C
:103F100000F02DFAEBE0002008704870C87048608F
:103F2000886008613222CA6001233F48886100220C
:103F30008B704A610020704710B5044694F8290040
:103F4000012807D00021FFF7D4FF00B1B6E501201A
:103F500084F82900002010BD10B5044694F829000B
:103F600028B1FFF7C5FF00B1A8E584F8290010BD0E
:103F70004FF07F506FE0000038B50D4669461C30A9
:103F800000F0A1F9002400B142E5FFF7E9FE0DD8E9
:103F9000DFE800F002040609204902E02B4803E0B4
:103FA0002049296004E02048286001E04FF0FF34F8
:103FB000204632BD80B5024608462249FFF75EFC26
:103FC00038BF00210BD32249FFF758FC38BF01212D
:103FD00005D31A49FFF752FC34BF0221032102F135
:103FE0001C0000F065F982E00000C8431F853B41DA
:103FF0009A9979409A99F93F48E17A3F9A993B42D8
:104000007B147A41713DFA407B943B437B147A42A6
:104010007B14FA410080CA440000A84500002041FA
:104020000000C841000048420000C8420000484368
:104030000000A844010048430100C8420100484272
:104040000100C841010020410100803F0000A04163
:104050000100A04132200860002070470020704716
:104060001CB500F037F810B14FF0FF3016BDBDF8A9
:1040700000002080BDF802106180BDF80400A0801F
:10408000002016BD3EB500F025F800B127E0BDF9CF
:104090000000FFF705FC4FF07F5500F017F8FFF721
:1040A0007DFC2060BDF90200FFF7FAFB00F00EF87E
:1040B000FFF774FC6060BDF90400FFF7F1FB00F04E
:1040C00005F8FFF76BFCA06000203EBD01462846C6
:1040D000FFF7F8BB0C4669461C3000F02EB94FF0D4
:1040E000FF303EBD01236A461C3000F03FF808B1A6
:1040F0004FF0FF3002BD000070B58568047B466953
:10410000002D0CBF41F0800141F0400116E000009D
:1041100070B58568047B0669002D0CBF41F08001F5
:1041200041F0400118E0000070B58568047B4669E5
:10413000002D0CBF41F0800141F040012046B04706
:1041400070BD000070B58568047B0669002D0CBF4A
:1041500041F0800141F040012046B04770BD0000B1
:1041600010B50446A0686468A04710BD10B50446A9
:10417000A0682468A04710BD38B500F02AF830B90F
:1041800001230DF1010223212046FFF7E9FF9DF8ED
:104190000010C1F3C00109B1022106E09DF8011031
:1041A000C1F3C002511E8941C90F297032BD38B513
:1041B00000F00FF860B99DF8000000F00F0040EA31
:1041C00005108DF8000001236A46202100F00EF949
:1041D00032BD0D46044601236A462021C0E7000097
:1041E0001CB500F0D3F82021FFF7BAFF9DF80010AE
:1041F0000909491E082918D8DFE801F00507090B4D
:104200000D0F11131500012110E002210EE0032112
:104210000CE004210AE0052108E0062106E0072160
:1042200004E0082102E0092100E00021217016BD10
:104230009DF8000000F03F0040EA8510704738B557
:1042400000F08AF828B99DF8000065F3051000F029
:104250007CF832BD1CB500F085F800F00AF806D0F5
:1042600004D3032903D038BF022100D300212170D9
:1042700016BD9DF80010090901F0030101297047DE
:1042800038B500F069F818B900F035F800F05DF8BD
:1042900032BD0A460623282162E738B500F039F816
:1042A00028B99DF8000065F3010000F02BF832BD3D
:1042B00038B500F02EF828B99DF8000065F38300AA
:1042C00000F020F832BD1CB500F010F89DF8001089
:1042D000890801F00301012906D004D3032903D082
:1042E00038BF022100D30021217016BD0C460123E6
:1042F0006A46602134E79DF8000000F07F0040EA44
:10430000C51070478DF8000001236A4660212046E1
:104310002CE70D46044601236A46602120E79DF8FC
:10432000000065F30410704738B500F03BF818B989
:10433000FFF7F5FF00F02EF832BD0A46062368218C
:104340000EE70A4601230F210AE78DF8000001233A
:104350006A462321204609E70D46044601236A46A2
:104360002321FDE60C4601236A462321F8E60A468E
:1043700001234F21F4E638B500F014F828B99DF870
:10438000000065F3410000F005F832BD0C46012342
:104390006A4670478DF8000001236A466221204674
:1043A000FFF7E4BE0D46044601236A466221FFF78B
:1043B000D7BE9DF8000065F3451070478DF80000EA
:1043C00001236A462E212046FFF7D0BE0D46044643
:1043D00001236A462E21FFF7C3BE38B5FFF7F6FF6B
:1043E00018B9FFF725FFFFF7E9FF32BD2046FFF7B9
:1043F000BDBE38B5FFF7D6FF18B9FFF7DAFFFFF7F4
:10440000C9FF32BD2DE9F84705004FF0000887B01D
:1044100089464FF0010A4746DFF8A06303D0022D1A
:1044200049D041D358E0484600F0D7F8002846D19B
:10443000B06B726C6946D3689847002849D19DF8E3
:10444000000001289DF8010008BF022701289DF8FF
:10445000020008BF47F00107012808BF47F0040722
:1044600003240AEA0900504504BF0AEA0700504540
:104470000FD10C2106F124026943711852F82A3039
:1044800051F823100A6806F1380050F825009047CB
:1044900038B9641E4FEA4A0AE3D1404608B0BDE885
:1044A000F0876FF00400F9E7484600F0EBF830B908
:1044B000F06BB26CBEE7484600F033F910B14FF034
:1044C000FF30EBE7F26C306CD36869469847002800
:1044D000B5D06FF00600E1E76FF00108DDE710B539
:1044E0000346032B08D200F01AF805D100F01FF89C
:1044F0000A68904710B124E06FF0010010BD10B5BC
:104500000346032B08D200F00AF805D100F00FF89B
:104510004A68904710B114E06FF0010010BDDFF859
:104520009C4204EB8300026D0A408A4270470C22D1
:10453000534304EB8101E2184B6A52F82310806B5D
:1045400070476FF0040010BD38B500F017F808D2BE
:1045500000F00DF805D100F016F8D369984710B1B6
:1045600002E06FF0010032BD6FF0040032BD934DE8
:1045700005EB8300026D2240A242704703460C46C1
:10458000032B114670470C225343EA1805EB8403B2
:104590005C6A52F82420806B704738B5FFF7EEFF55
:1045A00008D2FFF7E4FF05D1FFF7EDFF1369984745
:1045B00010B1D9E76FF0010032BD38B5FFF7DEFF6B
:1045C00008D2FFF7D4FF05D1FFF7DDFF93699847C5
:1045D00010B1C9E76FF0010032BDD721F0B500F08E
:1045E00093F88FB000F093F8039506F15C007449DE
:1045F000744A0591079201A9FEF710FC50B969466B
:1046000006F15C00FEF77BFC002804BF9DF800006B
:104610006A2802D06FF0060531E008A906F15C00B7
:10462000FEF773FC9DF821009DF8202040EA42012E
:104630009DF8222041EA82013165E20706F15C0122
:10464000B1636FF004076049716408D5012806D191
:104650005E48306006F15C000968884770B9A007C1
:104660000AD59DF82010012906D15948716C706057
:104670000A68B06B904708B9600700D53D462846E8
:104680000FB0F0BD2DE9F841332100F03DF88FB0B7
:1046900000F03DF806F18C0700F086F8FFF794F97A
:1046A00048B969463846FFF7E3F9002804BF9DF88A
:1046B0000000332802D06FF0060524E008A9384630
:1046C000FFF7DBF99DF821009DF82010F76340EA21
:1046D00041009DF8221040EA81007065A0073D4925
:1046E000B1646FF0040809D59DF82020012A05D196
:1046F0003948306138460968884718B9E00701D45D
:10470000610700D545464BE0344A2C4E70470446BD
:104710008DF81010019200253149324A029106921B
:1047200070472DE9F8413D21FFF7EEFF8FB0FFF70D
:10473000EEFF06F1B80700F037F8FFF789FB48B93C
:1047400069463846FFF7E2FB002804BF9DF80000E9
:10475000402802D06FF0060522E008A93846FFF78E
:10476000DAFB9DF821109DF820209DF82200376487
:1047700041EA420141EA8001B16562071A49F164E8
:104780006FF0040807D5012805D118483062384673
:104790000968884718B9A00701D4E10700D5454644
:1047A000284610B0BDE8F0810549064A05910792F8
:1047B000039501A93846704700000000D40000208E
:1047C000EF7C0008657D0008580200208C02002064
:1047D00068020020F001002000020020497C00084F
:1047E000BB7C00080F7D000824020020340200205A
:1047F00070B5044600254FF0FF362CB308682060E2
:104800004A6862608868A0600A7B22730869206138
:104810004A69626188690FF20531A06121626462B0
:104820000FF23530E061206870B1804760B9A06850
:10483000022804BF94F82800002806D10122102184
:10484000204600F0E5F800B13546284670BD38B581
:10485000044604F12805287818BB00F05BF900F045
:104860001AFAA8B900F0B1F890B9022104F11C00BD
:1048700000F0C1F960B900F04DF900F0B1F938B9B4
:10488000A06830B9002104F11C0000F02FFA30B10B
:1048900056E000F03FF900F029FA0028F8D1032093
:1048A000E87001212970002032BD10B5044694F84B
:1048B0002800012808D1204600F030F818B9204619
:1048C00000F06BF800B126E0002084F8280010BD4D
:1048D00080B51C3000F0DBF94BE00020012288702D
:1048E0004A700A700023DFF80C028860C860CB7041
:1048F0004B600020704710B500F129042178012990
:1049000007D0A1781C3000F081F900B103E001204C
:104910002070002010BD4FF0FF3010BD38B50446A8
:1049200004F12905287850B1687830B900F047F8CB
:1049300010B900F04AF800B102E00020287032BD42
:104940004FF0FF3032BD6BE090F82920012A08BFFC
:1049500000F08BB8ADE01CB50C46002100911C3076
:10496000694600F08CF900B14CE0009800F024F9A1
:104970004BE008B14FF0FF3002BD10B500F12A0442
:104980002178012907D061781C3000F03FF900B18F
:10499000C1E701202070002010BD38B5044604F1A5
:1049A0002905687850B1287830B900F008F810B9B6
:1049B00000F00BF800B1C3E70020687032BD04F1CD
:1049C0002B0104F11C0000F039B9002104F11C0096
:1049D00000F01CB924E090F82A20012A08BF00F05A
:1049E00044B866E01CB50C460021ADF800101C3040
:1049F000694600F048F900B104E0BDF9000000F09C
:104A0000E4F802E04FF0FF3016BD2060002016BD34
:104A100004B501236A461C3000F0C8F8A9E700007D
:104A200038B50D4669461C3000F008F9002400B185
:104A300086E79DF80000052813D8DFE800F003059D
:104A4000080A0C0F2C600EE04FF07E5007E02A4958
:104A500002E02A4803E02A49296004E0254828604A
:104A600001E04FF0FF34204632BD10B5044600F09F
:104A70003DF838BF012111D32249FEF7FFFE38BFB0
:104A800002210BD32049FEF7F9FE38BF032105D3DD
:104A90001E49FEF7F3FE34BF0421052104F11C007A
:104AA00000F0B4F810B9FFF78AFF08B14FF0FF30FB
:104AB00010BD80B5024600F019F838BF012011D3AF
:104AC0001049FEF7DBFE38BF02200BD30E49FEF77C
:104AD000D5FE38BF032005D30C49FEF7CFFE34BF07
:104AE0000420052082F82B00002002BD084608495A
:104AF000FEF7C4BE00009642000020410000C841FD
:104B000000004842010020410100C8410100484224
:104B10000100803F012104F11C0070472DE9F041A4
:104B200000F037F889B9002700E07F1C474510DA0C
:104B30007919207BD4F814C00123F21989B2E04717
:104B40000028F2D04FF0FF3003E0207B6469294653
:104B5000A047BDE8F08100002DE9F04100F019F810
:104B600089B9002700E07F1C474510DA7919207BBE
:104B7000D4F810C00123F21989B2E0470028F2D01E
:104B80004FF0FF3003E0207B24692946A047BDE8B1
:104B9000F0810D4604461646A168984600207047ED
:104BA00010B50446A0686468A04710BD10B504465F
:104BB000A0682468A04710BD80B5FEF771FEBDE86F
:104BC00004404FF06651FEF77DBE80B5FEF768FEEB
:104BD000BDE80440014900F093B800000000C8425D
:104BE00038B500F025F828B99DF8000065F34100BC
:104BF00000F017F832BD38B500F01AF828B99DF862
:104C0000000065F3830000F00CF832BD38B500F009
:104C10000FF828B99DF8000065F3061000F001F8C0
:104C200032BD8DF8000001236A4610212046BDE701
:104C30000D46044601236A461021B1E71CB500F079
:104C400019F89DF80010090901F0070105290ED88F
:104C5000DFE801F0030D0507090B002108E0022140
:104C600006E0032104E0042102E0052100E0012127
:104C7000217016BD0C4601236A46102190E70A46B2
:104C8000032328218CE70A4602232B2188E70A46C2
:104C900001230F2184E738B50D46044601236A46F7
:104CA0001A21FFF77DFF48B900F009F88DF80000E0
:104CB00001236A461A212046FFF778FF32BD9DF88E
:104CC000000065F3000070479DF8000065F30410D4
:104CD00070478DF8000001236A461121204665E7E0
:104CE0000D46044601236A46112159E738B5FFF7FE
:104CF000F7FF18B9FFF7E8FFFFF7EBFF32BD000041
:104D000010B5FF2313EAD0541DBF13EAD1529C42C1
:104D10009A4239E0A41ADA0780EA0103134042EA12
:104D2000012142EA0020421A3CBF641E01EB42020C
:104D3000090AB2FBF1FE01FB1E221202B2FBF1F0E6
:104D400001FB10226EF30F201202B2FBF1FE4EEABD
:104D500000207F3406DDFE2C24DA53EA500050EBAD
:104D6000C45010BDD4F1020401FB1E2240F080713A
:104D7000192C1DDC21FA04F0C4F12004A1401143D8
:104D800071F10042584110BD9C421ABF03EAD15252
:104D90009A420FE080EA010E0EF00043400004D07A
:104DA000490016D143F0FF4010BD490008BFD3436E
:104DB000180010BD9C4205D1D21AF7D001F0004175
:104DC000484010BD4A0212BF0846484000F000406B
:104DD00010BD4AB90902B1FA81F2914044B1A41858
:104DE000C00140F000409EE7C90141F0004152423D
:104DF0000002B0FA80F4A040141B94E710B54FF005
:104E0000FF32C0B10B6803604C6844608B688360FC
:104E10000C7B04730B6903614C690FF24D334461E1
:104E200089698161406203620FF25931C161006892
:104E300008B180470246104610BD10B5044694F8EC
:104E4000280090B9002104F11C0000F004FA58B9C0
:104E5000012104F11C0000F0D5F928B94FF07E5172
:104E6000204600F036F900B117E0012084F8280050
:104E7000002010BD10B5044694F82800012808D180
:104E8000204600F032F818B9204600F09DF800B135
:104E900003E0002084F8280010BD4FF0FF3010BD63
:104EA00080B51C3000F0D3F97AE001200022887030
:104EB0004A700870CA709148486088600020C860D5
:104EC000704710B500F129042178012907D06278D4
:104ED0001AB900F006F800B1DFE7012020700020C9
:104EE00010BD01211C3000F0B6B910B500F1290445
:104EF000217809B9002010BD627822B90021FFF79E
:104F0000F1FF00B1C9E70020207010BDBEE0E0E075
:104F100030B585B005460C4600F03EF800F0F0F9DB
:104F200000BB00F0A2F8019000F036F800F0A3F901
:104F3000C0B900F096F8029000F02EF800F0E4F905
:104F400080B900F092F8039000F026F800F099F98B
:104F500040B900F086F800F08CF805F11C0000F074
:104F60006EF910B14FF0FF3014E0BDF90200FEF70A
:104F700097FC014601A800F0CDF80021FEF77EFC69
:104F800038BF002004D35E4900F0CAF998BF5D48DD
:104F90002060002005B030BD694605F11C00704757
:104FA00008B14FF0FF3002BD10B500F1290461785F
:104FB000012907D022781AB9FFF793FF00B16CE7F7
:104FC00001206070002010BD10B500F12904617847
:104FD00009B9002010BD227822B90021FFF782FF15
:104FE00000B15AE70020607010BD4FE071E030B5AD
:104FF00085B004460D4600F044F800F089F9002819
:1050000020D100F032F8019000F03BF800F044F9B4
:10501000C0B900F026F8029000F033F800F07CF9F7
:1050200080B900F022F8039000F02BF800F048F966
:1050300040B900F016F800F01CF804F11C0000F074
:1050400002F910B14FF0FF3009E0BDF90200FEF7A0
:1050500027FC014601A800F05DF82860002005B09B
:1050600030BD9DF8000000F06DB9BDF90000FEF7FD
:1050700017BC049000210DF1020001800DF1020126
:105080007047694604F11C007047000038B50D46B2
:1050900069461C3000F09CF8002400B116E09DF831
:1050A000000003280ED8DFE800F00204070A2C6095
:1050B0000AE04FF07E5003E01349296004E00F48F6
:1050C000286001E04FF0FF34204632BD4FF0FF3042
:1050D00032BD80B5024608460C49FEF7CFFB38BF0B
:1050E000012105D30A49FEF7C9FB34BF0221032180
:1050F00002F11C0000F060F852E700000000484197
:105100000100C8420000C8420000E0400100803FAA
:105110000100E0402DE9F04184684668C7680568F1
:1051200088463846314600F01BF94146FEF7CAFB77
:10513000804620463146FEF7C5FB064628463946DE
:10514000FEF7C0FB0146304600F00AF9414600F088
:1051500047F906462046294600F002F90146304646
:10516000BDE8F041FFF7CCBD70B58568047B4669AA
:10517000002D0CBF41F0800141F040012046B047B6
:1051800070BD000070B58568047B0669002D0CBFFA
:1051900041F0800141F040012046B04770BD000061
:1051A00010B50446A0686468A04710BD10B5044659
:1051B000A0682468A04710BD38B500F035F828B9BC
:1051C0009DF8000065F3010000F027F832BD0000F3
:1051D0001CB500F02FF8FFF7E3FF9DF8001001F079
:1051E000030103290BD8DFE801F0020406080021BF
:1051F00006E0012104E0022102E0032100E0042195
:10520000217016BD38B500F00FF828B99DF80000E0
:1052100065F3820000F001F832BD8DF80000012333
:105220006A4620212046C1E70D46044601236A460E
:105230002021B5E70C4601236A46202170470A4623
:1052400002232821ACE70A4602232A21A8E70A46BE
:1052500001230F21A4E738B5FFF7E6FF18B900F0E6
:1052600003F8FFF7DAFF32BD9DF8000000F07F0081
:1052700040EAC510704710B50C4601232246302184
:1052800004E010B50C46012322463121FFF788FFC8
:1052900022785208227010BD38B50D46044601230D
:1052A0006A463221FFF77CFF48B900F023F89DF8E9
:1052B00001109DF8002001F0030100F015F832BD47
:1052C00038B50D46044601236A463321FFF768FFCF
:1052D00048B900F00FF89DF801109DF80020C1F3C7
:1052E000810100F001F832BD02EB01221204D20C60
:1052F0002A70704701230DF10102352120464FE746
:105300000A46022336214BE70A4602233A2147E7A1
:105310000A4602233C2143E70A4602233E213FE797
:105320004FF0807C1CEB400F94BF1CEB410F05E05D
:1053300040EA010C1CEB0C0F01D28142704718BFF0
:105340008842704700280AD0B0FA80F18840D1F135
:105350009D01C905020672F1004241EB1020704721
:1053600090EA010F40F1428081F00041421A3CBFB7
:10537000801A89184FF0004CC0F3C752FF2A24D07E
:10538000C1F3C75313B3D21AD2F1190327DD4CEA84
:1053900001214CFA03F321EA0303D140C20D4CEA88
:1053A0000020401834BF20EA0C004CEA5000D2051F
:1053B00053EA006373EB0C0C52EB1020420012F125
:1053C000807F38BF7047C00DC0057047490212BFCB
:1053D0009A4200EB5120F8E7D2F11703D9D5704774
:1053E00090EA010F7FF5C2AF81F00041431A4FF000
:1053F00000423EBF5340C01AC91800BFD3095FEA3C
:10540000D05C13EB400F34BFB3EB410F40E07CEBBB
:10541000D1530CD342EA012122D8D1EB402009D349
:10542000400A28BF5FEA500140EBCC507047401A59
:1054300015D04002B0FA80F2521C9040400A4FEA68
:105440003C23B3EB026384BF00EB730007E040F43E
:1054500000001A16DB07C2F10102D0401843704762
:10546000182BFCDC31FA03F202FA03F3591A38BFA5
:1054700042F00102D2EB40203CBF4000ACF1010CF5
:105480005FEACC5CC20572F100414CEB50207047E2
:1054900013EB400F0FD2C94209D0ACEBD153022B12
:1054A00003DB4902172BDDDD70479143401AC042F0
:1054B000D5D10020704713EB410FD0D36FF000001F
:1054C0007047000038B5040001D1012032BD00F062
:1054D00021F808B900F022F800F012F800F023F8E3
:1054E000FFE7416100F001F832BD2068C16841F476
:1054F0000051C1600020686020216970A970704768
:10550000242068702068C16821F40051C1602046E1
:1055100000F044B904F1380568787047002129701B
:10552000204600F09DB92068016921F49041016195
:105530002068416921F02A0170472DE9F8430546AA
:1055400005F138070C4678782028164698463DD154
:10555000002C14BF002E012039D03878012835D016
:10556000012139700020786021227A70FDF7CCFB90
:10557000AE848146EE8403E0296814F8010B48608C
:10558000E88C30B3E88C411EE9844B46A868CDF81E
:105590000080B0F5805F0DD100F025F870B920884B
:1055A0002968C0F3080048602869002814BF641CFB
:1055B000A41CE5E700F017F80028DDD0032006E082
:1055C0002020787000213970002000E00220BDE822
:1055D000F283CDF800804B460022402100F005F810
:1055E0000028EDD0EAE70022802128468DE07CB536
:1055F000044604F138051346A87820283ED109B1A5
:10560000180001D1012076BD2878012836D001206C
:105610002870A162A38500226A602220A87000265B
:10562000606B0FF25D028262606B0FF28D02C262EC
:10563000606B0FF28D0202630A46606B4663266858
:10564000606B311D00F052F90020009021680A685B
:10565000009200224B68009300982A70CB6843F4B4
:105660008073CB602068416941F00101416120688D
:10567000416941F040014161002076BD022076BDC4
:10568000416A00680268930613D40020C885086840
:10569000C26822F48072C2600868426952085200EF
:1056A00042610868426922F040024261202081F88C
:1056B0003A00084600F0CDB9406A00F0CBB90000CE
:1056C00038B5446A2068406904F1390529782129F0
:1056D00006D1010604D50022E284204600F047F8F6
:1056E000216848696978222906D1400604D500213D
:1056F000E185204600F044F8E06B40F01000E063E4
:105700002046BDE8324000F0A6B92DE9F041069CE4
:1057100005460E4690461F46286801683140B14252
:105720000CBF01200020404517D114F1010FF3D028
:1057300024B1FDF7E9FAC01B8442EDD22868C168A4
:1057400021F4D07100F00CF805F1380020214170EF
:10575000817000210170032000E00020BDE8F0818D
:10576000C160286841694908490041617047016882
:10577000CA6822F0C002CA60202180F83910704740
:105780000168CA6822F49072CA6001684A695208C6
:1057900052004A61202180F83A10704770B50446E3
:1057A000642522681169E06821F4405101431161C8
:1057B0001926D3682448A168034020690B43616916
:1057C0000343E0690B430343D3605169A06921F4AB
:1057D0004071014351611D48E169B1F5004F18D195
:1057E000824202D1FDF72FFA01E0FDF724FA464389
:1057F0006068400000F02CF8ED0032356420B5FB05
:10580000F0F0420002F4F87202EB011200F007001F
:1058100016E0824202D1FDF716FA01E0FDF70BFA1D
:1058200046436068800000F013F82D013235642093
:10583000B5FBF0F000F0F00202EB011200F00F00F7
:1058400021688018886070BDF369FFFF003801404F
:10585000B6FBF0F06421B0FBF1F105FB11057047D8
:105860007047000070B508B9012070BD03681A4D7B
:10587000AB4200F1380409D21849CA181426B2FB09
:10588000F6F29200164DA260656008E01549CA184C
:105890001425B2FBF5F292001349A2606160022266
:1058A00080F821201D68416882686FF30E150D4352
:1058B000C168154302690D434169154382690D436F
:1058C000C16915430D431D600023236000F048F8B3
:1058D00080F82030002070BD08640240F89FFDBFB2
:1058E00000600240F89BFDBF00640240F8B504462A
:1058F000002594F82000012801D10220F2BD0120EA
:1059000084F8200094F82160012E24D1022004F1B3
:105910002C0684F82100F560206807687F087F0066
:105920000760204600F081F82168306820B10A68DD
:1059300042F00E020A6008E0086820F004000860E7
:105940002068016841F00A0101602068016841F0A7
:105950000101016002E084F8205002252846F2BDD2
:10596000012280F821207047F8B500F128010423B6
:105970004A691468026815680E7E06F01C0603FA70
:1059800006F73C4210D06F070ED51468A50603D465
:10599000146824F00404146000F03FF849680029FA
:1059A0003AD0BDE8F4400847022303FA06F73C4228
:1059B00014D0AF0712D51468A50605D4146824F0D6
:1059C0000A041460FFF7CCFF00F027F8002280F8EB
:1059D0002020096801B3BDE8F4400847082303FA12
:1059E00006F6344218D02B0716D5146824F00E049E
:1059F000146001220B7E4C6903F01C039A40626024
:105A000001220A6180F82120002280F82020896884
:105A100011B1BDE8F4400847F1BD0A7E4C6902F0BF
:105A20001C02934063607047000070B590F84050CE
:105A3000C66B012405F01C05AC407460046863600B
:105A40004068102802D1A260E16070BDA160E260F0
:105A500070BD70477047704780B5002000F0C0F9F6
:105A6000002000F0FAF900F055FBC649C6480A6864
:105A70004FF4FA63B2FBF3F35B1E00217C22436018
:105A80008160C2600161416100F088FB08B100F0F3
:105A90007DFB00F021FD00F021FD00F023FD00F072
:105AA00025FD00F027FD00F027FD4FF0834000F0BA
:105AB00069FD042000F06CFD00F070FDB34800F1BA
:105AC000240100F06FFD002000F0B2F94FF4FA70ED
:105AD00000F06EFD002000F0B0F9BDE8014000F0DC
