:020000040800F2
:1000000078060020753E0008553D0008573D000861
:10001000593D00085B3D00085D3D00080000000000
:100020000000000000000000000000005F3D00082C
:10003000613D000800000000633D0008653D0008C8
:10004000993E00089D3E0008A13E0008A53E00081C
:10005000A93E0008AD3E0008B13E0008B53E0008CC
:10006000B93E0008BD3E0008693D0008C13E0008D9
:10007000C53E0008C93E0008CD3E0008D13E00083C
:10008000D53E0008D93E0008DD3E00080000000013
:100090000000000000000000000000006F3D0008AC
:1000A000E13E0008E53E0008E93E0008ED3E00089C
:1000B000F13E0008F53E0008F93E0008FD3E00084C
:1000C000013F0008053F0008093F00080D3F0008F8
:1000D000113F0008153F0008193F0008000000000C
:1000E000753D00081D3F0008213F0008000000008A
:1000F000000000000000000000000000253F000894
:1001000000000000293F00082D3F0008313F000893
:1001100000000000000000000000000000000000DF
:10012000353F0008393F00083D3F0008413F0008C7
:10013000453F000800000000000000000000000033
:10014000000000000000000000000000493F00081F
:100150004D3F0008513F0008553F0008593F000837
:100160005D3F0008613F0008000000000000000043
:10017000000000000000000000000000000000007F
:1001800000000000653F00080000000000000000C3
:10019000693F000870B5044600254FF0FF362CB3C8
:1001A000086820604A6862608868A0600A7B2273E1
:1001B000086920614A6962618869DFF80816A061F0
:1001C00021626462DFF80006E061206870B1804758
:1001D00060B9A068022804BF94F82800002806D15E
:1001E0000C221221204600F07CFB00B13546284647
:1001F00070BD38B5044600F0FBFB00F01DFE002882
:1002000021D100F0F5FB00F0F9FD00281BD100F032
:10021000DEFB01F098F8B0B904F128050420E8707D
:1002200000F06BF878B900F0D2FB00F009FD50B98E
:100230000420287100F0A3F928B9062104F11C005C
:1002400000F068FD08B100F0DDBC0120287000203E
:1002500032BD10B5044600F03DF818B9204600F054
:100260007BF900B133E004F128000021C170017175
:100270000170002010BD80B51C3000F0D9FD00F0E9
:100280009FBB000001200870487000231020886088
:100290004FF4FA629FED4B0A00208B70CB704A60DE
:1002A000CB6081ED040A81ED050A8861704710B5C5
:1002B00000F129042178012907D0A1781C3000F031
:1002C000E2FC00B103E001202070002010BD4FF0DF
:1002D000FF3010BD10B5044694F8290060B104F158
:1002E0002B0104F11C0000F0E5FC10B900F005F84A
:1002F00000B1ECE784F8290010BD002104F11C00D6
:1003000000F0C1BC38B500F0E6F8002408B100F0F8
:1003100079BC9DF80000032811D8DFE800F0020C3A
:100320000508DFF81C1704E0DFF8180705E0DFF820
:100330001817296005E0DFF81407286001E04FF086
:10034000FF34204632BD000038B50D4669461C30EA
:1003500000F0B0FC002408B100F054BC9DF800008F
:100360000B282BD8DFE800F0060B0E1114171A1D0E
:10037000202327082C6023E0DFF8D4061CE0DFF8F8
:10038000D41616E0DFF8D00616E0DFF8D01610E03D
:10039000DFF8CC0610E0DFF8CC160AE0DFF8C8067C
:1003A0000AE0DFF8C81604E0DFF8C40604E0DFF86E
:1003B000C416296004E00348286001E04FF0FF34D0
:1003C000204632BD0020D04580B500F1290100F063
:1003D000CFF933D1F1EE10FA48BF012127D400F054
:1003E000C2F948BF022122D400F0B8F948BF032166
:1003F0001DD400F0A9F948BF042118D400F09FF9DA
:1004000048BF052113D400F095F948BF06210ED44A
:1004100000F08BF948BF072109D400F081F948BFEB
:10042000082104D400F095F94CBF09210A211C30A1
:1004300000F029FC002830D000F0E7BBF1EE10FA04
:1004400048BF012027D400F08EF948BF022022D4F3
:1004500000F084F948BF03201DD400F075F948BFAF
:10046000042018D400F06BF948BF052013D400F025
:1004700061F948BF06200ED400F057F948BF0720A5
:1004800009D400F04DF948BF082004D400F061F908
:100490004CBF09200A208870002002BD38B500F04A
:1004A0001AF8002408B100F0ADBB9DF80000032845
:1004B0000DD8DFE800F002090406022102E0042062
:1004C00003E00821296004E01020286001E04FF0DB
:1004D000FF34204632BD0D4669461C3000F0BABBE1
:1004E00080B50329B8BF002107DB0529B8BF022169
:1004F00003DB0929B4BF032101211C3000F0A0FB5C
:100500005EE21CB50C4669461C3000F08DFC00B163
:10051000A7E1A9E13EB5002204460D46009201A9DB
:1005200004F11C0000F080FC20B969462046FFF76A
:10053000E9FE00B1B3E1B5E110B500F12A0421787C
:10054000012907D0A1781C3000F00DFC00B1BEE6F7
:1005500001202070002010BD10B5044694F82A0038
:1005600060B104F12C0104F11C0000F019FC10B979
:1005700000F005F800B1AAE684F82A0010BD0021B9
:1005800004F11C0000F0EFBB38B500F043F9002483
:1005900008B100F037BB9DF80000062816D8DFE848
:1005A00000F007040A150D151100DFF8CC140BE05C
:1005B000DFF8C80404E0DFF8C81405E0DFF8C4047D
:1005C000286005E0DFF8C014296001E04FF0FF3437
:1005D000204632BD38B50D4669461C3000F0E0FBC0
:1005E000002408B100F00EBB9DF800000A2829D8AD
:1005F000DFE800F006080B0E1114171A1D20240066
:100600002C6021E0DFF84C0416E0DFF84C1417E012
:10061000DFF8480410E0DFF8481411E0DFF8440484
:100620000AE0DFF844140BE0DFF8400404E0DFF8F0
:10063000401405E0DFF83C04286005E0DFF84C14C6
:10064000296001E04FF0FF34204632BD80B500F153
:100650002A0100F08DF833D1F1EE10FA48BF0121E4
:1006600027D400F080F848BF022122D400F076F8A9
:1006700048BF03211DD400F067F848BF042118D4F7
:1006800000F05DF848BF052113D400F053F848BFCF
:1006900006210ED400F049F848BF072109D400F024
:1006A0003FF848BF082104D400F053F84CBF09219B
:1006B0000A211C3000F057FB002830D000F0A5BA0A
:1006C000F1EE10FA48BF012027D400F04CF848BFE3
:1006D000022022D400F042F848BF03201DD400F0CD
:1006E00033F848BF042018D400F029F848BF05208B
:1006F00013D400F01FF848BF06200ED400F015F800
:1007000048BF072009D400F00BF848BF082004D4E4
:1007100000F01FF84CBF09200A208870002002BD9D
:10072000B4EE410AF1EE10FA7047B4EE610AF1EE50
:1007300010FA7047B4EE420AF1EE10FA7047B4EEC8
:10074000620AF1EE10FA7047B4EE430AF1EE10FAC5
:100750007047B4EE600AF1EE10FA7047B4EE630A27
:10076000F1EE10FA7047B4EE440AF1EE10FA704759
:10077000DFED0B4A0A78012ADFED0A0A9FED0A1A1B
:10078000DFED0A1A9FED0A2ADFED0A2A9FED0A3AE9
:10079000DFED0A3A9FED0A4AB4EE640A70470000A2
:1007A00001004841012050450180CF4401405044A0
:1007B0000100D043010050430100D04201005042EB
:1007C0000100D041110C00081D0C000838B500F0E4
:1007D00021F8002408B100F015BA9DF800000628A1
:1007E00014D8DFE800F0060408130B130F007D2176
:1007F0000AE0FA2004E04FF4FA7105E04FF47A7051
:10080000286005E04FF4FA61296001E04FF0FF3401
:10081000204632BD0D4669461C3000F087BA80B5CF
:100820007E29B8BF01210FDBFB29B8BF00210BDBFC
:1008300040F2F5129142B8BF022105DB40F2E932E5
:100840009142B4BF042106211C3000F063FAB7E0E6
:100850001CB50C4669461C3000F0E2FA00B100E01D
:1008600002E04FF0FF3016BDBDF800002080BDF85B
:1008700002106180BDF80400A080002016BD3EB5C6
:1008800004460D4601A904F11C0000F0C9FA20B984
:1008900069462046FFF778FE00B100E002E04FF025
:1008A000FF303EBDBDF9040000F010F8C5ED000AB0
:1008B000BDF9060000F00AF8C5ED010ABDF908000F
:1008C00000F004F8C5ED020A00203EBDDDED000A8F
:1008D00000EE100AB8EEC00A60EE200AFDEEE00A53
:1008E000704704B501236A461C3000F0A3F967E0A5
:1008F0007CB500F09FF80026002836D100F075F88E
:10090000002832D1062104F11C0000F0C6FC0028AA
:100910002BD100F060F8002827D100F058F800F043
:1009200076FA002821D100F067F8F0B9032104F12C
:100930001C0000F0D4FCC0B915B1012D0BD015E09E
:1009400000F04EF888B99DF8050040F0100000F066
:1009500064F850B90CE000F054F830B99DF801008B
:1009600040F0100000F052F810B12DE04FF0FF36CB
:10097000304676BD1CB500F057F800281AD19DF816
:10098000050000F0EF0000F048F898B900F039F8E1
:1009900080B99DF8010000F0EF0000F037F848B989
:1009A00000F015F800F079FC20B900F010F800F024
:1009B00096FC08B14FF0FF3016BD1C3000F034F942
:1009C00008B14FF0FF3002BD4FF0FF3076BD00217F
:1009D00004F11C007047002104F11C0000F027BC4A
:1009E00001A904F11C0000F0AEBA0221204677E50F
:1009F000012104F11C007047002104F11C0000F0EB
:100A00003CBC694604F11C0000F06FBB8DF801008E
:100A100004F11C00009900F0C7BA8DF8050004F13C
:100A20001C00019900F023BA044601A904F11C003E
:100A300000F089BA04460D469FED0B0AFFF7C4BCCF
:100A400023DB793D23DBF93D23DB793E23DBF93ED4
:100A5000CDCCCC3F000048410000D04100005042C6
:100A60000000D042000050430000D04300405044FA
:100A70000080CF440020504500008C4000000C4115
:100A800000008C4100000C4200008C420020D04548
:100A90003EB505460C460421204600F0CBFC012360
:100AA0000DF102021B2100F0A9F838BB012301AAB5
:100AB0001C2100F0A3F808BB01230DF106021D2143
:100AC00000F09CF8D0B901230DF10302532100F08E
:100AD00095F898B901230DF101025E2100F08EF81E
:100AE00060B901236A465F2100F088F830B901231C
:100AF0000DF105020D2100F081F808B1FFF7CFBE1E
:100B00009DF80100C10603D49DF80000C10607D579
:100B10009DF80200810603D5206840F001002060A6
:100B20009DF80100810603D49DF80000810607D5D9
:100B30009DF80200010703D5206840F008002060FE
:100B40009DF80100010603D49DF80000010607D5B9
:100B50009DF80200C10603D5206840F080002060A7
:100B60009DF80100410603D49DF80000410607D519
:100B70009DF80400810603D5206840F00200206043
:100B80009DF80100010703D49DF80000010707D577
:100B90009DF80400C10603D5206840F004002060E1
:100BA0009DF80100410703D49DF80000410707D5D7
:100BB0009DF80600410603D5206840F04000206003
:100BC0009DF80500010607D59DF80300C10603D571
:100BD000206840F0100020609DF80100810703D4D8
:100BE0009DF80000810707D59DF80300810603D515
:100BF000206840F02000206000203EBD05F11C0070
:100C000000F012B84FF0FF3032BD4FF0FF3002BDA0
:100C100010B50446207B6469A04710BD10B504469A
:100C2000207B2469A04710BD10B50446A068646805
:100C3000A04710BD10B50446A0682468A04710BDA9
:100C400038B500F030F818B900F00CF900F024F8CD
:100C500032BD00001CB500F058F89DF8001089085E
:100C600001F0030103290BD8DFE801F002040608B4
:100C7000002106E0012104E0022102E0032100E05E
:100C80000421217016BD38B500F00DF818B900F038
:100C900073F800F001F832BD8DF8000001236A46B8
:100CA00010212046C6E70D46044601236A4610215E
:100CB000BAE700001CB500F028F89DF800100909FB
:100CC0000B291FD8DFE801F006080A0C0E101214D9
:100CD00016181A1C002116E0012114E0022112E06E
:100CE000032110E004210EE005210CE006210AE0BA
:100CF000072108E0082106E0092104E00A2102E0BA
:100D00000B2100E00C21217016BD0C4601236A4620
:100D1000102189E738B500F03DF828B99DF80000AA
:100D200065F3430000F02FF832BD00001CB500F061
:100D300060F89DF80010490801F0070106290FD856
:100D4000DFE801F00406080E0A0E0C00002108E09E
:100D5000012106E0022104E0042102E0062100E076
:100D60000721217016BD38B500F014F818B900F04D
:100D700003F800F008F832BD9DF8000000F00F0005
:100D800040EA051070478DF8000001236A461121E2
:100D900020464FE70D46044601236A46112143E7EA
:100DA0001CB500F026F89DF8001009090A291DD885
:100DB000DFE801F006080A0C0E10121416181A00CB
:100DC000002114E0012112E0022110E003210EE0D5
:100DD00004210CE005210AE0062108E0072106E0D5
:100DE000082104E0092102E00A2100E00B21217022
:100DF00016BD0C4601236A46112115E738B500F0EF
:100E00002BF818B900F09AFA00F01FF832BD38B587
:100E100000F01EFA18B900F005FA00F011FA32BD20
:100E20000A4606232221FFE60A4606232821FBE67E
:100E30000A4601230F21F7E638B500F00DF818B97E
:100E400000F026FA00F001F832BD8DF80000012311
:100E50006A4612212046EDE60D46044601236A4605
:100E60001221E1E69DF8000065F38300704773B539
:100E700082B00446012301AA0D21FFF7D5FE98B9DF
:100E800000F0FFF88DF80400012301AA0D2100F005
:100E90008AFA48B900F04BF8FFF7C6FE20B90123E3
:100EA0000DF1050200F03AFA9DF80D5050B900F02E
:100EB000D0F88DF8036000F03AF8FFF7BBFE08B9F0
:100EC00000F062FA9DF80E6078BB9DF8010066F3B1
:100ED000041000F050FA40BB00F02FF8FFF7A4FE1A
:100EE00018BB9DF8020000F07F0040EAC6108DF8A4
:100EF000020000F022F8FFF79DFEB0B900F0EFF815
:100F000015F0FC0F04BF9DF8051011F0FC0F19BF80
:100F10009DF8001041F080019DF8001001F07F0164
:100F20008DF8001008B900F0A1F904B070BD0123DC
:100F30000DF103025E212046704701230DF10202EC
:100F40001A212046704738B500F0E2F90D21FFF76D
:100F50006BFE002820D100F0E5F85E2100F0DFF9FB
:100F6000002819D100F01FF900F017F8A0B99DF87A
:100F70000200A978000960F30001A97001230DF1B6
:100F800003021A2100F0CBF9A9789DF8032001F0A3
:100F9000FE0141EAD211A97032BD01230DF1020216
:100FA00013212046FFF740BE73B582B004460123EB
:100FB0000DF103020E21FFF737FEA0B900F061F832
:100FC0008DF8030001230DF103020E2100F0EBF96F
:100FD00048B9012301AA5E2100F0A1F918B900F077
:100FE00078F8FFF721FE9DF80D5080BB00F031F836
:100FF0008DF8026000F06DF8FFF71CFE38BB00F0C2
:1010000093F90B2100F08BF908BB9DF80E009DF8B9
:10101000011060F300018DF8011000F0C7F9B0B9BC
:1010200000F05DF89DF8041011F0FC0F08BF15F0FA
:10103000FC0F19BF9DF8001041F080019DF80010D1
:1010400001F07F018DF8001008B900F00FF904B02D
:1010500070BD05F0010605F00202164305F004011B
:101060000E4305F00800064305F010031E4305F08B
:101070002002164305F040010E4305F080000643B0
:1010800070479DF80C009DF80C109DF80C2000F0A6
:10109000010001F0020108439DF80C1002F0040267
:1010A00010439DF80C2001F0080108439DF80C1036
:1010B00002F0100210439DF80C2001F020010843BB
:1010C0009DF80C1002F04002104301F0800108432B
:1010D000704701230DF102025F2120467047012372
:1010E0006A4658212046FFF79FBD38B500F010F939
:1010F0000E21FFF799FD002813D100F013F800F03E
:101100000DF900280DD100F04EF801230DF1020277
:101110000B2100F004F99DF80210AA7861F3000297
:10112000AA7032BD9DF80100297860F30001297092
:1011300001F0FD009DF8011001F002010843287044
:1011400000F0FB009DF8011001F004010843287035
:1011500000F0F7009DF8011001F008010843287025
:1011600000F0EF009DF8011001F010010843287015
:1011700000F0DF009DF8011001F020010843287005
:1011800000F0BF009DF8011001F0400108432870F5
:1011900000F07F009DF8011001F0800108432870E5
:1011A00001236A4670479DF80000697860F30001EA
:1011B000697001F0FD009DF8001001F00201084384
:1011C000687000F0FB009DF8001001F00401084376
:1011D000687000F0F7009DF8001001F00801084366
:1011E000687000F0EF009DF8001001F01001084356
:1011F000687000F0DF009DF8001001F02001084346
:10120000687000F0BF009DF8001001F04001084335
:10121000687000F07F009DF8001001F08001084325
:10122000687070479DF8000065F30410704738B58A
:1012300000F00EF818B900F012F800F001F832BD15
:101240008DF8000001236A465C212046FFF7F2BCBE
:101250000D46044601236A465C21FFF7E5BC9DF874
:10126000000065F3461070478DF8000001236A46C0
:1012700058212046FFF7DEBC000038B5FFF7E8FF35
:1012800028B99DF8000065F30300FFF7D9FF32BDD0
:101290009DF8000065F38200704738B500F030F823
:1012A000B0B900F078F800F023F888B900F011F830
:1012B000FFF7BAFC60B99DF8010000F07F006D09EE
:1012C00040EAC5108DF8010000F003F8FFF7B2FC0A
:1012D00032BD01230DF101025C212046704738B573
:1012E00000F00EF818B900F023F800F001F832BD54
:1012F0008DF8000001236A465D212046FFF79ABC65
:101300000D46044601236A465D21FFF78DBC0000AF
:101310000D46044601230DF1010270475F2120466E
:10132000FFF782BC8DF8010001230DF10102704727
:101330009DF8000065F30200704700009DF8000072
:1013400065F38610704738B500F00EF818B9FFF74E
:10135000EFFF00F001F832BD8DF8000001236A466E
:101360000A212046FFF766BC0D46044601236A4663
:101370000A21FFF759BC8DF8010001230DF101028C
:1013800013212046FFF756BC01230DF10102132162
:101390002046FFF749BC9DF8000000F0070040EA36
:1013A000C500704705212046FFF744BC01230DF11D
:1013B00001020B212046FFF73DBCF0B40246106845
:1013C00095681318506803EB5004C0071DD54D44B1
:1013D0001BE013F8017B05F8017B491EF9D1A0B190
:1013E000B60813F8011B06F00306032E08BF13F816
:1013F000016B01EB06214942801C294405D011F8FC
:10140000016B05F8016B401EF9D1A3420ED013F811
:10141000016B16F0030104BF13F8011BC91C30094E
:101420000F28DAD113F8010B0F30D6E7F0BC02F128
:101430000C007047002200F01DB830B4002513E006
:1014400050F8042BD30744BFA9F101039A18091FD0
:10145000042942F8045BFAD213468C0744BF158076
:101460009B1CC90748BF1D7050F8041B0029E7D119
:1014700030BC7047401810F0030308D0C91A1FD3BE
:10148000DB0748BF00F8012D28BF20F8022D13000C
:1014900030B414461546103928BF20E93C00FAD86C
:1014A000490728BF20E90C0048BF40F8042D8900F7
:1014B00028BF20F8022D48BF00F8012D30BC70472E
:1014C000C91818BF00F8012DCB0728BF00F8012D5F
:1014D00070470000F8B5040025D004F13C05697898
:1014E00021B900202870204600F038FC24216970C2
:1014F000206802685208520002602068016841F4C6
:10150000004101602068026822F40042026000F09D
:10151000ADFC01466068DFF87023904205D2DFF829
:10152000AC33994205D20120F2BDDFF8A403814219
:10153000F9D32068DFF89C334668B1FBF3F3B609B2
:1015400043EA861646602668376A6068904206D38A
:101550004FF4967043434FF47A70B3FBF0F35B1C87
:10156000BF0943EA87133362491E2368DE6967684F
:10157000974206D27F0000F043F8042913D20421D9
:1015800011E0A06820B907EB470700F039F805E043
:101590001920474300F034F841F4804108050CBF9E
:1015A000012141F40041DFF8300306400E43DE61C3
:1015B00022681368E169206A23F0C0030B430343E8
:1015C00013602268DFF81403936821690340E06820
:1015D0000B43034393602168CA68A3696069120AD8
:1015E000034343EA0222CA602068016841F0010116
:1015F000016000206860202169702063A870F2BD3E
:10160000B1FBF7F1491CC1F30B01704738B5040079
:1016100001D1012032BD04F13C052420687000F0A6
:10162000E4F900F073FC0020686068702063A87023
:10163000287032BD308D7262411E3185708D411E21
:10164000718570474146204600F000BB2DE9FC47FC
:1016500000F082F800F07AF855D100F06FF8002819
:1016600051D1387801284ED000F062F801D400F052
:1016700099F94146D6F800E00C9D0B98DDF828C09A
:10168000DEF8008028F40068CEF800804FF0210ECC
:1016900087F801E04FF0400887F802804FF0000E15
:1016A000C7F804E000F005F900F0B1F9002825D1F1
:1016B00008E0716A0A780261706A411C7162308DBB
:1016C000FFF7BAFF308D88B100F02DF888B900F02F
:1016D0001DF8308D411E3185708D421E7285306837
:1016E00042695307EED589B20029E2D100F016F81D
:1016F00030B17868042801D100F03BFA012003E002
:1017000000F030F800E00220BDE8F687706A326829
:1017100001781161706A411C716270472246294646
:10172000304600F0BDBA22462946304600F08EBA57
:101730000121397030680268D1077047009419237D
:101740000122DFF87C12304600F01CBA06F13C079B
:1017500004467878202870470646884691469A467F
:1017600000F0D6BB3068016841F4007101602020B0
:1017700078700021B9700020387070472DE9FC475F
:10178000FFF7EAFFFFF7E2FF72D1FFF7D7FF00286C
:101790006ED1387801286BD0FFF7CAFF01D400F072
:1017A00001F94146D6F800E00C9D0B98DDF828C001
:1017B000DEF8008028F40068CEF800804FF0220E9A
:1017C00087F801E04FF0400887F802804FF0000EE4
:1017D000C7F804E000F06DF800F05CF9002840D193
:1017E000308D18B1012804D100F0A7F800F04EF8B0
:1017F00017E0022807D1306800F09AF800F070F87E
:101800000020009001E000210091316800F0E7F82D
:1018100007E000F088F8002823D100F067F8FFF710
:1018200009FF308D002826D0042817D20128F0D0D7
:1018300000F024F80AD100F071F8002811D100F06E
:1018400083F8716A0870706A421CE8E700F066F875
:10185000002806D100F08DF818B9F0E700F063F821
:1018600008B1012005E000F048F8DAD50069E8E7A2
:101870000220BDE8F68700F015F8FAE70228DFF845
:10188000508100942B467047A1860100009031687A
:101890004A6900928B69009300980A6842F40072CA
:1018A0000A607047202078700021B97000203870DD
:1018B0007047C6F824C070855346708D30854A46FF
:1018C0003B48F062019400953046704780841E00CA
:1018D00000093D0040420F000030FFFF007CFFFF89
:1018E0003068026842F40062026070473068016943
:1018F000706A0170716A4A1C704730680169706AC9
:101900000170716A308D4A1C411E72623185708D82
:10191000411E7185306841694A077047002241467F
:10192000304600F02FB922462946304600F0D4B99F
:10193000016821F48061016070473068016821F41A
:1019400080610160002070473068016841F40071D7
:10195000016030680169706A0170716A308D4A1CDB
:10196000411E72623185708D411E71853268106929
:1019700070473068016821F4806101602B4630684F
:101980000169706A0170716A308D4A1C411E726271
:1019900031850022708D411E71850094414630468C
:1019A00000F0F0B8026842F00102026070470000E7
:1019B0000000FFFF3068016841F4807101607047EA
:1019C00002001000016841F480610160704700006E
:1019D0000400010090F83D007047006C70474A69B0
:1019E0000092896900910098704720680168490851
:1019F0004900016020467047434600224FF0011124
:101A00002046BFE04B46424651462046E2E02DE9E3
:101A1000F84304462068DDF82080099F8946016864
:101A200041F4807115461E4601600097FFF7E4FF00
:101A300040B120680168CA0544BF4FF400702064BB
:101A4000032025E0206809F0FE0101613B46424683
:101A50004B49FFF7DAFFA8B90090216800F07AF847
:101A6000FFF7F1FD40B9012E0ED02168280A086168
:101A70003A46FFF7E7FD38B1206C042802D1206810
:101A800000F078F8012003E02068EDB20561002045
:101A9000BDE8F2832DE9F84F05462868DDF8288077
:101AA0000B9F0C46FFF78EFF16462868016841F42D
:101AB00080719946016000F055F800284FF4007AD3
:101AC0002CD12968DFF8B8B004F0FE00086100F0FE
:101AD00038F8002832D10090296800F03BF800F077
:101AE00037F870B9B9F1010F05D02968300A0861DB
:101AF00000F02CF828B92868F6B2066100F026F844
:101B000030B1286C042819D1286800F033F815E0AA
:101B10002868FFF750FF00F025F838B12868016801
:101B2000CA0548BFC5F840A0032008E0286844F073
:101B30000104E4B2046100F004F800B10120BDE842
:101B4000F28F3B4642465946284643E03A464146D4
:101B500028467BE04A6900923A46896900914146ED
:101B6000009870470097434600224FF00111284625
:101B700008E03068016841F40071016070470000BE
:101B8000020001002DE9F041069F05460E469046F1
:101B90001C4631022868090E01290CBF4069806982
:101BA000304080B2B1B288420CBF012000204045D5
:101BB0000DD114F1010FECD000F0AAF9C01B844242
:101BC00001D3002CE5D100F05DF8012000E00020F9
:101BD000BDE8F081F8B505460E4614461F463102B1
:101BE000090E286801291BD14169314089B2B2B27E
:101BF00091421BD041694A051AD5FFF7BBFF6FF42C
:101C000080602A685061002105F13C002963202290
:101C100042708170426842F004024260017013E039
:101C20008169314089B2B2B29142E3D10020F2BD64
:101C300014F1010FD3D000F06BF9C01B844201D323
:101C4000002CCCD100F01EF80120F2BD70B5054685
:101C50000C46164628684169080611D4284600F04B
:101C600067F858B914F1010FF4D000F051F9801B56
:101C7000844201D3002CEDD100F004F8012070BDA6
:101C8000002070BD00202863202105F13C000022C7
:101C900041708270416841F02001416002707047DC
:101CA00070B505460C46164628684169480711D4A8
:101CB000284600F03DF858B914F1010FF4D000F0B7
:101CC00027F9801B844201D3002CEDD1FFF7DAFF06
:101CD000012070BD002070BD70B505460C4616464B
:101CE000286841694A0617D44169CA060BD400F036
:101CF0000FF9801B844201D3002CF1D100F00EF8C3
:101D000041F0200104E06FF01001416100F006F89D
:101D100041600270012070BD002070BD002028636A
:101D2000202105F13C00002241708270416870471B
:101D300001684A6953050FD56FF480624A6100213A
:101D400001633C30202242708170426842F00402FC
:101D5000426001700120704700207047704700000A
:101D60002DE9F04104000F4678D0494E306800F06C
:101D70000F00B84202D200F073F86FD12068454DD1
:101D8000810712D5400703D5A96841F4E051A96045
:101D90002078010703D5A86840F46040A860A968CE
:101DA000A06821F0F0010143A9602178C8074DD552
:101DB0006068012802D129688A0305E0022818BF5B
:101DC000032803D129688A0103D447E029688A07D8
:101DD00044D5A968890840EA8100A86000F098F815
:101DE0008046A868616800F00C00B0EB810F2DD030
:101DF00000F08EF8A0EB080041F289318842F0D360
:101E0000032021E02078410705D5AA68E06822F484
:101E1000E0520243AA602178080706D5A968206924
:101E200021F4604141EAC001A96000F03FF8AA68CE
:101E300019491A4BC2F30312895CC840186018484C
:101E4000006800F06BF80020BDE8F081306800F019
:101E50000F008742D6D200F003F8D3D00120F3E779
:101E60003770316801F00F01B94270470B480D4AD5
:101E7000006813680C49C3F3822206E00748094A48
:101E8000006813680849C3F34232895CC840704750
:101E9000003C024000380240B03D00081C02002017
:101EA000C001002008380240903E000830B5144CB4
:101EB000606800F00C00042802D0082802D01DE061
:101EC000104830BD226820680023410202F03F0222
:101ED00004D525680B49C5F3881003E020680A493A
:101EE000C0F38810A1FB000100F038F82168C1F3AD
:101EF0000141491C4900B0FBF1F030BD024830BD42
:101F00000438024000127A000024F40070470000F8
:101F100001484068704700BFB801002038B50D4D3A
:101F20000D4B2A7804464FF47A711868B1FBF2F22F
:101F3000B0FBF2F000F0D8F850B9102C08D2002213
:101F400021464FF0FF3000F0A7F8AC60002032BD12
:101F5000012032BDB80100201C020020D3BBD9B142
:101F6000B2F5803F5BD2022A1ED98C46B1FBF2F15A
:101F700002FB11C31B0443EA1043B3FBF2FC02FB58
:101F80001C3380B240EA0343B3FBF2F002FB103291
:101F900040EA0C4000237047022A05D98446B0FB72
:101FA000F2F002FB10C270474AB105D100F0010205
:101FB00049085FEA3000704700220023704700F0B4
:101FC000B3B80B000200002100207047F7D30022B5
:101FD00000237047904271EB030CF2D370B5B1FA55
:101FE00081F4B3FA83F52C1BA340C4F1200532FA27
:101FF00005F63343A2405FF00046E64002E05B088E
:102000005FEA3202841A71EB030524BF2046294699
:102010007641F4D302000B003000002170BD70B592
:10202000B1FA81F4B2FA82F5C4F120046419B4F172
:102030002006DAD3B2405FF00044F440002502E00D
:1020400052085FEA3303C61A71EB020E24BF304612
:10205000714664416D41F3D302000B00200029005A
:1020600070BD00000901020002D429488154704764
:10207000284B02F00F021A4402F8041C7047264B4A
:1020800019684FF6FF020002114000F4E0600843B7
:10209000224908431860704738B51F4B1C68C4F3C9
:1020A0000223C3F10704052C28BF04241D1D072D9E
:1020B00034BF0023DB1E012505FA04F4641E214011
:1020C000994005FA03F35B1E1A401143BDE8344002
:1020D000C8E7010007D4012200F01F01104B8A401D
:1020E000400943F82020704710B5401EB0F1807FB2
:1020F00001D3012010BD0B4C60600F214FF0FF3069
:10210000FFF7B0FF0021A16007202060002010BD74
:1021100000E400E018ED00E00CED00E00000FA053E
:1021200000E100E010E000E07047000038B5044630
:1021300000256CB100F06EFA0FF24171A0612162CE
:1021400064620FF25170E061206808B1804718B1F5
:102150004FF0FF35284632BDA068012804BF94F82F
:1021600028000028F6D101222321204600F02BFA76
:102170000028EFD04FF0FF3032BD38B504460121C2
:1021800004F11C0000F03EFC90B9002104F11C0099
:1021900000F0E5FC60B904F128050520A87000F006
:1021A00055F828B9002104F11C0000F00AFC00B128
:1021B000E0E701202870002032BD10B5044600F091
:1021C00032F800B12CE004F1280000218170017088
:1021D000002010BD80B51C3000F075FC49E30120E3
:1021E0000870002210204A708A70CA704A608860A5
:1021F000CA600020DFF8802508614A618861704765
:1022000010B500F129042178012907D061781C302C
:1022100000F08FFB00B103E001202070002010BD12
:102220004FF0FF3010BD10B5044694F8290060B19E
:1022300004F12A0104F11C0000F094FB10B900F035
:1022400005F800B1ECE784F8290010BD002104F185
:102250001C0000F06EBB00007CB500F0A1F800246B
:10226000002848D19DF8010018B102282DD017D3BD
:1022700042E000F045F800283DD100F02DF93AD8B1
:10228000DFE800F00B080502DFF8F01431E0DFF8BA
:10229000F0042AE0DFF8EC142BE0DFF8EC0424E093
:1022A00000F02EF8002826D100F016F923D8DFE838
:1022B00000F002090603EAE7DFF8D01419E0DFF8BE
:1022C000D00412E0DFF8CC1413E000F019F890B954
:1022D00000F002F90FD8DFE800F0020A0603EEE78B
:1022E000DFF8B41405E0DFF8B404286006E0DFF896
:1022F000B014296002E05BE04FF0FF34204676BD69
:10230000694606F11C0000F067BB00007CB500F0D8
:1023100047F8002428B9694606F11C0000F022FBAA
:1023200000B145E09DF801109DF8000002290ED192
:10233000092831D8DFE800F01416191C1F222528BF
:102340000508DFF8600425E0DFF85C141EE00928CA
:1023500022D8DFE800F005070A0D10131619211D19
:102360002C601BE04FF07E5110E0DFF8400411E0DC
:10237000DFF83C140AE0DFF83C040BE0DFF8381427
:1023800004E0DFF8380405E0DFF8EC13296005E02D
:10239000DFF82C04286001E04FF0FF34204676BDC2
:1023A00006460D460DF1010106F11C0000F0A6BA2B
:1023B0004FF0FF3076BD000080B500F129019FEDA0
:1023C000333A0A78012ADFED320A9FED321ADFED47
:1023D000321A9FEDB82ADFEDB82AB4EE430A2CD1A9
:1023E000F1EE10FA48BF012120D4B4EE620AF1EEFA
:1023F00010FA48BF022119D4B4EE420AF1EE10FAE5
:1024000048BF032112D4B4EE610AF1EE10FA48BFBE
:1024100004210BD4B4EE410AF1EE10FA48BF0521B5
:1024200004D400F0D1F94CBF062107211C3000F084
:1024300080FA50B34FF0FF3002BDF1EE10FA48BF02
:10244000012020D4B4EE620AF1EE10FA48BF022057
:1024500019D4B4EE420AF1EE10FA48BF032012D4A8
:10246000B4EE610AF1EE10FA48BF04200BD4B4EECA
:10247000410AF1EE10FA48BF052004D400F0A4F997
:102480004CBF062007204870002002BD0100803F9D
:10249000010048430100C8420100484238B50D46DA
:1024A00069461C3000F098FA002400B162E600F0A2
:1024B00013F80DD8DFE800F002040609022102E05B
:1024C000042003E00821296004E01020286001E0D6
:1024D0004FF0FF34204632BD9DF8000003287047BE
:1024E00080B50329B8BF002107DB0529B8BF01214A
:1024F00003DB0929B4BF022103211C3000F061FA7B
:10250000B7E17FB505460C46694605F11C0000F0B1
:10251000F5F998B99DF8000018B102280BD008D33E
:102520000CE0102601A905F11C0000F074FA40B17E
:1025300004E04026F6E74FF48076F3E74FF0FF30F3
:102540000FE0BDF9040090FBF6F02080BDF9061005
:1025500091FBF6F16180BDF9080090FBF6F0A080D8
:10256000002004B070BD3EB500220D460092044626
:1025700001A9FFF7C6FF20B969462046FFF76CFEA8
:1025800010B14FF0FF303EBDBDF9040000F010F86F
:10259000C5ED000ABDF9060000F00AF8C5ED010A14
:1025A000BDF9080000F004F8C5ED020A00203EBDA8
:1025B000DDED000A00EE100AB8EEC00A60EE200A57
:1025C000FDEEE00A704704B54EE138B5044600253B
:1025D0006CB100F01FF80FF2D521A0612162646296
:1025E0000FF2E520E061206808B1804718B14FF094
:1025F000FF35284632BDA0680028FAD094F828009C
:102600000028F6D1012104F11C0000F0B4FA0028E2
:10261000EFD0AFE5086820604A6862608868A06013
:102620000A7B2273086920614A6962618869704780
:1026300010B50446012104F11C0000F037FA70B90E
:1026400000F013F858B9032104F11C0000F0F2F96E
:1026500028B9002104F11C0000F04FFA00B1DFE5B9
:10266000012084F82800002010BD022104F11C0084
:1026700000F0D5B910B5044600F030F800B1CFE550
:1026800084F8280010BD80B51C3000F032FAF0E06C
:10269000002008704870C870486088600861322265
:1026A000CA6001234448886100228B704A6100207F
:1026B000704700000100C8410100204110B50446E8
:1026C00094F82900012807D00021FFF7CFFF00B1BF
:1026D000A6E5012084F82900002010BD10B50446AD
:1026E00094F8290028B1FFF7C0FF00B198E584F8FD
:1026F000290010BD4FF07F506CE0000038B50D464A
:1027000069461C3000F0A1F9002400B132E5FFF762
:10271000E3FE0DD8DFE800F002040609234902E0D9
:10272000284803E02349296004E02348286001E0A9
:102730004FF0FF34204632BDDFED0C0A80B500F0CB
:1027400043F848BF00210DD4DFED090A00F03CF842
:1027500048BF012106D4DFED070A00F035F84CBF71
:10276000022103211C3000F065F982E001002041C4
:102770000100A041010048420000C8431F853B41C1
:102780009A9979409A99F93F48E17A3F9A993B4260
:102790007B147A41713DFA407B943B437B147A422F
:1027A0007B14FA410080CA440000A8450000204183
:1027B0000000C841000048420000C84200004843F1
:1027C0000000A8440000A041B4EE600AF1EE10FA47
:1027D00070473220086000207047002070471CB509
:1027E00000F03AF800B13CE0BDF800002080BDF8F0
:1027F00002106180BDF80400A080002016BD1CB549
:1028000000F02AF800B12CE0BDF9000000EE900ABB
:10281000B7EE080AF8EEE00A60EE800AFDEEE00A84
:10282000C4ED000ABDF9021001EE101AB8EEC11A8B
:1028300021EE001ABDEEC11A84ED011ABDF90400A3
:1028400000EE900AF8EEE00A20EE800ABDEEC00A23
:1028500084ED020A002016BD0C4669461C3000F0CB
:102860002EB94FF0FF3016BD01236A461C3000F030
:102870003FF808B14FF0FF3002BD000070B5856829
:10288000047B4669002D0CBF41F0800141F04001FE
:1028900016E0000070B58568047B0669002D0CBF4A
:1028A00041F0800141F0400118E0000070B58568FA
:1028B000047B4669002D0CBF41F0800141F04001CE
:1028C0002046B04770BD000070B58568047B06697E
:1028D000002D0CBF41F0800141F040012046B0477F
:1028E00070BD000010B50446A0686468A04710BD24
:1028F00010B50446A0682468A04710BD38B500F0A4
:102900002AF830B901230DF1010223212046FFF7F7
:10291000E9FF9DF80010C1F3C00109B1022106E0F2
:102920009DF80110C1F3C002511E8941C90F2970E1
:1029300032BD38B500F00FF860B99DF8000000F026
:102940000F0040EA05108DF8000001236A4620219F
:1029500000F00EF932BD0D46044601236A462021DF
:10296000C0E700001CB500F0D3F82021FFF7BAFF44
:102970009DF800100909491E082918D8DFE801F060
:102980000507090B0D0F11131500012110E002219D
:102990000EE003210CE004210AE0052108E00621F5
:1029A00006E0072104E0082102E0092100E00021FF
:1029B000217016BD9DF8000000F03F0040EA851030
:1029C000704738B500F08AF828B99DF8000065F323
:1029D000051000F07CF832BD1CB500F085F800F061
:1029E0000AF806D004D3032903D038BF022100D34C
:1029F0000021217016BD9DF80010090901F00301A6
:102A00000129704738B500F069F818B900F035F8B9
:102A100000F05DF832BD0A460623282162E738B58A
:102A200000F039F828B99DF8000065F3010000F0C6
:102A30002BF832BD38B500F02EF828B99DF800000B
:102A400065F3830000F020F832BD1CB500F010F8EB
:102A50009DF80010890801F00301012906D004D374
:102A6000032903D038BF022100D30021217016BDF5
:102A70000C4601236A46602134E79DF8000000F00F
:102A80007F0040EAC51070478DF8000001236A46B8
:102A9000602120462CE70D46044601236A4660214A
:102AA00020E79DF8000065F30410704738B500F08A
:102AB0003BF818B9FFF7F5FF00F02EF832BD0A46D3
:102AC000062368210EE70A4601230F210AE78DF845
:102AD000000001236A462321204609E70D460446EB
:102AE00001236A462321FDE60C4601236A46232181
:102AF000F8E60A4601234F21F4E638B500F014F851
:102B000028B99DF8000065F3410000F005F832BDDA
:102B10000C4601236A4670478DF8000001236A467F
:102B200062212046FFF7E4BE0D46044601236A46B3
:102B30006221FFF7D7BE9DF8000065F3451070478E
:102B40008DF8000001236A462E212046FFF7D0BEF3
:102B50000D46044601236A462E21FFF7C3BE38B551
:102B6000FFF7F6FF18B9FFF725FFFFF7E9FF32BDC2
:102B70002046FFF7BDBE38B5FFF7D6FF18B9FFF7FF
:102B8000DAFFFFF7C9FF32BD2DE9F843040016D084
:102B90002078DFF80863C10713D5B06800F00C0097
:102BA000042807D0B06800F00C0008283ED17068F7
:102BB00041023BD53068810303D56068002800F0EE
:102BC000FF802078B64F810719D5B06810F00C0F40
:102BD00007D0B06800F00C0008285CD17068410292
:102BE00059D43068810703D5E068012840F0E880B7
:102BF0003168206921F0F80141EAC0013160217893
:102C000008076CD56069A749002862D001220A60D4
:102C1000FFF77EF90546706F810700F1D380FFF75B
:102C200077F9401B0228F6D9032034E16068B0F53B
:102C3000803F04D1306840F48030306011E0B0F55E
:102C4000A02F306806D140F480203060316841F414
:102C5000803105E020F480303060316821F480213B
:102C60003160606858B1FFF753F905463068810359
:102C7000A7D4FFF74DF9401B6528F7D3D4E7FFF73A
:102C800047F90546306881039BD5FFF741F9401BA2
:102C90006528F7D3C8E7E06870B101213960FFF714
:102CA00037F905463068810700F1B880FFF730F941
:102CB000401B0228F6D9B7E73860FFF729F9054627
:102CC000316888079BD5FFF723F9401B0228F7D905
:102CD000AAE70860FFF71CF90546706F810771D5F8
:102CE000FFF716F9401B0228F7D99DE70528306F3A
:102CF00006D140F004003067306F40F0010005E07D
:102D0000400840003067306F20F00400306741F227
:102D10008938A06868B1FFF7FBF88146306F8107FA
:102D200000F18980FFF7F4F8A0EB09004045F5D3E6
:102D30007AE7FFF7EDF88146306F81077BD5FFF723
:102D4000E7F8A0EB09004045F6D36DE7FFF7E0F8A0
:102D5000401B022840F2828066E7FFF7D9F8001B8B
:102D6000022840F293805FE700203866FFF7D0F832
:102D700004463068810140F18D80FFF7C9F8001BDF
:102D80000228F6D950E701281AD07068E26900F4E9
:102D90008001914202BF00F03F01226A91420FD1AF
:102DA00047F6C071626A0140914202BF00F44031AF
:102DB000A26A914202BF00F07060E16A884269D065
:102DC000012068E0207841073AD5306C0025C10029
:102DD0000AD400950125316C41F080513164306C8A
:102DE00000F0805000900098DFF8BC80D8F8000018
:102DF000C1051BD4D8F8000040F48070C8F800006A
:102E0000FFF786F88146D8F80000C1050ED4FFF719
:102E10007FF8A0EB09000228F5D905E730682169A1
:102E200020F0F80040EAC1003060E8E6A068012820
:102E30007FF45CAF60E71DB1306C20F080503064EF
:102E4000A06938B3B16801F00C0108299BD00228B1
:102E50008AD100203866FFF75BF8054630688101AB
:102E60003FF574AFE269206A616A0243A06A4008D4
:102E700042EA8112401E42EA0042E06A42EA0062EF
:102E8000726001213966FFF743F80446306881011A
:102E90007FF563AF0020BDE8F28300BF0038024039
:102EA00000004742800E4742007000402DE9F8477D
:102EB00005004FF0000887B089464FF0010A4746E9
:102EC000DFF8A46203D0022D49D041D358E0484630
:102ED00000F059F8002846D1B06B726C6946D3688F
:102EE0009847002849D19DF8000001289DF801006D
:102EF00008BF022701289DF8020008BF47F001071C
:102F0000012808BF47F0040703240AEA09005045D6
:102F100004BF0AEA070050450FD10C2106F1240234
:102F20006943711852F82A3051F823100A6806F1E3
:102F3000380050F82500904738B9641E4FEA4A0A15
:102F4000E3D1404608B0BDE8F0876FF00400F9E730
:102F5000484600F06DF830B9F06BB26CBEE74846F9
:102F600000F0B5F810B14FF0FF30EBE7F26C306CC9
:102F7000D368694698470028B5D06FF00600E1E7AE
:102F80006FF00108DDE7D721F0B500F093F88FB0BE
:102F900000F093F8039506F15C007449744A0591BA
:102FA000079201A9FDF7F6F850B9694606F15C00F1
:102FB000FDF761F9002804BF9DF800006A2802D0DF
:102FC0006FF0060531E008A906F15C00FDF75AF93B
:102FD0009DF821009DF8202040EA42019DF8222022
:102FE00041EA82013165E20706F15C01B1636FF0ED
:102FF00004076049716408D5012806D15E48306035
:1030000006F15C000968884770B9A0070AD59DF8E9
:103010002010012906D15948716C70600A68B06BA4
:10302000904708B9600700D53D4628460FB0F0BD6F
:103030002DE9F841332100F03DF88FB000F03DF864
:1030400006F18C0700F086F8FFF770F848B969467A
:103050003846FFF7BFF8002804BF9DF8000033286A
:1030600002D06FF0060524E008A93846FFF7B7F84C
:103070009DF821009DF82010F76340EA41009DF87B
:10308000221040EA81007065A0073D49B1646FF0ED
:10309000040809D59DF82020012A05D1394830615E
:1030A00038460968884718B9E00701D4610700D598
:1030B00045464BE0344A2C4E704704468DF81010BC
:1030C000019200253149324A0291069270472DE95A
:1030D000F8413D21FFF7EEFF8FB0FFF7EEFF06F15D
:1030E000B80700F037F8FFF770FA48B96946384674
:1030F000FFF7C9FA002804BF9DF80000402802D05D
:103100006FF0060522E008A93846FFF7C1FA9DF8DE
:1031100021109DF820209DF82200376441EA4201E9
:1031200041EA8001B16562071A49F1646FF0040851
:1031300007D5012805D11848306238460968884704
:1031400018B9A00701D4E10700D54546284610B0BC
:10315000BDE8F0810549064A05910792039501A94A
:10316000384670470000000014000020A73C00080B
:103170001D3D000860010020940100207001002026
:10318000F800002008010020FD3B0008733C000807
:10319000C73C00082C0100203C0100202DE9F84F1D
:1031A0000D464FF00008A3490F22012304462E6864
:1031B00003FA08F000EA0609814540F0B1804FEAC1
:1031C000480C032606FA0CF66FEA060E6E68012E0E
:1031D00018BF022E03D0112E18BF122E11D1A668CF
:1031E000EF680EEA060607FA0CF73E43A66066682B
:1031F00026EA00006E68C6F3001606FA08F63043A9
:103200006060E068AE680EEA000006FA0CF6304333
:10321000E0604FEA88006E68022E18BF122E12D1AD
:103220004FEAD80604EB860600F01C07D6F820A06B
:1032300002FA07FB2AEA0B0AD5F810B00BFA07F7D7
:1032400047EA0A07376226680EEA06072E7906F073
:10325000030606FA0CF63E4326606E68F6005FD55C
:10326000002600964FEA980C0E68DFF8CCE146F491
:1032700080460E6000F00C000E6806F48046009652
:10328000009E5EF82C7002FA00F627EA06066B4FE5
:10329000BC4208BF002713D0694FBC4208BF0127BA
:1032A0000ED0684FBC4208BF022709D0664FBC420F
:1032B00008BF032704D0654FBC420CBF0427072773
:1032C00007FA00F030434EF82C006FEA090C604812
:1032D00006680CEA060E6E68F70348BF49EA0E0E50
:1032E000C0F800E046680CEA060E6E68B70348BFF7
:1032F00049EA0E0EC0F804E086680CEA060E6E6815
:10330000F70248BF49EA0E0EC0F808E0C6680CEAAA
:10331000060E6E68B60248BF49EA0E0EC0F80CE011
:1033200008F10108B8F10F0F7FF641AFBDE8F18F4A
:103330002DE9F84F03460D46002445483E490095C7
:103340000122009E02FA04F909EA06064E4559D107
:103350004FEA940C4FEA840A51F82C50374F0AF088
:103360000C0E4FF00F0B0BFA0EF8BB4208EA0505E6
:1033700008BF002713D0324FBB4208BF01270ED031
:10338000304FBB4208BF022709D02F4FBB4208BFB6
:10339000032704D02D4FBB420CBF0427072707FA91
:1033A0000EF7BD4212D10568F64335400560456809
:1033B00035404560856835408560C5682E40C660EB
:1033C00051F82C5025EA080541F82C5003256600D9
:1033D000B540EE431D6835401D600AF01C0AE50843
:1033E00003EB85050BFA0AFA2F6A27EA0A072F6210
:1033F000DD683540DD605D6825EA09055D609D6832
:1034000035409D60641C0F2C9BD9BDE8F18F00698D
:10341000084018BF0120C0B2704702B90904816199
:1034200070470C4A136803421CBF106000F014B8C8
:103430007047000044380240083801400000024054
:103440000004024000080240000C0240001002404C
:10345000003C0140143C01407047000070B586B04C
:10346000044600200090694E6948016841F001015E
:10347000016000686BA100F001000090009831F835
:10348000145001950121029103910221049101A997
:1034900056F82400FFF782FE00F004F8002006B082
:1034A00070BD000056F8240000222946FFF7B5BF82
:1034B00010B500F00BF8012203E010B500F006F89B
:1034C0000022FFF7AAFF002010BD000055A34F4CBB
:1034D00033F8101054F8200070470000F8B586B09B
:1034E000044600254A484B4E0095026842F004020B
:1034F000026000684CA200F004000090009832F8CE
:103500001430019302220392049256F8240021B948
:10351000029501A9FFF742FE27E03F4A029201A966
:10352000FFF73CFE44A151F82410301D00EBC40607
:10353000304600F08AF86FF0030738B93CA050F825
:1035400024200021304600F079F808B13D460CE017
:103550000FF2D80037A1065751F824100022304648
:10356000FEF79AFD3046FEF7B4FD284607B0F0BDE1
:1035700080B500BF2CA2274B32F8101053F8200062
:10358000FFF745FF401E8041C00F02BD002000F044
:10359000D9B870B50024022886B028BF6FF00104A6
:1035A00030D285011D4E06EB800006F1080241680D
:1035B0001748515100940222016941F40031016120
:1035C000016901F400310091009900940C21036815
:1035D00043F0010303600723006800F0010000903E
:1035E00000980F480191029205930394049401A955
:1035F000FFF7D4FD06F10801481900F0A9F808B159
:103600006FF00304204606B070BD0000C401002026
:1036100030380240C801002000001110D401002001
:1036200000000240200000000020000028000000F0
:103630008D3500080F0000000D0000060346002035
:1036400009B95A6070470120704708B901207047D6
:103650000160002070470178012201F01F0102FA89
:1036600001F1054A13680B4204D01160406800283C
:1036700018BF004770470000143C014080B500208F
:10368000FFF7ECFE01210020FFF728FF0020FFF7E5
:103690006FFF401E80412D49C00F886000F06EF81A
:1036A0000020FFF776FFBDE8044003210020FFF76C
:1036B000FDBB1CB5254C6178A1B1322000F07EF82D
:1036C0000020FFF755FFA1688842F9D0322000F0B2
:1036D00075F8002161702079002819BF0121E1707F
:1036E0000122A2702078A0B100212170002069463B
:1036F00000F099F808B100F079F90098C10708D5F1
:103700000020FFF7D5FE642000F058F80020FFF7F6
:10371000D4FEA07850B10021002000F066F808B176
:1037200000F064F9012000212071A170E07840B11F
:10373000002000F065F808B100F058F90020207171
:10374000E07013BD01490120487070470800002057
:1037500010B5094901604FF4E1320C2100244260A8
:1037600041618460C46004618461C46100F040F917
:1037700000B10124204610BD0044004010B50C4C9F
:103780000C492046FFF761FF0FF21D020021204681
:10379000FFF754FF002200211720FEF77DFCBDE853
:1037A00010401720FEF795BC0349012008707047B0
:1037B00000000020050000060800002038B504467F
:1037C000FEF7A6FB14F1010F054602D0044801786C
:1037D0006418FEF79DFB401BA042FAD331BD00BF29
:1037E000B80100206FF0040002BD80B528B900F0D8
:1037F00016F8FDF77DF810B1F4E76FF0010002BD97
:1038000080B528B900F007F8FDF7B4F810B1E9E782
:103810006FF0010002BDDFF8241008687047DFF880
:103820001C201068704780B528B9FFF7F8FFFDF736
:103830002FF910B1D6E76FF0010002BD4C00002057
:1038400080B500F085F900F007F800F04FF8FFF7B9
:1038500015FFFFF72EFFFCE780B592B006A83021D8
:1038600000F090F901A8142100F08CF900200090DC
:103870005348016841F0805101600021006800F068
:103880008050009000984F4800910221026822F475
:10389000404242F4004202600122006800F44040CD
:1038A000009000980691099210210A9102220021AD
:1038B0000C920D9110224FF4A8710E920F910422D8
:1038C00007211092119106A8FFF75EF902210291DB
:1038D0000F204FF480510190002204910392059231
:1038E000022101A8FEF73CFA13B000BD10B586B066
:1038F00001A8142100F046F900243348009401681F
:10390000324C41F004010160026802F004020092AE
:10391000002200990092036843F08003036001686D
:1039200001F08001009100990092036843F00103C7
:103930000360016801F001010091009900922021CB
:10394000036843F002030360006800F00200009087
:1039500000982046FFF761FD4FF400501C4900F02D
:103960003FF81C48FFF71AFC202101910122002199
:1039700003910491029201A92046FFF70FFC302029
:10398000154900F02DF81548FFF708FC002200212A
:103990000A20FEF781FB0A20FEF79BFB0022002194
:1039A0001720FEF779FB1720FEF793FB002200217A
:1039B0002820FEF771FB2820FEF78BFB06B010BD18
:1039C00040380240007000403038024000000240A1
:1039D0000000211000080240000011100004024005
:1039E000019002910022039201A9704770470000E4
:1039F00038B5040001D1012032BD00F021F808B92A
:103A000000F022F800F012F800F023F8FFE741611F
:103A100000F001F832BD2068C16841F40051C16076
:103A20000020686020216970A970704724206870A8
:103A30002068C16821F40051C160204600F013B82D
:103A400004F138056878704700212970204600F09D
:103A50007DB82068016921F49041016120684169C5
:103A600021F02A017047D0B50646642732681169F3
:103A7000F06821F44051014311611924D3682D48A5
:103A8000B168034030690B4371690343F0690B432C
:103A90000343D3605169B06921F44071014351611E
:103AA000F36925482549B3F5004F1FD18A4218BF55
:103AB000824202D1FEF7E2F901E0FEF7D7F90246B1
:103AC000A4FB02017268D30F5200FEF747FA00F020
:103AD00037F8FF0032376420B7FBF0F0420002F401
:103AE000F87202EB011200F007001DE08A4218BFD5
:103AF000824202D1FEF7C2F901E0FEF7B7F90246B1
:103B0000A4FB02017268930F9200FEF727FA00F0FF
:103B100017F83F0132376420B7FBF0F000F0F002F5
:103B200002EB011200F00F00316880188860D0BDF0
:103B300000000000F369FFFF001401400010014085
:103B40006421B0FBF1F107FB1107704770470000DB
:103B500080B50B48016841F400710160026842F4CD
:103B600080620260016841F4807101600320FEF709
:103B700086FA0020FEF7D2F900F008F8002002BD16
:103B8000003C0240002200F01FB8000082B000207C
:103B9000009000220B48416841F480414160416837
:103BA00001F48041009100990092036843F0805332
:103BB0000360006800F0805000900098072002B079
:103BC000FEF75DBA4038024000B500BF13009646CC
:103BD0009446103928BFA0E80C50FAD85FEA417C1F
:103BE00028BF0CC048BF40F8042BC90728BF20F8E5
:103BF000022B48BF00F8012B00BD0000424870B501
:103C0000424D286086B0686D411C0024696568BB20
:103C10002846FDF7DFFE48BB3D4E0090122231687A
:103C200041F0020131604FF44071306800F0020051
:103C300000900098374801910292012103910322DC
:103C400004210591049201A9FFF7A8FA00943169B3
:103C500041F400113161306900F4001000900098C7
:103C6000284600F05DF808B16FF00704204606B062
:103C700070BD38B5254D686D002490B1401E686553
:103C80000FD12548026822F4001202604FF44071FF
:103C90002048FFF74DFB2846FDF7B8FC08B16FF050
:103CA0000704204632BD7FB500F01FF8FDF7CEFCBB
:103CB000002438B100F024F804280CBF6FF065042C
:103CC0006FF003040EE07FB500F00FF8FDF756FD2E
:103CD000002438B100F014F804280CBF6FF065041C
:103CE0006FF00304204604B070BD009201930A46B1
:103CF000064D4FF480560146029601232846704730
:103D00002846FDF76ABE0000005400402002002053
:103D1000303802400004024040380240FEF7F8B854
:103D20000A490B4A10B50160426000244FF48042FA
:103D300002618460C46044618461C4610462FDF70F
:103D4000C9FB00B10124204610BD00BF0054004053
:103D5000801A06007047FEE7FEE7FEE7FEE77047C1
:103D60007047704700F00EB81020FFF75ABB0348A9
:103D7000FFF771BC0248FFF76EBC00000000002096
:103D8000CC0100200248416802788A1842607047DE
:103D9000B80100200448054A016841F4700101603F
:103DA0004FF000601060704788ED00E008ED00E023
:103DB00000000000000000000102030406070809DB
:103DC00010B5074979441831064C7C44163404E098
:103DD0000A68081D114488470146A142F8D110BD68
:103DE0002C000000480000004EF68851CEF2000181
:103DF000086840F470000860BFF34F8FBFF36F8F07
:103E00004FF00070E1EE100A704700002FD6FFFF60
:103E10005800000020020020000000009FD5FFFF96
:103E20004C010000B40100000000002000F00DF87B
:103E3000002801D0FFF7C4FFAFF300800020AFF3EC
:103E40000080FFF7FDFC00F002F80120704700F051
:103E500001B800000746384600F002F8FBE7000012
:103E600080B5AFF30080024A11001820ABBEFBE71B
:103E7000260002000148804701480047953D0008A0
:103E8000853E0008AFF30080FFF7AEFFFFF7CEFFDF
:103E90000000000001020304FFF7FEBFFFF7FEBFB2
:103EA000FFF7FEBFFFF7FEBFFFF7FEBFFFF7FEBF46
:103EB000FFF7FEBFFFF7FEBFFFF7FEBFFFF7FEBF36
:103EC000FFF7FEBFFFF7FEBFFFF7FEBFFFF7FEBF26
:103ED000FFF7FEBFFFF7FEBFFFF7FEBFFFF7FEBF16
:103EE000FFF7FEBFFFF7FEBFFFF7FEBFFFF7FEBF06
:103EF000FFF7FEBFFFF7FEBFFFF7FEBFFFF7FEBFF6
:103F0000FFF7FEBFFFF7FEBFFFF7FEBFFFF7FEBFE5
:103F1000FFF7FEBFFFF7FEBFFFF7FEBFFFF7FEBFD5
:103F2000FFF7FEBFFFF7FEBFFFF7FEBFFFF7FEBFC5
:103F3000FFF7FEBFFFF7FEBFFFF7FEBFFFF7FEBFB5
:103F4000FFF7FEBFFFF7FEBFFFF7FEBFFFF7FEBFA5
:103F5000FFF7FEBFFFF7FEBFFFF7FEBFFFF7FEBF95
:103F6000FFF7FEBFFFF7FEBFFFF7FEBF3003050000
:103F700000060001F32301000121362104F39D0214
:103F8000000110037B210008BB0412D50412DF04DA
:103F9000100301220008270412590410030D230006
:103FA00008B90410039D240008E1041003672500EC
:103FB00008030410033126000875041287041291C7
:103FC0000412BD0412DD0412F50412FD04100339BD
:103FD000270008D30412DB0412FF0412DF041007C9
:103FE000F301000853020008770412850412AF049D
:103FF00012D504100305030008490412C904139DD7
:1040000004681104131505681104123904125904C7
:1040100012890412D504100B4D060008CD070008C4
:104020001F0800087F0412510465AE3210087405A1
:104030000240000802400DCC1101F4013044004060
:0640400093000124F400CE
:0400000508003E852C
:00000001FF
