:020000040800F2
:10000000E888002045770008197700081B7700086A
:10001000697700086D77000871770008000000001C
:1000200000000000000000000000000075770008DC
:100030001D77000800000000797700081F7700088E
:100040007D770008817700088577000889770008A8
:100050008D77000891770008957700089977000858
:100060009D770008A1770008A5770008A977000808
:10007000AD770008B1770008B5770008B9770008B8
:10008000BD770008C1770008C5770008C977000868
:10009000CD770008D1770008D5770008D977000818
:1000A000DD770008E1770008E5770008E9770008C8
:1000B000ED77000823770008F1770008F57700084E
:1000C000F9770008FD770008017800080578000836
:1000D000097800080D7800081178000815780008E4
:1000E0002D770008197800081D780008217800088D
:1000F00025780008297800082D7800083178000854
:1001000035780008397800083D7800084178000803
:1001100045780008497800084D78000851780008B3
:1001200055780008597800085D7800086178000863
:1001300065780008697800086D7800087178000813
:1001400075780008797800087D78000881780008C3
:1001500085780008897800088D7800089178000873
:1001600095780008997800089D780008A178000823
:10017000A5780008A9780008AD7800080000000004
:10018000B1780008B578000830B504460025002C89
:1001900081B02AD0086820604A6862608868A060E0
:1001A0000A7B2273086920614A6962618869DFF805
:1001B000F019A06121626462DFF8E809E06120685B
:1001C00098B1804788B9A068022804BF94F8280035
:1001D00000280CD10C218DF8001001236A46122151
:1001E00004F11C0000F00AFD08B14FF0FF3528466D
:1001F00001B030BD10B50446012104F11C0001F02E
:10020000AAF8002838D1012104F11C0001F08AF875
:10021000002831D1012104F11C0001F09CF80028D4
:100220002AD1012104F11C0001F02DF8002823D16E
:10023000002104F11C0001F0A7F8E8B9042084F8BB
:100240002B00002104F11C0000F012FDA0B90021D8
:1002500004F11C0000F0D8FC70B9042084F82C00D4
:10026000002104F11C0000F0B1FE28B90C2104F1BA
:100270001C0000F05FFE10B14FF0FF3010BD0120F8
:1002800084F82800002010BD10B5044694F8290019
:1002900070B104F12B0104F11C0000F003FE10BB4F
:1002A000002104F11C0000F0E3FCE0B984F829000F
:1002B00094F82A0070B104F12C0104F11C0000F044
:1002C0009FFF80B9002104F11C0000F07FFE50B9AF
:1002D00084F82A000021002084F82B1084F82C00D8
:1002E00084F8281010BD4FF0FF3010BD00B581B06C
:1002F0001C3001F00EF808B14FF0FF3001B000BD26
:100300000120087048700023102088604FF4FA62C2
:100310009FEDAD0A00208B70CB704A60CB6081ED01
:10032000040A81ED050A8861704710B5044694F807
:10033000290001280CD094F82B1004F11C0000F0C7
:1003400097FC10B14FF0FF3010BD012084F8290058
:10035000002010BD10B5044694F8290088B104F1BE
:100360002B0104F11C0000F09DFD28B9002104F1CF
:100370001C0000F07DFC10B14FF0FF3010BD84F880
:10038000290010BD30B581B00D4669461C3000F023
:1003900054FC002418B14FF0FF3001B030BD9DF87F
:1003A0000000032813D8DFE800F0020E060ADFF889
:1003B000481629600DE0DFF8DC04286009E0DFF86A
:1003C000D014296005E0DFF8C404286001E04FF094
:1003D000FF34204601B030BD30B581B00D466946CE
:1003E0001C3000F05FFD002418B14FF0FF3001B069
:1003F00030BD9DF800000A2830D8DFE800F006087C
:100400000C1014181C2024282C002C6028E0DFF885
:10041000AC07286024E0DFF8A817296020E0DFF8A7
:10042000A40728601CE0DFF8A017296018E0DFF8B7
:100430009C07286014E0DFF89817296010E0DFF8C7
:10044000940728600CE0DFF89017296008E0DFF8D7
:100450008C07286004E05C49296001E04FF0FF341C
:10046000204601B030BD000000B581B090F82910E1
:10047000DFEDA80A0129B4EE600A53D1F1EE10FABB
:1004800047D4DFEDA50AB4EE600AF1EE10FA48BFDA
:1004900002213ED4DFEDA10AB4EE600AF1EE10FABB
:1004A00048BF032135D4DFED9E0AB4EE600AF1EEB9
:1004B00010FA48BF04212CD4DFED9A0AB4EE600A8A
:1004C000F1EE10FA48BF052123D4DFED970AB4EE10
:1004D000600AF1EE10FA48BF06211AD4DFED930A44
:1004E000B4EE600AF1EE10FA48BF072111D4DFED37
:1004F000900AB4EE600AF1EE10FA48BF082108D461
:10050000DFEDBD0AB4EE600AF1EE10FA4CBF09212E
:100510000A211C3000F0ACFB002853D04FF0FF3014
:1005200001B000BDF1EE10FA48BF012147D4DFED64
:100530007A0AB4EE600AF1EE10FA48BF02213ED406
:10054000DFED760AB4EE600AF1EE10FA48BF03213F
:1005500035D4DFED730AB4EE600AF1EE10FA48BF4D
:1005600004212CD4DFED6F0AB4EE600AF1EE10FA2C
:1005700048BF052123D4DFED6C0AB4EE600AF1EE2A
:1005800010FA48BF06211AD4DFED680AB4EE600AFB
:10059000F1EE10FA48BF072111D4DFED650AB4EE81
:1005A000600AF1EE10FA48BF082108D4DFED920A84
:1005B000B4EE600AF1EE10FA4CBF09210A2180F86E
:1005C0002B10002001B000BD0058D04530B581B0DF
:1005D0000D4669461C3000F030FB002418B14FF086
:1005E000FF3001B030BD9DF8000003280FD8DFE8D0
:1005F00000F0020B0508022129600AE004202860AF
:1006000007E00821296004E01020286001E04FF095
:10061000FF34204601B030BD00B5032981B0B8BF1A
:10062000002107DB0529B8BF022103DB0929B4BF7C
:10063000032101211C3000F0E7FA08B14FF0FF3030
:1006400001B000BD10B582B00C4669461C3000F008
:100650003CFE18B14FF0FF3002B010BDBDF80000F5
:100660002080BDF802106180BDF80400A08002B0B7
:10067000002010BD30B583B004460D4601A904F139
:100680001C0000F022FE002840D1694604F11C0045
:1006900000F0D3FA002839D19DF80000032835D89E
:1006A000DFE800F031022E2B9FED780ABDF904003F
:1006B00000EE900AF8EEE00A60EE800AFDEEE00A35
:1006C000C5ED000ABDF9061001EE101AB8EEC11A08
:1006D00021EE001ABDEEC11A85ED011ABDF9080020
:1006E00000EE900AF8EEE00A20EE800ABDEEC00AA5
:1006F00085ED020A002003B030BD9FED650AD5E705
:100700009FED640AD2E79FEDBC0ACFE74FF0FF30C0
:1007100003B030BD010048410100D041010050420A
:100720000100D042010050430180D04301405044B9
:100730000160D04410B5044694F82A0001280CD07A
:1007400094F82C1004F11C0000F040FC10B14FF0A4
:10075000FF3010BD012084F82A00002010BD10B524
:10076000044694F82A0088B104F12C0104F11C001D
:1007700000F046FD28B9002104F11C0000F026FC21
:1007800010B14FF0FF3010BD84F82A0010BD0000FA
:1007900030B581B00D4669461C3000F0E5FB002401
:1007A00018B14FF0FF3001B030BD9DF800000C28AB
:1007B0001CD8DFE800F00B1B071B0F1B1B1B131BB8
:1007C0001B1B1700DFF8F013296011E0DFF8E403CA
:1007D00028600DE0DFF8D813296009E0DFF8CC03CA
:1007E000286005E0DFF8C013296001E04FF0FF3416
:1007F000204601B030BD00000150504530B581B0F9
:100800000D4669461C3000F0FBFC002418B14FF087
:10081000FF3001B030BD9DF800000A2831D8DFE874
:1008200000F006080C1014181C2024282C002C6042
:1008300029E0DFF88803286025E0DFF884132960C9
:1008400021E0DFF8800328601DE0DFF87C132960D9
:1008500019E0DFF87803286015E0DFF874132960E9
:1008600011E0DFF8700328600DE0DFF86C132960F9
:1008700009E0DFF86803286005E0DFF86413296009
:1008800001E04FF0FF34204601B030BD23DBF93EDC
:1008900023DB793E23DBF93D00B581B090F82A10C7
:1008A000DFED560A0129B4EE600A53D1F1EE10FAD9
:1008B00047D4DFED530AB4EE600AF1EE10FA48BFF8
:1008C00002213ED4DFED4F0AB4EE600AF1EE10FAD9
:1008D00048BF032135D4DFEDAC0AB4EE600AF1EE77
:1008E00010FA48BF04212CD4DFEDA80AB4EE600A48
:1008F000F1EE10FA48BF052123D4DFEDA50AB4EECE
:10090000600AF1EE10FA48BF06211AD4DFEDA10A01
:10091000B4EE600AF1EE10FA48BF072111D4DFED02
:100920009E0AB4EE600AF1EE10FA48BF082108D41E
:10093000DFED9A0AB4EE600AF1EE10FA4CBF09211D
:100940000A211C3000F042FB002853D04FF0FF304A
:1009500001B000BDF1EE10FA48BF012147D4DFED30
:10096000280AB4EE600AF1EE10FA48BF02213ED424
:10097000DFED240AB4EE600AF1EE10FA48BF03215D
:1009800035D4DFED810AB4EE600AF1EE10FA48BF0B
:1009900004212CD4DFED7D0AB4EE600AF1EE10FAEA
:1009A00048BF052123D4DFED7A0AB4EE600AF1EEE8
:1009B00010FA48BF06211AD4DFED760AB4EE600AB9
:1009C000F1EE10FA48BF072111D4DFED730AB4EE3F
:1009D000600AF1EE10FA48BF082108D4DFED6F0A73
:1009E000B4EE600AF1EE10FA4CBF09210A2180F83A
:1009F0002C10002001B000BD23DB793D01004841EF
:100A00000100D0410100504230B581B00D46694629
:100A10001C3000F0A9FA002418B14FF0FF3001B0EB
:100A200030BD9DF800000C281AD8DFE800F00A1944
:100A300007190D1919191119191915007D212960A6
:100A400010E0FA2028600DE04FF4FA71296009E007
:100A50004FF47A70286005E04FF4FA61296001E0F4
:100A60004FF0FF34204601B030BD00B57E2981B083
:100A7000B8BF02210FDBFB29B8BF00210BDB40F21E
:100A8000F5129142B8BF042105DB40F2E9329142F0
:100A9000B4BF08210C211C3000F04CFA08B14FF013
:100AA000FF3001B000BD10B582B00C4669461C3065
:100AB00000F002FC18B14FF0FF3002B010BDBDF8DD
:100AC00000002080BDF802106180BDF80400A08005
:100AD00002B0002010BD000030B583B004460D46C2
:100AE00001A904F11C0000F0E7FB002848D1694689
:100AF00004F11C0000F038FA002841D19DF80000F4
:100B00000C283DD8DFE800F0363C393C333C3C3C17
:100B1000303C3C3C07009FED240ABDF9040000EE88
:100B2000900AF8EEE00A60EE800AFDEEE00AC5EDFC
:100B3000000ABDF9061001EE101AB8EEC11A21EE36
:100B4000001ABDEEC11A85ED011ABDF9080000EECC
:100B5000900AF8EEE00A20EE800ABDEEC00A85EDAC
:100B6000020A002003B030BD9FED100AD5E79FEDCB
:100B7000100AD2E79FED0F0ACFE79FED0F0ACCE7EF
:100B80004FF0FF3003B030BD0100D04201005043B0
:100B90000180D043014050440160D0440150504591
:100BA000E50B0008F10B000800008C4200000C422D
:100BB00000008C4100000C4100008C4000004841C6
:100BC0000000D041000050420000D04200005043DD
:100BD0000080D043004050440060D0440050504555
:100BE0000058D04510B50446207B6469A04710BD6D
:100BF00010B50446207B2469A04710BD10B50446FB
:100C0000A0682468A04710BD70B5044682B00D46A8
:100C1000A068666801236A461021B04758B99DF85C
:100C2000000065F383008DF800000123A0682468AC
:100C30006A461021A04702B070BD30B5044681B0AD
:100C4000A06864680D4601236A461021A0479DF8FC
:100C50000010890801F00301012906D004D30329FB
:100C600003D038BF022100D30021297001B030BD6C
:100C7000F0B583B004460D46694600F09FFB00289E
:100C80002E4666D19DF800209DF80110104642EADC
:100C9000500242EA900242EAD00242EA101242EACC
:100CA000501242EA90120A4342EA510242EA910289
:100CB00042EAD10242EA111242EA511242EA911288
:100CC00002F00102084342EAD010012844D1022177
:100CD000204600F003FB60B9A068D4F804C00123EB
:100CE0000DF102025F21E04718B90021204600F013
:100CF000F5FA9DF80210C90801F00301012906D098
:100D000004D3032903D038BF022100D3002100BB44
:100D100003291ED8DFE801F002060C1328001BD1BE
:100D2000012619E0280018BF012D15D1022613E075
:100D300028001CBF012D022D0ED103260CE0280037
:100D400018BF012D03D0022D18BF032D04D1042696
:100D500002E0002840F08C80A068D4F804C0012391
:100D60000DF102020121E047B8B99DF8020000F040
:100D70003F0040F080008DF802000123A068D4F805
:100D800000C00DF102020121E04730B9A068D4F89B
:100D900004C0012301AA0521E047002840F080801B
:100DA000A068D4F804C001230DF102020121E0473C
:100DB00068B99DF8020000F03F008DF802000123A1
:100DC000A068D4F800C00DF102020121E0479DF8AF
:100DD0000410C1F3001100294AD00221204600F07E
:100DE0007DFAF8B9A068D4F804C001230DF102021D
:100DF0006021E047B0B99DF80200000900F003004F
:100E0000012808D009D3032801D002D305E0032725
:100E100004E0022702E0012700E00027002120462D
:100E200000F05CFA002823D1FFB2032F1ED8DFE8C0
:100E300007F002060C13280018D1012619E028003B
:100E400018BF012D12D1022613E028001CBF012D6E
:100E5000022D0BD103260CE0280018BF012D03D072
:100E6000022D18BF032D01D1042602E02E4600E01A
:100E7000B0B9A068656801230DF103021021A847ED
:100E800070B99DF8030000F00F0040EA06108DF8DD
:100E900003000123A06824680DF103021021A0477C
:100EA00003B0F0BD30B5044681B0A06864680D465B
:100EB00001236A461021A0479DF800100909491E28
:100EC0000A2933D8DFE801F0060A0E12161A1E228C
:100ED000262A2E000121297001B030BD022129707F
:100EE00001B030BD0321297001B030BD042129704B
:100EF00001B030BD0521297001B030BD0621297037
:100F000001B030BD0721297001B030BD0821297022
:100F100001B030BD0921297001B030BD0A2129700E
:100F200001B030BD0B21297001B030BD0021297006
:100F300001B030BD70B5044682B00D46A068666849
:100F400001236A461121B04758B99DF8000065F3A6
:100F500003008DF800000123A06824686A4611216F
:100F6000A04702B070BD000030B5044681B0A06853
:100F700064680D4601236A461121A0479DF80010C0
:100F800001F00F010C291CD8DFE801F007171B1B2B
:100F90000B1B1B1B0F1B1B1B13000021297001B017
:100FA00030BD0421297001B030BD0821297001B085
:100FB00030BD0C21297001B030BD0121297001B074
:100FC00030BD0221297001B030BD0000F0B583B002
:100FD00004460D46694600F0F1F900282E4666D118
:100FE0009DF800209DF80110104642EA500242EAA6
:100FF000900242EAD00242EA101242EA501242EA59
:1010000090120A4342EA510242EA910242EAD102B4
:1010100042EA111242EA511242EA911202F001022E
:10102000084342EAD010012844D10221204600F0B2
:1010300055F960B9A068D4F804C001230DF102028B
:101040005F21E04718B90021204600F047F99DF8DC
:101050000210C90801F00301012906D004D30329B5
:1010600003D038BF022100D3002100BB03291ED8C2
:10107000DFE801F002060C1328001BD1012619E05D
:10108000280018BF012D15D1022613E028001CBF2F
:10109000012D022D0ED103260CE0280018BF012DD2
:1010A00003D0022D18BF032D04D1042602E000282E
:1010B00040F08C80A068D4F804C001230DF1020236
:1010C0000121E047B8B99DF8020000F03F0040F070
:1010D00080008DF802000123A068D4F800C00DF153
:1010E00002020121E04730B9A068D4F804C001230E
:1010F00001AA0521E047002840F08080A068D4F8CC
:1011000004C001230DF102020121E04768B99DF8F6
:10111000020000F03F008DF802000123A068D4F81F
:1011200000C00DF102020121E0479DF80410C1F357
:10113000001100294AD00221204600F0CFF8F8B96A
:10114000A068D4F804C001230DF102026021E04739
:10115000B0B99DF80200000900F00300012808D092
:1011600009D3032801D002D305E0032704E00227B6
:1011700002E0012700E000270021204600F0AEF841
:10118000002823D1FFB2032F1ED8DFE807F00206A4
:101190000C13280018D1012619E0280018BF012DD2
:1011A00012D1022613E028001CBF012D022D0BD105
:1011B00003260CE0280018BF012D03D0022D18BF14
:1011C000032D01D1042602E02E4600E0B0B9A0684C
:1011D000656801230DF103021121A84770B99DF83C
:1011E000030000F00F0040EA06108DF80300012311
:1011F000A06824680DF103021121A04703B0F0BDDF
:1012000030B5044681B0A06864680D4601236A4683
:101210001121A0479DF800100909491E09292ED85F
:10122000DFE801F005090D1115191D2125290121FE
:10123000297001B030BD0221297001B030BD0321F9
:10124000297001B030BD0421297001B030BD0521E5
:10125000297001B030BD0621297001B030BD0721D1
:10126000297001B030BD0821297001B030BD0921BD
:10127000297001B030BD0A21297001B030BD0021B4
:10128000297001B030BD70B5044682B00D46A0682B
:10129000666801236A461221B04758B99DF80000DC
:1012A00065F386108DF800000123A06824686A4663
:1012B0001221A04702B070BD10B504460A46A068CE
:1012C000646806232221A04710BD10B504460A46D3
:1012D000A068646806232821A04710BD70B50446A5
:1012E00082B00D46A068666801236A460121B047B6
:1012F00068B99DF8000000F03F0040EA85108DF8C5
:1013000000000123A06824686A460121A04702B0BA
:1013100070BD10B504460A46A068646801230F2119
:10132000A04710BD70B5044682B00D46A06866683F
:1013300001236A461221B04758B99DF8000065F3B1
:1013400000008DF800000123A06824686A4612217D
:10135000A04702B070BD70B5044682B00D46A068CB
:10136000666801236A461221B04758B99DF800000B
:1013700065F382008DF800000123A06824686A46A6
:101380001221A04702B070BD70B5044682B00D4670
:10139000A068666801236A460A21B04758B99DF8DB
:1013A000000065F302008DF800000123A0682468A6
:1013B0006A460A21A04702B070BD000070B504461D
:1013C00082B00D46A068666801236A460121B047D5
:1013D00078BB9DF8000000F03F0040F080008DF8E1
:1013E00000000123A06826686A460121B04700BBBF
:1013F000A068666801232A464621B047C8B96A1C1E
:10140000A068656801234721A84790B9A06865686E
:1014100001236A460121A84758B99DF8000000F051
:101420003F008DF800000123A06824686A4601216E
:10143000A04702B070BDF0B402461068956813185A
:10144000506803EB5004C0071DD54D441BE013F852
:10145000017B05F8017B491EF9D1A0B1B60813F84C
:10146000011B06F00306032E08BF13F8016B01EB06
:1014700006214942801C294405D011F8016B05F86A
:10148000016B401EF9D1A3420ED013F8016B16F088
:10149000030104BF13F8011BC91C30090F28DAD15E
:1014A00013F8010B0F30D6E7F0BC02F10C007047C7
:1014B00030B504460025002C81B02AD00868206091
:1014C0004A6862608868A0600A7B227308692061AC
:1014D0004A69626188690FF6A501A06121626462B0
:1014E0000FF6A500E061206898B1804788B9A06830
:1014F000022804BF94F8280000280CD105218DF89B
:10150000001001236A46212104F11C0000F042FC76
:1015100008B14FF0FF35284601B030BD10B5044684
:10152000012104F11C0000F0CAFD002824D1012192
:1015300004F11C0000F064FDF0B9002104F11C006E
:1015400000F0D6FDC0B9042104F11C0000F028FC15
:1015500090B9DFF8D403E062002184F8301084F8F9
:10156000311004F11C0000F0C0FC28B9002104F186
:101570001C0000F05EFD10B14FF0FF3010BD0120E7
:1015800084F82800002010BD10B5044694F8290006
:1015900050B1002104F11C0000F0A7FC10B14FF085
:1015A000FF3010BD84F829000020E06284F830008C
:1015B00084F8310084F8280010BD00B581B01C30DB
:1015C00000F074FD08B14FF0FF3001B000BD012004
:1015D0000870002210204A708A70CA704A608860C1
:1015E000CA600020DFF84C2308614A6188617047B7
:1015F00010B5044694F8290001280FD094F8312042
:1016000094F8301094ED0B0A204600F0F9FA10B16E
:101610004FF0FF3010BD012084F82900002010BDDC
:1016200010B5044694F8290050B1002104F11C00C3
:1016300000F05BFC10B14FF0FF3010BD84F82900C2
:1016400010BD000070B582B006460C46694606F132
:101650001C0000F007FD002530B90DF1010106F175
:101660001C0000F0D5FB18B14FF0FF3002B070BD88
:101670009DF801101B2931D8DFE801F00E1C1C1C5D
:101680001C3030300E1C1C1C303030300E1C1C1C2A
:101690001C3030300E1C1C1C9DF80020032A1DD865
:1016A000DFE802F0161902059FED650A1AE09FEDCA
:1016B000650A17E09DF8000003280FD8DFE800F066
:1016C0000205080B9FED600A0CE09FED600A09E03F
:1016D0009FED5F0A06E09FED900A03E0BFEE000A6F
:1016E0004FF0FF3584ED000A284602B070BD0000BF
:1016F00070B582B006460C460DF1010106F11C00E2
:1017000000F026FC002528B9694606F11C0000F00F
:101710007FFB18B14FF0FF3002B070BD9DF80100A3
:10172000222800F28380DFE800F012152D303336D6
:101730007E3950678181818181818181128181819E
:1017400081818181818181818181818112009FEDEF
:10175000730A6FE09DF800001B2800F26780DFE845
:1017600000F00E0E0E0E116565650E0E0E0E65650F
:1017700065650E0E0E0E116565650E0E0E0E9FED63
:10178000680A57E0B2EE090A54E0B3EE090A51E0E4
:101790009FED640A4EE09FED640A4BE09DF8000067
:1017A0001B2843D8DFE800F03F3F3F3F0E42424254
:1017B0003F3F3F3F424242423F3F3F3F0E42424255
:1017C0003F3F3F3F9FED590A34E09DF800001B2842
:1017D0002CD8DFE800F0282828280E2B2B2B2828CF
:1017E00028282B2B2B2B282828280E2B2B2B28287E
:1017F00028289FED4F0A1DE09DF800001B2815D8F2
:10180000DFE800F0111111110E141414111111114F
:1018100014141414111111110E14141411111111A6
:101820009FED440A06E09FED440A03E0BFEE000A84
:101830004FF0FF3584ED000A284602B070BD00006D
:1018400023DB794023DBF94023DB793E23DBF93EC0
:1018500023DB793F0022002190F82930012B04BFBF
:10186000C9B200F0CDB9DFED350AB4EE600AF1EE91
:1018700010FA80F8301080F8312048BF9FED280A18
:1018800046D4DFED2F0AB4EE600AF1EE10FA48BF3D
:10189000B2EE090A3CD4DFED2B0AB4EE600AF1EE99
:1018A00010FA48BFB3EE090A32D4DFED270AB4EECE
:1018B000600AF1EE10FA48BF9FED1A0A28D4DFED56
:1018C000230AB4EE600AF1EE10FA48BF9FED160A43
:1018D0001ED4DFED1F0AB4EE600AF1EE10FA48BF25
:1018E0009FED150A14D4DFED1B0AB4EE600AF1EE89
:1018F00010FA48BF9FED0D0A0AD4DFED170AB4EEC7
:10190000600AF1EE10FA4CBF9FED090A9FED090A3B
:1019100080ED0B0A0020704723DBF93F0000000038
:10192000CDCCCC3F000048420000C8420000C84374
:10193000000048440000C84400004843CECCCC3FDF
:10194000010048410100C841010048420100C8426D
:10195000010048430100C8430100484430B581B04C
:101960000C4669461C3000F07DFB002518B14FF095
:10197000FF3001B030BD9DF8000003280BD8DFE830
:1019800000F002040608022008E0042006E0082017
:1019900004E0102002E04FF0FF352846206001B03F
:1019A000284630BD00B5032981B0B8BF002107DB50
:1019B0000529B8BF012103DB0929B4BF0221032196
:1019C0001C3000F036FB08B14FF0FF3001B000BD15
:1019D00070B584B006460D46694606F11C0000F05D
:1019E00017FA002428B901A906F11C0000F055FBE4
:1019F00018B14FF0FF3004B070BD9DF800001B28F7
:101A00003BD8DFE800F00E242424243A3A3A0E248E
:101A100024243A3A3A3A0E242424243A3A3A0E2418
:101A20002424BDF90400C11000EB117000112880BE
:101A3000BDF90600C11000EB117000116880BDF9FE
:101A40000800C11000EB11700011A88017E0BDF96B
:101A50000400411000EB917080102880BDF9060051
:101A6000411000EB917080106880BDF908004110B2
:101A700000EB91708010A88001E04FF0FF34204609
:101A800004B070BD2DE9F04184B080460C46694633
:101A900008F11C0000F0BCF9002840F0AC8001A95E
:101AA00008F11C0000F0F9FA002840F0A4809DF82D
:101AB00000001B2800F29F80DFE800F0210E0E0ED0
:101AC0000E9D9D9D210E0E0E9D9D9D9D210E0E0E27
:101AD0000E9D9D9D210E0E0EBDF90450BDF90670A0
:101AE000BDF90860681005EB9075781007EB9077EA
:101AF000701006EB9076AD10BF10B61011E0BDF976
:101B00000450BDF90670BDF90860E81005EB1075CA
:101B1000F81007EB1077F01006EB10762D113F113F
:101B20003611694608F11C0000F09CFA002840F0CC
:101B300062800DF1010108F11C0000F069F9002834
:101B400059D19DF801101B2955D8DFE801F0400E4E
:101B50000E0E0E545454400E0E0E54545454400E57
:101B60000E0E0E545454400E0E0E9DF80020032A03
:101B700041D8DFE802F029023D3A9FED710A2DB20B
:101B800000EE905AF8EEE00A60EE800AFDEEE00A00
:101B9000C4ED000A3FB200EE907AF8EEE00A60EE83
:101BA000800AFDEEE00AC4ED010A36B200EE906A4A
:101BB000F8EEE00A20EE800ABDEEC00A84ED020ACB
:101BC000002004B0BDE8F0819FED5E0AD7E79DF8E4
:101BD000000003280FD8DFE800F00B0805029FED96
:101BE0005A0ACCE79FED590AC9E79FED590AC6E7A3
:101BF0009FED580AC3E74FF0FF3004B0BDE8F08115
:101C0000F0B504460D4681B0E8B2401E2DED028BC2
:101C10000328B0EE408A164603D8DFE800F011161C
:101C20001B20012EB2EE090A14BF04271427B4EEBC
:101C3000408AF1EE10FA20D5B0EE408A022164E02D
:101C4000012E0CBF132703270DE0012E0CBF122716
:101C5000022708E0012E0CBF1127012703E0012E07
:101C600014BF002710279FED3C0AB4EE408AF1EE26
:101C700010FAA8BF9FED398A33DA9FED390AB4EE26
:101C8000408AF1EE10FA48BF01213ED49FED350A9B
:101C9000B4EE408AF1EE10FA01D5022135E09FED55
:101CA000320AB4EE408AF1EE10FA48BF03212CD478
:101CB0009FED2E0AB4EE408AF1EE10FA48BF0421DF
:101CC00023D49FED2B0AB4EE408AF1EE10FA48BF00
:101CD00005211AD49FED200AB4EE408AF1EE10FAE5
:101CE00001D5062111E09FED230AB4EE408AF1EE02
:101CF00010FA48BF072108D49FED1F0AB4EE408AAE
:101D0000F1EE10FA4CBF0821092104F11C0000F08B
:101D1000ECF828B9394604F11C0000F041F828B16C
:101D2000BDEC028B4FF0FF3001B0F0BD84ED0B8AAB
:101D300084F8305084F83160BDEC028B01B0F0BD06
:101D400023DBF93E23DB793E23DBF94023DB7940BB
:101D500023DBF93F23DB793F010048430000484380
:101D6000CECCCC3F010048410100C84101004842AF
:101D70000100C8420100C8430100484410B50446B0
:101D8000207B6469A04710BD10B50446207B246900
:101D9000A04710BD10B50446A0682468A04710BD38
:101DA00070B5044682B00D46A068666801230DF147
:101DB00001022021B04738BB9DF8011005F00C024C
:101DC00005F0030001F0F001024311438DF801100A
:101DD000A068266801230DF101022021B04798B9BF
:101DE000A068666801236A462521B04760B99DF85E
:101DF00000002D0965F382008DF800000123A06822
:101E000024686A462521A04702B070BD000000008A
:101E100070B5054682B00C46A8686E6801236A4614
:101E20002021B04700285ED1A8686D6801230DF11C
:101E300001022521A8479DF801109DF800209DF87A
:101E40000030890001F0100102F00C02511803F07B
:101E500003035918C9B21B2943D8DFE801F018144D
:101E6000120E4242424224201E1A42424242323064
:101E70002C2A264242423E3C38360321217002B0D1
:101E800070BD02222EE00121217002B070BD00223F
:101E900028E00B21217002B070BD0A2222E0092146
:101EA000217002B070BD08221CE01421217002B024
:101EB00070BD132216E01221217002B070BD1122F4
:101EC00010E01021217002B070BD1B220AE01A211F
:101ED000217002B070BD192204E01821217002B0F7
:101EE00070BD0422227002B070BD70B5044682B08D
:101EF0000D46A068666801230DF101022021B0475C
:101F000018BB9DF8010000F00F0040EA05108DF8A5
:101F100001000123A06826680DF101022021B047CD
:101F200098B9A068666801236A462221B04760B963
:101F30009DF800002D0965F301008DF800000123D4
:101F4000A06824686A462221A04702B070BD000044
:101F500070B5054682B00C46A8686E6801230DF185
:101F600001022021B047002848D1A8686D680123EC
:101F70006A462221A8479DF800109DF8012001F033
:101F80000301120902EB0111491E212934D8DFE8AF
:101F900001F01115171B1D21232729333333333348
:101FA0003333332D33333333333333333333333307
:101FB0003333332F0123237002B070BD02211CE0A4
:101FC0000322227002B070BD042116E005222270A7
:101FD00002B070BD062110E00722227002B070BD71
:101FE00008210AE00922227002B070BD122104E02B
:101FF0002222227002B070BD0021217002B070BD9B
:1020000070B5044682B00D46A068666801236A4632
:102010002121B04758B99DF8000065F3C3008DF841
:1020200000000123A06824686A462121A04702B06D
:1020300070BD70B5044682B00D46A0686668012385
:102040006A462521B04758B99DF8000065F3051090
:102050008DF800000123A06824686A462521A04766
:1020600002B070BD30B5044681B0A06864680D460A
:1020700001236A462521A0479DF80010090901F0B7
:102080000301012906D004D3032903D038BF02215C
:1020900000D30021297001B030BD10B504460A46B6
:1020A000A068646806232821A04710BD10B5044627
:1020B0000A46A068646801230F21A04710BD70B5CF
:1020C000044682B00D46A068666801236A46212155
:1020D000B04758B99DF8000065F382008DF8000004
:1020E0000123A06824686A462121A04702B070BD80
:1020F00070B5044682B00D46A068666801236A4642
:102100002E21B04768B99DF8000000F01F0040EA9A
:1021100045108DF800000123A06824686A462E212E
:10212000A04702B070BD30B4002513E050F8042B76
:10213000D30744BFA9F101039A18091F042942F8E3
:10214000045BFAD213468C0744BF15809B1CC90759
:1021500048BF1D7050F8041B0029E7D130BC704700
:10216000F0B42DED108B044B1C789AB074B91AB0F2
:10217000BDEC108BF0BC7047C4060020CDCCCCBDAC
:10218000CDCC4CBECDCCCC3DCDCC4C3ED0ED057AAB
:10219000D0ED00EA90ED01EAD0ED02DAD0ED034A8D
:1021A00090ED041A93ED1E7A93ED21BAD3ED22AA95
:1021B00093ED23AAD3F8FC40D3F80001CDED047AC7
:1021C00016460027D3F8F0208DED087A0D46D3F897
:1021D0000411CDED167A3760CDED11EAC3F8084150
:1021E000C3F80C01C3F81011C3F8FC2083ED217A69
:1021F0008DED12EACDED13DACDED144A8DED151A01
:10220000D3ED46FA83ED24BAC3ED25AA83ED26AAC1
:1022100093ED47FAD3ED487A93ED207AD3ED1B6A1C
:1022200093ED196AD3ED1A5AD3F8E420CDED037A71
:10223000D3ED1CCAD3ED1F7AD3F8F400D3F8F8100D
:10224000D3F8E870D3F8EC40C3F8F020D3F8E020DE
:10225000CDED067A8DED077ACDED056A93ED1DCAB9
:10226000D3ED18BA8DED0F6ACDED0E5AC3F800010B
:10227000C3ED227AD3F8D800C3F8041183ED237A92
:10228000D3F8DC10C3ED1E6AC3F8F470C3ED1FCAA7
:10229000C3F8F840D3ED157A93ED167AD3ED176AAB
:1022A000C3F8EC2093ED308AD3F8CC20C3F8E400D7
:1022B000C3F8E810D3F8D000D3F8D410C3F8D8206E
:1022C00011AA83ED1C6AC3ED1D5ACDED0D7A8DED7B
:1022D0000C7ACDED0B6AD3ED121AD3ED318A93ED62
:1022E000132AD3ED320AD3ED142A93ED2D9A93EDF0
:1022F0000F3AD3ED2E9AD3ED103AC3ED187AC3F806
:10230000DC0083ED197AC3F8E010C3ED1A6A83ED9F
:1023100020CAC3ED1BBA83ED338AD3ED0C7A93ED5B
:102320000D7AD3ED285A93ED295A93ED2F0A93EDA8
:10233000114AD3F8A840D3F8AC70CDED0A7A07CA99
:102340008DED097A93ED0EDAD3ED276A93ED096AE4
:10235000CDED015A8DED025AD3ED0A5A93ED0B5A89
:10236000C3ED151AC3ED348A83ED162AC3ED350A81
:10237000C3ED172A83ED309A83ED123AC3ED319AFB
:10238000C3ED133A83ED320A83ED144AC3F8B44027
:10239000D3F8B04083ED107A9DED017AC3F8B870A0
:1023A000C3F8BC4003F19C0714ACC3ED0F7A83ED76
:1023B0000C6AC3ED0D5A83ED11DAC3ED2A6A83ED81
:1023C0002B7A83ED0E5A87E8070094E80700B3F9EB
:1023D0001471DDED027A03F12404092FC3ED2C7A88
:1023E00084E8070040F3BF82D3ED067AB0EEE47ACA
:1023F000B4EEE77AF1EE10FA40F1C582B0EEC17AA0
:10240000F4EEC77AF1EE10FA40F3BD829DED047A46
:10241000B0EEC77AF4EEC77AF1EE10FA40F3B38269
:10242000D3ED077AF0EEEEEAF4EEE7EAF1EE10FA19
:1024300040F1A982B0EECEEAF4EECE7AF1EE10FAD7
:1024400040F3A182F0EEEDDAF4EEED7AF1EE10FA5F
:1024500040F399825FEDB7DADDED017A1FEDB8EA5E
:10246000D3ED28EA93ED277A67EEAD7A66EEAD6A92
:10247000EEEE8E7AE7EE0E6A5FEDBEEA9DED027A31
:10248000E9EEAE7A27EE2D7AE9EE2E6A93ED299ADF
:102490005FEDC39AA9EE0E7AE8EEA97AE8EE296A12
:1024A000A0EE2E7A67EEA77AA0EEA97AE6EEA67ADB
:1024B00025EEAD0A93ED0A9AD3ED098A93ED0B8AC6
:1024C00066EE2D6AA9EE0E0AE7EE077AE8EE8E6A4E
:1024D000A3EEAE0A65EE2DDAB1EEE77AE3EE2E6AF0
:1024E000E8EE0EDAA2EE290AE1EEA96AE4EE2EDAAF
:1024F00020EE000AE2EEA9DAA6EEA60AD3ED016A02
:10250000ADEEAD0AF4EEC76AF1EE10FAF1EEC07A64
:1025100040F3398293ED027AB4EEE77AF1EE10FAE5
:1025200040F33182D3ED037AF5EEC07AF1EE10FA82
:1025300040F32982F4EEC68ADDED0A6AF1EE10FA64
:10254000B4BFB0EE467AB0EE687AB4EEE67A8CBFED
:10255000F0EE467AF0EE687AF1EE10FAF4EEE67AF2
:10256000B8BFB0EE667AF1EE10FA88BFF0EE667A88
:10257000B4EEC37AF1EE10FAF4EEC37AB8BFB0EE5F
:10258000437AF1EE10FA88BFF0EE437AB4EEE17AC6
:10259000DDED0D6AF1EE10FAF4EEE17AB8BFB0EEBF
:1025A000617AF1EE10FA88BFF0EE617AB4EEE67A65
:1025B000F1EE10FAF4EEE67AB8BFB0EE667AF1EE1C
:1025C00010FA88BFF0EE667AB4EEEB7ADDED056ABC
:1025D000F1EE10FAF4EEEB7AB8BFB0EE6B7AF1EEF2
:1025E00010FA88BFF0EE6B7AF4EEC76AF1EE10FADB
:1025F000F4EEE76AA8BFB0EE667AF1EE10FA98BF83
:10260000F0EE667ADDED086AF4EEC76AF1EE10FAD4
:10261000A8BFB0EE667AF4EEE76AF1EE10FAB4EE17
:10262000C7BA98BFF0EE667AF1EE10FA00F3E481D3
:10263000F4EECB7AF1EE10FA88BFF0EE4B7A77EE3B
:10264000677A9FEDF27AF4EEC77AF1EE10FA00F3B2
:102650009A81B4EEE59ADDED096AF1EE10FAB4BFA5
:10266000B0EE657AB0EE497AF4EEC76A8CBFF0EE50
:10267000657AF0EE497AF1EE10FAF4EEE76AA8BF57
:10268000B0EE667AF1EE10FA98BFF0EE667AF4EEEC
:10269000C73AF1EE10FAF4EEE73AA8BFB0EE637A6B
:1026A000F1EE10FA98BFF0EE637AB4EEC72ADDEDD2
:1026B0000C6AF1EE10FAB4EEE72AA8BFB0EE427A47
:1026C000F1EE10FA98BFF0EE427AF4EEC76AF1EE3E
:1026D00010FAF4EEE67AA8BFB0EE667AF1EE10FAE0
:1026E00088BFF0EE667ADDED0F6AF4EEC76AF1EEB0
:1026F00010FAA8BFB0EE667AF4EEE76AF1EE10FACF
:10270000B4EEEC7A98BFF0EE667ADDED066AF1EE93
:1027100010FAB8BFB0EE6C7AF4EEEC7AF1EE10FA83
:10272000F4EEC76A88BFF0EE6C7AF1EE10FAA8BF3B
:10273000B0EE667AF4EEE76AF1EE10FAF4EEC7AAAC
:1027400098BFF0EE667AF1EE10FA00F34C81F4EEE9
:10275000EA7AF1EE10FA88BFF0EE6A7A77EE677ADD
:102760009FEDAA7AF4EEC77AF1EE10FA00F30B812E
:10277000B4EEC58AF1EE10FAB4BFB0EE457AB0EE11
:10278000487AB4EECD7A8CBFF0EE457AF0EE487A16
:10279000F1EE10FAF4EECD7AB8BFB0EE4D7AF1EE6C
:1027A00010FA88BFF0EE4D7AB4EEC74AF1EE10FA97
:1027B000B4EEE74AA8BFB0EE447AF1EE10FA98BF43
:1027C000F0EE447AB4EEE27ADDED0B6AF1EE10FA47
:1027D000F4EEE27AB8BFB0EE627AF1EE10FA88BF9A
:1027E000F0EE627AB4EEE67AF1EE10FAF4EEE67A02
:1027F000B8BFB0EE667AF1EE10FA88BFF0EE667AF6
:10280000DDED0E6AB4EEE67AF1EE10FAB8BFB0EE86
:10281000667AF4EEE67AF1EE10FAB4EECC7A88BF7E
:10282000F0EE667ADDED076AF1EE10FAB8BFB0EEB1
:102830004C7AF4EECC7AF1EE10FAF4EEC76A88BF67
:10284000F0EE4C7AF1EE10FAA8BFB0EE667AF4EE34
:10285000E76AF1EE10FAB4EEC7AA98BFF0EE667A16
:10286000F1EE10FA00F3B680F4EECA7AF1EE10FA47
:1028700088BFF0EE4A7A77EE677A9FED647AF4EEDD
:10288000C77AF1EE10FA7EDCB3F82421632A05D86A
:10289000013292B2092AA3F8242167D901223260B9
:1028A00093F81611002972D178EE866A9DED0A6AB6
:1028B00083F8162176EE866A39EE257A9DED096A4F
:1028C00078EE057A37EE067A76EE836A9DED0D6A2C
:1028D00077EE8D7A37EE237A76EEA16A77EE847AF8
:1028E00076EE866A37EE027A9DED0C6A77EEA27A72
:1028F00037EE067A9DED0B6A77EE867A9DED0F6ACC
:1029000037EE067A9DED0E6A76EEAB6A77EE867A42
:102910009DED056A76EE866A9DED086A37EE2C7AA3
:1029200076EE866A9DED066A77EE8C7A37EE067A49
:102930009DED076A77EE867A36EE8BBA37EE8AAA75
:1029400077EE2AAADFED327A6BEE27FA2AEEA7FAA3
:102950006AEE277AC3ED46FACDED037A83ED47FAA6
:10296000C3ED487A02E00137A3F81471DDED037A74
:10297000C5ED00FA85ED01FAC5ED027A1AB0BDEC9D
:10298000108BF0BC70470022A3F82421EEE793EDF2
:10299000087ADDED046AF7EE007A77EEC77A64EE26
:1029A000874A21EE071A66EE876A9DED037AEFEEFD
:1029B000A74AAFEE271AE7EE276AF0EE64FAB0EE08
:1029C00041FACDED036AC3ED464A83ED471AC3EDE4
:1029D000486ACBE7B4EEE7AAF1EE10FA3FF554AF40
:1029E000B0EE4A7A47E7F4EEE7AAF1EE10FA3FF5C7
:1029F000BFAEB0EE6A7AB1E6B4EEE7BAF1EE10FA25
:102A00003FF527AEB0EE4B7A19E600BFCDCCCC3EF9
:102A1000CDCCCC3D2DE9F043050081B000F0FF8125
:102A2000DFF8D077BC68FE682878C10604F00C0493
:102A300006F0030640F1E4811CB10C2C08BF012E06
:102A40005AD13868810703D5A869002800F0E781CA
:102A5000396808074EBF3968D7F894100909286A01
:102A600001F0F001814216D200F085FB002840F011
:102A7000D681386840F0080038603968286A21F04B
:102A8000F001014339607968E86921F47F4141EA46
:102A90000021796017E0386840F008003860396834
:102AA000286A21F0F001014339607968E86921F46E
:102AB0007F4141EA002179602CB9286A00F05BFB74
:102AC000002840F0AC8100F0F6FABA68DFF8301761
:102AD000C2F30312895CDFF8202701F01F01C84010
:102AE0001060DFF81807006800F0A0FB010000F09C
:102AF000878101B0BDE8F083A869A0B1396841F0D1
:102B00000101396000F0B6FB80463868810700F1AA
:102B1000668100F0AFFBA0EB08000328F5D303208B
:102B200001B0BDE8F083386840084000386000F02C
:102B3000A1FB80463868810740F1628100F09AFB72
:102B4000A0EB08000328F5D3032001B0BDE8F08313
:102B50006868B0F5803F04D1386840F48030386050
:102B600011E0B0F5A02F386806D140F4802038601D
:102B7000396841F4803105E020F4803038603968EC
:102B800021F480213960686880B100F073FB8046D1
:102B90003868810300F1478100F06CFBA0EB08006E
:102BA0006528F5D3032001B0BDE8F08300F062FB97
:102BB00080463868810340F1368100F05BFBA0EB72
:102BC00008006528F5D3032001B0BDE8F08300BFFD
:102BD00000F050FB801B0328C0F04C81032001B0A3
:102BE000BDE8F083E86898B1396841F480713960D4
:102BF00000F040FB06463868410500F1248100F0F2
:102C000039FB801B0328F6D3032001B0BDE8F08315
:102C1000386820F48070386000F02CFB0646386875
:102C2000410540F1178100F025FB801B0328F6D3F6
:102C3000032001B0BDE8F08340084000C7F89400CD
:102C400000F018FB4FEA0006D7F89400810740F126
:102C5000168100F00FFB801B0328F5D3032001B081
:102C6000BDE8F0830528D7F8900008D140F00400B3
:102C7000C7F89000D7F8900040F0010007E0400846
:102C80004000C7F89000D7F8900020F00400C7F883
:102C90009000A86898B100F0EDFA804641F28939B9
:102CA000D7F89000810700F1228100F0E3FAA0EB51
:102CB00008004845F4D3032001B0BDE8F08300F0DC
:102CC000D9FA804641F28939D7F89000810740F15E
:102CD0000E8100F0CFFAA0EB08004845F4D30320A2
:102CE00001B0BDE8F08300F400328A420FD1EA6BF4
:102CF000520800F4C001521EB1EB425F07D1296CAB
:102D0000490800F0C060491EB0EB416F28D00C2C80
:102D100000F085803868410100F181803868C10089
:102D200000F17D80386820F08070386000F0A2FAF1
:102D300004463868810140F1008100F09BFA001BD5
:102D40000328F6D3032001B0BDE8F08300F092FA27
:102D5000401B0328C0F01881032001B0BDE8F083B8
:102D60003868810100F11481386840F08070386063
:102D7000F96841F08071F96000F07CFA0446386827
:102D8000810100F1058100F075FA001B0328F6D3DC
:102D9000032001B0BDE8F0830C2C40D0386820F04F
:102DA00080703860396811F0205F03D1F8688008BE
:102DB0008000F860F968DFF84C040140F96000F029
:102DC00059FA04463868810140F1E28000F052FA75
:102DD000001B0328F6D3032001B0BDE8F083386858
:102DE00040F0080038603968286A21F0F00101439A
:102DF00039607968E86921F47F4141EA002179600E
:102E00002878C1070FD5082C04D00C2C08BF032E3E
:102E10007FF49EAE3868810305D5686818B9012033
:102E200001B0BDE8F0832878810713D5042C04D0C5
:102E30000C2C08BF022E7FF4D5AE3868410502D5B0
:102E4000E8680028EBD07868296920F0F85040EA5B
:102E5000016078602878010711D568690028D7F8E3
:102E600094003FF4E9AE40F00100C7F8940000F090
:102E700001FA0646D7F8940081077FF5A9AE2878B5
:102E8000410739D5B86D0026C10009D4B86D40F0AE
:102E90008050B8650126B86D00F080500090009811
:102EA000DFF86483D8F80000C10517D4D8F8000013
:102EB00040F48070C8F8000000F0DCF94FEA000927
:102EC000D8F80000C10509D400F0D4F9A0EB09003E
:102ED0000328F5D3032001B0BDE8F083A8680128DA
:102EE0007FF4C0AED7F8900040F00100CFE61EB1ED
:102EF000B86D20F08050B865A86A002848D0022834
:102F00007FF44AAFF868EA6A00F00301914201BF1A
:102F100000F070012A6B521EB1EB021F7FF4F7AE76
:102F20006A6B00F4FE41B1EB022F7FF4F0AEA96BA7
:102F300007290CBF00210121D5E6FA68DFF8CC1281
:102F4000E86A0A40296B0243491E686B42EA011293
:102F5000E96B490842EA0022286C491E400842EA0F
:102F60004152401E42EA4062A86B000942EA4042D8
:102F7000FA60386840F080703860F96841F080711C
:102F8000F96000F077F90546386881017FF5DEAE1B
:102F9000002001B0BDE8F0832DE9F043040081B0CA
:102FA000884600F08480DFF86862306800F007002F
:102FB000404509D23168C90848EAC101316030682A
:102FC00000F00700404572D12078DFF82852C10791
:102FD00055D56068032802D129688A0108E00228D3
:102FE00002D129688A0303E00028296805D18A07ED
:102FF00005D4012001B0BDE8F0834A0557D5A96882
:10300000890840EA8100A86041F2893900F032F96C
:103010000746A868616800F00C00B0EB810F2ED065
:1030200000F028F9C01B4845F3D3032001B0BDE8E8
:10303000F0832078410705D5AA68E06822F4E062B1
:103040000243AA602178080706D5A968206921F4FF
:10305000605141EAC001A96000F02DF8AA686849F2
:10306000C2F30312895C644A01B001F01F01C84039
:103070001060BDE8F0436148006800F0D7B82078E0
:10308000810705D5AA68A06822F0F0020243AA6071
:10309000316801F007018845CBD23068C00848EAA2
:1030A000C0003060316801F007014145C1D0012006
:1030B00001B0BDE8F0834F4B9968D3F80CC00022F3
:1030C000002011F00C010CF0030C04D00C2914D1D9
:1030D000BCF1010F1BD11A685FEA027CDFF838C12E
:1030E00059BFD3F89420C2F303221A68C2F3031223
:1030F0005CF8222049B910467047042901D147489D
:10310000704708291ED1464870470C291AD1D86843
:1031100000F00300022803D0032808BF404A00E063
:103120003E4AD968D868DB68C0F306204243C1F341
:103130000210C3F34161401C491CB2FBF0F049008E
:10314000B0FBF1F070472C48324A006813683549EB
:10315000C3F30222895C01F01F01C8407047264872
:103160002C4A006813682F49C3F3C222895C01F01E
:103170001F01C840704770B52B4E82B004463068BE
:103180000025C10002D500F07BF80EE0306840F069
:1031900080503060316801F080510091009800F05B
:1031A0006FF8316821F080513160B0F5007F05D1B2
:1031B000802C0DD9A12C0AD3022509E0802C88BFD0
:1031C000032505D801D1022502E0702C00D101258C
:1031D000D6F8A80FC00845EAC000C6F8A80FD6F870
:1031E000A80F00F00700A84214BF0120002002B081
:1031F00070BD000000100240C0060020B006002094
:1032000000760008FFFFEEFE007000408C809DF904
:103210000020024008100240107600080024F4004C
:1032200000127A00607700085810024070B50F4E07
:103230000446B0680025A8B14FF47A710C4AB1FB7E
:10324000F0F11068B0FBF1F000F063F850B9102C09
:1032500008D2002221464FF0FF3000F026F87460BB
:10326000284670BD0125284670BD00BFAC06002071
:10327000C006002001480068704700BFAC0600206F
:10328000DFF80800006800F4C0607047007000407C
:10329000284B19684FF6FF020002114000F4E0606D
:1032A0000843254908431860704730B4214B1C6817
:1032B000C4F30223C3F10704052C28BF04241D1DF9
:1032C000072D34BF0023DB1E012505FA04F4641E1C
:1032D0002140994005FA03F35B1E1A40114309018E
:1032E000020003D41548815430BC7047144B02F0DF
:1032F0000F021A4402F8041C30BC7047010007D4C6
:10330000012200F01F010F4B8A40400943F82020A2
:103310007047401EB0F1807F01D3012070470A49F9
:103320004860F02081F8130D00228A6007200860B1
:10333000002070470CED00E00000FA0500E400E01A
:1033400018ED00E000E100E010E000E010B504003E
:1033500001D1012010BD94F8410028B9002184F862
:103360004010204600F035FC242084F841002068FD
:1033700001684908490001606068216820F07060B8
:1033800008612068816821F400418160E06821685B
:103390000128A0680CBF40F4004040F4044088605D
:1033A000E068022803D120684FF400614160206882
:1033B000416841F0007141F4004141602068C168FA
:1033C00021F40041C16060692169A269014320685C
:1033D00041EA0221C160206AE1692268014311606B
:1033E0002068016841F00101016000206064202133
:1033F00084F84110206384F8420010BD10B5040029
:1034000001D1012010BD242084F84100206801680A
:10341000490849000160204600F001FC002060647A
:1034200084F84100206384F8420084F8400010BD15
:103430002DE9F04F054683B095F8410020280E464F
:1034400092469B4640F0D480DDF83090B9F1000FF1
:1034500002D00D9F380006D14FF40071696401203D
:1034600003B0BDE8F08F95F84000012800F0C0805F
:10347000012185F84010FFF7FDFE8046286881692C
:10348000080440F1B980FFF7F5FEA0EB08001A2808
:10349000F4D3686C40F020006864202185F8411066
:1034A000002085F8420085F8400003B00120BDE807
:1034B000F08F688DDFF8B873B0F5807FC6F309062A
:1034C0002FD3FF212985DFF8AC0329684A683A40E9
:1034D000324302434A60286881698A072DD44246F4
:1034E0002146284600F0C9FA002869D114F1010FDD
:1034F000F1D0FFF7BFFEA0EB0800844201D3002CFF
:10350000E9D1686C40F020006864202185F8411002
:10351000002085F8420085F8400003B00120BDE896
:10352000F08F688D2885C0B229684A683A403243D6
:1035300042EA004242F00072CCE7696A0A7882628D
:10354000686A411C6962688D411E6985288D411E2B
:103550002985688D58B389B249BB286881690A06F4
:103560006AD414F1010FF8D0FFF784FEA0EB080035
:10357000844201D3002CF0D1686C40F020006864D4
:10358000202185F84110002085F8420085F8400090
:1035900003B00120BDE8F08F698D2985C9B242686A
:1035A0003A40324342EA014242F000724260688D82
:1035B000002890D121464246284600F039FA18B139
:1035C000012003B0BDE8F08F29682020C861296878
:1035D000DFF8A4024A6802404A60202185F84110C1
:1035E000002085F8420085F8400003B0BDE8F08F68
:1035F000022003B0BDE8F08F0E9C212085F8410029
:10360000402185F8421000206864C5F824906F8539
:1036100068635B465246CDF80480009431462846E4
:1036200000F033F900283FF444AF002085F8400053
:1036300003B00120BDE8F08F698DB1F5807FABD379
:10364000FF222A854168DFF82C223940314311439B
:103650004160ACE72DE9F04F074683B097F8410091
:1036600020280E4692469B4640F0CE80DDF83090F2
:10367000B9F1000F1CBFDDF83480B8F1000F06D19E
:103680004FF400717964012003B0BDE8F08F97F822
:103690004000012800F0B880012187F84010FFF7B2
:1036A000E9FD054638688169080440F1B180FFF7FB
:1036B000E1FD401B1A28F5D3786C40F020007864B7
:1036C000202187F84110002087F8420087F8400049
:1036D00003B00120BDE8F08F788DDFF8A011B0F5C0
:1036E000807FC6F3090627D3FF223A85DFF89001D1
:1036F0003A68536819403143014351603868816921
:103700004A0727D414F1010FF8D0FFF7B3FD401B8F
:10371000844201D3002CF1D1786C40F02000786411
:10372000202187F84110002087F8420087F84000E8
:1037300003B00120BDE8F08F788D3885C0B23A68BB
:1037400053681940314341EA004141F0024141F4DC
:103750001051D2E7406A796A0870786A421C388D45
:103760007A62411E3985788D421E7A85788D50B3F4
:1037700089B241BB386881690A0669D414F1010F26
:10378000F8D0FFF777FD401B844201D3002CF1D124
:10379000786C40F020007864202187F841100020E8
:1037A00087F8420087F8400003B00120BDE8F08FA1
:1037B0007A8D3A85D2B243681940314341EA0241D9
:1037C00041F000714160788D002897D12A4621464A
:1037D000384600F02DF918B1012003B0BDE8F08F94
:1037E00039682020C8613968DFF88C004A680240D7
:1037F0004A60202187F84110002087F8420087F8AE
:10380000400003B0BDE8F08F022003B0BDE8F08FA8
:103810000E9C222087F84100402187F842100020AA
:103820007864C7F82490A7F82A8078635B465246EC
:10383000019500943146384600F076F800283FF4B0
:103840004BAF002087F8400003B00120BDE8F08FA7
:103850007A8DDFF81C10B2F5807FA9D3FF233B855A
:103860004268DFF81030114031431943AAE70000E5
:10387000009C00FC0000FF0100E800FE009800FC36
:103880000024FF8190F8410070472DE9F041054682
:1038900016462A68069C079F2248984653680340AC
:1038A000C1F3090119435FFA88F041EA004141F090
:1038B000014141F4005151603A462146284600F04A
:1038C0008FF840BBB8F1010F08D02968300A886230
:1038D0003A462146284600F083F8E0B92868F6B257
:1038E000866229688869010618D414F1010FF8D09E
:1038F000FFF7C0FCC01B844201D3002CF1D1202172
:10390000686C40F02000686485F84110002085F85C
:10391000420085F840000120BDE8F0810020BDE8AC
:10392000F0810000009800FC2DE9F04105461646A4
:103930002A68069C079FDFF8C40198465368034035
:10394000C1F3090119435FFA88F041EA004141F0EF
:10395000004141F4005151603A462146284600F0AA
:103960003FF840BBB8F1010F08D02968300A8862DF
:103970003A462146284600F033F8E0B92868F6B206
:10398000866229688869410618D414F1010FF8D0BD
:10399000FFF770FCC01B844201D3002CF1D1202121
:1039A000686C40F02000686485F84110002085F8BC
:1039B000420085F840000120BDE8F0810020BDE80C
:1039C000F0810000006881698A0744BF002181629C
:1039D0008169CA0703D4816941F00101816170479F
:1039E00070B505460C4616462868816988071DD4BF
:1039F00032462146284600F040F8A8B914F1010FDC
:103A0000F2D0FFF737FC801B844201D3002CEBD1AE
:103A1000686C40F020006864202185F84110002087
:103A200085F8420085F84000012070BD002070BD7F
:103A300070B505460C4616462868816988061AD472
:103A400032462146284600F018F890B9FFF712FCDC
:103A5000801B844201D3002CEED1686C40F0200022
:103A60006864202185F84110002085F8420085F81F
:103A70004000012070BD002070BD70B505460C46A9
:103A800028688169C80616461BD5286881698A0698
:103A900019D414F1010FF8D0FFF7ECFB801B84421E
:103AA00001D3002CF1D1686C40F020006864202123
:103AB00085F84110002085F8420085F8400001207B
:103AC00070BD002070BD1021C16120202A68D06126
:103AD0002846FFF777FF296809484A6802404A608C
:103AE0002020696C41F00401696485F841000021DF
:103AF00085F8421085F84010012070BD009800FC48
:103B000000E800FE10B54B4CB4B0206840F0805087
:103B10002060216801F080510091009800F094F835
:103B20004549086890B90C210191002201210B92AE
:103B30000391069201A8FEF76DFF08B100F0D9FAD3
:103B40004FF4003112914FF4807211E00C21019179
:103B5000002201210B920691039201A8FEF75AFF61
:103B600008B100F0C6FA4FF4003112914FF4007220
:103B7000339212A800F0ECFA08B100F0BAFAA06B88
:103B800040F40040A06300220F212920FFF78DFBA5
:103B90002920FFF7B3FB34B010BD006827498842E5
:103BA00000D0704700B5234881B0026842F002029D
:103BB00002600022006800F0020000900F210098CF
:103BC0001D20FFF772FB01B05DF804EB1D20FFF72D
:103BD00095BB00B51A4887B0C16841F40011C160B7
:103BE000C16801F4001100910099026842F00202DC
:103BF00002604FF44071006800F002000090122251
:103C0000009810480191029201210391032204219E
:103C10000591049201A900F07DFD07B000BD0548A3
:103C2000016821F4001101604FF44071054800F073
:103C30005FBE000058100240DC0800200004004075
:103C40004C100240000400480248016841F48071B1
:103C5000016070470070004030B581B0DFF8D44497
:103C60002DED028BADF5267D00F0E8FE00F0F6FEAE
:103C700000220E214FF0FF30FFF717FB002000F06D
:103C8000ABFF0121002000F0EDFFDFF8AC0401687C
:103C900041F4805101600321006800F480500090DD
:103CA0009FEDAD8A0098002001F036F80421022033
:103CB00001F032F8B0EE480A0221002001F026F9A6
:103CC00004220221002001F03FF9B0EE480A01F081
:103CD0007BFA01A90AA801F08BFA04F17C0001F03B
:103CE00013FBDFF85804DFF85814E067C4F88010BD
:103CF00004F17C0001F01EFB00210291039104916C
:103D000002A801F06BFAB0EE480A01F069FA01F07E
:103D1000C9FB0C211391002201211D9215911892CB
:103D200013A8FEF777FE00281ABF0120F921FF2112
:103D3000E1600A467F21DFF80C34A1601860C4F806
:103D40009C204021DFF80004206000226160226195
:103D5000A261E261204601F00FFC60B1002000F09A
:103D600063FF642001F002FE002000F06CFF64207D
:103D700001F0FCFDF2E701218DF8031001228DF81E
:103D800002108DF801208DF800206946204601F0D0
:103D9000DAFC60B1002000F047FF642001F0E6FD8E
:103DA000002000F050FF642001F0E0FDF2E7002168
:103DB000059108910991012205A9204601F02AFCEC
:103DC00060B1002000F030FF642001F0CFFD002042
:103DD00000F039FF642001F0C9FDF2E7DB486062C2
:103DE00049F63F41A1620020E06227216063216320
:103DF00004F1240001F0D0FD4FF48050139013A97A
:103E000004F1240001F0C0FE00210591079104F1A6
:103E1000240005A901F0D8FF002000F005FF4FF4B1
:103E2000FA7001F0A3FD002000F00DFF642524A826
:103E300001F09CFA012807D09DF89400322804BFB5
:103E400024A802F019F800BF94F894000128EED1DC
:103E5000002184F89410002205A9204601F03FFCBF
:103E600000226946204601F0C1FC9DF81400069925
:103E70008DF89B019DF815008DF89C019DF81600AA
:103E80008DF89D01D4F89C00411A6943401C91FBB8
:103E9000F0F08DF89E01D4F89800C10618D504F111
:103EA00064020221002001F00DF8616E6AA804226C
:103EB000C01C02F06DF9A16E6BA80422C01C02F0B8
:103EC00067F9E16E6CA80422C01C02F061F900BF22
:103ED000D4F89800810617D504F170020121002062
:103EE00000F0F0FF216F6DA80422C01C02F050F911
:103EF000616F6EA80422C01C02F04AF9A16F6FA87E
:103F00000422C01C02F044F9D4F89800410616D5EA
:103F100005AA0421022000F0D5FF059970A804220B
:103F2000C01C02F035F9069971A80422C01C02F0E9
:103F30002FF9079972A80422C01C02F029F965A87C
:103F400000F00CF865A801F08DFF7720659065A85A
:103F500001F082FA6BE7000000004842DFED740ACE
:103F600030B5744D95ED190AB8EEC00AC0EE200ABE
:103F700095ED1A0AB8EEC00A8DB00446CDED070AD9
:103F8000DFED6B0AC0EE200ACDED080ADFED680A0E
:103F900095ED1B0AB8EEC00AC0EE200ACDED090A65
:103FA000DFED630A95ED1C0AB8EEC00AC0EE200AE8
:103FB000CDED0A0ADFED5E0A95ED1D0AB8EEC00AE6
:103FC000C0EE200ACDED0B0A002095ED1E0AB8EEDA
:103FD000C00ADFED570A0090C0EE200ACDED0C0AB2
:103FE00000F022FE6A4604A907A801F0F5F80020B7
:103FF00000F029FE01A905F1700001F0FFF89DED28
:10400000040A01F061F90146042204F13B0002F0C8
:10401000BFF89DED050A01F057F90146042204F1AD
:104020003F0002F0B5F89DED060A01F04DF901469A
:10403000042204F1430002F0ABF80199042204F1D8
:10404000470002F0A5F80299042204F14B0002F0A7
:104050009FF80399042204F14F0002F099F80099A7
:10406000042204F1530002F093F80DB030BD00B506
:1040700081B08DF803008DF801108DF802208DF8C5
:104080000030002269462B4801F05DFB60B1002042
:1040900000F0CAFD642001F069FC002000F0D3FDAF
:1040A000642001F063FCF2E701B000BD10B586B0FA
:1040B00000248DF802208DF800008DF801100022F8
:1040C0000192039204928DF803406946194801F069
:1040D000A1FA60B1002000F0A7FD642001F046FCC9
:1040E000002000F0B0FD642001F040FCF2E706B0D3
:1040F00010BD00B581B0002000F096FD642001F0F5
:1041000035FC002000F09FFD642001F02FFCF2E759
:10411000704700680D49884208D10648012280F89E
:104120009420D0F8A010491CC0F8A01070470000DF
:1041300000007A44EC070020481002406F12033C54
:104140009A99193EDC080020002800400004004035
:104150002DE9F047054682B02868DFF85C63002748
:104160000105B84625D5686E70B1B0F5800F18D03E
:10417000B0F5000F03D0B0F5400F0AD017E0326859
:1041800042F48032326005E00021281D00F096F9EB
:1041900007466FB9F16F686E21F440010143F16782
:1041A00007E0002105F1200000F022FAF0E70127E6
:1041B000B8462868C10426D5A86EA8B1B0F1807FA2
:1041C00018D0B0F1007F03D0B0F1407F04D018E0E8
:1041D000316841F480313160A7B9F16FA86E21F0E8
:1041E00040710143F1670EE00021281D00F066F9DF
:1041F0000746F1E7002105F1200000F0F9F9074634
:10420000EAE70127B846286881032BD5F06C002423
:10421000C10009D4F06C40F08050F0640124F06CCF
:1042200000F0805000900098DFF8C093D9F80000AB
:1042300040F48070C9F80000FFF71CF84FEA000A4C
:10424000D9F80000C10500F10281FFF713F8A0EBD7
:104250000A000328F4D30327B8461CB1F06C20F001
:104260008050F0642878C10705D5F26FA86B9208DA
:1042700040EA8202F2672978880705D5F16FE86B7A
:1042800021F00C010143F1672978480705D5F16F4A
:10429000286C21F030010143F1672978080705D522
:1042A000F16F686C21F0C0010143F1672978C806FD
:1042B00005D5F16FA86C21F440710143F1672978AD
:1042C000880605D5F16FE86C21F440610143F16780
:1042D0002968880505D5F16FE86D21F44021014377
:1042E000F1672968480505D5F16F286E21F4401162
:1042F0000143F1672978480605D5F16F286D21F44F
:1043000040510143F1672978080605D5F16F686DC2
:1043100021F440410143F1672968C80505D5F16FD3
:10432000A86D21F440310143F1672968880422D542
:10433000F16FE86E21F040610143F167E86EB0F182
:10434000006F0ED1306840F48010306013E000BF81
:10435000FEF790FFC01B4845C0F09E804FF0030859
:104360007BE7B0F1806F06D10121281D00F0A6F88F
:10437000010018BF80462868010318D5F26F286F26
:1043800022F040620243F267286FB0F1006F04D15F
:10439000306840F48010306009E0B0F1806F06D1E1
:1043A0000121281D00F08AF8010018BF8046286806
:1043B000410318D5F26F686F22F040620243F26742
:1043C000686FB0F1006F04D1306840F48010306045
:1043D00009E0B0F1806F06D10121281D00F06EF8D0
:1043E000010018BF80462868410419D5F26FA86FF4
:1043F00022F040520243F267A86FB0F1805F04D10F
:104400000221281D00F05AF807E0B0F1005F07D143
:10441000022105F1200000F0EBF8010018BF8046F2
:104420002868010405D5F26FE86F22F0804202434C
:10443000F2672968C80306D5F16FD5F8800021F02E
:1044400000410143F167404602B0BDE8F087002F0C
:104450007FF402AFD6F8840010F440701CBFD5F88A
:104460008410884211D0D6F88400D6F8841041F424
:104470008031C6F8841020F44070D6F8841021F4FE
:104480008031C6F88410C6F88400C00709D5FEF74D
:10449000F1FE074641F28939D6F8840081077FF59D
:1044A00057AFD6F88420D5F8840022F44072024336
:1044B000C6F88420D1E600000C1002402DE9F0413E
:1044C0000746DFF8406238680C46F168002511F0B5
:1044D000030F11D0F16801F00301814243D100289C
:1044E00041D0F0687968C0F30210401C884219D0AE
:1044F00001252846BDE8F081012807D033D30328E1
:104500002BD023D301252846BDE8F08132689107DE
:1045100029D5F268796822F073021043491E40EAF7
:104520000110F060306820F080603060FEF7A2FE7D
:1045300080463068010144D5FEF79CFEA0EB0800E0
:104540000328F6D303252846BDE8F08131684A05E3
:10455000DFD401252846BDE8F08131688A03D8D42C
:1045600031684A03D5D401252846BDE8F081012CE5
:10457000326909D13B69644802405B0842EA012183
:104580005B1E41EA435108E07B69604802405B08DA
:1045900042EA01215B1E41EA43613161306840F02B
:1045A00080603060FEF766FE04463068010115D475
:1045B000FEF760FE001B0328F7D303252846BDE85D
:1045C000F081B968002CD2D132695148FB680240B1
:1045D00042EA01211B0941EA4341DEE73169B8693A
:1045E000014331612846BDE8F081000000700040C1
:1045F0002DE9F0410746434E38680C46F168002526
:1046000011F0030F11D0F16801F00301814243D191
:10461000002841D0F0687968C0F30210401C88423D
:1046200019D001252846BDE8F081012807D033D3F1
:1046300003282BD023D301252846BDE8F08132681A
:10464000910729D5F268796822F073021043491E58
:1046500040EA0110F060306820F080503060FEF7D2
:1046600009FE80463068810037D5FEF703FEA0EBD7
:1046700008000328F6D303252846BDE8F0813168F9
:104680004A05DFD401252846BDE8F08131688A0358
:10469000D8D431684A03D5D401252846BDE8F08135
:1046A0003B691A4802405B0842EA01215B1E41EA6D
:1046B00043617161306840F080503060FEF7DAFD90
:1046C00004463068810015D4FEF7D4FD001B032892
:1046D000F7D303252846BDE8F081B9687269002C3C
:1046E000DED10B48FB68024042EA01211B0941EA86
:1046F0004341DEE771697869014371612846BDE88D
:10470000F081000000100240FF809FFFFF80FFF952
:10471000FF80FDFF2DE9F04F81B00E464FF00009FC
:104720003568BC49BC4ABD4B002D4FF00F0800F066
:10473000DC8005460124306804FA09F4204000F0CA
:10474000CD804FEA490C032707FA0CF76FEA070EF2
:104750007768012F18BF022F03D0112F18BF122F17
:1047600014D1AF68D6F80CA00EEA07070AFA0CFAC3
:104770004AEA0707AF606F68D6F804A0CAF3001AC8
:10478000A7430AFA09FA4AEA07076F60776807F051
:10479000030ABAF1030F09D1D5F82CA0C7F3C0075B
:1047A0002AEA040407FA09F73C43EC62EC68B768AC
:1047B0000EEA040407FA0CF73C43EC607468022C20
:1047C00018BF122C14D14FEAD90405EB84044FEA28
:1047D0008907D4F820A007F01C0708FA07FB2AEA8B
:1047E0000B0AD6F810B00BFA07F747EA0A07276258
:1047F0002C680EEA0407347904F0030404FA0CF47C
:104800003C432C607468E40068D51C6844F00104E3
:104810001C604FEA990C1C6804F001040094B5F187
:10482000904F009C52F82C704FEA890404F00C0E53
:1048300008FA0EF427EA040408BF00271ED0784FB8
:10484000BD4208BF012719D0764FBD4208BF0227DD
:1048500014D0754FBD4208BF03270FD0734FBD4220
:1048600008BF04270AD0724FBD4208BF052705D0F4
:10487000704FBD420CBF0627072700BF07FA0EF78F
:104880003C4342F82C406FEA000C0C680CEA040E22
:104890007468E70348BF40EA0E0EC1F800E04C68B8
:1048A0000CEA040E7468A70348BF40EA0E0EC1F874
:1048B00004E08C680CEA040E7468E70248BF40EA22
:1048C0000E0EC1F808E0CC680CEA040E7468A4026D
:1048D00048BF40EA0E0EC1F80CE000BF09F1010923
:1048E000306830FA09F07FF425AF01B0BDE8F08FF1
:1048F0002DE9F04F0F228846B8F1000F4FF0000B62
:104900004449454B75D00446012000FA0BFC1CEAD3
:10491000080069D04FEA9B0E4FEA8B0753F82E60D0
:1049200007F00C0502FA05F909EA060AB4F1904FFE
:1049300008BF00261ED03A4EB44208BF012619D047
:10494000384EB44208BF022614D0374EB44208BFD6
:1049500003260FD0354EB44208BF04260AD0344E89
:10496000B44208BF052605D0324EB4420CBF06261D
:10497000072600BF06FA05F5AA4512D10D68C04307
:1049800005400D604D6805404D608D6805408D60A7
:10499000CD682840C86053F82E0020EA090043F88B
:1049A0002E0003254FEA4B0005FA00F02568054369
:1049B000256007F01C074FEADB0504EB850602FAC9
:1049C00007F7356A25EA07073762C043A76807403B
:1049D000A7606FEA0C0566682E406660E76838409D
:1049E000E060E06A2840E0620BF1010B38FA0BF05E
:1049F0008AD1BDE8F08F0AB181617047816270474A
:104A00000D4A136803421CBF1060FFF781BB70475B
:104A10000000000000040140080001406010024056
:104A20000004004800080048000C0048001000483E
:104A3000001400480018004814040140032010B579
:104A4000FEF726FC0F20FEF7F1FB0024002814BF20
:104A5000012400F002F8204610BD704730B597B031
:104A600069460022002300241CC10CC105A8442172
:104A700001F0AAFB602100220D910C920221282254
:104A80000F911292159107220421102501241392EF
:104A9000149105950B941094119405A8FDF7BAFF95
:104AA00008B1FFF726FB0F2003210090019100229F
:104AB00002920392049204216846FEF76DFA08B14F
:104AC000FFF717FB17B030BD0168354A35489142F2
:104AD00026D3354AD0F80004914208BF082148D0B7
:104AE000324A914208BF802143D0314A914208BFE7
:104AF0004FF400613DD02F4A914208BF4FF400416E
:104B000037D02D4A914208BF4FF4002131D02B4AB3
:104B1000914214BF4FF000614FF40001084070470C
:104B2000274A0068914205D0264B994205D1802141
:104B300008407047082108407047234A914206D038
:104B4000224B994207D14FF40041084070474FF47F
:104B50000061084070471E4A914208D01D4B99429F
:104B60000CBF4FF400014FF00061084070474FF454
:104B7000002108407047006840687047154901608F
:104B800000228260C2604261826180212022016134
:104B9000C2614FF44051022201624260704700003E
:104BA0008100024000000240080402401C04024050
:104BB0003004024044040240580402406C040240A5
:104BC000080002401C000240300002404400024045
:104BD000580002406C00024010B586B001A90022C6
:104BE000002300241CC10CC102000AD1DFF80C1103
:104BF0000A6842F001020A60096801F001010091AF
:104C000000990FF2081232F810300193012202923B
:104C100003940222049201A9DFF8E42052F8200054
:104C2000FFF778FD06B010BD10B40FF2E003DFF817
:104C3000D04081B033F8101054F8200001B010BCFF
:104C40000122FFF7D8BE10B40FF2C003DFF8B04066
:104C500081B033F8101054F8200001B010BC0022CD
:104C6000FFF7C9BE30B587B0044601A80022002373
:104C700000252CC00CC022000AD1DFF88000026899
:104C800042F004020260006800F004000090009806
:104C9000080011D10FF2780131F81420019202932B
:104CA00003930223DFF85C20049301A952F8240047
:104CB000FFF730FD07B030BD01291DD10FF25001C3
:104CC000DFF8400031F81420DFF83C100291019227
:104CD00002210393049101A950F82400FFF71AFD63
:104CE0000FF2300030F8144000220F2160B2FEF7BE
:104CF000DCFA60B2FEF702FB07B030BD4C10024098
:104D0000B8060020BC060020000021102000000092
:104D100000200000280000002DE9F04104004FF0C1
:104D2000000888B00D46474605D0022C45D03AD33E
:104D30006FF0010884E0284600F029F9002840D1EE
:104D4000DFF85024906B526C6946D368984700286E
:104D500045D19DF80000DFF83C6401289DF8010072
:104D600008BF022701289DF8020008BF47F001078D
:104D7000012808BF47F00407E80735D5F90733D500
:104D800004EB440106EB8101B26A51F822100B6872
:104D900006EB8400806B9847002825D06FF0040054
:104DA00008B0BDE8F081284600F04EF948B9DFF8B8
:104DB000E423D06B926C6946C7E7284600F098F967
:104DC00020B14FF0FF3008B0BDE8F081DFF8C42318
:104DD000106CD26CD368694698470028B9D06FF040
:104DE000060008B0BDE8F08105F00200022804BF0B
:104DF00007F0020102290DD104EB440106EB810109
:104E0000F26A51F822100B6806EB8400806B984719
:104E10000028C3D105F00405042D04BF07F00407E2
:104E2000042F0DD104EB440106EB8101726B51F8A4
:104E300022100B6806EB8400806B98470028ADD1E8
:104E4000404608B0BDE8F08110B50246032A17D2EB
:104E5000DFF8403303EB8200046D0C408C420FD12D
:104E600002EB420403EB810103EB84024B6A52F82C
:104E70002310806B0A68904720B16FF0040010BDCA
:104E80006FF0010010BD10B50246032A17D2DFF8FB
:104E9000043303EB8200046D0C408C420FD102EB13
:104EA000420403EB810103EB84024B6A52F82310A6
:104EB000806B4A68904720B16FF0040010BD6FF01E
:104EC000010010BD30B503460C46032B81B01146DE
:104ED00018D2DFF8C02202EB8300056D2540A54201
:104EE00010D103EB430502EB850302EB8402546A05
:104EF00053F82420806BD369984728B16FF00400E1
:104F000001B030BD6FF0010001B030BD10B50246F8
:104F1000032A16D29F4B03EB8200046D0C408C4297
:104F20000FD102EB420403EB810103EB84024B6AD5
:104F300052F82310806B0A69904720B16FF004008B
:104F400010BD6FF0010010BD30B503460C46032BB9
:104F500081B0114617D28F4A02EB8300056D2540C0
:104F6000A54210D103EB430502EB850302EB84025B
:104F7000546A53F82420806B9369984728B16FF0E6
:104F8000040001B030BD6FF0010001B030BDD72189
:104F9000814A70B590B004468DF81010019200253A
:104FA0007E497F4A7B4E02910692039506F15C0092
:104FB0007C497D4A0591079201A9FBF7E5F850B9B4
:104FC000694606F15C00FBF791F9002804BF9DF8E3
:104FD00000006B2804D06FF00605284610B070BDA5
:104FE00008A906F15C00FBF78BF99DF821009DF8FC
:104FF000202040EA42019DF8222041EA82013165E9
:10500000E20706F15C01B1636849716408D50128C3
:1050100006D16748306006F15C000968884770B9BE
:10502000A0070AD59DF82010012906D16148716CAE
:1050300070600A68B06B904708B9600701D56FF0DF
:105040000405284610B070BD3321534A70B590B0A6
:1050500004468DF81010019200255049504A4D4EDB
:1050600002910692039506F18C004E494E4A059135
:10507000079201A9FCF71CFA50B9694606F18C00A9
:10508000FCF79BFA002804BF9DF80000442804D0D8
:105090006FF00605284610B070BD08A906F18C0017
:1050A000FCF795FA9DF821009DF8201040EA410098
:1050B0009DF8221040EA8100706506F18C00F063D3
:1050C000A0073D49B1640AD59DF82020012A06D1E8
:1050D0003A48306106F18C000968884718B9E00742
:1050E00001D4600701D56FF00405284610B070BDEB
:1050F0003D21294A70B590B004468DF810100192F8
:1051000000252649264A234E02910692039506F170
:10511000C0002449244A0591079201A901F058F8DA
:1051200050B9694606F1C00001F0C5F8002804BF77
:105130009DF80000402804D06FF00605284610B006
:1051400070BD08A906F1C00001F0BFF89DF821105C
:105150009DF820209DF8220041EA420141EA8001A9
:10516000B165620706F1C00131641549F16408D5E3
:10517000012806D11348306206F1C000096888474B
:1051800018B9A00701D4E00701D56FF0040528463F
:1051900010B070BD68050020B173000813740008DA
:1051A000637400083B7400089D74000854060020D6
:1051B000880600206406002000050020100500205D
:1051C000340500204405002000B52DED010A684695
:1051D00001F084F901B000BDFCF7C2BF01F00CBAC8
:1051E00000B52DED010A684601F018FA01B000BDC6
:1051F00010B50C4601F026FA206010BD30B583B022
:1052000004460D46684601F041FA9DED000AB5EEF0
:10521000400ADFED3C0AF1EE10FA20EE201A08DB1E
:10522000B6EE000A31EE000ABDEEC00A10EE100A1A
:1052300007E0FEEE001A31EE211ABDEEC11A11EEA2
:10524000100A216800B2081A28609DED010AB5EE27
:10525000400AF1EE10FA20EE201A08DBB6EE000A42
:1052600031EE000ABDEEC00A10EE100A07E0FEEEB5
:10527000001A31EE211ABDEEC11A11EE100A616852
:1052800000B2081A68609DED020AB5EE400AF1EE20
:1052900010FA60EE200A08DBB6EE000A30EE800A53
:1052A000BDEEC00A10EE100A07E0BEEE001A70EE66
:1052B000810AFDEEE00A10EE900AA16800B2081A19
:1052C000A86003B030BD0000B5EE400ADFED0D0A66
:1052D000F1EE10FA60EE200A09DBB6EE000A30EEBD
:1052E000800ABDEEC00A10EE100A00B27047BEEE92
:1052F000001A70EE810AFDEEE00A10EE900A00B28C
:105300007047000000007A44094B1A7802B97047D0
:1053100030B49A681D69DC69996942605A685B69B2
:105320008560446101610260C36030BC704700BFAA
:10533000C40600200C4B1A78AAB130B481684468C6
:10534000C26805699C601961446900685A614FF040
:105350007C519D61DC615860D96012B9012283F8EB
:10536000162130BC70477047C40600202DE9F04F6D
:105370008346DFF8F88181B008F18000FFF7A4FBD5
:105380000027002864D108F18000FFF7F4FBB8F88B
:10539000CC40C0F5007080B2A042AEBF051B00F546
:1053A00000752D1BADB2002D0090B94640F3498029
:1053B00008F1D000005D641CA4B2B4F5007FA8BF62
:1053C0000024F02839D1B8F8CC404FF0000A09E0A9
:1053D0000419211204EBD1525212A4EB4224A4B2BC
:1053E0007F1C82441FFA8AF0484519DA08F1D00080
:1053F000661CC6F30806005D08F1D001BBB2895DEA
:105400005B441A1D00F047FEC0B20028E0D1A8F8A6
:10541000CC6001B0BDE8F08F012001B0BDE8F08F95
:10542000B8B2641CCBF80000C4F30804A8F8CC4060
:10543000584600F063FE0028EED109F10109A945A4
:10544000B6DB40F201108542A4BF0099A8F8CC1049
:10545000002001B0BDE8F08F30B581B0044600F007
:105460002BFE424D214605F5357000F0F1FD82B26C
:1054700005F53571284601B0BDE8304041F288336A
:1054800001F046B910B5394C04F18000FFF776FB06
:1054900004F1800001F0D4FC04F18000C4F8A840BD
:1054A000E06610BD10B53248304C86B0416841F01E
:1054B000010141600723416801F001010091009959
:1054C000426842F001024260416801F0010100912E
:1054D0000099026942F400320261016901F400316D
:1054E00000910099026842F0010202600421006804
:1054F00000F0010000900222009801910292002128
:1055000003910492059301A94FF09040FFF702F92F
:10551000082101910722059201A94FF09040FFF761
:10552000F9F8144820600020D4F8D012A060E060A0
:105530002061A06161600C206061204601F0B6F836
:1055400000B1FEE7FFF79EFF04F1D00060654FF465
:105550000071A4F858100020E0670A4604F1D00159
:10556000204601F07BF906B010BD000000000020CD
:10557000481002400044004030B504460120002C91
:1055800081B045D094F8210028B9002184F820107A
:105590002046FEF7B7FA022184F82110CA202268BB
:1055A0005062532120684162204600F04FF901000B
:1055B0002ED12168DFF86C038A6802408A60226875
:1055C000936865682169A0690D4305432B43936087
:1055D0002068E168016120680169A26841EA02412E
:1055E0000161204600F055F9010011D12168CA6C13
:1055F00092089200CA642268D36CE56961690D4320
:105600002B43D364FF2223685A62012184F82110BE
:1056100001B030BDF0B5054681B095F820000128F5
:105620000E46144608BF022057D0012085F82000FE
:10563000022185F82110CA202A6850625321286867
:105640004162284600F002F901003BD128688068D9
:10565000002C15D141065CBF0020F070307800F0BE
:1056600069F90746707800F065F90402B07800F037
:1056700061F944EA07440443F07844EA80540DE0B9
:1056800041065CBF0020F07074783178B078240255
:1056900044EA0144F178044344EA81542968DFF87C
:1056A000880204400C602868826822F480228260AC
:1056B00029688A68F368306903431A438A60284678
:1056C00000F0E7F82A68FF215162030004BF0121BE
:1056D00085F82110002285F8202001B0F0BD30B4FB
:1056E0000068836A4B600469C4F30E048C6003682D
:1056F000DFF8340203401C0C04F03F040C708B7084
:105700001D0A9B0D4D70CB70D2B90878020902EBCF
:10571000820300F00F0000EB430008704878020994
:1057200002EB820300F00F0000EB43004870887822
:10573000020902EB820300F00F0000EB43008870C7
:10574000002030BC7047F0B5044681B094F82000CA
:1057500001280E4608BF02203CD0012084F820001A
:10576000022184F821107578B2BBE80603D505F054
:10577000EF050A357570F07800F0DCF807467078B0
:1057800000F0D8F80502B07800F0D4F845EA0745F3
:105790000543307845EA40352068CA2141625322EA
:1057A00021684A62204600F051F8010007D12168C3
:1057B000DFF8780105404D60204600F06AF8226865
:1057C000FF215162030004BF012184F8211000224F
:1057D00084F8202001B0F0BDF07831782D0245EA40
:1057E0000045B078054345EA4135D5E730B4036854
:1057F000DFF838015B6803408B701D0A1C0C05F054
:105800001F055B0BCC704D7003F007030B70D2B912
:10581000C878020902EB820300F00F0000EB43009E
:10582000C8704878020902EB820300F00F0000EB19
:10583000430048708878020902EB820300F00F00F1
:1058400000EB43008870002030BC7047F0B5044680
:1058500081B02068C16800254A0617D44FF0FF3197
:10586000C16040F2E936FDF705FD074608E000BFDC
:10587000FDF700FDC01BB04224BF032584F8215072
:105880002168C868410601D4032DF1D1284601B032
:10589000F0BD2DE9F041264E0546706820F08000ED
:1058A000706000243168880619D42868C16821F026
:1058B000A001C16040F2E937FDF7DCFC064628682C
:1058C000C16888062AD4FDF7D5FC801BB842F6D300
:1058D000032085F8210003242046BDE8F0813068CC
:1058E00020F02000306040F2E9382868C16821F0DB
:1058F000A001C160FDF7BEFC07462868C1688806A4
:1059000008D4FDF7B7FCC01B4045F6D3032085F84B
:1059100021000324306840F0200030602046BDE8BC
:10592000F0810000BFFF8FFF7F7F7F003FFFFF0000
:105930000828004000210A2813D30A38491CC2B2A3
:105940000A2A21BF491C0A38C2B20A2A09D30A38D6
:10595000491CC2B20A2A21BF491C0A38C2B20A2A0B
:10596000EBD240EA0110C0B27047000030B581B000
:105970000446FDF77FFC14F1010F054602D00549EE
:1059800088680419FDF776FC401BA042FAD301B0E9
:1059900030BD00BFAC06002010B5040001D10120CD
:1059A00010BD94F83D0028B9002184F83C10204631
:1059B000FEF7F3F8022084F83D00211D206800F076
:1059C0008FF9012084F83D00002010BD0168C868EF
:1059D00040F00100C8608A68DFF844000240062AEF
:1059E00018BFB2F5803F03D0086840F0010008609E
:1059F000002070470068C16849084900C16041F251
:105A00001112016A114202BF016A40F2444211427E
:105A100003D1016849084900016000207047000077
:105A20000700010010B50446206801698A0716D5F1
:105A3000C1688A0713D56FF0020101610122227744
:105A4000806910F0030F204602D001F0C2FA04E092
:105A500001F0C0FA204601F0BEFA0020207720684D
:105A600001694A0716D5C1684A0713D56FF00401CA
:105A7000016102222277806910F4407F204602D023
:105A800001F0A7FA04E001F0A5FA204601F0A3FA1C
:105A900000202077206801690A0716D5C1680A0727
:105AA00013D56FF00801016104222277C06910F05C
:105AB000030F204602D001F08CFA04E001F08AFACC
:105AC000204601F088FA0020207720680169CA0684
:105AD00016D5C168CA0613D56FF0100101610822FE
