:020000040800F2
:10000000C02A0020D57B00085D7A00085F7A0008CE
:10001000057C0008097C00080D7C00080000000039
:10002000000000000000000000000000117C00083B
:10003000617A000800000000157C0008637A00085F
:10004000197C00081D7C0008217C0008257C000824
:10005000297C00082D7C0008317C0008357C0008D4
:10006000397C00083D7C0008417C0008457C000884
:10007000497C00084D7C0008517C0008557C000834
:100080006F7A0008757A0008597C000800000000AB
:100090000000000000000000000000005D7C00087F
:1000A000617C0008657C0008697C00086D7C0008A4
:1000B000717C0008757C0008797C00087D7C000854
:1000C000817C0008857C0008897C00088D7C000804
:1000D000917C0008957C00087B7A000800000000F5
:1000E000677A0008997C00089D7C000800000000E9
:1000F000000000000000000000000000A17C0008DB
:1001000000000000A57C0008A97C0008AD7C000868
:1001100000000000000000000000000000000000DF
:10012000B17C0008B57C0008B97C0008BD7C0008E3
:10013000C17C00080000000000000000000000007A
:10014000000000000000000000000000C57C000866
:10015000C97C0008CD7C0008D17C0008D57C000853
:10016000D97C0008DD7C00080000000000000000D1
:10017000000000000000000000000000000000007F
:1001800000000000E17C000800000000000000000A
:10019000E57C00082DE9F04FADF50F7D00F094FDF2
:1001A00000F0ECFD0020DFF8B85ADFF8B84A009004
:1001B0000026296841F0040129600121286800F027
:1001C00004000090009800910191204600210291C6
:1001D000694600F0DBFE00220121204601F021F8F3
:1001E000002001F045F80121002001F093F801A85A
:1001F0000021002200230EC006C00096286840F0AF
:1002000001002860296801F0010100910021009897
:1002100000912A6842F002022A60286800F0020079
:100220000090009800912A6842F004022A604FF47E
:100230008262286800F00400009000990192029305
:100240000393049301A9DFF8200A00F09FFE40F217
:100250003141019102960396049601A9DFF80C0A38
:1002600000F094FE0221019102960396049601A9E2
:10027000204600F08BFE01F07BF90C2100910696E0
:10028000012102910596684601F0F2F90028DFF895
:10029000E0491ABF0120F921FF21A06461617F219B
:1002A000DFF8D009A0602161E660A661E661266200
:1002B00004F1080001F098FB08B100F08FFC012266
:1002C0008DF801208DF802208DF800208DF8036054
:1002D000694604F1080001F0D5FC08B100F07EFC8D
:1002E000019604960596012201A904F1080001F087
:1002F000EFFB08B100F072FCDFF87C09DFF87C59F5
:100300000168DFF87C99DFF87C7921F08071016069
:100310004FF0000B026842F08072026028684008CB
:10032000400028600120296841F0010129606E60C9
:1003300001F078FD6868DFF85029DFF8506910682F
:10034000022101F085FDD9F80000012101F080FDB6
:100350003868042101F07CFD002000F0B3FF642028
:1003600001F060FD002000F0BCFF7AE094F841004D
:1003700050B302F09AF80246D4E900016B68DFF846
:1003800010891B1AC01841EB0B01C4E90001A2FB44
:100390000883DA0C002302F0DBF8216D0FF60C1253
:1003A000431A4FF4807104F1640002F0E9F904F19A
:1003B000640002F007FA82B241F2883304F164016A
:1003C000DFF8D00802F056FA94F84C00C10605D5C3
:1003D000DFF8B40801684DA800F0B8F894F84C00B4
:1003E000810605D5D9F800104DA800F016F900BF18
:1003F00094F84C00410603D539684DA800F074F913
:10040000E06CC10544BF4DA800F0D5F9E06C410592
:1004100044BF4DA800F046FAE06C810544BF4DA8EA
:1004200000F0D7FA94F84200A0B14DA802F05FFDA9
:1004300004F146004FA9027801F8032F427894F89E
:1004400043004D904A704DA801F04AF884F842B03C
:10045000A4F846B094F8410018B14FF4FA7001F0D6
:10046000E1FC0CA800F0C6FF01280AD09DF834007A
:10047000322806D10CA802F045FD307808B184F886
:1004800041B0E16C606D884226D0DFF8FC07616501
:10049000C906006803D5022101F072FD02E00221C5
:1004A00001F08DFD94F84C10D9F800008A0603D5B0
:1004B000012101F065FD03E05FF0010101F07FFD26
:1004C00094F84C1038684A0603D5042101F058FD11
:1004D00002E0042101F073FD94F84100012804BFFB
:1004E0004FF0FF31E1643078002804BF94F84100F8
:1004F000002803D0002000F003FF01E000F0F1FE2F
:1005000031780029A6D0307800283FF42FAF01F0D1
:10051000CCFF8446D4E900016A68121A00238018CF
:100520005941C4E90001DFF86827ACFB02AE4FEA8D
:10053000DE4202F00DF8216D411A4EA80422C01CC3
:1005400002F034FE092084F843003DE770B586B020
:10055000002304460E468DF8083002AA02213046D8
:1005600002F082FE002804BF9DF80800012852D145
:10057000DFF8FC5695F84200401C85F8420003AABB
:10058000B5F8460040F00800A5F8460002213046C4
:1005900001F034FDDFF8F4160878F8B195F843302F
:1005A0000399201D0422184402F042FE95F84330BE
:1005B000049904F108000422184402F039FE95F869
:1005C00043000599204404220C3002F031FE95F8D6
:1005D00043000C3085F8430006B070BD95F841002B
:1005E000C8B105980499019000914FF48071039B64
:1005F000DFF8A42605F1640002F0C2F805F16400FA
:1006000002F0E0F882B241F2883305F16401DFF8CC
:10061000840602F02FF906B070BD70B586B00023D5
:1006200004460E468DF8083002AA0121304602F039
:100630001BFE002804BF9DF80800012852D1DFF8F6
:10064000305695F84200401C85F8420003AAB5F8E0
:10065000460040F01000A5F846000121304601F0A8
:10066000CDFCDFF828160878F8B195F843300399E7
:10067000201D0422184402F0DBFD95F84330049954
:1006800004F108000422184402F0D2FD95F843005A
:100690000599204404220C3002F0CAFD95F843006D
:1006A0000C3085F8430006B070BD95F84100C8B124
:1006B00005980499019000914FF48071039BDFF835
:1006C000DC2505F1640002F05BF805F1640002F03E
:1006D00079F882B241F2883305F16401DFF8B4059C
:1006E00002F0C8F806B070BD70B586B000230446AD
:1006F0000E468DF8083002AA0421304602F0B4FDFF
:10070000002804BF9DF80800012852D1DFF8605589
:1007100095F84200401C85F8420003AAB5F846004F
:1007200040F02000A5F846000421304601F066FCA8
:10073000DFF858150878F8B195F843300399201D73
:100740000422184402F074FD95F84330049904F132
:1007500008000422184402F06BFD95F84300059947
:10076000204404220C3002F063FD95F843000C3065
:1007700085F8430006B070BD95F84100C8B10598F2
:100780000499019000914FF48071039BDFF81025CC
:1007900005F1640001F0F4FF05F1640002F012F8C5
:1007A00082B241F2883305F16401DFF8E80402F017
:1007B00061F806B070BDF0B50546DFF8B06481B0F1
:1007C0002021304600F026FD0024012808BF012426
:1007D0001021304600F01EFD012808BF44F002043D
:1007E0004FF48061304600F015FD012808BF44F049
:1007F0000404DFF870740221384600F00BFD012874
:1008000008BF44F008040121384600F003FD012828
:1008100008BF44F01004DFF850741021384600F08F
:10082000F9FC012808BF44F020040121304600F003
:10083000F1FC012808BF44F040044FF480613846C1
:1008400000F0E8FCDFF82864012896F8440008BFAF
:1008500044F08004A04209D196F84020012A05D036
:1008600002F07CFD316E401A652819D3002086F80D
:100870004000B6F8460096F8421040F04000A6F856
:100880004600491C86F8421096F843002918401C7F
:100890000C7186F8430086F8444002F05FFD306634
:1008A00001B0F0BDDFF8E023DFF8D43310B5044623
:1008B00010681968084382B037D18022012102F004
:1008C0002DFD6A467021002002F00AFD0DF10102A3
:1008D0007121002002F004FD0DF1020272210020BE
:1008E00002F0FEFC0DF103027321002002F0F8FC7F
:1008F00001AA7421002002F0F3FC0DF1050275211C
:10090000002002F0EDFC0DF106027621002002F03D
:10091000E7FC0DF107027721002002F0E1FC002244
:100920000121002002F0FAFC02E00020009001907A
:10093000CF489DF8001090F8282091421DD090F8E3
:100940004310231D0B44009C1C600831019C5C601B
:1009500080F8431000F1280390F84210009C1C60BE
:10096000491C80F84210019CB0F846105C6041F0D0
:100970008001A0F8461002B010BD9DF8012090F84B
:1009800029309A4202BF9DF8022090F82A309A42FC
:10099000D5D19DF8032090F82B309A4202BF9DF8E4
:1009A000042090F82C309A42C9D19DF8052090F887
:1009B0002D309A4202BF9DF8062090F82E309A42C0
:1009C00002BF9DF8071090F82F209142B7D102B0D6
:1009D00010BD70B5AC4AAA4B1968044610680843AC
:1009E00084B065D18022012102F098FC6A464C2136
:1009F000002002F075FC0DF101024D21002002F0F3
:100A00006FFC0DF102024E21002002F069FC0DF195
:100A100003024F21002002F063FC01AA50210020B4
:100A200002F05EFC0DF105025121002002F058FC9D
:100A30000DF106025221002002F052FC0DF10702D6
:100A40005321002002F04CFC02AA5421002002F0A5
:100A500047FC0DF109025521002002F041FC0DF187
:100A60000A025621002002F03BFC0DF10B02572137
:100A7000002002F035FC03AA5821002002F030FCCF
:100A80000DF10D025921002002F02AFC0DF10E0299
:100A90005A21002002F024FC0DF10F025B210020FE
:100AA00002F01EFC00220121002002F037FC04E0CD
:100AB000002000900190029003906D4D9DF8000081
:100AC00095F8301088421DD095F84360201D102203
:100AD0006946304402F048FC1022694605F13000B6
:100AE00002F042FC95F84200401C85F842001036A6
:100AF000B5F8460085F8436040F48070A5F84600DC
:100B000004B070BD9DF8011095F83120914202BFEC
:100B10009DF8021095F832209142D5D19DF803102E
:100B200095F83320914202BF9DF8041095F83420C7
:100B30009142C9D19DF8051095F83520914202BF28
:100B40009DF8061095F83620914202BF9DF80700E7
:100B500095F837108842B7D104B070BDB0F5005F8A
:100B600000D0704710B5424CE06DA16D084302D132
:100B700002F0F4FB0AE002F0F1FBE06540F22D1216
:100B8000E16DA06D091A91420FD3E06DA0653F4958
:100B9000087818B1002184F8411010BD94F8410084
:100BA000401E8041C00F84F8410010BD10B586B0D2
:100BB00000248DF802208DF800008DF8011000222D
:100BC0000192039204928DF803406946354800F083
:100BD0007FFF08B100F002F806B010BD10B5244C3C
:100BE00094F8410098B100BF35A24FF4807104F130
:100BF000640001F0C5FD04F1640001F0E3FD82B280
:100C000041F2883304F16401224801F033FE0020F0
:100C100000F058FB642001F005F9002000F061FBB2
:100C2000642001F0FFF8F2E7F0B581B001F03DFC7F
:100C30000F4F0646D7E900231B480468A41A002575
:100C4000101943EB0501C7E9000101B0104FA6FBE5
:100C50000773BDE8F040DA0C002301F079BC000016
:100C60003038024000080240000002400004024008
:100C70000009002000280040FCED00E0001000E02A
:100C8000F4060020F8060020F006002010050020E1
:100C900006BD378600000020F07A0008147B0008AB
:100CA000387B000808090020041000E054696D65D5
:100CB0005374616D703A20256C640D0A00000000C9
:100CC0004572726F7200000000B50C4881B0016877
:100CD00041F400710160026842F4806202600168C0
:100CE00041F480710160032002F092FB0F2002F0BA
:100CF000EDFB00F005F8002001B000BD003C024013
:100D00007047F0B40246106895681318506803EBFA
:100D10005004C0071DD54D441BE013F8017B05F8B6
:100D2000017B491EF9D1A0B1B60813F8011B06F0EA
:100D30000306032E08BF13F8016B01EB062149429D
:100D4000801C294405D011F8016B05F8016B401E89
:100D5000F9D1A3420ED013F8016B16F0030104BFC2
:100D600013F8011BC91C30090F28DAD113F8010B45
:100D70000F30D6E7F0BC02F10C007047F0B593B02D
:100D800001A80021002200230EC006C006AC0025E9
:100D9000002600278E46A4E8E040A4E8E040A4E84E
:100DA000E04000916748016841F0805101600221F4
:100DB000006800F08050009000986348009202683C
:100DC00022F4404242F4004202600122006800F432
:100DD00040400090009806910992102102220A9149
:100DE0000C924FF4A87110220E920F910422072149
:100DF0000D931092119106A800F03AFC08B1FFF78C
:100E0000EDFE022102910F204FF4805101900491D8
:100E100003950595022101A801F0B8FA08B1FFF782
:100E2000DDFE13B0F0BD0168484A4948914214D331
:100E3000484AD0F80404914208BF012154D0464AE0
:100E4000914208BF40214FD0444A914214BF4FF411
:100E500080014FF4803108407047414A914216D3D7
:100E6000404AD0F80004914205D03F4B994205D149
:100E70004021084070470121084070473B4A914299
:100E800014BF4FF480014FF4803108407047384A56
:100E9000914215D3374A4068914205D0364B99426A
:100EA00005D1402108407047012108407047334A6E
:100EB000914214BF4FF480014FF4803108407047D5
:100EC0002F4A0068914205D02E4B994205D140210E
:100ED000084070470121084070472B4A91420CBFDF
:100EE0004FF480314FF4800108407047006840683B
:100EF0007047214901604FF00062426000234FF4C7
:100F0000806202614FF480714FF480328360C3606D
:100F100043618361C16102624362704717490160A6
:100F20004FF00062426040234FF480620261002172
:100F30004FF480328360C16041618161C1610262AE
:100F400041627047403802400070004059640240DE
:100F5000006002407064024088640240A064024065
:100F6000B9600240106402402864024040640240BC
:100F7000596002407060024088600240A0600240F8
:100F80001060024028600240406002402DE9F04FAE
:100F900003460C464FF0000881B0C146C246AB483C
:100FA000AB49AC4A0125266805FA08F505EA060EA4
:100FB000AE4540F0A780032606FA09F66FEA060C54
:100FC0006668012E18BF022E03D0112E18BF122EF4
:100FD00011D19E68E7680CEA060607FA09F73E4356
:100FE0009E605E6826EA05056668C6F3001606FA86
:100FF00008F635435D60DD68A6680CEA050506FA6B
:1010000009F63543DD606568022D18BF122D12D137
:101010004FEAD80503EB85050AF01C062F6A4FF04E
:101020000F0B0BFA06FB27EA0B07D4F810B00BFAEC
:1010300006F63E432E621D680CEA0506257905F08A
:10104000030505FA09F535431D606568ED0059D5BE
:10105000002600964FEA980C156845F48045156007
:10106000166806F4804600960F26009D51F82C70F5
:101070000AF00C05AE4027EA0606774FBB4208BFD0
:10108000002713D0754FBB4208BF01270ED0744F05
:10109000BB4208BF022709D0724FBB4208BF0327DB
:1010A00004D0714FBB420CBF0427072707FA05F590
:1010B000354341F82C506FEA0E0C056866680CEA5F
:1010C0000505F70348BF4EEA0505056045686668F3
:1010D0000CEA0505B70348BF4EEA0505456085687B
:1010E00066680CEA0505F70248BF4EEA050585600B
:1010F000C56866680CEA0505B60248BF4EEA0505F4
:10110000C0F80C5008F10108B8F10F0F0AF1040AF9
:1011100009F102097FF646AF01B0BDE8F08F00008B
:101120002DE9F04F81B003460F464FF00009CA4643
:10113000CB464648464A00970F210127009D07FAF3
:1011400009F73D40BD4259D14FEA990C52F82C4065
:10115000414E0BF00C0E01FA0EF8B34208EA0404FB
:1011600008BF002614D03D4EB34208BF01260FD061
:101170003B4EB34208BF02260AD03A4EB34208BFE4
:10118000032605D0384EB3420CBF0426072600BF05
:1011900006FA0EF6B44212D10468ED432C40046006
:1011A00044682C40446084682C408460C4682540B6
:1011B000C56052F82C4024EA080442F82C4003246D
:1011C00004FA0AF4E5431C682C401C600BF01C0870
:1011D0004FEAD90403EB840601FA08F8346A24EADA
:1011E00008043462DC682C40DC605C6824EA070791
:1011F0005F609F6805EA0704C3F8084009F1010928
:10120000B9F10F0F0BF1040B0AF1020A95D901B0E5
:10121000BDE8F08F00690140481E8041C043C00F07
:10122000704702B909048161704742690A408A42E5
:1012300008BF0904816170470C4A136803421CBF50
:101240001060FFF78BBC704700000000003C0140BD
:1012500008380140443802400000024000040240C7
:1012600000080240000C024000100240143C014003
:1012700070B586B00446002000900022DFF82001FF
:10128000DFF82061016841F00101016000680FF2A0
:10129000201100F001000090009831F814500195E1
:1012A0000121029103920221049101A956F8240020
:1012B000FFF76CFE56F8240000222946FFF7B1FF25
:1012C00006B070BD10B40FF2E803DFF8D84081B06B
:1012D00033F8101054F8200001B010BC0122FFF7C1
:1012E000A0BF10B40FF2C803DFF8B84081B033F8E4
:1012F000101054F8200001B010BC0022FFF791BF7D
:101300000FF2AC02DFF89C3032F8101053F82000D6
:10131000FFF78BBF10B586B0044600200090DFF8C1
:101320008000026842F004020260006800F00400DD
:1013300000900800009812D10FF2780131F81420C3
:1013400001920021022203920492029101A9DFF886
:10135000582052F82400FFF719FE06B010BD0129ED
:101360001BD10FF2500030F81410DFF83C0001914F
:101370000022DFF838100392029101A950F82400EE
:10138000FFF704FE0FF23000045D00220F2160B26F
:1013900002F04BF860B202F071F806B010BD000028
:1013A00030380240A8080020AC08002000002110BE
:1013B0002000000000200000280030B4002513E0C9
:1013C00050F8042BD30744BFA9F101039A18091F51
:1013D000042942F8045BFAD213468C0744BF1580F7
:1013E0009B1CC90748BF1D7050F8041B0029E7D19A
:1013F00030BC70472DE9F04F8346DFF8648281B03E
:1014000008F14000FFF70FFD0027002864D108F124
:101410004000FFF76BFDB8F80441C0F5007080B2E2
:10142000A042AEBF051B00F500752D1BADB2002D0F
:101430000090B94640F3498008F58670005D641C51
:10144000A4B2B4F5007FA8BF0024F02839D1B8F8C1
:1014500004414FF0000A09E00419211204EBD152B3
:101460005212A4EB4224A4B27F1C82441FFA8AF0D9
:10147000484519DA08F58670661CC6F30806005D53
:1014800008F58671BBB2895D5B441A1D01F037FE19
:10149000C0B20028E0D1A8F8046101B0BDE8F08F27
:1014A000012001B0BDE8F08FB8B2641CCBF8000099
:1014B000C4F30804A8F80441584601F053FE00287C
:1014C000EED109F10109A945B6DB40F201108542D0
:1014D000A4BF0099A8F80411002001B0BDE8F08F66
:1014E00030B581B004465E4D95F808010028FBD068
:1014F000204601F015FE214605F5447001F0DCFDA3
:10150000002185F8081182B205F54471284601B022
:10151000BDE8304001F034BA10B50022002110209F
:1015200001F083FF102001F0A9FF0022002111200B
:1015300001F07BFF112001F0A1FF494C04F14000B4
:10154000FFF7D7FC04F1400001F0E4FF04F1400094
:101550006063A46704F1A000FFF7E0FC04F1A000C1
:1015600001F0D8FF04F1A000C4F8D840206310BDFA
:1015700010B586B0002000903A4C3B48016841F01D
:1015800001010160026802F001020092002200994C
:101590000092036843F001030360016801F0010158
:1015A000009100990092016941F4003101610169E3
:1015B00001F400310091009900920421036843F482
:1015C000001303600222006800F4001000900098ED
:1015D0000191029200210391049207210591204676
:1015E00001A9FFF7D3FC072108220591019201A967
:1015F0002046FFF7CBFC1A4C1C4820600020D4F892
:101600000C13A060E0602061A06161600C2060614B
:10161000204601F0FFF800220021262001F005FFFE
:10162000262001F02BFFFFF777FF04F58670A062FC
:1016300004F544714FF40070A085A084216200205D
:10164000E0634FF4007204F58671204601F0DBF987
:1016500006B010BD0249012081F808017047000062
:1016600000000020000002403038024000440040EA
:101670002DE9F041040082B000F03D812078DFF8D0
:101680005C63C10713D5B06800F00C00042807D0D4
:10169000B06800F00C00082841D1706841023ED5C6
:1016A0003068810303D56068002800F02481217828
:1016B000880719D5B16811F00C0F07D0B06800F099
:1016C0000C00082866D17068410263D43068810735
:1016D00003D5E068012840F00E813168206921F0CF
:1016E000F80141EAC00131602178080740F1078123
:1016F0006069BB49002872D00122C1F8802E01F038
:101700002DFE0546706F810700F1F98001F026FE7D
:10171000401B0228F6D9032002B0BDE8F0816068C2
:10172000B0F5803F04D1306840F48030306011E083
:10173000B0F5A02F306806D140F4802030603168C9
:1017400041F4803105E020F480303060316821F4CC
:1017500080213160606870B101F000FE054630689C
:101760008103A4D401F0FAFD401B6528F7D30320C0
:1017700002B0BDE8F08101F0F1FD0546306881035B
:1017800095D501F0EBFD401B6528F7D3032002B08F
:10179000BDE8F081E068924988B101220A6001F059
:1017A000DDFD05463068810700F1D38001F0D6FDEC
:1017B000401B0228F6D9032002B0BDE8F081086082
:1017C00001F0CCFD0546316888078DD501F0C6FDD6
:1017D000401B0228F7D9032002B0BDE8F081C1F810
:1017E000800E01F0BBFD0546706F810740F18780D8
:1017F00001F0B4FD401B0228F6D9032002B0BDE879
:10180000F0810528306F06D140F004003067306F5A
:1018100040F0010005E0400840003067306F20F0E4
:1018200004003067A06888B101F098FD074641F2D6
:101830008938306F810700F19C8001F08FFDC01B5B
:101840004045F6D3032002B0BDE8F08101F086FDEB
:10185000074641F28938306F810740F18A8001F0F4
:101860007DFDC01B4045F6D3032002B0BDE8F081EA
:1018700001F074FDC01B022840F28F80032002B0EB
:10188000BDE8F08101F06AFD001B022840F29D8056
:10189000032002B0BDE8F0810020286601F05EFD63
:1018A00004463068810140F1948001F057FD001B2F
:1018B0000228F6D9032002B0BDE8F08101281AD031
:1018C0007068E26900F48001914202BF00F03F01BC
:1018D000226A91420FD147F6C071626A014091427B
:1018E00002BF00F44031A26A914202BF00F0706072
:1018F000E16A88426DD0012002B0BDE8F081207815
:1019000041073BD5306C0025C1000AD40095012564
:10191000316C41F080513164306C00F080500090A7
:101920000098304F3868C1051BD4386840F4807087
:10193000386001F013FD80463868C10511D401F00C
:101940000DFDA0EB08000228F6D9032002B0BDE887
:10195000F0813068216920F0F80040EAC100306071
:10196000C2E6A06801287FF44CAF306F40F0010060
:1019700057E71DB1306C20F080503064A06940B34F
:10198000B16801F00C01082998D00228144D83D1C8
:101990000020286601F0E2FC0746306881013FF52F
:1019A00067AFE269206A616A0243A06A400842EABE
:1019B0008112401E42EA0042E06A42EA006272601E
:1019C0000121296601F0CAFC0446306881017FF5D7
:1019D00059AF002002B0BDE8F08100BF00380240DE
:1019E000000047420070004070B5040028D0607FBE
:1019F00020B900212177204601F060FF02206077A6
:101A0000CA21226851625320216848622068C16857
:101A10004A061DD44FF0FF31C16040F2E93601F0B3
:101A20009DFC05462068C168480611D401F096FC6B
:101A3000401BB042F6D32168FF204862042262773F
:101A4000012070BD01F08AFC801BA8422AD3F2E776
:101A50002168DFF8C4038A6802408A6022689368BC
:101A60006568216960690D4305432B4393602068D5
:101A7000E168016120680169A26841EA02410161EF
:101A80002068C16821F08001C160206881688A06F1
:101A90000CD4C16821F0A001C16040F2E93501F029
:101AA0005DFC06462068C1688806CBD52068016CBD
:101AB00021F48021016421680A6CA06902430A6450
:101AC000FF212268516201206077002070BD000074
:101AD0002DE9F04104460D46207F012808BF022071
:101AE00000F0CD800120207702216177002A206854
:101AF00080685CD141065CBF0020E8702878002136
:101B00000A2813D30A38491CC2B20A2A21BF491C29
:101B10000A38C2B20A2A09D30A38491CC2B20A2AB0
:101B200021BF491C0A38C2B20A2AEBD240EA01108E
:101B30006E7800210A2E13D30A3E491CF2B20A2AFB
:101B400021BF491C0A3EF2B20A2A09D30A3E491CA7
:101B5000F2B20A2A21BF491C0A3EF2B20A2AEBD28B
:101B600046EA0116A97800220A2913D30A39521C21
:101B7000CBB20A2B21BF521C0A39CBB20A2B09D394
:101B80000A39521CCBB20A2B21BF521C0A39CBB2E4
:101B90000A2BEBD23606C0B2360C41EA021146EAF5
:101BA0000046C9B2E8780E4346EA00460DE0410619
:101BB0005CBF0020E8706E782978A878360246EA83
:101BC0000146E978064346EA01462168CA20486290
:101BD0005322206842622068C1684A0620D44FF030
:101BE000FF31C16040F2E93801F0B8FB07462068D8
:101BF000C168480614D401F0B1FBC01B4045F6D3C0
:101C00002168FF20486204226277002020770120AB
:101C1000BDE8F08101F0A2FB801BA84223D3EFE7CF
:101C20002168DFF8F80106400E602068826822F41F
:101C30008022826021688A68EB68286903431A431E
:101C40008A602068C16821F08001C16020688168D5
:101C50008A060CD4C16821F0A001C16040F2E935C8
:101C600001F07CFB06462068C1688806D2D5226850
:101C7000FF21516201206077002121770020BDE81B
:101C8000F0810000F0B5044681B0207F012808BF34
:101C9000022000F0BE800120207702236377002A13
:101CA0004D7840F08280E80603D505F0EF050A354F
:101CB0004D70C8780A2813D30A38521CC3B20A2BB5
:101CC00021BF521C0A38C3B20A2B09D30A38521C4E
:101CD000C3B20A2B21BF521C0A38C3B20A2BEBD263
:101CE00040EA02104D7800220A2D13D30A3D521CFF
:101CF000EBB20A2B21BF521C0A3DEBB20A2B09D3CF
:101D00000A3D521CEBB20A2B21BF521C0A3DEBB21A
:101D10000A2BEBD245EA02158A7800230A2A13D34C
:101D20000A3A5B1CD6B20A2E21BF5B1C0A3AD6B215
:101D30000A2E09D30A3A5B1CD6B20A2E21BF5B1CBD
:101D40000A3AD6B20A2EEBD22D06C0B22D0C42EAC8
:101D5000031245EA0045D2B20878154345EA4035FA
:101D60002068CA214162532221684A622068C16802
:101D70004A062BD44FF0FF31C16040F2E93701F041
:101D8000EDFA06462068C16848061FD401F0E6FA5D
:101D9000801BB842F6D32168FF2048620422627794
:101DA0000020207701B00120F0BDC8782D0245EA5F
:101DB000004588780978054345EA4135D0E700BFFA
:101DC00001F0CCFA801BA84217D3E4E72168DFF8C2
:101DD000500005404D602068C16821F08001C1605D
:101DE000206881688A060CD4C16821F0A001C16016
:101DF00040F2E93501F0B2FA06462068C16888066B
:101E0000DED52268FF215162012060770021217711
:101E1000002001B0F0BD0000BFFF8FFF7F7F7F007B
:101E20003FFFFF0030B581B0044601F097FA14F18E
:101E3000010F054602D005480178641801F08EFABA
:101E4000401BA042FAD301B030BD00BF9C08002067
:101E50002DE9F04104004FF0000888B00D464746D8
:101E600005D0022C45D03AD36FF0010884E0284613
:101E700000F06FF9002840D1DFF8DC24906B526C41
:101E80006946D3689847002845D19DF80000DFF8DF
:101E9000C86401289DF8010008BF022701289DF8A9
:101EA000020008BF47F00107012808BF47F00407F8
:101EB000E80735D5F90733D504EB440106EB81017A
:101EC000B26A51F822100B6806EB8400806B9847C9
:101ED000002825D06FF0040008B0BDE8F081284646
:101EE00000F094F948B9DFF87024D06B926C694621
:101EF000C7E7284600F0DEF920B14FF0FF3008B008
:101F0000BDE8F081DFF85024106CD26CD3686946CC
:101F100098470028B9D06FF0060008B0BDE8F081FE
:101F200005F00200022804BF07F0020102290DD1CA
:101F300004EB440106EB8101F26A51F822100B68B0
:101F400006EB8400806B98470028C3D105F0040598
:101F5000042D04BF07F00407042F0DD104EB440146
:101F600006EB8101726B51F822100B6806EB8400BE
:101F7000806B98470028ADD1404608B0BDE8F0819D
:101F800010B50246032A17D2DFF8CC3303EB8200E8
:101F9000046D0C408C420FD102EB420403EB810133
:101FA00003EB84024B6A52F82310806B0A68904757
:101FB00020B16FF0040010BD6FF0010010BD10B52E
:101FC0000246032A17D2DFF8903303EB8200046D38
:101FD0000C408C420FD102EB420403EB810103EB76
:101FE00084024B6A52F82310806B4A68904720B1F4
:101FF0006FF0040010BD6FF0010010BD30B5034656
:102000000C46032B81B0114618D2DFF84C2302EBAB
:102010008300056D2540A54210D103EB430502EB7B
:10202000850302EB8402546A53F82420806BD36941
:10203000984728B16FF0040001B030BD6FF0010087
:1020400001B030BD30B503460C46032B81B01146BC
:1020500017D2C14A02EB8300056D2540A54210D17D
:1020600003EB430502EB850302EB8402546A53F849
:102070002420806BD368984728B16FF0040001B02A
:1020800030BD6FF0010001B030BD30B503460C46E5
:10209000032B81B0114617D2AF4A02EB8300056DC6
:1020A0002540A54210D103EB430502EB850302EB6B
:1020B0008402546A53F82420806B5369984728B1EE
:1020C0006FF0040001B030BD6FF0010001B030BD11
:1020D00010B50246032A16D29F4B03EB8200046D13
:1020E0000C408C420FD102EB420403EB810103EB65
:1020F00084024B6A52F82310806B0A69904720B122
:102100006FF0040010BD6FF0010010BD30B5034644
:102110000C46032B81B0114617D28F4A02EB830085
:10212000056D2540A54210D103EB430502EB850365
:1021300002EB8402546A53F82420806B9369984719
:1021400028B16FF0040001B030BD6FF0010001B0A4
:1021500030BDD721814A70B590B004468DF810107B
:10216000019200257E497F4A7B4E0291069203959B
:1021700006F15C007C497D4A0591079201A901F0B6
:1021800017FC50B9694606F15C0001F0C3FC002859
:1021900004BF9DF800006B2804D06FF006052846A8
:1021A00010B070BD08A906F15C0001F0BDFC9DF8FF
:1021B00021009DF8202040EA42019DF8222041EABA
:1021C00082013165E20706F15C01B163684971641F
:1021D00008D5012806D16748306006F15C0009681F
:1021E000884770B9A0070AD59DF82010012906D1AB
:1021F0006148716C70600A68B06B904708B96007FD
:1022000001D56FF00405284610B070BD3321534A44
:1022100070B590B004468DF8101001920025504919
:10222000504A4D4E02910692039506F18C004E499C
:102230004E4A0591079201A902F01EF950B969466C
:1022400006F18C0002F09DF9002804BF9DF8000003
:10225000442804D06FF00605284610B070BD08A9C8
:1022600006F18C0002F097F99DF821009DF82010EE
:1022700040EA41009DF8221040EA8100706506F1B5
:102280008C00F063A0073D49B1640AD59DF8202079
:10229000012A06D13A48306106F18C000968884766
:1022A00018B9E00701D4600701D56FF0040528468E
:1022B00010B070BD3D21294A70B590B004468DF82C
:1022C0001010019200252649264A234E02910692BB
:1022D000039506F1C0002449244A0591079201A9FB
:1022E00002F05CFD50B9694606F1C00002F0C9FD7C
:1022F000002804BF9DF80000402804D06FF00605B8
:10230000284610B070BD08A906F1C00002F0C3FD58
:102310009DF821109DF820209DF8220041EA4201FD
:1023200041EA8001B165620706F1C00131641549D7
:10233000F16408D5012806D11348306206F1C000C7
:102340000968884718B9A00701D4E00701D56FF0E4
:102350000405284610B070BDA8050020ED780008DF
:1023600051790008A179000879790008D979000825
:1023700094060020C8060020A40600204005002086
:102380005005002074050020840500202DE9F0414F
:1023900004000E4600F086804F4DD5F8000400F092
:1023A0000F00B04207D285F80064D5F8000400F0B1
:1023B0000F00B04276D12068810712D5400703D5BF
:1023C000A96841F4E051A9602078010703D5A86805
:1023D00040F46040A860A968A06821F0F0010143C2
:1023E000A9602178C8074FD56068012802D1296803
:1023F0008A0305E0022818BF032805D129688A014D
:1024000005D40120BDE8F08129688A074AD5A9686A
:10241000890840EA8100A86041F2893800F09EFFF7
:102420000746A868616800F00C00B0EB810F2BD064
:1024300000F094FFC01B4045F3D30320BDE8F081BA
:102440002078410705D5AA68E06822F4E0520243EB
:10245000AA602178080706D5A968206921F460419F
:1024600041EAC001A96000F043F8AA681B491C4B6F
:10247000C2F30312895CC84018601A48006801F072
:1024800025F80020BDE8F081D5F8000400F00F0029
:102490008642D5D285F80064D5F8000400F00F001C
:1024A000B042CDD00120BDE8F0810D4800687047F2
:1024B0000B480D4A006813680C49C3F38222895CFB
:1024C000C84070470648084A006813680749C3F3C4
:1024D0004232895CC840704700380240B87A000830
:1024E000B0080020A408002008380240FC7B000847
:1024F00030B5144C606800F00C00042803D00828A4
:1025000003D0114830BD114830BD22682068002337
:10251000410202F03F0204D525680C49C5F388103A
:1025200003E020680849C0F38810A1FB000100F017
:102530000FF82168C1F30141491C4900B0FBF1F0DB
:1025400030BD00BF043802400024F40000127A00BD
:10255000BBBBE1B1B2F5803F80F07E80022A1ED97C
:102560008C46B1FBF2F102FB11C31B0443EA10439A
:10257000B3FBF2FC02FB1C3380B240EA0343B3FB23
:10258000F2F002FB103240EA0C4000237047022AAE
:1025900005D98446B0FBF2F002FB10C270474AB185
:1025A00005D100F0010249085FEA300070470022BF
:1025B0000023704702F098BD0B00020000210020AC
:1025C0007047904271EB030CF6D3B3F5803F2FD2E6
:1025D000F0B5B3FA83F7B1FA81F4A7F10F0E3D1B02
:1025E0005340CEF1200602FA0EF2F3415340B5F10A
:1025F0000F0746D80F3C2C444140C4F12006A040B0
:10260000F1414140B1FBF3F603FB1611A2FB064575
:10261000001BA94102D2761E8018594180EA0102AE
:1026200021FA0EF362FA0EF200215A403046F0BD54
:1026300030B4B1FBF3FC03FB1C11A2FB0C45001BE7
:10264000A94103D2ACF1010C8018594130BC0246BB
:102650000B46604600217047B2F1807F65D3F0B52C
:10266000B2FA82F7B1FA81F4C7F10F063D1B22FAE4
:1026700006F307F1110EF24120355A40B5F10F076C
:10268000B8D94140C4F12006A040F1414140B1FB1E
:10269000F3FC03FB1C11A2FB0C45001BA94103D258
:1026A000BCF1010C801859410F2F12D30F3FC90301
:1026B00041EA5041B1FBF3F603FB1611A2FB0645BC
:1026C000D4EBC030A94102D2761E8018594146EAA7
:1026D000CC3C07B34140C7F12006B840F14141402E
:1026E000B1FBF3F603FB1611A2FB0645001BA94143
:1026F00002D2761E8018594180EA010221FA0EF3B7
:10270000C7F1200462FA0EF20CFA07F05A402CFAD4
:1027100004F13043F0BD80EA010221FA0EF30021FA
:1027200062FA0EF260465A40F0BD8C46B1FBF2F1FF
:1027300002FB11C31B0243EA1063B3FBF2FC02FB72
:102740001C331B024CEA002043EA1063B3FBF2FC8B
:1027500002FB1C331B024CEA002043EA1063B3FB6C
:10276000F2FC02FB1C331B024CEA002043EA10631C
:10277000B3FBF2FC02FB1C324CEA00200023704742
:1027800008B438B585B009AC002504940395002938
:102790000EBF01950190491E0291009504AB01A95D
:1027A000074878441A3002F0A1FC019901B10D707C
:1027B000002858BF039806B030BC5DF808FB00BF86
:1027C0003B00000000F10103810704D010F8011B59
:1027D000820781B1FAD10268A2F10131914311F06F
:1027E000803104BF50F8042FF6E709BAB1FA81F13D
:1027F00000EBD100401CC01A70478268521C8260F6
:10280000426832B10268531C036011704168491E6E
:102810004160704710B5040001D1012010BD94F84B
:10282000390028B9002184F83810204600F054FB04
:10283000242084F839002068C16821F40051C16067
:10284000204600F0AEFA2068016921F49041016150
:102850002068416921F02A0141612068C16841F482
:102860000051C1600020E063202184F8391084F811
:102870003A1010BD2DE9F04107460D4697F8390092
:10288000202890461C4659D1002D14BFB8F1000FE6
:10289000012054D097F8380001284FD0012187F843
:1028A00038100020F863212187F8391000F056FD18
:1028B0000646A7F82480A7F82680002087F838006D
:1028C00003E000BF15F8011B4160F88CA0B1F88C43
:1028D000411EF984B868B0F5805F32D1386801686C
:1028E0000A063DD414F1010FF8D094B100F036FD82
:1028F000801B8442F2D20CE0386801684A0639D461
:1029000014F1010FF8D024B100F028FD801B84429F
:10291000F2D23868C16821F4D071C1603868416969
:10292000490849004161202087F8390087F83A00BA
:10293000002087F838000320BDE8F0810220BDE8C0
:10294000F081386801680A06BCD414F1010FF8D090
:10295000002CDED000F002FD801B8442F1D2D8E7CB
:102960002988C1F3080141603869002814BF6D1C33
:10297000AD1CAAE7202087F839000020BDE8F081CF
:1029800030B5044681B094F839002028134637D179
:1029900009B1180002D1012001B030BD94F838000F
:1029A00001282DD0012084F838002162A384E3841B
:1029B0000020E063212284F839200FF25520226B99
:1029C000D063226B0FF275201064226B0FF2B520DA
:1029D000D0640020256B28652068021D206B00F064
:1029E0001AFE21686FF040000860002284F8382049
:1029F0002068416941F080014161002001B030BD93
:102A0000022001B030BD30B5044681B094F83A00E0
:102A10002028134644D109B1180002D1012001B089
:102A200030BD94F8380001283AD0012084F83800ED
:102A3000A162A3850020E063222284F83A200FF2ED
:102A40000520626BD063626B0FF231201064626B01
:102A50000FF23120D0640020656B28650A4620689B
:102A6000011D606B00F0D7FD0020009021680A680E
:102A7000009200224B680093009884F83820C868C0
:102A800040F48070C8602068416941F001014161F3
:102A90002068416941F040014161002001B030BD32
:102AA000022001B030BD30B5044681B025682968E8
:102AB000EA686B6911F00F0008D1880666D59306A5
:102AC00064D5204601B0BDE830401DE1D80702D4EE
:102AD00012F4907F5AD0C80705D5D50503D5E06B11
:102AE00040F00100E063480705D5DD0703D5E06B42
:102AF00040F00200E063880705D5DD0703D5E06BF1
:102B000040F00400E063080707D5950601D4D80714
:102B100003D5E36B43F00803E363E06B002874D054
:102B2000880604D5910644BF204600F0EDF82068E1
:102B30004069E16B0A0701D4400620D5204600F029
:102B4000CFF8206841694A0613D5416921F0400158
:102B50004161606B68B10FF2A5110165606B00F017
:102B60009DFD002851D0606B016D01B0BDE8304083
:102B70000847204601B0BDE8304002F04FBD204676
:102B800002F04CFD0020E06301B030BD08062BD5FB
:102B9000130629D594F83900212836D1A068B0F55C
:102BA000805F206A0BD10188C1F308016960206948
:102BB0000028206A0CBF811C411C216203E0411CDB
:102BC000216200786860E08C401EE08480B2E0B949
:102BD0002068C16821F08001C1602068C16841F0AF
:102BE0004001C16001B030BD48060ED551060CD57C
:102BF000E86820F04000E860202184F83910204681
:102C000001B0BDE83040FEF725BD01B030BD000089
:102C1000816B00680268D30544BF0846FEF71ABD01
:102C20000020C8840868426922F080024261086876
:102C3000C16841F04001C16070470000806B02F044
:102C4000EEBC0000816B00680268D30513D400203D
:102C5000C8850868C26822F48072C2600868426948
:102C60005208520042610868426922F04002426103
:102C7000202081F83A00084602F0D2BC806B02F0B6
:102C8000D0BC0000806B01684A6990F83930212B74
:102C90000AD1120608D50023C384CA6822F0C002F4
:102CA000CA60202180F8391001684A6990F83A30EA
:102CB000222B0FD152060DD50023C385CA6822F4FA
:102CC0009072CA6001684A69520852004A61202124
:102CD00080F83A10C16B41F01001C16302F09EBC54
:102CE0000168CA6822F49072CA6001684A69520891
:102CF00052004A61202180F83A107047806B002111
:102D0000C185C18402F08ABC00B581B090F83A1048
:102D1000222943D18168B1F5805F13D1016903682D
:102D2000826A0029596806D1C1F308011180826ABC
:102D3000911C816216E001F0FF011180826A511C32
:102D400081620FE001690029816A04D14A1C826214
:102D500003685A6805E04A1C826203685A6802F0F8
:102D60007F020A70C18D491EC18589B299B9016877
:102D7000CA6822F02002CA600168CA6822F4807220
:102D8000CA6001684A69520852004A61202180F8ED
:102D90003A1002F045FC002001B000BD022001B055
:102DA00000BD70B5044622681169E06821F4405105
:102DB00001431161D3684448A168034020690B4373
:102DC00061690343E0690B430343D3605169A06920
:102DD00021F44071014351613C48E169B1F5004F74
:102DE00048D182421CBF3A48824221D1FFF76AFB98
:102DF00062681921D30FA1FB00015200FFF7A8FB65
:102E0000344EA0FB0665AA09642101FB1200C00034
:102E10003230304DA0FB05539809410001F4F871A0
:102E200001EB0211226800F007004018906070BDAD
:102E3000FFF73EFB62681921D30FA1FB000152008E
:102E4000FFF786FB234DA0FB05539A09642101FB84
:102E50001200C00032301F4DA0FB055398094100FD
:102E600001F4F87101EB0211226800F0070040182C
:102E7000906070BD82421CBF1548824202D1FFF7AC
:102E800021FB01E0FFF714FB62681921930FA1FBFE
:102E900000019200FFF75CFB0E4DA0FB05539A0961
:102EA000642101FB1200000132300A4DA0FB0553E2
:102EB000980900F0F00101EB0211226800F00F0008
:102EC0004018906070BD0000F369FFFF00100140E2
:102ED000001401403E0AD7A37047000041790171F8
:102EE000322242718179A1F18002827170476C496E
:102EF0004A780271322141710822827103210160F6
:102F000070470000F0B5054681B029680124022908
:102F1000C0F0AD802879322840F0A980A879012836
:102F200012D0022829D0042848D008285CD00928CB
:102F300078D00C2800F099800E2812D0102800F0CC
:102F4000818050284AD0A6E0032940F0908069791A
:102F500029713222A0F180016A71A97103202860D1
:102F600095E0032940F08380697929713222803805
:102F70006A71A871032129608EE0032977D16979EC
:102F80003222803829716A71A871E91D0020454AF2
:102F900012F8013B01F8013B001D12F8016B01F82A
:102FA000016B282812F8017B01F8017B12F8013B24
:102FB00001F8013BECD3C01C286068E0032956D31C
:102FC00069793222803829716A71A87104226521D9
:102FD000E81D00F02DF90720286058E0052946D3A8
:102FE000284602F01FFB57E0032940D30421E81DC7
:102FF00000F0F7F82C492A4E08603470FDF714FEF3
:103000002A492B4A0860147003222A490C706879F7
:103010007070287132206871A979A1F18000A871BF
:103020002A6034E0032922D31F491D4B0020086089
:1030300018703221687928716971A879A0F180012E
:10304000A97124E0042912D30421E81D00F0C9F875
:103050001549086032216879287169710422A879BC
:10306000A0F18001A9712A6011E0032902D2002099
:1030700001B0F0BD69792971322280386A71A87176
:10308000032129606A7A297AE879FDF78FFD2846BD
:10309000FEF726FA00E00024204601B0F0BD000053
:1030A00010050020140500204C09002050090020C4
:1030B0000801002040090020F0B40B680022002421
:1030C0000D1DBBB12B780226F02B06D0F12B8354BB
:1030D00009D1471CF123BB5406E0F1238354471C5C
:1030E000F223BB5400E001260B68B218641C6D1C6F
:1030F0009C42E7D3F0218154501CF0BC7047F1286A
:103100000BD1F12908BF117003D0F22903D1F020AF
:103110001070022070470020704710700120704727
:1031200030B4016800220023A9B1041DE15C521AE9
:1031300001685B1C8B423FBFE55C521B5B1C8B42F2
:1031400009D2E55C521B5B1C8B423FBFE55C521B06
:103150005B1C8B42E9D3011DCA540268521C0260F9
:1031600030BC704730B4016800220023A9B1041DAF
:10317000E15C521801685B1C8B423FBFE55C521951
:103180005B1C8B4209D2E55C52195B1C8B423FBF32
:10319000E55C52195B1C8B42E9D3491E0160D0B239
:1031A000401E30BC8041C00F70470000C2B112F019
:1031B000030304D000F8011B090A5B1EFAD1920830
:1031C00000F00E8000F8011B090A00F8011B090A33
:1031D00000F8011B090A00F8011B0021521EF1D161
:1031E000704770B403464A1E9C5C1DD09918104667
:1031F0004D1E10F0030106D0521E15F80169491E3C
:1032000006EB0424F8D180080ED09918091FCA785B
:103210008B7803EB02234A7802EB032211F804397E
:10322000401E03EB0224F2D1204670BC7047000020
:10323000C2B112F0030304D000F8011B090A5B1E9F
:10324000FAD1920800F00E8000F8011B090A00F87C
:10325000011B090A00F8011B090A00F8011B0021E3
:10326000521EF1D17047000000B581B018B102289C
:1032700026D019D330E08B070AD51146364A10689C
:1032800001F0DAF8002829D06FF0040001B000BD89
:10329000C8071DD51146304A106801F0D7F8E8B1CB
:1032A0006FF0040001B000BD880711D511462A4A0D
:1032B000506801F09FFC88B16FF0040001B000BDC0
:1032C000480705D51146244A906801F0E6FE28B16A
:1032D0006FF0040001B000BD6FF0010001B000BD4F
:1032E00000B581B018B102280BD005D312E01A4BFB
:1032F000186801F08BF808E01748406801F064FC9A
:1033000003E01548806801F0B2FE28B16FF00400B8
:1033100001B000BD6FF0010001B000BD00B581B08B
:1033200018B102280BD005D312E00B4B186801F03E
:1033300078F808E00848406801F051FC03E00648CE
:10334000806801F09FFE28B16FF0040001B000BD5D
:103350006FF0010001B000BDE005002001484068A9
:10336000704700BF9C08002062B38B0708D0521E34
:1033700011F8013B00F8013B00F024808B07F6D1E7
:10338000830740F0208000BF103A07D330B4B1E883
:103390003810103AA0E83810F9D230BC530724BFD7
:1033A000B1E80810A0E8081044BF51F8043B40F809
:1033B000043BD20724BF31F8022B20F8022B44BF74
:1033C0000B7803707047121F17D35B0009D151F8B7
:1033D000043B20F8023B1B0C121F20F8023BF6D2E4
:1033E0000BE051F8043B00F8013B1B0A20F8023BBC
:1033F0001B0C121F00F8013BF3D238BF121D521EE6
:1034000024BF11F8013B00F8013BF8D870470000D9
:10341000284B19684FF6FF020002114000F4E060EB
:103420000843254908431860704730B4214B1C6895
:10343000C4F30223C3F10704052C28BF04241D1D77
:10344000072D34BF0023DB1E012505FA04F4641E9A
:103450002140994005FA03F35B1E1A40114309010C
:10346000020003D41548815430BC7047144B02F05D
:103470000F021A4402F8041C30BC7047010007D444
:10348000012200F01F010F4B8A40400943F8202021
:103490007047401EB0F1807F01D3012070470A4978
:1034A0004860F02081F8130D00228A600720086030
:1034B000002070470CED00E00000FA0500E400E099
:1034C00018ED00E000E100E010E000E030B50F4D45
:1034D0000F4B2A7804464FF47A711868B1FBF2F268
:1034E00081B0B0FBF2F0FFF7D4FF58B9102C09D22D
:1034F000002221464FF0FF30FFF797FFAC6000201D
:1035000001B030BD012001B030BD00BF9C080020DB
:10351000B008002030B581B00446FFF71FFF054614
:1035200014B9012001B030BD002084F8340002211C
:1035300084F8351020680268520852000260226840
:103540001068C10728D5FFF709FF401B0628F6D3EE
:1035500020206065032184F83510032001B030BDC0
:10356000B0F5005F09D1032D46D8DFE805F00E0C59
:103570000E02B1F1C07F3FD107E0032D3CD8DFE858
:1035800005F004040402C80136D54021616501201C
:1035900084F8350001B030BD1368DFF808036168B6
:1035A0000340A0680B43E168034320690B43616952
:1035B0000343A0690B43E1690343206A0B43616A3B
:1035C0000343042903D1E16A206B01430B431360D9
:1035D00023685A69606AD208042840EAC2020BD103
:1035E000A56AE16A2A4339B1A0690028B8D1002D43
:1035F00018BF022DC7D0BCD35A61204600F03CF959
:10360000E16D3F228A40826000206065012184F8DC
:10361000351001B030BDF0B490F83460856D0024F1
:10362000012E08BF022037D0012680F8346090F8C0
:103630003570012F2CD1022680F83560446506686C
:10364000376827F480273760066873608368402BEB
:1036500004D10668B2600268D16003E00368996033
:103660000168CA603F22C16D8A40AA6001680A6889
:1036700042F016020A60016C21B101680A6842F04A
:1036800008020A600068016841F00101016002E07F
:1036900080F8344002242046F0BC704790F8351082
:1036A000022903D08022426501207047052180F85D
:1036B000351000680268520852000260002070470E
:1036C000F0B581B0044600207849794B0090A66D92
:1036D0000A683768A2FB0330450BE06D082101FA48
:1036E00000F007420ED02068026853070AD502682E
:1036F00022F004020260E06D8140B160616D41F032
:1037000001016165E06D27FA00F1CA070BD5216858
:103710004A69110607D5012202FA00F0B060606D17
:1037200040F0020060650421E06D01FA00F00742FC
:1037300008D021680A68930704D5B060606D40F036
:10374000040060651021E06D01FA00F007421BD013
:1037500021680A68130717D5B060206801684A031A
:1037600007D5006801030BD5A16C69B120468847D5
:103770000AE00168CA0503D4016821F0080101606C
:10378000216C09B120468847E06D202101FA00F044
:1037900007424BD021680A68D30647D5B06020683D
:1037A00094F83510052925D1026822F0160202602E
:1037B0002068416921F080014161206C002804BF2C
:1037C000A06C002804D02068016821F00801016085
:1037D0003F22E06D8240B260002184F83410012065
:1037E00084F83500216D002943D0204601B0BDE8A2
:1037F000F040084701684A0307D50068010311D467
:10380000616C99B12046884710E00168CA0509D467
:10381000016821F010010160002084F834000121CA
:1038200084F83510E16B09B120468847606D00B31C
:10383000606DC10716D5052084F835002068016841
:1038400049084900016020680099491C8D42009197
:1038500002D30168CA07F7D4002084F8340001219C
:1038600084F83510E16C21B1204601B0BDE8F0408C
:10387000084701B0F0BD000070B401680A4C00BFF9
:103880000CA501F0FF02103AA2FB04431A09890AB1
:103890008902AE5CC665042A28BF091D81650846F9
:1038A00070BC70473F8010F0ABAAAAAAB0080020F5
:1038B000A80D74DA0006101600061016374900B578
:1038C000086891B088B90C210591002201210B9262
:1038D00007910A9205A8FDF7CBFE08B1FDF77EF926
:1038E000022100914FF4807210E00C21059100221A
:1038F00001210B920A91079205A8FDF7B9FE08B1C4
:10390000FDF76CF9022100914FF4007203926846B2
:1039100002F01AFA08B1FDF761F9214901200860A7
:1039200000220F210220FFF780FD0220FFF7A6FDF5
:1039300011B000BD00B587B00020009000221948EA
:10394000016941F400110161016901F40011009164
:10395000009900924FF44071036843F00203036042
:103960001222006800F00200009000980E480191B9
:10397000029201210391032204210591049201A9DD
:10398000FDF704FB07B000BD0848016821F40011F1
:1039900001604FF440710448FDF7C2BB48090020A4
:1039A0003C0E47423038024000040240403802409A
:1039B00030B504460025002C81B02AD0086820606C
:1039C0004A6862608868A0600A7B22730869206187
:1039D0004A6962618869DFF8F019A0612162646256
:1039E000DFF8E809E061206898B1804788B9A068ED
:1039F000022804BF94F8280000280CD10C218DF86F
:103A0000001001236A46122104F11C0002F04AFA58
:103A100008B14FF0FF35284601B030BD10B504465F
:103A2000012104F11C0002F00CFE002838D1012114
:103A300004F11C0002F0ECFD002831D1012104F159
:103A40001C0002F0FEFD00282AD1012104F11C0017
:103A500002F06DFD002823D1002104F11C0002F0CA
:103A600009FEE8B9042084F82B00002104F11C00B1
:103A700002F052FAA0B9002104F11C0002F018FA79
:103A800070B9042084F82C00002104F11C0002F01D
:103A9000F1FB28B90C2104F11C0002F09FFB10B1CE
:103AA0004FF0FF3010BD012084F82800002010BD29
:103AB00010B5044694F8290070B104F12B0104F10B
:103AC0001C0002F043FB10BB002104F11C0002F0BB
:103AD00023FAE0B984F8290094F82A0070B104F1BF
:103AE0002C0104F11C0002F0DFFC80B9002104F17C
:103AF0001C0002F0BFFB50B984F82A00002100200E
:103B000084F82B1084F82C0084F8281010BD4FF096
:103B1000FF3010BD00B581B01C3002F070FD08B15F
:103B20004FF0FF3001B000BD012008704870002345
:103B3000102088604FF4FA629FEDAD0A00208B7070
:103B4000CB704A60CB6081ED040A81ED050A886183
:103B5000704710B5044694F8290001280CD094F859
:103B60002B1004F11C0002F0D7F910B14FF0FF3018
:103B700010BD012084F82900002010BD10B50446B6
:103B800094F8290088B104F12B0104F11C0002F023
:103B9000DDFA28B9002104F11C0002F0BDF910B1D2
:103BA0004FF0FF3010BD84F8290010BD30B581B052
:103BB0000D4669461C3002F094F9002418B14FF00C
:103BC000FF3001B030BD9DF80000032813D8DFE8B6
:103BD00000F0020E060ADFF8481629600DE0DFF853
:103BE000DC04286009E0DFF8D014296005E0DFF884
:103BF000C404286001E04FF0FF34204601B030BD1E
:103C000030B581B00D4669461C3002F09FFA0024A1
:103C100018B14FF0FF3001B030BD9DF800000A2808
:103C200030D8DFE800F006080C1014181C202428F7
:103C30002C002C6028E0DFF8AC07286024E0DFF8D7
:103C4000A817296020E0DFF8A40728601CE0DFF84F
:103C5000A017296018E0DFF89C07286014E0DFF85F
:103C60009817296010E0DFF8940728600CE0DFF86F
:103C70009017296008E0DFF88C07286004E05C49B1
:103C8000296001E04FF0FF34204601B030BD000054
:103C900000B581B090F82910DFEDA80A0129B4EE33
:103CA000600A53D1F1EE10FA47D4DFEDA50AB4EE65
:103CB000600AF1EE10FA48BF02213ED4DFEDA10AFE
:103CC000B4EE600AF1EE10FA48BF032135D4DFEDFF
:103CD0009E0AB4EE600AF1EE10FA48BF04212CD41B
:103CE000DFED9A0AB4EE600AF1EE10FA48BF052142
:103CF00023D4DFED970AB4EE600AF1EE10FA48BF64
:103D000006211AD4DFED930AB4EE600AF1EE10FA40
:103D100048BF072111D4DFED900AB4EE600AF1EE3E
:103D200010FA48BF082108D4DFEDBD0AB4EE600ADE
:103D3000F1EE10FA4CBF09210A211C3002F0ECF818
:103D4000002853D04FF0FF3001B000BDF1EE10FA63
:103D500048BF012147D4DFED7A0AB4EE600AF1EEE4
:103D600010FA48BF02213ED4DFED760AB4EE600AB5
:103D7000F1EE10FA48BF032135D4DFED730AB4EE3B
:103D8000600AF1EE10FA48BF04212CD4DFED6F0A6F
:103D9000B4EE600AF1EE10FA48BF052123D4DFED3E
:103DA0006C0AB4EE600AF1EE10FA48BF06211AD48C
:103DB000DFED680AB4EE600AF1EE10FA48BF0721A1
:103DC00011D4DFED650AB4EE600AF1EE10FA48BFD7
:103DD000082108D4DFED920AB4EE600AF1EE10FA81
:103DE0004CBF09210A2180F82B10002001B000BD32
:103DF0000058D04530B581B00D4669461C3002F000
:103E000070F8002418B14FF0FF3001B030BD9DF8BC
:103E1000000003280FD8DFE800F0020B050802219C
:103E200029600AE00420286007E00821296004E0F6
:103E30001020286001E04FF0FF34204601B030BD73
:103E400000B5032981B0B8BF002107DB0529B8BF41
:103E5000022103DB0929B4BF032101211C3002F038
:103E600027F808B14FF0FF3001B000BD10B582B0A7
:103E70000C4669461C3002F09EFB18B14FF0FF3033
:103E800002B010BDBDF800002080BDF802106180B6
:103E9000BDF80400A08002B0002010BD30B583B092
:103EA00004460D4601A904F11C0002F084FB002821
:103EB00040D1694604F11C0002F013F8002839D102
:103EC0009DF80000032835D8DFE800F031022E2BE2
:103ED0009FED780ABDF9040000EE900AF8EEE00AC2
:103EE00060EE800AFDEEE00AC5ED000ABDF906109D
:103EF00001EE101AB8EEC11A21EE001ABDEEC11A79
:103F000085ED011ABDF9080000EE900AF8EEE00A0E
:103F100020EE800ABDEEC00A85ED020A002003B043
:103F200030BD9FED650AD5E79FED640AD2E79FEDAE
:103F3000BC0ACFE74FF0FF3003B030BD010048416D
:103F40000100D041010050420100D0420100504325
:103F50000180D043014050440160D04410B5044674
:103F600094F82A0001280CD094F82C1004F11C00BD
:103F700002F080F910B14FF0FF3010BD012084F83D
:103F80002A00002010BD10B5044694F82A0088B11C
:103F900004F12C0104F11C0002F086FA28B900217A
:103FA00004F11C0002F066F910B14FF0FF3010BDB3
:103FB00084F82A0010BD000030B581B00D46694676
:103FC0001C3002F025F9002418B14FF0FF3001B089
:103FD00030BD9DF800000C281CD8DFE800F00B1B5A
:103FE000071B0F1B1B1B131B1B1B1700DFF8F013FA
:103FF000296011E0DFF8E40328600DE0DFF8D81352
:10400000296009E0DFF8CC03286005E0DFF8C01381
:10401000296001E04FF0FF34204601B030BD0000C0
:104020000150504530B581B00D4669461C3002F054
:104030003BFA002418B14FF0FF3001B030BD9DF8BD
:1040400000000A2831D8DFE800F006080C10141828
:104050001C2024282C002C6029E0DFF8880328602D
:1040600025E0DFF88413296021E0DFF88003286071
:104070001DE0DFF87C13296019E0DFF87803286081
:1040800015E0DFF87413296011E0DFF87003286091
:104090000DE0DFF86C13296009E0DFF868032860A1
:1040A00005E0DFF86413296001E04FF0FF3420469B
:1040B00001B030BD23DBF93E23DB793E23DBF93D44
:1040C00000B581B090F82A10DFED560A0129B4EE50
:1040D000600A53D1F1EE10FA47D4DFED530AB4EE83
:1040E000600AF1EE10FA48BF02213ED4DFED4F0A1C
:1040F000B4EE600AF1EE10FA48BF032135D4DFEDCB
:10410000AC0AB4EE600AF1EE10FA48BF04212CD4D8
:10411000DFEDA80AB4EE600AF1EE10FA48BF0521FF
:1041200023D4DFEDA50AB4EE600AF1EE10FA48BF21
:1041300006211AD4DFEDA10AB4EE600AF1EE10FAFE
:1041400048BF072111D4DFED9E0AB4EE600AF1EEFC
:1041500010FA48BF082108D4DFED9A0AB4EE600ACD
:10416000F1EE10FA4CBF09210A211C3002F082F84E
:10417000002853D04FF0FF3001B000BDF1EE10FA2F
:1041800048BF012147D4DFED280AB4EE600AF1EE02
:1041900010FA48BF02213ED4DFED240AB4EE600AD3
:1041A000F1EE10FA48BF032135D4DFED810AB4EEF9
:1041B000600AF1EE10FA48BF04212CD4DFED7D0A2D
:1041C000B4EE600AF1EE10FA48BF052123D4DFED0A
:1041D0007A0AB4EE600AF1EE10FA48BF06211AD44A
:1041E000DFED760AB4EE600AF1EE10FA48BF07215F
:1041F00011D4DFED730AB4EE600AF1EE10FA48BF95
:10420000082108D4DFED6F0AB4EE600AF1EE10FA6F
:104210004CBF09210A2180F82C10002001B000BDFC
:1042200023DB793D010048410100D04101005042AB
:1042300030B581B00D4669461C3001F0E9FF00241D
:1042400018B14FF0FF3001B030BD9DF800000C28D0
:104250001AD8DFE800F00A1907190D1919191119F0
:10426000191915007D21296010E0FA2028600DE061
:104270004FF4FA71296009E04FF47A70286005E084
:104280004FF4FA61296001E04FF0FF34204601B09D
:1042900030BD00B57E2981B0B8BF02210FDBFB29FC
:1042A000B8BF00210BDB40F2F5129142B8BF0421E8
:1042B00005DB40F2E9329142B4BF08210C211C30E9
:1042C00001F08CFF08B14FF0FF3001B000BD10B518
:1042D00082B00C4669461C3002F064F918B14FF008
:1042E000FF3002B010BDBDF800002080BDF8021004
:1042F0006180BDF80400A08002B0002010BD000065
:1043000030B583B004460D4601A904F11C0002F04B
:1043100049F9002848D1694604F11C0001F078FFF2
:10432000002841D19DF800000C283DD8DFE800F0BE
:10433000363C393C333C3C3C303C3C3C07009FED38
:10434000240ABDF9040000EE900AF8EEE00A60EEDF
:10435000800AFDEEE00AC5ED000ABDF9061001EE87
:10436000101AB8EEC11A21EE001ABDEEC11A85ED81
:10437000011ABDF9080000EE900AF8EEE00A20EEFE
:10438000800ABDEEC00A85ED020A002003B030BDF0
:104390009FED100AD5E79FED100AD2E79FED0F0AB7
:1043A000CFE79FED0F0ACCE74FF0FF3003B030BDF1
:1043B0000100D042010050430180D04301405044ED
:1043C0000160D04401505045614400086D4400082C
:1043D00000008C4200000C4200008C4100000C41A7
:1043E00000008C40000048410000D04100005042D5
:1043F0000000D042000050430080D04300405044B1
:104400000060D044005050450058D04500B581B000
:1044100001231C3001F040FD08B14FF0FF3001B026
:1044200000BD04B501236A461C3001F03BFD08B114
:104430004FF0FF3001B000BD00B581B01C3002F07C
:104440008FF808B14FF0FF3001B000BD00B581B06A
:104450001C3002F096F808B14FF0FF3001B000BDFB
:1044600010B50446207B6469A04710BD10B5044612
:10447000207B2469A04710BD30B504460025002CE0
:1044800081B02AD0086820604A6862608868A060AD
:104490000A7B2273086920614A69626188690FF6A4
:1044A000E501A061216264620FF6E500E061206829
:1044B00098B1804788B9A068022804BF94F8280002
:1044C00000280CD105218DF8001001236A46212116
:1044D00004F11C0002F02CF908B14FF0FF3528461A
:1044E00001B030BD10B50446012104F11C0002F0FA
:1044F000C5FA002824D1012104F11C0002F04EFA73
:10450000F0B9002104F11C0002F0D1FAC0B9042175
:1045100004F11C0002F012F990B9DFF8D403E06254
:10452000002184F8301084F8311004F11C0002F0EE
:10453000AAF928B9002104F11C0002F048FA10B1D0
:104540004FF0FF3010BD012084F82800002010BD7E
:1045500010B5044694F8290050B1002104F11C0064
:1045600002F091F910B14FF0FF3010BD84F829002E
:104570000020E06284F8300084F8310084F82800DC
:1045800010BD00B581B01C3002F06FFA08B14FF0D9
:10459000FF3001B000BD01200870002210204A70D9
:1045A0008A70CA704A608860CA600020DFF84C23B5
:1045B00008614A618861704710B5044694F8290083
:1045C00001280FD094F8312094F8301094ED0B0AA4
:1045D000204600F019FB10B14FF0FF3010BD012054
:1045E00084F82900002010BD10B5044694F8290075
:1045F00050B1002104F11C0002F045F910B14FF058
:10460000FF3010BD84F8290010BD000070B582B0E5
:1046100006460C46694606F11C0002F0F1F9002539
:1046200030B90DF1010106F11C0002F0BFF818B11C
:104630004FF0FF3002B070BD9DF801101B2931D83A
:10464000DFE801F00E1C1C1C1C3030300E1C1C1C42
:10465000303030300E1C1C1C1C3030300E1C1C1C2A
:104660009DF80020032A1DD8DFE802F01619020584
:104670009FED650A1AE09FED650A17E09DF80000BE
:1046800003280FD8DFE800F00205080B9FED600A51
:104690000CE09FED600A09E09FED5F0A06E09FEDE8
:1046A000900A03E0BFEE000A4FF0FF3584ED000AE8
:1046B000284602B070BD000070B582B006460C46B8
:1046C0000DF1010106F11C0002F010F9002528B9D6
:1046D000694606F11C0002F069F818B14FF0FF308E
:1046E00002B070BD9DF80100222800F28380DFE84F
:1046F00000F012152D3033367E395067818181816B
:104700008181818112818181818181818181818108
:104710008181818112009FED730A6FE09DF8000096
:104720001B2800F26780DFE800F00E0E0E0E116508
:1047300065650E0E0E0E656565650E0E0E0E116535
:1047400065650E0E0E0E9FED680A57E0B2EE090A7F
:1047500054E0B3EE090A51E09FED640A4EE09FED8C
:10476000640A4BE09DF800001B2843D8DFE800F006
:104770003F3F3F3F0E4242423F3F3F3F4242424265
:104780003F3F3F3F0E4242423F3F3F3F9FED590A6E
:1047900034E09DF800001B282CD8DFE800F0282822
:1047A00028280E2B2B2B282828282B2B2B2B28288E
:1047B00028280E2B2B2B282828289FED4F0A1DE098
:1047C0009DF800001B2815D8DFE800F01111111129
:1047D0000E141414111111111414141411111111B7
:1047E0000E141414111111119FED440A06E09FEDEF
:1047F000440A03E0BFEE000A4FF0FF3584ED000AE3
:10480000284602B070BD000023DB794023DBF9406D
:1048100023DB793E23DBF93E23DB793F00220021B5
:1048200090F82930012B04BFC9B200F0EDB9DFEDDB
:10483000350AB4EE600AF1EE10FA80F8301080F814
:10484000312048BF9FED280A46D4DFED2F0AB4EE91
:10485000600AF1EE10FA48BFB2EE090A3CD4DFED6F
:104860002B0AB4EE600AF1EE10FA48BFB3EE090A63
:1048700032D4DFED270AB4EE600AF1EE10FA48BF39
:104880009FED1A0A28D4DFED230AB4EE600AF1EE98
:1048900010FA48BF9FED160A1ED4DFED1F0AB4EED2
:1048A000600AF1EE10FA48BF9FED150A14D4DFED4F
:1048B0001B0AB4EE600AF1EE10FA48BF9FED0D0A34
:1048C0000AD4DFED170AB4EE600AF1EE10FA4CBF1D
:1048D0009FED090A9FED090A80ED0B0A0020704741
:1048E00023DBF93F00000000CDCCCC3F0000484264
:1048F0000000C8420000C843000048440000C8440B
:1049000000004843CECCCC3F010048410100C841E3
:10491000010048420100C842010048430100C84369
:104920000100484430B581B00C4669461C3002F0A5
:1049300067F8002518B14FF0FF3001B030BD9DF889
:10494000000003280BD8DFE800F00204060802206C
:1049500008E0042006E0082004E0102002E04FF008
:10496000FF352846206001B0284630BD00B5032938
:1049700081B0B8BF002107DB0529B8BF012103DBE7
:104980000929B4BF022103211C3002F020F808B12C
:104990004FF0FF3001B000BD70B584B006460D4643
:1049A000694606F11C0001F001FF002428B901A9A5
:1049B00006F11C0002F050F818B14FF0FF3004B0BF
:1049C00070BD9DF800001B283BD8DFE800F00E24E6
:1049D0002424243A3A3A0E2424243A3A3A3A0E2429
:1049E0002424243A3A3A0E242424BDF90400C110A8
:1049F00000EB117000112880BDF90600C11000EB1A
:104A0000117000116880BDF90800C11000EB117031
:104A10000011A88017E0BDF90400411000EB91706F
:104A200080102880BDF90600411000EB91708010C5
:104A30006880BDF90800411000EB91708010A880DB
:104A400001E04FF0FF34204604B070BD2DE9F04185
:104A500084B080460C46694608F11C0001F0A6FEB1
:104A6000002840F0AC8001A908F11C0001F0F4FF1F
:104A7000002840F0A4809DF800001B2800F29F80D1
:104A8000DFE800F0210E0E0E0E9D9D9D210E0E0EF4
:104A90009D9D9D9D210E0E0E0E9D9D9D210E0E0E27
:104AA000BDF90450BDF90670BDF90860681005EB4A
:104AB0009075781007EB9077701006EB9076AD103C
:104AC000BF10B61011E0BDF90450BDF90670BDF974
:104AD0000860E81005EB1075F81007EB1077F01080
:104AE00006EB10762D113F113611694608F11C00B6
:104AF00001F086FF002840F062800DF1010108F10D
:104B00001C0001F053FE002859D19DF801101B290B
:104B100055D8DFE801F0400E0E0E0E545454400EEE
:104B20000E0E54545454400E0E0E0E545454400E57
:104B30000E0E9DF80020032A41D8DFE802F029027A
:104B40003D3A9FED810A2DB200EE905AF8EEE00A50
:104B500060EE800AFDEEE00AC4ED000A3FB200EE0E
:104B6000907AF8EEE00A60EE800AFDEEE00AC4ED0D
:104B7000010A36B200EE906AF8EEE00A20EE800AF2
:104B8000BDEEC00A84ED020A002004B0BDE8F08149
:104B90009FED6E0AD7E79DF8000003280FD8DFE8E5
:104BA00000F00B0805029FED6A0ACCE79FED690A49
:104BB000C9E79FED690AC6E79FED680AC3E74FF0B2
:104BC000FF3004B0BDE8F08100B581B001231C3096
:104BD00001F0A8FD08B14FF0FF3001B000BD04B5F1
:104BE00001236A461C3001F0A3FD08B14FF0FF30ED
:104BF00001B000BD00B581B01C3001F01CFF08B150
:104C00004FF0FF3001B000BDF0B504460D4681B055
:104C1000E8B2401E2DED028B0328B0EE408A164606
:104C200003D8DFE800F011161B20012EB2EE090AAE
:104C300014BF04271427B4EE408AF1EE10FA20D5F1
:104C4000B0EE408A022164E0012E0CBF1327032737
:104C50000DE0012E0CBF1227022708E0012E0CBF29
:104C60001127012703E0012E14BF002710279FED15
:104C70003C0AB4EE408AF1EE10FAA8BF9FED398AE3
:104C800033DA9FED390AB4EE408AF1EE10FA48BFEC
:104C900001213ED49FED350AB4EE408AF1EE10FAC0
:104CA00001D5022135E09FED320AB4EE408AF1EEE3
:104CB00010FA48BF03212CD49FED2E0AB4EE408A8F
:104CC000F1EE10FA48BF042123D49FED2B0AB4EE75
:104CD000408AF1EE10FA48BF05211AD49FED200A50
:104CE000B4EE408AF1EE10FA01D5062111E09FEDF5
:104CF000230AB4EE408AF1EE10FA48BF072108D427
:104D00009FED1F0AB4EE408AF1EE10FA4CBF082165
:104D1000092104F11C0001F0B6FD28B9394604F15F
:104D20001C0001F00BFD28B1BDEC028B4FF0FF30F1
:104D300001B0F0BD84ED0B8A84F8305084F8316006
:104D4000BDEC028B01B0F0BD23DBF93E23DB793EE5
:104D500023DBF94023DB794023DBF93F23DB793F79
:104D60000100484300004843CECCCC3F01004841FD
:104D70000100C841010048420100C8420100C84387
:104D80000100484410B50446207B6469A04710BD6B
:104D900010B50446207B2469A04710BD30B50446F9
:104DA0000025002C81B030D0086820604A6862601D
:104DB0008868A0600A7B2273086920614A69626181
:104DC00088690FF2ED21A061216264620FF2FD207B
:104DD000E0612068C8B18047B8B9A168B9B194F85A
:104DE0002800A0B901290AD134208DF80000012340
:104DF0006A46622104F11C0001F07AFE04E0012100
:104E000004F11C0001F01CFF08B14FF0FF352846EB
:104E100001B030BD10B50446012104F11C0001F0C1
:104E2000BAFE88B9022104F11C0001F067FE58B9EE
:104E3000032104F11C0001F07AFE28B9002104F1DD
:104E40001C0001F0E4FE10B14FF0FF3010BD012056
:104E500084F82800002010BD10B5044694F82900FD
:104E600050B1022104F11C0001F048FE10B14FF0D6
:104E7000FF3010BD84F82900002184F8281000209C
:104E800010BD00B581B01C3001F0B8FE08B14FF084
:104E9000FF3001B000BD002008704870C870486045
:104EA000886008613222CA6001234148886100227B
:104EB0008B704A610020704710B5044694F82900B1
:104EC00001280BD0002104F11C0001F017FE10B1E5
:104ED0004FF0FF3010BD012084F82900002010BDE4
:104EE00010B5044694F8290050B1022104F11C00C9
:104EF00001F004FE10B14FF0FF3010BD84F829001E
:104F000010BD4FF07F5008600020704730B581B071
:104F10000D4669461C3001F023FE002418B14FF005
:104F2000FF3001B030BD9DF8000003280FD8DFE846
:104F300000F00205080B1F4929600AE01E4828609E
:104F400007E01E49296004E01948286001E04FF09D
:104F5000FF34204601B030BDDFED120A00B5B4EEDB
:104F6000600AF1EE10FA81B048BF002111D4DFEDE4
:104F70000E0AB4EE600AF1EE10FA48BF012108D41F
:104F8000DFED0A0AB4EE600AF1EE10FA4CBF02211E
:104F900003211C3001F0CBFD08B14FF0FF3001B010
:104FA00000BD0000010020410100A0410100484275
:104FB0000000C842000020410000A041000048421B
:104FC00032200860002070470020704710B582B082
:104FD0000C4669461C3001F008FE18B14FF0FF3056
:104FE00002B010BDBDF800002080BDF80210618045
:104FF000BDF80400A08002B0002010BD10B582B042
:105000000C4669461C3001F0F0FD18B14FF0FF303E
:1050100002B010BDBDF9000000EE100AB8EEC00AE3
:10502000F7EE080A60EE200AFDEEE00AC4ED000A81
:10503000F7EE080ABDF9020000EE100AB8EEC00A49
:1050400060EE200AFDEEE00AC4ED010AF7EE080A60
:10505000BDF9040000EE100AB8EEC00A60EE200AA6
:10506000FDEEE00AC4ED020A002002B010BD00B55A
:1050700081B001231C3001F035FD08B14FF0FF3045
:1050800001B000BD04B501236A461C3001F030FDBB
:1050900008B14FF0FF3001B000BD00B581B01C3049
:1050A00001F092FD08B14FF0FF3001B000BD0000EB
:1050B00070B58568047B4669002D0CBF41F0800106
:1050C00041F040012046B04770BD000070B58568D2
:1050D000047B0669002D0CBF41F0800141F04001C6
:1050E0002046B04770BD0000704700002DE9F84F22
:1050F0000FF2FC4590461F4694B0D5E90023049179
:10510000CDE900231E9C944E8DF837400021824645
:105110000A914FF0FF3513E0C3464C461BF8011BC4
:105120000498D0470028049000F001810A98401CA0
:10513000641E0A90F2D102E0EED54FF00109C84496
:1051400098F80000252805D1002100220791089237
:1051500009910CE06A462946404601F0B9FD8146B6
:10516000B9F1000FE8D10A98F8E041F0010118F810
:10517000010F2028F9D023280CD02B2804D02D286B
:1051800005D0302809D0D4E041F00201EFE741F02A
:105190000401ECE741F00801E9E741F01001E6E71E
:1051A0000C920AE00C98B04205DA00EB800402EBA6
:1051B0004402303A0C9208F1010898F80020A2F15C
:1051C00030000A28EED398F800002E2818BF0B955F
:1051D00026D118F8010F2A2808D13868386008F15C
:1051E000010850F8042B38600B9219E02D280CBFF1
:1051F00008F10108002000220B920BE040B90B9A45
:10520000B24205DA02EB820403EB4403303B0B931A
:1052100008F1010898F80030A3F130020A2AEDD312
:10522000ADF834100FF2D03098F8001001F054FDB2
:1052300008B118F8010B8DF836009DF83600682883
:1052400004BF98F80010682904D162208DF8360058
:1052500008F101080EA806903A4618F8013B03A988
:10526000504600F0A9F8002861D10C980799099AD6
:10527000401A0899801AA0EB01099DF834004107F3
:1052800010D42020B9F1000F8DF808000ADD4C463B
:10529000012302AA03A9504600F093F9002846D141
:1052A000641EF5D1079C0DF1380B5CB11BF8011B96
:1052B0000498D0470028049039D00A98401C641EF6
:1052C0000A90F3D1099C3020002C8DF8080008DDED
:1052D000012302AA03A9504600F073F938BB641EEB
:1052E000F6D1DDF814B0089C54B11BF8011B0498EA
:1052F000D0470490D8B10A98401C641E0A90F4D19B
:105300009DF8340041077FF51BAF2020B9F1000F55
:105310008DF808007FF714AF4C46012302AA03A9B9
:10532000504600F04EF910B9641EF6D108E7284641
:1053300014E02A287FF434AF3A683A6052F8040B3C
:105340003A6000280C9003D540420C9041F00401D3
:1053500008F1010837E70000CBCCCC0C15B0BDE854
:10536000F08F62280ED0682819D1002A0A680A60D6
:10537000106803D0121D0A6000B217E0121D0A6007
:1053800080B217E0002A0A680A60106803D0121D74
:105390000A6040B20AE0121D0A60C0B20AE0002AA8
:1053A0000A680A60106803D0121D0A60C1177047AE
:1053B000121D0A600021704770B51C460D46252C51
:1053C000EE68114600F08480582C37D0632C0ED044
:1053D000642C18BF692C14D06F2C2FD0702C49D09E
:1053E000732C53D0752C18BF782C27D076E0286901
:1053F000421C2A610A680A6052F8043B0A6033546E
:1054000076E095F82A000122FFF7ABFF002828601C
:1054100004D52869411C29612D220DE0288D8107C2
:1054200004D52869411C29612B2205E0C0071CD541
:105430002869411C29612022325416E095F82A007F
:105440000022FFF78EFF286095F8280001070CD591
:10545000286850B144F02001782906D1286930210C
:105460003154401C421C2A6134542146286930447E
:10547000A86007E00868086050F8042B08602A60FC
:10548000AE607821284600F035F831E00868086001
:1054900050F8044B0860AC603CB900BF58A001F064
:1054A00027FC4FF0FF34201A70BD2E6A002E04D561
:1054B0002046FDF787F9044608E0324600212046E1
:1054C00001F036FC002814BF041B34466C610FE069
:1054D0002869411C29612522325409E02969481CA8
:1054E000286125227254210002D0431C2B613454C0
:1054F000002070BDF0B402466F29D46808BF0826AA
:1055000005D041F02000782814BF0A26102618255F
:105510001368642918BF6929184602D1002B48BFB7
:105520004042F0B9136AE3B9082E39D192F8280045
:10553000010735D530201725E07531E000280ED55C
:1055400092F8280000F01400102808D1546A11695C
:105550009069641A241AE31A012BA8BF9361F0BC66
:105560007047B0FBF6F706FB170030306D1EC3B274
:105570003A2BA4BFA1F1510318186055380003D08D
:1055800093686719BB42ECD3082E09D192F8280022
:10559000010705D5605D302802D06D1E30206055B2
:1055A000C5F11803106A5361611983429160C5DA2D
:1055B000118DC31A4FF6EF70014093611185F0BC55
:1055C0007047F8B505460E4617461C46002074B1D4
:1055D00017F8011B7068A847706030B1F069401C73
:1055E000F0610020641EF3D1F2BD4FF0FF30F2BD38
:1055F0000000000000000000686C747A4C0000009D
:105600007072696E74665F733A20626164202573FC
:1056100020617267756D656E740000007047704799
:105620007047704730B5044683B0E079401E1E28AD
:1056300000F2A281DFE810F01F004F008900B500E2
:10564000E300420171018500850085008500850029
:105650008500850085008500850085008500DD01C9
:10566000E1018500850085008500850085008500B5
:1056700085001101A401207A012501281CD0C0F069
:105680007B81032804D00DD30025284603B030BD0C
:10569000DFF89C06827802EB820300EB830303F1C0
:1056A000B80112E0DFF88806417801EB810200EBD7
:1056B000820000F1A40108E0DFF87406017801EB34
:1056C000810200EB820000F17C01204600F07EFAAE
:1056D000284603B030BD00208DF80000217A012952
:1056E00026D0C0F08281032904D016D30025284695
:1056F00003B030BDDFF83806617AC0686A46FDF74E
:10570000EFFD002840F038812046FDF7E7FB9DF8CB
:105710000000A0720721216052E1DFF81406617ACF
:1057200080686A46FDF7DCFD002840F02581EBE744
:10573000DFF8FC05617A40686A46FDF7D1FD002874
:10574000E2D00025284603B030BD207A012822D0BF
:10575000C0F01281032804D012D30025284603B0DC
:1057600030BDDFF8CC05A27A617AC068FDF7D6FDBE
:10577000002840F001812046FDF7B0FB07201EE124
:10578000DFF8AC05A27A617A8068FDF7C7FD0028D2
:1057900040F0F280EFE7DFF89805A27A617A40687E
:1057A000F3E7207A012501281AD0C0F0E58003280C
:1057B00004D00BD30025284603B030BDDFF87005B8
:1057C000817800EBC10000F5887112E0DFF8600518
:1057D0004178C1EBC10200EB820000F1F40108E066
:1057E000DFF84C05017801EB810200EB820000F14B
:1057F000CC01204600F008FA284603B030BD042151
:1058000004F10900FDF7EDFC0246207A01281FD0C3
:10581000C0F0B280032804D010D30025284603B07E
:1058200030BDDFF80C35D8680421FCF76FFC002888
:1058300040F0A2802046FDF751FBBFE0DFF8F00406
:1058400080680121FCF762FC002840F09580F1E7B8
:10585000DFF8DC0440680221F4E700200090217AA0
:10586000012925D0C0F0C180032904D016D300251A
:10587000284603B030BDDFF8B804C0686A4604218A
:10588000FCF703FC002877D12046FDF727FB0099A1
:10589000042204F10900FDF789FC8FE0DFF8900491
:1058A00080686A460121FCF7F0FB002864D1EBE731
:1058B000DFF87C0440686A460221F4E7207A01257B
:1058C00001281BD058D3032804D00DD30025284627
:1058D00003B030BDDFF85804817801EB810200EBA2
:1058E000820000F5CE7112E0DFF844144A782C20D3
:1058F00010FB02F2881800F5B87108E0DFF83014E8
:105900000A782C2010FB02F2881800F58C712046D2
:1059100000F0A0F9284603B030BD0020009004F14B
:10592000090108680090207A01281ED024D303289A
:1059300004D010D30025284603B030BDDFF8F003B3
:105940009DED000AC0680421FCF7C2FBA0B9204607
:10595000FDF7C4FA32E0DFF8D8039DED000A806855
:105960000121FCF7B5FB38B9F1E7DFF8C4039DED81
:10597000000A40680221F4E70025284603B030BD44
:1059800000200090217A01292AD02ED3032904D0A7
:105990001DD30025284603B030BDDFF89403C0684E
:1059A0006A460421FCF74EFB0028E5D12046FDF7AE
:1059B00095FA0098019004F1090210600920206016
:1059C0002046FBF78DFD0125284603B030BDD848A1
:1059D00080686A460121FCF735FB0028CCD1E5E759
:1059E000D34840686A460221F5E70025284603B0FF
:1059F00030BD204600F008F802E0204600F04AF8EA
:105A00000546284603B030BD70B504460125227A0C
:105A1000C74E012A04D03AD3032A26D017D336E042
:105A20002A2106F1200001F0AFF906F17C0106F110
:105A3000200001F0ACF9BDA106F1200001F0A7F9AA
:105A400006F1900101F0A3F906F120011AE01521F9
:105A500006F14C0001F098F906F1A40106F14C00A2
:105A600001F095F906F14C010CE0152106F16400F6
:105A700001F08AF906F1B80106F1640001F087F936
:105A800006F16401204600F0A1F8284670BD00250B
:105A9000284670BD30B581B0017AA54D0124012999
:105AA00005D0C0F08F8003295ED02FD38AE0417AE1
:105AB0006868297005F1100252F82130984200F010
:105AC00082800221FCF77BFA00B1002405F110006E
:105AD0002A7850F822000221FCF7BAF900B100241C
