:020000040800F2
:10000000A8090020796B0008816A0008836A00084B
:10001000856A0008876A0008896A000800000000F5
:100020000000000000000000000000008B6A0008D3
:100030008D6A0008000000008F6A0008916A0008BD
:10004000A36B0008A76B0008AB6B0008AF6B000840
:10005000B36B0008B76B0008BB6B0008956A00081B
:10006000BF6B0008C36B0008C76B0008CB6B0008B0
:10007000CF6B0008D36B0008D76B0008DB6B000860
:10008000DF6B0008E36B0008E76B0008EB6B000810
:10009000EF6B0008F36B0008F76B0008FB6B0008C0
:1000A000FF6B0008036C0008076C00080B6C00086D
:1000B0000F6C0008136C0008176C00081B6C00081C
:1000C0001F6C0008236C0008276C00082B6C0008CC
:1000D0002F6C0008336C0008376C00083B6C00087C
:1000E0009B6A00083F6C0008436C0008476C0008DE
:1000F0004B6C00084F6C0008536C0008576C0008EC
:100100005B6C00085F6C0008636C0008676C00089B
:100110006B6C00086F6C0008736C0008776C00084B
:100120007B6C00087F6C0008836C0008876C0008FB
:100130008B6C00088F6C0008936C0008976C0008AB
:100140009B6C00089F6C0008A36C0008A76C00085B
:10015000AB6C0008AF6C0008B36C0008B76C00080B
:10016000BB6C0008BF6C0008C36C0008C76C0008BB
:10017000CB6C0008CF6C0008D36C000800000000B6
:10018000D76C0008DB6C00082DE9F04F0FF2A41CBF
:10019000A1B0DCE90089CDE900892A9DDFF8DC9B6C
:1001A000049100248DF843500D944FF0FF3882469F
:1001B00016461F460FE0B3462C461BF8011B049859
:1001C000D0470028049000F0A2800D98401C641EC7
:1001D0000D90F2D176193078252808D1002100221F
:1001E0000791089209910A920B910C920DE06A46D0
:1001F0004146304600F0DAFF050001D10D98A1E03C
:10020000D9D50125E6E741F0010116F8010F2028B4
:10021000F9D023280CD02B2804D02D2805D0302845
:1002200009D076E041F00201EFE741F00401ECE78C
:1002300041F00801E9E741F01001E6E70F9209E01B
:100240000F98484505DA00EB800402EB4402303A8F
:100250000F92761C3278A2F130000A28F0D3307861
:100260002E2818BFCDF8388022D116F8010F2A2881
:1002700007D138683860761C50F8042B38600E922D
:1002800016E02D280CBF761C002000220E920AE0FA
:1002900040B90E9A4A4505DA02EB820403EB4403A7
:1002A000303B0E93761C3378A3F130020A2AEFD349
:1002B000ADF8401021A0317800F082FF08B116F8A7
:1002C000010B8DF842009DF84200682804D1307877
:1002D00068280AD1622105E06C2804BF30786C28B8
:1002E00003D171218DF84210761C12A806903A466F
:1002F00016F8013B02A9504600F064F838B912AA7A
:1003000002A9504600F0C8F900287FF564AF4046C6
:1003100018E02A2892D13A683A6052F8040B3A6001
:1003200000280F9003D540420F9041F00401761C45
:1003300095E700000000000000000000686A6C748F
:100340007A4C000021B0BDE8F08F622820D06828E8
:1003500011D06A2803D06C2827D0712825D10868CD
:10036000C01D20F007000860D0E9002308300860B5
:10037000194610467047002A0A680A60106803D0C0
:10038000121D0A6000B217E0121D0A6080B217E069
:10039000002A0A680A60106803D0121D0A6040B281
:1003A0000AE0121D0A60C0B20AE0002A0A680A6068
:1003B000106803D0121D0A60C1177047121D0A6031
:1003C000002170477CB50D4611461C462E69B4F1DC
:1003D000250200F04F811C3A00F08480121F022A8F
:1003E00040F280800E3A00F00981521F59D0093A3C
:1003F00078D0921E16D0521E35D0521E022A71D9C4
:10040000121F30D0521F00F09880521E49D0521E49
:1004100000F0E280D21E00F0FF80921E41D0D21E7A
:100420003FD02DE195F83A406C2C09D06869421C08
:100430006A610A680A6052F8043B0A60335429E191
:100440000A680A6052F8043B0A6000930022019295
:100450004FF0FF332B636A46294600F098F90028D5
:1004600040F1188103E195F83A000122FFF76DFF92
:10047000C5E90001002904D56869411C69612D2284
:100480000DE0288F810704D56869411C69612B2222
:1004900005E0C00721D56869411C696120223254FA
:1004A0001BE095F83A000022FFF74FFFC5E9000175
:1004B00095F83800010710D5D5E90023002B08BFB7
:1004C000002A0AD044F02000782806D1686930213B
:1004D0003154401C421C6A613454214668693044DE
:1004E000E86087E00868C01D20F007000860D0E9D8
:1004F000002308300860C5E90023D5E90001C80FD2
:1005000004D06869411C69612D220DE0288F8107A4
:1005100004D56869411C69612B2205E0C00704D538
:100520006869411C69612022325468693044E8607E
:100530002146284600F036FAACE005F13A02507840
:1005400020B14FF0FF340FF6043074E010786228C9
:1005500008D0682824D06A2812D06C282ED07128A0
:100560000ED02BE00A680A6052F8040B0A6020B92A
:100570004FF0FF340FF6EC205DE0E96A017089E08E
:100580000A680A6052F8040B0A6020B94FF0FF3481
:100590000FF6D0204FE0EA6AD317C0E9002379E0D4
:1005A0000A680A6052F8040B0A6020B94FF0FF3461
:1005B0000FF6B0203FE0E96A01806BE00A680A604C
:1005C00052F8040B0A6020B94FF0FF340FF6942064
:1005D00031E0E96A01605DE00A680A6052F8040BE4
:1005E0000A60002120F0000221F0FF33C5E900235A
:1005F000EE607821284600F02DF94BE06C2285F85A
:100600003A200B680B6053F8042B0B6052BB4FF081
:10061000FF340FF684200EE095F83A206C2AF0D0D3
:100620000868086050F8044B0860EC603CB94FF073
:10063000FF340FF6482000F0EBFD201A76BD2E6B3C
:10064000002E04D5204600F003FE044608E03246A2
:100650000021204600F026FE002814BF041B34466B
:10066000AC6117E0294600F092F8002812D54FF04F
:10067000FF3076BD6869411C69612522325409E06A
:100680006969481C686125227254210002D0431C0C
:100690006B613454002076BD2DE9F0410E460546CD
:1006A0009046726B7069316AB46A121AB069521A54
:1006B000716A121AF069521A121A96F83800141B4D
:1006C00041070DD4002C0BDD2746B0682021A84738
:1006D0000028B06057D0F06A401C7F1EF062F4D151
:1006E000736942463146284600F098FC00284AD1FA
:1006F000376A002F0ADDB0683021A8470028B060B3
:1007000041D0F06A401C7F1EF062F4D1B369F268F8
:100710003146284600F082FCA8BB776A002F09DD2D
:10072000B0683021A847B06068B3F06A401C7F1EF3
:10073000F062F5D1F068B169F36942183146284694
:1007400000F06CFCF8B9B76A002F09DDB068302101
:10075000A847B060B8B1F06A401C7F1EF062F5D1C6
:1007600096F8380041070BD5002C09DDB068202130
:10077000A847B06038B1F06A401C641EF062F5D141
:100780000020BDE8F0814FF0FF30BDE8F0812DE999
:10079000F8470D46A3B02F6B002F0646904648BF82
:1007A0006FF000470FF60C1400F0A8FDD4E9002309
:1007B000696B4018CDE90123812828BF4FF0FF3035
:1007C00042D20024002F33DDD8F8001001AA684679
:1007D00000F0EEFC8146B9F1000F38D4D8F80000E3
:1007E00010B9B9F1010932D44F4521DB6869484499
:1007F00081280AD30021696303AA29463046FFF7FE
:100800004BFF040014D40020686103ABD5F814A09A
:100810004A46694603EB0A0000F082FDCA44C5F867
:1008200014A058F8040B002818BFA7EB0907C9D17A
:100830004CB903AA29463046FFF72EFF044614B9E7
:10084000002068616863204624B0BDE8F0874FF05F
:10085000FF34F8E72DE9FC4307466F293E6908BFDE
:10086000082405D041F02000782814BF0A24102461
:100870003C25D7E90023642918BF69299046994689
:1008800005D1002B03D5D8F1000869EB4909B9F16E
:10089000000F08BFB8F1000F1FD1386BE8B9082C62
:1008A0004CD197F83800010748D530203B2586F811
:1008B0003B0043E000280ED597F8380000F0140004
:1008C000102808D17B6B7969386A5B1A1B1A9A1A4F
:1008D000002AC8BF3A62BDE8F3838DF80010404695
:1008E00049462246E31700F027FD3032D0B26D1E94
:1008F0003A28019504DB9DF80000A0F151018A1807
:100900007255404649462246E31700F015FD8046E1
:100910005FEA010908BFB8F1000F03D0F868711948
:100920008842DCD3082C09D197F83800010705D597
:10093000705D302802D06D1E30207055C5F13C022C
:10094000BA617119F960386B8242B3DA821A3A627D
:100950004FF6EF70398F01403987BDE8F3832DE9F9
:10096000D04306460F4614464FF00008DFF81094B7
:1009700012E0E00707D542464B463046394600F0C4
:100980005FFD06460F464046494642464B4600F04C
:1009900057FD641080468946002CEAD1304639461E
:1009A000BDE8D0832DE9F84F05468A464AF0200479
:1009B0008EB0D5E90089612C02AE09D0286B0028E1
:1009C00048BF062003D408BF672C01D1012028634B
:1009D000D5E900014A005215521C0DD10B030BD072
:1009E000AAF1610103201A29A86102D20FF2CC6199
:1009F00010E00FF2CC610DE04A005215521C0ED1EE
:100A00000B030CD1AAF1610103201A29A86116D3A6
:100A10000FF2B461E868032200F082FCC0E1CDE986
:100A20000C01DDE90C2323F00043B3F5801F0DD248
:100A30000027002B08BF002A019703D111E00FF215
:100A40008461E7E701AA00F0CDFD0AE0CD48CE4978
:100A500000EB1350DDE90C2301900B40CB4910460D
:100A60001943C5E90001612C0DD1E86830210170FE
:100A7000821CBAF1610FEA600CBF782158214170E5
:100A80006869801C6861D5E90001CDE90C01DDE9E8
:100A90000C2333F0004104BF0028002300F04881FC
:100AA000612C40F0A080286B494600284CBF4FF0D5
:100AB000210B00F1010B404600220023DDE90C89E7
:100AC00000F0C8FD01990BF1010738BF89F000491A
:100AD000091F002F01918DF808200DF1090040F346
:100AE0003581A94900910646404649460022002327
:100AF00000F0C8FD80F029814800400D00F11C0283
:100B000011D0002A0FDD40F2FF739A4205DBA049A5
:100B100009F000400143002011E0009B194041EA28
:100B2000025140460BE028F0000039F0004108BFB8
:100B300000280FBF49461C22494600F0BBFD8046F5
:100B4000894600F055FEFF1F002F044609DD00F026
:100B50006DFE02460B464046494600F079FE80464F
:100B60008946F01D072104E004F00F0200F8012D72
:100B70002411002C01DD491EF6D5491E5CBF002260
:100B800000F8012DF9D5DCE00020194602AA0A443C
:100B900000E05B1E12F80149491E8442F9D00F287B
:100BA00004D10DF10900425C521C4254002904D5C5
:100BB0000198001D02AE5B1C0190581E0CD4311828
:100BC000AAF13A040A783032D7B23A2FA8BFA21855
:100BD000401E01F80129F5D5286B002840F1A780B7
:100BE000591E2963A3E001996A4A47F2975041438D
:100BF00091FBF2F2019229F00046D2F1070204DDE6
:100C000040463146FFF7ABFE0AE0524200206249FF
:100C1000FFF7A5FE02460B464046314600F08AFE2D
:100C20008046662C286B06BF019F0A3706273F18AF
:100C3000142FC8BF142730208DF8080089460DF105
:100C4000090000E03046002F34DD064640464946A4
:100C500000F094FF01460A4606F1080304200A2624
:100C6000B2FBF6F606EB860EA2EB4E02303203F82C
:100C7000012C0A22B6FBF2F202EB820EA6EB4E0624
:100C80003036401E03F8026DE9D1083F002F03F112
:100C90000806D7DD084600F085FF02460B464046B1
:100CA000494600F0D5FD00223C4B00F0C9FB8046D0
:100CB0008946CBE70DF10901401A0DF1090604E060
:100CC0000199491E401E0191761C31783029F7D0D8
:100CD000662C02D10199491C03E0652C0CBF01214F
:100CE00000212B6BCB189842B8BF431E002B1ED49B
:100CF000834204DAF05C3528A8BF392000DA3020BE
:100D00001946721E02EB010800E05B1E18F80199FB
:100D1000491E8145F9D0392802D1705C401C7054BD
:100D2000002904D50198401C16465B1C01900198CF
:100D300000B200901BB232465146284600F034F80B
:100D40002EE0C61D002F3FF7CFAE30460DF1090152
:100D5000401A03465845C8BF5B46002B0DF10906F3
:100D60003FF53AAF8342BFF60FAF0DF10900C15C0A
:100D700007297FF709AF0F2007E70000CBCCCC0C89
:100D80000000244002FCFFFFFFFF0F800000E03F57
:100D90000000F07FA08601000000F03F84D797415B
:100DA0000FB0BDE8F08F00002DE9F84783B006468C
:100DB0008A461746984600F0FDF9B8F1000F406AE0
:100DC000356B90F8009002DC4FF00108BFA74AF0A5
:100DD0002000BDF93040662808BF641C15D0672884
:100DE00040F0848014F1040FC0F28680AC4280F29F
:100DF000838096F83800641C010702D4A845B8BF68
:100E0000454620B22D1A48BF00250FFA84FAF06833
:100E1000B169BAF1000F25DC4A1C30234354002D80
:100E200003DC96F83800010703D5F06800F802905B
:100E3000521C15EB0A0FB8BF6C4220B24419414254
:100E40004445B8BFA046B26171620FFA88F5F561FA
:100E5000F068B3692A463946184400F061FA641B09
:100E6000B462C4E022B29045084417DA42463946DB
:100E700000F056FAB0694044B061AAEB0801002DB9
:100E8000716203DC96F838100A0705D5F16801F89D
:100E90000090F069401CF061B562A8E0394600F0AE
:100EA0003FFAB069002D5044A8EB040803DC96F823
:100EB00038100A0703D5F16801F80090401CB061B2
:100EC0000FFA88F08542F368B069B8BFA8460FFAF8
:100ED00088F207EB0A01184400F022FAB1690FFA10
:100EE00088F00144B161281A706280E0BAF1610FA4
:100EF00014D14FF0700A16E0A84504DA96F83810BD
:100F00000A0758BF45466D1E48BF0025BAF1670F56
:100F100014BF4FF0450A4FF0650A04E0BAF1410FE3
:100F200008BF4FF0500AB169F368481CB061002D4A
:100F300017F8012B5A5403DC96F838100A071BD512
:100F4000F168431CB36101F80090002D14DDA8F195
:100F500001080FFA88F039468542F768B8BFA846FD
:100F60000FFA88F2F81800F0DBF9B0690FFA88F18F
:100F700008446D1AB0617562F068B1690844002CCC
:100F800080F800A003D42B224270811C03E02D21A5
:100F900041706442811C00206A460AE023460A240C
:100FA00093FBF4F404EB8405A3EB450302F8013B47
:100FB000401C24B2002CF1DC012806DC4AF020029F
:100FC000652A04BF302201F8012B48B9302001F80E
:100FD000010B07E0401E1DF80030303301F8013BE3
:100FE0000028F7DCF268B0691044091AF16196F83C
:100FF000380000F0140010280DD17269B169706AD0
:101000008A18F1698218B06A8A188218706B824255
:10101000BCBF821A326204B0BDE8F087F8B505465D
:101020000E4617461C46002074B117F8011BB06825
:10103000A847B06030B1F06A401CF0620020641E26
:10104000F3D1F2BD4FF0FF30F2BD00007072696E57
:1010500074665F733A20256E20646973616C6C6FEF
:10106000776564007072696E74663A20626164200C
:10107000256E20617267756D656E74007072696EA1
:1010800074665F733A206261642025732061726721
:10109000756D656E740000007072696E74665F73C2
:1010A0003A2062616420256C7320617267756D65FA
:1010B0006E74000000000000000000006E616E0011
:1010C0004E414E00696E6600494E46003000F0B455
:1010D0000246106895681318506803EB5004C00767
:1010E0001DD54D441BE013F8017B05F8017B491E1B
:1010F000F9D1A0B1B60813F8011B06F00306032EC0
:1011000008BF13F8016B01EB06214942801C2944FA
:1011100005D011F8016B05F8016B401EF9D1A3420F
:101120000ED013F8016B16F0030104BF13F8011B76
:10113000C91C30090F28DAD113F8010B0F30D6E79C
:10114000F0BC02F10C0070471B48704770B4536844
:10115000D418042B09DA41B1057804F8015B10F8C2
:10116000016B16B15B1C491EF3E7536070BC7047FE
:1011700038B514461D4661B1FFF7E8FF61686A6B38
:10118000204690476FF00102811A02D0491E01D01B
:1011900001E003E005E00021616032BD6FF0010075
:1011A00032BD4FF0FF3032BDDA6B1047024BDFE744
:1011B000014BF9E701487047DC010020A401002041
:1011C000C9B202788A421AB11CBF10F8012FF9E7A0
:1011D00018BF0020704730B4002513E050F8042BEE
:1011E000D30744BFA9F101039A18091F042942F843
:1011F000045BFAD213468C0744BF15809B1CC907B9
:1012000048BF1D7050F8041B0029E7D130BC70475F
:1012100080B500B906A005490B681BB12222002148
:10122000984701E000F0CBFC222002BD9C05002085
:10123000636F6E73747261696E742068616E646C42
:1012400065723A20626164206D6573736167650041
:1012500000F10103810704D010F8011B820781B15E
:10126000FAD10268A2F10131914311F0803104BF3B
:1012700050F8042FF6E709BAB1FA81F100EBD1007A
:10128000401CC01A7047B1F5807F02D34FF0FF3089
:1012900070470170012070470078401E8041C043B4
:1012A000C00F7047C9B2830706D0521E22D310F870
:1012B000013B9942F7D11FE0083A13D302F104022F
:1012C00041EA012141EA014150F8043B121F21BFCC
:1012D0004B40A3F1013C2CEA030C1CF0803FF3D0FF
:1012E000C9B2001F083210F8013B521E28BF91EA14
:1012F000030FF8D818BF0120401E704780B5FFF7D4
:1013000023FF006C02BD8268521C8260426832B1C9
:101310000268531C036011704168491E41607047A8
:101320004AB1000011F8013B521E00F8013B1CBFFE
:1013300011F8013BF8E77047D3BBD9B1B2F5803F54
:101340005BD2022A1ED98C46B1FBF2F102FB11C31B
:101350001B0443EA1043B3FBF2FC02FB1C3380B2D4
:1013600040EA0343B3FBF2F002FB103240EA0C40C8
:1013700000237047022A05D98446B0FBF2F002FB35
:1013800010C270474AB105D100F0010249085FEA76
:101390003000704700220023704700F013BC0B00A0
:1013A0000200002100207047F7D30022002370477D
:1013B000904271EB030CF2D370B5B1FA81F4B3FA39
:1013C00083F52C1BA340C4F1200532FA05F6334304
:1013D000A2405FF00046E64002E05B085FEA3202AE
:1013E000841A71EB030524BF204629467641F4D3C5
:1013F00002000B003000002170BD70B5B1FA81F41D
:10140000B2FA82F5C4F120046419B4F12006DAD3EB
:10141000B2405FF00044F440002502E052085FEA69
:101420003303C61A71EB020E24BF30467146644185
:101430006D41F3D302000B002000290070BD0000B5
:10144000B0B581EA030C0CF0004C40F2FF7515EAD0
:1014500011541DBF15EA1357AC42AF4239E0E419ED
:1014600023EA455343F48013C90241F0004141EAA5
:10147000505EC7021100A7FB020200284FF00000D7
:10148000EEFB01204FF00001E3FB072118BF42F003
:101490000102401800214941E3FB0E01A4F58064DC
:1014A0000F0302D252004041494154F101046CDD66
:1014B000470872F1004250F1000051EB0451A1F5D0
:1014C00080115CBF41EA0C01B0BD4CEA055100201F
:1014D000B0BD05EA1357AC4214BFAF4241E050EA39
:1014E000410E1CBF52EA430E02E061460020B0BD2F
:1014F00024423C441BD15FEA070EF6D0090302BF29
:1015000001460020AEF1140EB1FA81F7AEEB0704EC
:1015100001FA07FE0C37C7F1200100FA07F7C840AF
:101520004EEA000E23EA455343F48013A2E733F05A
:101530000043B3FA83F704BFB2FA82FE77440B3F4D
:10154000E41BB7F1200E2FBF02FA0EF3BB40C7F128
:10155000200E22FA0EFE38BF43EA0E03BA40641C86
:1015600082E750EA410E14BF52EA430E6FF00001C9
:101570004FF4001717EB430F8ABF194617EB410FC3
:10158000B5E74CEA05510020B0BDD4F10104B4F137
:1015900020070FDAC4F12007520828BF42F00102E9
:1015A00010FA07F501FA07F7E1BF2A43E040384394
:1015B000E1400FE0352C98DCC7F1200452EA4002EC
:1015C00020FA07F218BF42F0010231FA07F0A140F9
:1015D0000A43002172F1004250F1000051EB0C016E
:1015E000B0BD000010B5144600F002F8226010BD36
:1015F000C1F30A5343B14A0012F5001F28D2A3F2E7
:10160000FE32A1EB0251704750EA410C20D001F0AC
:10161000004C31EA0C01B1FA81F204BFB0FA80F358
:10162000D2180B3AB2F120032CBF00FA03F191401B
:1016300041EA0C013EBFC2F1200C20FA0CF3194321
:101640009040524240F2FD33D21A01EB03517047F1
:10165000002270474FF4001C1CEB410F94BF1CEBA1
:10166000430F09E041EA030C50EA4C0C52EA0C0C1F
:1016700003D2994208BF9042704714BF8B42824206
:10168000704700004FF4001C1CEB410F94BF1CEB93
:10169000430F09E041EA030C50EA4C0C52EA0C0CEF
:1016A00003D28B4208BF8242704714BF99429042D6
:1016B00070470000124254D440F2FF7C1CEA1153E0
:1016C0000FD0634531D09B1863453CBF01EB0251FD
:1016D000704701F0004141EA0C510020AFF3008057
:1016E000704750EA410320D001F0004C91EA0C0110
:1016F0001CD0B1FA81F30B3B9A420DD9D21A994012
:1017000051EA0C01C3F1200C20FA0CFC6144984012
:10171000531C40F2FF7CD7E7914041EA0C01C2F133
:10172000200C20FA0CF3194390407047B0FA80F374
:101730001533202BE0D3202AEED3203A203B9A42C7
:1017400009D9D21A00FA03F141EA0C010020531C16
:1017500040F2FF7CB8E700FA02F141EA0C010020F8
:101760007047524240F2FF7C1CEA11530DD0634592
:10177000DBD0B2EB030C3CBFA1EB025170470CF184
:10178000010221EA035141F4801150EA410CCCD00E
:1017900001F0004C352A27DC30B481EA0C01B2F1AB
:1017A000200309DAC2F12003044601FA03F5D04010
:1017B0002843D1409C400CE0C3F12002450020FAB0
:1017C00003F418BF44F0010421FA03F091400C43E4
:1017D000002174F1004550F1000051EB0C0124424E
:1017E00030BC7FF47BAF70476146002076E7000095
:1017F000C1F30A5340F2FE329B1A14DDD3F12003E9
:101800004FEAE17208DDC90241EA505141F000405F
:10181000D84080185040704703F2E13010B1D243F5
:1018200082F000407047002070470000C11768B187
:101830004840401AB0FA80F29040D21CC907C2F565
:10184000846241EA025202EBD02140057047000059
:1018500070B44FF0004591EA030F40F1BD816B4039
:10186000841A71EB030603D2001BB14112197341B4
:101870004FF4001C1CEB410F34BF7CEB430442E0EF
:101880000C0DA4EB1356352E4FDC45EAC323DB0ABF
:1018900045EAC121C912B6F120050DDD63FA05F64E
:1018A000EB4086EA0305124218BF45F00105C01857
:1018B00051F100010CD213E062FA06F5F2405540F6
:1018C000F3415A40B340F3405A408018594107D37E
:1018D00049085FEA30005FEA350528BF45F0010599
:1018E00001F58011420875F1004250F1000041EB12
:1018F00004514E0016F5001F70BC38BF7047002021
:10190000090D090570471CEB410F10D252EA43063E
:101910000BD0BCEB410F05D80C0DAB43661E342E2B
:10192000B6DD02E0AB438018594170BC704770BC13
:1019300070470000F0B540F2FF7581EA030C0CF02F
:10194000004C15EA11541DBF15EA1357AC42AF42C3
:10195000E5E0BC41C1F31301C3F31303801A9941BD
:1019600043F4801304D2641E400049418018594159
:10197000C90241EA5051B1FBF3F603FB1611A2FB79
:101980000675D7EBC020A94102D2761E80185941B6
:10199000C90241EA5051B1FBF3FE03FB1E11A2FB49
:1019A0000E75D7EBC020A94103D2AEF1010E80180D
:1019B0005941890241EA9051760546EA8E2EB1FBE3
:1019C000F3F603FB1611A2FB0675D7EB8020A941A5
:1019D00002D2761E80185941C90241EA50514EEA9E
:1019E000060EB1FBF3F603FB1611A2FB0675D7EB4F
:1019F000C020A94102D2761E80185941C90241EA8D
:101A00005051B1FBF3F703FB1711A2FB0735D3EBE2
:101A1000C020A94167F100070CBF004247F0010751
:101A200066F3D5274FEA1E31B80814F5806412DD3D
:101A3000BD0775F1004250EB0E5051EB045111F50A
:101A4000801F5CBF41EA0C01F0BD4CF07F6141F0AA
:101A5000E0410020F0BDBD076D0840EA0E5041F4A2
:101A60008011D4F10104B4F120060ADAC4F1200691
:101A70000200E04001FA06F3E1401843B24015438A
:101A80000EE0342C13DCC6F1200445EA40056D0855
:101A900020FA06F2154321FA06F0A1400D43002179
:101AA00075F1004250F1000051EB0C01F0BD002037
:101AB0005FEA0C01F0BDCFB992185B41B3FA83F72E
:101AC00004BFB2FA82F6BF190B3FB7F120062FBF51
:101AD00002FA06F3BB40C7F1200622FA06F638BF29
:101AE0003343BA401CB1E419641E33E77F4231F03E
:101AF0000041B1FA81F404BFB0FA80F6A4190B3C9E
:101B0000B4F120062FBF00FA06F1A140C4F120066F
:101B100020FA06F638BF3143A0403C1B1AE7AC421E
:101B20001ABF05EA1357AF4212E050EA41061CBF44
:101B300052EA4306BFE750EA4107304661461CBF00
:101B400041EA0551F0BD52EA430C08BFC143F0BD64
:101B500000204FF4001616EB410F98BF16EB430F11
:101B600008BF16EB410F24BFC14305E016EB430F3E
:101B70000CBF61464CEA0551F0BD0000400D49180C
:101B800040EA81200CD2490DA1F58061491C40F04A
:101B9000004005DBD1F11F0154BFC840C01770479A
:101BA00000207047014648B1B0FA80F18840C91C56
:101BB000C1F58461090501EBD02140057047012082
:101BC00000F0C0B87047000070B44FF0004591EAD3
:101BD000030F7FF545AE6B40841A71EB030604D208
:101BE0006E40001BB141121973414FF4001C1CEBF5
:101BF000410F34BF7CEB430683E00C0DA4EB13567E
:101C0000362E00F37C80012E45EAC32341DC43EAF3
:101C1000525312BFD20292025B08240545EAC12149
:101C200041EA5051D2EBC020994125D407D1B0FAF6
:101C300080F610FA06F162D00020203608E0B1FAF2
:101C400081F6B140C6F1200220FA02F21143B04001
:101C50004FEAF474B4EB465434F001064FEA7404CE
:101C60000AD8D6F50016760D04F00044F04061FA6B
:101C700006F25040F1404840C00A40EA415021F08D
:101C8000004128BF5FEA500550F1000044EBD1212C
:101C900035E0DB0A45EAC121C90AB6F120050EDDAF
:101CA00042EA0242120CC5F1200603FA06F6EB40A6
:101CB00042EA06056D42984161F100010DE062FAC9
:101CC00006F5F240554063FA06FC82EA0C02F34046
:101CD0005A406D42904161EB030111F4801F05D120
:101CE000641E620502D06D004041494121F480111B
:101CF000430875F1004350F1000041EB045170BC02
:101D000070471CEB410F15D223F0004352EA430603
:101D10000BD04FEA4C0CBCEB410F04D80C0D661EE7
:101D2000342EB7DDEBE7801A994150EA410608BF2F
:101D30000021E4E708BF1CEB430F28BF6FF0000150
:101D4000DDE7000080B5AFF30080024A11001820E3
:101D5000ABBEFBE7260002002DE9FC47050017D0CB
:101D6000DFF8E876DFF8F466BC68F86800F003088E
:101D70002878C10604F00C0453D524B10C2C08BFFC
:101D8000B8F1010F2FD13868810703D5A869002861
:101D900000F06A81396808074EBF3968716809091F
:101DA000286A01F0F001814206D200F013FB0028FE
:101DB00009D100F00CFA08E000F009FA2CB9286A01
:101DC00000F008FB002840F04F8100F0A6FABA6846
:101DD00000F099FADFF87C06006800F057FB01007C
:101DE00000F03281EDE1A86990B1396841F001015C
:101DF000396000F06DFB81463868810700F122816F
:101E000000F066FBA0EB09000328F5D30320D8E11E
:101E1000386840084000386000F05AFB8146386856
:101E2000810740F1118100F053FBA0EB090003286A
:101E3000F5D3EBE76868B0F5803F04D1386840F42B
:101E40008030386011E0B0F5A02F386806D140F43A
:101E500080203860396841F4803105E020F480301A
:101E60003860396821F480213960686868B100F011
:101E70002FFB81463868810300F1F88000F028FBD1
:101E8000A0EB09006528F5D3C0E700F021FB8146EF
:101E90003868810340F1EA8000F01AFBA0EB0900EA
:101EA0006528F5D3B2E700F013FB00F08CF9C0F021
:101EB0000381ABE7E86880B1396841F4807139602B
:101EC00000F006FB80463868410500F1E08000F034
:101ED000FFFA00F078F9F6D398E7386820F48070BC
:101EE000386000F0F5FA80463868410540F1D68048
:101EF00000F0EEFA00F067F9F6D387E740084000FB
:101F0000706000F0E5FA80467068810740F1D88083
:101F100000F0DEFA00F057F9F6D377E705283068CD
:101F200006D140F004003060316841F0010105E065
:101F3000400840003060316821F004013160A86839
:101F400041F2893968B100F0C3FA824630688107EE
:101F500000F1EC8000F0BCFAA0EB0A004845F5D394
:101F600054E700F0B5FA82463068810740F1DE8020
:101F700000F0AEFAA0EB0A004845F5D346E700F4BE
:101F800000328A420FD1EA6B520800F4C001521E9F
:101F9000B1EB425F07D1296C490800F0C060491ECF
:101FA000B0EB416F1FD00C2C5ED0386841015BD480
:101FB0003868C10058D4386820F08070386000F06C
:101FC00087FA04463868810140F1D78000F080FA32
:101FD000001B0328F6D319E700F07AFA401B032808
:101FE000C0F0EA8012E73868810104D400F001F9FA
:101FF00004463868810100F1E38000F069FA001BB3
:102000000328F6D302E70C2C2ED0386820F080701D
:102010003860396811F0205F03D1F86880088000CB
:10202000F860F968DFF83804014000F0E9F8044688
:102030003868810140F1C48000F04AFA001B03288F
:10204000F6D3E3E600F0C3F82878C1070ED5082CD4
:1020500005D00C2C08BFB8F1030F7FF4EBAE386845
:10206000810303D5686808B90120AAE028788107B0
:1020700014D5042C05D00C2C08BFB8F1020F7FF446
:1020800019AF3868410502D5E8680028ECD07868B7
:10209000296920F0F85040EA01607860287801074B
:1020A0000ED56869002870683FF428AF40F0010041
:1020B000706000F00DFA8046706881077FF5F3AE1E
:1020C0002878410739D5B86DC1004FF000080AD40F
:1020D000B86D40F08050B8654FF00108B86D00F061
:1020E000805000900098DFF87C93D9F80000C1057B
:1020F00013D4D9F8000040F48070C9F8000000F053
:10210000E7F98246D9F80000C10506D400F0E0F9ED
:10211000A0EB0A000328F5D378E6A86801287FF42D
:10212000FDAE306840F00100306008E7B8F1000F04
:1021300003D0B86D20F08050B865A86A00283FD061
:1021400002287FF460AFF868EA6A00F00301914268
:1021500001BF00F070012A6B521EB1EB021F04D1C7
:102160006A6B00F4FE41B1EB022F7FF41CAFA96B48
:1021700007290CBF0021012101E7FA68DFF8E81206
:10218000E86A0A40296B0243491E686B42EA011261
:10219000E96B490842EA0022286C491E400842EADD
:1021A0004152401E42EA4062A86B000942EA4042A6
:1021B000FA6000F01EF80546386881017FF50CAF23
:1021C0000020BDE8F687A0EB0800032870473868B8
:1021D00040F0080038603968286A21F0F0010143B6
:1021E00039607968E86921F47F4141EA002179602A
:1021F0007047386840F080703860F96841F080714D
:10220000F96000F065B92DE9F0410400884678D006
:10221000DFF85862306800F00700404509D23168A5
:10222000C90848EAC1013160306800F00700404544
:1022300067D12078DFF81452C1074AD560680328B7
:1022400002D129688A0108E0022802D129688A039C
:1022500003E00028296802D18A0702D451E04A0528
:102260004FD5A968890840EA8100A86000F030F9DC
:102270000746A868616800F00C00B0EB810F28D019
:1022800000F026F9C01B41F289318842F1D30320C6
:102290001DE02078410705D5AA68E06822F4E062D5
:1022A0000243AA602178080706D5A968206921F4AD
:1022B000605141EAC001A96000F02FF8AA6800F05F
:1022C00022F8BDE8F0416348006800F0DFB8BDE8DF
:1022D000F0812078810705D5AA68A06822F0F00275
:1022E0000243AA60316801F007018845D1D2306805
:1022F000C00848EAC0003060316801F0070141457C
:10230000C7D00120E3E75A49C2F30312895C504A5F
:1023100001F01F01C8401060704770B54B4A564B22
:102320009068D6680025002110F00C0006F0030626
:10233000524C03D00C2812D1012E1AD115682E0749
:1023400004D4454D2E68C6F3032502E01568C5F395
:1023500003154B4E56F8255048B9294624E0042869
:1023600008BF214620D008281ED119461CE00C28A1
:102370001AD1D06800F00300022803D0032808BF58
:102380001D4600E02546D168D068D268C0F306201B
:102390004543C1F30210C2F34161401C491CB5FB27
:1023A000F0F04900B0FBF1F1084670BD2848314A11
:1023B000006813683349C3F3022206E024482D4A1B
:1023C000006813682F49C3F3C222895C01F01F0122
:1023D000C84070477CB52C4E054630680024C100CB
:1023E00002D500F07BF80EE0306840F0805030609D
:1023F000316801F080510091009800F06FF8316869
:1024000021F080513160B0F5007F04D1802D0CD9CE
:10241000A12D09D304E0802D88BF032405D801D164
:10242000022402E0702D00D1012410480168C9087F
:1024300044EAC1010160006800F00700A04201D039
:10244000012076BD002076BD000000000010024093
:10245000A001002060010020941002409010024072
:10246000FFFFEEFE007000408C809DF900200240CE
:10247000406A00080810024000127A000024F400AC
:10248000506A0008946B00085810024070B50E4E58
:102490000446B0680025A0B14FF47A710B4AB1FB35
:1024A000F0F11068B0FBF1F000F09EF848B9102C84
:1024B00007D2002221464FF0FF3000F06DF8746023
:1024C00000E00125284670BD5C010020A00100202D
:1024D00001480068704700BF5C010020DFF8780009
:1024E000006800F4C060704710B5DFF86C10B0F5FC
:1024F000007F086800F4C06015D1B0F5007F1BD0E4
:102500000868DFF85820DFF8584020F4C06040F435
:10251000007000F018F84A6953050FD5002818BF5D
:10252000401EF8D10AE0B0F5806F05D0086820F4AD
:10253000C06040F480600860002010BD486941051B
:10254000FAD5032010BD0860322013684343B3FB63
:10255000F4F0401C7047000000700040A001002013
:1025600040420F000901020002D4294881547047FB
:10257000284B02F00F021A4402F8041C7047264B45
:1025800019684FF6FF020002114000F4E0600843B2
:10259000224908431860704738B51F4B1C68C4F3C4
:1025A0000223C3F10704052C28BF04241D1D072D99
:1025B00034BF0023DB1E012505FA04F4641E21400C
:1025C000994005FA03F35B1E1A401143BDE83440FD
:1025D000C8E7010007D4012200F01F01104B8A4018
:1025E000400943F82020704710B5401EB0F1807FAD
:1025F00001D3012010BD0B4C60600F214FF0FF3064
:10260000FFF7B0FF0021A16007202060002010BD6F
:1026100000E400E018ED00E00CED00E00000FA0539
:1026200000E100E010E000E02DE9F84C2DED0A8B10
:1026300082B041EC190B149C43EC182B0CB1002018
:10264000206051EC180B20F0000631F0004708BF65
:10265000002E14D053EC192B0020DFF8241600F0C4
:1026600063FB0CD0DFF8141600F05EFB0FD151ECC9
:10267000180B48004015401C09D1090307D102B0CE
:102680000020BDEC0A8BDFF8F815BDE8F48C51ECA6
:10269000190B48004015401C0DD051EC190B31F0BE
:1026A000004108BF002806D051EC180B4800401527
:1026B000401C40F0F58051EC190B48004015401CBF
:1026C00005D1090318BF51EC190B40F0CF8251EC32
:1026D000180B48004015401C05D1090318BF51ECE8
:1026E000180B40F0C38251EC180B48000124401530
:1026F000401C61D051EC180B4B0043EAD0734200F0
:10270000002B08BF002A04D1B0EE48AAF0EE68AA58
:1027100019E040F23345A5EB5352352A04DB00F0B3
:10272000000001F000410CE0202A03DD203AD140F6
:10273000914000E001D1002003E0002AC4BFD04056
:10274000904041EC1A0B53EC182B51EC1A0B00F093
:10275000EBFA18BF00244B0043EAD0734200002B71
:1027600008BF002A04D1B0EE4A0AF0EE6A0A19E066
:1027700040F23445A5EB5352352A04DB00F000004B
:1027800001F000410CE0202A03DD203AD1409140C5
:1027900000E001D1002003E0002AC4BFD0409040F7
:1027A00041EC100B44B153EC1A2B51EC100B00F020
:1027B000BBFA0CBF0024012451EC190B4800401552
:1027C000401C0ED109030CD151EC190BC80F25D1B7
:1027D00053EC182BDA0F0CBF9FED8C0B9FED8D0B7C
:1027E00042E251EC180B48004015401C28D1090367
:1027F00026D153EC192B23F00041B1F5801F22F0B4
:1028000000002ED20022002908BF002800922DD0FF
:102810006A4651EC190BFEF7E5FE27E051EC180B68
:10282000C80F06D1002C0CBF9FED780B9FED7B0BE2
:102830001AE2002C0CBF9FED770B9FED7A0B13E291
:10284000002C1ABF51EC190BC80F002053EC182BA9
:10285000DA0F1ED100280CBF9FED6E0B9FED710BA0
:1028600002E2DFF8204404EB1150009051EC180B09
:10287000C80F009806D10028CCBF9FED640B9FEDD8
:10288000650BF1E10028CCBF9FED620B9FED5F0B64
:10289000EAE100280CBF9FED5D0B9FED600BE3E1CB
:1028A00051EC180B4B0043EAD0734200002B08BFD9
:1028B000002A04D1B0EE48AAF0EE68AA19E040F26E
:1028C0003345A5EB5352352A04DB00F0000001F03C
:1028D00000410CE0202A03DD203AD140914000E085
:1028E00001D1002003E0002AC4BFD040904041EC59
:1028F0001A0B51EC190BC80F11D053EC182B51ECDB
:102900001A0B00F011FA0AD0AFF3008002B04FF0BA
:10291000FF30BDEC0A8B6FF00041BDE8F48C53EC46
:10292000192B23F00041B1F5801F22F000000BD2DB
:102930000022002908BF0028009211D06A4651ECFD
:10294000190BFEF74FFE09E0CE4E06EB115000903A
:10295000DFF89C13CC4803401046194341EC190B97
:1029600051EC190BC80F36D021F0004053EC192B55
:10297000034643EC192B51EC1A0B4B0043EAD0737E
:102980004200002B08BF002A04D1B0EE4A0AF0EE44
:102990006A0A19E040F23445A5EB5352352A04DBAC
:1029A00000F0000001F000410CE0202A03DD203A95
:1029B000D140914000E001D1002003E0002AC4BFD3
:1029C000D040904041EC100B53EC1A2B51EC100B03
:1029D00000F0AAF901D1002600E0012600980128A4
:1029E00024D151EC190BA94AA94BFEF733FE1DD295
:1029F00053EC192B00204FF08041FEF721FD0025FC
:102A00009FEDC0BB41EC190B2EE000BF00000000A1
:102A10000000F07F00000000000000000000000047
:102A20000000F0FF000000000000008053EC192BB4
:102A300000209849FEF704FD9FED97AB53EC1A2B4D
:102A4000FFF7C2F8FEF7D4FEA0F120052846FEF7F6
:102A5000EDFE0022924BFEF7F3FC53EC1A2BFFF72E
:102A6000B3F841EC1B0B6D0151EC190B53EC1B2B14
:102A7000FEF7EEFE41EC1A0B53EC192B51EC1B0B3D
:102A8000FFF7A2F802460B4651EC1A0BFEF752FF75
:102A900041EC190B53EC192BFEF7D2FC41EC1C0B4B
:102AA00053EC1C2B7F488049FEF7CAFC7F4A804BC1
:102AB000FFF78AF853EC1C2BFEF7C2FC7D4A7E4BD5
:102AC000FFF782F853EC1C2BFEF7BAFC7B4A7C4BD9
:102AD000FFF77AF853EC1C2BFEF7B2FC794A7A4BDD
:102AE000FFF772F853EC1C2BFEF7AAFC774A784BE1
:102AF000FFF76AF853EC1C2BFEF7A2FC754A764BE5
:102B0000FFF762F853EC1C2BFEF79AFC53EC1A2BE0
:102B1000FEF79EFE07468B460020594953EC1B2BBF
:102B2000FEF796FE00224FF08043FEF789FC3A46FE
:102B30005B46FFF749F853EC192BFEF781FC53EC89
:102B40001A2BFFF741F841EC190B00984A4F7F44CC
:102B500007F593772F44FEF769FED7E90023FFF7C7
:102B600033F841EC1A0B53EC192B5C485C49FEF727
:102B700067FC53EC1A2BFFF727F853EC182BFEF7E2
:102B80005FFC0022574BFEF765FD41EC1B0B68D341
:102B90000122554BFEF776FD59D9C80F53EC1B2B7C
:102BA0001ABF002051495249FFF70EF8FEF720FEE8
:102BB000054653EC192B51EC180BFEF741FC8246ED
:102BC0008B46D7E90201D7E90423FEF7FDFF53EC5A
:102BD000182BFEF735FC9FED47BB53EC1B2BFEF784
:102BE0002FFC52465B46FEF7EFFFCDE9000153ECA8
:102BF0001A2B51EC180BFEF723FC07468B46284690
:102C0000FEF714FE02460B4638465946FEF720FEF4
:102C100053EC1B2BFEF714FCDDE90023FEF7D4FF79
:102C20000CB12560002500950022154B00F08CF8B2
:102C300020F0000231F0004308BF002A41EC100BE5
:102C40000FD048004015401C03D1090301D19FED6E
:102C50002B0B4EB151EC100B81F0004141EC100BED
:102C600002E09FED2A0BF4E751EC100B02B0BDEC33
:102C70000A8BBDE8F48C00BF681500000000F0BFAF
:102C80000000F03F02FCFFFFFFFF0F80CD3B7F669F
:102C90009EA0E63F00005040000000000000E03F22
:102CA0000000903FF7DE29BFD8F8C23FF4B3FECC56
:102CB0001A99C33F62CB68D96F46C73FC6C912DABB
:102CC000C471CC3F4AE98A942449D23FF75F97996F
:102CD0009999D93FBC5555555555E53FFE822B6511
:102CE0004715F73F0000E0C00000E0400000E0BFF3
:102CF0000000E03FEF39FAFE422EE63F0000000000
:102D00000000F07F000000000000F03F0000000025
:102D10000000000080B541EC100B0020009051EC49
:102D2000100BFFF781FC04BD90420CD141EA030C6B
:102D300050EA4C0C07D0994205D14FF4001C1CEB13
:102D4000410F38BF89427047F8B52DED0A8B41EC31
:102D50001A0B48004015109D401C43EC182B23D043
:102D600051EC1A0B31F0004108BF00281CD051EC87
:102D7000180B48004015401C16D051EC180B31F0D0
:102D8000004108BF00280FD051EC1A0B0022DFF8D9
:102D90004833FEF75FFC80F0A38055EC184B9FEDA5
:102DA000800B05F00042ACE051EC1A0B48004015D6
:102DB000401C02D1090340F0898151EC180B4800F6
:102DC0004015401C01D1090353D151EC180B31F0CF
:102DD000004308BF002A08D151EC1A0B48004015E7
:102DE000401C46D1090344D10DE048004015401C69
:102DF00012D1090310D151EC1A0B48004015401CA8
:102E000037D1090335D1AFF30080BDEC0A8B4FF009
:102E1000FF306FF00041F4BD51EC1A0B31F000416E
:102E200008BF002828D151EC180B4800400D05EBD5
:102E3000000234D151EC180B31F0004108BF0028DA
:102E400006D02A4651EC180BFEF734FC41EC180B67
:102E500051EC180B20F0000231F0004308BF002AAB
:102E600005D048004015401C03D1090301D1AFF340
:102E7000008051EC180B2BE151EC1A0B4800401567
:102E8000401C26D1090324D153EC1A2B51EC180B0A
:102E9000BDEC0A8B01B0BDE8F040FEF7D1BA002AC4
:102EA000C8DD40F2FF70824209DB9FED9F0B53ECBF
:102EB000102B01F000410B4343EC182BC8E76FF3D4
:102EC0001E5141EA025155EC184B0D4645EC184B8A
:102ED000BEE755EC184B9FED320B05F0004210E0B9
:102EE00001227E4BFEF7CEFB11D89FED8F0B51ECEC
:102EF000100B55EC184BAFF3008005F0004040EA92
:102F0000010251EC100BBDEC0A8B1146F4BD53ECE1
:102F10001A2B73487349FEF793FA41EC100B53ECEC
:102F2000102B9FED719B03F0004251EC190B0C46E6
:102F3000144353EC192B51EC100B2346FEF744FEBF
:102F4000FEF756FC0446FEF771FC41EC1B0B53ECFC
:102F50001B2B4FF078406649FEF772FA02460B468B
:102F600051EC1A0BFEF774FC06460F4653EC1B2B74
:102F700060486149FEF764FA02460B46304639461E
:102F8000FEF766FC41EC1A0B21F0004100225B4B7E
:102F9000FEF760FB08D2B0EE48AAF0EE68AA55E052
:102FA000000000000000000053EC1A2B51EC1A0B3B
:102FB000FEF746FA41EC1B0B53EC1B2B50485149D2
:102FC000FEF73EFA504A514BFEF7FEFD53EC1B2B29
:102FD000FEF736FA41EC1C0B53EC1B2B4C484D49C9
:102FE000FEF72EFA4C4A4D4BFEF7EEFD53EC1B2B31
:102FF000FEF726FA53EC192BFEF7E6FD53EC1A2BDD
:10300000FEF71EFA41EC190B53EC1C2BFEF7DCFD0E
:103010009FED43AB53EC1A2BFEF7D6FD06460F4649
:1030200051EC1C0B53EC192BFEF712FC53EC1A2B32
:10303000FEF7CAFD02460B4630463946FEF77AFCDB
:1030400053EC182BFEF7FCF941EC1A0B51EC1A0B60
:103050002A194800400D02EB000319D0002B17DDA0
:1030600040F2FF70834209DB9FED2F0B53EC102BD6
:1030700001F000410B4343EC1A2B16E06FF31E5195
:1030800041EA035155EC1A4B0D4645EC1A4B0CE046
:1030900051EC1A0B31F0004108BF002805D051EC6B
:1030A0001A0BFEF707FB41EC1A0B51EC1A0B20F040
:1030B000000231F0004308BF002A05D04800401547
:1030C000401C03D1090301D1AFF3008051EC1A0B6E
:1030D000BDEC0A8BF4BD000000C89CC000C89C4039
:1030E000FE822B654715F73F000000000000E03F1F
:1030F000422EE63FF2E4D5BCE7E84B3E0000903CB0
:10310000112E5781A03F503F5843128C8F71BC3F06
:103110004BE8A541B752013F0BBDF3DAE8708C3F95
:10312000000000000000F03F000000000000F07F01
:1031300038B5040009D004F17005696809B900F0D8
:103140001EF800F021F8012801D1012032BD606A8B
:1031500008B100F02AF800F00AF821F02A01FFE790
:10316000816000F01BF8BDE8324000F03CBA2068F6
:10317000416821F4904141602068816870470020D7
:103180002870204600F0A3BA2421696020680268F4
:10319000520852000260204600F068B820680168BA
:1031A00041F00101016020467047204600F0B8B9A7
:1031B0002DE9FC47054605F1700488466068202823
:1031C0001746994646D1B8F1000F14BF002F0120D1
:1031D00041D0207801283DD0012121700020E060FD
:1031E0002122626005F15006FFF772F937808246AE
:1031F0007780A868B0F5805F04BF286900280EBFFB
:103200004746404600270021217080460FE018F80D
:10321000012B028508E02868B8F1000FF7D137F8D4
:10322000021BC1F3080101857088411E718053465D
:103230007088CDF8009000280FD000228021284609
:1032400000F0FEF90028E6D0032004E020206060B2
:10325000002000E00220BDE8F68700224021284639
:1032600000F0EEF90028F1D0EEE700002DE9F04182
:1032700004469D4822681368A168034020690B43F7
:1032800061690343E0690B430343136000265168FF
:10329000E06821F44051014351600025A369914940
:1032A0008A421CBF206A03439768904827F430671E
:1032B0003B4393608E4F8F4BBA4221D11B6803F082
:1032C0000303032B29D8DFE803F0025F50710127C5
:1032D000E169B1F5004F4FF6F07840F0D38067B167
:1032E000012F00F0A980022F00F0A980042F00F028
:1032F000AB80082F00F0B180B7E0FFF757F8A5E0EA
:103300007D4FBA4223D11B6813F00C035FD0042B0E
:103310003AD0082B29D00C2B48D010278A42D7D17D
:10332000390006D0022F09D0042F52D0082F53D0D5
:10333000D0E0FFF73BF8002800F0CD80626802EB98
:103340004201884202D31303834248D2C2E06B4F4A
:10335000BA420CD11B6813F0300338D0102B13D0B5
:10336000202B02D0302B21D0D7E70227D6E7644F9D
:10337000BA420BD11B6813F0C00328D0402B03D0F6
:10338000802BF2D0C02BEEE70427C7E75D4FBA428F
:103390000ED11B6813F4407319D0B3F5807FF3D0BE
:1033A000B3F5007FE1D0B3F5407FB6D10827B5E78C
:1033B0008A42B2D11B6813F4406308D0B3F5806F22
:1033C000E2D0B3F5006FD0D0B3F5406FCBE7002764
:1033D000A4E7FEF7A2FFAEE74FF40040AEE737B137
:1033E000022F0AD0042F0ED0082F16D01BE0FEF7B4
:1033F000DDFF00F08FF879410AE0434911EB5200FC
:1034000045EB050104E0FEF788FF00F083F8694111
:103410000023FDF791FF064606E0530803F500037D
:10342000B3FBF2F600E00125A6F54070374988426B
:1034300050D22268D6604EE0FEF7C0FF06E060681A
:10344000334901EB50010CE0FEF767FF61684A0861
:1034500002EB4002B2FBF1F605E06068410801F5BD
:103460008031B1FBF0F6B6B200E00125A6F1100004
:1034700040452FD208EA0601C6F342000143206806
:10348000C16028E047B1012F09D0022F0CD0042FD2
:1034900008D0082F0ED015E0FEF788FF04E0FEF7F5
:1034A0008DFF01E0FEF739FF616800EB5100B0FBD2
:1034B000F1F605E06068410801F50041B1FBF0F666
:1034C000B6B200E00125A6F11000404502D2216805
:1034D000CE6000E001250020206660662846BDE839
:1034E000F081000000800040F369FFEF0024F40049
:1034F000003801408810024000440040004800406D
:10350000004C004000500040000024F400FD0F007B
:103510000048E8016268010E560816EB002070476B
:1035200090F82410CA0706D502685368816A23F40C
:1035300000330B43536090F824108A0706D50268C5
:103540005368C16A23F480330B43536090F824100E
:103550004A0706D502685368016B23F480230B43A6
:10356000536090F824100A0706D502685368416B2F
:1035700023F400430B43536090F82410CA0606D589
:1035800002689368816B23F480530B43936090F837
:1035900024108A0606D502689368C16B23F4005391
:1035A0000B43936090F824104A0610D502685368C4
:1035B000016C23F480130B435360036CB3F5801F3D
:1035C00005D15368416C23F4C0030B43536090F85A
:1035D00024100A0606D501684A68806C22F400228D
:1035E00002434A607047F8B5044604F170050020B4
:1035F000E8606FF07E47FEF76BFF064620680168C3
:103600000A0708D50097334600224FF400112046E0
:1036100000F016F860B9206801684A070AD50097DB
:10362000334600224FF48001204600F009F808B12B
:103630000320F2BD20206860A86000202870F2BD41
:103640002DE9F041069C05460E4690461F46286827
:10365000C1693140B1420CBF01200020404528D152
:1036600014F1010FF3D0FEF733FFC01B844200D3E7
:103670004CB92868016821F4D071016000F01CF891
:103680000021017013E0286801684A07DFD5C1698D
:103690000A05DCD54FF4006101622868026822F453
:1036A000D0720260002200F007F8C16002700320AF
:1036B00000E00020BDE8F0812868816849084900E1
:1036C000816005F170002021416081607047704782
:1036D00038B5040001D1012032BD04F140056878FD
:1036E00020B900212970204600F0AEFA00F053F80E
:1036F0006068216820F0706008612068816821F4AA
:1037000000418160E06821680128A0680CBF40F496
:10371000004040F404408860E068022803D120683B
:103720004FF4006141602068416841F0007141F44C
:10373000004141602068C16821F40041C1606069B6
:103740002169A2690143206841EA0221C160206A1F
:10375000E1692268014311602068016841F00101BC
:10376000016000206860202169702063A87032BD6C
:1037700038B5040001D1012032BD04F1400500F04C
:103780000AF8204600F061FA002068606870206343
:10379000A870287032BD242068702068016849082C
:1037A00049000160704700904FF08073FF2270471E
:1037B00000904FF00073D2B2704701224FF40041E5
:1037C000304600F090B92DE9FE4F00F0FEF84ED1E2
:1037D0000C9D002D1CBF0D9F002F03D14FF40071D5
:1037E00061603FE02078012841D001212170FEF77F
:1037F0006FFE00F05BF8002834D1212000F0FDF8C6
:1038000000F016F910B1002020702BE0708DFF251C
:10381000B0F5807F19D300F0E9F800F0D2F80E9FE0
:103820004A463946304600F07FF900281AD100F0A8
:1038300025F811D089B279B900F030F890B900F0CC
:1038400019F805D300F0D2F804E000F0C7F8E4E777
:1038500000F0C4F800F0B5F8708D0028E0D100F059
:103860009CF808B1012003E000F02AF800E00220F3
:10387000BDE8FE8F708DB0F5807F7047706A32684A
:1038800001789162706A411C7162708D411E718570
:10389000308D411E3185708D00287047CDF8009025
:1038A0003B4600228021304600F01DB98146CDF80C
:1038B0000090192301224FF40041304600F013B963
:1038C00031682020C8613168DFF854014A6802403D
:1038D0004A60202161700020A070207070472DE99F
:1038E000FE4F00F072F855D10C9D002D1CBF0D9FAE
:1038F000002F03D14FF40071616046E02078012869
:1039000048D001212170FEF7E3FDFFF7CFFF00282B
:103910003BD1222000F071F800F0A5F810B1002092
:10392000207032E0718DDFF8F400FF25B1F5807F63
:103930001CD33585FFF737FF00F043F80E9FCDF815
:1039400000903B4600220421FFF73AFF00281CD1DB
:1039500000F028F898B189B289B9FFF79FFFA0B9A4
:10396000FFF788FF07D300F041F806E0728D32853B
:10397000FFF71EFFE0E700F031F800F022F8708D4D
:103980000028DCD100F009F808B1012003E0FFF7BE
:1039900097FF00E00220BDE8FE8F4A4639463046D8
:1039A00000F0E9B83068416A706A0170716A308D60
:1039B0004A1C411E72623185708D421E7285708D67
:1039C00070474146304600F028B9064606F14004EB
:1039D00088466078202892469B467047728D3285D3
:1039E000002000904FF00073D2B270473585002060
:1039F00000904FF08073FF22704760704021A170EB
:103A0000002060607562778570635B460E99009157
:103A10005246CDF80490414630467047002400805D
:103A200000E800FE90F841007047406C70470000CD
:103A30002DE9FC4100F031F84FF08073EAB200F05C
:103A4000ECF800F03EF858B9012D02D000F036F83D
:103A500030B900F02CF88021204600F044F800B185
:103A60000120BDE8F6812DE9FC4100F016F80023A5
:103A7000EAB200F0D2F800F024F858B9012D02D0D3
:103A800000F01CF830B900F012F84021204600F098
:103A90002AF800B10120BDE8F6811746DDF8208044
:103AA000099EDFF8982100921D4604467047206861
:103AB000FFB2876200964346002270472168380AA9
:103AC00088623246414620462EE0006881698A07B6
:103AD00044BF002181628169CA0703D4816941F032
:103AE0000101816170472DE9F041069F05460E46B0
:103AF00090461C46286881693140B1420CBF0120C4
:103B0000002040450DD114F1010FF3D0FEF7E0FC89
:103B1000C01B844201D3002CECD100F020F801201E
:103B200000E00020BDE8F08170B505460C46164661
:103B300028688169880710D400F035F858B914F165
:103B4000010FF5D0FEF7C4FC801B844201D3002C8A
:103B5000EED100F004F8012070BD002070BD05F129
:103B600040002022416841F0200141604270002164
:103B700081700170704770B505460C46164628687E
:103B8000816988060DD400F00EF840B9FEF7A0FC5C
:103B9000801B844201D3002CF1D1FFF7E0FF01200C
:103BA00070BD002070BD324621462846FFE770B543
:103BB00005460C4628688169C806164618D5286847
:103BC00081698A0616D414F1010FF8D0FEF780FC43
:103BD000801B844201D3002CF1D105F140004168E3
:103BE00041F0200141602022FFF7C0FF012070BD9D
:103BF000002070BD1021C16120202A68D0612846B4
:103C0000FFF763FF29680E484A68024005F140004B
:103C10004A60416841F00401E4E770B50068049C23
:103C20004568084E46EA5456B543C1F30901294395
:103C300041EA024119432143416070BD00200080E8
:103C400000E800FEFF63FF03704770472DE9FC4763
:103C5000054600242868DFF8FC630105A14621D54C
:103C6000686E70B1B0F5800F17D0B0F5000F03D0BB
:103C7000B0F5400F09D013E0326842F48032326070
:103C800004E0002100F07FF9044654B9F16F686E3A
:103C900021F440010143F16704E000F06EF9F3E71D
:103CA0000124A1462868C10421D5A86EA8B1B0F1AD
:103CB000807F17D0B0F1007F03D0B0F1407F04D0F7
:103CC00013E0316841F4803131607CB9F16FA86E46
:103CD00021F040710143F16709E0002100F053F940
:103CE0000446F2E700F049F9FAE70124A146286802
:103CF00081032BD5F06CC1004FF000080AD4F06CA2
:103D000040F08050F0644FF00108F06C00F08050FB
:103D100000900098DFF81874386840F480703860BC
:103D2000FEF7D6FB82463868C10500F1F780FEF742
:103D3000CFFBA0EB0A000328F5D30324A146B8F17A
:103D4000000F03D0F06C20F08050F0642878C10799
:103D500005D5F26FA86B920840EA8202F2672978D3
:103D6000880705D5F16FE86B21F00C010143F1677D
:103D70002978480705D5F16F286C21F030010143FF
:103D8000F1672978080705D5F16F686C21F0C0014B
:103D90000143F1672978C80605D5F16FA86C21F4B5
:103DA00040710143F1672978880605D5F16FE86C09
:103DB00021F440610143F1672968880505D5F16F59
:103DC000E86D21F440210143F1672968480505D5D4
:103DD000F16F286E21F440110143F16729784806FC
:103DE00005D5F16F286D21F440510143F167297821
:103DF000080605D5F16F686D21F440410143F16774
:103E00002968C80505D5F16FA86D21F4403101433B
:103E1000F167296888041FD5F16FE86E21F04061D1
:103E20000143F167E86EB0F1006F0DD100F0A0F82A
:103E300012E0FEF74DFB001B41F289318842C0F0D1
:103E40008B804FF003097AE7B0F1806F04D100F066
:103E500099F8010018BF81462868010314D5F26F54
:103E6000286F22F040620243F267286FB0F1006FC2
:103E700002D100F07DF807E0B0F1806F04D100F0CE
:103E800081F8010018BF81462868410314D5F26FFC
:103E9000686F22F040620243F267686FB0F1006F12
:103EA00002D100F065F807E0B0F1806F04D100F0B6
:103EB00069F8010018BF81462868410418D5F26FDF
:103EC000A86F22F040520243F267A86FB0F1805F02
:103ED00003D1022100F057F807E0B0F1005F07D1ED
:103EE000022105F1200000F0B7F8010018BF81465B
:103EF0002868010405D5F26FE86F22F08042024382
:103F0000F2672968C80306D5F16FD5F8800021F063
:103F100000410143F1674846BDE8F687002C7FF475
:103F20000DAFDFF84C72386810F440701CBFD5F844
:103F3000841088420BD03868396841F48031396088
:103F400020F440703A6822F480323A603860C0074A
:103F500006D5FEF7BDFA0446386881077FF569AFDC
:103F60003A68D5F8840022F4407202433A60E6E6EB
:103F7000306840F4801030607047002105F1200067
:103F800000F06AB80121281DFFE72DE9F04100F09B
:103F9000E5F809D0F16801F0030181422BD150B35B
:103FA00000F0C8F80CD026E0012804D023D3032861
:103FB0001BD016D31FE0326891071CD500F0C1F862
:103FC000306820F0806000F0C6F88046306801015B
:103FD00033D5FEF77DFAA0EB08000328F6D30325BE
:103FE00036E031684A05E9D405E031688A03E5D452
:103FF00031684A03E2D401252AE0012C326909D153
:104000003B695D4802405B0842EA01215B1E41EAD0
:10401000435102E07B6900F081F83161306840F083
:10402000806000F098F80446306801010CD4FEF777
:104030004FFA001B0328F7D3D1E7B968002CDCD175
:10404000326900F062F8E8E73169B869014331612B
:1040500058E000000C1002402DE9F04100F07EF81D
:1040600009D0F16801F0030181422BD150B300F077
:1040700061F80CD026E0012804D023D303281BD0FC
:1040800016D31FE0326891071CD500F05AF830684B
:1040900020F0805000F05FF880463068810026D51F
:1040A000FEF716FAA0EB08000328F6D3032529E053
:1040B00031684A05E9D405E031688A03E5D43168FE
:1040C0004A03E2D401251DE03B6900F027F8716145
:1040D000306840F0805000F03EF8044630688100BF
:1040E0000CD4FEF7F5F9001B0328F7D3DEE7B96817
:1040F0007269002CE8D100F008F8E8E77169786986
:10410000014371612846BDE8F0811C48FB6802400C
:1041100042EA01211B0941EA434170471848024025
:104120005B0842EA01215B1E41EA436170470000DF
:1041300000700040F0687968C0F30210401C8842AB
:104140007047F268796822F073021043491E40EA12
:104150000110F06070473060FEF7BAB90746054EAF
:1041600038680C46F168002511F0030F7047000015
:104170009010024000100240FF809FFFFF80FDFF73
:10418000FF80FFF92D20486967682054656D7065D0
:10419000726174757265204C696D697421205B25AC
:1041A0006325642E2530326420646567435D0D0A03
:1041B000000000002D204C6F772054656D706572F3
:1041C0006174757265204C696D697421205B25638B
:1041D00025642E2530326420646567435D0D0A0036
:1041E000000000000000F0BF0000000000000080A0
:1041F000000000000000008000000000000000003F
:10420000000000C05294EEBF00000048204E51BE96
:10421000000000F86467BCBC000000000000000063
:10422000000000208133EDBF00000080B3DB14BE2E
:10423000000000506706A3BC000000000000000062
:10424000000000D0E9DCEBBF00000008C39259BEBB
:1042500000000080B0D3B8BC0000000000000000E7
:1042600000000070F98FEABF000000C0A51028BE52
:10427000000000E8BFC0B0BC00000000000000006B
:1042800000000070284CE9BF00000060134B42BEE4
:10429000000000C03D20B8BC00000000000000008D
:1042A00000000050FA10E8BF000000C05FF62BBE0F
:1042B000000000905C71A7BC00000000000000003E
:1042C00000000020FCDDE6BF000000C0F8F154BE95
:1042D00000000018E9F6B9BC000000000000000072
:1042E000000000D0C3B2E5BF00000070E43254BE4D
:1042F00000000050DB06B4BC00000000000000001D
:1043000000000010EF8EE4BF00000020F36252BEF8
:10431000000000C02A879ABC0000000000000000D6
:10432000000000B02272E3BF000000F0E8E056BEDB
:1043300000000028352DBDBC00000000000000007A
:10434000000000000A5CE2BF000000B0FA8E41BE2F
:1043500000000040AE6FBDBC000000000000000087
:1043600000000000564CE1BF000000F015CD5FBE1C
:1043700000000000141C90BC0000000000000000C1
:1043800000000040BD42E0BF00000030F93457BEDD
:10439000000000E06C1E93BC000000000000000064
:1043A000000000E0F57DDEBF000000B08A535EBE75
:1043B00000000080DA77AABC0000000000000000C6
:1043C000000000C09D81DCBF00000000FFA226BEEF
:1043D0000000006057E2B0BC0000000000000000D8
:1043E00000000060F98FDABF000000580A8151BE5A
:1043F000000000F05F60B8BC00000000000000009A
:104400000000000098A8D8BF000000607A7F45BE79
:10441000000000D05433A3BC0000000000000000E6
:10442000000000600FCBD6BF000000D091CB40BE93
:10443000000000406D1BA0BC000000000000000058
:10444000000000A0FBF6D4BF00000098C5CE52BE0D
:10445000000000003A397EBC0000000000000000AF
:10446000000000E0FE2BD3BF0000004073872BBE8E
:1044700000000000926879BC00000000000000000D
:1044800000000040C069D1BF00000058F16353BE76
:1044900000000080438D7CBC000000000000000094
:1044A00000000080D85FCFBF000000181F8354BEFB
:1044B000000000B03F42A2BC00000000000000006D
:1044C0000000008067FCCBBF00000060FAFF53BE15
:1044D00000000050E00DB8BC00000000000000002B
:1044E0000000000098A8C8BF000000607A7F35BEB9
:1044F000000000C0543393BC000000000000000026
:1045000000000000DC63C5BF00000058D6FF54BEA9
:1045100000000000396490BC0000000000000000B2
:10452000000000C0AD2DC2BF00000080A45915BE20
:10453000000000E0484BABBC0000000000000000A1
:10454000000000801A0BBEBF00000050BF3C5ABEE6
:10455000000000A0B364B6BC000000000000000032
:104560000000008004D6B7BF00000040BBCF36BEBD
:104570000000008076CEA8BC000000000000000013
:104580000000008032BBB1BF000000402A0043BEE3
:1045900000000028C60CBDBC0000000000000000A8
:1045A000000000009473A7BF000000182B3B59BE09
:1045B000000000C0E55DA5BC000000000000000098
:1045C00000000000EE4397BF000000A0E6C340BE1D
:1045D00000000020958DB5BC000000000000000028
:1045E00000000000000000800000000000000080CB
:1045F000000000000000008000000000000000003B
:1046000010B54FF0FF32C0B10B6803604C684460D6
:104610008B6883600C7B04730B6903614C690FF238
:104620006933446189698161406203620FF28931B3
:10463000C161006808B180470246104610BD38B518
:10464000044604F12805287880B9012104F11C00F2
:1046500000F08FFA48B94FF07E506860032100F0F7
:1046600038F910B900F006F800B19DE0012028707B
:10467000002032BD802104F11C0000F0D3B910B538
:10468000044694F82800012804D1204600F034F8AC
:1046900000B12EE0002084F8280010BD1CB50C46A7
:1046A00069461C3000F0AAFA00B126E19DF801002D
:1046B00066E10020887000224A7001200870CA70EC
:1046C00000204FF0844248608A60C860704710B58F
:1046D000044694F82900012809D094ED0B0A2046DD
:1046E00000F066F800B104E0012084F82900002001
:1046F00010BD4FF0FF3010BD10B5044694F82900EE
:1047000058B104F12C01204600F008F810B9FFF769
:10471000B1FF00B1EDE784F8290010BD38B50D46B2
:1047200069461C3000F0B6F9002400B13CE09DF869
:104730000000C0B1012819D002281AD003281BD0CC
:1047400004281CD005281DD006281ED007281FD0FD
:10475000082820D0092822D0802816BF90282C6055
:104760004FF0FF341EE04FF0765016E04FF07851D6
:1047700017E04FF07A5010E04FF07C5111E04FF00D
:104780007E500AE04FF080410BE04FF0814004E0A2
:104790004FF0824105E04FF08340286002E04FF087
:1047A00084412960204632BD4FF0FF3032BD000009
:1047B00010B52DED028B82B00446B0EE408A6946FA
:1047C00004F11C0000F0B1F9002862D1B3EE000A38
:1047D00000F07AF809D19DF80000032853D1012197
:1047E00000F077F800284ED053E09FED2D0A00F03E
:1047F0006BF80BD19DF80000032818BF012844D1A5
:10480000002100F066F800283FD042E09FED250A25
:1048100000F05AF848BF002138D49FED230A00F079
:1048200053F848BF012131D49FED200A00F04CF825
:1048300048BF02212AD49FED1E0A00F045F848BF68
:10484000032123D49FED1B0A00F03EF848BF04214A
:104850001CD49FED190A00F037F848BF052115D484
:104860009FED160A00F030F848BF06210ED49FEDE8
:10487000140A00F029F848BF072107D49FED110A58
:1048800000F022F801D5082100E00921FFF7F3FE2E
:1048900008B14FF0FF3002B0BDEC028B10BD00003C
:1048A000000000420100803D0100003E0100803E0A
:1048B0000100003F0100803F0100004001008040F6
:1048C0000100004101008041B4EE408AF1EE10FA8F
:1048D000704704F11C0000F017B91CB50C4669467E
:1048E0001C3000F037F900B107E0BDF9000000F01E
:1048F0008FF884ED000A002016BD4FF0FF3016BD82
:1049000010B5044600F089F8014604F11C0000F0DF
:1049100039F908E010B5044600F07FF8014604F1CB
:104920001C0000F04EF908B14FF0FF3010BD7CB50F
:104930000D4616461C4669461C3000F007F910B1BA
:104940004FF0FF3076BD9DF80000C0F38010287056
:104950009DF80000C0F34010307000209DF800105A
:1049600001F00101217076BD80B54A1E9241D10F40
:104970001C3000F0FEF8FFE708B14FF0FF3002BD39
:104980002070002016BD00002DE9F04100F02CF849
:1049900081B9002400E0641C44450BDAA119287B8E
:1049A000D5F814C001233A1989B2E0470028F2D0A3
:1049B0004FF0FF30BDE8F0812DE9F04100F014F830
:1049C00081B9002400E0641C44450BDAA119287B5E
:1049D000D5F810C001233A1989B2E0470028F2D077
:1049E0004FF0FF30BDE8F0810E4605461746A96836
:1049F000984600207047000010B50446A06864681F
:104A0000A04710BD10B50446A0682468A04710BD9B
:104A100000EE100ABAEE440A7047BEEE440A10EEE9
:104A2000100A704738B50446AA208DF802000D46DA
:104A300001236A46042100F0BCF800BB9DF8000089
:104A400065F303008DF8000001236A46042100F09D
:104A5000D3F8A0B901230DF10102032100F0A9F858
:104A600068B99DF8010000F0BF00E90940EA811033
:104A70008DF8010001230DF1010200F0BCF80028BF
:104A800008BF902D05D101230DF102020F2100F086
:104A9000B3F832BD38B50C46054601230DF10102CD
:104AA0000421FFF7A9FF28B901236A4603212846FC
:104AB000FFF7A2FF9DF800109DF80120C1F38011BF
:104AC00002F00F0202EBC11109291AD8DFE801F048
:104AD0000507090B0D0F11131517002112E0012115
:104AE00010E002210EE003210CE004210AE0052180
:104AF00008E0062106E0072104E0082102E0092180
:104B000000E08021217032BD38B500F008F828B9E6
:104B10009DF8000065F3830000F069F832BD0D4692
:104B2000044601236A46032166E71CB50C46FFF7DD
:104B3000F8FF9DF80010890811F0030118BF012942
:104B400002D0032918BF0221217016BD0A46012395
:104B5000012151E738B500F02EF80021FFF74CFF96
:104B600030B901236A46022100F023F800F019F859
:104B700032BD38B5FFF7D3FF18B900F031F800F0B7
:104B800036F832BD13B50446012301AA0621FFF70A
:104B900039FF28B901230DF10502052100F02CF899
:104BA00016BDBDF802109DF8002002EB01222A80FC
:104BB0007047204620E70D46044601230DF102020E
:104BC000704713B50446012301AA0821FFF71AFF15
:104BD00028B901230DF10502072100F00DF816BDDB
:104BE0009DF8000000F07F0040EAC51070478DF886
:104BF000000001236A460321204603E738B50D462D
:104C0000044601232A46FD21FFF7F6FE70B9012371
:104C10006A1CFE212046FFF7EFFE38B9AA1C204689
:104C200001B0BDE830400123FF21E5E632BD0000C0
:104C300070B5044600254FF0FF362CB3086820609D
:104C40004A6862608868A0600A7B227308692061F4
:104C50004A69626188690FF27131A0612162646200
:104C60000FF27130E061206870B1804760B9A068D0
:104C7000022804BF94F82800002806D10122102140
:104C8000204600F0E2F800B13546284670BD38B540
:104C9000044604F128052878F0B9112104F11C001C
:104CA00000F07FFAA8B9102100F067F888B9002158
:104CB00004F11C0000F05DFA58B9012104F11C0058
:104CC00000F0ACF928B9012104F11C0000F03BFA16
:104CD00000B156E00320E87001212970002032BDA8
:104CE00010B5044694F82800012808D1204600F0A9
:104CF00031F818B9204600F071F800B127E0002023
:104D000084F8280010BD80B51C3000F018FA51E07E
:104D10000020012288704A700A7000239FED7E0AED
:104D2000CB70486081ED020A81ED030A704710B52F
:104D300000F129042178012907D0A1781C3000F066
:104D400078F900B103E001202070002010BD4FF081
:104D5000FF3010BD38B5044604F12905287850B15C
:104D6000687830B900F04CF810B900F005F800B1DF
:104D700007E00020287032BD002104F11C0000F083
:104D800058B94FF0FF3032BD66E090F82910012984
:104D900008BF00F08BB8C7E01CB50C46002100919D
:104DA0001C30694600F0C3F900B147E0009800F0FC
:104DB00023F946E008B14FF0FF3002BD10B500F115
:104DC0002A042178012907D061781C3000F031F9DC
:104DD00000B1BCE701202070002010BD38B50446AA
:104DE00004F12905687850B1287830B900F008F846
:104DF00010B9FFF7C1FF00B1C3E70020687032BDF2
:104E000004F12B0104F11C0000F040B924E090F8FB
:104E10002A10012908BF00F049B885E01CB50C46EE
:104E20000021ADF800101C30694600F084F900B193
:104E300004E0BDF9000000F0E5F802E04FF0FF30BB
:104E400016BD84ED000A002016BD04B501236A4694
:104E50001C3000F0CBF8ADE738B50D4669461C3084
:104E600000F014F9002400B18BE79DF8000007283A
:104E700018D8DFE800F00406090B0D0F11142C60A0
:104E800012E04FF07E500BE04B4906E04B4807E044
:104E90004B4902E04B4803E04049296004E01E48CA
:104EA000286001E04FF0FF34204632BD10B5DFED41
:104EB0003C0A00F033F8044648BF012122D4DFED5C
:104EC000390A00F02BF848BF02211BD4DFED360A67
:104ED00000F024F848BF032114D4DFED340A00F0B9
:104EE0001DF848BF04210DD4DFED310A00F016F89B
:104EF00048BF052106D4DFED2F0A00F00FF84CBFA4
:104F000006210721FFF739FF10B9FFF779FF08B134
:104F10004FF0FF3010BD000000004843B4EE600ABF
:104F2000F1EE10FA70470000DFED1D0AB4EE600AE2
:104F3000F1EE10FA48BF01212CD4DFED1A0AB4EECD
:104F4000600AF1EE10FA48BF022123D4DFED160A01
:104F5000B4EE600AF1EE10FA48BF03211AD4DFED77
:104F6000130AB4EE600AF1EE10FA48BF042111D41E
:104F7000DFED0F0AB4EE600AF1EE10FA48BF05212A
:104F800008D4DFED0C0AB4EE600AF1EE10FA4CBF63
:104F90000621072180F82B10002070470000C8422E
:104FA0000100803F010020410100C841010048424A
:104FB000010096420100C842000020410000C841A3
:104FC000000048420000964210B50446207B646908
:104FD000A04710BD10B50446207B2469A04710BD32
:104FE00010B50446A0686468A04710BD10B504461B
:104FF000A0682468A04710BD00EE100ABAEECA0AE5
:105000007047000000EE100AB8EEC00ADFED020A99
:1050100080EE200A704700000000C84238B500F05A
:10502000BAF828B99DF8000065F3410000F0ACF82B
:1050300032BD38B500F0D9F81021FFF7D1FF18BB09
:1050400001236A4611212046FFF7CAFFE0B99DF807
:10505000010065F306108DF8010001230DF1010236
:1050600010212046FFF7C2FF70B99DF80010EA0832
:1050700002F00202C5F3C00001F0FC01024311433B
:105080008DF8001000F06AF832BD000038B50C460B
:10509000054601230DF101021021FFF7A1FF08B918
:1050A00000F040F800283CD100F03CF89DF80020CA
:1050B000D20002F0100102F0080252189DF801100F
:1050C000C1F302118A18D2B2521E142A27D8DFE87F
:1050D00002F00D0F11131521230B26262626262656
:1050E000262617191B1D1F00082216E0012117E0B4
:1050F000022212E0032113E004220EE005210FE05A
:1051000011220AE012210BE0132206E0142107E02D
:10511000152202E0062103E00722227032BD0021A1
:10512000217032BD01236A461121284658E70A46FC
:105130000323282154E70A4602232B2150E70A467D
:1051400001230F214CE738B500F00DF818B900F035
:1051500047F800F001F832BD8DF8000001236A46DF
:105160001121204642E70D46044601236A461121DB
:1051700036E738B500F00FF828B99DF8000065F360
:10518000830000F001F832BD8DF8000001236A466B
:10519000102120462AE70D46044601236A461021C5
:1051A0001EE738B500F016F860B99DF800006900F8
:1051B00000F07D0001F0020108432D0940EAC5100E
:1051C00000F001F832BD8DF8000001236A460E217F
:1051D00020460BE70D46044601236A460E21FFE6F2
:1051E0009DF8000065F3041070470D460446012346
:1051F0000DF101027047000010B54FF0FF32C0B151
:105200000B6803604C6844608B6883600C7B04739C
:105210000B6903614C690FF249334461896981610B
:10522000406203620FF25531C161006808B18047E6
:105230000246104610BD10B5044694F8280090B9F7
:10524000002104F11C0000F002FA58B9012104F118
:105250001C0000F0D3F928B9B7EE000A204600F090
:1052600043F900B117E0012084F82800002010BDA8
:1052700010B5044694F82800012808D1204600F013
:1052800035F818B9204600F08EF800B103E0002090
:1052900084F8280010BD4FF0FF3010BD80B51C30E1
:1052A00000F0D1F96BE00120002288704A7008708C
:1052B000B2EE090A0020CA7081ED010A81ED020AEE
:1052C000C860704710B500F129042178012907D082
:1052D00062781AB900F006F800B1DCE7012020700E
:1052E000002010BD01211C3000F0B1B910B500F153
:1052F0002904217809B9002010BD627822B9002163
:10530000FFF7F1FF00B1C6E70020207010BDC7E035
:10531000EAE0000030B585B000F0ABF800F0ECF941
:10532000002813D100F099F800F0A1F970B900F04D
:105330007CF800F0E5F948B900F083F800F09DF939
:1053400020B900F09CF800F076F910B14FF0FF3072
:1053500013E000F062F8B5EE400AF1EE10FA48BF33
:105360009FED6B0A06D4DFED6B0A00F0DFF8A8BFF3
:105370009FED690A85ED000A002005B030BD08B137
:105380004FF0FF3002BD10B500F12904617801290A
:1053900007D022781AB9FFF7A5FF00B17BE70120FB
:1053A0006070002010BD10B500F12904617809B9C2
:1053B000002010BD227822B90021FFF794FF00B130
:1053C00069E70020607010BD6AE08DE030B585B0FF
:1053D00000F04FF800F098F9002814D100F03DF8E3
:1053E00000F056F900280ED100F01FF800F090F9F7
:1053F00048B900F026F800F05FF920B900F03FF856
:1054000000F01DF910B14FF0FF3004E000F005F896
:1054100085ED000A002005B030BDBDF9020000EEA8
:10542000100AB8EEC00A01A885E09DF8000000EE61
:10543000100AB8EE400A8DED020A694604F11C001C
:105440007047BDF9000000EE100AB8EEC00A8DEDFD
:10545000030A694604F11C007047BDF9000000EE24
:10546000100AB8EEC00A8DED010A694604F11C006D
:10547000704704460D46694604F11C0070479DF8CC
:105480000000002100EE100A0DF10200B8EE400A03
:1054900001808DED040A0DF1020104F11C0070473A
:1054A00038B50D4669461C3000F08EF8002400B176
:1054B00016E09DF8000003280ED8DFE800F0020493
:1054C000070A2C600AE04FF07E5003E0154929607E
:1054D00004E01548286001E04FF0FF34204632BD5B
:1054E0004FF0FF3032BD0000DFED0C0A80B500F058
:1054F0001DF848BF012106D4DFED090A00F016F8B7
:105500004CBF022103211C3000F052F837E70000A5
:10551000000000000100C8420000C8420100803FB6
:105520000100E0400000E04000004841B4EE600AA5
:10553000F1EE10FA704790ED011AD0ED031AD0ED9C
:10554000020A90ED002A71EEC12A20EE811A02EEC5
:10555000611A02EE801A30EEC20A81EE000A70472C
:1055600070B58568047B4669002D0CBF41F0800151
:1055700041F040012046B04770BD000070B585681D
:10558000047B0669002D0CBF41F0800141F0400111
:105590002046B04770BD000010B50446A06864689E
:1055A000A04710BD10B50446A0682468A04710BDF0
:1055B00038B500F035F828B99DF8000065F3010012
:1055C00000F027F832BD00001CB500F02FF8FFF7FF
:1055D000E3FF9DF8001001F0030103290BD8DFE879
:1055E00001F002040608002106E0012104E0022186
:1055F00002E0032100E00421217016BD38B500F05F
:105600000FF828B99DF8000065F3820000F001F85A
:1056100032BD8DF8000001236A4620212046C1E7F3
:105620000D46044601236A462021B5E70C460123B6
:105630006A46202170470A4602232821ACE70A4621
:1056400002232A21A8E70A4601230F21A4E738B53F
:10565000FFF7E6FF18B900F003F8FFF7DAFF32BDF5
:105660009DF8000000F07F0040EAC510704710B5BB
:105670000C4601232246302104E010B50C460123DC
:1056800022463121FFF788FF22785208227010BD90
:1056900038B50D46044601236A463221FFF77CFFE8
:1056A00048B900F023F89DF801109DF8002001F0A2
:1056B000030100F015F832BD38B50D46044601234C
:1056C0006A463321FFF768FF48B900F00FF89DF8EC
:1056D00001109DF80020C1F3810100F001F832BDF6
:1056E00002EB01210904C90C2970704701230DF157
:1056F0000102352120464FE70A46022336214BE7B7
:105700000A4602233A2147E70A4602233C2143E79F
:105710000A4602233E213FE72DE9FF474FF00008EC
:10572000054689460127C246DFF844631DB1022DB4
:1057300048D040D357E0484600F0A2F8002845D1B1
:10574000B06B726C6946D3689847002848D19DF8C1
:10575000000001289DF8020008BFBA4601289DF804
:10576000010008BF4AF0040A012808BF4AF0020AF3
:10577000032407EA0900B84204BF07EA0A00B84256
:105780000FD10C2106F124026943711852F8273019
:1057900051F823100A6806F1380050F825009047A8
:1057A00030B97F00641EE4D1404604B0BDE8F08704
:1057B0006FF00400F9E7484600F0B3F830B9F06B39
:1057C000B26CBFE7484600F00CF910B14FF0FF3063
:1057D000EBE7F26C306CD368694698470028B6D086
:1057E0006FF00600E1E76FF00108DDE7A04C04EB85
:1057F0008300026D0A408A4270470C22534304EB37
:105800008101E2184B6A52F82310806B70476FF0E9
:10581000040010BD10B50346032B08D2FFF7E6FFC6
:1058200005D1FFF7EAFFCA68904710B1EFE76FF0C4
:10583000010010BD38B503460C46032B114608D2B3
:1058400000F00AF805D100F00EF81369984710B17E
:1058500013E06FF0010032BD854D05EB8300026D52
:105860002240A24270470C225343EA1805EB8403FE
:105870005C6A52F82420806B70476FF0040032BDE0
:10588000F8B5BF2100F0A0F88CB000F0A0F80795A3
:1058900006F15C007749784A09910B9205A9FFF758
:1058A000ABFC50B9694606F15C00FFF7F7FC002835
:1058B00004BF9DF80000BC2802D06FF006052DE063
:1058C00001A906F15C00FFF7EEFC00F071F800F0B2
:1058D00074F8306506F15C00B063E00767497164F5
:1058E0006FF004070AD59DF80420012A06D1644808
:1058F000306006F15C000968884770B960070AD516
:105900009DF80600012806D15E49B06BB160716C4C
:105910000A68904708B9A00700D53D4628460DB053
:10592000F0BD2DE9F041BB2100F04EF88CB000F045
:105930004EF806F1880700F093F8FFF779F948B9B7
:1059400069463846FFF7DFF9002804BF9DF80000DC
:10595000B32802D06FF0060529E001A93846FFF709
:10596000D7F900F025F8F76300F027F87065E00735
:105970004549B1646FF0040809D59DF80420012A57
:1059800005D14248F06038460968884770B9A007D9
:105990000AD59DF80500012806D13D49F06B31611B
:1059A000B16C0A68904708B9600700D5454653E0D6
:1059B0009DF804009DF80510704740EA41009DF8ED
:1059C000061040EA81007047324A294E704704466B
:1059D0008DF82010059200252F49304A06910A9231
:1059E00070472DE9F0419521FFF7EEFF8CB0FFF7EE
:1059F000EEFF06F1B40700F033F8FEF701FE48B9F8
:105A000069463846FEF74AFE002804BF9DF80000AC
:105A1000532802D06FF006051EE001A93846FEF7B4
:105A200048FEFFF7C5FF3764FFF7C7FFB065E00723
:105A30001B49F1646FF0040809D59DF80420012A80
:105A400005D11848B06138460968884718B9600719
:105A500001D4A10700D5454628460CB0BDE8F08129
:105A60000449054A09910B92079505A938467047E4
:105A700040000020F5650008696600080800002065
:105A80002C000020180000202401002048010020E4
:105A90003401002041650008C16500081566000852
:105AA0007C0100208C0100202DE9F84F4FF0000808
:105AB000B14A0F2304460D4635E0B04EB44214BF40
:105AC000072606268E4046EA0E064CF82760C74396
:105AD000AB490E6807EA060C6E68F60348BF40EA59
