:020000040800F2
:10000000B808002025640008FD620008FF620008AF
:100010000163000803630008056300080000000096
:10002000000000000000000000000000076300085E
:1000300009630008000000000B6300080D6300085E
:100040004F64000853640008576400085B640008AC
:100050005F64000863640008676400086B6400085C
:100060006F64000873640008116300087764000877
:100070007B6400087F6400088364000887640008CC
:100080008B6400088F64000893640008000000007F
:1000900000000000000000000000000017630008DE
:1000A000976400089B6400089F640008A36400082C
:1000B000A7640008AB640008AF640008B3640008DC
:1000C000B7640008BB640008BF640008C36400088C
:1000D000C7640008CB640008CF640008000000007B
:1000E0001D630008D3640008D76400080000000006
:1000F000000000000000000000000000DB640008B9
:1001000000000000DF640008E3640008E764000802
:1001100000000000000000000000000000000000DF
:10012000EB640008EF640008F3640008F76400085B
:10013000FB64000800000000000000000000000058
:10014000000000000000000000000000FF64000844
:1001500003650008076500080B6500080F650008C7
:10016000136500081765000800000000000000008B
:10017000000000000000000000000000000000007F
:10018000000000001B6500080000000000000000E7
:100190001F6500082DE9F04F0FF2A41CA1B0DCE9A7
:1001A0000089CDE900892A9DDFF8DC9B04910024B9
:1001B0008DF843500D944FF0FF38824616461F4687
:1001C0000FE0B3462C461BF8011B0498D0470028CB
:1001D000049000F0A2800D98401C641E0D90F2D196
:1001E00076193078252808D100210022079108923D
:1001F00009910A920B910C920DE06A4641463046F5
:1002000000F0DAFF050001D10D98A1E0D9D5012554
:10021000E6E741F0010116F8010F2028F9D0232864
:100220000CD02B2804D02D2805D0302809D076E01A
:1002300041F00201EFE741F00401ECE741F0080171
:10024000E9E741F01001E6E70F9209E00F98484511
:1002500005DA00EB800402EB4402303A0F92761C80
:100260003278A2F130000A28F0D330782E2818BF57
:10027000CDF8388022D116F8010F2A2807D1386826
:100280003860761C50F8042B38600E9216E02D284A
:100290000CBF761C002000220E920AE040B90E9A94
:1002A0004A4505DA02EB820403EB4403303B0E932C
:1002B000761C3378A3F130020A2AEFD3ADF8401050
:1002C00021A0317800F082FF08B116F8010B8DF8FB
:1002D00042009DF84200682804D1307868280AD18D
:1002E000622105E06C2804BF30786C2803D17121AD
:1002F0008DF84210761C12A806903A4616F8013B7B
:1003000002A9504600F064F838B912AA02A9504672
:1003100000F0C8F900287FF564AF404618E02A28AD
:1003200092D13A683A6052F8040B3A6000280F9074
:1003300003D540420F9041F00401761C95E7000080
:100340000000000000000000686A6C747A4C000035
:1003500021B0BDE8F08F622820D0682811D06A282B
:1003600003D06C2827D0712825D10868C01D20F043
:1003700007000860D0E900230830086019461046DD
:100380007047002A0A680A60106803D0121D0A60CC
:1003900000B217E0121D0A6080B217E0002A0A6856
:1003A0000A60106803D0121D0A6040B20AE0121DF4
:1003B0000A60C0B20AE0002A0A680A60106803D026
:1003C000121D0A60C1177047121D0A600021704794
:1003D0007CB50D4611461C462E69B4F1250200F08D
:1003E0004F811C3A00F08480121F022A40F2808064
:1003F0000E3A00F00981521F59D0093A78D0921E66
:1004000016D0521E35D0521E022A71D9121F30D07A
:10041000521F00F09880521E49D0521E00F0E28018
:10042000D21E00F0FF80921E41D0D21E3FD02DE19F
:1004300095F83A406C2C09D06869421C6A610A68D8
:100440000A6052F8043B0A60335429E10A680A60E2
:1004500052F8043B0A600093002201924FF0FF33F0
:100460002B636A46294600F098F9002840F118816C
:1004700003E195F83A000122FFF76DFFC5E900019D
:10048000002904D56869411C69612D220DE0288F7F
:10049000810704D56869411C69612B2205E0C0070A
:1004A00021D56869411C6961202232541BE095F80E
:1004B0003A000022FFF74FFFC5E9000195F8380028
:1004C000010710D5D5E90023002B08BF002A0AD068
:1004D00044F02000782806D1686930213154401C4E
:1004E000421C6A613454214668693044E86087E000
:1004F0000868C01D20F007000860D0E9002308301C
:100500000860C5E90023D5E90001C80F04D0686977
:10051000411C69612D220DE0288F810704D568698F
:10052000411C69612B2205E0C00704D56869411CA4
:1005300069612022325468693044E86021462846C7
:1005400000F036FAACE005F13A02507820B14FF0F5
:10055000FF340FF6043074E01078622808D0682861
:1005600024D06A2812D06C282ED071280ED02BE00F
:100570000A680A6052F8040B0A6020B94FF0FF3491
:100580000FF6EC205DE0E96A017089E00A680A6014
:1005900052F8040B0A6020B94FF0FF340FF6D02058
:1005A0004FE0EA6AD317C0E9002379E00A680A60DD
:1005B00052F8040B0A6020B94FF0FF340FF6B02058
:1005C0003FE0E96A01806BE00A680A6052F8040BB8
:1005D0000A6020B94FF0FF340FF6942031E0E96A49
:1005E00001605DE00A680A6052F8040B0A600021AD
:1005F00020F0000221F0FF33C5E90023EE607821EE
:10060000284600F02DF94BE06C2285F83A200B6863
:100610000B6053F8042B0B6052BB4FF0FF340FF606
:1006200084200EE095F83A206C2AF0D00868086023
:1006300050F8044B0860EC603CB94FF0FF340FF603
:10064000482000F0EBFD201A76BD2E6B002E04D55D
:10065000204600F003FE044608E032460021204612
:1006600000F026FE002814BF041B3446AC6117E0DE
:10067000294600F092F8002812D54FF0FF3076BDE1
:100680006869411C69612522325409E06969481C86
:10069000686125227254210002D0431C6B613454DE
:1006A000002076BD2DE9F0410E4605469046726B5E
:1006B0007069316AB46A121AB069521A716A121AF0
:1006C000F069521A121A96F83800141B41070DD41B
:1006D000002C0BDD2746B0682021A8470028B06019
:1006E00057D0F06A401C7F1EF062F4D17369424615
:1006F0003146284600F098FC00284AD1376A002F7E
:100700000ADDB0683021A8470028B06041D0F06A07
:10071000401C7F1EF062F4D1B369F268314628466E
:1007200000F082FCA8BB776A002F09DDB068302199
:10073000A847B06068B3F06A401C7F1EF062F5D134
:10074000F068B169F36942183146284600F06CFC44
:10075000F8B9B76A002F09DDB0683021A847B0604A
:10076000B8B1F06A401C7F1EF062F5D196F83800EF
:1007700041070BD5002C09DDB0682021A847B060E7
:1007800038B1F06A401C641EF062F5D10020BDE86B
:10079000F0814FF0FF30BDE8F0812DE9F8470D46BC
:1007A000A3B02F6B002F0646904648BF6FF000475E
:1007B0000FF60C1400F0A8FDD4E90023696B401873
:1007C000CDE90123812828BF4FF0FF3042D2002419
:1007D000002F33DDD8F8001001AA684600F0EEFCC7
:1007E0008146B9F1000F38D4D8F8000010B9B9F13A
:1007F000010932D44F4521DB6869484481280AD376
:100800000021696303AA29463046FFF74BFF040025
:1008100014D40020686103ABD5F814A04A46694699
:1008200003EB0A0000F082FDCA44C5F814A058F892
:10083000040B002818BFA7EB0907C9D14CB903AABC
:1008400029463046FFF72EFF044614B900206861A0
:100850006863204624B0BDE8F0874FF0FF34F8E726
:100860002DE9FC4307466F293E6908BF082405D0DF
:1008700041F02000782814BF0A2410243C25D7E931
:100880000023642918BF69299046994605D1002B99
:1008900003D5D8F1000869EB4909B9F1000F08BF89
:1008A000B8F1000F1FD1386BE8B9082C4CD197F87C
:1008B0003800010748D530203B2586F83B0043E04F
:1008C00000280ED597F8380000F01400102808D141
:1008D0007B6B7969386A5B1A1B1A9A1A002AC8BF9F
:1008E0003A62BDE8F3838DF800104046494622463F
:1008F000E31700F06FFD3032D0B26D1E3A2801953B
:1009000004DB9DF80000A0F151018A1872554046A1
:1009100049462246E31700F05DFD80465FEA010983
:1009200008BFB8F1000F03D0F86871198842DCD312
:10093000082C09D197F83800010705D5705D3028DB
:1009400002D06D1E30207055C5F13C02BA6171199C
:10095000F960386B8242B3DA821A3A624FF6EF706E
:10096000398F01403987BDE8F3832DE9D04306462E
:100970000F4614464FF00008DFF8109412E0E0072D
:1009800007D542464B463046394600F0A7FD06469D
:100990000F464046494642464B4600F09FFD6410D4
:1009A00080468946002CEAD130463946BDE8D083DE
:1009B0002DE9F84F05468A464AF020048EB0D5E965
:1009C0000089612C02AE09D0286B002848BF0620A0
:1009D00003D408BF672C01D101202863D5E90001A9
:1009E0004A005215521C0DD10B030BD0AAF1610124
:1009F00003201A29A86102D20FF2CC6110E00FF295
:100A0000CC610DE04A005215521C0ED10B030CD1E3
:100A1000AAF1610103201A29A86116D30FF2B4616B
:100A2000E868032200F082FCC0E1CDE90C01DDE9B9
:100A30000C2323F00043B3F5801F0DD20027002BB9
:100A400008BF002A019703D111E00FF28461E7E7A4
:100A500001AA00F015FE0AE0CD48CE4900EB135084
:100A6000DDE90C2301900B40CB4910461943C5E941
:100A70000001612C0DD1E86830210170821CBAF1AF
:100A8000610FEA600CBF7821582141706869801CB1
:100A90006861D5E90001CDE90C01DDE90C2333F0F3
:100AA000004104BF0028002300F04881612C40F081
:100AB000A080286B494600284CBF4FF0210B00F165
:100AC000010B404600220023DDE90C8900F010FEF6
:100AD00001990BF1010738BF89F00049091F002F68
:100AE00001918DF808200DF1090040F33581A949E5
:100AF00000910646404649460022002300F010FEC1
:100B000080F029814800400D00F11C0211D0002A1C
:100B10000FDD40F2FF739A4205DBA04909F0004067
:100B20000143002011E0009B194041EA0251404678
:100B30000BE028F0000039F0004108BF00280FBF8B
:100B400049461C22494600F003FE8046894600F0D3
:100B50009DFEFF1F002F044609DD00F0B5FE024692
:100B60000B464046494600F0C1FE80468946F01DCE
:100B7000072104E004F00F0200F8012D2411002CDD
:100B800001DD491EF6D5491E5CBF002200F8012D8B
:100B9000F9D5DCE00020194602AA0A4400E05B1EF9
:100BA00012F80149491E8442F9D00F2804D10DF1F1
:100BB0000900425C521C4254002904D50198001DD2
:100BC00002AE5B1C0190581E0CD43118AAF13A04F5
:100BD0000A783032D7B23A2FA8BFA218401E01F8C7
:100BE0000129F5D5286B002840F1A780591E2963FB
:100BF000A3E001996A4A47F29750414391FBF2F210
:100C0000019229F00046D2F1070204DD4046314648
:100C1000FFF7ABFE0AE0524200206249FFF7A5FE53
:100C200002460B464046314600F0D2FE8046662C16
:100C3000286B06BF019F0A3706273F18142FC8BF2D
:100C4000142730208DF8080089460DF1090000E0D6
:100C50003046002F34DD06464046494600F0DCFFB2
:100C600001460A4606F1080304200A26B2FBF6F6FE
:100C700006EB860EA2EB4E02303203F8012C0A225C
:100C8000B6FBF2F202EB820EA6EB4E063036401EA9
:100C900003F8026DE9D1083F002F03F10806D7DD04
:100CA000084600F0CDFF02460B464046494600F09C
:100CB0001DFE00223C4B00F011FC80468946CBE72C
:100CC0000DF10901401A0DF1090604E00199491ED0
:100CD000401E0191761C31783029F7D0662C02D164
:100CE0000199491C03E0652C0CBF012100212B6BED
:100CF000CB189842B8BF431E002B1ED4834204DA9F
:100D0000F05C3528A8BF392000DA30201946721E61
:100D100002EB010800E05B1E18F80199491E8145AD
:100D2000F9D0392802D1705C401C7054002904D5D8
:100D30000198401C16465B1C0190019800B200907F
:100D40001BB232465146284600F034F82EE0C61D4C
:100D5000002F3FF7CFAE30460DF10901401A034690
:100D60005845C8BF5B46002B0DF109063FF53AAF69
:100D70008342BFF60FAF0DF10900C15C07297FF771
:100D800009AF0F2007E70000CBCCCC0C00002440BB
:100D900002FCFFFFFFFF0F800000E03F0000F07F3C
:100DA000A08601000000F03F84D797410FB0BDE856
:100DB000F08F00002DE9F84783B006468A461746B3
:100DC000984600F0FDF9B8F1000F406A356B90F8D5
:100DD000009002DC4FF00108BFA74AF02000BDF9E7
:100DE0003040662808BF641C15D0672840F0848016
:100DF00014F1040FC0F28680AC4280F2838096F832
:100E00003800641C010702D4A845B8BF454620B28B
:100E10002D1A48BF00250FFA84FAF068B169BAF1BB
:100E2000000F25DC4A1C30234354002D03DC96F8C8
:100E30003800010703D5F06800F80290521C15EB4A
:100E40000A0FB8BF6C4220B2441941424445B8BFB2
:100E5000A046B26171620FFA88F5F561F068B36976
:100E60002A463946184400F061FA641BB462C4E0B3
:100E700022B29045084417DA4246394600F056FA45
:100E8000B0694044B061AAEB0801002D716203DC37
:100E900096F838100A0705D5F16801F80090F06956
:100EA000401CF061B562A8E0394600F03FFAB06935
:100EB000002D5044A8EB040803DC96F838100A070C
:100EC00003D5F16801F80090401CB0610FFA88F07A
:100ED0008542F368B069B8BFA8460FFA88F207EBFD
:100EE0000A01184400F022FAB1690FFA88F00144AF
:100EF000B161281A706280E0BAF1610F14D14FF02D
:100F0000700A16E0A84504DA96F838100A0758BFA8
:100F100045466D1E48BF0025BAF1670F14BF4FF05C
:100F2000450A4FF0650A04E0BAF1410F08BF4FF0DF
:100F3000500AB169F368481CB061002D17F8012B05
:100F40005A5403DC96F838100A071BD5F168431C85
:100F5000B36101F80090002D14DDA8F101080FFA2B
:100F600088F039468542F768B8BFA8460FFA88F27C
:100F7000F81800F0DBF9B0690FFA88F108446D1A2F
:100F8000B0617562F068B1690844002C80F800A077
:100F900003D42B224270811C03E02D214170644256
:100FA000811C00206A460AE023460A2493FBF4F4DD
:100FB00004EB8405A3EB450302F8013B401C24B27B
:100FC000002CF1DC012806DC4AF02002652A04BF6F
:100FD000302201F8012B48B9302001F8010B07E05D
:100FE000401E1DF80030303301F8013B0028F7DCCB
:100FF000F268B0691044091AF16196F8380000F0FF
:10100000140010280DD17269B169706A8A18F169EB
:101010008218B06A8A188218706B8242BCBF821A2A
:10102000326204B0BDE8F087F8B505460E461746B3
:101030001C46002074B117F8011BB068A847B060C7
:1010400030B1F06A401CF0620020641EF3D1F2BDA2
:101050004FF0FF30F2BD00007072696E74665F730E
:101060003A20256E20646973616C6C6F776564004B
:101070007072696E74663A2062616420256E206128
:101080007267756D656E74007072696E74665F73F9
:101090003A2062616420257320617267756D656E08
:1010A000740000007072696E74665F733A2062614A
:1010B0006420256C7320617267756D656E74000025
:1010C00000000000000000006E616E004E414E0006
:1010D000696E6600494E46003000F0B40246106862
:1010E00095681318506803EB5004C0071DD54D4494
:1010F0001BE013F8017B05F8017B491EF9D1A0B173
:10110000B60813F8011B06F00306032E08BF13F8F8
:10111000016B01EB06214942801C294405D011F8DE
:10112000016B05F8016B401EF9D1A3420ED013F8F4
:10113000016B16F0030104BF13F8011BC91C300931
:101140000F28DAD113F8010B0F30D6E7F0BC02F10B
:101150000C0070471B48704770B45368D418042BB8
:1011600009DA41B1057804F8015B10F8016B16B19A
:101170005B1C491EF3E7536070BC704738B51446DA
:101180001D4661B1FFF7E8FF61686A6B2046904732
:101190006FF00102811A02D0491E01D001E003E084
:1011A00005E00021616032BD6FF0010032BD4FF0FB
:1011B000FF3032BDDA6B1047024BDFE7014BF9E736
:1011C000014870477803002040030020C9B202782C
:1011D0008A421AB11CBF10F8012FF9E718BF00208E
:1011E000704730B4002513E050F8042BD30744BFF8
:1011F000A9F101039A18091F042942F8045BFAD2E5
:1012000013468C0744BF15809B1CC90748BF1D703F
:1012100050F8041B0029E7D130BC704780B500B9F5
:1012200006A005490B681BB122220021984701E066
:1012300000F013FD222002BDB0040020636F6E7326
:10124000747261696E742068616E646C65723A20B4
:10125000626164206D6573736167650000F101036D
:10126000810704D010F8011B820781B1FAD102680E
:10127000A2F10131914311F0803104BF50F8042FE5
:10128000F6E709BAB1FA81F100EBD100401CC01AAF
:101290007047B1F5807F02D34FF0FF307047017087
:1012A000012070470078401E8041C043C00F704746
:1012B000C9B2830706D0521E22D310F8013B9942CF
:1012C000F7D11FE0083A13D302F1040241EA0121E9
:1012D00041EA014150F8043B121F21BF4B40A3F1EA
:1012E000013C2CEA030C1CF0803FF3D0C9B2001F74
:1012F000083210F8013B521E28BF91EA030FF8D8BC
:1013000018BF0120401E704780B5FFF723FF006C17
:1013100002BD8268521C8260426832B10268531C6E
:10132000036011704168491E4160704762B38B07CA
:1013300008D0521E11F8013B00F8013B00F0248058
:101340008B07F6D1830740F0208000BF103A07D307
:1013500030B4B1E83810103AA0E83810F9D230BCF7
:10136000530724BFB1E80810A0E8081044BF51F8A3
:10137000043B40F8043BD20724BF31F8022B20F88D
:10138000022B44BF0B7803707047121F17D35B000A
:1013900009D151F8043B20F8023B1B0C121F20F826
:1013A000023BF6D20BE051F8043B00F8013B1B0A6C
:1013B00020F8023B1B0C121F00F8013BF3D238BF90
:1013C000121D521E24BF11F8013B00F8013BF8D852
:1013D00070470000D3BBD9B1B2F5803F5BD2022A7F
:1013E0001ED98C46B1FBF2F102FB11C31B0443EA88
:1013F0001043B3FBF2FC02FB1C3380B240EA034310
:10140000B3FBF2F002FB103240EA0C4000237047BD
:10141000022A05D98446B0FBF2F002FB10C27047E5
:101420004AB105D100F0010249085FEA3000704777
:1014300000220023704700F013BC0B0002000021C3
:1014400000207047F7D3002200237047904271EBD1
:10145000030CF2D370B5B1FA81F4B3FA83F52C1B07
:10146000A340C4F1200532FA05F63343A2405FF0F1
:101470000046E64002E05B085FEA3202841A71EB44
:10148000030524BF204629467641F4D302000B0011
:101490003000002170BD70B5B1FA81F4B2FA82F566
:1014A000C4F120046419B4F12006DAD3B2405FF02D
:1014B0000044F440002502E052085FEA3303C61AF4
:1014C00071EB020E24BF3046714664416D41F3D387
:1014D00002000B002000290070BD0000B0B581EAB9
:1014E000030C0CF0004C40F2FF7515EA11541DBFBF
:1014F00015EA1357AC42AF4239E0E41923EA4553E9
:1015000043F48013C90241F0004141EA505EC70232
:101510001100A7FB020200284FF00000EEFB0120A3
:101520004FF00001E3FB072118BF42F00102401811
:1015300000214941E3FB0E01A4F580640F0302D2B0
:1015400052004041494154F101046CDD470872F1F9
:10155000004250F1000051EB0451A1F580115CBF35
:1015600041EA0C01B0BD4CEA05510020B0BD05EACE
:101570001357AC4214BFAF4241E050EA410E1CBFCA
:1015800052EA430E02E061460020B0BD24423C44D2
:101590001BD15FEA070EF6D0090302BF0146002007
:1015A000AEF1140EB1FA81F7AEEB070401FA07FEB3
:1015B0000C37C7F1200100FA07F7C8404EEA000EC9
:1015C00023EA455343F48013A2E733F00043B3FA10
:1015D00083F704BFB2FA82FE77440B3FE41BB7F1F6
:1015E000200E2FBF02FA0EF3BB40C7F1200E22FAE5
:1015F0000EFE38BF43EA0E03BA40641C82E750EA8D
:10160000410E14BF52EA430E6FF000014FF4001771
:1016100017EB430F8ABF194617EB410FB5E74CEAAA
:1016200005510020B0BDD4F10104B4F120070FDA58
:10163000C4F12007520828BF42F0010210FA07F552
:1016400001FA07F7E1BF2A43E0403843E1400FE0E9
:10165000352C98DCC7F1200452EA400220FA07F248
:1016600018BF42F0010231FA07F0A1400A430021FD
:1016700072F1004250F1000051EB0C01B0BD0000CE
:1016800010B5144600F002F8226010BDC1F30A53F1
:1016900043B14A0012F5001F28D2A3F2FE32A1EB9B
:1016A0000251704750EA410C20D001F0004C31EA61
:1016B0000C01B1FA81F204BFB0FA80F3D2180B3AF0
:1016C000B2F120032CBF00FA03F1914041EA0C0172
:1016D0003EBFC2F1200C20FA0CF319439040524255
:1016E00040F2FD33D21A01EB0351704700227047DC
:1016F0004FF4001C1CEB410F94BF1CEB430F09E09F
:1017000041EA030C50EA4C0C52EA0C0C03D2994209
:1017100008BF9042704714BF8B428242704700005E
:101720004FF4001C1CEB410F94BF1CEB430F09E06E
:1017300041EA030C50EA4C0C52EA0C0C03D28B42E7
:1017400008BF8242704714BF994290427047000020
:10175000124254D440F2FF7C1CEA11530FD063456F
:1017600031D09B1863453CBF01EB0251704701F03B
:10177000004141EA0C510020AFF30080704750EA6D
:10178000410320D001F0004C91EA0C011CD0B1FAC9
:1017900081F30B3B9A420DD9D21A994051EA0C01C0
:1017A000C3F1200C20FA0CFC61449840531C40F219
:1017B000FF7CD7E7914041EA0C01C2F1200C20FAEE
:1017C0000CF3194390407047B0FA80F31533202B87
:1017D000E0D3202AEED3203A203B9A4209D9D21AEC
:1017E00000FA03F141EA0C010020531C40F2FF7C97
:1017F000B8E700FA02F141EA0C01002070475242BA
:1018000040F2FF7C1CEA11530DD06345DBD0B2EBF4
:10181000030C3CBFA1EB025170470CF1010221EA1D
:10182000035141F4801150EA410CCCD001F0004C3E
:10183000352A27DC30B481EA0C01B2F1200309DA41
:10184000C2F12003044601FA03F5D0402843D140F9
:101850009C400CE0C3F12002450020FA03F418BFBD
:1018600044F0010421FA03F091400C43002174F18B
:10187000004550F1000051EB0C01244230BC7FF4D4
:101880007BAF70476146002076E70000C1F30A5342
:1018900040F2FE329B1A14DDD3F120034FEAE172CD
:1018A00008DDC90241EA505141F00040D84080189B
:1018B0005040704703F2E13010B1D24382F0004053
:1018C0007047002070470000C11768B14840401AB7
:1018D000B0FA80F29040D21CC907C2F5846241EA96
:1018E000025202EBD02140057047000070B44FF067
:1018F000004591EA030F40F1B5816B40841A71EB0A
:10190000030603D2001BB141121973414FF4001CAE
:101910001CEB410F34BF7CEB430442E00C0DA4EB05
:101920001356352E4FDC45EAC323DB0A45EAC121B5
:10193000C912B6F120050DDD63FA05F6EB4086EA23
:101940000305124218BF45F00105C01851F100010E
:101950000CD213E062FA06F5F2405540F3415A40CA
:10196000B340F3405A408018594107D349085FEA11
:1019700030005FEA350528BF45F0010501F580110B
:10198000420875F1004250F1000041EB04514E0055
:1019900016F5001F70BC38BF70470020090D0905FF
:1019A00070471CEB410F10D252EA43060BD0BCEB40
:1019B000410F05D80C0DAB43661E342EB6DD02E098
:1019C000AB438018594170BC704770BC7047000031
:1019D000F0B540F2FF7581EA030C0CF0004C15EAFB
:1019E00011541DBF15EA1357AC42AF42E5E0BC41AC
:1019F000C1F31301C3F31303801A994143F4801315
:101A000004D2641E4000494180185941C90241EA8C
:101A10005051B1FBF3F603FB1611A2FB0675D7EB91
:101A2000C020A94102D2761E80185941C90241EA5C
:101A30005051B1FBF3FE03FB1E11A2FB0E75D7EB59
:101A4000C020A94103D2AEF1010E8018594189028C
:101A500041EA9051760546EA8E2EB1FBF3F603FB80
:101A60001611A2FB0675D7EB8020A94102D2761E83
:101A700080185941C90241EA50514EEA060EB1FBA5
:101A8000F3F603FB1611A2FB0675D7EBC020A941A4
:101A900002D2761E80185941C90241EA5051B1FB69
:101AA000F3F703FB1711A2FB0735D3EBC020A941C5
:101AB00067F100070CBF004247F0010766F3D52726
:101AC0004FEA1E31B80814F5806412DDBD0775F1C8
:101AD000004250EB0E5051EB045111F5801F5CBFDA
:101AE00041EA0C01F0BD4CF07F6141F0E041002083
:101AF000F0BDBD076D0840EA0E5041F48011D4F1ED
:101B00000104B4F120060ADAC4F120060200E04024
:101B100001FA06F3E1401843B24015430EE0342CBD
:101B200013DCC6F1200445EA40056D0820FA06F2F0
:101B3000154321FA06F0A1400D43002175F1004242
:101B400050F1000051EB0C01F0BD00205FEA0C01E8
:101B5000F0BDCFB992185B41B3FA83F704BFB2FA74
:101B600082F6BF190B3FB7F120062FBF02FA06F32A
:101B7000BB40C7F1200622FA06F638BF3343BA400D
:101B80001CB1E419641E33E77F4231F00041B1FA21
:101B900081F404BFB0FA80F6A4190B3CB4F120061E
:101BA0002FBF00FA06F1A140C4F1200620FA06F684
:101BB00038BF3143A0403C1B1AE7AC421ABF05EACC
:101BC0001357AF4212E050EA41061CBF52EA4306E7
:101BD000BFE750EA4107304661461CBF41EA055164
:101BE000F0BD52EA430C08BFC143F0BD00204FF4E2
:101BF000001616EB410F98BF16EB430F08BF16EB0C
:101C0000410F24BFC14305E016EB430F0CBF6146F3
:101C10004CEA0551F0BD0000400D491840EA812012
:101C20000CD2490DA1F58061491C40F0004005DB54
:101C3000D1F11F0154BFC840C01770470020704742
:101C4000014648B1B0FA80F18840C91CC1F58461F1
:101C5000090501EBD02140057047012000F0B8B81C
:101C600070470000841A71EB030604D26E40001B1B
:101C7000B141121973414FF4001C1CEB410F34BFEA
:101C80007CEB430683E00C0DA4EB1356362E00F3D9
:101C90007C80012E45EAC32341DC43EA525312BF44
:101CA000D20292025B08240545EAC12141EA505163
:101CB000D2EBC020994125D407D1B0FA80F610FAB2
:101CC00006F162D00020203608E0B1FA81F6B1407A
:101CD000C6F1200220FA02F21143B0404FEAF47438
:101CE000B4EB465434F001064FEA74040AD8D6F532
:101CF0000016760D04F00044F04061FA06F2504000
:101D0000F1404840C00A40EA415021F0004128BF5C
:101D10005FEA500550F1000044EBD12135E0DB0AC9
:101D200045EAC121C90AB6F120050EDD42EA0242A8
:101D3000120CC5F1200603FA06F6EB4042EA06054E
:101D40006D42984161F100010DE062FA06F5F24042
:101D5000554063FA06FC82EA0C02F3405A406D4299
:101D6000904161EB030111F4801F05D1641E6205EF
:101D700002D06D004041494121F48011430875F1C2
:101D8000004350F1000041EB045170BC70471CEB64
:101D9000410F15D223F0004352EA43060BD04FEA1D
:101DA0004C0CBCEB410F04D80C0D661E342EB7DD75
:101DB000EBE7801A994150EA410608BF0021E4E7A9
:101DC00008BF1CEB430F28BF6FF00001DDE70000E8
:101DD00080B5AFF30080024A11001820ABBEFBE7CC
:101DE00026000200F8B5040025D004F13C0569780E
:101DF00021B900202870204600F038FC24216970A9
:101E0000206802685208520002602068016841F4AC
:101E1000004101602068026822F40042026000F084
:101E2000ADFC01466068DFF87023904205D2DFF810
:101E3000AC33994205D20120F2BDDFF8A403814200
:101E4000F9D32068DFF89C334668B1FBF3F3B60999
:101E500043EA861646602668376A6068904206D371
:101E60004FF4967043434FF47A70B3FBF0F35B1C6E
:101E7000BF0943EA87133362491E2368DE69676836
:101E8000974206D27F0000F043F8042913D20421C0
:101E900011E0A06820B907EB470700F039F805E02A
:101EA0001920474300F034F841F4804108050CBF85
:101EB000012141F40041DFF8300306400E43DE61AA
:101EC00022681368E169206A23F0C0030B430343CF
:101ED00013602268DFF81403936821690340E06807
:101EE0000B43034393602168CA68A3696069120ABF
:101EF000034343EA0222CA602068016841F00101FD
:101F0000016000206860202169702063A870F2BD24
:101F1000B1FBF7F1491CC1F30B01704738B5040060
:101F200001D1012032BD04F13C052420687000F08D
:101F3000E4F900F073FC0020686068702063A8700A
:101F4000287032BD308D7262411E3185708D411E08
:101F5000718570474146204600F000BB2DE9FC47E3
:101F600000F082F800F07AF855D100F06FF8002800
:101F700051D1387801284ED000F062F801D400F039
:101F800099F94146D6F800E00C9D0B98DDF828C081
:101F9000DEF8008028F40068CEF800804FF0210EB3
:101FA00087F801E04FF0400887F802804FF0000EFC
:101FB000C7F804E000F005F900F0B1F9002825D1D8
:101FC00008E0716A0A780261706A411C7162308DA2
:101FD000FFF7BAFF308D88B100F02DF888B900F016
:101FE0001DF8308D411E3185708D421E728530681E
:101FF00042695307EED589B20029E2D100F016F804
:1020000030B17868042801D100F03BFA012003E0E8
:1020100000F030F800E00220BDE8F687706A326810
:1020200001781161706A411C71627047224629462D
:10203000304600F0BDBA22462946304600F08EBA3E
:102040000121397030680268D10770470094192364
:102050000122DFF87C12304600F01CBA06F13C0782
:1020600004467878202870470646884691469A4666
:1020700000F0D6BB3068016841F400710160202097
:1020800078700021B9700020387070472DE9FC4746
:10209000FFF7EAFFFFF7E2FF72D1FFF7D7FF002853
:1020A0006ED1387801286BD0FFF7CAFF01D400F059
:1020B00001F94146D6F800E00C9D0B98DDF828C0E8
:1020C000DEF8008028F40068CEF800804FF0220E81
:1020D00087F801E04FF0400887F802804FF0000ECB
:1020E000C7F804E000F06DF800F05CF9002840D17A
:1020F000308D18B1012804D100F0A7F800F04EF897
:1021000017E0022807D1306800F09AF800F070F864
:102110000020009001E000210091316800F0E7F814
:1021200007E000F088F8002823D100F067F8FFF7F7
:1021300009FF308D002826D0042817D20128F0D0BE
:1021400000F024F80AD100F071F8002811D100F055
:1021500083F8716A0870706A421CE8E700F066F85C
:10216000002806D100F08DF818B9F0E700F063F808
:1021700008B1012005E000F048F8DAD50069E8E789
:102180000220BDE8F68700F015F8FAE70228DFF82C
:10219000508100942B467047A18601000090316861
:1021A0004A6900928B69009300980A6842F40072B1
:1021B0000A607047202078700021B97000203870C4
:1021C0007047C6F824C070855346708D30854A46E6
:1021D0003B48F062019400953046704780841E00B1
:1021E00000093D0040420F000030FFFF007CFFFF70
:1021F0003068026842F4006202607047306801692A
:10220000706A0170716A4A1C704730680169706AAF
:102210000170716A308D4A1C411E72623185708D69
:10222000411E7185306841694A0770470022414666
:10223000304600F02FB922462946304600F0D4B986
:10224000016821F48061016070473068016821F401
:1022500080610160002070473068016841F40071BE
:10226000016030680169706A0170716A308D4A1CC2
:10227000411E72623185708D411E71853268106910
:1022800070473068016821F4806101602B46306836
:102290000169706A0170716A308D4A1C411E726258
:1022A00031850022708D411E718500944146304673
:1022B00000F0F0B8026842F00102026070470000CE
:1022C0000000FFFF3068016841F4807101607047D1
:1022D00002001000016841F4806101607047000055
:1022E0000400010090F83D007047006C70474A6997
:1022F0000092896900910098704720680168490838
:102300004900016020467047434600224FF001110A
:102310002046BFE04B46424651462046E2E02DE9CA
:10232000F84304462068DDF82080099F894601684B
:1023300041F4807115461E4601600097FFF7E4FFE7
:1023400040B120680168CA0544BF4FF400702064A2
:10235000032025E0206809F0FE0101613B4642466A
:102360004B49FFF7DAFFA8B90090216800F07AF82E
:10237000FFF7F1FD40B9012E0ED02168280A08614F
:102380003A46FFF7E7FD38B1206C042802D12068F7
:1023900000F078F8012003E02068EDB2056100202C
:1023A000BDE8F2832DE9F84F05462868DDF828805E
:1023B0000B9F0C46FFF78EFF16462868016841F414
:1023C00080719946016000F055F800284FF4007ABA
:1023D0002CD12968DFF8B8B004F0FE00086100F0E5
:1023E00038F8002832D10090296800F03BF800F05E
:1023F00037F870B9B9F1010F05D02968300A0861C2
:1024000000F02CF828B92868F6B2066100F026F82A
:1024100030B1286C042819D1286800F033F815E091
:102420002868FFF750FF00F025F838B128680168E8
:10243000CA0548BFC5F840A0032008E0286844F05A
:102440000104E4B2046100F004F800B10120BDE829
:10245000F28F3B4642465946284643E03A464146BB
:1024600028467BE04A6900923A46896900914146D4
:10247000009870470097434600224FF0011128460C
:1024800008E03068016841F40071016070470000A5
:10249000020001002DE9F041069F05460E469046D8
:1024A0001C4631022868090E01290CBF4069806969
:1024B000304080B2B1B288420CBF012000204045BC
:1024C0000DD114F1010FECD000F0AAF9C01B844229
:1024D00001D3002CE5D100F05DF8012000E00020E0
:1024E000BDE8F081F8B505460E4614461F46310298
:1024F000090E286801291BD14169314089B2B2B265
:1025000091421BD041694A051AD5FFF7BBFF6FF412
:1025100080602A685061002105F13C002963202277
:1025200042708170426842F004024260017013E020
:102530008169314089B2B2B29142E3D10020F2BD4B
:1025400014F1010FD3D000F06BF9C01B844201D30A
:10255000002CCCD100F01EF80120F2BD70B505466C
:102560000C46164628684169080611D4284600F032
:1025700067F858B914F1010FF4D000F051F9801B3D
:10258000844201D3002CEDD100F004F8012070BD8D
:10259000002070BD00202863202105F13C000022AE
:1025A00041708270416841F02001416002707047C3
:1025B00070B505460C46164628684169480711D48F
:1025C000284600F03DF858B914F1010FF4D000F09E
:1025D00027F9801B844201D3002CEDD1FFF7DAFFED
:1025E000012070BD002070BD70B505460C46164632
:1025F000286841694A0617D44169CA060BD400F01D
:102600000FF9801B844201D3002CF1D100F00EF8A9
:1026100041F0200104E06FF01001416100F006F884
:1026200041600270012070BD002070BD0020286351
:10263000202105F13C000022417082704168704702
:1026400001684A6953050FD56FF480624A61002121
:1026500001633C30202242708170426842F00402E3
:1026600042600170012070470020704770470000F1
:102670002DE9F04104000F4678D0494E306800F053
:102680000F00B84202D200F073F86FD12068454DB8
:10269000810712D5400703D5A96841F4E051A9602C
:1026A0002078010703D5A86840F46040A860A968B5
:1026B000A06821F0F0010143A9602178C8074DD539
:1026C0006068012802D129688A0305E0022818BF42
:1026D000032803D129688A0103D447E029688A07BF
:1026E00044D5A968890840EA8100A86000F098F8FC
:1026F0008046A868616800F00C00B0EB810F2DD017
:1027000000F08EF8A0EB080041F289318842F0D346
:10271000032021E02078410705D5AA68E06822F46B
:10272000E0520243AA602178080706D5A96820690B
:1027300021F4604141EAC001A96000F03FF8AA68B5
:1027400019491A4BC2F30312895CC8401860184833
:10275000006800F06BF80020BDE8F081306800F000
:102760000F008742D6D200F003F8D3D00120F3E760
:102770003770316801F00F01B94270470B480D4ABC
:10278000006813680C49C3F3822206E00748094A2F
:10279000006813680849C3F34232895CC840704737
:1027A000003C024000380240546300083C03002013
:1027B000E0020020083802404064000830B5144CA4
:1027C000606800F00C00042802D0082802D01DE048
:1027D000104830BD226820680023410202F03F0209
:1027E00004D525680B49C5F3881003E020680A4921
:1027F000C0F38810A1FB0001FEF7ECFD2168C1F3D6
:102800000141491C4900B0FBF1F030BD024830BD28
:102810000438024000127A000024F40070470000DF
:1028200001484068704700BFD802002038B50D4D00
:102830000D4B2A7804464FF47A711868B1FBF2F216
:10284000B0FBF2F000F054F850B9102C08D200227E
:1028500021464FF0FF3000F023F8AC60002032BD7D
:10286000012032BDD80200203C03002009010200F3
:1028700002D4294881547047284B02F00F021A44B1
:1028800002F8041C7047264B19684FF6FF0200023D
:10289000114000F4E0600843224908431860704783
:1028A00038B51F4B1C68C4F30223C3F10704052C81
:1028B00028BF04241D1D072D34BF0023DB1E012566
:1028C00005FA04F4641E2140994005FA03F35B1EE7
:1028D0001A401143BDE83440C8E7010007D4012283
:1028E00000F01F01104B8A40400943F82020704738
:1028F00010B5401EB0F1807F01D3012010BD0B4CFC
:1029000060600F214FF0FF30FFF7B0FF0021A160A2
:1029100007202060002010BD00E400E018ED00E07A
:102920000CED00E00000FA0500E100E010E000E03E
:1029300070B5044600254FF0FF362CB308682060C0
:102940004A6862608868A0600A7B22730869206117
:102950004A6962618869DFF81416A06121626462C5
:10296000DFF84407E061206870B1804760B9A06873
:10297000022804BF94F82800002806D10C22122156
:10298000204600F085FB00B13546284670BD38B5BD
:102990000446802104F11C0000F0F5FD002827D139
:1029A00000F0ACFB00F085FD002821D100F0A6FB73
:1029B00000F04BFD00281BD100F072FB00F01AFE66
:1029C000B0B904F128050420E87000F06AF878B97D
:1029D00000F066FB00F0EAFB50B90420287100F01B
:1029E000A5F928B9062104F11C0000F069FC08B122
:1029F00000F0C0BB01202870002032BD10B5044695
:102A000000F03CF818B9204600F07DF900B132E042
:102A100004F128000021C17001710170002010BD77
:102A200080B51C3000F040FD00F096BB012008701E
:102A300048700023102088604FF4FA629FED4C0A22
:102A400000208B70CB704A60CB6081ED040A81ED71
:102A5000050A8861704710B500F129042178012921
:102A600007D0A1781C3000F0BDFB00B103E00120CD
:102A70002070002010BD4FF0FF3010BD10B504468F
:102A800094F8290060B104F12B0104F11C0000F05E
:102A9000EBFB10B900F005F800B1ECE784F8290071
:102AA00010BD002104F11C0000F09CBB38B500F003
:102AB000E8F8002408B100F05DBB9DF80000032891
:102AC00011D8DFE800F0020C0508DFF8E01504E09B
:102AD000DFF8DC0505E0DFF8DC15296005E0DFF84C
:102AE000D805286001E04FF0FF34204632BD0000D9
:102AF00038B50D4669461C3000F0B6FB002408B11D
:102B000000F038BB9DF800000B282CD8DFE800F05F
:102B1000060B0E1114171A1D202327082C6024E021
:102B2000DFF898051DE0DFF8981516E0DFF894054A
:102B300017E0DFF8941510E0DFF8900511E0DFF8FA
:102B400090150AE0DFF88C050BE0DFF88C1504E047
:102B5000DFF8880505E0DFF88815296005E0DFF873
:102B60008405286001E04FF0FF34204632BD0000AC
:102B70000020D04580B500F1290100F0CDF933D116
:102B8000F1EE10FA48BF012127D400F0BFF948BF89
:102B9000022122D400F0B5F948BF03211DD400F072
:102BA000ABF948BF042118D400F0A1F948BF0521B2
:102BB00013D400F097F948BF06210ED400F08DF928
:102BC00048BF072109D400F083F948BF082104D485
:102BD00000F0C8FA4CBF09210A211C3000F002FBAA
:102BE000002830D000F0B2BAF1EE10FA48BF012050
:102BF00027D400F08BF948BF022022D400F081F9DD
:102C000048BF03201DD400F077F948BF042018D432
:102C100000F06DF948BF052013D400F063F948BFF8
:102C200006200ED400F059F948BF072009D400F05F
:102C30004FF948BF082004D400F094FA4CBF092093
:102C40000A208870002002BD38B500F01AF8002470
:102C500008B100F08FBA9DF8000003280DD8DFE816
:102C600000F002090406022102E0042003E008212A
:102C7000296004E01020286001E04FF0FF34204676
:102C800032BD0D4669461C3000F099BA80B5032963
:102C9000B8BF002107DB0529B8BF022103DB0929E2
:102CA000B4BF032101211C3000F080FA00F054BAB7
:102CB0001CB50C4669461C3000F0D9FB00B1A3E1FD
:102CC000A5E13EB5002204460D46009201A904F19B
:102CD0001C0000F0CCFB20B969462046FFF7E6FE59
:102CE00000B1AFE1B1E110B500F12A04217801296A
:102CF00007D0A1781C3000F003FB00B1BBE6012037
:102D00002070002010BD10B5044694F82A0060B170
:102D100004F12C0104F11C0000F06CFB10B900F070
:102D200005F800B1A7E684F82A0010BD002104F1DF
:102D30001C0000F0E5BA000038B500F03DF90024B1
:102D400008B100F017BA9DF80000062816D8DFE891
:102D500000F007040A150D151100DFF88C130BE0C5
:102D6000DFF8880304E0DFF8881305E0DFF8840368
:102D7000286005E0DFF88013296001E04FF0FF34A0
:102D8000204632BD38B50D4669461C3000F032FB96
:102D9000002408B100F0EEB99DF800000A2829D8F7
:102DA000DFE800F006080B0E1114171A1D2024008E
:102DB0002C6021E0DFF8080316E0DFF8081317E0C5
:102DC000DFF8040310E0DFF8041311E0DFF800037C
:102DD0000AE0DFF800130BE0DFF8FC0204E0DFF8A4
:102DE000FC1205E0DFF8F802286005E0DFF8F412D5
:102DF000296001E04FF0FF34204632BD80B500F17C
:102E00002A0100F089F833D1F1EE10FA48BF012110
:102E100027D400F07BF848BF022122D400F071F8DB
:102E200048BF03211DD400F067F848BF042118D41F
:102E300000F05DF848BF052113D400F053F848BFF7
:102E400006210ED400F049F848BF072109D400F04C
:102E50003FF848BF082104D400F084F94CBF092191
:102E60000A211C3000F04CFA002830D000F06EB976
:102E7000F1EE10FA48BF012027D400F047F848BF10
:102E8000022022D400F03DF848BF03201DD400F0FA
:102E900033F848BF042018D400F029F848BF0520B3
:102EA00013D400F01FF848BF06200ED400F015F828
:102EB00048BF072009D400F00BF848BF082004D40D
:102EC00000F050F94CBF09200A208870002002BD94
:102ED000B4EE410AF1EE10FA7047B4EE610AF1EE79
:102EE00010FA7047B4EE420AF1EE10FA7047B4EEF1
:102EF000620AF1EE10FA7047B4EE430AF1EE10FAEE
:102F00007047B4EE630AF1EE10FA7047B4EE440A6B
:102F1000F1EE10FA70470000DFED0B4A0A78012A43
:102F2000DFED0A0A9FED0A1ADFED0A1A9FED0A2A61
:102F3000DFED0A2A9FED0A3ADFED0A3A9FED0A4AD1
:102F4000B4EE640A7047000001004841015050454A
:102F50000160D044014050440180D04301005043FF
:102F60000100D042010050420100D0417B310008F5
:102F700038B500F021F8002408B100F0FBB89DF846
:102F80000000062814D8DFE800F0060408130B132D
:102F90000F007D210AE0FA2004E04FF4FA7105E009
:102FA0004FF47A70286005E04FF4FA61296001E07F
:102FB0004FF0FF34204632BD0D4669461C3000F00C
:102FC00090B980B57E29B8BF01210FDBFB29B8BFBE
:102FD00000210BDB40F2F5129142B8BF022105DB64
:102FE00040F2E9329142B4BF042106211C3000F0C6
:102FF00067F900F0B1B81CB50C4669461C3000F00A
:1030000032FA00B100E002E04FF0FF3016BDBDF82B
:1030100000002080BDF802106180BDF80400A0808F
:10302000002016BD3EB504460D4601A904F11C0062
:1030300000F019FA20B969462046FFF77DFE00B17D
:1030400000E002E04FF0FF303EBDBDF9040000F0AB
:1030500010F8C5ED000ABDF9060000F00AF8C5ED4C
:10306000010ABDF9080000F004F8C5ED020A0020CD
:103070003EBDDDED000A00EE100AB8EEC00A60EEBB
:10308000200AFDEEE00A704780B5012300F061B828
:1030900004B501236A461C3000F082F800F05CB8E9
:1030A000002104F11C0070478731000823DB793DC3
:1030B00023DBF93D23DB793E23DBF93E0000D040E2
:1030C000000048410000D041000050420000D042C2
:1030D000000050430080D043004050440060D04482
:1030E000005050450058D04500008C4000000C4175
:1030F00000008C4100000C4200008C42012104F1D0
:103100001C00704780B51C3000F0A8F924E080B5A1
:103110000A0003D0012918BF022900D000211C3069
:1031200000F0DFF918E080B51C3000F099F913E0E9
:1031300080B50A0005D0012904D0022908BF032167
:1031400000D000211C3000F0DAF905E04FF0FF302C
:1031500002BD1C3000F01EF808B14FF0FF3002BD78
:10316000DFED030AB4EE600AF1EE10FA70470000DA
:10317000010048414FF0FF3032BD10B50446207BBE
:103180006469A04710BD10B50446207B2469A047A0
:1031900010BD000010B50446A0686468A04710BDCB
:1031A00010B50446A0682468A04710BD38B500F0EB
:1031B000BCF918B900F0ACF900F0AFF932BD1CB59C
:1031C00000F079F89DF80010890800F0D8F906D0D1
:1031D00004D3032903D038BF022100D3002121707A
:1031E00016BD0000F8B500F000F900282E4628D1E1
:1031F00000F0D0F826D100F0C8F8002821D19DF8C1
:10320000031003291DD8DFE801F002050B12CDB928
:10321000012617E0280018BF012D13D1022611E066
:1032200028001CBF012D022D0CD103260AE0280026
:1032300018BF012D03D0022D18BF032D02D1042683
:1032400000E050B900F00AF8FFF7A4FF28B900F039
:1032500093F800F003F8FFF7A3FFF2BD01230DF18F
:1032600002021021204670471CB500F024F800F03F
:10327000BBF91DD8DFE801F006080A0C0E10121485
:1032800016181A00012114E0022112E0032110E0B7
:1032900004210EE005210CE006210AE0072108E0E8
:1032A000082106E0092104E00A2102E00B2100E0E8
:1032B0000021217016BD0C4601236A46102169E7E2
:1032C00038B500F0ECF81121FFF764FF40B99DF824
:1032D000000065F3430000F0DDF8112100F081F9F2
:1032E00032BD1CB500F0ACF800F03FF918BF022960
:1032F00003D004291CBF06290021217016BD00003F
:10330000F8B500F072F800282E4628D100F042F8F7
:1033100026D100F03AF8002821D19DF803100329A6
:103320001DD8DFE801F002050B12CDB9012617E028
:10333000280018BF012D13D1022611E028001CBF60
:10334000012D022D0CD103260AE0280018BF012D03
:1033500003D0022D18BF032D02D1042600E050B97E
:1033600000F03DF8FFF716FF28B900F005F800F06F
:1033700036F8FFF715FFF2BD9DF8020000F00F00D0
:1033800040EA06108DF8020070470DF10301204657
:1033900000F087B99DF800109DF80170084641EAD9
:1033A000500141EA900141EAD00141EA101141EA9D
:1033B000501141EA9011394341EA570141EA97011E
:1033C00041EAD70141EA171141EA571141EA971141
:1033D00001F00101074341EAD7100128704701239A
:1033E0000DF1020211212046704704460D46694640
:1033F00000F03CB91CB500F023F800F018F9491EA4
:1034000009291AD8DFE801F00507090B0D0F111380
:103410001517012112E0022110E003210EE0042122
:103420000CE005210AE0062108E0072106E008215A
:1034300004E0092102E00A2100E00021217016BD0C
:103440000C4601236A461121A4E638B500F042F883
:1034500018B900F0BCF800F035F832BD1CB56BE0CF
:103460001CB500F073B80A460623222192E60A46EC
:10347000062328218EE638B500F011F80121FFF768
:1034800089FE30B900F0D7F800F004F8012100F00F
:10349000A8F832BD8DF8000001236A4670470D463A
:1034A000044601236A4670470A4601230F21FFF7AD
:1034B00071BE38B500F00EF818B900F08DF800F0C4
:1034C00001F832BD8DF8000001236A461221204622
:1034D000FFF766BE0D46044601236A461221FFF738
:1034E00059BE38B500F004F808B900F0F8F832BD5C
:1034F0000D46044601236A461421FFF74BBE38B53A
:10350000FFF7F6FF18B900F003F800F0ECF832BD51
:103510009DF8000065F3830070478DF800000123DB
:103520006A4610212046FFF73BBE0D4604460123A4
:103530006A461021FFF72EBE00F012F8FFF72AFEB0
:103540009DF8001001F00101217016BD00F008F88F
:10355000FFF720FE9DF80010C1F34001217016BD59
:103560000C4601236A461E2170479DF80010490849
:1035700001F00701012970479DF80010490901F089
:1035800003010129704738B500F064F8C0B99DF80F
:10359000000000F0FD00E90940EA410000F052F8A7
:1035A00070B900F00EF8FFF7F5FD48B99DF801007D
:1035B00065F3C4008DF8010000F003F8FFF7F0FD9B
:1035C00032BD01230DF101026221204670479DF8B2
:1035D000000065F3861070479DF8000065F38200D7
:1035E00070472046FFF7DCBD9DF800100909491E11
:1035F0000A29704738B500F013F818B900F003F83D
:1036000000F006F832BD9DF8000065F30200704737
:103610008DF8000001236A460A212046FFF7C0BD4D
:103620000D46044601236A460A21FFF7B3BD9DF803
:103630000010090970479DF8000000F03F0040EAC3
:10364000851070478DF8000001236A461821204636
:10365000FFF7A6BD0D46044601236A461821FFF771
:1036600099BD0D4604460221FFF705BF38B5FFF7A7
:10367000F8FF30B902232A46462100F004F800B9C9
:1036800004E032BD0E212046FFF784BD2046BDE890
:1036900034400021FFF7EFBE287000212046FFF7DD
:1036A000EABE38B5FFF7DDFF90B900F012F878B93F
:1036B0009DF80000C00800F00300012806D004D3E4
:1036C000032803D038BF022000D30020FFF7E4FF17
:1036D00032BD01236A465F212046FFF75BBD9DF89E
:1036E000000065F301008DF8000001236A461421F3
:1036F0002046FFF755BD000070B5044600254FF089
:10370000FF362CB3086820604A6862608868A06051
:103710000A7B2273086920614A69626188690FF235
:103720001971A061216264620FF21970E061206872
:1037300070B1804760B9A068022804BF94F82800DF
:10374000002806D105222121204600F0ACFA00B164
:103750003546284670BD38B500F0B0FA00F0A7FC39
:10376000002821D100F0ABFA00F05FFCE0B900F0D6
:10377000A1FA00F0F7FCB8B9042104F11C0000F034
:1037800073FB88B904F12805DFF85C036860002149
:103790002972697204F11C0000F0DEFB20B900F010
:1037A00089FA00F04BFC00B1D7E10120287000201D
:1037B00032BD10B5044600F03AF800B134E004F12F
:1037C000280000214160017241720170002010BD8B
:1037D00080B51C3000F067FCD2E1012008700022A7
:1037E00010204A708A70CA704A608860CA600020DF
:1037F000DFF8002308614A618861704710B504460C
:1038000094F8290001280DD004F12C0042790179A7
:1038100090ED000A204600F06DFA00B104E00120AE
:1038200084F82900002010BD4FF0FF3010BD10B506
:10383000044694F8290038B100F03CFA00F08CFB03
:1038400000B1F1E784F8290010BD00007CB5044602
:103850000D460DF1010104F11C0000F001FC0026F1
:1038600028B9694604F11C0000F022FB00B1C4E055
:103870009DF801009DF8001091B1491E03291BD944
:10388000C91F0DD0491E022916D9C91F08D0491ECB
:10389000032911D9C91F03D0491E02290CD91DE0E3
:1038A00003281BD8DFE800F0141702059FED850AF6
:1038B00018E09FED850A15E003280FD8DFE800F037
:1038C0000205080B9FED810A0CE09FED810A09E0DB
:1038D0009FED800A06E09FED800A03E0BFEE000A3C
:1038E0004FF0FF3685ED000A304676BD7CB50646C2
:1038F0000C460DF1010106F11C0000F058FB0025FB
:1039000010B900F095F900B177E09DF800009DF83E
:103910000110A9B1012916D0022926D0032927D0E8
:10392000042928D0052929D006295BD0072928D0C9
:10393000082935D0092942D0222918BF322954D16B
:103940009FED660A55E003280CD9001F0DD0001F1B
:10395000032884BF0838032804D9001F05D0001F9E
:10396000032842D89FED5E0A43E0B2EE090A40E028
:10397000B3EE090A3DE09FED5B0A3AE09FED5A0A7B
:1039800037E003282ED9001F07D0001F032884BF6B
:103990000838032826D9001F1DD19FED540A28E0BE
:1039A00003281FD9001F07D0001F032884BF083831
:1039B000032817D9001F0ED19FED4D0A19E00328E7
:1039C00010D9001F0BD0001F032884BF083803281C
:1039D00008D9001F03D0001F032803D905E09FED7D
:1039E000450A06E09FED440A03E0BFEE000A4FF0EF
:1039F000FF3584ED000A284676BD4FF0FF3076BDD6
:103A00000022002190F82930012B04BFC9B200F038
:103A100071B9DFED3A0A2C30B4EE600AF1EE10FA1B
:103A20000171427148BF9FED2E0A46D4DFED340A82
:103A3000B4EE600AF1EE10FA48BFB2EE090A3CD4C7
:103A4000DFED300AB4EE600AF1EE10FA48BFB3EED3
:103A5000090A32D4DFED2C0AB4EE600AF1EE10FA56
:103A600048BF9FED200A28D4DFED280AB4EE600A93
:103A7000F1EE10FA48BF9FED1C0A1ED4DFED240AB8
:103A8000B4EE600AF1EE10FA48BF9FED1B0A14D4A1
:103A9000DFED200AB4EE600AF1EE10FA48BF9FEDA8
:103AA000130A0AD4DFED1C0AB4EE600AF1EE10FA34
:103AB0004CBF9FED0F0A9FED0F0A80ED000A00201A
:103AC0007047000023DB794023DBF94023DB793E9C
:103AD00023DBF93E23DB793F23DBF93F00000000C5
:103AE000CDCCCC3F000048420000C8420000C84393
:103AF000000048440000C84400004843CECCCC3FFE
:103B0000010048410100C841010048420100C8428B
:103B1000010048430100C8430100484438B50C4641
:103B200069461C3000F09CFA002500B115E09DF8B4
:103B3000000003280BD8DFE800F00204060802208A
:103B400008E0042006E0082004E0102002E04FF026
:103B5000FF3528462060284632BD4FF0FF3032BD89
:103B600080B50329B8BF002107DB0529B8BF0121B3
:103B700003DB0929B4BF022103211C3000F05EFAE7
:103B800008B14FF0FF3002BD7FB506460D4600F08C
:103B90004FF8002428B901A906F11C0000F07FFAB3
:103BA00010B14FF0FF3037E09DF8000090B1401E9B
:103BB00003281ED9C01F0DD0401E022819D9C01FCE
:103BC00008D0401E032814D9C01F03D0401E02286D
:103BD0000FD91EE0BDF9040000F025F82880BDF9DA
:103BE000060000F020F86880BDF9080000F01BF81E
:103BF0000DE0BDF9040000F011F82880BDF90600C1
:103C000000F00CF86880BDF9080000F007F8A88003
:103C100001E04FF0FF34204604B070BD411000EBCE
:103C2000917080107047C11000EB11700011704747
:103C3000694606F11C0000F03BB93EB500220D4676
:103C40000092044601A9FFF79FFF20B9694620466C
:103C5000FFF7FCFD10B14FF0FF303EBDBDF9040091
:103C600000F010F8C5ED000ABDF9060000F00AF8F2
:103C7000C5ED010ABDF9080000F004F8C5ED020A1F
:103C800000203EBDDDED000A00EE100AB8EEC00ACD
:103C900060EE200AFDEEE00A704780B501231C307B
:103CA00000F0D6F86CE704B501236A461C3000F03A
:103CB000D5F865E7002104F11C0070470446012196
:103CC00004F11C00704780B503290AD20A0008BF1E
:103CD000002102D0012918BF02211C3000F0FFF999
:103CE00008B14FF0FF3002BD80B51C3000F0CBF9B9
:103CF00046E70000F8B506460C46E0B22DED028B13
:103D0000401EB0EE408A032815469FED3D0A03D8B9
:103D1000DFE800F00E13181D012DF2EE090A14BFA2
:103D20000427142700F083F81BD5B0EE608A24E046
:103D3000012D0CBF132703270DE0012D0CBF122707
:103D4000022708E0012D0CBF1127012703E0012DF8
:103D500014BF0027102700F065F8A8BF9FED298A3F
:103D600025DADFED290A00F062F848BF01212ED4E0
:103D7000DFED260A00F05BF801D5022127E0DFED38
:103D8000240A00F054F848BF032120D4DFED210AB3
:103D900000F04DF848BF042119D4DFED1F0A00F0F0
:103DA00046F848BF052112D400F03CF801D50621A1
:103DB0000DE09FED1A0A00F035F848BF072106D440
:103DC0009FED170A00F02EF84CBF0821092106F1DB
:103DD0001C0000F0C1F828B9394606F11C0000F0BB
:103DE00043F810B14FF0FF3006E006F12C0080EDF3
:103DF000008A047145710020BDEC028BF2BD000009
:103E00000100484300004843CECCCC3F010048416C
:103E10000100C841010048420100C8420100C843F6
:103E200001004844B4EE408AF1EE10FA7047B4EE57
:103E3000608AF1EE10FA704710B50446207B646981
:103E4000A04710BD10B50446207B2469A04710BDD3
:103E500010B50446A0686468A04710BD10B50446BC
:103E6000A0682468A04710BD38B500F099F8E0B903
:103E70009DF8011005F00C0205F0030001F0F001BF
:103E8000024311438DF8011000F084F868B9012352
:103E90006A4625212046FFF7DBFF30B99DF8000078
:103EA0002D0965F3820000F0D4F832BD0000000057
:103EB00038B50C46054601236A462021FFF7C8FFA6
:103EC000002848D100F014F900F01CF900F015F9B1
:103ED0009DF80030890001F0100102F00C02511829
:103EE00003F003035918C9B21B2932D8DFE801F0E7
:103EF0001412100E313131311C1A18163131313192
:103F0000262422201E3131312E2C2A2803211EE0A6
:103F100002221FE001211AE000221BE00B2116E023
:103F20000A2217E0092112E0082213E014210EE012
:103F300013220FE012210AE011220BE0102106E00B
:103F40001B2207E01A2102E0192203E01821217048
:103F500032BD0422227032BD38B500F021F8C0B95C
:103F60009DF8010000F00F0040EA05108DF80100F7
:103F700000F010F868B901236A4622212046FFF7B5
:103F800067FF30B99DF800002D0965F3010000F0CE
:103F9000D2F832BD01230DF10102202120465DE758
:103FA0000D46044601230DF10102202150E738B5EA
:103FB00000F0CEF82021FFF74BFF002834D1012379
:103FC0006A46222100F09EF89DF800109DF801201D
:103FD00001F00301120902EB0111012914D0022999
:103FE00021D0032913D004291DD0052911D0062979
:103FF00019D007290FD0082915D009290DD0222959
:104000000DD032290FD00DE00123237032BD0322E1
:1040100006E0052204E0072202E0092200E0222255
:10402000227032BD0021217032BD38B500F051F848
:1040300018B900F07BF800F045F832BD38B500F053
:104040006AF828B99DF8000065F3051000F001F842
:1040500032BD8DF8000001236A4625212046FDE689
:104060001CB500F05EF89DF80010090901F003018D
:10407000012906D004D3032903D038BF022100D37D
:104080000021217016BD1CB500F068F82721FFF74C
:10409000DFFE9DF8001001F00101217016BD0A46F7
:1040A00006232821D4E60A4601230F21D0E638B59D
:1040B00000F00FF828B99DF8000065F3820000F0C9
:1040C00001F832BD8DF8000001236A462121204607
:1040D000C4E60D46044601236A462121B8E638B5F8
:1040E00000F030F818B900F00FF800F024F832BDF5
:1040F00001230DF10102252170479DF801109DF863
:10410000002070472846A3E69DF8000000F03F001D
:1041100040EA851070470D46044601236A46252172
:1041200096E60C4601236A46252191E69DF800009B
:1041300065F3C30070478DF8000001236A46222111
:1041400020468BE60D46044601236A4622217FE67F
:104150000C46054601230DF1010270470C46012370
:104160006A46704738B500F015F818B900F003F842
:1041700000F008F832BD9DF8000000F01F0040EA92
:10418000451070478DF8000001236A462E21204615
:10419000FFF764BE0D46044601236A462E21FFF751
:1041A00057BE000010B5002000F044FB01210020A4
:1041B00000F080FB002000F0C7FB401E8041DFF8CC
:1041C0004C45C00FA062002000F0CFFB032100206F
:1041D00000F030FCDFF8382500F049F804F12C013C
:1041E000BDE81040B0A000F0C5BD10B5DFF81C451B
:1041F0002178D9B1322000F0D1FD002000F0A4FBDD
:10420000A16A8842F9D0322000F0C8FD0020207059
:10421000607000F037F808B100F0AAFE00F05EF917
:1042200008B100F0A5FE0120607010BD6078002884
:10423000EFD0012817D1DFF8DC2400F018F804F1E2
:104240002C0199A000F096FDDFF8CC44206820F006
:10425000020020600121002000F08CFE206840F068
:104260000200206010BDBDE8104000F081BE4FF498
:10427000807104F12C0000F08DBEDFF89014012055
:10428000087070472DE9F84FDFF88074DFF88C84F0
:104290008EB0424600F01BF90FF20C2900F008F92D
:1042A0004FF47A7000F07AFD002000F0EDFA4FF044
:1042B000000B0024391D00F039FA002809D1641CD4
:1042C0000A2CF7D3002407F11000391D00F039FA49
:1042D000002840F0DC80641C0A2CF4D3642000F039
:1042E0005DFD00F0E3F808B100F042FE0025002675
:1042F000AA46052400F0DAF808B100F039FE029869
:10430000039986194D190498641E8244F2D105213F
:1043100096FBF1F10D910522052195FBF2F29AFB36
:10432000F1F10C92019101220221002000F0B7FE70
:104330000028089040F0AD80642000F02FFD00F0D0
:10434000B5F808B100F014FEDA460026052500F0A5
:10435000ADF808B100F00CFE02980399824404986D
:104360000C1986196D1EF2D105209AFBF0F596FB0B
:10437000F0FA94FBF0F4002605A8391D825D895DF2
:1043800000F0E1F9002840F08380761C0A2EF3D378
:10439000089040F2A4660D980FF22042291A48BFF7
:1043A00049426FF004005A290B91B8BF8346B142CD
:1043B0000C99C8BF8346611A48BF49425A290A91DD
:1043C000B8BF8346B1420199C8BF8346BAEB010129
:1043D00048BF49425A29B8BF83460991B142C8BF74
:1043E000834600F074F800F063F808F14C0200F026
:1043F0006EF800F05DF800F068F800F059F80D9BD9
:10440000009508F1AC0200F05AF800F051F80C9B4E
:10441000009408F1D00200F052F800F049F8019B36
:10442000CDF800A008F1F40200F049F800F040F8DF
:104430000FF2A83200F04BF800F03AF808F58C7251
:1044400000F045F800F034F800F03FF800F030F8E4
:1044500001965A230B980FF2A43400F02EF800F0C6
:1044600027F801965A230A9800F027F800F020F860
:1044700001965A23099800F020F800F019F8BBF1D2
:10448000000F0CBF08F5A47208F5BA7203E06DE1E5
:1044900008900898FBE700F01AF800F009F80020EF
:1044A00000F0F7F9F5E700002573000002A860E1CD
:1044B00007F12C01484600F05DBC009022464FF405
:1044C000807107F12C0000F065BD08F17C024FF40B
:1044D000807107F12C0000F05DBD00002DE9F04F68
:1044E0008A4EDFF838B28FB00BF5D07200F038F991
:1044F0000FF2142800F020F94FF47A7000F04EFC0F
:10450000002000F0C1F94FF0000A0024311D00F036
:104510000DF9002809D1641C0A2CF7D3002406F1F8
:104520001C00311D00F00DF9002840F0E080641CF3
:104530000A2CF4D3962000F031FC00F0F5F808B115
:1045400000F016FD0027D1460025052400F0ECF808
:1045500008B100F00DFD02980399C7190498451998
:10456000641E8944F2D1052197FBF1F10E910522D9
:10457000052199FBF2F295FBF1F10D920C910122CC
:104580000121002000F08BFD0028089040F0B18050
:10459000322000F003FC00F0C7F808B100F0E8FC9E
:1045A0000025D1460027052400F0BEF808B100F030
:1045B000DFFC0298039945190498C719641E8944C1
:1045C000F2D10520052195FBF0F099FBF1F4019063
:1045D00097FBF1F9002505A8311D425D495D00F00A
:1045E000B2F8002840F084806D1C0A2DF3D30890A7
:1045F0000BF5F47201990E98494D4A4F091A48BFBC
:1046000049426FF00400A9420B91B8BF8246B942FB
:104610000D99C8BF8246611A48BF4942A9420A9112
:10462000B8BF8246B9420C99C8BF8246B9EB0101B6
:1046300048BF4942A942B8BF82460991B942C8BFA2
:10464000824600F08DF800F077F80BF14C0200F094
:1046500087F800F071F800F081F800F06DF801982B
:104660000E9B00900BF5047200F072F800F064F8F5
:104670000D9B00940BF50D7200F06AF800F05CF8E9
:104680000C9BCDF800900BF5167200F061F800F06D
:1046900053F80BF51F7200F063F800F04DF80BF5BE
:1046A0008C7200F05DF800F047F800F057F800F069
:1046B00043F801972B460B9857A400F047F800F0F9
:1046C0003BF801972B460A9800F040F800F034F8C8
:1046D00001972B46099800F039F800F02DF8BAF14F
:1046E000000F0CBF0BF528720BF5327203E03DE0B2
:1046F00008900898FBE700F033F800F01DF8002060
:1047000000F0C7F8F5E70000257300000000002066
:10471000A4620008D062000810E000E05C5E0008BF
:10472000F049020060AE0A0002A834E005A80219B0
:10473000095D002000F075BC06F12C01404600F038
:1047400019BB025D095D002000F087BC0090224685
:104750004FF4807106F12C0000F01CBC0BF17C02C0
:104760004FF4807106F12C0000F014BC0FB0BDE8CE
:10477000F08F1CB504466A460221002000F02CFC94
:1047800040B99DF800000028F5D022460221002003
:1047900000F0BDF916BD1CB504466A460121002093
:1047A00000F01AFC40B99DF800000028F5D0224620
:1047B0000121002000F0ABF916BD00000D0A4D6587
:1047C00061737572656420616363656C65726174A1
:1047D000696F6E205B6D675D3A0D0A000D0A5465C6
:1047E0007374206C696D69747320616E64206461F8
:1047F0007461205B6D675D3A0D0A00002538642006
:1048000020202020207C2025386420202020207C8F
:10481000202538640D0A000020202538642020203F
:10482000207C2020253864202020207C2020253852
:10483000640D0A0070B586B0044600200090714EE9
:104840007148016841F001010160006873A100F046
:1048500001000090009831F8145001950121029157
:1048600003910221049101A956F8240000F03EFCB6
:1048700000F004F8002006B070BD000056F82400D7
:104880000022294600F071BD10B500F00BF801229E
:1048900003E010B500F006F8002200F066FD0020ED
:1048A00010BD00005DA3574C33F8101054F82000E1
:1048B00070470000F8B586B0044600255248534EB4
:1048C0000095026842F004020260006854A200F001
:1048D00004000090009832F81430019302220392F1
:1048E000049256F8240021B9029501A900F0FEFBBC
:1048F00027E0474A029201A900F0F8FB4CA151F8C9
:104900002410301D00EBC406304600F056FD6FF059
:10491000030738B944A050F824200021304600F0A5
:1049200045FD08B13D460CE00FF2F8003FA10657E7
:1049300051F8241000223046FDF7B2FF3046FDF753
:10494000CCFF284607B0F0BD80B500BF34A22F4B86
:1049500032F8101053F8200000F001FD401E804195
:10496000C00F02BD0020FFF788BC70B500240228EC
:1049700086B028BF6FF0010430D28501254E06EBCA
:10498000800006F1080241681F485151009402223C
:10499000016941F400310161016901F400310091C4
:1049A000009900940C21036843F00103036007237E
:1049B000006800F0010000900098174801910292F1
:1049C00005930394049401A900F090FB06F10801FB
:1049D000481900F00BFD08B16FF00304204606B043
:1049E00070BD11B50B48047881B000EB84104FF412
:1049F0007A73012201A9083000F049FD019816BD23
:104A000000000000E402002030380240E8020020EC
:104A100000001110F40200200000024020000000FD
:104A20000020000028000000654900080F00000079
:104A30000D0000062DE9F84705004FF0000887B08B
:104A400089464FF0010A4746DFF8F46203D0022D91
:104A500049D041D358E0484600F082F8002846D1BA
:104A6000B06B726C6946D3689847002849D19DF8AD
:104A7000000001289DF8010008BF022701289DF8C9
:104A8000020008BF47F00107012808BF47F00407EC
:104A900003240AEA0900504504BF0AEA070050450A
:104AA0000FD10C2106F124026943711852F82A3003
:104AB00051F823100A6806F1380050F82500904795
:104AC00038B9641E4FEA4A0AE3D1404608B0BDE84F
:104AD000F0876FF00400F9E7484600F096F830B927
:104AE000F06BB26CBEE7484600F0DEF810B14FF054
:104AF000FF30EBE7F26C306CD368694698470028CA
:104B0000B5D06FF00600E1E76FF00108DDE738B5DA
:104B100000F017F808D200F00DF805D100F016F8F3
:104B2000D369984710B102E06FF0010032BD6FF019
:104B3000040032BD824D05EB8300026D2240A2428B
:104B4000704703460C46032B114670470C22534313
:104B5000EA1805EB84035C6A52F82420806B7047E6
:104B6000D721F0B500F093F88FB000F093F80395DB
:104B700006F15C007349744A0591079201A9FDF79B
:104B8000D7FE50B9694606F15C00FDF749FF0028E1
:104B900004BF9DF800006C2802D06FF0060531E0DC
:104BA00008A906F15C00FDF741FF9DF821009DF882
:104BB000202040EA42019DF8222041EA820131652D
:104BC000E20706F15C01B1636FF004075F497164AD
:104BD00008D5012806D15E48306006F15C000968FE
:104BE000884770B9A0070AD59DF82010012906D181
:104BF0005848716C70600A68B06B904708B96007DC
:104C000000D53D4628460FB0F0BD2DE9F8413321CF
:104C100000F03DF88FB000F03DF806F18C0700F091
:104C200086F8FEF769FD48B969463846FEF7D0FDBB
:104C3000002804BF9DF80000442802D06FF006054C
:104C400024E008A93846FEF7C8FD9DF821009DF82C
:104C50002010F76340EA41009DF8221040EA8100ED
:104C60007065A0073C49B1646FF0040809D59DF850
:104C70002020012A05D13948306138460968884723
:104C800018B9E00701D4610700D545464BE0344A26
:104C90002B4E704704468DF81010019200253149C3
:104CA000314A0291069270472DE9F8413D21FFF704
:104CB000EEFF8FB0FFF7EEFF06F1C00700F037F808
:104CC00000F0E6FC48B96946384600F04AFD002885
:104CD00004BF9DF80000402802D06FF0060522E0D6
:104CE00008A9384600F042FD9DF821109DF82020CB
:104CF0009DF82200376441EA420141EA8001B16532
:104D000062071A49F1646FF0040807D5012805D13C
:104D10001748306238460968884718B9A00701D497
:104D2000E10700D54546284610B0BDE8F0810549A9
:104D3000054A05910792039501A93846704700007E
:104D40002C010020F76100086D620008800200203D
:104D5000B402002090020020180200202802002047
:104D60004D610008C3610008176200084C02002072
:104D70005C0200200EB4C0B5024603A800210190D9
:104D8000009101AB0121044878440C30FBF702FA92
:104D900006BC5DF810FB00BF6B16000038B504467A
:104DA000FDF73EFD14F1010F054602D004480178DD
:104DB0006418FDF735FD401BA042FAD331BD00BF9A
:104DC000D802002080B500F0D1FD00F007F800F017
:104DD0004FF8FFF7E7F9FFF708FAFCE780B592B064
:104DE00006A8302100F0DCFD01A8142100F0D8FD58
:104DF000002000905348016841F08051016000217B
:104E0000006800F08050009000984F480091022107
:104E1000026822F4404242F400420260012200682B
:104E200000F44040009000980691099210210A91E8
:104E3000022200210C920D9110224FF4A8710E92C3
:104E40000F91042207211092119106A800F0ACFDE9
:104E5000022102910F204FF4805101900022049111
:104E600003920592022101A8FDF702FC13B000BDD8
:104E700010B586B001A8142100F092FD002433483B
:104E800000940168324C41F004010160026802F0B4
:104E900004020092002200990092036843F080030C
:104EA0000360016801F0800100910099009203689D
:104EB00043F001030360016801F0010100910099D2
:104EC00000922021036843F002030360006800F0B1
:104ED000020000900098204600F047FA4FF400507E
:104EE0001C4900F03FF81C4800F000F92021019116
:104EF0000122002103910491029201A9204600F0B1
:104F0000F5F83020154900F02DF8154800F0EEF8BE
:104F1000002200210A20FDF7C3FC0A20FDF7DDFC7A
:104F2000002200211720FDF7BBFC1720FDF7D5FC60
:104F3000002200212820FDF7B3FC2820FDF7CDFC3E
:104F400006B010BD403802400070004030380240CA
:104F50000000024000002110000802400000111073
:104F600000040240019002910022039201A97047BF
:104F7000704700000648026822F00402012902601E
:104F800001D130BF704740BF20BF20BF7047000035
:104F900010ED00E008B438B585B009AC00250494E4
:104FA000039500290EBF01950190491E02910095BD
:104FB00004AB01A9074878441A30FBF7EBF80199D4
:104FC00001B10D70002858BF039806B030BC5DF8E1
:104FD00008FB00BF3FC3FFFF10B500F05AF818B13F
:104FE000022812D00BD318E010689A0702D5FEF7FA
:104FF00089F80FE0DA0712D5FEF795F80AE098076E
:105000000DD55068FEF770FE04E0580707D590688C
:1050100000F08AFC18B9002401E06FF0010420467A
:1050200010BD10B56FF00404DFF8BC3018B10228D1
:1050300009D004D30DE01868FEF726F806E058689A
:10504000FEF72BFE02E0986800F05CFC18B9002423
:1050500001E06FF00104204610BD10B56FF00404AC
:10506000DFF8843018B1022809D004D30DE01868A5
:10507000FEF70EF806E05868FEF715FE02E09868A5
:1050800000F046FC18B9002401E06FF0010420464E
:1050900010BD0B4611466FF00404134A704710B55B
:1050A000FFF7F7FF18B1022812D00BD318E01068F1
:1050B0009A0702D5FEF72BF80FE0DA0710D5FEF7B6
:1050C00037F80AE098070BD55068FEF7FCFD04E0BE
:1050D000580705D5906800F022FC18B9002401E0BB
:1050E0006FF00104204610BD640100202DE9F84F47
:1050F0000D464FF00008A3490F22012304462E68F5
:1051000003FA08F000EA0609814540F0B1804FEA51
:10511000480C032606FA0CF66FEA060E6E68012E9E
:1051200018BF022E03D0112E18BF122E11D1A6685F
:10513000EF680EEA060607FA0CF73E43A6606668BB
:1051400026EA00006E68C6F3001606FA08F6304339
:105150006060E068AE680EEA000006FA0CF63043C4
:10516000E0604FEA88006E68022E18BF122E12D13E
:105170004FEAD80604EB860600F01C07D6F820A0FC
:1051800002FA07FB2AEA0B0AD5F810B00BFA07F768
:1051900047EA0A07376226680EEA06072E7906F004
:1051A000030606FA0CF63E4326606E68F6005FD5ED
:1051B000002600964FEA980C0E68DFF8CCE146F422
:1051C00080460E6000F00C000E6806F480460096E3
:1051D000009E5EF82C7002FA00F627EA06066B4F76
:1051E000BC4208BF002713D0694FBC4208BF01274B
:1051F0000ED0684FBC4208BF022709D0664FBC42A0
:1052000008BF032704D0654FBC420CBF0427072703
:1052100007FA00F030434EF82C006FEA090C6048A2
:1052200006680CEA060E6E68F70348BF49EA0E0EE0
:10523000C0F800E046680CEA060E6E68B70348BF87
:1052400049EA0E0EC0F804E086680CEA060E6E68A5
:10525000F70248BF49EA0E0EC0F808E0C6680CEA3B
:10526000060E6E68B60248BF49EA0E0EC0F80CE0A2
:1052700008F10108B8F10F0F7FF641AFBDE8F18FDB
:105280002DE9F84F03460D46002445483E49009558
:105290000122009E02FA04F909EA06064E4559D198
:1052A0004FEA940C4FEA840A51F82C50374F0AF019
:1052B0000C0E4FF00F0B0BFA0EF8BB4208EA050577
:1052C00008BF002713D0324FBB4208BF01270ED0C2
:1052D000304FBB4208BF022709D02F4FBB4208BF47
:1052E000032704D02D4FBB420CBF0427072707FA22
:1052F0000EF7BD4212D10568F6433540056045689A
:1053000035404560856835408560C5682E40C6607B
:1053100051F82C5025EA080541F82C500325660069
:10532000B540EE431D6835401D600AF01C0AE508D3
:1053300003EB85050BFA0AFA2F6A27EA0A072F62A0
:10534000DD683540DD605D6825EA09055D609D68C2
:1053500035409D60641C0F2C9BD9BDE8F18F00691E
:10536000084018BF0120C0B2704702B9090481612A
:1053700070470C4A136803421CBF106000F014B859
:1053800070470000443802400838014000000240E5
:105390000004024000080240000C024000100240DD
:1053A000003C0140143C01407047000003460020CF
:1053B00009B95A6070470120704708B90120704749
:1053C0000160002070470178012201F01F0102FAFC
:1053D00001F1054A13680B4204D0116040680028AF
:1053E00018BF004770470000143C014010B5094940
:1053F00001604FF4E1320C2100244260416184607D
:10540000C46004618461C46100F006F800B1012445
:10541000204610BD0044004038B5040001D10120F1
:1054200032BD00F021F808B900F022F800F012F8BF
:1054300000F023F8FFE7416100F001F832BD206879
:10544000C16841F40051C16000206860202169708A
:10545000A9707047242068702068C16821F4005149
:10546000C160204600F09FB804F1380568787047A5
:1054700000212970204600F009B92068016921F453
:10548000904101612068416921F02A0170472DE9AE
:10549000F843054605F138070C467878202816466B
:1054A00098463DD1002C14BF002E012039D0387809
:1054B000012835D0012139700020786021227A70CE
:1054C000FDF7AEF98146AE84EE840020387003E02B
:1054D0002A6814F8011B5160E88C20B3E88C411E47
:1054E000E9844B46A868CDF80080B0F5805F0DD107
:1054F00000F023F870B920882968C0F308004860DC
:105500002869002814BF641CA41CE5E700F015F806
:105510000028DDD0032004E020207870002000E087
:105520000220BDE8F283CDF800804B4600224021E6
:1055300000F005F80028EFD0ECE700228021284693
:10554000FFE72DE9F041069C05460E4690461F46B2
:10555000286801683140B1420CBF0120002040455D
:1055600017D114F1010FF3D024B1FDF759F9C01B85
:105570008442EDD22868C16821F4D07100F00CF8A3
:1055800005F1380020214170817000210170032055
:1055900000E00020BDE8F081C16028684169490849
:1055A000490041617047D0B50646642732681169E9
:1055B000F06821F44051014311611924D3682D484A
:1055C000B168034030690B4371690343F0690B43D1
:1055D0000343D3605169B06921F4407101435161C3
:1055E000F36925482549B3F5004F1FD18A4218BFFA
:1055F000824202D1FDF7CAF801E0FDF7BFF802468A
:10560000A4FB02017268D30F5200FBF7E3FE00F027
:1056100037F8FF0032376420B7FBF0F0420002F4A5
:10562000F87202EB011200F007001DE08A4218BF79
:10563000824202D1FDF7AAF801E0FDF79FF8024689
:10564000A4FB02017268930F9200FBF7C3FE00F007
:1056500017F83F0132376420B7FBF0F000F0F0029A
:1056600002EB011200F00F00316880188860D0BD95
:1056700000000000F369FFFF00140140001001402A
:105680006421B0FBF1F107FB110770477047000080
:1056900038B504460025C4B1086820604A686260D5
:1056A0008868A0600A7B2273086920614A69626188
:1056B00088690FF28121A061216264620FF291205A
:1056C000E061206808B1804718B14FF0FF352846E7
:1056D00032BDA1680029FAD094F828000028F6D13C
:1056E000012906D134226221204600F011F938B98F
:1056F000EDE7012104F11C0000F06DFB0028E6D06D
:105700004FF0FF3032BD10B50446012104F11C00FA
:1057100000F028FB70B900F013F858B9032104F128
:105720001C0000F0EAFA28B9002104F11C0000F086
:105730003AFB00B112E0012084F82800002010BDDF
:10574000022104F11C0000F0CDBA10B5044600F0AF
:105750002EF800B102E084F8280010BD4FF0FF30B1
:1057600010BD80B51C3000F01AFB69E00020087005
:105770004870C8704860886008613222CA6001239E
:105780003448886100228B704A610020704710B550
:10579000044694F82900012807D00021FFF7D1FF23
:1057A00000B1DBE7012084F82900002010BD10B50E
:1057B000044694F8290028B1FFF7C2FF00B1CDE7F5
:1057C00084F8290010BD4FF07F5051E038B50D46E8
:1057D00069461C3000F09CFA002400B190E79DF867
:1057E000000003280DD8DFE800F0020406091A497A
:1057F00002E01A4803E01A49296004E015482860CD
:1058000001E04FF0FF34204632BD0000DFED0E0A0C
:1058100080B500F027F848BF00210DD4DFED0B0A5A
:1058200000F020F848BF012106D4DFED090A00F09E
:1058300019F84CBF022103211C3000F05EFA00BFB2
:1058400008B14FF0FF3002BD010020410100A0412E
:10585000010048420000C842000020410000A04171
:1058600000004842B4EE600AF1EE10FA70473220B0
:10587000086000207047002070471CB500F03AF81F
:1058800000B13CE0BDF800002080BDF8021061804E
:10589000BDF80400A080002016BD1CB500F02AF859
:1058A00000B12CE0BDF9000000EE900AB7EE080A46
:1058B000F8EEE00A60EE800AFDEEE00AC4ED000AB0
:1058C000BDF9021001EE101AB8EEC11A21EE001A4D
:1058D000BDEEC11A84ED011ABDF9040000EE900A74
:1058E000F8EEE00A20EE800ABDEEC00A84ED020A5E
:1058F000002016BD0C4669461C3000F04CBA4FF033
:10590000FF3016BD80B501231C3000F0DFF997E7AA
:1059100004B501236A461C3000F0DEF990E780B53B
:105920001C3000F040FA8BE780B51C3000F023FA01
:1059300086E7000070B58568047B4669002D0CBFC2
:1059400041F0800141F040012046B04770BD0000A9
:1059500070B58568047B0669002D0CBF41F080019D
:1059600041F040012046B04770BD000080B50B48B3
:10597000016841F400710160026842F480620260D3
:10598000016841F4807101600320FCF77CFF002076
:10599000FCF74CFF00F02AFA002002BD003C024058
:1059A000002200F041BA00002DE9F843040016D0AF
:1059B0002078DFF80863C10713D5B06800F00C0049
:1059C000042807D0B06800F00C0008283ED17068A9
:1059D00041023BD53068810303D56068002800F0A0
:1059E000FF802078B64F810719D5B06810F00C0FF2
:1059F00007D0B06800F00C0008285CD17068410244
:105A000059D43068810703D5E068012840F0E88068
:105A10003168206921F0F80141EAC0013160217844
:105A200008076CD56069A749002862D001220A6086
:105A3000FCF7F6FE0546706F810700F1D380FCF796
:105A4000EFFE401B0228F6D9032034E16068B0F570
:105A5000803F04D1306840F48030306011E0B0F510
:105A6000A02F306806D140F480203060316841F4C6
:105A7000803105E020F480303060316821F48021ED
:105A80003160606858B1FCF7CBFE05463068810391
:105A9000A7D4FCF7C5FE401B6528F7D3D4E7FCF775
:105AA000BFFE0546306881039BD5FCF7B9FE401B5D
:105AB0006528F7D3C8E7E06870B101213960FCF7C9
:105AC000AFFE05463068810700F1B880FCF7A8FEFC
:105AD000401B0228F6D9B7E73860FCF7A1FE05465F
