:020000040800F2
:100000003894002065AF0008F9AD0008FBAD00088A
:1000100089AF00088DAF000891AF00080000000014
:1000200000000000000000000000000095AF000884
:10003000FDAD00080000000099AF0008FFAD00080A
:100040009DAF0008A1AF0008A5AF0008A9AF000848
:10005000ADAF0008B1AF0008B5AF0008B9AF0008F8
:10006000BDAF0008C1AF0008C5AF0008C9AF0008A8
:10007000CDAF0008D1AF0008D5AF0008D9AF000858
:10008000DDAF0008E1AF0008E5AF0008E9AF000808
:10009000EDAF0008F1AF0008F5AF0008F9AF0008B8
:1000A000FDAF000801B0000805B0000809B0000865
:1000B0000DB0000803AE000811B0000815B000082C
:1000C00019B000081DB0000821B0000825B00008D4
:1000D00029B000082DB0000831B0000835B0000884
:1000E00009AE000839B000083DB0000841B0000872
:1000F00045B000080000000049B000084DB00008FD
:1001000051B0000855B0000859B000085DB00008B3
:1001100061B0000865B0000869B000080000000088
:100120006DB0000800000000024B1B7823B90B7073
:10013000704700BFAC0800202DE9F04FAFB0044677
:1001400017910068C84902F0A5FEC74906466068D5
:1001500002F0A0FEC4490546A06802F09BFEC34B16
:10016000044693F9070002F001FF314602F092FEC7
:10017000BE4B074693F9080002F0F8FE294602F04C
:1001800089FE0146384602F003FFB84B074693F953
:10019000090002F0EBFE214602F07CFE01463846E3
:1001A00002F0F6FEB24902F075FEB04B159093F9DD
:1001B000040002F0DBFE314602F06CFEAB4B07465A
:1001C00093F9050002F0D2FE294602F063FE0146D3
:1001D000384602F0DDFEA54B074693F9060002F013
:1001E000C5FE214602F056FE0146384602F0D0FE1A
:1001F0009F4902F04FFE9D4F169097F90A0002F0BA
:10020000B5FE314602F046FE064697F90B0002F0B5
:10021000ADFE294602F03EFE0146304602F0B8FE31
:10022000054697F90C0002F0A1FE214602F032FECD
:100230000146284602F0ACFE8E4902F02BFE97F8EC
:100240000DB03E4614903946BBF1000F00F06D83AF
:1002500091F812A0BF7B767C874B0AF10100013731
:10026000864A741CA3FB07C5A3FB00C3A2FB04C200
:100270009B08520803EB8303C31AAD0902EBC202C9
:10028000A21A7A48DBB205EB8505C97BA7EB0515F9
:10029000D2B204930AF105038573059206F10904AD
:1002A000029390F810B031B10BF01F0B6F4B0BF1B4
:1002B000010B83F810B06D4AAB00D718DDF85890E9
:1002C000149A0393159BC7F88C231946C7F80C3171
:1002D0001846C7F84C9202F0DDFD49468046484674
:1002E00002F0D8FD0146404602F052FE80461498C6
:1002F000014602F0CFFD0146404602F049FE4F2D77
:100300000090C7F8CC0402D10123584AD3735B4D47
:10031000564AA5FB04135B08009903EBC30302EBE9
:100320008606E31AB16102EB8303986902F0DEFEF0
:1003300043A3D3E9002302F0FDFE02F0E9FFA31E70
:10034000A5FB03E77F08F06307EBC707DF1B02F09D
:10035000CDFE631E8046A5FB0302520802EBC202DB
:100360009B1A424A894602EB8303D86B02F0BEFE19
:1003700035A3D3E9002302F0DDFE0B4602464946D1
:10038000404602F0F9FF394A02EB870702F0C0FF4E
:1003900002F0ACFE8046B869894602F0A7FE2CA3A5
:1003A000D3E9002302F0C6FE02460B46404649460A
:1003B00003F054F802F0ACFFF06302F097FE8046C1
:1003C000F86B894602F092FE23A3D3E9002302F0E2
:1003D000B1FE02460B464046494602F0CDFF02F010
:1003E00097FF231FA5FB03E77F08F06307EBC70711
:1003F000DF1B02F07BFEE31E8046A5FB03025208D2
:1004000002EBC2029B1A194A894602EB8303D86B9E
:1004100002F06CFE12A3D3E9002302F08BFE0B4620
:1004200002464946404602F0A7FF104A02EB870702
:1004300002F06EFF02F05AFE8046B86989461FE05E
:100440000144BA01C1964E3FE101AABABE1E14C0D2
:100450000B44BA01C1966EBF89CE7ADB5D08294094
:100460008DD2D14A037433C0C3F51C41AC080020BF
:100470003DC4D03D3DC4D0BDCDCCCCCC398EE338CD
:1004800002F034FEDEA3D3E9002302F053FE02465D
:100490000B464046494602F0E1FF02F039FFF063A7
:1004A00002F024FE8046F86B894602F01FFED6A3B8
:1004B000D3E9002302F03EFE02460B464046494681
:1004C00002F05AFF02F024FFA31FA5FB03E77F08F9
:1004D000F06307EBC707DF1B02F008FE039B8946AA
:1004E000E54980460B440393631FA5FB03025208B2
:1004F00002EBC2029B1A01EB8303D86B01EB8A0A61
:1005000002F0F4FDC2A3D3E9002302F013FE024679
:100510000B464046494602F02FFFD74B03EB8707B7
:1005200002F0F6FE02F0E2FD8046B869894602F06C
:10053000DDFDB9A3D3E9002302F0FCFD02460B4622
:100540004046494602F08AFF02F0E2FEF06302F004
:10055000CDFD8046F86B894602F0C8FDB0A3D3E913
:10056000002302F0E7FD02460B464046494602F0F2
:1005700003FF02F0CDFEA4F10803A5FB03277F08CB
:10058000F06307EBC707DF1B02F0B0FD073CA5FBDC
:1005900004256D0805EBC505641BB74D804605EBCA
:1005A0008404E06B894602F0A1FD9FA3D3E90023F8
:1005B00002F0C0FD02460B464046494602F0DCFE12
:1005C00002F0A6FE02F092FD05EB87070446B8692B
:1005D0000D4602F08BFD96A3D3E9002302F0AAFD9D
:1005E00002460B462046294602F038FF02F090FEF4
:1005F000F06302F07BFD0446F86B0D4602F076FDD9
:100600008DA3D3E9002302F095FD02460B46204658
:10061000294602F0B1FE02F07BFE984C029FDDF805
:1006200000C0A4FB07E37A1E9B08A4FB02E59249E5
:1006300003EB8303F063FB1A039ECAF860C001EB6F
:100640008303C6F80C06186E059BAD084B7405EBCA
:1006500085050E46551B02F049FD79A3D3E9002319
:1006600002F068FD02F054FE02F040FD06EB850545
:100670000646286E0F4602F039FD73A3D3E9002326
:1006800002F058FD02460B463046394602F0E6FEBF
:1006900002F03EFE029BCAF87400023BA4FB032852
:1006A0004FEA980808EB8808A3EB080802F01EFD43
:1006B0000646686F0F4602F019FD65A3D3E90023D3
:1006C00002F038FD02460B463046394602F054FE31
:1006D00002F01EFE02F00AFD674E0F4606EB880888
:1006E0000646D8F8600002F001FD5BA3D3E90023C1
:1006F00002F020FD02460B463046394602F0AEFEBF
:1007000002F006FE029ACAF87400D31EA4FB031579
:10071000AD0805EB85055D1B02F0E8FC0646D8F840
:1007200074000F4602F0E2FC4DA3D3E9002302F06F
:1007300001FD02460B463046394602F01DFE02F02E
:10074000E7FD02F0D3FC4C4E0F4606EB850506464E
:10075000286E02F0CBFC3CA3D3E9002302F0EAFCB4
:1007600002460B463046394602F078FE02F0D0FDD4
:10077000029ACAF87400131FA4FB0324A40804EB14
:1007800084041C1B02F0B2FC0646686F0F4602F0A0
:10079000ADFC35A3D3E9002302F0CCFC02460B46A6
:1007A0003046394602F0E8FD02F0B2FD02F09EFC50
:1007B000314F0D4607EB84060446306E02F096FC7E
:1007C0001FA3D3E9002302F0B5FC02460B462046E6
:1007D000294602F043FE02F09BFDCAF8740002F0C5
:1007E00085FC0446706F0D4602F080FC20A3D3E91F
:1007F000002302F09FFC0B460246294620463FE0BC
:1008000008B34BC110F1763F6911B0C2E38A34409E
:100810003B63702AE7092EC00B44BA01C1966EBF34
:1008200068CB80D315D61D40E8FF76154F8102C0F6
:100830000144BA01C1964E3F477517A3C7C1D63FC1
:10084000FD72BA01C1964E3FF872BA01C1966E3F71
:100850003B1514C393D007C040D64BC110F1763F6F
:100860009BBA8BD1E3600B401CB3B183E493FCBF14
:10087000237517A3C7C1D63FAC080020CDCCCCCC84
:1008800002F07AFD02F044FD039E049BBBF1200FB1
:10089000CAF87400C6F84C07BB7400F09281454852
:1008A00090F8B048002C00F0898090F8B128424BB5
:1008B000511CA3FB01435B0903EB430300EB8202E2
:1008C000A1EB0313169C90F8B2181598DBB2C2F88E
:1008D000B408C2F87449481C149C069300F01F0326
:1008E000C2F8344A0593002900F08A80314B93F80E
:1008F000F42A304906980B7C81F8B1080598202B22
:1009000081F8B20800F06E842A4B93F8143B032B55
:1009100000F07C84022B03D0042B01F027800023FD
:10092000179A13702FB0BDE8F08F22484FF07E5316
:100930000446802259468830A361E36123626362E2
:10094000A362E36223636363A363E3632364636477
:10095000A364E36423656365A365E3652366636657
:10096000A366E36623676367A367E367C4F8803021
:1009700084F810B084F80FB084F813B084F814B081
:1009800084F811B0C4F8843084F812B002F023FE69
:1009900001236373A3731D46CDE90433052384F853
:1009A00008B184F809B184F80AB1DA4609245E4630
:1009B000029380E4AC080020ABAAAAAABC2221467C
:1009C0008F4802F008FEBC2221468E4802F003FE4A
:1009D000BC2221468C4802F0FEFD01238B4A15986B
:1009E0000593C2F8B408169882F8B148C2F87409A1
:1009F000149882F8B248C2F8340A82F8B0380693E4
:100A00000023834C984604F1C002029299469A460C
:100A10009B461A4604F5C071009154F8047F1046B5
:100A20003946049302F0B4FA029B039053F8046F22
:100A300058463146029302F0ABFA009B834653F8C6
:100A4000045F50462946009302F0A2FA39468246D6
:100A5000384602F01FFA0146484602F099FA31463C
:100A60008146304602F016FA0146404602F090FAFE
:100A700029468046284602F00DFA049B0146184696
:100A800002F086FA634A0346A242039AC5D1029055
:100A90006149104602F0FEF95F490446584602F0EB
:100AA000F9F95D490546504602F0F4F95A490646FF
:100AB000484602F0EFF958490746404602F0EAF985
:100AC0000146384602F064FA029B0746524918462E
:100AD00002F0E0F90146384602F05AFA214607468C
:100AE000204602F0D7F90146384602F07FFD29463C
:100AF0000446284602F0CEF90146204602F076FD73
:100B000031460446304602F0C5F90146204602F05F
:100B10006DFD3E4E414996F8F54A05460134E4B272
:100B200002F0A4FD002840F074833D49284602F0FD
:100B30009DFD002840F0E3833A49284602F096FDE7
:100B4000002840F0C0843849284602F08FFD002874
:100B500040F092873549284602F088FD002841F090
:100B6000C1803349284602F081FD002841F0BB8155
:100B70003049284602F07AFD002841F061834FF0A9
:100B80007E51284602F072FD002841F0A8832A49D0
:100B9000284602F06BFD002841F070832846274963
:100BA00002F064FD002841F0BE860A2386F8F54A6B
:100BB00086F80931154A92F8F83A013382F8F83A82
:100BC00032E3FB7B002B3FF46AAE00230E931193BC
:100BD00010930F930C9300930B930A931293029329
:100BE0000993089307930693059304930393144B77
:100BF0006FF003060024DFF84CB0139326E000BF2B
:100C00006411002024120020E4120020AC0800200F
:100C10005C1100201C120020ABAAAA3C9C53493650
:100C200017B7D13852499D3917B7513A6F12833AE5
:100C30000AD7233C9A99993E000040400000C040EA
:100C400000002041B8090020013404365BF82490EC
:100C50000398494602F09CF9A14B039053F8248075
:100C60000498414602F094F99E4B049053F8247086
:100C70000598394602F08CF99B4B059053F82450A7
:100C80000698294602F084F949460690484602F043
:100C900001F90146079802F07BF94146079040466A
:100CA00002F0F8F80146089802F072F93946089007
:100CB000384602F0EFF80146099802F069F9294632
:100CC0000990284602F0E6F80146029802F060F921
:100CD0002946029012984FEA840A02F0CDFC00B92E
:100CE00012952946139802F0CFFC00B913957F4B5B
:100CF0000A985AF8033019460D9302F049F97C4BD3
:100D00000A905AF803A00B98514602F041F90D9B46
:100D10000B901946184602F0BDF80146009802F003
:100D200037F951460090504602F0B4F801460C984D
:100D300002F02EF95FFA84FA0C90002C84D05BF854
:100D40000610484602F052FC20F000410F9802F0D5
:100D50001FF9634B0F909959404602F047FC20F071
:100D60000041109802F014F95E4B109099593846E2
:100D700002F03CFC20F00041119802F009F95A4BB6
:100D800011909959284602F031FC20F000410E984C
:100D900002F0FEF8BAF14F0F0E907FF455AF5549AF
:100DA000039802F077F8534905461890049802F02A
:100DB00071F8504906460D90059802F06BF84D49C0
:100DC00080460590069802F065F884464A4C0690E5
:100DD00094F8083104F188075A1C04EB830102F0EF
:100DE0000702C1F8C880C1F88850C1F8A86084F82B
:100DF00008210DF19808C1F8E8C00DF1A80904F523
:100E0000847A3C687E6821463046C8F80040C9F8BC
:100E1000004002F041FC002800F0E2813546C8F8AD
:100E200000602146304602F021FC10B13446C9F87A
:100E30000060BE682946304602F02EFC10B13546EF
:100E4000C8F800602146304602F010FC10B134466C
:100E5000C9F80060FE682946304602F01DFC10B15A
:100E60003546C8F800602146304602F0FFFB10B15D
:100E70003446C9F800603E692946304602F00CFC51
:100E800010B13546C8F800602146304602F0EEFB4E
:100E900010B13446C9F800607E692946304602F038
:100EA000FBFB10B13546C8F800602146304602F021
:100EB000DDFB10B13446C9F80060BE6929463046F2
:100EC00002F0EAFB10B13546C8F800602146304612
:100ED00002F0CCFB90B13446C9F800600EE000BFD0
:100EE000F80A0020380C0020780D0020B80E0020F1
:100EF000F80F0020CDCC4C3CAC080020FE69294600
:100F0000304602F0C9FB08B1C8F8006021463046FF
:100F100002F0ACFB08B1C9F800602037574508F172
:100F2000040809F104097FF46CAF2A99269802F0AD
:100F30005DFB2B992490279802F058FB2C991C906C
:100F4000289802F053FB00262D99209029980396AB
:100F500002F04CFB0D9F1D90384602F0C7F8824608
:100F60008B46DDF86090CDE91EAB4946484601F05E
:100F700091FFDDF8148004464146404601F08AFFA7
:100F800005460146204602F003F802F0AFF802F0F1
:100F900089FB02460B465046594602F0FDFB02F023
:100FA0001FFD02F0B5F929F00043229040469B4610
:100FB0002593CDF8148002F099F881468A46584668
:100FC000CDE91A9A02F092F853464A4602F0E4FB41
:100FD00002F006FD02F09CF99D492190079801F06E
:100FE00059FF214602F002FB9A4901F053FF98494C
:100FF0001990089801F04EFF3946044638460D977F
:1010000001F048FF0146204602F0F0FA914901F054
:1010100041FF8F490790099801F03CFF294602F0F3
:10102000E5FA8C4901F036FF029D0990884928466F
:1010300001F030FF04460698DFF82CB2014601F0BB
:1010400029FF0146204602F0D1FA824901F022FF31
:1010500029460890009802F017FD7D4923900A98D0
:1010600001F018FF7A4980460B9801F013FF0D9BA1
:10107000794C23F000430A93059B074623F0004375
:101080000496DFF8E8A1DFF8E89104F5A0750B936A
:1010900052E0414654F8040C02F0A8FA6F4902F0FD
:1010A000E5FA002853D0049B0133DBB20493594680
:1010B000304602F0F1FA00285FD0414654F8040CA3
:1010C00002F094FA594602F0D1FA002855D0049B58
:1010D0000133DBB20493394655F8040F02F086FA67
:1010E0005146064602F0D8FA002868D0394655F82D
:1010F000040C02F07BFA514602F0B8FA00285ED0E8
:10110000039B0133DBB203934946304602F0C4FA35
:10111000002843D0394655F8040C02F067FA4946D6
:1011200002F0A4FA002839D0039B0133DBB2039309
:101130004B4BA34200F0EF80414654F8040F02F0FD
:1011400055FA4649064602F0A7FA0028A1D14349BC
:10115000304602F08BFA0028A9D0414654F8040C1E
:1011600002F044FA3D4902F097FA00289BD1594613
:10117000304602F091FA00289FD13046594602F0DD
:1011800075FA0028A7D0414654F8040C02F02EFA54
:10119000594602F081FA00289DD098E7304649462A
:1011A00002F064FA0028C3D0394655F8040C02F066
:1011B0001DFA494602F070FA0028B9D0B4E751464A
:1011C000304602F053FA00289ED0394655F8040CF8
:1011D00002F00CFA514602F05FFA002894D08FE733
:1011E00025461EE61F49CB7B002B3FF48DABCB7C05
:1011F00091F8151B062B00F2BC83DFE813F0F30116
:10120000DC015C010302FB01D1015C010123FFF75A
:1012100087BB0022134991F8F73A81F8F54A013368
:1012200081F8F73A81F809210F2C7FF45FAB002297
:101230000C4991F8F83A81F8F52A032B1AD8094B92
:1012400093F8F73A032B15D80220012216E000BFCD
:10125000CDCC4C3C00401C46B80E0020CDCCCC3E42
:10126000F40F0020AC080020CDCCCCBE295C0F3D93
:10127000295C0FBD00229A4BD3F8FC0A984B984F7B
:10128000D3F8003B022B964B08BF0132D3F8044B36
:10129000934B08BFD2B2D3F8085B022C904B04BF2B
:1012A0000132D2B2D3F80C6B022D8D4B04BF013248
:1012B000D2B2D3F8101B022E04BF0132D2B20229DF
:1012C00004BF0132D2B2032A4FF0000394BF0022C0
:1012D0000122C7F8004B87F8F42AC7F8045BC7F867
:1012E000086BC7F80C1BC7F8100B87F8F73A87F89C
:1012F000F63A87F8F83AC7F8FC3AFFF7FABA01224B
:10130000774991F8F63A81F8F54A134481F8F63AAC
:1013100081F8092188E7129801F0E8FE02F0C2F98D
:10132000044613980D4601F0E1FE02F0BBF90B46AE
:1013300002462946204602F01FF801F0E9FF6949FC
:1013400082460F9801F0A6FD66498346109801F089
:10135000A1FD64498146119801F09CFD61498046D8
:101360000E9801F097FD5E4B07465F49584693F88B
:101370000A4102F089F900284FD15C49089802F02F
:1013800083F9002849D15A49259802F07DF970B1B6
:101390005849384602F078F900283ED1229801F0E9
:1013A000A5FE4DA3D3E9002302F0ECFBA8BB042665
:1013B000514B1F78012F00F06882494FD7F88C38C5
:1013C000D7F89028D7F89408D7F89818D7F89C58E9
:1013D000D7F8A04897F8A4785B0052004000490075
:1013E0004FEA450E4FEA440C3D4C013EC4F88C38A0
:1013F000C4F89028C4F89408C4F89818C4F89CE875
:10140000C4F8A0C8052E00F20A81DFE816F08601B4
:1014100081017C01770171010301039B0D2B7DD9B3
:101420003649089802F030F9002800F03983039B10
:10143000112B00F26984049B082B05D930491D98B3
:1014400002F022F9002879D1022C00F0B9841C9B0B
:10145000249D0493229B0D9C189E0E932949484677
:1014600002F012F9002800F05E842749204602F0BD
:101470000BF9002840F04885059D2449284602F0D4
:1014800003F9002800F02C862398214902F0FCF88B
:10149000002800F013871F49284602F0F5F80028BD
:1014A00001F049821C49079802F0EEF8002814BFA9
:1014B000012606267CE70523094A82F8143B82F8B8
:1014C000153BFFF72CBA0223054A82F8F54A82F849
:1014D0000931FFF76FBB00BF22382EE3A646F4BFE9
:1014E000AC080020CDCC4C3CE2E80E3FABC7064731
:1014F000DE56163FA9BE2E40A8080020DA618E44B1
:101500008A3C893DB037B13CF88C943E408430BF72
:10151000ACC8E839A46D58BF4006DB42049B0A2BD7
:1015200000F2E282C2490A9802F0AEF800288BD19C
:10153000C049484602F0A8F8002885D1BE49029863
:1015400002F0A2F8002800F01583239CBB49204636
:1015500002F09AF8002840F0EC81B949484602F0C0
:1015600093F8002840F0E5812046B64902F08CF857
:10157000A0B1B549069802F087F8002800F0D9819B
:10158000B2490C9802F080F8002800F0C086B049FB
:10159000099802F079F8002840F0CB81032607E78C
:1015A0000823AC4A042982F8143B00F0708282F8C8
:1015B000153BFFF7B4B9012A00F0F583A54B1B7D5D
:1015C0000B2B00F010840C2B40F0A1840223A14AC5
:1015D000042982F8143B00F059869E4A82F8153B94
:1015E000FFF79EB900239B4A82F8143B82F8153B13
:1015F000FFF795B90723974A82F8143B82F8153B09
:10160000FFF78DB90623934A82F8143B82F8153B05
:10161000FFF785B98F4C0CF1010CC4F8A0C89E07E8
:1016200003F0010448BF01345D0740F1D380022C70
:1016300040F0D08001228749BB1E022B81F8A5789B
:1016400081F8A42840F20282052F40F06885814B82
:101650004FEADE05C3F89C587E4B93F8A478BD1E74
:10166000012FEDB200F0258100217A4B022DDF74AD
:1016700083F8A6181B7D00F2A2800A4675480B2B42
:10168000C0F8A828C0F8AC1800F06B810C2B03D16F
:10169000704B0131C3F8AC181923002012F0010F70
:1016A00018BF013003F1FF3318BFC0B213F0FF03BE
:1016B0004FEA5202F2D1122800F2E580192211F00D
:1016C000010F18BF013302F1FF3218BFDBB212F075
:1016D000FF024FEA5101F2D10B2B8CBF0C230A23DE
:1016E000022D00F2C9800C235A4A1375FFF7D7B8B0
:1016F000584C0EF1010EC4F89CE890E7554C0131AE
:10170000C4F898188BE7534C0130C4F8940886E766
:10171000504C0132C4F8902881E74E4C0133C4F894
:101720008C387CE73EA3D3E90023DDE91A0102F0FF
:1017300031FA002840F0CA82012C00F09783022C75
:1017400000F087820B98444901F09EFF002800F0CA
:1017500018834249189801F097FF002800F05F8431
:101760001C9C3F49204601F08FFF002800F00783B2
:101770002DA3D3E90023DDE91A0102F003FA0028C2
:1017800000F0E6852298374901F07EFF002801F03D
:10179000A2800798344901F077FF002800F0EF821B
:1017A0005046324901F070FF002801F06B8020465E
:1017B0002F4901F069FF002814BF0B230C23254893
:1017C0002C49D0F8A828D0F8AC0801EA420201EA76
:1017D000400153E7940702F0010348BF0133560765
:1017E00040F1D280022B40F0CF801A4A82F8A578CF
:1017F00082F8A438174B93F8A53803F0FB02012AAE
:1018000000F06682134A062B92F8A4787FF427AF83
:101810000023104AC2F8A03821E700BFAFF30080D0
:10182000666666666666E6BF333333333333D3BFEB
:101830003CD8763FDD79823DE2FE1C43F73CDF3D3C
:10184000C85CF93D90F9203E9DF4943F603DB04264
:10185000B0948743AC0800205A9E3F3F6F12833AF2
:10186000A8355D3F4D84ED3EDA8F23456C09F93C88
:10187000658D123FFEFFFF3F052F08BF0B23AE4AC9
:101880001375FFF70CB80B232AE74FF00004AA4D9D
:101890004FF0000C85F8A64885F8A57885F8A4785F
:1018A0002546A64CE646614660466246634625707C
:1018B0009AE5A14A92F8A6380133DBB2782B82F878
:1018C000A63800F0178203D978239B4A82F8A638FD
:1018D0000123994A07991446D374199801F058FBCB
:1018E000099901F055FB964994F80A4101F0BEFEB2
:1018F00000283FF417AF0A2361E79249079801F0E7
:10190000C3FEB0B99049504601F0BEFE88B18F4980
:10191000099801F0B9FE002801F058828C49069818
:1019200001F0B2FE002801F03382049B1A2B7FF4F1
:1019300035AE88490D9801F0AFFE18B101237E4AFB
:1019400082F80A3178A3D3E90023DDE91E0102F011
:1019500021F9022600283FF42BAD774B83F80A616A
:1019600026E5754B0132C3F8A82895E60323FEF758
:10197000D7BF714A042982F8143B00F085806E4A73
:1019800082F8153BFEF7C6BF850700F0010348BF8C
:10199000013344076CD4880701F0010348BF0133C9
:1019A0004A075CD40EF001031EF0020F18BF01338A
:1019B0001EF0040F1CBF0133DBB21EF0080F1CBF6A
:1019C0000133DBB21EF0100F1CBF0133DBB21EF07F
:1019D000200F1CBF0133DBB21EF0400F1CBF0133D0
:1019E000DBB21EF0800F1CBF0133DBB21EF4807F20
:1019F0001CBF0133DBB21EF4007F1CBF0133DBB21E
:101A00001EF4806F1CBF0133DBB21EF4006F1CBFDD
:101A10000133DBB21EF4805F1CBF0133DBB21EF466
:101A2000005F1CBF0133DBB21EF4804F1CBF0133CB
:101A3000DBB2082B40F2B88005223F497B1E032B06
:101A400081F8A57881F8A4283FF606AE00233A4A2B
:101A5000C2F89038C2F89438C2F89838FCE5022BE6
:101A6000A0D10423344A82F8A57882F8A438C1E6CC
:101A7000022B90D10323B8E603232F4A82F8F54ABC
:101A800082F80931FFF796B8082B7FF478AF04226B
:101A90002949032381F8142B81F8152BFEF740BF49
:101AA00023A3D3E90023DDE91A0102F06BF8002833
:101AB00000F04A81039B122B3FF640AD2649504669
:101AC00001F0E2FD002800F0C3832449239801F0CF
:101AD000DBFD00287FF4B8AC2149199801F0D4FD52
:101AE00000287FF42BADAFE41E490A9801F0CCFD2D
:101AF00000283FF423AD1C491C9801F0C5FD0028C7
:101B000000F00B8219491D9801F0BEFD002800F07D
:101B1000A9821749484601F0B7FD00287FF40EADB1
:101B200092E400BFAFF30080666666666666E6BF55
:101B30004D309C6B98A1DDBFAC080020A8080020A8
:101B40008FC2753D66DF2343F71ED03F7A7ED043B8
:101B50005A2E993F3333333FE4875A3F50E1883C54
:101B600028A6964451F5473FAE62413FAE62913D93
:101B700046451C3EAC49069801F086FD00283FF41E
:101B80000DAD049B1A2B00F2B681A849099801F00B
:101B90007BFD00283FF4B1AEA549584601F074FD25
:101BA00000287FF4C6AEF9E40CF001031CF0020F2C
:101BB00018BF01331CF0040F1CBF0133DBB21CF053
:101BC000080F1CBF0133DBB21CF0100F1CBF013328
:101BD000DBB21CF0200F1CBF0133DBB21CF0400F46
:101BE0001CBF0133DBB21CF0800F1CBF0133DBB222
:101BF0001CF4807F1CBF0133DBB21CF4007F1CBFD0
:101C00000133DBB21CF4806F1CBF0133DBB21CF468
:101C1000006F1CBF0133DBB21CF4805F1CBF0133BB
:101C2000DBB21CF4005F1CBF0133DBB21CF4804F3D
:101C30001CBF0133DBB2082B7FF611AD06227D49B4
:101C40007B1E032B81F8A57881F8A4287FF6FEAED1
:101C500002E5219801F04AFA69A3D3E90023CDE90E
:101C6000000101F097FF80B1DDE9000166A3D3E92F
:101C7000002301F095FF40B10A9801F037FA64A300
:101C8000D3E9002301F086FF00BB63A3D3E900235F
:101C9000DDE91E0101F07EFF002870D16649189829
:101CA00001F0E4FC20B16549089801F0DFFC68B957
:101CB00063490D9801F0F0FC00283FF443AD614901
:101CC000089801F0D3FC00283FF43CAD0B2376E5E7
:101CD00000225849012BC1F89C2891F8A4783FF4C0
:101CE00097ADBCE40423534A82F8F54A82F80931DF
:101CF000FEF760BF0023C2F89038C2F89438C2F8EB
:101D00009838C2F89C38E3E54F49079801F0BCFCCD
:101D1000002800F07B814D49089801F0B5FC0028AF
:101D20007FF492AB0AE44A49504601F0ADFC00282A
:101D300000F00D8147490E9801F0A6FC002800F044
:101D4000AB814549FFF7AFBB4449099801F09CFCC2
:101D500000287FF4F3AB4249009801F095FC00287D
:101D60003FF4ECAB039B152B3FF6E8AB3D492098C5
:101D700001F08AFC00283FF467ABFFF7DFBB0C23C0
:101D80001DE54846384901F07FFC00289ED124A378
:101D9000D3E90023DDE91E0101F0F4FE002814BFA1
:101DA0000B230C230BE50423224A994282F8143BAF
:101DB00000F091811F4A82F8153B0323FEF7B0BD66
:101DC000249B03F100451C9B03F100430493229BD9
:101DD00003F100430E93189B03F100460D9B03F1A2
:101DE0000044FFF73BBB0323124A042982F8143B4B
:101DF00000F08C850F4A82F8153B0123FEF790BD59
:101E0000A7E8482EFF21E9BF107A36AB3E57F6BF50
:101E1000333333333333C33FCDCCCCCCCCCCE4BF22
:101E20002BA4FCA4DAA7C3BF13D2D43F01E2CC4257
:101E3000683D7C3DAC080020000040BFCDCCCC3ECE
:101E4000CDCC4C3F3333B33E9F5A88431540AD430E
:101E5000A931313EC478DDBE90F64F430A203144AB
:101E6000B2638E40B3ED043E331B043E219801F073
:101E70003DF9B1A3D3E90023CDE9000101F08AFEC9
:101E800090B1DDE90001AEA3D3E9002301F088FEA3
:101E900050B10A9801F02AF9ABA3D3E9002301F06D
:101EA00079FE00287FF412AFB7490D9801F0F4FBDA
:101EB00000287FF464AF4FF07D51189801F0ECFBDF
:101EC00030B1B249089801F0D1FB00287FF4FEAE92
:101ED0009FA3D3E90023DDE91E0101F05BFE00288A
:101EE0007FF4EDAE2EE40523A94A82F8F54A82F884
:101EF0000931FEF75FBEA749484601F0C5FB00283F
:101F00007FF417ADFFF74ABB0126FFF751BA012353
:101F10009F4A82F8143BFFF74ABB9F49404601F0B5
:101F2000B3FB00283FF490AA9C49189801F0ACFB41
:101F300000287FF489AA88A3D3E90023DDE91A01E8
:101F400001F020FE00287FF47FAAFFF7F7BA3046A1
:101F500001F0CCF882A3D3E9002301F013FE00289E
:101F600000F04C818E49204601F08EFB002800F0E5
:101F700026828C49484601F087FB002800F09F86A6
:101F80008949099801F080FB0028BDD0874948465F
:101F900001F07AFB002800F074868549404601F084
:101FA00073FB0028B0D18349029801F06DFB002833
:101FB00000F01587219801F099F86BA3D3E900236D
:101FC00004460D4601F0DEFD002840F057867A49B0
:101FD000069801F059FB002896D165A3D3E90023A8
:101FE0002046294601F0CEFD00288DD07349079880
:101FF00001F04AFB002887D13846714901F044FBC3
:10200000002814BF01260626FFF7D2B96D491D9896
:1020100001F03AFB00287FF491AAFFF715BA1C9C47
:102020006949204601F030FB00283FF4A8AE52A3D6
:10203000D3E90023DDE91E0101F0A4FD002800F032
:1020400033812098614901F01FFB00287FF497AE8F
:1020500020465F4901F018FB002814BF0C230B2316
:10206000FFF7ADBB5B49079801F00EFB00287FF43A
:10207000EBA943A3D3E90023DDE91A0101F082FDB6
:1020800000287FF4E1A954491C9801F0FDFA0028CA
:102090007FF454AAFFF7D8B95049199801F0F4FA1F
:1020A000002800F0AE8125984D4901F0EDFA002896
:1020B00000F0E1814B49069801F0E6FA002800F0B3
:1020C000DD852046484901F0DFFA002814BF0126CB
:1020D0000526FFF76DB982F8151B0323FEF720BC18
:1020E0004249484601F0D0FA00287FF40DAF40493C
:1020F000099801F0C9FA002800F020813D495046B6
:1021000001F0C2FA00287FF4FFAE3B49404601F0DF
:10211000BBFA002814BF05260126FFF749B9062F90
:102120007FF49AAA1A4B4FEADC04C3F8A048FFF7E1
:1021300093BA00BFAFF30080A7E8482EFF21E9BFA4
:102140006FF085C954C1F0BF333333333333C33FEA
:102150009A9999999999E9BF287E8CB96B09EEBF34
:10216000132A38BC202295BFA0FF1EBC7669E3BFAE
:10217000A2D0B2EE1F0BCBBFC364AA605452EDBF16
:10218000F697DD938705E1BF6666263FCDCCCC3E52
:10219000AC0800209566F33DFC71CB3E325564BF20
:1021A0003528C23E715A203E392D1C423D9E163DB7
:1021B000FB94233DA5269842C0EA703F8B073B4124
:1021C00076C6973D5E63173D56B79A3F1B64723ED5
:1021D000ACA8813DBBE97345F2953C3F31FABE4165
:1021E000CAC3663F44C0693FC2DF6F3D17BA923C25
:1021F0000220B7406EDF833D4DA2DE3CAE4948462B
:1022000001F042FA002800F022810098AB4901F069
:102210003BFA002800F0CB839FA3D3E90023DDE93C
:102220001A0101F0AFFC002840F028853046A4498F
:1022300001F02AFA002814BF01260626FFF7B8B8D5
:102240000623A04A82F8F54A82F80931FEF7B2BCAB
:102250009D49079801F018FA002848D09B4950463C
:1022600001F012FA00283FF4EFA89949089801F00C
:102270000BFA00287FF4E8A8FFF760B90823914A19
:1022800082F8F54A82F80931FEF794BC8D4A92F83B
:102290000921052A3FF6A1A98A4B83F8141B83F86C
:1022A000151B0323FEF73CBB05988A4901F0ECF9A6
:1022B000002814BF0B230C23FFF781BA2046864960
:1022C00001F0E2F9002800F0D98484490C9801F06B
:1022D000DBF9002814BF01260626FFF769B807239B
:1022E000784A82F8F54A82F80931FEF763BC7C49E6
:1022F000239801F0C9F900287FF4A6A87949384647
:1023000001F0C2F900287FF419A9FFF79DB87649BA
:10231000089801F0B9F9002800F01D837349199855
:1023200001F0B2F900283FF439A97149099801F088
:10233000ABF900287FF432A9FFF7FBBA6D49089882
:1023400001F0A2F9002814BF06260126FFF730B8D5
:1023500069491D9801F098F900283FF410AD6749CC
:10236000404601F091F900283FF409AD6449069810
:1023700001F08AF9002800F03E811998614901F0C6
:1023800083F900287FF4FBAC07985F4901F07CF9E2
:10239000002800F0F2800D985C4901F075F90028E2
:1023A0003FF4EDAC3EA3D3E90023DDE91E0101F0CB
:1023B000E9FB002814BF0C230B23FFF700BA3AA354
:1023C000D3E90023DDE91A0101F0DCFB00283FF42A
:1023D0009BAD4F49504601F057F9002800F00181AC
:1023E0004C49029801F050F9002800F0D48004987C
:1023F000494901F049F9002814BF01260526FEF7D6
:10240000D7BF4649484601F03FF9002800F0FF8356
:102410004349069801F038F900287FF475AD414929
:102420000C9801F031F9002840F06D830E983E4978
:1024300001F02AF9002800F0F1823C490A9801F0E5
:1024400023F9002814BF01260526FEF7B1BF219805
:1024500000F04CFE16A3D3E9002301F093FB002803
:102460006CD03349584601F00FF9002814BF0626F6
:102470000126FEF79DBF30462E4901F005F90028E0
:1024800000F041832C49504601F0FEF8002814BFAB
:1024900005260126FEF78CBFD8D5E429ABE9D8BFC5
:1024A000DCBA9BA73AE4BEBFD0D38041D227E5BFB8
:1024B0004700378B178BE1BF7EAA3A3E2A8E033D39
:1024C000D767F63EAC080020121B65434F3E973F8E
:1024D00078C0B54460E5003F4F581E3F614C9B42B9
:1024E000E1B3F53D45BD843F520D6645BF68964258
:1024F0002A82A5426C976F41355E7A3F9291F33DF7
:10250000D0B8703FEF721B4166BDCC40FCC65F3F48
:102510005BEF033F2AD19142632B703F49A0013DFD
:102520005B236E3F22F695427992F43C48E17A3E75
:102530007349B53E9B73703BAA82D13DA2A3D3E9F8
:102540000023DDE91A0101F01DFB002800F088805E
:102550000E9800F0CBFD9EA3D3E9002301F012FBFF
:10256000002800F08B832846A94901F08DF8002847
:1025700014BF05260126FEF71BBF189800F0B6FD14
:1025800095A3D3E9002301F0FDFA002814BF0B2323
:102590000C23FFF714B928469E4901F075F800286E
:1025A00040F0B1829C49209801F06EF8002800F0BC
:1025B000AA829A49504601F067F8002840F05E83ED
:1025C0000498974901F060F8002840F09C820E982A
:1025D000944901F059F8002814BF06260126FEF799
:1025E000E7BE0498904901F04FF8002814BF052673
:1025F0000126FEF7DDBE0D988C4901F045F8002854
:1026000077D08B49029801F03FF8002851D02298EA
:10261000884901F039F800283FF458AB70A3D3E99A
:102620000023DDE91E0101F0ADFA002837D06EA3CA
:10263000D3E90023DDE91A0101F0A4FA00287FF4B0
:102640009EAB21987C4901F01FF898B150467B4918
:1026500001F01AF8002814BF0B230C23FFF7AFB8C2
:102660000098774901F010F8002814BF01260F26C2
:10267000FEF79EBE189800F039FD5DA3D3E9002354
:1026800001F080FA00283FF47AAB1C986D4900F005
:10269000FBFF002814BF0B230C23FFF790B8504614
:1026A000694900F0F1FF002814BF0C230B23FFF74A
:1026B00086B8DDE91A0150A3D3E9002301F062FADC
:1026C00030B30798614900F0DFFF00287FF4FEAACD
:1026D00058465F4900F0D8FF00283FF450AB404611
:1026E0005C4900F0D1FF002814BF0C230B23FFF737
:1026F00066B84846584900F0C7FF50B30C98574990
:1027000000F0C2FF002814BF0C230B23FFF757B8BB
:1027100053491C9800F0B8FF60B3219800F0E6FC24
:1027200037A3D3E9002301F02DFA00283FF427ABAB
:1027300009984C4900F0A8FF00283FF420AB1D98F1
:10274000494900F0A1FF002814BF0B230C23FFF719
:1027500036B80598454900F097FF00287FF40FAB85
:102760005046434900F090FF002814BF0C230B2370
:10277000FFF725B8DDE91E0123A3D3E9002301F00B
:1027800001FA00287FF4FBAA07983A4900F07CFF81
:10279000002800F0F3821D98374900F075FF0028EB
:1027A00000F0CD820298354900F06EFF00283FF41A
:1027B0008DAA2498324900F067FF002814BF0C232B
:1027C0000B23FEF7FCBF00BF8DEDB5A0F7C6E3BF3E
:1027D00045BC75FEEDB2D5BF7B6B60AB048BEDBF26
:1027E000EC4CA1F31ABBD2BF11DF89592F86C6BFAB
:1027F0008195438B6CE7E7BF2A91442FA358CABF4A
:10280000EF552B137E29F8BF8D5DA27A6B60E6BF72
:1028100077BEAF3E423E883E9D112D3F5D875A3EBA
:1028200072F9CF3D8BA6DB3E27C2863D4EB4CB3E30
:102830000E67954275CDA43D280F973F7715823ED0
:10284000210A4F410938043EA549893E5396654106
:10285000807D743D25E99A3C1288D73CB3AF924203
:10286000C2A38D3D8E985E4217D4373CAB09E23D42
:10287000B988EF3EE71C6D44C0B2523CB9479F4255
:10288000C251B23E4046B04900F0FEFE002833D0AF
:102890000298AE4900F0F8FE00283FF417AA0A9803
:1028A000AB4900F0F1FE00287FF410AA4846A94980
:1028B00000F0EAFE00283FF409AA189800F016FC80
:1028C0009BA3D3E9002301F05DF9002814BF0C237A
:1028D0000B23FEF774BF06989F4900F0D5FE002831
:1028E0007FF44DAA08989D4900F0CEFE002814BF41
:1028F0000B230C23FEF763BF1998994900F0C4FE1F
:10290000002814BF0C230B23FEF759BF954A92F8F9
:102910000921052A3FF66EAA924A82F8141B82F812
:10292000151BFDF7FDBF09238E4A82F8F54A82F890
:102930000931FEF73FB9069D8B49284600F0A4FEF9
:10294000B0B18A49284600F09FFE002814BF012636
:102950000526FEF72DBD049B232B3EF61FAE8449B2
:10296000199800F091FE00287EF4E3AFFEF716BE42
:102970008049209800F088FE002800F02D81304624
:102980007D4900F081FE002800F0C0807B49099855
:1029900000F07AFE002840F0718179491D9800F01E
:1029A00073FE002814BF05260626FEF701BD7549F3
:1029B0000A9800F069FE00286BD0204600F096FBD4
:1029C0005DA3D3E9002301F0DDF800284BD0199C6A
:1029D0006D49204600F058FE002840F04F816B49B9
:1029E000504600F051FE002840F08D806849204696
:1029F00000F04AFE00283FF487AA6649484600F0E6
:102A000043FE00287FF480AA3046634900F03CFE74
:102A1000002814BF01260626FEF7CABC28465F49D7
:102A200000F032FE00283FF46FAA5D49079800F0DD
:102A30002BFE00287FF468AA5A49404600F024FE85
:102A400000287FF461AA58491D9800F01DFE002857
:102A500030D05649404600F017FE002814BF052626
:102A60000626FEF7A5BC5249284600F00DFE0028B8
:102A700031D05049484600F007FE002843D1304687
:102A80004D4900F001FE002814BF05260626FEF77A
:102A90008FBC2BA3D3E90023DDE91A0101F072F802
:102AA00000283FF431AA039B062B8CBF0126052684
:102AB000FEF77EBC4149504600F0E6FD002840F09C
:102AC000DD803F49199800F0DFFD002814BF05267E
:102AD0000626FEF76DBC28463A4900F0D5FD0028D1
:102AE0003FF412AA3849199800F0CEFD002800F0F2
:102AF0009F803649069800F0C7FD002814BF0126C4
:102B00000626FEF755BC0626FEF752BC304958464D
:102B100000F0BAFD002870D020462E4900F0B4FD28
:102B2000002814BF05260126FEF742BCAFF3008043
:102B3000BC7493180456CEBF77BE9F1A2FDDC6BF54
:102B4000B6847CD0B359E4BF0CEA3B3EADB78E42AD
:102B50005B25183E0F281B3D179A733F0EC9C043D3
:102B60001BA92E45AC080020DB69733FE9ED6F3FE0
:102B7000C5FEA544705C063ED55C8E3D6F2A8D4136
:102B8000880FEC3BD3BC2B3F685CCD41B936843E0B
:102B900029DB9E4495D4893D23DB293ED8F3B53EFD
:102BA000AA8C07416A34393CEC69073CF6ED243DB8
:102BB0009B742B3EA2F0193E494CB03E58C8DC3DF8
:102BC00027C3C541895C643F6432F7425454713F66
:102BD000D9B1913CCD1E083F069C8F49204600F09C
:102BE00053FD00284AD08D49204600F04DFD0028B5
:102BF00014BF05260126FEF7DBBB89491D9800F0AE
:102C000043FD002814BF01260526FEF7D1BB8549E8
:102C1000059800F039FD00283FF476A9824909980B
:102C200000F032FD002814BF05260626FEF7C0BBC3
:102C30007E49059800F028FD00283FF465A97C49ED
:102C4000199800F021FD00283FF45EA97949069803
:102C500000F01AFD00287FF457A97749484600F094
:102C600013FD002800F0C5807449504600F00CFDAB
:102C7000002814BF06260126FEF79ABB0526FEF79C
:102C800097BB204600F032FA5FA3D3E9002300F09F
:102C900079FF00287FF438A9219800F027FA5CA377
:102CA000D3E9002300F06EFF20B36549199800F0C6
:102CB000EBFC002814BF05260126FEF779BB61490D
:102CC000209800F0E1FC48B320465F4900F0DCFCAE
:102CD00000283FF419A95D49284600F0D5FC98B1B9
:102CE00023985B4900F0D0FC002814BF012605267C
:102CF000FEF75EBB2046574900F0C6FC002814BF13
:102D000001260626FEF754BB2846534900F0BCFCBA
:102D1000002814BF01260526FEF74ABB4F490B9831
:102D200000F0B2FC00287FF4EFA84D49079800F0AE
:102D3000ABFC002814BF01260526FEF739BB099815
:102D4000484900F0A1FC00287EF4C0AF069846492F
:102D500000F09AFC00283EF4B9AF2098434900F0F7
:102D600093FC00283EF4B2AF2498414900F08CFC5B
:102D7000002814BF0B230C23FEF721BD1C983D49EE
:102D800000F082FC002814BF0B230C23FEF717BDB4
:102D90003949199800F078FC00287EF4CAAD37490B
:102DA000404600F071FC00283EF4C3AD344958465B
:102DB00000F06AFC00283EF4F1AB3249484600F0CE
:102DC00063FC00287EF4B5ADFEF7E8BB2E490698FB
:102DD00000F05AFC00287EF4ACADFEF7DFBB2B49B7
:102DE000209800F051FC002814BF05260126FEF7AC
:102DF000DFBA0498264900F047FC002814BF0626D5
:102E00000126FEF7D5BA00BF2B33A5F5B704D4BF12
:102E1000396403E962D3BEBFD333793F4F59753F5D
:102E2000F6CFD33AE71D733FD09051427B30893DB6
:102E3000FC020A452CF36E3F41F1233DE3A4803EA2
:102E40000A9F65425C20413E43E3A13E1058893E03
:102E50001250613B234A9B3D3D2C043FB98D5A3FA4
:102E6000871E8B44E859C743BDE3843FA9BC993F03
:102E70006F12833D91ED7C3EE7182544F2B2E63DAA
:102E8000C43F0C3E5BB6363E13B6AF3F4701223C13
:102E90006DC5363FFF2212EAD05C1DBF12EAD15346
:102EA000944593422BE09C44D30780EA01021A40E8
:102EB00043EA002043EA0121A1FB0030C04238BFB1
:102EC00040007CF17F010BDBFE294ADA5B0842EA15
:102ED000C15153EA006373F1004C51EB102070476D
:102EE000D1F1080CDCF120012FDB5B0810FA01F1B5
:102EF0000B4320FA0CF073F10041504170479445A8
:102F00001CBF02EAD153934280EA010202F0004260
:102F10001DD0400019D0490017D05BB9634514D0CB
:102F20000902B1FA81F39940BCEB030CC00140F0F7
:102F30000040C1E70002B0FA80FC10FA0CF0B3EBDD
:102F40000C0CC90141F00041B6E710007047400089
:102F50000AD0490008D010F1807F94BF11F1807F22
:102F600002E042F0FF407047D0437047C217504024
:102F7000801AB0FA80F10AD08840D1F19D01D207C1
:102F800042EAC151020672F1004241EB1020704743
:102F900090EA010F40F1308381F00041431A4FF075
:102FA00000423EBF5340C01AC91800BFD3095FEAB0
:102FB000D05C13EB400F34BFB3EB410F40E07CEB30
:102FC000D1530CD342EA012122D8D1EB402009D3BE
:102FD000400A28BF5FEA500140EBCC507047401ACE
:102FE00015D04002B0FA80F2521C9040400A4FEADD
:102FF0003C23B3EB026384BF00EB730007E040F4B3
:1030000000001A16DB07C2F10102D04018437047D6
:10301000182BFCDC31FA03F202FA03F3591A38BF19
:1030200042F00102D2EB40203CBF4000ACF1010C69
:103030005FEACC5CC20572F100414CEB5020704756
:1030400013EB400F0FD2C94209D0ACEBD153022B86
:1030500003DB4902172BDDDD70479143401AC04264
:10306000D5D10020704713EB410FD0D36FF0000093
:103070007047F0B40246106895681318506803EB67
:103080005004C0071DD54D441BE013F8017B05F823
:10309000017B491EF9D1A0B1B60813F8011B06F057
:1030A0000306032E08BF13F8016B01EB062149420A
:1030B000801C294405D011F8016B05F8016B401EF6
:1030C000F9D1A3420ED013F8016B16F0030104BF2F
:1030D00013F8011BC91C30090F28DAD113F8010BB2
:1030E0000F30D6E7F0BC02F10C007047C0F3C751B7
:1030F00081B1FF2906D0C110400721F0E04101F164
:103100006051704741020CBF40F4E0016FF0004194
:103110000020704700F0004100020AD0B0FA80FCA5
:1031200000FA0CF001F16051A1EB0C5101EBD02140
:1031300040057047B0B581EA030C0CF0004C40F23A
:10314000FF7515EA11541DBF15EA1357AC42AF4283
:1031500039E0E41923EA455343F48013C90241F0EE
:10316000004141EA505EC7021100A7FB020200289D
:103170004FF00000EEFB01204FF00001E3FB0721C0
:1031800018BF42F00102401800214941E3FB0E0143
:10319000A4F580640F0302D252004041494154F12A
:1031A00001046CDD470872F1004250F1000051EB60
:1031B0000451A1F580115CBF41EA0C01B0BD4CEA9D
:1031C00005510020B0BD05EA1357AC4214BFAF4211
:1031D00041E050EA410E1CBF52EA430E02E0614654
:1031E0000020B0BD24423C441BD15FEA070EF6D05C
:1031F000090302BF01460020AEF1140EB1FA81F7B7
:10320000AEEB070401FA07FE0C37C7F1200100FA04
:1032100007F7C8404EEA000E23EA455343F48013F3
:10322000A2E733F00043B3FA83F704BFB2FA82FE99
:1032300077440B3FE41BB7F1200E2FBF02FA0EF3C9
:10324000BB40C7F1200E22FA0EFE38BF43EA0E0340
:10325000BA40641C82E750EA410E14BF52EA430EA2
:103260006FF000014FF4001717EB430F8ABF1946A8
:1032700017EB410FB5E74CEA05510020B0BDD4F182
:103280000104B4F120070FDAC4F12007520828BF67
:1032900042F0010210FA07F501FA07F7E1BF2A43ED
:1032A000E0403843E1400FE0352C98DCC7F12004C2
:1032B00052EA400220FA07F218BF42F0010231FA46
:1032C00007F0A1400A43002172F1004250F10000D2
:1032D00051EB0C01B0BD30B4002513E050F8042BC5
:1032E000D30744BFA9F101039A18091F042942F822
:1032F000045BFAD213468C0744BF15809B1CC90798
:1033000048BF1D7050F8041B0029E7D130BC70473E
:1033100001F000428B1AA3F16051B1F5801F0ADB66
:10332000B1F17F6F1FD242EAC102C10071F10041C9
:1033300042EB507070470B15C3F10903212B10D2DB
:10334000890241EA905180020128494141F000413F
:1033500021FA03F0C3F12003994071F1004150417B
:103360007047100070476FF0000013EB103F5CBF18
:10337000000E42EAC050704770B44FF0004591EA29
:10338000030F40F173806B40841A71EB030603D284
:10339000001BB141121973414FF4001C1CEB410F8B
:1033A00034BF7CEB430442E00C0DA4EB1356352EE6
:1033B0004FDC45EAC323DB0A45EAC121C912B6F155
:1033C00020050DDD63FA05F6EB4086EA030512429F
:1033D00018BF45F00105C01851F100010CD213E0EF
:1033E00062FA06F5F2405540F3415A40B340F340CB
:1033F0005A408018594107D349085FEA30005FEA14
:10340000350528BF45F0010501F58011420875F129
:10341000004250F1000041EB04514E0016F5001F30
:1034200070BC38BF70470020090D090570471CEBC0
:10343000410F10D252EA43060BD0BCEB410F05D826
:103440000C0DAB43661E342EB6DD02E0AB43801894
:10345000594170BC704770BC7047000070B44FF0A9
:10346000004591EA030F7FF58FAF6B40841A71EB33
:10347000030604D26E40001BB141121973414FF490
:10348000001C1CEB410F34BF7CEB430683E00C0DAA
:10349000A4EB1356362E00F37C80012E45EAC3239D
:1034A00041DC43EA525312BFD20292025B08240568
:1034B00045EAC12141EA5051D2EBC020994125D4BF
:1034C00007D1B0FA80F610FA06F162D0002020365B
:1034D00008E0B1FA81F6B140C6F1200220FA02F20A
:1034E0001143B0404FEAF474B4EB465434F0010693
:1034F0004FEA74040AD8D6F50016760D04F000449D
:10350000F04061FA06F25040F1404840C00A40EAFB
:10351000415021F0004128BF5FEA500550F1000002
:1035200044EBD12135E0DB0A45EAC121C90AB6F1F5
:1035300020050EDD42EA0242120CC5F1200603FA14
:1035400006F6EB4042EA06056D42984161F1000142
:103550000DE062FA06F5F240554063FA06FC82EA95
:103560000C02F3405A406D42904161EB030111F4AB
:10357000801F05D1641E620502D06D0040414941A3
:1035800021F48011430875F1004350F1000041EB34
:10359000045170BC70471CEB410F15D223F000435F
:1035A00052EA43060BD04FEA4C0CBCEB410F04D857
:1035B0000C0D661E342EB7DDEBE7801A994150EAF8
:1035C000410608BF0021E4E708BF1CEB430F28BFFA
:1035D0006FF00001DDE710B5044610460A460146CB
:1035E000204600F0E3FA204610BD000090EA010FEB
:1035F0007FF5D4AC81F00041421A3CBF801A891893
:103600004FF0004CC0F3C752FF2A24D0C1F3C75378
:1036100013B3D21AD2F1190327DD4CEA01214CFA77
:1036200003F321EA0303D140C20D4CEA0020401805
:1036300034BF20EA0C004CEA5000D20553EA006384
:1036400073EB0C0C52EB1020420012F1807F38BF5C
:103650007047C00DC0057047490212BF9A4200EB87
:103660005120F8E7D2F11703D9D57047724600F020
:10367000D1FA804140421047724600F0DDFA8CBF1B
:103680000020012010470000724600F0C3FA8CBFF2
:103690000020012010470000724600F0CDFA804162
:1036A0004042104740F2FF7C0B0D4DD0634566D27F
:1036B00030B421EA035141F4801103F2FD3C5FEA8A
:1036C0005C0C01D300184941890041EA90718000E7
:1036D0004FF440140023E202D50AB1F5100107D4DB
:1036E0006D081DD2091B641900184941491BF7D503
:1036F0006D080AD20919641B00184941491BEFD50E
:103700006D08F7D301E0520817D0C01861419B1A29
:10371000AC4100184941801AA941F4D452080AD09A
:10372000C01AA1419B186C4100184941801AA94157
:10373000E9D45208F4D15B1C6C4161084FEA3300B4
:1037400001EB0C5130BC704750EA0103FBD030B4A0
:10375000B1FA81F311B9B0FA80F41B190B3BB3F144
:1037600020042FBF00FA04F19940C3F1200420FA8D
:1037700004F438BF21439840D3F101039DE763452A
:1037800014BF50EA410CDEE711F5801FDBD8D943A6
:10379000AFF3008070470000F0B540F2FF7581EA9A
:1037A000030C0CF0004C15EA11541DBF15EA135719
:1037B000AC42AF42E5E0BC41C1F31301C3F31303D4
:1037C000801A994143F4801304D2641E4000494199
:1037D00080185941C90241EA5051B1FBF3F603FB8D
:1037E0001611A2FB0675D7EBC020A94102D2761EA6
:1037F00080185941C90241EA5051B1FBF3FE03FB65
:103800001E11A2FB0E75D7EBC020A94103D2AEF169
:10381000010E80185941890241EA9051760546EA25
:103820008E2EB1FBF3F603FB1611A2FB0675D7EB48
:103830008020A94102D2761E80185941C90241EA6E
:1038400050514EEA060EB1FBF3F603FB1611A2FB34
:103850000675D7EBC020A94102D2761E80185941C7
:10386000C90241EA5051B1FBF3F703FB1711A2FB68
:103870000735D3EBC020A94167F100070CBF004218
:1038800047F0010766F3D5274FEA1E31B80814F553
:10389000806412DDBD0775F1004250EB0E5051EB14
:1038A000045111F5801F5CBF41EA0C01F0BD4CF0E2
:1038B0007F6141F0E0410020F0BDBD076D0840EAA6
:1038C0000E5041F48011D4F10104B4F120060ADA5B
:1038D000C4F120060200E04001FA06F3E14018437B
:1038E000B24015430EE0342C13DCC6F1200445EA47
:1038F00040056D0820FA06F2154321FA06F0A140B2
:103900000D43002175F1004250F1000051EB0C0114
:10391000F0BD00205FEA0C01F0BDCFB992185B4109
:10392000B3FA83F704BFB2FA82F6BF190B3FB7F1BF
:1039300020062FBF02FA06F3BB40C7F1200622FA89
:1039400006F638BF3343BA401CB1E419641E33E7AE
:103950007F4231F00041B1FA81F404BFB0FA80F641
:10396000A4190B3CB4F120062FBF00FA06F1A140C8
:10397000C4F1200620FA06F638BF3143A0403C1BB4
:103980001AE7AC421ABF05EA1357AF4212E050EAF9
:1039900041061CBF52EA4306BFE750EA41073046E2
:1039A00061461CBF41EA0551F0BD52EA430C08BF15
:1039B000C143F0BD00204FF4001616EB410F98BF35
:1039C00016EB430F08BF16EB410F24BFC14305E0C0
:1039D00016EB430F0CBF61464CEA0551F0BD0000E9
:1039E0002DE9784804460D4668004015401C10D16A
:1039F00048004015401C05D1090303D02046294644
:103A0000BDE874881D491E4805F000431943BDE810
:103A1000748824F0000235F0004304BF002A00201F
:103A200029D0C80F1ABF25F000450826002600201F
:103A3000144904D54FF00043001A63EB01012B0039
:103A400004D54FF0004B821A6BEB030399420BDC59
:103A500001DB904208D20B4922462B46FFF79CFE21
:103A600004460D4686F00206324620462946BDE849
:103A7000784800F0F3B8BDE8748800BFFB21F93F37
:103A8000182D44540000F03F10B5FF2313EAD05422
:103A90001DBF13EAD1529C429A4239E0A41ADA07B8
:103AA00080EA0103134042EA012142EA0020421A5F
:103AB0003CBF641E01EB4202090AB2FBF1FE01FBAE
:103AC0001E221202B2FBF1F001FB10226EF30F2056
:103AD0001202B2FBF1FE4EEA00207F3406DDFE2C1E
:103AE00024DA53EA500050EBC45010BDD4F1020464
:103AF00001FB1E2240F08071192C1DDC21FA04F01C
:103B0000C4F12004A140114371F10042584110BD9D
:103B10009C421ABF03EAD1529A420FE080EA010E9A
:103B20000EF00043400004D0490016D143F0FF409E
:103B300010BD490008BFD343180010BD9C4205D1F9
:103B4000D21AF7D001F00041484010BD4A0212BF1E
:103B50000846484000F0004010BD4AB90902B1FAD9
:103B600081F2914044B1A418C00140F000409EE7AA
:103B7000C90141F0004152420002B0FA80F4A04075
:103B8000141B94E700B500F071F98CBF00200120F0
:103B900000BD000000B500F069F98041404200BD61
:103BA00000B500F07BF98041404200BD62F30F2276
:103BB00062F31F42401810F0030308D0C91A1FD344
:103BC000DB0748BF00F8012D28BF20F8022D1300A5
:103BD00030B414461546103928BF20E93C00FAD805
:103BE000490728BF20E90C0048BF40F8042D890090
:103BF00028BF20F8022D48BF00F8012D30BC7047C7
:103C0000C91818BF00F8012DCB0728BF00F8012DF7
:103C1000704700004FF0807C1CEB400F94BF1CEB02
:103C2000410F05E040EA010C1CEB0C0F01D2884269
:103C3000704718BF814270474FF0807C1CEB400FEB
:103C400094BF1CEB410F05E040EA010C1CEB0C0F8C
:103C500001D28142704718BF884270472DE9F04D6C
:103C60005FEA0108044605D500264FF00047301AE8
:103C700067EB01010026664F04D54FF00043B61BE9
:103C800063EB0707B94208BFB042154603D1614C48
:103C9000DFF884819FE061496148002904D54FF035
:103CA0000043301A63EB01015FEA0803224604D5A2
:103CB0004FF00047B21A67EB0303994220DC01DBA7
:103CC00090421DD2574E584F32463B462046414601
:103CD000FFF730FA0022554BFFF7C0FB82468B46B8
:103CE00032463B4620464146FFF7B8FB02460B46AC
:103CF00050465946FFF750FD0446884645F00105F9
:103D000000225FF0795328F00041204608D54FF09B
:103D10000047921A77EB030302D5101A67EB0101F3
:103D20008B4258DC01DB824255D222464346204674
:103D30004146FFF7FFF906460F4632463B4620460E
:103D40004146FFF7F7F982468B46394839493246F2
:103D50003B46FFF7EFF9384A384BFFF77FFB324617
:103D60003B46FFF7E7F9364A364BFFF777FB5246FB
:103D70005B46FFF7DFF922464346FFF76FFB044639
:103D800088463148314932463B46FFF7D3F9304A3D
:103D9000304BFFF763FB32463B46FFF7CBF92E4A29
:103DA0002E4BFFF75BFB32463B46FFF7C3F92C4A2D
:103DB0002C4BFFF753FB32463B46FFF7BBF9002283
:103DC000134BFFF74BFB02460B4620464146FFF7DD
:103DD000E3FC04468846A80748BF88F0004815F071
:103DE00007000CD0204979447E3101EBC0024346E4
:103DF000D2E900012246FFF731FB04468846280736
:103E000047BF88F00041204620464146BDE8F08D7E
:103E10000000F03F182D4454FB21E93F1426D13F08
:103E200056CD9E5EAA4C58E87AB6FB3F0000F0BF24
:103E3000845D57134B57B03FB2934C19ED5EE43F8E
:103E4000BEDE02B90240F83FDE39028FC7C0743FC0
:103E50008AAB1283000CC83F24D7E508B6D8F03FE0
:103E60000F34580E5895FD3F087000004FF4001CA9
:103E70001CEB410F94BF1CEB430F09E041EA030C1C
:103E800050EA4C0C52EA0C0C03D2994208BF904203
:103E9000704714BF8B428242704700004FF4001CF1
:103EA0001CEB410F94BF1CEB430F09E041EA030CEC
:103EB00050EA4C0C52EA0C0C03D28B4208BF8242EF
:103EC000704714BF9942904270470000F0B504005B
:103ED00081B01CD094F83D0028B9002184F83C1032
:103EE000204600F083FD242184F83D1020680268FC
:103EF00052085200026001F0DEF801466068DFF807
:103F00003821904206D2DFF83431994206D201209E
:103F100001B0F0BDDFF828018142F8D32068DFF856
:103F200024314568B1FBF3F3AD0943EA85154560DB
:103F300025682E6A6068904206D34FF4967043431A
:103F40004FF47A77B3FBF7F35B1CB60943EA8613A9
:103F50002B62491E2368DD696668964209D27600A5
:103F6000B1FBF6F1491CC1F30B01042919D204215C
:103F700017E0A06838B906EB4606B1FBF6F1491C1C
:103F8000C1F30B0108E019204643B1FBF6F1491CCF
:103F9000C1F30B0141F4804108050CBF012141F43C
:103FA0000041DFF8A40005400D43DD61226813687D
:103FB000E169206A23F0C0030B43034313602268C6
:103FC000DFF88800936821690340E0680B430343EE
:103FD00093602168CA68A3696069120A034343EACF
:103FE0000222CA602068016841F0010101600020DE
:103FF0002064202184F83D10206384F83E0001B045
:10400000F0BD10B5040001D1012010BD242084F8BA
:104010003D0020680168490849000160204600F021
:104020000BFD0020206484F83D00206384F83E00EE
:1040300084F83C0010BD0000A186010080841E00B1
:1040400000093D0040420F000030FFFF007CFFFFF1
:104050002DE9F04383B006460F469046994601F09D
:1040600095F8054696F83D00202815D130688169FD
:104070008A0766D501F08AF8401B1A28F6D300207B
:104080003063202186F83D1086F83E00316C41F007
:104090002001316486F83C00022003B0BDE8F083C3
:1040A000716A0A780261706A411C7162308D411E2A
:1040B0003185708D411E7185308D002800F089801A
:1040C000306841690A066FD441694A0510D56FF41A
:1040D0008061416100203063202186F83D1086F820
:1040E0003E00316C41F00401316486F83C0077E019
:1040F00014F1010FE4D001F049F8401B844201D3D0
:10410000002CDDD100203063202186F83D1086F898
:104110003E00316C41F02001316486F83C005FE0E4
:104120003068016841F400710160202086F83D008C
:10413000002186F83E10002086F83C0003B0BDE860
:10414000F08396F83C100129A6D0012286F83C2085
:104150000168CA0703D4016841F0010101603946D2
:1041600037680C9C0B98DDF828C0D7F800E02EF4D7
:10417000006EC7F800E0212786F83D704B464027C7
:1041800086F83E70424600273764C6F824C0708522
:10419000DFF8A073708D3085F7620195009430468A
:1041A00000F0CEF920BB87E7716A0A780261706A75
:1041B000411C7162308D411E3185708D421E7285A9
:1041C0003068426953077FF577AF89B200297FF4E1
:1041D00067AF2A462146304600F06AFB00289FD090
:1041E000306C042804D13068016841F4007101602A
:1041F000012003B0BDE8F0832DE9F04383B006460B
:104200000F469046994600F0C1FF054696F83D00DE
:10421000202816D1306881698A0740F1B68000F005
:10422000B5FF401B1A28F5D300203063202186F803
:104230003D1086F83E00316C41F02001316486F873
:104240003C00022003B0BDE8F083012811D13068A2
:10425000016821F4806101600020009031684A69A2
:1042600000928B69009300980A6842F400720A6019
:1042700023E002280CD13068016821F480610160DC
:104280003068026842F4006202600020009001E0A1
:104290000021009131684A69009289690091009873
:1042A0000BE00169706A0170716A4A1C308D72629C
:1042B000411E3185708D411E7185308D002800F0C2
:1042C0009D80042880F0A68001282AD130684169A9
:1042D0004A06E6D44169CA0611D400F057FF401BD4
:1042E000844201D3002CF1D100203063202186F8D4
:1042F0003D1086F83E00316C41F020010AE06FF07D
:104300001001416100203063202186F83D1086F8BD
:104310003E00316C316486F83C00012003B0BDE8FA
:10432000F083022840F09080306841694A0700F12C
:10433000A48014F1010FF7D000F028FF401B844245
:1043400001D3002CF0D100203063202186F83D10ED
:1043500086F83E00316C41F02001DBE714F1010FDB
:1043600000F0B48000F012FF401B844202D3002C06
:1043700040F0AC8000203063202186F83D1086F8A4
:104380003E00316C41F02001C4E796F83C10012951
:104390003FF457AF012286F83C200168CA0703D4D6
:1043A000016841F001010160394637680C9C0B98A7
:1043B000DDF828C0D7F800E02EF4006EC7F800E062
:1043C000222786F83D704B46402786F83E704246CD
:1043D00000273764C6F824C07085DFF85871708DE7
:1043E0003085F76201950094304600F033F90028DB
:1043F00093D1308D00287FF428AF2EE7202086F857
:104400003D00002186F83E10002086F83C0003B0F5
:10441000BDE8F083306841694A0674D44169CA0630
:104420003FF56DAF00F0B2FE401B844201D3002C7B
:10443000F0D100203063202186F83D1086F83E0040
:10444000316C41F0200165E7306841694A072CD49E
:1044500014F1010FF8D000F099FE401B844201D303
:10446000002CF1D100203063202186F83D1086F821
:104470003E00316C41F020014CE7016841F40071CD
:10448000016030680169706A0170716A308D4A1C80
:10449000411E72623185708D411E718532681069CE
:1044A000716A0870706A421C00E7026822F4806238
:1044B000026030680169706A0170716A308D4A1C4F
:1044C000411E72623185708D411E7185306841696F
:1044D0004A077FF543AF016841F40071016030681D
:1044E0000169706A0170716A308D4A1C411E7262E6
:1044F0003185708D411E718532681069716A08704E
:10450000706A421CD2E60069716A0870706A421CC7
:10451000308D7262411E3185708D411E718530680B
:1045200041694A077FF5C9AE0069716A0870706A0F
:10453000421CBBE60000FFFF90F83D007047000002
:104540002DE9F043054681B02868089C099E8946FC
:10455000016841F4807117469846016028684169F6
:10456000CA0760D414F1010FF8D000F00FFE801BD1
:10457000844228D3002CF1D125E04869420519D5A1
:10458000086840F4007008606FF480612A68516127
:1045900000202863202185F83D1085F83E00296C15
:1045A00041F00401296485F83C0001B00120BDE818
:1045B000F08300BF14F1010F38D000F0E7FD801B3D
:1045C000844200D394BB00202863202185F83D104D
:1045D00085F83E00296C41F02001296485F83C00F3
:1045E00001B00120BDE8F083B8F1010F14D02968B3
:1045F000380A086132462146284600F01FF958B1B2
:10460000286C042804D12868016841F40071016015
:10461000012001B0BDE8F0832868FFB207610020E7
:1046200001B0BDE8F08309F0FE0101612968486925
:104630008207A2D5002000904A690092324689691B
:10464000009121460098284600F0F8F80028CBD0C9
:10465000D6E700002DE9F046054683B028680A9C9D
:104660000B9F8A46016841F4806101601646286804
:10467000026842F480729946026028684169CA075C
:1046800000F1B88014F1010FF7D000F07FFDC01BDE
:10469000844201D3002CF0D100202863202185F82A
:1046A0003D1085F83E00296C41F02001296485F811
:1046B0003C0017E04869420518D5086840F40070CE
:1046C00008606FF480612A6851610020286320210E
:1046D00085F83D1085F83E00296C41F004012964FD
:1046E00085F83C00012003B0BDE8F08614F1010F0D
:1046F00000F0838000F04AFDC01B844201D3002CEF
:104700007BD100202863202185F83D1085F83E00EC
:10471000296C41F02001E2E7B9F1010F11D02968BD
:10472000300A08613A462146284600F087F840B131
:10473000286C0428D6D12868016841F40071016012
:10474000D0E72868F6B206613A462146284600F0CE
:1047500075F80028ECD12868016841F48071016087
:1047600028684169CA075DD414F1010FF8D000F040
:104770000DFDC01B844201D3002CF1D10020286321
:10478000202185F83D1085F83E00296C41F020017C
:10479000296485F83C00A5E741694A0516D50168FA
:1047A00041F4007101606FF480602A68506100215B
:1047B0002963202085F83D0085F83E10286C40F0E4
:1047C0000400286485F83C108CE700BF14F1010F49
:1047D0002CD000F0DBFCC01B844200D334BB002093
:1047E0002863202185F83D1085F83E00296C41F0B2
:1047F000200174E70AF0FE01016129684869820717
:104800007FF558AF002000904A6900923A468969C6
:10481000009121460098284600F010F800283FF447
:104820007BAF85E74AF00101C9B20161286841699F
:104830008A07B1D5002003B0BDE8F08670B5054603
:104840000C461646286841690A062ED441694A0575
:1048500012D56FF48061416100202863202185F822
:104860003D1085F83E00296C41F00401296485F86B
:104870003C00012070BD00BF14F1010FE2D000F038
:1048800085FC801B844201D3002CDBD100202863EF
:10489000202185F83D1085F83E00296C41F020016B
:1048A000296485F83C00012070BD002070BD000027
:1048B00070B505460C461646286841694A072ED44D
:1048C00041694A0512D56FF4806141610020286377
:1048D000202185F83D1085F83E00296C41F0040147
:1048E000296485F83C00012070BD00BF14F1010F60
:1048F000E2D000F04BFC801B844201D3002CDBD1C2
:1049000000202863202185F83D1085F83E00296CA1
:1049100041F02001296485F83C00012070BD002091
:1049200070BD000000B5494891B0016841F0805168
:104930000160006800F080500090009800F02CFCAE
:104940004349086888B90C210491002201210D9285
:104950000691099204A800F085F808B100F060FF04
:10496000012101914FF4803210E00C2104910022CA
:1049700001210D920991069204A800F073F808B184
:1049800000F04EFF012101914FF40032029201A884
:1049900000F092FF08B100F043FF2E4901200860AB
:1049A00000220F21292001F02EF8292001F054F8CF
:1049B00011B000BD00682849884200D0704700B59A
:1049C000224881B0026842F00202026000220068C0
:1049D00000F0020000900F2100981D2001F013F854
:1049E00001B05DF804EB1D2001F036B800B51B489E
:1049F00087B0816841F400118160816801F4001181
:104A000000910099026842F0020202604FF4407186
:104A1000006800F0020000901222009810480191F6
:104A2000029201210391032204210591049201A91C
:104A300001F03AF807B000BD0448016821F4001104
:104A400001604FF44071064801F00AB92438024071
:104A500030140020D8064742000400401C380240B1
:104A6000000402402DE9F047040082B000F09F816D
:104A7000DFF8E876BD68BE682078C10705F00C0550
:104A800006F480360DD5082D04D00C2D08BFB6F5E0
:104A9000803F44D13868810303D56068002800F066
:104AA00086812178880713D5042D03D00C2D08BFEB
:104AB000002E72D13868810703D5E068012840F0E4
:104AC00076817868216920F4F85040EA0120786006
:104AD0002078C10640F17C81002D40F0B18038681B
:104AE000810503D5A069002800F06181206A7968FA
:104AF00001F46041814276D200F0F1FA002840F0E2
:104B000056817968206A21F46041014379607968AF
:104B1000E06921F07F4141EA0061796075E06068F9
:104B2000012804D1386840F48030386013E008B9B7
:104B3000386809E00528386806D140F480203860DC
:104B4000396841F4803105E020F4803038603968FC
:104B500021F480213960606878B100F017FB80464D
:104B6000386881039DD400F011FBA0EB0800652894
:104B7000F6D3032002B0BDE8F08700F007FB8046C3
:104B8000386881038DD500F001FBA0EB0800652893
:104B9000F6D3032002B0BDE8F087E068DFF8C8155F
:104BA00080B101220A6000F0F1FA064638688107F8
:104BB00087D400F0EBFA801B0228F7D9032002B05B
:104BC000BDE8F087086000F0E1FA0646396888071A
:104BD0007FF57EAF00F0DAFA801B0228F6D90320B9
:104BE00002B0BDE8F087796821F46041084378603D
:104BF0007868E16920F07F4040EA01607860206ACF
:104C000000F06DFA002840F0D280216ABA68490BA2
:104C1000C2F303120120491C8840DFF85015DFF869
:104C20004035895CC003C8401860DFF8380500686B
:104C300001F0C6F8010000F0CB8002B0BDE8F087BB
:104C4000A069DFF82415D8B101220A6200F09EFAAB
:104C500006463868810500F1AE8000F097FA801BA7
:104C60000228F6D9032002B0BDE8F08700F08EFAE2
:104C7000801B022840F2BB80032002B0BDE8F08711
:104C8000086200F083FA06463868810540F1A0808A
:104C900000F07CFA801B0228F6D9032002B0BDE8A0
:104CA000F087C1F8800600F071FA0646786B81073C
:104CB00040F1A18000F06AFA801B0228F6D9032097
:104CC00002B0BDE8F08708B9786B09E00528786B79
:104CD00006D140F480607863786B40F4807005E022
:104CE00020F480707863786B20F480607863A0682B
:104CF00088B100F04BFA064641F28939786B81059C
:104D000000F1AD8000F042FA801B4845F6D3032045
:104D100002B0BDE8F08700F039FA064641F2893961
:104D2000786B810540F19B8000F030FA801B48458C
:104D3000F6D3032002B0BDE8F08700BF00F026FAEA
:104D4000801B022840F2A080032002B0BDE8F0875B
:104D500000F01CFA001B022840F2A980032002B0D8
:104D6000BDE8F0870020286600F010FA0446386895
:104D7000810140F1A08000F009FA001B0228F6D959
:104D8000032002B0BDE8F087012810D0B868A26AFD
:104D900000F48031914202BF00F47011E26A914246
:104DA00002BF00F44000216B884200F084800120A3
:104DB00002B0BDE8F0877968206A21F460410143C0
:104DC00079607968E06921F07F4141EA00617960AA
:104DD000207801070FD56069DFF88C1300283FF4B5
:104DE00060AF0122C1F8802600F0D0F90646786B4A
:104DF00081077FF53BAF2078410737D5786AC1003E
:104E00004FF000080AD4786A40F0805078624FF082
:104E10000108786A00F0805000900098DFF8506335
:104E20003068C10513D4306840F48070306000F001
:104E3000ADF982463068C10509D400F0A7F9A0EBAE
:104E40000A006528F6D3032002B0BDE8F087A06809
:104E500001287FF438AF786B40F4807046E7B8F1F2
:104E6000000F03D0786A20F080507862606A10B337
:104E70000C2D89D00228DFF8F0527FF473AF0020A8
:104E8000286600F083F90646386881013FF556AF81
:104E9000BA68A16AE06A22F47D020A43216B0243E8
:104EA0000A43BA600120286600F070F904463868A9
:104EB00081017FF54DAF002002B0BDE8F087F0B56D
:104EC000040081B00E4600F0BA80DFF89052D5F8A9
:104ED000000400F00100B04215D2012E05D1D5F832
:104EE000000440F00400C5F80004D5F800044008B0
:104EF00046EA4000C5F80004D5F8000400F00100BF
:104F0000B04240F09C802178880705D5A968A06848
:104F100021F0F0010143A9602178C80774D56068C9
:104F2000022802D129688A0308E0032802D12968EF
:104F30008A0103E00128296804D18A0704D40120EA
:104F400001B0F0BD8A057AD5A968890840EA8100D8
:104F5000A86000F01BF90746606802280ED1A86817
:104F600000F00C0008284FD000F010F9C01B41F2EF
:104F700089318842F3D3032001B0F0BD03280ED15C
:104F8000A86800F00C000C283ED000F0FFF8C01B11
:104F900041F289318842F3D3032001B0F0BD0128EA
:104FA00050D1A86800F00C0004282DD000F0EEF8D5
:104FB000C01B41F289318842F3D3032001B0F0BD18
:104FC0002078410705D5AA68E06822F4E062024330
:104FD000AA602178080706D5A968206921F46051E4
:104FE00041EAC001A96000F03BF8AA685F495C4B48
:104FF000C2F30312895CC84001B01860BDE8F040FC
:105000005848006800F0DCBED5F8000400F001004C
:105010008642D5D2012E05D1D5F8000440F0040017
:10502000C5F80004D5F80004400846EA4000C5F879
:105030000004D5F8000400F00100B042C0D0012007
:1050400001B0F0BDA86810F00C0FDDD000F09EF8A4
:10505000C01B41F289318842F4D3032001B0F0BD76
:105060004548416801F00C02042A04D0082A04D003
:105070000C2A04D015E04148704741487047414A26
:10508000C1F38343D25C4068C1F381535B1C5FEA88
:10509000C03C47BF3A494A4338484243B2FBF3F069
:1050A00070470068400B00F007000121401C01FA26
:1050B00000F0C00370472A482E4A0068136832493E
:1050C000C3F30222895CC84070472548294A00681A
:1050D00013682D49C3F3C222895CC840704730B4BD
:1050E000244981B00B68002213F0F00F24D1CC6961
:1050F0001F4BE50003D51B6803F4C0530FE0CC69D8
:1051000044F08054CC61CC6904F080540094009C3D
:105110001B68CC6924F0805403F4C053CC61B3F510
:10512000C05F08BFB0F5404F06D1D1F8F80340F09A
:1051300004000122C1F8F803D1F8F803400842EA5C
:105140004000C1F8F803D1F8F80301B000F0010005
:1051500030BC904214BF012000207047003802404C
:10516000A40800209408002000004742E8AD000891
:105170000070004008380240043802400024F40067
:1051800000127A00DCAD000880AF0008014800681A
:10519000704700BF90080020014901200860704757
:1051A00020000E4210B5ADF5207D00F02DFE00F080
:1051B00047FE00220E214FF0FF3000F024FC0020BB
:1051C00000F00CFF0121002000F059FFDFF8CC06B1
:1051D000016841F4805101600321006800F48050AF
:1051E00000900098002000F0A1FF0421022000F0B0
:1051F0009DFF0521002001F0F7F90221012001F0B7
:10520000F3F94FF083420221002001F089F80422D3
:105210000221002001F0A7F801F0ACFB01A907A8CA
:1052200001F0BCFB01F05BFC0C211091002201217C
:1052300019921291159210A8FFF714FC20B14FF4A7
:10524000987101200A4601E0FF21FF22DFF8504655
:10525000DFF85036E1607F21A1601860A26740212D
:10526000DFF8440620600022616022616261A26171
:10527000204601F09DFC60B1002000F0D8FE6420C3
:1052800001F002FF002000F0E1FE642001F0FCFECE
:10529000F2E701218DF8031001228DF802108DF83C
:1052A00001208DF800206946204601F0EDFD60B137
:1052B000002000F0BCFE642001F0E6FE002000F0BB
:1052C000C5FE642001F0E0FEF2E7002102910591A5
:1052D0000691012202A9204601F0C6FC60B100201F
:1052E00000F0A5FE642001F0CFFE002000F0AEFE2D
:1052F000642001F0C9FEF2E7DFF8B005206243F652
:105300007F6161620020A0627C212063E16204F180
:10531000200001F0CFFE4FF48050109010A904F14E
:10532000200001F0D4FF00210291039104F120003C
:1053300002A902F07BF802F09DF884F86A0010B927
:1053400000F075FEA8E0002000F071FE4FF4FA7046
:1053500001F09AFE002000F079FE9DE0002202A9F3
:10536000204601F05AFD00226946204601F055FE14
:105370009DF8080003998DF87B0064229DF80900D0
:105380008DF87C009DF80A008DF87D00A06F411A11
:105390005143401C91FBF0F08DF87E00606FC10618
:1053A00017D504F15C020221002000F095FFE16DA9
:1053B00004220DF18B0002F0BBF9216E04220DF1E5
:1053C0008F0002F0B5F9616E04220DF1930002F036
:1053D000AFF9606F810616D502AA0121002000F006
:1053E0007BFF029904220DF1970002F0A1F90399C5
:1053F00004220DF19B0002F09BF9049904220DF1A7
:105400009F0002F095F9606F410616D502AA0421AB
:10541000022000F061FF029904220DF1A30002F0C6
:1054200087F9039904220DF1A70002F081F904998C
:1054300004220DF1AB0002F07BF9606F410708D543
:105440006A460421002001F09CF90DF18701009AC1
:105450000A60606F810708D56A460121002001F0CB
:1054600090F90DF18301009A0A60606FC10708D5B9
:105470006A460221012001F084F90DF17F01009AB2
:105480000A601DA800F0E1F81DA802F06DF93B20AC
:105490001D901DA801F0FEFA5EA801F085FA012812
:1054A0000AD09DF87C01322801BF94F869000028D9
:1054B0005EA802F063F900BF94F86800012835D1B6
:1054C000002184F86810002000F0C0FD02F04AF8C6
:1054D000002000F0CAFD4FF4FA7001F0D5FD002065
:1054E00000F0C3FD4FF47A7001F0CEFD002000F013
:1054F000BCFD4FF4FA7001F0C7FD002000F0B5FDCF
:105500004FF47A7001F0C0FD002000F0AEFD4FF4C2
:10551000FA7001F0B9FD002000F0A7FD4FF47A7099
:1055200001F0B2FD5FF0010084F86A0094F86C00AD
:10553000012815D1002184F86C1004F1200001F03D
:105540001FFE0221002000F0A8FE606F20F0100076
:10555000606794F86F0001F0C1FF002084F86900D3
:1055600094F86D00012813D1002184F86D1084F89F
:105570006E000221002000F071FE606F40F010000C
:10558000606704F1200001F0EBFD012084F8690060
:1055900094F86B0001287FF47FAF002184F86B1032
:1055A00094F8690000283FF4D9AE01281ED1616F3C
:1055B000C80617D504F15C020221002000F08CFE21
:1055C000E16D04220DF18B0002F0B2F8216E04228D
:1055D0000DF18F0002F0ACF8616E04220DF1930022
:1055E00002F0A6F81DA800F030F855E7002000F002
:1055F0001EFD642001F048FD002000F027FD64201E
:1056000001F042FDF2E730B587B00446A44D002218
:1056100001A9284601F001FC00226946284601F054
:10562000FCFC9DF8010020709DF8021061709DF84F
:105630000300A0709DF80410E1709DF80500207132
:105640009DF80600607107B030BD70B584B00546A6
:10565000684600210022002380E80E00904C606F15
:10566000C60629D5E06DFDF781FC9149FEF70CFADD
:105670000090206EFDF77AFC8D49FEF705FA019047
:10568000606EFDF773FC8A49FEF7FEF90290002078
:1056900000F0CDFC04F17001684601F07DF90020B6
:1056A00000F0D4FC94F8690040B994F8701004221A
:1056B00005F13B0002F03CF804B070BD012860D158
:1056C00094F86E0001281BD1002184F86E10E16768
:1056D00084F86F100026774D2846FFF794FF94F862
:1056E0006F00AB1D0146002203F83120401CEA1D6B
:1056F00002F8316084F8716084F86F0004B070BD06
:1057000094F86F00142808DB01F0E8FE10B90120BE
:1057100084F86C00002184F86F1094F8700094F8FD
:105720007110884217D094F86F00624D05EBC000ED
:10573000FFF769FF94F86F00AB1D0146012203F8E3
:105740003120EB1D94F8702003F83120401C84F8C0
:105750006F0084F87120E06FB0F5965F0DD394F878
:105760006F0001F0BBFE10B9012084F86C0000212D
:10577000E16784F86F1004B070BD401CE06704B0AE
:1057800070BD002000F053FC642001F07DFC00207F
:1057900000F05CFC642001F077FCF2E700B581B01A
:1057A0008DF803008DF801108DF802208DF800307F
:1057B000002269463A4801F067FB60B1002000F022
:1057C00036FC642001F060FC002000F03FFC642007
:1057D00001F05AFCF2E701B000BD10B586B000241C
:1057E0008DF802208DF800008DF801100022019242
:1057F000039204928DF803406946294801F034FA77
:1058000060B1002000F013FC642001F03DFC00209A
:1058100000F01CFC642001F037FCF2E706B010BD7C
:1058200000B581B0002000F002FC642001F02CFCE7
:10583000002000F00BFC642001F026FCF2E7B0F53C
:10584000005F00D0704700B581B0002000F055FC2B
:1058500030B9134991F8690020B9012081F86D0031
:1058600001B000BD012808BF81F86C00F8D000200D
:1058700000F0DDFB642001F007FC002000F0E6FBF7
:10588000642001F001FCF2E700680849884203D176
:105890000348012280F86B20704700001C3802404A
:1058A00010080020301400200028004000040040B0
:1058B00000007A44900400202DE9F041054682B0B2
:1058C000287810F0030F00F08780454E706A00249E
:1058D000C10009D4706A40F0805070620124706A7F
:1058E00000F08050009000983E4F3868C10542D4C7
:1058F000386840F480703860FFF748FC80463868AC
:10590000C10538D4FFF742FCA0EB08006528F6D3A8
:10591000032002B0BDE8F081706B10F4403043D03A
:1059200001F44031884202D02978CA0707D4A96817
:1059300001F44031884237D02878810734D52A498C
:10594000706B01220A60002320F440300B6070630A
:10595000C00529D5FFF71AFC074641F28938706B5C
:10596000810521D4FFF712FCC01B4045F7D303206B
:1059700002B0BDE8F0813068696800F0C04001F015
:10598000C042904202BFAB6803F0C0439842C3D00C
:1059900001F44030B0F5403FBED132689003BBD532
:1059A000012002B0BDE8F081686800F44031B1F533
:1059B000403F06D1326822F0C04200F0C0401043A0
:1059C0003060706B696801F44031084370631CB14A
:1059D000706A20F080507062002002B0BDE8F08153
:1059E0000038024000700040DC064742284B19682E
:1059F0004FF6FF020002114000F4E0600843254921
:105A000008431860704730B4214B1C68C4F302236C
:105A1000C3F10704052C28BF04241D1D072D34BF26
:105A20000023DB1E012505FA04F4641E2140994081
:105A300005FA03F35B1E1A4011430901020003D467
:105A40001548815430BC7047144B02F00F021A44C1
:105A500002F8041C30BC7047010007D4012200F09A
:105A60001F010F4B8A40400943F820207047401E19
:105A7000B0F1807F01D3012070470A494860F020CF
:105A800081F8130D00228A6007200860002070470B
:105A90000CED00E00000FA0500E400E018ED00E085
:105AA00000E100E010E000E02DE9F04F81B00F468A
:105AB0004FF0000E3C68B749B74AB84B002C4FF086
:105AC0000F084FF0010900F0C8808246386809FAD3
:105AD0000EFC1CEA000000F0B9807C68022C18BFA4
