:020000040800F2
:1000000028880020198E0008ED8D0008EF8D00086B
:100010003D8E0008418E0008458E0008000000005B
:10002000000000000000000000000000498E0008F1
:10003000F18D0008000000004D8E0008F38D0008CF
:10004000518E0008558E0008598E00085D8E0008FC
:10005000618E0008658E0008698E00086D8E0008AC
:10006000718E0008758E0008798E00087D8E00085C
:10007000818E0008858E0008898E00088D8E00080C
:10008000918E0008958E0008998E00089D8E0008BC
:10009000A18E0008A58E0008A98E0008AD8E00086C
:1000A000B18E0008B58E0008B98E0008BD8E00081C
:1000B000C18E0008F78D0008C58E0008C98E0008A3
:1000C000CD8E0008D18E0008D58E0008D98E00088C
:1000D000DD8E0008E18E0008E58E0008E98E00083C
:1000E000018E0008ED8E0008F18E0008F58E0008E4
:1000F000F98E0008FD8E0008018F0008058F0008AA
:10010000098F00080D8F0008118F0008158F000857
:10011000198F00081D8F0008218F0008258F000807
:10012000298F00082D8F0008318F0008358F0008B7
:10013000398F00083D8F0008418F0008458F000867
:10014000498F00084D8F0008518F0008558F000817
:10015000598F00085D8F0008618F0008658F0008C7
:10016000698F00086D8F0008718F0008758F000877
:10017000798F00087D8F0008818F00080000000043
:10018000858F0008898F000830B504460025002CB3
:1001900081B02AD0086820604A6862608868A060E0
:1001A0000A7B2273086920614A6962618869DFF805
:1001B000F019A06121626462DFF8E809E06120685B
:1001C00098B1804788B9A068022804BF94F8280035
:1001D00000280CD10C218DF8001001236A46122151
:1001E00004F11C0000F01EFD08B14FF0FF35284659
:1001F00001B030BD10B50446012104F11C0001F02E
:10020000E0F8002838D1012104F11C0001F0C0F809
:10021000002831D1012104F11C0001F0D2F800289E
:100220002AD1012104F11C0001F041F8002823D15A
:10023000002104F11C0001F0DDF8E8B9042084F885
:100240002B00002104F11C0000F026FDA0B90021C4
:1002500004F11C0000F0ECFC70B9042084F82C00C0
:10026000002104F11C0000F0C5FE28B90C2104F1A6
:100270001C0000F073FE10B14FF0FF3010BD0120E4
:1002800084F82800002010BD10B5044694F8290019
:1002900070B104F12B0104F11C0000F017FE10BB3B
:1002A000002104F11C0000F0F7FCE0B984F82900FB
:1002B00094F82A0070B104F12C0104F11C0000F044
:1002C000B3FF80B9002104F11C0000F093FE50B987
:1002D00084F82A000021002084F82B1084F82C00D8
:1002E00084F8281010BD4FF0FF3010BD00B581B06C
:1002F0001C3001F044F808B14FF0FF3001B000BDF0
:100300000120087048700023102088604FF4FA62C2
:100310009FEDAD0A00208B70CB704A60CB6081ED01
:10032000040A81ED050A8861704710B5044694F807
:10033000290001280CD094F82B1004F11C0000F0C7
:10034000ABFC10B14FF0FF3010BD012084F8290044
:10035000002010BD10B5044694F8290088B104F1BE
:100360002B0104F11C0000F0B1FD28B9002104F1BB
:100370001C0000F091FC10B14FF0FF3010BD84F86C
:10038000290010BD30B581B00D4669461C3000F023
:1003900068FC002418B14FF0FF3001B030BD9DF86B
:1003A0000000032813D8DFE800F0020E060ADFF889
:1003B000481629600DE0DFF8DC04286009E0DFF86A
:1003C000D014296005E0DFF8C404286001E04FF094
:1003D000FF34204601B030BD30B581B00D466946CE
:1003E0001C3000F073FD002418B14FF0FF3001B055
:1003F00030BD9DF800000A2830D8DFE800F006087C
:100400000C1014181C2024282C002C6028E0DFF885
:10041000AC07286024E0DFF8A817296020E0DFF8A7
:10042000A40728601CE0DFF8A017296018E0DFF8B7
:100430009C07286014E0DFF89817296010E0DFF8C7
:10044000940728600CE0DFF89017296008E0DFF8D7
:100450008C07286004E05C49296001E04FF0FF341C
:10046000204601B030BD000000B581B090F82910E1
:10047000DFEDA80A0129B4EE600A53D1F1EE10FABB
:1004800047D4DFEDA50AB4EE600AF1EE10FA48BFDA
:1004900002213ED4DFEDA10AB4EE600AF1EE10FABB
:1004A00048BF032135D4DFED9E0AB4EE600AF1EEB9
:1004B00010FA48BF04212CD4DFED9A0AB4EE600A8A
:1004C000F1EE10FA48BF052123D4DFED970AB4EE10
:1004D000600AF1EE10FA48BF06211AD4DFED930A44
:1004E000B4EE600AF1EE10FA48BF072111D4DFED37
:1004F000900AB4EE600AF1EE10FA48BF082108D461
:10050000DFEDBD0AB4EE600AF1EE10FA4CBF09212E
:100510000A211C3000F0C0FB002853D04FF0FF3000
:1005200001B000BDF1EE10FA48BF012147D4DFED64
:100530007A0AB4EE600AF1EE10FA48BF02213ED406
:10054000DFED760AB4EE600AF1EE10FA48BF03213F
:1005500035D4DFED730AB4EE600AF1EE10FA48BF4D
:1005600004212CD4DFED6F0AB4EE600AF1EE10FA2C
:1005700048BF052123D4DFED6C0AB4EE600AF1EE2A
:1005800010FA48BF06211AD4DFED680AB4EE600AFB
:10059000F1EE10FA48BF072111D4DFED650AB4EE81
:1005A000600AF1EE10FA48BF082108D4DFED920A84
:1005B000B4EE600AF1EE10FA4CBF09210A2180F86E
:1005C0002B10002001B000BD0058D04530B581B0DF
:1005D0000D4669461C3000F044FB002418B14FF072
:1005E000FF3001B030BD9DF8000003280FD8DFE8D0
:1005F00000F0020B0508022129600AE004202860AF
:1006000007E00821296004E01020286001E04FF095
:10061000FF34204601B030BD00B5032981B0B8BF1A
:10062000002107DB0529B8BF022103DB0929B4BF7C
:10063000032101211C3000F0FBFA08B14FF0FF301C
:1006400001B000BD10B582B00C4669461C3000F008
:1006500072FE18B14FF0FF3002B010BDBDF80000BF
:100660002080BDF802106180BDF80400A08002B0B7
:10067000002010BD30B583B004460D4601A904F139
:100680001C0000F058FE002840D1694604F11C000F
:1006900000F0E7FA002839D19DF80000032835D88A
:1006A000DFE800F031022E2B9FED780ABDF904003F
:1006B00000EE900AF8EEE00A60EE800AFDEEE00A35
:1006C000C5ED000ABDF9061001EE101AB8EEC11A08
:1006D00021EE001ABDEEC11A85ED011ABDF9080020
:1006E00000EE900AF8EEE00A20EE800ABDEEC00AA5
:1006F00085ED020A002003B030BD9FED650AD5E705
:100700009FED640AD2E79FEDBC0ACFE74FF0FF30C0
:1007100003B030BD010048410100D041010050420A
:100720000100D042010050430180D04301405044B9
:100730000160D04410B5044694F82A0001280CD07A
:1007400094F82C1004F11C0000F054FC10B14FF090
:10075000FF3010BD012084F82A00002010BD10B524
:10076000044694F82A0088B104F12C0104F11C001D
:1007700000F05AFD28B9002104F11C0000F03AFCF9
:1007800010B14FF0FF3010BD84F82A0010BD0000FA
:1007900030B581B00D4669461C3000F0F9FB0024ED
:1007A00018B14FF0FF3001B030BD9DF800000C28AB
:1007B0001CD8DFE800F00B1B071B0F1B1B1B131BB8
:1007C0001B1B1700DFF8F013296011E0DFF8E403CA
:1007D00028600DE0DFF8D813296009E0DFF8CC03CA
:1007E000286005E0DFF8C013296001E04FF0FF3416
:1007F000204601B030BD00000150504530B581B0F9
:100800000D4669461C3000F00FFD002418B14FF072
:10081000FF3001B030BD9DF800000A2831D8DFE874
:1008200000F006080C1014181C2024282C002C6042
:1008300029E0DFF88803286025E0DFF884132960C9
:1008400021E0DFF8800328601DE0DFF87C132960D9
:1008500019E0DFF87803286015E0DFF874132960E9
:1008600011E0DFF8700328600DE0DFF86C132960F9
:1008700009E0DFF86803286005E0DFF86413296009
:1008800001E04FF0FF34204601B030BD23DBF93EDC
:1008900023DB793E23DBF93D00B581B090F82A10C7
:1008A000DFED560A0129B4EE600A53D1F1EE10FAD9
:1008B00047D4DFED530AB4EE600AF1EE10FA48BFF8
:1008C00002213ED4DFED4F0AB4EE600AF1EE10FAD9
:1008D00048BF032135D4DFEDAC0AB4EE600AF1EE77
:1008E00010FA48BF04212CD4DFEDA80AB4EE600A48
:1008F000F1EE10FA48BF052123D4DFEDA50AB4EECE
:10090000600AF1EE10FA48BF06211AD4DFEDA10A01
:10091000B4EE600AF1EE10FA48BF072111D4DFED02
:100920009E0AB4EE600AF1EE10FA48BF082108D41E
:10093000DFED9A0AB4EE600AF1EE10FA4CBF09211D
:100940000A211C3000F056FB002853D04FF0FF3036
:1009500001B000BDF1EE10FA48BF012147D4DFED30
:10096000280AB4EE600AF1EE10FA48BF02213ED424
:10097000DFED240AB4EE600AF1EE10FA48BF03215D
:1009800035D4DFED810AB4EE600AF1EE10FA48BF0B
:1009900004212CD4DFED7D0AB4EE600AF1EE10FAEA
:1009A00048BF052123D4DFED7A0AB4EE600AF1EEE8
:1009B00010FA48BF06211AD4DFED760AB4EE600AB9
:1009C000F1EE10FA48BF072111D4DFED730AB4EE3F
:1009D000600AF1EE10FA48BF082108D4DFED6F0A73
:1009E000B4EE600AF1EE10FA4CBF09210A2180F83A
:1009F0002C10002001B000BD23DB793D01004841EF
:100A00000100D0410100504230B581B00D46694629
:100A10001C3000F0BDFA002418B14FF0FF3001B0D7
:100A200030BD9DF800000C281AD8DFE800F00A1944
:100A300007190D1919191119191915007D212960A6
:100A400010E0FA2028600DE04FF4FA71296009E007
:100A50004FF47A70286005E04FF4FA61296001E0F4
:100A60004FF0FF34204601B030BD00B57E2981B083
:100A7000B8BF02210FDBFB29B8BF00210BDB40F21E
:100A8000F5129142B8BF042105DB40F2E9329142F0
:100A9000B4BF08210C211C3000F060FA08B14FF0FF
:100AA000FF3001B000BD10B582B00C4669461C3065
:100AB00000F038FC18B14FF0FF3002B010BDBDF8A7
:100AC00000002080BDF802106180BDF80400A08005
:100AD00002B0002010BD000030B583B004460D46C2
:100AE00001A904F11C0000F01DFC002848D1694652
:100AF00004F11C0000F04CFA002841D19DF80000E0
:100B00000C283DD8DFE800F0363C393C333C3C3C17
:100B1000303C3C3C07009FED240ABDF9040000EE88
:100B2000900AF8EEE00A60EE800AFDEEE00AC5EDFC
:100B3000000ABDF9061001EE101AB8EEC11A21EE36
:100B4000001ABDEEC11A85ED011ABDF9080000EECC
:100B5000900AF8EEE00A20EE800ABDEEC00A85EDAC
:100B6000020A002003B030BD9FED100AD5E79FEDCB
:100B7000100AD2E79FED0F0ACFE79FED0F0ACCE7EF
:100B80004FF0FF3003B030BD0100D04201005043B0
:100B90000180D043014050440160D0440150504591
:100BA0000D0C0008190C000800008C4200000C42DB
:100BB00000008C4100000C4100008C4000004841C6
:100BC0000000D041000050420000D04200005043DD
:100BD0000080D043004050440060D0440050504555
:100BE0000058D04500B581B01C3000F079FB08B149
:100BF0004FF0FF3001B000BD00B581B01C3000F0F7
:100C000080FB08B14FF0FF3001B000BD10B50446C5
:100C1000207B6469A04710BD10B50446207B246981
:100C2000A04710BD10B50446A0682468A04710BDB9
:100C300070B5044682B00D46A068666801236A4616
:100C40001021B04758B99DF8000065F383008DF876
:100C500000000123A06824686A461021A04702B062
:100C600070BD30B5044681B0A06864680D460123AC
:100C70006A461021A0479DF80010890801F0030181
:100C8000012906D004D3032903D038BF022100D3A1
:100C90000021297001B030BDF0B583B004460D4687
:100CA000694600F0C1FB00282E4666D19DF8002061
:100CB0009DF80110104642EA500242EA900242EAD0
:100CC000D00242EA101242EA501242EA90120A435B
:100CD00042EA510242EA910242EAD10242EA111288
:100CE00042EA511242EA911202F00102084342EA3A
:100CF000D010012844D10221204600F025FB60B924
:100D0000A068D4F804C001230DF102025F21E0477E
:100D100018B90021204600F017FB9DF80210C90801
:100D200001F00301012906D004D3032903D038BF01
:100D3000022100D3002100BB03291ED8DFE801F007
:100D400002060C1328001BD1012619E0280018BF49
:100D5000012D15D1022613E028001CBF012D022D04
:100D60000ED103260CE0280018BF012D03D0022D60
:100D700018BF032D04D1042602E0002840F08C8027
:100D8000A068D4F804C001230DF102020121E0475C
:100D9000B8B99DF8020000F03F0040F080008DF8E7
:100DA00002000123A068D4F800C00DF10202012165
:100DB000E04730B9A068D4F804C0012301AA052196
:100DC000E047002840F08080A068D4F804C00123E8
:100DD0000DF102020121E04768B99DF8020000F020
:100DE0003F008DF802000123A068D4F800C00DF187
:100DF00002020121E0479DF80410C1F3001100290F
:100E00004AD00221204600F09FFAF8B9A068D4F831
:100E100004C001230DF102026021E047B0B99DF842
:100E20000200000900F00300012808D009D30328BC
:100E300001D002D305E0032704E0022702E00127E6
:100E400000E000270021204600F07EFA002823D190
:100E5000FFB2032F1ED8DFE807F002060C132800AC
:100E600018D1012619E0280018BF012D12D1022641
:100E700013E028001CBF012D022D0BD103260CE02E
:100E8000280018BF012D03D0022D18BF032D01D15A
:100E9000042602E02E4600E0B0B9A0686568012390
:100EA0000DF103021021A84770B99DF8030000F06E
:100EB0000F0040EA06108DF803000123A0682468A3
:100EC0000DF103021021A04703B0F0BD30B5044678
:100ED00081B0A06864680D4601236A461021A047CE
:100EE0009DF800100909491E0A2933D8DFE801F0EE
:100EF000060A0E12161A1E22262A2E000121297019
:100F000001B030BD0221297001B030BD032129702C
:100F100001B030BD0421297001B030BD0521297018
:100F200001B030BD0621297001B030BD0721297004
:100F300001B030BD0821297001B030BD09212970F0
:100F400001B030BD0A21297001B030BD0B212970DC
:100F500001B030BD0021297001B030BD70B504462C
:100F600082B00D46A068666801236A461121B04729
:100F700058B99DF8000065F303008DF800000123C7
:100F8000A06824686A461121A04702B070BD000025
:100F900030B5044681B0A06864680D4601236A46F6
:100FA0001121A0479DF8001001F00F010C291CD859
:100FB000DFE801F007171B1B0B1B1B1B0F1B1B1B69
:100FC00013000021297001B030BD0421297001B047
:100FD00030BD0821297001B030BD0C21297001B04D
:100FE00030BD0121297001B030BD0221297001B04E
:100FF00030BD0000F0B583B004460D46694600F0F0
:1010000013FA00282E4666D19DF800209DF80110A5
:10101000104642EA500242EA900242EAD00242EA14
:10102000101242EA501242EA90120A4342EA510276
:1010300042EA910242EAD10242EA111242EA511214
:1010400042EA911202F00102084342EAD01001285C
:1010500044D10221204600F077F960B9A068D4F8A5
:1010600004C001230DF102025F21E04718B90021FD
:10107000204600F069F99DF80210C90801F003014B
:10108000012906D004D3032903D038BF022100D39D
:10109000002100BB03291ED8DFE801F002060C1373
:1010A00028001BD1012619E0280018BF012D15D1F9
:1010B000022613E028001CBF012D022D0ED10326AD
:1010C0000CE0280018BF012D03D0022D18BF032DFE
:1010D00004D1042602E0002840F08C80A068D4F8F7
:1010E00004C001230DF102020121E047B8B99DF8C7
:1010F000020000F03F0040F080008DF80200012364
:10110000A068D4F800C00DF102020121E04730B917
:10111000A068D4F804C0012301AA0521E0470028F3
:1011200040F08080A068D4F804C001230DF10202D1
:101130000121E04768B99DF8020000F03F008DF8FA
:1011400002000123A068D4F800C00DF102020121C1
:10115000E0479DF80410C1F3001100294AD0022194
:10116000204600F0F1F8F8B9A068D4F804C00123D3
:101170000DF102026021E047B0B99DF802000009BC
:1011800000F00300012808D009D3032801D002D3BE
:1011900005E0032704E0022702E0012700E0002722
:1011A0000021204600F0D0F8002823D1FFB2032F01
:1011B0001ED8DFE807F002060C13280018D101261C
:1011C00019E0280018BF012D12D1022613E02800D3
:1011D0001CBF012D022D0BD103260CE0280018BFE7
:1011E000012D03D0022D18BF032D01D1042602E0EA
:1011F0002E4600E0B0B9A068656801230DF1030236
:101200001121A84770B99DF8030000F00F0040EAD3
:1012100006108DF803000123A06824680DF1030275
:101220001121A04703B0F0BD30B5044681B0A068DD
:1012300064680D4601236A461121A0479DF80010FD
:101240000909491E09292ED8DFE801F005090D1109
:1012500015191D2125290121297001B030BD022158
:10126000297001B030BD0321297001B030BD0421C7
:10127000297001B030BD0521297001B030BD0621B3
:10128000297001B030BD0721297001B030BD08219F
:10129000297001B030BD0921297001B030BD0A218B
:1012A000297001B030BD0021297001B030BD70B58A
:1012B000044682B00D46A068666801236A46122182
:1012C000B04758B99DF8000065F386108DF800000E
:1012D0000123A06824686A461221A04702B070BDAD
:1012E00030B5044681B0A06864680D4601236A46A3
:1012F0001E21A0479DF8001001F00101297001B0E6
:1013000030BD30B5044681B0A06864680D46012345
:101310006A461E21A0479DF80010C1F340012970C4
:1013200001B030BD10B504460A46A06864680623C3
:101330002221A04710BD10B504460A46A068646883
:1013400006232821A04710BD70B5044682B00D4683
:10135000A068666801236A460121B04768B99DF814
:10136000000000F03F0040EA85108DF800000123E6
:10137000A06824686A460121A04702B070BD10B57C
:1013800004460A46A068646801230F21A04710BDE7
:1013900070B5044682B00D46A068666801236A46AF
:1013A0001221B04758B99DF8000065F300008DF890
:1013B00000000123A06824686A461221A04702B0F9
:1013C00070BD70B5044682B00D46A0686668012302
:1013D0006A461221B04758B99DF8000065F38200B3
:1013E0008DF800000123A06824686A461221A047F6
:1013F00002B070BD70B5044682B00D46A068666844
:1014000001236A460A21B04758B99DF8000065F3E8
:1014100002008DF800000123A06824686A460A21B2
:10142000A04702B070BD000070B5044682B00D4602
:10143000A068666801236A460121B04778BB9DF821
:10144000000000F03F0040F080008DF80000012314
:10145000A06826686A460121B04700BBA06866689C
:1014600001232A464621B047C8B96A1CA0686568AE
:1014700001234721A84790B9A068656801236A46FF
:101480000121A84758B99DF8000000F03F008DF8F1
:1014900000000123A06824686A460121A04702B029
:1014A00070BDF0B40246106895681318506803EBDD
:1014B0005004C0071DD54D441BE013F8017B05F80F
:1014C000017B491EF9D1A0B1B60813F8011B06F043
:1014D0000306032E08BF13F8016B01EB06214942F6
:1014E000801C294405D011F8016B05F8016B401EE2
:1014F000F9D1A3420ED013F8016B16F0030104BF1B
:1015000013F8011BC91C30090F28DAD113F8010B9D
:101510000F30D6E7F0BC02F10C00704730B504463E
:101520000025002C81B02AD0086820604A686260DB
:101530008868A0600A7B2273086920614A69626139
:1015400088690FF6B901A061216264620FF6B900E3
:10155000E061206898B1804788B9A068022804BF7C
:1015600094F8280000280CD105218DF800100123E3
:101570006A46212104F11C0000F04CFC08B14FF038
:10158000FF35284601B030BD10B50446012104F1F5
:101590001C0000F0E5FD002824D1012104F11C000D
:1015A00000F06EFDF0B9002104F11C0000F0F1FD27
:1015B000C0B9042104F11C0000F032FC90B9DFF83E
:1015C000D403E062002184F8301084F8311004F173
:1015D0001C0000F0CAFC28B9002104F11C0000F036
:1015E00068FD10B14FF0FF3010BD012084F82800D5
:1015F000002010BD10B5044694F8290050B1002118
:1016000004F11C0000F0B1FC10B14FF0FF3010BD30
:1016100084F829000020E06284F8300084F831006A
:1016200084F8280010BD00B581B01C3000F08FFD9B
:1016300008B14FF0FF3001B000BD0120087000225A
:1016400010204A708A70CA704A608860CA600020A0
:10165000DFF84C2308614A618861704710B5044681
:1016600094F8290001280FD094F8312094F8301014
:1016700094ED0B0A204600F003FB10B14FF0FF3051
:1016800010BD012084F82900002010BD10B50446CB
:1016900094F8290050B1002104F11C0000F065FC11
:1016A00010B14FF0FF3010BD84F8290010BD0000CC
:1016B00070B582B006460C46694606F11C0000F083
:1016C00011FD002530B90DF1010106F11C0000F0FB
:1016D000DFFB18B14FF0FF3002B070BD9DF8011074
:1016E0001B2931D8DFE801F00E1C1C1C1C303030E7
:1016F0000E1C1C1C303030300E1C1C1C1C303030BA
:101700000E1C1C1C9DF80020032A1DD8DFE802F0E7
:10171000161902059FED650A1AE09FED650A17E0AC
:101720009DF8000003280FD8DFE800F00205080B41
:101730009FED600A0CE09FED600A09E09FED5F0AF3
:1017400006E09FED900A03E0BFEE000A4FF0FF3580
:1017500084ED000A284602B070BD000070B582B06A
:1017600006460C460DF1010106F11C0000F030FCAC
:10177000002528B9694606F11C0000F089FB18B164
:101780004FF0FF3002B070BD9DF80100222800F23A
:101790008380DFE800F012152D3033367E39506734
:1017A0008181818181818181128181818181818198
:1017B000818181818181818112009FED730A6FE0B7
:1017C0009DF800001B2800F26780DFE800F00E0E95
:1017D0000E0E116565650E0E0E0E656565650E0EC5
:1017E0000E0E116565650E0E0E0E9FED680A57E030
:1017F000B2EE090A54E0B3EE090A51E09FED640A23
:101800004EE09FED640A4BE09DF800001B2843D892
:10181000DFE800F03F3F3F3F0E4242423F3F3F3F45
:10182000424242423F3F3F3F0E4242423F3F3F3FE4
:101830009FED590A34E09DF800001B282CD8DFE802
:1018400000F0282828280E2B2B2B282828282B2B83
:101850002B2B282828280E2B2B2B282828289FEDD7
:101860004F0A1DE09DF800001B2815D8DFE800F0A6
:10187000111111110E141414111111111414141446
:10188000111111110E141414111111119FED440AAC
:1018900006E09FED440A03E0BFEE000A4FF0FF357B
:1018A00084ED000A284602B070BD000023DB7940B9
:1018B00023DBF94023DB793E23DBF93E23DB793F51
:1018C0000022002190F82930012B04BFC9B200F09A
:1018D000D7B9DFED350AB4EE600AF1EE10FA80F800
:1018E000301080F8312048BF9FED280A46D4DFED44
:1018F0002F0AB4EE600AF1EE10FA48BFB2EE090A00
:101900003CD4DFED2B0AB4EE600AF1EE10FA48BFCA
:10191000B3EE090A32D4DFED270AB4EE600AF1EE25
:1019200010FA48BF9FED1A0A28D4DFED230AB4EE5F
:10193000600AF1EE10FA48BF9FED160A1ED4DFEDE3
:101940001F0AB4EE600AF1EE10FA48BF9FED150AC7
:1019500014D4DFED1B0AB4EE600AF1EE10FA48BFB2
:101960009FED0D0A0AD4DFED170AB4EE600AF1EE1E
:1019700010FA4CBF9FED090A9FED090A80ED0B0A92
:101980000020704723DBF93F00000000CDCCCC3FA6
:10199000000048420000C8420000C843000048441C
:1019A0000000C84400004843CECCCC3F0100484171
:1019B0000100C841010048420100C84201004843FB
:1019C0000100C8430100484430B581B00C46694667
:1019D0001C3000F087FB002518B14FF0FF3001B03C
:1019E00030BD9DF8000003280BD8DFE800F00204AA
:1019F0000608022008E0042006E0082004E0102089
:101A000002E04FF0FF352846206001B0284630BD87
:101A100000B5032981B0B8BF002107DB0529B8BF95
:101A2000012103DB0929B4BF022103211C3000F08E
:101A300040FB08B14FF0FF3001B000BD70B584B07D
:101A400006460D46694606F11C0000F021FA002406
:101A500028B901A906F11C0000F070FB18B14FF085
:101A6000FF3004B070BD9DF800001B283BD8DFE8B4
:101A700000F00E242424243A3A3A0E2424243A3A3C
:101A80003A3A0E242424243A3A3A0E242424BDF966
:101A90000400C11000EB117000112880BDF9060090
:101AA000C11000EB117000116880BDF90800C11071
:101AB00000EB11700011A88017E0BDF9040041107F
:101AC00000EB917080102880BDF90600411000EBFA
:101AD000917080106880BDF90800411000EB917092
:101AE0008010A88001E04FF0FF34204604B070BDA4
:101AF0002DE9F04184B080460C46694608F11C008F
:101B000000F0C6F9002840F0AC8001A908F11C00E3
:101B100000F014FB002840F0A4809DF800001B2872
:101B200000F29F80DFE800F0210E0E0E0E9D9D9DBD
:101B3000210E0E0E9D9D9D9D210E0E0E0E9D9D9DB6
:101B4000210E0E0EBDF90450BDF90670BDF90860F6
:101B5000681005EB9075781007EB9077701006EB26
:101B60009076AD10BF10B61011E0BDF90450BDF96C
:101B70000670BDF90860E81005EB1075F81007EB6A
:101B80001077F01006EB10762D113F1136116946D3
:101B900008F11C0000F0A6FA002840F062800DF168
:101BA000010108F11C0000F073F9002859D19DF8DB
:101BB00001101B2955D8DFE801F0400E0E0E0E541F
:101BC0005454400E0E0E54545454400E0E0E0E54E7
:101BD0005454400E0E0E9DF80020032A41D8DFE831
:101BE00002F029023D3A9FED760A2DB200EE905A9E
:101BF000F8EEE00A60EE800AFDEEE00AC4ED000AAD
:101C00003FB200EE907AF8EEE00A60EE800AFDEE58
:101C1000E00AC4ED010A36B200EE906AF8EEE00A7E
:101C200020EE800ABDEEC00A84ED020A002004B056
:101C3000BDE8F0819FED630AD7E79DF80000032817
:101C40000FD8DFE800F00B0805029FED5F0ACCE734
:101C50009FED5E0AC9E79FED5E0AC6E79FED5D0A4C
:101C6000C3E74FF0FF3004B0BDE8F08100B581B0AC
:101C70001C3000F052FA08B14FF0FF3001B000BD47
:101C8000F0B504460D4681B0E8B2401E2DED028B42
:101C90000328B0EE408A164603D8DFE800F011169C
:101CA0001B20012EB2EE090A14BF04271427B4EE3C
:101CB000408AF1EE10FA20D5B0EE408A022164E0AD
:101CC000012E0CBF132703270DE0012E0CBF122796
:101CD000022708E0012E0CBF1127012703E0012E87
:101CE00014BF002710279FED3C0AB4EE408AF1EEA6
:101CF00010FAA8BF9FED398A33DA9FED390AB4EEA6
:101D0000408AF1EE10FA48BF01213ED49FED350A1A
:101D1000B4EE408AF1EE10FA01D5022135E09FEDD4
:101D2000320AB4EE408AF1EE10FA48BF03212CD4F7
:101D30009FED2E0AB4EE408AF1EE10FA48BF04215E
:101D400023D49FED2B0AB4EE408AF1EE10FA48BF7F
:101D500005211AD49FED200AB4EE408AF1EE10FA64
:101D600001D5062111E09FED230AB4EE408AF1EE81
:101D700010FA48BF072108D49FED1F0AB4EE408A2D
:101D8000F1EE10FA4CBF0821092104F11C0000F00B
:101D9000ECF828B9394604F11C0000F041F828B1EC
:101DA000BDEC028B4FF0FF3001B0F0BD84ED0B8A2B
:101DB00084F8305084F83160BDEC028B01B0F0BD86
:101DC00023DBF93E23DB793E23DBF94023DB79403B
:101DD00023DBF93F23DB793F010048430000484300
:101DE000CECCCC3F010048410100C841010048422F
:101DF0000100C8420100C8430100484410B5044630
:101E0000207B6469A04710BD10B50446207B24697F
:101E1000A04710BD10B50446A0682468A04710BDB7
:101E200070B5044682B00D46A068666801230DF1C6
:101E300001022021B04738BB9DF8011005F00C02CB
:101E400005F0030001F0F001024311438DF8011089
:101E5000A068266801230DF101022021B04798B93E
:101E6000A068666801236A462521B04760B99DF8DD
:101E700000002D0965F382008DF800000123A068A1
:101E800024686A462521A04702B070BD000000000A
:101E900070B5054682B00C46A8686E6801236A4694
:101EA0002021B04700285ED1A8686D6801230DF19C
:101EB00001022521A8479DF801109DF800209DF8FA
:101EC0000030890001F0100102F00C02511803F0FB
:101ED00003035918C9B21B2943D8DFE801F01814CD
:101EE000120E4242424224201E1A424242423230E4
:101EF0002C2A264242423E3C38360321217002B051
:101F000070BD02222EE00121217002B070BD0022BE
:101F100028E00B21217002B070BD0A2222E00921C5
:101F2000217002B070BD08221CE01421217002B0A3
:101F300070BD132216E01221217002B070BD112273
:101F400010E01021217002B070BD1B220AE01A219E
:101F5000217002B070BD192204E01821217002B076
:101F600070BD0422227002B070BD70B5044682B00C
:101F70000D46A068666801230DF101022021B047DB
:101F800018BB9DF8010000F00F0040EA05108DF825
:101F900001000123A06826680DF101022021B0474D
:101FA00098B9A068666801236A462221B04760B9E3
:101FB0009DF800002D0965F301008DF80000012354
:101FC000A06824686A462221A04702B070BD0000C4
:101FD00070B5054682B00C46A8686E6801230DF105
:101FE00001022021B047002848D1A8686D6801236C
:101FF0006A462221A8479DF800109DF8012001F0B3
:102000000301120902EB0111491E212934D8DFE82E
:1020100001F01115171B1D212327293333333333C7
:102020003333332D33333333333333333333333386
:102030003333332F0123237002B070BD02211CE023
:102040000322227002B070BD042116E00522227026
:1020500002B070BD062110E00722227002B070BDF0
:1020600008210AE00922227002B070BD122104E0AA
:102070002222227002B070BD0021217002B070BD1A
:1020800070B5044682B00D46A068666801236A46B2
:102090002121B04758B99DF8000065F3C3008DF8C1
:1020A00000000123A06824686A462121A04702B0ED
:1020B00070BD70B5044682B00D46A0686668012305
:1020C0006A462521B04758B99DF8000065F3051010
:1020D0008DF800000123A06824686A462521A047E6
:1020E00002B070BD30B5044681B0A06864680D468A
:1020F00001236A462521A0479DF80010090901F037
:102100000301012906D004D3032903D038BF0221DB
:1021100000D30021297001B030BD30B5044681B034
:10212000A06864680D4601236A462721A0479DF8F0
:10213000001001F00101297001B030BD10B5044656
:102140000A46A068646806232821A04710BD10B580
:1021500004460A46A068646801230F21A04710BD09
:1021600070B5044682B00D46A068666801236A46D1
:102170002121B04758B99DF8000065F382008DF821
:1021800000000123A06824686A462121A04702B00C
:1021900070BD70B5044682B00D46A0686668012324
:1021A0006A462E21B04768B99DF8000000F01F0074
:1021B00040EA45108DF800000123A06824686A46B3
:1021C0002E21A04702B070BD2DE9F043050081B07B
:1021D00000F0FF81DFF8D077BC68FE682878C10680
:1021E00004F00C0406F0030640F1E4811CB10C2C51
:1021F00008BF012E5AD13868810703D5A869002885
:1022000000F0E781396808074EBF3968D7F89410A5
:102210000909286A01F0F001814216D200F085FB1D
:10222000002840F0D681386840F0080038603968EE
:10223000286A21F0F001014339607968E86921F4E6
:102240007F4141EA0021796017E0386840F00800DA
:1022500038603968286A21F0F001014339607968F3
:10226000E86921F47F4141EA002179602CB9286AAC
:1022700000F05BFB002840F0AC8100F0F6FABA6891
:10228000DFF83017C2F30312895CDFF8202701F072
:102290001F01C8401060DFF81807006800F0A0FBBD
:1022A000010000F0878101B0BDE8F083A869A0B10A
:1022B000396841F00101396000F0B6FB80463868AA
:1022C000810700F1668100F0AFFBA0EB0800032856
:1022D000F5D3032001B0BDE8F08338684008400022
:1022E000386000F0A1FB80463868810740F16281C8
:1022F00000F09AFBA0EB08000328F5D3032001B0FF
:10230000BDE8F0836868B0F5803F04D1386840F4D8
:102310008030386011E0B0F5A02F386806D140F465
:1023200080203860396841F4803105E020F4803045
:102330003860396821F480213960686880B100F024
:1023400073FB80463868810300F1478100F06CFB25
:10235000A0EB08006528F5D3032001B0BDE8F083A9
:1023600000F062FB80463868810340F1368100F05E
:102370005BFBA0EB08006528F5D3032001B0BDE8A6
:10238000F08300BF00F050FB801B0328C0F04C819D
:10239000032001B0BDE8F083E86898B1396841F4E2
:1023A0008071396000F040FB06463868410500F155
:1023B000248100F039FB801B0328F6D3032001B0F1
:1023C000BDE8F083386820F48070386000F02CFBA2
:1023D00006463868410540F1178100F025FB801B57
:1023E0000328F6D3032001B0BDE8F0834008400085
:1023F000C7F8940000F018FB4FEA0006D7F89400E5
:10240000810740F1168100F00FFB801B0328F5D3F4
:10241000032001B0BDE8F0830528D7F8900008D16B
:1024200040F00400C7F89000D7F8900040F0010099
:1024300007E040084000C7F89000D7F8900020F06F
:102440000400C7F89000A86898B100F0EDFA804643
:1024500041F28939D7F89000810700F1228100F01C
:10246000E3FAA0EB08004845F4D3032001B0BDE82F
:10247000F08300F0D9FA804641F28939D7F890000C
:10248000810740F10E8100F0CFFAA0EB080048452B
:10249000F4D3032001B0BDE8F08300F400328A4297
:1024A0000FD1EA6B520800F4C001521EB1EB425F3B
:1024B00007D1296C490800F0C060491EB0EB416F9C
:1024C00028D00C2C00F085803868410100F1818013
:1024D0003868C10000F17D80386820F08070386075
:1024E00000F0A2FA04463868810140F1008100F052
:1024F0009BFA001B0328F6D3032001B0BDE8F0834C
:1025000000F092FA401B0328C0F01881032001B0AC
:10251000BDE8F0833868810100F11481386840F02B
:1025200080703860F96841F08071F96000F07CFAE1
:1025300004463868810100F1058100F075FA001B3E
:102540000328F6D3032001B0BDE8F0830C2C40D063
:10255000386820F080703860396811F0205F03D14E
:10256000F86880088000F860F968DFF84C040140E2
:10257000F96000F059FA04463868810140F1E280C0
:1025800000F052FA001B0328F6D3032001B0BDE887
:10259000F083386840F0080038603968286A21F014
:1025A000F001014339607968E86921F47F4141EA2B
:1025B000002179602878C1070FD5082C04D00C2C95
:1025C00008BF032E7FF49EAE3868810305D5686886
:1025D00018B9012001B0BDE8F0832878810713D530
:1025E000042C04D00C2C08BF022E7FF4D5AE386822
:1025F000410502D5E8680028EBD07868296920F009
:10260000F85040EA016078602878010711D56869C0
:102610000028D7F894003FF4E9AE40F00100C7F875
:10262000940000F001FA0646D7F8940081077FF580
:10263000A9AE2878410739D5B86D0026C10009D464
:10264000B86D40F08050B8650126B86D00F080503C
:1026500000900098DFF86483D8F80000C10517D413
:10266000D8F8000040F48070C8F8000000F0DCF9F1
:102670004FEA0009D8F80000C10509D400F0D4F9E8
:10268000A0EB09000328F5D3032001B0BDE8F083D7
:10269000A86801287FF4C0AED7F8900040F0010090
:1026A000CFE61EB1B86D20F08050B865A86A00284A
:1026B00048D002287FF44AAFF868EA6A00F00301C4
:1026C000914201BF00F070012A6B521EB1EB021F54
:1026D0007FF4F7AE6A6B00F4FE41B1EB022F7FF49A
:1026E000F0AEA96B07290CBF00210121D5E6FA68DD
:1026F000DFF8CC12E86A0A40296B0243491E686B76
:1027000042EA0112E96B490842EA0022286C491E9C
:10271000400842EA4152401E42EA4062A86B00096A
:1027200042EA4042FA60386840F080703860F968E8
:1027300041F08071F96000F077F905463868810151
:102740007FF5DEAE002001B0BDE8F0832DE9F04357
:10275000040081B0884600F08480DFF86862306849
:1027600000F00700404509D23168C90848EAC101B4
:102770003160306800F00700404572D12078DFF802
:102780002852C10755D56068032802D129688A01FB
:1027900008E0022802D129688A0303E0002829689A
:1027A00005D18A0705D4012001B0BDE8F0834A05B0
:1027B00057D5A968890840EA8100A86041F28939A3
:1027C00000F032F90746A868616800F00C00B0EB31
:1027D000810F2ED000F028F9C01B4845F3D3032009
:1027E00001B0BDE8F0832078410705D5AA68E0680C
:1027F00022F4E0620243AA602178080706D5A9689E
:10280000206921F4605141EAC001A96000F02DF86F
:10281000AA686849C2F30312895C644A01B001F0F6
:102820001F01C8401060BDE8F0436148006800F037
:10283000D7B82078810705D5AA68A06822F0F002F1
:102840000243AA60316801F007018845CBD23068A5
:10285000C00848EAC0003060316801F00701414516
:10286000C1D0012001B0BDE8F0834F4B9968D3F887
:102870000CC00022002011F00C010CF0030C04D05D
:102880000C2914D1BCF1010F1BD11A685FEA027C3C
:10289000DFF838C159BFD3F89420C2F303221A6875
:1028A000C2F303125CF8222049B91046704704298C
:1028B00001D14748704708291ED1464870470C2966
:1028C0001AD1D86800F00300022803D0032808BFFB
:1028D000404A00E03E4AD968D868DB68C0F3062069
:1028E0004243C1F30210C3F34161401C491CB2FBD7
:1028F000F0F04900B0FBF1F070472C48324A006814
:1029000013683549C3F30222895C01F01F01C840F6
:10291000704726482C4A006813682F49C3F3C22227
:10292000895C01F01F01C840704770B52B4E82B022
:10293000044630680025C10002D500F07BF80EE0A7
:10294000306840F080503060316801F08051009173
:10295000009800F06FF8316821F080513160B0F5D7
:10296000007F05D1802C0DD9A12C0AD3022509E0C6
:10297000802C88BF032505D801D1022502E0702CE8
:1029800000D10125D6F8A80FC00845EAC000C6F856
:10299000A80FD6F8A80F00F00700A84214BF012026
:1029A000002002B070BD000000100240E4060020CC
:1029B000B4060020F07A0008FFFFEEFE0070004031
:1029C0008C809DF90020024008100240088D00080C
:1029D0000024F40000127A00348E000858100240DF
:1029E00070B50F4E0446B0680025A8B14FF47A7157
:1029F0000C4AB1FBF0F11068B0FBF1F000F063F8A5
:102A000050B9102C08D2002221464FF0FF3000F0C0
:102A100026F87460284670BD0125284670BD00BFA9
:102A2000B0060020E406002001480068704700BF9F
:102A3000B0060020DFF80800006800F4C0607047AE
:102A400000700040284B19684FF6FF020002114049
:102A500000F4E0600843254908431860704730B42B
:102A6000214B1C68C4F30223C3F10704052C28BFC3
:102A700004241D1D072D34BF0023DB1E012505FA8C
:102A800004F4641E2140994005FA03F35B1E1A40CA
:102A900011430901020003D41548815430BC70472A
:102AA000144B02F00F021A4402F8041C30BC7047A9
:102AB000010007D4012200F01F010F4B8A4040099A
:102AC00043F820207047401EB0F1807F01D30120E1
:102AD00070470A494860F02081F8130D00228A608F
:102AE00007200860002070470CED00E00000FA05A8
:102AF00000E400E018ED00E000E100E010E000E09C
:102B000010B5040001D1012010BD94F8410028B98E
:102B1000002184F84010204600F035FC242084F881
:102B20004100206801684908490001606068216827
:102B300020F0706008612068816821F400418160A4
:102B4000E06821680128A0680CBF40F4004040F410
:102B500004408860E068022803D120684FF40061D7
:102B600041602068416841F0007141F400414160DA
:102B70002068C16821F40041C16060692169A269CF
:102B80000143206841EA0221C160206AE1692268AC
:102B9000014311602068016841F0010101600020DB
:102BA0006064202184F84110206384F8420010BD45
:102BB00010B5040001D1012010BD242084F841008B
:102BC00020680168490849000160204600F001FCC6
:102BD0000020606484F84100206384F8420084F897
:102BE000400010BD2DE9F04F054683B095F8410037
:102BF00020280E4692469B4640F0D480DDF8309067
:102C0000B9F1000F02D00D9F380006D14FF40071CA
:102C10006964012003B0BDE8F08F95F840000128F9
:102C200000F0C080012185F84010FFF7FDFE8046CE
:102C300028688169080440F1B980FFF7F5FEA0EB30
:102C400008001A28F4D3686C40F020006864202142
:102C500085F84110002085F8420085F8400003B057
:102C60000120BDE8F08F688DDFF8B873B0F5807F84
:102C7000C6F309062FD3FF212985DFF8AC032968A5
:102C80004A683A40324302434A60286881698A07A9
:102C90002DD442462146284600F0C9FA002869D1C1
:102CA00014F1010FF1D0FFF7BFFEA0EB0800844242
:102CB00001D3002CE9D1686C40F020006864202129
:102CC00085F84110002085F8420085F8400003B0E7
:102CD0000120BDE8F08F688D2885C0B229684A6858
:102CE0003A40324342EA004242F00072CCE7696A5D
:102CF0000A788262686A411C6962688D411E698532
:102D0000288D411E2985688D58B389B249BB286832
:102D100081690A066AD414F1010FF8D0FFF784FE26
:102D2000A0EB0800844201D3002CF0D1686C40F085
:102D300020006864202185F84110002085F84200B9
:102D400085F8400003B00120BDE8F08F698D29852A
:102D5000C9B242683A40324342EA014242F000724C
:102D60004260688D002890D121464246284600F0F6
:102D700039FA18B1012003B0BDE8F08F296820208E
:102D8000C8612968DFF8A4024A6802404A6020212D
:102D900085F84110002085F8420085F8400003B016
:102DA000BDE8F08F022003B0BDE8F08F0E9C21201B
:102DB00085F84100402185F8421000206864C5F87C
:102DC00024906F8568635B465246CDF8048000947A
:102DD0003146284600F033F900283FF444AF002084
:102DE00085F8400003B00120BDE8F08F698DB1F592
:102DF000807FABD3FF222A854168DFF82C2239403F
:102E0000314311434160ACE72DE9F04F074683B0F1
:102E100097F8410020280E4692469B4640F0CE800F
:102E2000DDF83090B9F1000F1CBFDDF83480B8F147
:102E3000000F06D14FF400717964012003B0BDE8A2
:102E4000F08F97F84000012800F0B880012187F842
:102E50004010FFF7E9FD054638688169080440F134
:102E6000B180FFF7E1FD401B1A28F5D3786C40F0E4
:102E700020007864202187F84110002087F8420064
:102E800087F8400003B00120BDE8F08F788DDFF8AF
:102E9000A011B0F5807FC6F3090627D3FF223A853B
:102EA000DFF890013A68536819403143014351609B
:102EB000386881694A0727D414F1010FF8D0FFF769
:102EC000B3FD401B844201D3002CF1D1786C40F05B
:102ED00020007864202187F84110002087F8420004
:102EE00087F8400003B00120BDE8F08F788D388569
:102EF000C0B23A6853681940314341EA004141F099
:102F0000024141F41051D2E7406A796A0870786A48
:102F1000421C388D7A62411E3985788D421E7A8531
:102F2000788D50B389B241BB386881690A0669D48B
:102F300014F1010FF8D0FFF777FD401B844201D355
:102F4000002CF1D1786C40F020007864202187F8C3
:102F50004110002087F8420087F8400003B00120AC
:102F6000BDE8F08F7A8D3A85D2B24368194031437B
:102F700041EA024141F000714160788D002897D10B
:102F80002A462146384600F02DF918B1012003B039
:102F9000BDE8F08F39682020C8613968DFF88C00FF
:102FA0004A6802404A60202187F84110002087F8D3
:102FB000420087F8400003B0BDE8F08F022003B064
:102FC000BDE8F08F0E9C222087F84100402187F851
:102FD000421000207864C7F82490A7F82A8078630C
:102FE0005B465246019500943146384600F076F82B
:102FF00000283FF44BAF002087F8400003B00120C9
:10300000BDE8F08F7A8DDFF81C10B2F5807FA9D370
:10301000FF233B854268DFF81030114031431943EC
:10302000AAE70000009C00FC0000FF0100E800FE91
:10303000009800FC0024FF8190F8410070472DE9C2
:10304000F041054616462A68069C079F2248984686
:1030500053680340C1F3090119435FFA88F041EA5C
:10306000004141F0014141F4005151603A4621468E
:10307000284600F08FF840BBB8F1010F08D029684E
:10308000300A88623A462146284600F083F8E0B9C3
:103090002868F6B2866229688869010618D414F196
:1030A000010FF8D0FFF7C0FCC01B844201D3002CF5
:1030B000F1D12021686C40F02000686485F841104F
:1030C000002085F8420085F840000120BDE8F0812D
:1030D0000020BDE8F0810000009800FC2DE9F041DF
:1030E000054616462A68069C079FDFF8C4019846E5
:1030F00053680340C1F3090119435FFA88F041EABC
:10310000004141F0004141F4005151603A462146EE
:10311000284600F03FF840BBB8F1010F08D02968FD
:10312000300A88623A462146284600F033F8E0B972
:103130002868F6B2866229688869410618D414F1B5
:10314000010FF8D0FFF770FCC01B844201D3002CA4
:10315000F1D12021686C40F02000686485F84110AE
:10316000002085F8420085F840000120BDE8F0818C
:103170000020BDE8F0810000006881698A0744BF33
:10318000002181628169CA0703D4816941F001018C
:103190008161704770B505460C46164628688169FE
:1031A00088071DD432462146284600F040F8A8B9C9
:1031B00014F1010FF2D0FFF737FC801B844201D3DA
:1031C000002CEBD1686C40F020006864202185F869
:1031D0004110002085F8420085F84000012070BDB4
:1031E000002070BD70B505460C46164628688169FA
:1031F00088061AD432462146284600F018F890B9BD
:10320000FFF712FC801B844201D3002CEED1686CC6
:1032100040F020006864202185F84110002085F8E6
:10322000420085F84000012070BD002070BD70B5DF
:1032300005460C4628688169C80616461BD52868CD
:1032400081698A0619D414F1010FF8D0FFF7ECFB5D
:10325000801B844201D3002CF1D1686C40F0200027
:103260006864202185F84110002085F8420085F827
:103270004000012070BD002070BD1021C1612020E0
:103280002A68D0612846FFF777FF296809484A680D
:1032900002404A602020696C41F00401696485F8AD
:1032A0004100002185F8421085F84010012070BDD2
:1032B000009800FC00E800FE10B54B4CB4B020684C
:1032C00040F080502060216801F08051009100980A
:1032D00000F094F84549086890B90C21019100224A
:1032E00001210B920391069201A8FEF76DFF08B130
:1032F00000F07FFB4FF4003112914FF4807211E027
:103300000C210191002201210B920691039201A848
:10331000FEF75AFF08B100F06CFB4FF40031129138
:103320004FF40072339212A800F0AEFB08B100F027
:1033300060FBA06B40F40040A06300220F21292015
:10334000FFF78DFB2920FFF7B3FB34B010BD0068F9
:103350002749884200D0704700B5234881B00268F1
:1033600042F0020202600022006800F002000090B9
:103370000F2100981D20FFF772FB01B05DF804EBF0
:103380001D20FFF795BB00B51A4887B0C16841F40E
:103390000011C160C16801F4001100910099026838
:1033A00042F0020202604FF44071006800F0020037
:1033B000009012220098104801910292012103917D
:1033C000032204210591049201A900F03FFE07B0F9
:1033D00000BD0548016821F4001101604FF44071FF
:1033E000054800F021BF00005810024020080020CE
:1033F000000400404C1002400004004802480168EC
:1034000041F4807101607047007000402DE9F04781
:103410002DED028BADF52A7D00F0BAFF00F0C8FF5C
:1034200000220E214FF0FF30FFF719FB002001F0C2
:103430007DF80121002001F0C9F8DFF81006DFF85F
:103440001046016841F4805101600321006800F4D6
:10345000805000900098002001F038F904210220EB
:1034600001F034F99FED220A0221002001F04BFA0D
:1034700004220221002001F064FA01F0A3FB01A95B
:103480000DA801F0BBFB01F0C5FC0C211691002238
:103490000121209218911B9216A8FEF795FE002894
:1034A0001ABF0120F921FF21E1600A467F21DFF8E0
:1034B000A435A1601860C4F884204021DFF8980585
:1034C0002060002261602261A261E261204601F079
:1034D0000BFD78B1002001F051F8642001F0FEFEF0
:1034E000002001F05AF8642001F0F8FEF2E700BF76
:1034F0000000484201218DF8031001228DF80210CE
:103500008DF801208DF800206946204601F0D3FD9A
:1035100060B1002001F032F8642001F0DFFE0020ED
:1035200001F03BF8642001F0D9FEF2E70021089198
:103530000B910C91012208A9204601F023FD60B1F6
:10354000002001F01BF8642001F0C8FE002001F00B
:1035500024F8642001F0C2FEF2E7DFF800056062A3
:1035600049F63F41A1620020E062272160632163A8
:1035700004F1240001F0C8FE4FF48050169016A903
:1035800004F1240001F0B8FF002108910A9104F130
:10359000240008A902F0D0F8002000F0EFFF4FF45B
:1035A000FA7001F09BFE002000F0F7FF0FF2B0452B
:1035B0000FF2C8470FF2B8486426B7EE008A27A872
:1035C00001F08CFB012807D09DF8A000322804BF31
:1035D00027A802F009F900BF94F87C00012869D1FE
:1035E000002184F87C10002000F0D7FF02F091FA4F
:1035F00000200290039004908DED058A8DED068ADF
:103600008DED078A02A801F012FB98E80E0097E8FA
:10361000004616A80DF1200C80E80E008CE800464C
:1036200027A802F0D7F8D22109228DF8A2108DF830
:10363000A32016A90C220DF1A50002F0C9FA0C2254
:1036400008A90DF1B10002F0C3FA012200210DF129
:10365000BD0002F0B1FB1E20279027A801F0B4FBAB
:10366000002000F0A9FF4FF4FA7001F037FE0020AF
:1036700000F0A2FF4FF4FA7001F030FE002000F0DD
:103680009BFF4FF4FA7001F029FE002000F094FF38
:103690004FF4FA7001F022FE002000F08DFF4FF48D
:1036A000FA7001F01BFE002000F086FF4FF4FA7064
:1036B00001F014FE94F87E0001287FF480AF002111
:1036C00084F87E10002208A9204601F0C0FC0022E8
:1036D0006946204601F042FD9DF8200009998DF8C9
:1036E000A7019DF821008DF8A8019DF822008DF812
:1036F000A901D4F88400411A7143401C91FBF0F0F9
:103700008DF8AA01D4F88000C10617D504F164022F
:103710000221002001F0B0F8616E6DA80422C01CE7
:1037200002F04AFBA16E6EA80422C01C02F044FB0A
:10373000E16E6FA80422C01C02F03EFBD4F88000AA
:10374000810617D508AA0121002001F095F80899F3
:1037500070A80422C01C02F02FFB099971A8042252
:10376000C01C02F029FB0A9972A80422C01C02F0B6
:1037700023FB00BFD4F88000410616D508AA042117
:10378000022001F079F8089973A80422C01C02F005
:1037900013FB099974A80422C01C02F00DFB0A99BE
:1037A00075A80422C01C02F007FB08A895EC040AC7
:1037B00080EC040AFFF738F98146D4F88000C1068E
:1037C0004ED594ED190AB8EEC00ADFED9E0AC0EEA0
:1037D000200ACDED080ADFED9B0A94ED1A0AD4F811
:1037E0008800B8EEC00AC0EE200ACDED090ADFED70
:1037F000950A94ED1B0AB8EEC00AC0EE200AA9EBA8
:103800000000CDED0A0A00EE100AB8EE400ADFED26
:103810008D0AC0EE200ACDED0B0A002000F0AEFEAE
:1038200008A801F0E7F994F87D1004F1700001F0A8
:10383000E3F9002000F0B1FE76A894ED1C0AC01C4C
:1038400002F0D5FA77A894ED1D0AC01C02F0CFFA59
:1038500078A894ED1E0AC01C02F0C9FAC4F888903A
:1038600068A801F0B7FF4320689068A801F0ACFA9F
:10387000A5E60000F0B581B00026754F8DF8006018
:103880000446D7F88000C3060D463FD507F1640211
:103890000221002000F0F0FFAE4234D26A4602213D
:1038A000002002F0ABFA88BB9DF800000128F5D19A
:1038B00007F164020221002000F0DEFF30BB06EBBE
:1038C000460097ED190A04EB8000B8EEC00ADFED60
:1038D0005D0AC0EE200AC0ED000A9FED5A0A97ED7E
:1038E0001A1AB8EEC11A81EE000A80ED010A9FEDA6
:1038F000550AD7ED1B0AF8EEE00A80EE800A80ED4B
:10390000020A761CC8E7002001B0F0BD012001B01A
:10391000F0BD000030B581B004460D4600204C4992
:103920000090D1F88020D00603D40022226001B09C
:1039300030BD0221002000F061FF6A460221002014
:1039400000F0BEFF9DED000ADFED3F0AB4EE600A15
:10395000F1EE10FA09DB00EE105AB8EE400A9DEDC8
:10396000001A80EE010A84ED000A01B030BD00B5F6
:1039700081B08DF803008DF801108DF802208DF8CC
:10398000003000226946324801F095FB60B100200A
:1039900000F0F4FD642001F0A1FC002000F0FDFD2A
:1039A000642001F09BFCF2E701B000BD10B586B0C9
:1039B00000248DF802208DF800008DF801100022FF
:1039C0000192039204928DF803406946204801F069
:1039D000D9FA60B1002000F0D1FD642001F07EFC36
:1039E000002000F0DAFD642001F078FCF2E706B078
:1039F00010BD00B581B0002000F0C0FD642001F0D2
:103A00006DFC002000F0C9FD642001F067FCF2E7C6
:103A1000B0F5005F00D0704700B581B0002000F025
:103A200021FE18B90A49012081F87C0001B000BDCF
:103A300000680A49884203D10548012280F87E20A7
:103A40007047000000007A447012833A4810024028
:103A5000F806002020080020002800400004004054
:103A60000000000000000000000000000000000056
:103A70000000000000000000000000000000803F87
:103A80000000803F0000803F2DE9F047054682B0EE
:103A90002868DFF85C6300270105B84625D5686E05
:103AA00070B1B0F5800F18D0B0F5000F03D0B0F5AD
:103AB000400F0AD017E0326842F48032326005E0ED
:103AC0000021281D00F096F907466FB9F16F686E66
:103AD00021F440010143F16707E0002105F12000D6
:103AE00000F022FAF0E70127B8462868C10426D57D
:103AF000A86EA8B1B0F1807F18D0B0F1007F03D0DC
:103B0000B0F1407F04D018E0316841F48031316079
:103B1000A7B9F16FA86E21F040710143F1670EE083
:103B20000021281D00F066F90746F1E7002105F1A4
:103B3000200000F0F9F90746EAE70127B8462868AF
:103B400081032BD5F06C0024C10009D4F06C40F047
:103B50008050F0640124F06C00F0805000900098D8
:103B6000DFF8C093D9F8000040F48070C9F8000075
:103B7000FEF75AFF4FEA000AD9F80000C10500F12C
:103B80000281FEF751FFA0EB0A000328F4D30327BC
:103B9000B8461CB1F06C20F08050F0642878C10762
:103BA00005D5F26FA86B920840EA8202F267297885
:103BB000880705D5F16FE86B21F00C010143F1672F
:103BC0002978480705D5F16F286C21F030010143B1
:103BD000F1672978080705D5F16F686C21F0C001FD
:103BE0000143F1672978C80605D5F16FA86C21F467
:103BF00040710143F1672978880605D5F16FE86CBB
:103C000021F440610143F1672968880505D5F16F0A
:103C1000E86D21F440210143F1672968480505D585
:103C2000F16F286E21F440110143F16729784806AD
:103C300005D5F16F286D21F440510143F1672978D2
:103C4000080605D5F16F686D21F440410143F16725
:103C50002968C80505D5F16FA86D21F440310143ED
:103C6000F1672968880422D5F16FE86E21F0406180
:103C70000143F167E86EB0F1006F0ED1306840F497
:103C80008010306013E000BFFEF7CEFEC01B484539
:103C9000C0F09E804FF003087BE7B0F1806F06D143
:103CA0000121281D00F0A6F8010018BF80462868F1
:103CB000010318D5F26F286F22F040620243F267C9
:103CC000286FB0F1006F04D1306840F4801030608C
:103CD00009E0B0F1806F06D10121281D00F08AF8BB
:103CE000010018BF80462868410318D5F26F686F3D
:103CF00022F040620243F267686FB0F1006F04D1B6
:103D0000306840F48010306009E0B0F1806F06D177
:103D10000121281D00F06EF8010018BF80462868B8
:103D2000410419D5F26FA86F22F040520243F267A6
:103D3000A86FB0F1805F04D10221281D00F05AF86D
:103D400007E0B0F1005F07D1022105F1200000F08B
:103D5000EBF8010018BF80462868010405D5F26F12
:103D6000E86F22F080420243F2672968C80306D553
:103D7000F16FD5F8800021F000410143F167404622
:103D800002B0BDE8F087002F7FF402AFD6F88400C0
:103D900010F440701CBFD5F88410884211D0D6F8BA
:103DA0008400D6F8841041F48031C6F8841020F4E1
:103DB0004070D6F8841021F48031C6F88410C6F81B
:103DC0008400C00709D5FEF72FFE074641F2893966
:103DD000D6F8840081077FF557AFD6F88420D5F850
:103DE000840022F440720243C6F88420D1E6000029
:103DF0000C1002402DE9F0410746DFF840623868B8
:103E00000C46F168002511F0030F11D0F16801F0A4
:103E10000301814243D1002841D0F0687968C0F3A2
:103E20000210401C884219D001252846BDE8F081C7
:103E3000012807D033D303282BD023D301252846CC
:103E4000BDE8F0813268910729D5F268796822F0DF
:103E500073021043491E40EA0110F060306820F000
:103E600080603060FEF7E0FD80463068010144D597
:103E7000FEF7DAFDA0EB08000328F6D30325284659
:103E8000BDE8F08131684A05DFD401252846BDE848
:103E9000F08131688A03D8D431684A03D5D401252A
:103EA0002846BDE8F081012C326909D13B6964489C
:103EB00002405B0842EA01215B1E41EA435108E0EF
:103EC0007B69604802405B0842EA01215B1E41EACF
:103ED00043613161306840F080603060FEF7A4FDDE
:103EE00004463068010115D4FEF79EFD001B03282F
:103EF000F7D303252846BDE8F081B968002CD2D15C
:103F000032695148FB68024042EA01211B0941EA3B
:103F10004341DEE73169B869014331612846BDE8B4
:103F2000F0810000007000402DE9F0410746434E4B
:103F300038680C46F168002511F0030F11D0F168C4
:103F400001F00301814243D1002841D0F068796833
:103F5000C0F30210401C884219D001252846BDE854
:103F6000F081012807D033D303282BD023D3012598
:103F70002846BDE8F0813268910729D5F268796852
:103F800022F073021043491E40EA0110F0603068CD
:103F900020F080503060FEF747FD80463068810099
:103FA00037D5FEF741FDA0EB08000328F6D3032523
:103FB0002846BDE8F08131684A05DFD4012528464E
:103FC000BDE8F08131688A03D8D431684A03D5D47A
:103FD00001252846BDE8F0813B691A4802405B088C
:103FE00042EA01215B1E41EA43617161306840F0A1
:103FF00080503060FEF718FD04463068810015D40B
:10400000FEF712FD001B0328F7D303252846BDE861
:10401000F081B9687269002CDED10B48FB68024060
:1040200042EA01211B0941EA4341DEE771697869EF
:10403000014371612846BDE8F08100000010024094
:10404000FF809FFFFF80FFF9FF80FDFF2DE9F04F0C
:1040500081B00E464FF000093568C349C34AC44BCE
:10406000002D4FF00F0800F0DC8005460124306879
:1040700004FA09F4204000F0CD804FEA490C0327F0
:1040800007FA0CF76FEA070E7768012F18BF022FA7
:1040900003D0112F18BF122F14D1AF68D6F80CA07F
:1040A0000EEA07070AFA0CFA4AEA0707AF606F68D8
:1040B000D6F804A0CAF3001AA7430AFA09FA4AEA92
:1040C00007076F60776807F0030ABAF1030F09D199
:1040D000D5F82CA0C7F3C0072AEA040407FA09F7A9
:1040E0003C43EC62EC68B7680EEA040407FA0CF78C
:1040F0003C43EC607468022C18BF122C14D14FEAB8
:10410000D90405EB84044FEA8907D4F820A007F00E
:104110001C0708FA07FB2AEA0B0AD6F810B00BFABC
:1041200007F747EA0A0727622C680EEA0407347982
:1041300004F0030404FA0CF43C432C607468E400BB
:1041400068D51C6844F001041C604FEA990C1C6897
:1041500004F001040094B5F1904F009C52F82C70CB
:104160004FEA890404F00C0E08FA0EF427EA04045E
:1041700008BF00271ED07F4FBD4208BF012719D0BE
:104180007D4FBD4208BF022714D07C4FBD4208BFFF
:1041900003270FD07A4FBD4208BF04270AD0794FBA
:1041A000BD4208BF052705D0774FBD420CBF06278B
:1041B000072700BF07FA0EF73C4342F82C406FEA8E
:1041C000000C0C680CEA040E7468E70348BF40EA70
:1041D0000E0EC1F800E04C680CEA040E7468A703E8
:1041E00048BF40EA0E0EC1F804E08C680CEA040EE9
:1041F0007468E70248BF40EA0E0EC1F808E0CC68D8
:104200000CEA040E7468A40248BF40EA0E0EC1F81E
:104210000CE000BF09F10109306830FA09F07FF4C1
:1042200025AF01B0BDE8F08F2DE9F04F0F22884691
:10423000B8F1000F4FF0000B4B494C4B75D00446C2
:10424000012000FA0BFC1CEA080069D04FEA9B0E23
:104250004FEA8B0753F82E6007F00C0502FA05F9B8
:1042600009EA060AB4F1904F08BF00261ED0414E5D
:10427000B44208BF012619D03F4EB44208BF0226FF
:1042800014D03E4EB44208BF03260FD03C4EB44279
:1042900008BF04260AD03B4EB44208BF052605D00D
:1042A000394EB4420CBF0626072600BF06FA05F5B4
:1042B000AA4512D10D68C04305400D604D68054008
:1042C0004D608D6805408D60CD682840C86053F80A
:1042D0002E0020EA090043F82E0003254FEA4B0088
:1042E00005FA00F025680543256007F01C074FEA32
:1042F000DB0504EB850602FA07F7356A25EA0707AE
:104300003762C043A7680740A7606FEA0C0566687C
:104310002E406660E7683840E060E06A2840E0626E
:104320000BF1010B38FA0BF08AD1BDE8F08F006970
:104330000140481E8041C043C00F70470AB18161EF
:1043400070478162704742690A4201D081627047BA
:10435000816170470D4A136803421CBF1060FFF76C
:1043600057BB7047000000000004014008000140F6
:10437000601002400004004800080048000C00489B
:1043800000100048001400480018004814040140C0
:10439000032010B5FEF756FB0F20FEF721FB00248B
:1043A000002814BF012400F002F8204610BD704719
:1043B00030B597B069460022002300241CC10CC10F
:1043C00005A8442101F058FD60210D910022022131
:1043D0000C920F912822072112921391042202219C
:1043E000102501241492159105950B9410941194A5
:1043F00005A8FDF7E9FE08B1FFF7FBFA0F2003213E
:1044000000900191002202920392049204216846D6
:10441000FEF79CF908B1FFF7ECFA17B030BD016860
:10442000344A3548914226D3344AD0F800049142A8
:1044300008BF082148D0324A914208BF802143D0AA
:10444000304A914208BF4FF400613DD02E4A91425C
:1044500008BF4FF4004137D02C4A914208BF4FF4B7
:10446000002131D02A4A914214BF4FF000614FF42D
:10447000000108407047274A0068914205D0264B4A
:10448000994205D1802108407047082108407047B3
:10449000224A914206D0224B994207D14FF4004163
:1044A000084070474FF40061084070471D4A914230
:1044B00008D01D4B99420CBF4FF400014FF0006132
:1044C000084070474FF4002108407047006840687A
:1044D00070471549016000228260C26042618261BA
:1044E000802120220161C2614FF440510222016209
:1044F0004260704781000240000002400804024010
:104500001C040240300402404404024058040240AB
:104510006C040240080002401C00024030000240CF
:1045200044000240580002406C00024010B586B0C2
:1045300001A90022002300241CC10CC102000AD1E1
:10454000DFF834110A6842F001020A60096801F0DC
:104550000101009100990FF2301232F810300193EE
:104560000122029203940222049201A9DFF80C2195
:1045700052F82000FFF76AFD06B010BD10B40FF22C
:104580000813DFF8F84081B033F8101054F8200019
:1045900001B010BC0122FFF7D1BE10B40FF2E80346
:1045A000DFF8D84081B033F8101054F8200001B083
:1045B00010BC0022FFF7C2BE0FF2CC02DFF8BC3005
:1045C00032F8101053F82000FFF7BDBE30B587B0A9
:1045D000044601A80022002300252CC00CC02200A4
:1045E0000AD1DFF89400026842F004020260006819
:1045F00000F0040000900098080011D10FF28C0127
:1046000031F814200192029303930223DFF8702003
:10461000049301A952F82400FFF718FD07B030BD3C
:1046200001291DD10FF26401DFF8540031F8142084
:10463000DFF850100291019202210393049101A925
:1046400050F82400FFF702FD0FF2440030F8144048
:1046500000220F2160B2FEF702FA60B2FEF728FADC
:1046600007B030BD0FF22402DFF8143032F810101A
:1046700053F82000FFF75BBE4C100240DC06002020
:10468000E0060020000021102000000000200000B3
:10469000280030B4002513E050F8042BD30744BFA2
:1046A000A9F101039A18091F042942F8045BFAD200
:1046B00013468C0744BF15809B1CC90748BF1D705B
:1046C00050F8041B0029E7D130BC70472DE9F041B8
:1046D00004004FF0000888B00D46474605D0022C74
:1046E00045D03AD36FF0010884E0284600F04CF939
:1046F000002840D1DFF89824906B526C6946D3684B
:104700009847002845D19DF80000DFF8846401280F
:104710009DF8010008BF022701289DF8020008BF8C
:1047200047F00107012808BF47F00407E80735D51F
:10473000F90733D504EB440106EB8101B26A51F865
:1047400022100B6806EB8400806B9847002825D068
:104750006FF0040008B0BDE8F081284600F071F960
:1047600048B9DFF82C24D06B926C6946C7E728461D
:1047700000F0BBF920B14FF0FF3008B0BDE8F08188
:10478000DFF80C24106CD26CD36869469847002877
:10479000B9D06FF0060008B0BDE8F08105F0020066
:1047A000022804BF07F0020102290DD104EB4401E5
:1047B00006EB8101F26A51F822100B6806EB8400C7
:1047C000806B98470028C3D105F00405042D04BF71
:1047D00007F00407042F0DD104EB440106EB81011F
:1047E000726B51F822100B6806EB8400806B9847BF
:1047F0000028ADD1404608B0BDE8F08110B50246B2
:10480000032A17D2DFF8883303EB8200046D0C40D3
:104810008C420FD102EB420403EB810103EB8402D3
:104820004B6A52F82310806B0A68904720B16FF0F2
:10483000040010BD6FF0010010BD10B50246032A40
:1048400017D2DFF84C3303EB8200046D0C408C422E
:104850000FD102EB420403EB810103EB84024B6AAC
:1048600052F82310806B4A68904720B16FF0040023
:1048700010BD6FF0010010BD30B503460C46032B90
:1048800081B0114618D2DFF8082302EB8300056DD2
:104890002540A54210D103EB430502EB850302EB53
:1048A0008402546A53F82420806BD369984728B156
:1048B0006FF0040001B030BD6FF0010001B030BDF9
:1048C00030B503460C46032B81B0114617D2B04ACF
:1048D00002EB8300056D2540A54210D103EB430593
:1048E00002EB850302EB8402546A53F82420806BA8
:1048F000D368984728B16FF0040001B030BD6FF065
:10490000010001B030BD10B50246032A16D2A04BFB
:1049100003EB8200046D0C408C420FD102EB420489
:1049200003EB810103EB84024B6A52F82310806B86
:104930000A69904720B16FF0040010BD6FF00100CC
:1049400010BD30B503460C46032B81B0114617D27B
:104950008F4A02EB8300056D2540A54210D103EB81
:10496000430502EB850302EB8402546A53F82420CA
:10497000806B9369984728B16FF0040001B030BD97
:104980006FF0010001B030BDD721824A70B590B000
:1049900004468DF81010019200257F497F4A7C4E15
:1049A00002910692039506F15C007D497D4A0591CE
:1049B000079201A9FBF7E8FB50B9694606F15C00D4
:1049C000FBF794FC002804BF9DF800006B2804D07E
:1049D0006FF00605284610B070BD08A906F15C000E
:1049E000FBF78EFC9DF821009DF8202040EA420153
:1049F0009DF8222041EA82013165E20706F15C015F
:104A0000B1636949716408D5012806D167483060EF
:104A100006F15C000968884770B9A0070AD59DF8BF
:104A20002010012906D16248716C70600A68B06B71
:104A3000904708B9600701D56FF00405284610B00B
:104A400070BD3321534A70B590B004468DF81010F4
:104A5000019200255049514A4D4E0291069203950C
:104A600006F18C004E494F4A0591079201A9FCF7C7
:104A700055FD50B9694606F18C00FCF7D4FD0028BD
:104A800004BF9DF80000442804D06FF006052846B6
:104A900010B070BD08A906F18C00FCF7CEFD9DF8A2
:104AA00021009DF8201040EA41009DF8221040EAC4
:104AB0008100706506F18C00F063A0073D49B16488
:104AC0000AD59DF82020012A06D13B48306106F125
:104AD0008C000968884718B9E00701D4600701D540
:104AE0006FF00405284610B070BD3D21294A70B50D
:104AF00090B004468DF81010019200252649274AEF
:104B0000234E02910692039506F1C0002449254ADE
:104B10000591079201A901F0B3F950B9694606F170
:104B2000C00001F020FA002804BF9DF800004028D2
:104B300004D06FF00605284610B070BD08A906F134
:104B4000C00001F01AFA9DF821109DF820209DF870
:104B5000220041EA420141EA8001B165620706F1A3
:104B6000C00131641549F16408D5012806D1144803
:104B7000306206F1C0000968884718B9A00701D45F
:104B8000E00701D56FF00405284610B070BD0000A5
:104B90006C050020858A0008E78A0008378B00082A
:104BA0000F8B0008718B0008580600208C0600202F
:104BB00068060020040500201405002038050020A8
:104BC0004805002000B587B07320652175228DF857
:104BD00000008DF801108DF8022001F0E1FA68461E
:104BE00001F03AFB01A800F027F801A801F0C0FB92
:104BF00007B000BD01F02ABC01F082BD10B50C4623
:104C000001F0C6FD206010BD10B5ADF5966D0446EF
:104C100064216846FEF72EFE20B9224664216846CC
:104C200001F0DAFD0DF5966D10BD01F04DBF01F0FC
:104C30009FBB6421FEF76EBE2DE9F0411BA393E8F4
:104C4000E05186B06A46044682E8E0516946062093
:104C500000F048FF00992160039AE26001996160C9
:104C6000049A22610299A1600598606106B0002053
:104C7000BDE8F081F0B500BF12A292E8F84087B01D
:104C8000694681E8F84002680092C268CA604368D9
:104C90004B6002690A6183688B6042694A61062041
:104CA00000F0F4FE002007B0F0BD0000000000009E
:104CB00000000000000000000000803F0000803F76
:104CC0000000803F00000000000000000000000025
:104CD0000000803F0000803F0000803F2DE9F04F42
:104CE0008346DFF8F88181B008F18000FFF797FB79
:104CF0000027002864D108F18000FFF7E7FBB8F82F
:104D0000CC40C0F5007080B2A042AEBF051B00F5DC
:104D100000752D1BADB2002D0090B94640F34980BF
:104D200008F1D000005D641CA4B2B4F5007FA8BFF8
:104D30000024F02839D1B8F8CC404FF0000A09E03F
:104D40000419211204EBD1525212A4EB4224A4B252
:104D50007F1C82441FFA8AF0484519DA08F1D00016
:104D6000661CC6F30806005D08F1D001BBB2895D80
:104D70005B441A1D00F0A3FFC0B20028E0D1A8F8E0
:104D8000CC6001B0BDE8F08F012001B0BDE8F08F2C
:104D9000B8B2641CCBF80000C4F30804A8F8CC40F7
:104DA000584600F0BFFF0028EED109F10109A945DE
:104DB000B6DB40F201108542A4BF0099A8F8CC10E0
:104DC000002001B0BDE8F08F30B581B0044600F09E
:104DD00087FF424D214605F5357000F04DFF82B248
:104DE00005F53571284601B0BDE8304041F2883301
:104DF00001F0B8BE10B5394C04F18000FFF769FB33
:104E000004F1800002F046FA04F18000C4F8A840E2
:104E1000E06610BD10B53248304C86B0416841F0B4
:104E2000010141600723416801F0010100910099EF
:104E3000426842F001024260416801F001010091C4
:104E40000099026942F400320261016901F4003103
:104E500000910099026842F001020260042100689A
:104E600000F00100009002220098019102920021BE
:104E700003910492059301A94FF09040FFF7E6F8E3
:104E8000082101910722059201A94FF09040FFF7F8
:104E9000DDF8144820600020D4F8D012A060E06053
:104EA0002061A06161600C206061204601F028FE55
:104EB00000B1FEE7FFF79EFF04F1D00060654FF4FC
:104EC0000071A4F858100020E0670A4604F1D001F0
:104ED000204601F0EDFE06B010BD000000000020ED
:104EE000481002400044004030B504460120002C28
:104EF00081B045D094F8210028B9002184F8201011
:104F00002046FEF7D9F9022184F82110CA20226830
:104F10005062532120684162204600F04FF90100A1
:104F20002ED12168DFF86C038A6802408A6022680B
:104F3000936865682169A0690D4305432B4393601D
:104F40002068E168016120680169A26841EA0241C4
:104F50000161204600F055F9010011D12168CA6CA9
:104F600092089200CA642268D36CE56961690D43B6
:104F70002B43D364FF2223685A62012184F8211055
:104F800001B030BDF0B5054681B095F8200001288C
:104F90000E46144608BF022057D0012085F8200095
:104FA000022185F82110CA202A68506253212868FE
:104FB0004162284600F002F901003BD12868806870
:104FC000002C15D141065CBF0020F070307800F055
:104FD00069F90746707800F065F90402B07800F0CE
:104FE00061F944EA07440443F07844EA80540DE050
:104FF00041065CBF0020F07074783178B0782402EC
:1050000044EA0144F178044344EA81542968DFF812
:10501000880204400C602868826822F48022826042
:1050200029688A68F368306903431A438A6028460E
:1050300000F0E7F82A68FF215162030004BF012154
:1050400085F82110002285F8202001B0F0BD30B491
:105050000068836A4B600469C4F30E048C600368C3
:10506000DFF8340203401C0C04F03F040C708B701A
:105070001D0A9B0D4D70CB70D2B90878020902EB66
:10508000820300F00F0000EB43000870487802092B
:1050900002EB820300F00F0000EB430048708878B9
:1050A000020902EB820300F00F0000EB430088705E
:1050B000002030BC7047F0B5044681B094F8200061
:1050C00001280E4608BF02203CD0012084F82000B1
:1050D000022184F821107578B2BBE80603D505F0EB
:1050E000EF050A357570F07800F0DCF80746707847
:1050F00000F0D8F80502B07800F0D4F845EA07458A
:105100000543307845EA40352068CA214162532280
:1051100021684A62204600F051F8010007D1216859
:10512000DFF8780105404D60204600F06AF82268FB
:10513000FF215162030004BF012184F821100022E5
:1051400084F8202001B0F0BDF07831782D0245EAD6
:105150000045B078054345EA4135D5E730B40368EA
:10516000DFF838015B6803408B701D0A1C0C05F0EA
:105170001F055B0BCC704D7003F007030B70D2B9A9
:10518000C878020902EB820300F00F0000EB430035
:10519000C8704878020902EB820300F00F0000EBB0
:1051A000430048708878020902EB820300F00F0088
:1051B00000EB43008870002030BC7047F0B5044617
:1051C00081B02068C16800254A0617D44FF0FF312E
:1051D000C16040F2E936FDF727FC074608E000BF52
:1051E000FDF722FCC01BB04224BF032584F82150E8
:1051F0002168C868410601D4032DF1D1284601B0C9
:10520000F0BD2DE9F041264E0546706820F0800083
:10521000706000243168880619D42868C16821F0BC
:10522000A001C16040F2E937FDF7FEFB06462868A1
:10523000C16888062AD4FDF7F7FB801BB842F6D375
:10524000032085F8210003242046BDE8F081306862
:1052500020F02000306040F2E9382868C16821F071
:10526000A001C160FDF7E0FB07462868C168880619
:1052700008D4FDF7D9FBC01B4045F6D3032085F8C1
:1052800021000324306840F0200030602046BDE853
:10529000F0810000BFFF8FFF7F7F7F003FFFFF0097
:1052A0000828004000210A2813D30A38491CC2B23A
:1052B0000A2A21BF491C0A38C2B20A2A09D30A386D
:1052C000491CC2B20A2A21BF491C0A38C2B20A2AA2
:1052D000EBD240EA0110C0B27047000030B581B097
:1052E0000446FDF7A1FB14F1010F054602D0054964
:1052F00088680419FDF798FB401BA042FAD301B05F
:1053000030BD00BFB006002010B5040001D101205F
:1053100010BD94F83D0028B9002184F83C102046C7
:10532000FEF715F8022084F83D00211D206800F0EA
:105330008FF9012084F83D00002010BD0168C86885
:1053400040F00100C8608A68DFF844000240062A85
:1053500018BFB2F5803F03D0086840F00100086034
:10536000002070470068C16849084900C16041F2E7
:105370001112016A114202BF016A40F24442114215
:1053800003D101684908490001600020704700000E
:105390000700010010B50446206801698A0716D588
:1053A000C1688A0713D56FF00201016101222277DB
:1053B000806910F0030F204602D002F034F804E0B8
:1053C00002F032F8204602F030F800202077206802
:1053D00001694A0716D5C1684A0713D56FF0040161
:1053E000016102222277806910F4407F204602D0BA
:1053F00002F019F804E002F017F8204602F015F860
:1054000000202077206801690A0716D5C1680A07BD
:1054100013D56FF00801016104222277C06910F0F2
:10542000030F204602D001F0FEFF04E001F0FCFF74
:10543000204601F0FAFF0020207720680169CA06A3
:1054400016D5C168CA0613D56FF010010161082294
:105450002277C06910F4407F204602D001F0E3FFBC
:1054600004E001F0E1FF204601F0DFFF002020779B
:1054700020680169CA0708D5C168CA0705D56FF059
:10548000010101612046FEF7D3FA206801690A068E
:1054900008D5C1680A0605D56FF080010161204674
:1054A00001F0C4FF20680169CA0508D5C1680A0671
:1054B00005D56FF480710161204601F0B8FF2068C6
:1054C00001694A0608D5C1684A0605D56FF0400152
:1054D0000161204601F0ACFF206801698A060AD507
:1054E000C1688A0607D56FF0200101612046BDE83A
:1054F000104001F09EBF10BD70B490F83C20012A0E
:1055000008BF022000F0A280012280F83C20022384
:1055100080F83D30DFF8FC2103689C6814409C60F3
:105520000A68130018BF102A00F08180202A18BFD3
:10553000302A7CD0402A60D0502A29D0602A41D01D
:10554000702A03D0B2F5005F11D078E0CA684B68CA
:1055500004688968A56825F47F4529430B4343EA1D
:105560000223A36001688A6842F0770266E0CA6895
:105570004B6804688968A56825F47F4529430B4377
:1055800043EA0223A36001688A6842F4804255E03E
:10559000CA684B68016818318C688D686D086D00A9
:1055A0008D6024F00A040E6826F0F00646EA021622
:1055B0000E6023438B6001688A6822F0700242F01B
:1055C00057023BE0CA684B68016818318C6824F0C8
:1055D00010048C600C688D6824F4704444EA023432
:1055E00025F0A0050C6045EA03158D6001688A6806
:1055F00022F0700242F0670220E0CA684B6801683E
:1056000018318C688D686D086D008D6024F00A0477
:105610000E6826F0F00646EA02160E6023438B6001
:1056200001688A6822F0700242F0470206E00168D1
:105630008B6823F070031A4342F007028A6001214D
:1056400080F83D10002280F83C20002070BC70479C
:1056500030B4DFF8C4300468984218BFB0F1804F0E
:105660000FD0DFF8B82090421CBFDFF8B450A8423A
:1056700007D0DFF8B02090421CBFDFF8AC50A84242
:1056800013D14A6824F070041443984218BFB0F153
:10569000804F1AD0DFF8842090421FBFDFF880507F
:1056A000A842DFF8802090420FD0DFF87C50A8425B
:1056B0001CBFDFF87820904207D0DFF87450A84272
:1056C0001CBFDFF87020904203D1CA6824F44074F4
:1056D00014434A6924F080041443046098428C689F
:1056E000C4621CBFDFF8403098420A6882620AD068
:1056F000DFF8382090421FBFDFF834309842DFF8DF
:105700003420904201D1096901630122426130BC19
:10571000704700008800FEFF002C0140000400409C
:1057200000080040000C00400034014000400140EF
:105730000044014000480140F0B490F83C20012AA8
:1057400008BF022037D0012280F83C20022380F8D5
:105750003D300568194F6E68AC68BD421CBF184AE1
:10576000954203D14B6826F470061E430A6826F062
:10577000700616436E600268BA4218BFB2F1804FDD
:105780000DD0104B9A421CBF0F4DAA4207D00F4BB1
:105790009A421FBF0A4DAA420D4B9A4204D1896812
:1057A00024F080040C439460012280F83D20002105
:1057B00080F83C100020F0BC70470000002C014035
:1057C000003401400004004000080040000C00408C
:1057D00000400140A7490A78027132230821437131
:1057E0008171032202607047F0B5064687B03168C8
:1057F0000125012940F2DA803079322840F0D68044
:10580000B079012813D002282AD0082867D00928A7
:1058100000F094800C2800F0B1800E2814D052289B
:1058200000F0C280762839D07A2848D01DE10329BB
:1058300040F0BC80717931713222A0F18001727127
:10584000B171032030600CE1032940F0AF80717921
:105850003171322280387271B0710321316005E1FB
:10586000032940F0A380717932228038317172713E
:10587000B071F11D0020804A12F8013B01F8013B94
:10588000C01C12F8014B01F8014B272812F8017BCC
:1058900001F8017BF0D3C01C3060E2E00329C0F0C6
:1058A000858071793222803831717271B071042231
:1058B0000B21F01D00F080FA07203060D1E00329B1
:1058C00074D371793222803831717271B0710422CF
:1058D0000421F01D00F070FA07203060C1E00329B8
:1058E00064D30421F01D654C00F03FFA206020686D
:1058F000C10603D502210020FEF780FF2068810643
:1059000003D501210020FEF779FF2068410603D569
:1059100004210220FEF772FF5948FFF70FFD594995
:10592000544A0D70707910703071322070710322FA
:10593000B179A1F18000B071326092E0032935D3D2
:105940005049002008704E48FFF70CFD022100204E
:10595000FEF773FF01210020FEF76FFF04210220F4
:10596000FEF76BFF4549002008603220B17972795B
:1059700070713271A1F18000B07172E0032915D30A
:1059800071793171322280387271B07103213160C6
:10599000727A317AF079FEF709F8737B327BF17A0B
:1059A000B07AFDF7E4FF5CE0032902D2002007B0E3
:1059B000F0BD71793171322280387271B071042179
:1059C0003160F079401E09284BD8DFE800F0050966
:1059D0000C0E101214161E412B4A0021117040E0CB
:1059E00029490D703DE0042008E0052006E0022072
:1059F00004E0012002E0032000E00020FFF704F9AA
:105A00001C48C16A491CC1622BE001A8FFF70DF9CF
:105A100004460C2201A906F1090000F0D9F80C2275
:105A200004A906F1150000F0D3F80122214606F181
:105A3000210000F0C1F91E200E4F3060F96A0629DE
:105A40000FD314B901A8FFF715F90020F86208E098
:105A50006846FFF7EEF806F10901009A0A6009228C
:105A600032603046FFF7B0F900E00025284607B065
:105A7000F0BD0000D4040020D804002078070020E6
:105A80001C0700200B08002075070020F0B581B02E
:105A900004460F4600F03DF801F016FD4548464D1E
:105AA000816841F0404181604CF2FA320260002688
:105AB000200012D00023701CA0423A6838BF7B68D7
:105AC0002946002001F0B6FC00280CBF0835FDF780
:105AD00090FFB61C0837A642ECD301B0BDE8F040F9
