:020000040800F2
:1000000050960020F5A3000875A2000877A200080A
:1000100019A400081DA4000821A400080000000085
:1000200000000000000000000000000025A40008FF
:1000300079A200080000000029A400087BA20008A3
:100040002DA4000831A4000835A4000839A4000834
:100050003DA4000841A4000845A4000849A40008E4
:100060004DA4000851A4000855A4000859A4000894
:100070005DA4000861A4000865A4000869A4000844
:100080006DA4000871A4000875A4000879A40008F4
:100090007DA4000881A4000885A4000889A40008A4
:1000A0008DA4000891A4000895A4000899A4000854
:1000B0009DA400087FA20008A1A40008A5A4000830
:1000C000A9A40008ADA40008B1A40008B5A40008C4
:1000D000B9A40008BDA40008C1A40008C5A4000874
:1000E00085A20008C9A40008CDA40008D1A4000876
:1000F000D5A40008D9A40008DDA40008E1A40008E4
:10010000E5A40008E9A40008EDA40008F1A4000893
:10011000F5A40008F9A40008FDA4000801A5000842
:1001200005A5000809A500080DA5000811A50008EF
:1001300015A5000819A500081DA5000821A500089F
:1001400025A5000829A500082DA5000831A500084F
:1001500035A5000839A500083DA5000841A50008FF
:1001600045A5000849A500084DA5000851A50008AF
:1001700055A5000859A500085DA50008000000006D
:1001800061A5000865A500082DE9F04F2DED048B51
:10019000044C237885B03BB905B0BDEC048BBDE8B9
:1001A000F08F00BF280900206568019190ED008A5A
:1001B000D0ED018A90ED029AD0ED039A002D40F027
:1001C000CF81C4ED029AF0EE696ADB4B9FEDDB7ADA
:1001D000D4ED2A7A6E1CA3FB06235B0903EB830391
:1001E000A6EBC30304EB830393ED026AE6EE477AC2
:1001F000E6EE877AC4ED2A7ADFEDD17A69EEA77A46
:1002000017EE900A00F08EFDC7A3D3E9002301F09A
:1002100023F90022CB4B01F029F9C5A3D3E9002330
:1002200001F0D2F901F0BEFA9FEDC77AC74A6660C5
:1002300007EE900A67EE877AA2FB0513DB09AA2076
:10024000FDEEE77A00FB135504EB4503CDED007A94
:10025000BDF90050A3F8AC50864240F2E681DFF8C9
:10026000FC82D8F80030DB439919A2FB0123DB099B
:1002700000FB131304EB4303B3F9AC30ED1A0FFA90
:1002800085F9FDEEE87A94F800C2B14F17EE900AB6
:10029000FDEEC87A00FB00F317EE900AFDEEC97A76
:1002A00000FB003017EE903A4FEA8C0A03FB030084
:1002B00007F52A7E04EB0A0307EB0A0283ED818A25
:1002C000B0F1804F0EEB0A0383ED009AC2ED008A75
:1002D0004FF0804305DA9B089842FCD3002B00F0D6
:1002E000398300229918814203EB010B94BF5A46CF
:1002F00000219B084FEA5202A0EB0100F2D107EE69
:10030000902AF8EEE77A934A052E02EB0A03C3ED32
:10031000007A40F2CD800CF1FF33591C08BFA923AD
:100320009B00E018F918D0ED817A91ED007A7344C2
:10033000D3ED006A78EE277A04EB0A0338EE877A69
:1003400007EB0A0079EE266AC3ED817AACF102036D
:100350000EEB0A0180ED007A581CC1ED006A00F036
:100360006D82981C08BFA8239B00E018F91890ED37
:10037000818AD1ED008A734493ED009A77EE887AF2
:1003800004EB0A0376EE896A0EEB0A0137EE287A4F
:10039000C3ED817AACF1030307EB0A00C1ED006AFB
:1003A000591C80ED007A00F04782981C00F0D08242
:1003B000D91C08BFA7239B00E018F91890ED815ABB
:1003C000D1ED005A734493ED006A77EE857A04EB21
:1003D0000A0337EE257A07EB0A0076EE866AC3ED4C
:1003E000817AACF104030EEB0A0180ED007A581C0F
:1003F000C1ED006A00F01E82991C00F06482D81CD6
:1004000000F0C782191D08BFA6239B00E018F91849
:1004100090ED815AD1ED005A734493ED006A77EE66
:10042000857A04EB0A0337EE257A07EB0A0076EEAD
:10043000866AC3ED817AACF105030EEB0A0180ED0B
:10044000007A581CC1ED006A00F0F281991C00F09E
:100450007D82D81C00F09B82191D00F0E781581D99
:1004600008BFA5239B00E018F9187344D3ED005A88
:10047000D0ED814A91ED005A9FED376A77EEA47A6C
:1004800037EE057A76EEA56A67EE867A27EE067A6B
:1004900066EE866A04EB0A0107EB0A030520F244C4
:1004A000C1ED817A83ED007ACAED006AA4F8A40C4C
:1004B0000CF10103DBB2A92B94F8A61C88BF002322
:1004C00084F800324B1CDBB2AA2B84F8A63C0AD974
:1004D00094F8A73C84F8A61C0133DBB2A92B88BF93
:1004E000002384F8A73CD8F808309D4205DAB4F917
:1004F000A83CED1A002D40F3C281D4F8B03CA4F81A
:10050000A89CF61A282E00F0968094F8AB3C13B104
:10051000013B84F8AB3C0023019A137005B0BDEC9D
:10052000048BBDE8F08F00BF8A4311878A5AC83F09
:10053000F2CD6B5758A5E5C0CDCCCCCCCDCCCC3CC6
:10054000A65B813A0000F03F0000C842C1C0C0C0B5
:10055000D40D002024130020ABAA2A3E1809002045
:10056000012D00F06D81E04FAB1EA7FB0312520975
:1005700002EB8202A3EBC20304EB8303986800F052
:10058000D1FB6B1E8946A7FB0312520902EB8202C4
:10059000A3EBC20304EB83038046986800F0C2FB20
:1005A00002460B464046494601F030F9C8A3D3E95C
:1005B000002301F009F8804619EE900A894600F000
:1005C000B1FBC5A3D3E9002300F0FEFF02460B46B2
:1005D0004046494601F01AF901F0E4F8A7FB05236B
:1005E0005B0903EB8303A5EBC30304EB8303282D13
:1005F00007EE100A986040F0B081DFEDC27A04F196
:10060000080304F1A802B3EC017A934277EE877AEB
:10061000F9D19FEDBD7A67EE877A2926C4ED2A7A53
:100620009FEDB27A67EE877AEAE54FF00009DFF8CE
:10063000CC824D4625E694F8AA3C012B7FF465AFA9
:10064000B4F9AC9CDFF8B8A2A4F8B89C4FEA8903CF
:100650001FFA89F10293D318D3ED006A00914B1C65
:100660001BB209F16D06002055219E42CAED006AB9
:10067000A4F8A43C84F8AA0C84F8AB1CC0F206834E
:10068000B0EE667A4D4699B2A1F1AA00A92BC8BF77
:10069000034618B202EB8003D3ED007A0131F4EE89
:1006A000C77AF1EE10FA0BB2B4BFB0EE476AB0EE03
:1006B000676AC8BFF0EE676AC8BF05469E42B0EEE3
:1006C000467AE0DAA4F8A43CA4F8BA0CCAED006AB1
:1006D000A4F8B85CD8ED037AF4EEC67AF1EE10FA1D
:1006E0003FF719AFB4F9B86CA4F8A46C0021A4F8D2
:1006F000BE6CB04633463046A4F8BC1C9FED7C7AF5
:1007000008E02BB2002BB8BFA9239E42804600F020
:100710009182184602EB8001D1ED007AF4EEC77A9F
:10072000F1EE10FA00F1FF35EBDA0021A4F8A43C59
:10073000A4F8BC1CA4F8BE8CB4F9BE3CDFED6D7A05
:1007400002EB830191ED007AB4EEE77AF1EE10FA54
:1007500006DD013B1BB2591C00F0A382A4F8BE3C8D
:100760009BB2D81E00B2002819460393C0F29582AE
:10077000043B1BB201F1030B002BA4F8A40C0FFAED
:100780008BFBC0F28682A4F8BA3C0021A4F8C00C0E
:10079000A4F8BC1CB4F9BA6CDFED576A804609F1C5
:1007A000010A00E0084602EB8001D1ED007AF4EE88
:1007B000E67A411EF1EE10FA02EB830509B209D97F
:1007C00095ED007A77EE677AF5EEC07AF1EE10FAE1
:1007D000C0F2E180002903F1FF33B8BFA9251BB2A5
:1007E000ACBF0D462946002BB8BFA923AA451E461B
:1007F0008046D7D180461E46084602EB8101D1EDE6
:10080000007AF4EEE67A411EF1EE10FA09B200F237
:10081000C280013B1BB20029B8BFA921002BB8BF81
:10082000A9238A451E468046E6D1E3E7A62319E6BA
:10083000A92317E6A923E8E5A923BCE5A92393E5A5
:10084000A06800F06FFA26A3D3E9002300F0BCFEF5
:10085000064619EE900A0F4600F064FA1EA3D3E98B
:10086000002300F0B1FE02460B463046394600F048
:10087000CDFF00F097FF06EE900AE060A5E4AA2EF7
:100880007FF63BAE94F8AA3C002B7FF436AE94F88A
:10089000AB3C002B40F0BC811FFA8CFCACF1540344
:1008A0001BB2002B4FF00102B8BF0CF1560C84F8BC
:1008B000AA2CACBFA4F8AC3CA4F8ACCCC4F8B06C87
:1008C000A4F8A89C27E6A8239FE500BFAFF300800B
:1008D000CDCCCCCCCCCCDC3F9A9999999999B93FA5
:1008E000CDCCCCCCCCCCEC3FCDCCCCCCA65B813A27
:1008F000008089440000FA4400007A44180900206E
:10090000DC15002000000000CDCCCC3C00808444ED
:100910009A791A433363BF43FC69E03AA32EFB3A4A
:100920003373A5424C633B3F0F78453F67CB433E53
:1009300081445F3E8A043E3F807A0D3BB10A6B3EA4
:10094000CCA1B8BF439071BE180756BFA82389E554
:10095000A82330E55FED157AD5E46E1CA7FB0623CE
:100960005B0903EB8303A6EBC30304EB83035FED97
:100970001A6AD4ED2A7A93ED026AE6EE667A272D9A
:10098000E7EE267AC4ED2A7A3FF64AAE34E4A7238E
:1009900068E5A72339E5BBF1A90FA4F8C08CA4F83A
:1009A000BA6C04DD039BA3F1A70B0FFA8BFB0023AA
:1009B000A4F8A4BCA4F8BC3CA4F8C2BCB4F9A43C00
:1009C0001FED2E7A584608E02BB2AA2BA8BF0023B1
:1009D0009945834600F04481184602EB8001D1ED31
:1009E000007AF4EEC77AF1EE10FA00F10105EBDAC5
:1009F0000022A4F8C2BCA4F8A43CA4F8BC2CB4F80F
:100A0000C21CB4F8C03C013109B2013B1BB2AA2997
:100A100008BF00215A1C08BFA923A4F8C03C009BB2
:100A2000A4F8C21C5A1D12B2A92AC8BFA3F1A6027B
:100A30000FFA8CF3C8BF12B2A92BC4BFACF1AB0C38
:100A40000FFA8CF38945A4F8C42CA4F8C63C40F3F3
:100A5000E880994580F2EA80009B013B1BB2A4F834
:100A6000C63C9B009200B9181F44D1ED007AD7ED27
:100A7000006A5FED594A1FED597A1FED598A1FED43
:100A8000590A1FED591A1FED596A1FED595A5FEDAA
:100A9000590A5FED591A5FED595A1FED592A5FED5A
:100AA000592A1FED593A5FED593A1FED594A8249CB
:100AB000A01877EEE67AD0ED816A1C4477EEE47AEE
:100AC00076EE876A94ED817ADFED7C4A724467EEB8
:100AD000887A76EEC76A92ED007A9FED798AC1ED49
:100AE000017A9E4466EE806A27EE866A37EE017AC6
:100AF0009EED001A9FED730AC1ED006A27EE855A3C
:100B0000A6EEA06A37EE417AA6EEA15A67EEA55A84
:100B100027EE027AE6EEA25A27EE833AA7EE236A80
:100B2000A7EE045AA6EEA43ADFED673ADFED671AA6
:100B30009FED672A9FED674ADFED672ADFED674A81
:100B4000DFED670A9FED671A81ED027AE7EE005A42
:100B500067EEA33AB1EE466AA7EE213AE6EE823A94
:100B600036EE456A27EE844A36EE656AA6EEA24A5C
:100B70009FED5D5ADFED5D1A9FED5D2ADFED5D2A89
:100B8000DFED5D5A9FED5D0A67EEA44AA3EE206A91
:100B9000E7EE013A27EE855AE6EEA14AA6EEA25A02
:100BA000A7EE024A67EEA55ADFED550A9FED551AEA
:100BB000DFED551A9FED552ADFED552A9FED553A89
:100BC00036EE636AE6EE805AE7EE084A67EEA07AF0
:100BD00034EE064AB0EE456AA7EE016AE6EEA17A67
:100BE000F0EE656AE7EE026A34EE845AE7EE227AA6
:100BF00036EE056A36EE867ADFED476AA7EE837A2F
:100C0000B4EEE67AF1EE10FA4CBF0123002383E440
:100C1000D4F8B02CA4F8A89CB21A282A7FF478AC97
:100C200073E4BFF61EAF9945BFF61BAF99427FF73D
:100C300018AF11E702EB830191ED007ADFED377A0F
:100C4000B4EEE77AF1EE10FAB8BF0121FFF66EAD0F
:100C50000123A4F8A46CA4F8BE0CA4F8BC3C6BE57A
:100C60000299DFED2F7A0A4492ED007AB4EEE77A2A
:100C7000F1EE10FAB8BF0122FFF6BBAE0123A4F8D3
:100C8000C20CA4F8A49CA4F8BC3CB8E6B0EE666A1A
:100C900020E5039BA6331BB275E503F1A70000B264
:100CA00066E5A923A620A4F8BE3C0393A4F8A40CEF
:100CB0004FF0AC0BA52366E5F015002077D1A8BF57
:100CC0006C6ABEBE69FEA4BEE2AB15BFA4660A4054
:100CD00098B7693DD97A13BF7852353C4B5304BE5F
:100CE000ABFB4EBF9C7AF0BFA86783BD1CF6063EE7
:100CF0003AFE8FBE4B90DB3ECD48033F4E2E273F42
:100D0000B4EE0E3E2F51C13DAA591E3FFE77C9BE1B
:100D1000DEB714BEABFB4E3F4953103E0080894402
:100D200000808444C0F3C75181B1FF2906D0C110AF
:100D3000400721F0E04101F16051704741020CBFD2
:100D400040F4E0016FF000410020704700F00041E6
:100D500000020AD0B0FA80FC00FA0CF001F16051F8
:100D6000A1EB0C5101EBD021400570472DE9F84C67
:100D70002DED0A8B82B041EC190B149C43EC182B1F
:100D80000CB10020206051EC180B20F0000631F06F
:100D9000004708BF002E14D053EC192B0020DFF8B9
:100DA000241600F0F1FD0CD0DFF8141600F0ECFD75
:100DB0000FD151EC180B48004015401C09D1090314
:100DC00007D102B00020BDEC0A8BDFF8F815BDE8B2
:100DD000F48C51EC190B48004015401C0DD051EC1F
:100DE000190B31F0004108BF002806D051EC180B58
:100DF00048004015401C40F0F58051EC190B4800AC
:100E00004015401C05D1090318BF51EC190B40F0E7
:100E1000CF8251EC180B48004015401C05D1090346
:100E200018BF51EC180B40F0C38251EC180B48006E
:100E300001244015401C61D051EC180B4B0043EAD3
:100E4000D0734200002B08BF002A04D1B0EE48AA9C
:100E5000F0EE68AA19E040F23345A5EB5352352A6B
:100E600004DB00F0000001F000410CE0202A03DD6B
:100E7000203AD140914000E001D1002003E0002A57
:100E8000C4BFD040904041EC1A0B53EC182B51ECEE
:100E90001A0B00F079FD18BF00244B0043EAD07311
:100EA0004200002B08BF002A04D1B0EE4A0AF0EE3F
:100EB0006A0A19E040F23445A5EB5352352A04DBA7
:100EC00000F0000001F000410CE0202A03DD203A90
:100ED000D140914000E001D1002003E0002AC4BFCE
:100EE000D040904041EC100B44B153EC1A2B51EC24
:100EF000100B00F049FD0CBF0024012451EC190B2C
:100F000048004015401C0ED109030CD151EC190BBF
:100F1000C80F25D153EC182BDA0F0CBF9FED8C0BAB
:100F20009FED8D0B42E251EC180B48004015401C20
:100F300028D1090326D153EC192B23F00041B1F538
:100F4000801F22F000002ED20022002908BF0028B6
:100F500000922DD06A4651EC190B00F025FD27E0D8
:100F600051EC180BC80F06D1002C0CBF9FED780B6D
:100F70009FED7B0B1AE2002C0CBF9FED770B9FEDD2
:100F80007A0B13E2002C1ABF51EC190BC80F00208A
:100F900053EC182BDA0F1ED100280CBF9FED6E0BFF
:100FA0009FED710B02E2DFF8204404EB115000903A
:100FB00051EC180BC80F009806D10028CCBF9FED4C
:100FC000640B9FED650BF1E10028CCBF9FED620B38
:100FD0009FED5F0BEAE100280CBF9FED5D0B9FEDDD
:100FE000600BE3E151EC180B4B0043EAD073420075
:100FF000002B08BF002A04D1B0EE48AAF0EE68AA80
:1010000019E040F23345A5EB5352352A04DB00F0DA
:10101000000001F000410CE0202A03DD203AD1401D
:10102000914000E001D1002003E0002AC4BFD0407D
:10103000904041EC1A0B51EC190BC80F11D053EC36
:10104000182B51EC1A0B00F09FFC0AD0AFF3008074
:1010500002B04FF0FF30BDEC0A8B6FF00041BDE8ED
:10106000F48C53EC192B23F00041B1F5801F22F0D2
:1010700000000BD20022002908BF0028009211D0E6
:101080006A4651EC190B00F08FFC09E0CE4E06EBDE
:1010900011500090DFF89C13CC48034010461943D0
:1010A00041EC190B51EC190BC80F36D021F0004060
:1010B00053EC192B034643EC192B51EC1A0B4B0044
:1010C00043EAD0734200002B08BF002A04D1B0EEDF
:1010D0004A0AF0EE6A0A19E040F23445A5EB535291
:1010E000352A04DB00F0000001F000410CE0202A6A
:1010F00003DD203AD140914000E001D1002003E01F
:10110000002AC4BFD040904041EC100B53EC1A2B86
:1011100051EC100B00F038FC01D1002600E0012654
:101120000098012824D151EC190BA94AA94B00F0D1
:1011300073FC1DD253EC192B00204FF0804100F0BE
:1011400043FA00259FEDC0BB41EC190B2EE000BF18
:10115000000000000000F07F000000000000000020
:10116000000000000000F0FF000000000000008010
:1011700053EC192B0020984900F026FA9FED97AB0D
:1011800053EC1A2B00F042FB00F05EFCA0F12005AE
:10119000284600F077FC0022924B00F015FA53EC41
:1011A0001A2B00F033FB41EC1B0B6D0151EC190BBA
:1011B00053EC1B2B00F05AF941EC1A0B53EC192B92
:1011C00051EC1B0B00F022FB02460B4651EC1A0BB4
:1011D00000F06AFC41EC190B53EC192B00F0F4F908
:1011E00041EC1C0B53EC1C2B7F48804900F0ECF9C0
:1011F0007F4A804B00F00AFB53EC1C2B00F0E4F913
:101200007D4A7E4B00F002FB53EC1C2B00F0DCF916
:101210007B4A7C4B00F0FAFA53EC1C2B00F0D4F91B
:10122000794A7A4B00F0F2FA53EC1C2B00F0CCF91F
:10123000774A784B00F0EAFA53EC1C2B00F0C4F923
:10124000754A764B00F0E2FA53EC1C2B00F0BCF927
:1012500053EC1A2B00F00AF907468B460020594937
:1012600053EC1B2B00F002F900224FF0804300F0FA
:10127000ABF93A465B4600F0C9FA53EC192B00F083
:10128000A3F953EC1A2B00F0C1FA41EC190B0098AA
:101290004A4F7F4407F593772F4400F0F3FBD7E9DB
:1012A000002300F0B3FA41EC1A0B53EC192B5C4805
:1012B0005C4900F089F953EC1A2B00F0A7FA53ECC3
:1012C000182B00F081F90022574B00F0A5FB41ECF0
:1012D0001B0B68D30122554B00F00AFD59D9C80FEA
:1012E00053EC1B2B1ABF00205149524900F08EFAD3
:1012F00000F0AAFB054653EC192B51EC180B00F03B
:1013000063F982468B46D7E90201D7E9042300F04E
:101310007DFA53EC182B00F057F99FED47BB53ECC7
:101320001B2B00F051F952465B4600F06FFACDE9F5
:10133000000153EC1A2B51EC180B00F045F907464D
:101340008B46284600F09EFB02460B46384659461F
:1013500000F08CF853EC1B2B00F036F9DDE900238C
:1013600000F054FA0CB12560002500950022154BC1
:1013700000F0D6FC20F0000231F0004308BF002A44
:1013800041EC100B0FD048004015401C03D109035D
:1013900001D19FED2B0B4EB151EC100B81F00041B0
:1013A00041EC100B02E09FED2A0BF4E751EC100B1F
:1013B00002B0BDEC0A8BBDE8F48C00BF9C88000035
:1013C0000000F0BF0000F03F02FCFFFFFFFF0F80B6
:1013D000CD3B7F669EA0E63F00005040000000002D
:1013E0000000E03F0000903FF7DE29BFD8F8C23F81
:1013F000F4B3FECC1A99C33F62CB68D96F46C73F9E
:10140000C6C912DAC471CC3F4AE98A942449D23F52
:10141000F75F97999999D93FBC5555555555E53F73
:10142000FE822B654715F73F0000E0C00000E0405A
:101430000000E0BF0000E03FEF39FAFE422EE63F39
:10144000000000000000F07F000000000000F03FFE
:10145000000000000000000080B541EC100B0020EF
:10146000009051EC100BFFF781FC04BD70B44FF0FD
:10147000004591EA030F40F1D1816B40841A71EB72
:10148000030603D2001BB141121973414FF4001C33
:101490001CEB410F34BF7CEB430442E00C0DA4EB8A
:1014A0001356352E4FDC45EAC323DB0A45EAC1213A
:1014B000C912B6F120050DDD63FA05F6EB4086EAA8
:1014C0000305124218BF45F00105C01851F1000193
:1014D0000CD213E062FA06F5F2405540F3415A404F
:1014E000B340F3405A408018594107D349085FEA96
:1014F00030005FEA350528BF45F0010501F5801190
:10150000420875F1004250F1000041EB04514E00D9
:1015100016F5001F70BC38BF70470020090D090583
:1015200070471CEB410F10D252EA43060BD0BCEBC4
:10153000410F05D80C0DAB43661E342EB6DD02E01C
:10154000AB438018594170BC704770BC7047F0B411
:101550000246106895681318506803EB5004C007E2
:101560001DD54D441BE013F8017B05F8017B491E96
:10157000F9D1A0B1B60813F8011B06F00306032E3B
:1015800008BF13F8016B01EB06214942801C294476
:1015900005D011F8016B05F8016B401EF9D1A3428B
:1015A0000ED013F8016B16F0030104BF13F8011BF2
:1015B000C91C30090F28DAD113F8010B0F30D6E718
:1015C000F0BC02F10C007047B0B581EA030C0CF0DE
:1015D000004C40F2FF7515EA11541DBF15EA135770
:1015E000AC42AF4239E0E41923EA455343F4801397
:1015F000C90241F0004141EA505EC7021100A7FB59
:10160000020200284FF00000EEFB01204FF0000125
:10161000E3FB072118BF42F00102401800214941B5
:10162000E3FB0E01A4F580640F0302D25200404197
:10163000494154F101046CDD470872F1004250F158
:10164000000051EB0451A1F580115CBF41EA0C018F
:10165000B0BD4CEA05510020B0BD05EA1357AC42BD
:1016600014BFAF4241E050EA410E1CBF52EA430EA4
:1016700002E061460020B0BD24423C441BD15FEA39
:10168000070EF6D0090302BF01460020AEF1140E8A
:10169000B1FA81F7AEEB070401FA07FE0C37C7F188
:1016A000200100FA07F7C8404EEA000E23EA45532E
:1016B00043F48013A2E733F00043B3FA83F704BF87
:1016C000B2FA82FE77440B3FE41BB7F1200E2FBF26
:1016D00002FA0EF3BB40C7F1200E22FA0EFE38BF0D
:1016E00043EA0E03BA40641C82E750EA410E14BF7D
:1016F00052EA430E6FF000014FF4001717EB430F4F
:101700008ABF194617EB410FB5E74CEA0551002097
:10171000B0BDD4F10104B4F120070FDAC4F1200701
:10172000520828BF42F0010210FA07F501FA07F744
:10173000E1BF2A43E0403843E1400FE0352C98DC1C
:10174000C7F1200452EA400220FA07F218BF42F023
:10175000010231FA07F0A1400A43002172F1004270
:1017600050F1000051EB0C01B0BD30B4002513E086
:1017700050F8042BD30744BFA9F101039A18091F9D
:10178000042942F8045BFAD213468C0744BF158043
:101790009B1CC90748BF1D7050F8041B0029E7D1E6
:1017A00030BC704701F000428B1AA3F16051B1F5D3
:1017B000801F0ADBB1F17F6F1FD242EAC102C10074
:1017C00071F1004142EB507070470B15C3F10903F2
:1017D000212B10D2890241EA90518002012849410F
:1017E00041F0004121FA03F0C3F12003994071F167
:1017F000004150417047100070476FF0000013EB3C
:10180000103F5CBF000E42EAC050704770B44FF00A
:10181000004591EA030F7FF531AE6B40841A71EBFE
:10182000030604D26E40001BB141121973414FF4FC
:10183000001C1CEB410F34BF7CEB430683E00C0D16
:10184000A4EB1356362E00F37C80012E45EAC32309
:1018500041DC43EA525312BFD20292025B082405D4
:1018600045EAC12141EA5051D2EBC020994125D42B
:1018700007D1B0FA80F610FA06F162D000202036C7
:1018800008E0B1FA81F6B140C6F1200220FA02F276
:101890001143B0404FEAF474B4EB465434F00106FF
:1018A0004FEA74040AD8D6F50016760D04F0004409
:1018B000F04061FA06F25040F1404840C00A40EA68
:1018C000415021F0004128BF5FEA500550F100006F
:1018D00044EBD12135E0DB0A45EAC121C90AB6F162
:1018E00020050EDD42EA0242120CC5F1200603FA81
:1018F00006F6EB4042EA06056D42984161F10001AF
:101900000DE062FA06F5F240554063FA06FC82EA01
:101910000C02F3405A406D42904161EB030111F417
:10192000801F05D1641E620502D06D00404149410F
:1019300021F48011430875F1004350F1000041EBA0
:10194000045170BC70471CEB410F15D223F00043CB
:1019500052EA43060BD04FEA4C0CBCEB410F04D8C3
:101960000C0D661E342EB7DDEBE7801A994150EA64
:10197000410608BF0021E4E708BF1CEB430F28BF66
:101980006FF00001DDE7000090420CD141EA030C4A
:1019900050EA4C0C07D0994205D14FF4001C1CEBC7
:1019A000410F38BF8942704710B5144600F002F865
:1019B000226010BDC1F30A5343B14A0012F5001F63
:1019C00028D2A3F2FE32A1EB0251704750EA410C3B
:1019D00020D001F0004C31EA0C01B1FA81F204BFD1
:1019E000B0FA80F3D2180B3AB2F120032CBF00FA00
:1019F00003F1914041EA0C013EBFC2F1200C20FAF4
:101A00000CF319439040524240F2FD33D21A01EBDD
:101A100003517047002270474FF4001C1CEB410F2C
:101A200094BF1CEB430F09E041EA030C50EA4C0C55
:101A300052EA0C0C03D2994208BF9042704714BF7F
:101A40008B42824270470000C1F30A5340F2FE32DB
:101A50009B1A14DDD3F120034FEAE17208DDC902BD
:101A600041EA505141F00040D84080185040704742
:101A700003F2E13010B1D24382F000407047002001
:101A800070470000C11768B14840401AB0FA80F2B0
:101A90009040D21CC907C2F5846241EA025202EBAF
:101AA000D021400570470000F0B540F2FF7581EA93
:101AB000030C0CF0004C15EA11541DBF15EA135726
:101AC000AC42AF42E5E0BC41C1F31301C3F31303E1
:101AD000801A994143F4801304D2641E40004941A6
:101AE00080185941C90241EA5051B1FBF3F603FB9A
:101AF0001611A2FB0675D7EBC020A94102D2761EB3
:101B000080185941C90241EA5051B1FBF3FE03FB71
:101B10001E11A2FB0E75D7EBC020A94103D2AEF176
:101B2000010E80185941890241EA9051760546EA32
:101B30008E2EB1FBF3F603FB1611A2FB0675D7EB55
:101B40008020A94102D2761E80185941C90241EA7B
:101B500050514EEA060EB1FBF3F603FB1611A2FB41
:101B60000675D7EBC020A94102D2761E80185941D4
:101B7000C90241EA5051B1FBF3F703FB1711A2FB75
:101B80000735D3EBC020A94167F100070CBF004225
:101B900047F0010766F3D5274FEA1E31B80814F560
:101BA000806412DDBD0775F1004250EB0E5051EB21
:101BB000045111F5801F5CBF41EA0C01F0BD4CF0EF
:101BC0007F6141F0E0410020F0BDBD076D0840EAB3
:101BD0000E5041F48011D4F10104B4F120060ADA68
:101BE000C4F120060200E04001FA06F3E140184388
:101BF000B24015430EE0342C13DCC6F1200445EA54
:101C000040056D0820FA06F2154321FA06F0A140BE
:101C10000D43002175F1004250F1000051EB0C0121
:101C2000F0BD00205FEA0C01F0BDCFB992185B4116
:101C3000B3FA83F704BFB2FA82F6BF190B3FB7F1CC
:101C400020062FBF02FA06F3BB40C7F1200622FA96
:101C500006F638BF3343BA401CB1E419641E33E7BB
:101C60007F4231F00041B1FA81F404BFB0FA80F64E
:101C7000A4190B3CB4F120062FBF00FA06F1A140D5
:101C8000C4F1200620FA06F638BF3143A0403C1BC1
:101C90001AE7AC421ABF05EA1357AF4212E050EA06
:101CA00041061CBF52EA4306BFE750EA41073046EF
:101CB00061461CBF41EA0551F0BD52EA430C08BF22
:101CC000C143F0BD00204FF4001616EB410F98BF42
:101CD00016EB430F08BF16EB410F24BFC14305E0CD
:101CE00016EB430F0CBF61464CEA0551F0BD0000F6
:101CF0004FF4001C1CEB410F94BF1CEB430F09E099
:101D000041EA030C50EA4C0C52EA0C0C03D28B4211
:101D100008BF8242704714BF99429042704700004A
:101D2000F8B52DED0A8B41EC1A0B48004015109DBB
:101D3000401C43EC182B23D051EC1A0B31F000411E
:101D400008BF00281CD051EC180B48004015401C5F
:101D500016D051EC180B31F0004108BF00280FD00D
:101D600051EC1A0B0022DFF84833FFF755FE80F0E4
:101D7000A38055EC184B9FED800B05F00042ACE0C2
:101D800051EC1A0B48004015401C02D1090340F0E9
:101D9000898151EC180B48004015401C01D1090302
:101DA00053D151EC180B31F0004308BF002A08D181
:101DB00051EC1A0B48004015401C46D1090344D190
:101DC0000DE048004015401C12D1090310D151EC20
:101DD0001A0B48004015401C37D1090335D1AFF329
:101DE0000080BDEC0A8B4FF0FF306FF00041F4BD76
:101DF00051EC1A0B31F0004108BF002828D151ECFA
:101E0000180B4800400D05EB000234D151EC180BC3
:101E100031F0004108BF002806D02A4651EC180BCB
:101E200000F072F941EC180B51EC180B20F0000295
:101E300031F0004308BF002A05D048004015401C7F
:101E400003D1090301D1AFF3008051EC180B2BE152
:101E500051EC1A0B48004015401C26D1090324D12F
:101E600053EC1A2B51EC180BBDEC0A8B01B0BDE8FA
:101E7000F040FFF7A9BB002AC8DD40F2FF708242A4
:101E800009DB9FED9F0B53EC102B01F000410B433E
:101E900043EC182BC8E76FF31E5141EA025155EC91
:101EA000184B0D4645EC184BBEE755EC184B9FED13
:101EB000320B05F0004210E001227E4BFFF718FFC5
:101EC00011D89FED8F0B51EC100B55EC184BAFF365
:101ED000008005F0004040EA010251EC100BBDEC1F
:101EE0000A8B1146F4BD53EC1A2B73487349FFF764
:101EF0006BFB41EC100B53EC102B9FED719B03F02F
:101F0000004251EC190B0C46144353EC192B51ECC5
:101F1000100B2346FFF77AFCFFF796FD0446FFF708
:101F2000B1FD41EC1B0B53EC1B2B4FF07840664985
:101F3000FFF74AFB02460B4651EC1A0BFFF796FAE5
:101F400006460F4653EC1B2B60486149FFF73CFBEC
:101F500002460B4630463946FFF788FA41EC1A0B29
:101F600021F0004100225B4BFFF756FD08D2B0EE96
:101F700048AAF0EE68AA55E000000000000000004A
:101F800053EC1A2B51EC1A0BFFF71EFB41EC1B0B09
:101F900053EC1B2B50485149FFF716FB504A514B4D
:101FA000FFF734FC53EC1B2BFFF70EFB41EC1C0B33
:101FB00053EC1B2B4C484D49FFF706FB4C4A4D4B4D
:101FC000FFF724FC53EC1B2BFFF7FEFA53EC192B05
:101FD000FFF71CFC53EC1A2BFFF7F6FA41EC190B38
:101FE00053EC1C2BFFF712FC9FED43AB53EC1A2B69
:101FF000FFF70CFC06460F4651EC1C0B53EC192B5B
:10200000FFF734FA53EC1A2BFFF700FC02460B469D
:1020100030463946FFF748FD53EC182BFFF7D4FA4A
:1020200041EC1A0B51EC1A0B2A194800400D02EB37
:10203000000319D0002B17DD40F2FF70834209DB4B
:102040009FED2F0B53EC102B01F000410B4343ECA1
:102050001A2B16E06FF31E5141EA035155EC1A4B4F
:102060000D4645EC1A4B0CE051EC1A0B31F00041D7
:1020700008BF002805D051EC1A0B00F045F841ECE0
:102080001A0B51EC1A0B20F0000231F0004308BF8C
:10209000002A05D048004015401C03D1090301D196
:1020A000AFF3008051EC1A0BBDEC0A8BF4BD0000BD
:1020B00000C89CC000C89C40FE822B654715F73FB6
:1020C000000000000000E03F422EE63FF2E4D5BCF5
:1020D000E7E84B3E0000903C112E5781A03F503F57
:1020E0005843128C8F71BC3F4BE8A541B752013F5A
:1020F0000BBDF3DAE8708C3F000000000000F03FF9
:10210000000000000000F07F124254D440F2FF7C37
:102110001CEA11530FD0634531D09B1863453CBF77
:1021200001EB0251704701F0004141EA0C510020DF
:10213000AFF30080704750EA410320D001F0004C1B
:1021400091EA0C011CD0B1FA81F30B3B9A420DD9F4
:10215000D21A994051EA0C01C3F1200C20FA0CFC70
:1021600061449840531C40F2FF7CD7E7914041EA1C
:102170000C01C2F1200C20FA0CF319439040704777
:10218000B0FA80F31533202BE0D3202AEED3203A87
:10219000203B9A4209D9D21A00FA03F141EA0C0114
:1021A0000020531C40F2FF7CB8E700FA02F141EA3C
:1021B0000C0100207047524240F2FF7C1CEA115390
:1021C0000DD06345DBD0B2EB030C3CBFA1EB025159
:1021D00070470CF1010221EA035141F4801150EAE9
:1021E000410CCCD001F0004C352A27DC30B481EA18
:1021F0000C01B2F1200309DAC2F12003044601FA0E
:1022000003F5D0402843D1409C400CE0C3F12002AC
:10221000450020FA03F418BF44F0010421FA03F04A
:1022200091400C43002174F1004550F1000051EB46
:102230000C01244230BC7FF47BAF70476146002024
:1022400076E7000030B504460025002C81B02AD086
:10225000086820604A6862608868A0600A7B227310
:10226000086920614A6962618869DFF8CC19A06158
:1022700021626462DFF8C409E061206898B1804798
:1022800088B9A068022804BF94F8280000280CD15F
:102290000C218DF8001001236A46122104F11C0064
:1022A00000F0F8FC08B14FF0FF35284601B030BD12
:1022B00010B50446012104F11C0000F078FE00284E
:1022C0002AD1012104F11C0000F03DFE002823D199
:1022D000002104F11C0000F083FEE8B9042084F81A
:1022E0002B00002104F11C0000F01DFDA0B900210D
:1022F00004F11C0000F0D4FC70B9042084F82C0018
:10230000002104F11C0000F0BCFD28B9062104F1F5
:102310001C0000F06EFD10B14FF0FF3010BD012029
:1023200084F82800002010BD10B5044694F8290058
:1023300070B104F12B0104F11C0000F00FFD10BB83
:10234000002104F11C0000F0EEFCE0B984F8290043
:1023500094F82A0070B104F12C0104F11C0000F083
:10236000ABFD80B9002104F11C0000F08AFD50B9DA
:1023700084F82A000021002084F82B1084F82C0017
:1023800084F8281010BD4FF0FF3010BD00B581B0AB
:102390001C3000F003FE08B14FF0FF3001B000BD6B
:1023A0000120087048700023102088604FF4FA6202
:1023B0009FEDAF0A00208B70CB704A60CB6081ED3F
:1023C000040A81ED050A8861704710B5044694F847
:1023D000290001280CD094F82B1004F11C0000F007
:1023E000A2FC10B14FF0FF3010BD012084F829008D
:1023F000002010BD10B5044694F8290088B104F1FE
:102400002B0104F11C0000F0A9FC28B9002104F103
:102410001C0000F088FC10B14FF0FF3010BD84F8B4
:10242000290010BD30B581B00D4669461C3000F062
:1024300051FC002418B14FF0FF3001B030BD9DF8C1
:102440000000032813D8DFE800F0020E060ADFF8C8
:10245000481629600DE0DFF8DC04286009E0DFF8A9
:10246000D014296005E0DFF8C404286001E04FF0D3
:10247000FF34204601B030BD30B581B00D4669460D
:102480001C3000F06BFC002418B14FF0FF3001B09D
:1024900030BD9DF800000B2834D8DFE800F0060CB2
:1024A0001014181C2024282C30082C602CE0DFF895
:1024B000A007286028E0DFF89C17296024E0DFF8F7
:1024C0009807286020E0DFF8941729601CE0DFF807
:1024D0009007286018E0DFF88C17296014E0DFF817
:1024E0008807286010E0DFF8841729600CE0DFF827
:1024F0008007286008E0DFF87C17296004E05C486A
:10250000286001E04FF0FF34204601B030BD0000EC
:1025100000B581B090F82910DFEDA80A0129B4EECA
:10252000600A53D1F1EE10FA47D4DFEDA50AB4EEFC
:10253000600AF1EE10FA48BF02213ED4DFEDA10A95
:10254000B4EE600AF1EE10FA48BF032135D4DFED96
:102550009E0AB4EE600AF1EE10FA48BF04212CD4B2
:10256000DFED9A0AB4EE600AF1EE10FA48BF0521D9
:1025700023D4DFED970AB4EE600AF1EE10FA48BFFB
:1025800006211AD4DFED930AB4EE600AF1EE10FAD8
:1025900048BF072111D4DFED900AB4EE600AF1EED6
:1025A00010FA48BF082108D4DFEDBB0AB4EE600A78
:1025B000F1EE10FA4CBF09210A211C3000F0B3FBE8
:1025C000002853D04FF0FF3001B000BDF1EE10FAFB
:1025D00048BF012147D4DFED7A0AB4EE600AF1EE7C
:1025E00010FA48BF02213ED4DFED760AB4EE600A4D
:1025F000F1EE10FA48BF032135D4DFED730AB4EED3
:10260000600AF1EE10FA48BF04212CD4DFED6F0A06
:10261000B4EE600AF1EE10FA48BF052123D4DFEDD5
:102620006C0AB4EE600AF1EE10FA48BF06211AD423
:10263000DFED680AB4EE600AF1EE10FA48BF072138
:1026400011D4DFED650AB4EE600AF1EE10FA48BF6E
:10265000082108D4DFED900AB4EE600AF1EE10FA1A
:102660004CBF09210A2180F82B10002001B000BDC9
:102670000020D04530B581B00D4669461C3000F0D1
:1026800029FB002418B14FF0FF3001B030BD9DF898
:10269000000003280FD8DFE800F0020B0508022134
:1026A00029600AE00420286007E00821296004E08E
:1026B0001020286001E04FF0FF34204601B030BD0B
:1026C00000B5032981B0B8BF002107DB0529B8BFD9
:1026D000022103DB0929B4BF032101211C3000F0D2
:1026E000DFFA08B14FF0FF3001B000BD10B582B085
:1026F0000C4669461C3000F048FC18B14FF0FF3022
:1027000002B010BDBDF800002080BDF8021061804D
:10271000BDF80400A08002B0002010BD30B583B029
:1027200004460D4601A904F11C0000F02EFC00280F
:1027300040D1694604F11C0000F0CCFA002839D1E0
:102740009DF80000032835D8DFE800F031022E2B79
:102750009FED760ABDF9040000EE900AF8EEE00A5B
:1027600060EE800AFDEEE00AC5ED000ABDF9061034
:1027700001EE101AB8EEC11A21EE001ABDEEC11A10
:1027800085ED011ABDF9080000EE900AF8EEE00AA6
:1027900020EE800ABDEEC00A85ED020A002003B0DB
:1027A00030BD9FED630AD5E79FED620AD2E79FED4A
:1027B000BA0ACFE74FF0FF3003B030BD0100484107
:1027C0000100D041010050420100D04201005043BD
:1027D0000100D043014050440180CF4410B504466D
:1027E00094F82A0001280CD094F82C1004F11C0055
:1027F00000F047FB10B14FF0FF3010BD012084F80E
:102800002A00002010BD10B5044694F82A0088B1B3
:1028100004F12C0104F11C0000F04EFB28B900214A
:1028200004F11C0000F02DFB10B14FF0FF3010BD83
:1028300084F82A0010BD000030B581B00D4669460D
:102840001C3000F0EFFA002418B14FF0FF3001B057
:1028500030BD9DF80000062819D8DFE800F0080414
:102860000C1810181400DFF8E413296011E0DFF8E9
:10287000D80328600DE0DFF8CC13296009E0DFF809
:10288000C003286005E0DFF8AC13296001E04FF0D9
:10289000FF34204601B030BD0120504530B581B035
:1028A0000D4669461C3000F007FB002418B14FF0BC
:1028B000FF3001B030BD9DF800000A2831D8DFE8B4
:1028C00000F006080C1014181C2024282C002C6082
:1028D00029E0DFF88003286025E0DFF87C13296019
:1028E00021E0DFF8780328601DE0DFF87413296029
:1028F00019E0DFF87003286015E0DFF86C13296039
:1029000011E0DFF8680328600DE0DFF86413296048
:1029100009E0DFF86003286005E0DFF85C13296058
:1029200001E04FF0FF34204601B030BD23DBF93E1B
:1029300023DB793E23DBF93D00B581B090F82A1006
:10294000DFED560A0129B4EE600A53D1F1EE10FA18
:1029500047D4DFED530AB4EE600AF1EE10FA48BF37
:1029600002213ED4DFED4F0AB4EE600AF1EE10FA18
:1029700048BF032135D4DFEDA90AB4EE600AF1EEB9
:1029800010FA48BF04212CD4DFEDA50AB4EE600A8A
:10299000F1EE10FA48BF052123D4DFEDA20AB4EE10
:1029A000600AF1EE10FA48BF06211AD4DFED9E0A44
:1029B000B4EE600AF1EE10FA48BF072111D4DFED42
:1029C0009B0AB4EE600AF1EE10FA48BF082108D461
:1029D000DFED970AB4EE600AF1EE10FA4CBF092160
:1029E0000A211C3000F04DFA002853D04FF0FF3080
:1029F00001B000BDF1EE10FA48BF012147D4DFED70
:102A0000280AB4EE600AF1EE10FA48BF02213ED463
:102A1000DFED240AB4EE600AF1EE10FA48BF03219C
:102A200035D4DFED7E0AB4EE600AF1EE10FA48BF4D
:102A300004212CD4DFED7A0AB4EE600AF1EE10FA2C
:102A400048BF052123D4DFED770AB4EE600AF1EE2A
:102A500010FA48BF06211AD4DFED730AB4EE600AFB
:102A6000F1EE10FA48BF072111D4DFED700AB4EE81
:102A7000600AF1EE10FA48BF082108D4DFED6C0AB5
:102A8000B4EE600AF1EE10FA4CBF09210A2180F879
:102A90002C10002001B000BD23DB793D010048412E
:102AA0000100D0410100504230B581B00D46694669
:102AB0001C3000F0B7F9002418B14FF0FF3001B01E
:102AC00030BD9DF80000062817D8DFE800F00704A5
:102AD0000A160E1612007D21296010E0FA202860E7
:102AE0000DE04FF4FA71296009E04FF47A70286024
:102AF00005E04FF4FA61296001E04FF0FF34204611
:102B000001B030BD00B57E2981B0B8BF01210FDB17
:102B1000FB29B8BF00210BDB40F2F5129142B8BF90
:102B2000022105DB40F2E9329142B4BF04210621C3
:102B30001C3000F05EF908B14FF0FF3001B000BD6D
:102B400010B582B00C4669461C3000F015FA18B179
:102B50004FF0FF3002B010BDBDF800002080BDF87E
:102B600002106180BDF80400A08002B0002010BDFA
:102B700030B583B004460D4601A904F11C0000F0F5
:102B8000FBF9002845D1694604F11C0000F04AF920
:102B900000283ED19DF8000006283AD8DFE800F072
:102BA000333630392D3904009FED220ABDF9040077
:102BB00000EE900AF8EEE00A60EE800AFDEEE00A10
:102BC000C5ED000ABDF9061001EE101AB8EEC11AE3
:102BD00021EE001ABDEEC11A85ED011ABDF90800FB
:102BE00000EE900AF8EEE00A20EE800ABDEEC00A80
:102BF00085ED020A002003B030BD9FED110AD5E734
:102C00009FED100AD2E79FED100ACFE79FED0F0A64
:102C1000CCE74FF0FF3003B030BD00000100D042E0
:102C2000010050430100D043014050440180CF4493
:102C30000120504500008C427D2C0008892C0008A2
:102C400000000C4200008C4100000C4100008C4050
:102C5000CDCCCC3F000048410000D04100005042A4
:102C60000000D042000050430000D04300405044D8
:102C70000080CF44002050450020D04510B50446C8
:102C8000207B6469A04710BD10B50446207B2469F1
:102C9000A04710BD10B50446A0682468A04710BD29
:102CA00070B5044682B00D46A068666801236A4686
:102CB0001021B04758B99DF8000065F383008DF8E6
:102CC00000000123A06824686A461021A04702B0D2
:102CD00070BD000030B5044681B0A06864680D4640
:102CE00001236A461021A0479DF80010890801F0D1
:102CF0000301032913D8DFE801F002060A0E0021C0
:102D0000297001B030BD0121297001B030BD022110
:102D1000297001B030BD0321297001B030BD0421FC
:102D2000297001B030BD70B5044682B00D46A06870
:102D3000666801236A461021B04768B99DF8000013
:102D400000F00F0040EA05108DF800000123A06894
:102D500024686A461021A04702B070BD30B5044611
:102D600081B0A06864680D4601236A461021A0471F
:102D70009DF8001009090B2937D8DFE801F0060A91
:102D80000E12161A1E22262A2E320021297001B098
:102D900030BD0121297001B030BD0221297001B080
:102DA00030BD0321297001B030BD0421297001B06C
:102DB00030BD0521297001B030BD0621297001B058
:102DC00030BD0721297001B030BD0821297001B044
:102DD00030BD0921297001B030BD0A21297001B030
:102DE00030BD0B21297001B030BD0C21297001B01C
:102DF00030BD70B5044682B00D46A06866680123F8
:102E00006A461121B04758B99DF8000065F34300A8
:102E10008DF800000123A06824686A461121A047AC
:102E200002B070BD30B5044681B0A06864680D463C
:102E300001236A461121A0479DF80010490801F0BE
:102E40000701062919D8DFE801F004080C1810184A
:102E500014000021297001B030BD0121297001B09A
:102E600030BD0221297001B030BD0421297001B0AC
:102E700030BD0621297001B030BD0721297001B095
:102E800030BD70B5044682B00D46A0686668012367
:102E90006A461121B04768B99DF8000000F00F00A4
:102EA00040EA05108DF800000123A06824686A46F6
:102EB0001121A04702B070BD30B5044681B0A068B2
:102EC00064680D4601236A461121A0479DF8001051
:102ED00009090A2933D8DFE801F0060A0E12161A8A
:102EE0001E22262A2E000021297001B030BD0121AA
:102EF000297001B030BD0221297001B030BD03211D
:102F0000297001B030BD0421297001B030BD052108
:102F1000297001B030BD0621297001B030BD0721F4
:102F2000297001B030BD0821297001B030BD0921E0
:102F3000297001B030BD0A21297001B030BD0B21CC
:102F4000297001B030BD70B5044682B00D46A0684E
:102F5000666801236A461221B04758B99DF80000FF
:102F600065F386108DF800000123A06824686A4686
:102F70001221A04702B070BD10B504460A46A068F1
:102F8000646806232221A04710BD10B504460A46F6
:102F9000A068646806232821A04710BD10B5044628
:102FA0000A46A068646801230F21A04710BD70B5D0
:102FB000044682B00D46A068666801236A46122165
:102FC000B04758B99DF8000065F382008DF8000005
:102FD0000123A06824686A461221A04702B070BD90
:102FE00070B5044682B00D46A068666801236A4643
:102FF0000A21B04758B99DF8000065F302008DF82A
:1030000000000123A06824686A460A21A04702B094
:1030100070BD000030B581B004460025C4B1086819
:1030200020604A6862608868A0600A7B2273086931
:1030300020614A69626188690FF67111A06121629D
:1030400064620FF68510E061206808B1804720B106
:103050004FF0FF35284601B030BDA068012804BFFD
:1030600094F828000028F5D101218DF800100123E3
:103070006A46232104F11C0000F0D0FC0028E9D0AE
:103080004FF0FF3001B030BD10B50446012104F10E
:103090001C0000F07EFDA0B9002104F11C0000F02E
:1030A00036FE70B9052084F82A00002104F11C00C6
:1030B00000F0DFFC28B9002104F11C0000F035FD10
:1030C00010B14FF0FF3010BD012084F8280000201F
:1030D00010BD10B5044694F8290088B104F12A0106
:1030E00004F11C0000F0E2FC28B9002104F11C00EE
:1030F00000F0BFFC10B14FF0FF3010BD84F8290084
:103100000021002084F82A1084F8280010BD00B5A2
:1031100081B01C3000F0D0FD08B14FF0FF3001B09D
:1031200000BD01200870002210204A708A70CA7009
:103130004A608860CA600020DFF8982708614A6109
:103140008861704710B5044694F8290001280CD016
:1031500094F82A1004F11C0000F08BFC10B14FF021
:10316000FF3010BD012084F82900002010BD10B5EB
:10317000044694F8290088B104F12A0104F11C00E6
:1031800000F094FC28B9002104F11C0000F071FC4F
:1031900010B14FF0FF3010BD84F8290010BD0000C1
:1031A00070B582B006460D460DF1010106F11C0016
:1031B00000F03AFC002400285CD19DF8010018B111
:1031C00002283CD01FD359E0694606F11C0000F0EC
:1031D000C5FC00284ED19DF8000003284AD8DFE83E
:1031E00000F00E0A0602DFF8D016296048E0DFF88A
:1031F000CC06286044E0DFF8C816296040E0DFF81C
:10320000C40628603CE0694606F11C0000F0A6FCFC
:1032100000282FD19DF8000003282BD8DFE800F00C
:10322000020B0703E3E7DFF83816296028E0DFF830
:103230003406286024E0DFF83016296020E0694673
:1032400006F11C0000F08AFCA0B99DF800000328DC
:1032500010D8DFE800F0020B0703E8E7DFF85415A9
:1032600029600DE0DFF8F005286009E0DFF8EC15D3
:10327000296005E04FF0FF3002B070BD4FF0FF3421
:10328000204602B070BD000070B582B006460D4603
:103290000DF1010106F11C0000F0C6FB002428B965
:1032A000694606F11C0000F001FC18B14FF0FF3038
:1032B00002B070BD9DF801109DF80000022910D1E8
:1032C000092839D8DFE800F016181C2024282C30F3
:1032D0000509DFF80406286030E0DFF800162960F1
:1032E0002CE0092828D8DFE800F005070B0F13179A
:1032F0001B1F27232C6021E04FF07E5129601DE029
:10330000DFF8DC05286019E0DFF8D815296015E042
:10331000DFF8D405286011E0DFF8D01529600DE052
:10332000DFF8CC05286009E0DFF8A815296005E082
:10333000DFF8C005286001E04FF0FF34204602B0FE
:1033400070BD000000B581B090F82910DFED3A0A99
:103350000129B4EE600A37D1F1EE10FA2CD4DFED7A
:10336000370AB4EE600AF1EE10FA48BF022123D406
:10337000DFED330AB4EE600AF1EE10FA48BF032124
:103380001AD4DFED300AB4EE600AF1EE10FA48BF4D
:10339000042111D4DFED2C0AB4EE600AF1EE10FA2C
:1033A00048BF052108D4DFED290AB4EE600AF1EE2A
:1033B00010FA4CBF062107211C3000F05AFBC0B3A5
:1033C0004FF0FF3001B000BDF1EE10FA48BF01210F
:1033D0002CD4DFED1A0AB4EE600AF1EE10FA48BF01
:1033E000022123D4DFED160AB4EE600AF1EE10FAE2
:1033F00048BF03211AD4DFED130AB4EE600AF1EEE0
:1034000010FA48BF042111D4DFED0F0AB4EE600AB0
:10341000F1EE10FA48BF052108D4DFED0C0AB4EE36
:10342000600AF1EE10FA4CBF0621072180F82A103D
:10343000002001B000BD00000100803F01002041DC
:103440000100C841010048420100C8420100484350
:1034500030B581B00D4669461C3000F07FFB00247A
:1034600018B14FF0FF3001B030BD9DF800000328C7
:103470000FD8DFE800F00205080B022129600AE0FE
:103480000420286007E00821296004E0102028605B
:1034900001E04FF0FF34204601B030BD00B50329F4
:1034A00081B0B8BF002107DB0529B8BF012103DBCC
:1034B0000929B4BF022103211C3000F036FB08B1FA
:1034C0004FF0FF3001B000BD70B584B005460C462A
:1034D000694605F11C0000F0A7FAC8B99DF8000084
:1034E00030B1022811D00ED34FF0FF3004B070BDC0
:1034F000102601A905F11C0000F066FB60B14FF039
:10350000FF3004B070BD4026F3E74FF48076F0E75B
:103510004FF0FF3004B070BDBDF9040090FBF6F031
:103520002080BDF9061091FBF6F16180BDF908001D
:1035300090FBF6F0A08004B0002070BD2DE9F041B2
:1035400084B080460C46694608F11C0000F06CFA15
:10355000002840F0A1809DF8000040B1022801D071
:1035600003D399E04FF4807702E0402700E0102772
:1035700001A908F11C0000F027FB002840F08C8016
:10358000BDF90400BDF9061090FBF7F6BDF908007F
:1035900091FBF7F590FBF7F70DF1010108F11C0025
:1035A00000F042FA002840F077809DF801000028E2
:1035B00033D0022801D018D36EE0694608F11C0010
:1035C00000F0CCFA002867D19DF80000032863D8EA
:1035D000DFE800F01D0805029FED760A37E09FED59
:1035E0009E0A34E09FED9D0A31E0694608F11C0017
:1035F00000F0B4FA00284FD19DF8000003284BD802
:10360000DFE800F01D0805029FED950A1FE09FED21
:10361000950A1CE09FED940A19E0694608F11C0028
:1036200000F09CFA002837D19DF80000032833D819
:10363000DFE800F00B0805029FED9F0A07E09FED11
:103640009F0A04E09FED9E0A01E09FED9E0A36B2BC
:1036500000EE906AF8EEE00A60EE800AFDEEE00A05
:10366000C4ED000A2DB200EE905AF8EEE00A60EECA
:10367000800AFDEEE00AC4ED010A3FB200EE907A46
:10368000F8EEE00A20EE800ABDEEC00A84ED020AE0
:10369000002004B0BDE8F0814FF0FF3004B0BDE879
:1036A000F08130B581B004460025C4B108682060BF
:1036B0004A6862608868A0600A7B2273086920619A
:1036C0004A69626188690FF21D31A06121626462FA
:1036D0000FF22D30E061206808B1804720B14FF033
:1036E000FF35284601B030BDA0680028F9D094F815
:1036F00028000028F5D1012104F11C0000F022FB74
:103700000028EED04FF0FF3001B030BD10B50446B8
:10371000012104F11C0000F0ADFA88B9022104F186
:103720001C0000F05AFA58B9032104F11C0000F003
:103730006DFA28B9002104F11C0000F0CFFA10B195
:103740004FF0FF3010BD012084F82800002010BD8C
:1037500010B5044694F8290050B1022104F11C0070
:1037600000F03BFA10B14FF0FF3010BD84F8290093
:10377000002184F82810002010BD00B581B01C3055
:1037800000F0A3FA08B14FF0FF3001B000BD0020F7
:1037900008704870C8704860886008613222CA604A
:1037A00001235248886100228B704A6100207047D3
:1037B000000000007B943B4310B5044694F82900B8
:1037C00001280BD0002104F11C0000F006FA10B112
:1037D0004FF0FF3010BD012084F82900002010BDFB
:1037E00010B5044694F8290050B1022104F11C00E0
:1037F00000F0F3F910B14FF0FF3010BD84F829004C
:1038000010BD4FF07F5008600020704730B581B088
:103810000D4669461C3000F012FA002418B14FF032
:10382000FF3001B030BD9DF8000003280FD8DFE85D
:1038300000F00205080B2A4929600AE02E4828609A
:1038400007E02949296004E02848286001E04FF09A
:10385000FF34204601B030BD7B147A427B14FA411C
:103860009A993B427B147A41713DFA40DFED160A8A
:1038700000B5B4EE600AF1EE10FA81B048BF002145
:1038800011D4DFED120AB4EE600AF1EE10FA48BF6F
:10389000012108D4DFED0E0AB4EE600AF1EE10FA51
:1038A0004CBF022103211C3000F0B0F908B14FF0E9
:1038B000FF3001B000BD00001F853B419A9979405F
:1038C0009A99F93F48E17A3F010020410100A04167
:1038D000010048420000C8430080CA440000A845D7
:1038E000000020410000C841000048420000C842DA
:1038F000000048430000A8440000A04132200860B6
:10390000002070470020704710B582B00C46694611
:103910001C3000F0C8F918B14FF0FF3002B010BDF4
:10392000BDF800002080BDF802106180BDF80400E1
:10393000A08002B0002010BD10B582B00C466946D0
:103940001C3000F0B0F918B14FF0FF3002B010BDDC
:10395000BDF9000000EE100AB8EEC00AF7EE080A42
:1039600060EE200AFDEEE00AC4ED000AF7EE080A58
:10397000BDF9020000EE100AB8EEC00A60EE200A9F
:10398000FDEEE00AC4ED010AF7EE080ABDF90400F5
:1039900000EE100AB8EEC00A60EE200AFDEEE00A62
:1039A000C4ED020A002002B010BD000070B58568A9
:1039B000047B4669002D0CBF41F0800141F04001BD
:1039C0002046B04770BD000070B58568047B06696D
:1039D000002D0CBF41F0800141F040012046B0476E
:1039E00070BD000070B58568047B4669002D0CBF72
:1039F00041F0800141F040012046B04770BD000019
:103A000070B58568047B0669002D0CBF41F080010C
:103A100041F040012046B04770BD000010B504469B
:103A2000A0682468A04710BD70B5054682B00C465A
:103A3000A8686E6801236A462021B04730B9A8689B
:103A40006D6801230DF101022321A8479DF80010A4
:103A5000C1F3C00119B10221217002B070BD9DF8FF
:103A60000110C1F3C002511E8941C90F217002B07B
:103A700070BD70B5044682B00D46A068666801232B
:103A80006A462021B04768B99DF8000000F00F0099
:103A900040EA05108DF800000123A06824686A46FA
:103AA0002021A04702B070BD0000000030B50446E0
:103AB00081B0A06864680D4601236A462021A047B2
:103AC0009DF800100909491E08292AD8DFE801F0ED
:103AD00005090D1115191D2125000121297001B0BD
:103AE00030BD0221297001B030BD0321297001B021
:103AF00030BD0421297001B030BD0521297001B00D
:103B000030BD0621297001B030BD0721297001B0F8
:103B100030BD0821297001B030BD0921297001B0E4
:103B200030BD0021297001B030BD70B5044682B0AF
:103B30000D46A068666801236A462321B04758B93C
:103B40009DF8000065F305108DF800000123A068C2
:103B500024686A462321A04702B070BD30B50446F0
:103B600081B0A06864680D4601236A462321A047FE
:103B70009DF80010090901F00301012906D004D3C2
:103B8000032903D038BF022100D30021297001B0DE
:103B900030BD70B5044682B00D46A068666801234A
:103BA0006A462321B04768B99DF8000000F07F0005
:103BB00040EAC5108DF800000123A06824686A4619
:103BC0002321A04702B070BD10B504460A46A06884
:103BD000646806232821A04710BD70B5044682B052
:103BE0000D46A068666801236A466021B04758B94F
:103BF0009DF8000065F301008DF800000123A06826
:103C000024686A466021A04702B070BD70B50446C2
:103C100082B00D46A068666801236A466021B047FD
:103C200058B99DF8000065F383008DF8000001236A
:103C3000A06824686A466021A04702B070BD30B514
:103C4000044681B0A06864680D4601236A4660217D
:103C5000A0479DF80010890801F00301012906D052
:103C600004D3032903D038BF022100D300212970D7
:103C700001B030BD70B5044682B00D46A0686668DC
:103C800001236A466221B04758B99DF8000065F3E8
:103C900004108DF800000123A06824686A466221A0
:103CA000A04702B070BD10B504460A46A06864681B
:103CB00006236821A04710BD10B504460A46A06837
:103CC000646801230F21A04710BD10B504460A46C1
:103CD000A068646801234F21A04710BD70B5044659
:103CE00082B00D46A068666801236A466221B0472B
:103CF00058B99DF8000065F341008DF800000123DC
:103D0000A06824686A466221A04702B070BD70B501
:103D1000044682B00D46A068666801236A462E21DB
:103D2000B04768B99DF8000000F03F0040EA8510F8
:103D30008DF800000123A06824686A462E21A04760
:103D400002B070BD70B5044682B00D46A0686668CA
:103D500001236A466221B04758B99DF8000065F317
:103D600045108DF800000123A06824686A4662218E
:103D7000A04702B070BD00002DE9F043050081B0FE
:103D800000F0FF81DFF8D077BC68FE682878C106B4
:103D900004F00C0406F0030640F1E4811CB10C2C85
:103DA00008BF012E5AD13868810703D5A8690028B9
:103DB00000F0E781396808074EBF3968D7F89410DA
:103DC0000909286A01F0F001814216D200F085FB52
:103DD000002840F0D681386840F008003860396823
:103DE000286A21F0F001014339607968E86921F41B
:103DF0007F4141EA0021796017E0386840F008000F
:103E000038603968286A21F0F00101433960796827
:103E1000E86921F47F4141EA002179602CB9286AE0
:103E200000F05BFB002840F0AC8100F0F6FABA68C5
:103E3000DFF83017C2F30312895CDFF8202701F0A6
:103E40001F01C8401060DFF81807006800F0A0FBF1
:103E5000010000F0878101B0BDE8F083A869A0B13E
:103E6000396841F00101396000F0B6FB80463868DE
:103E7000810700F1668100F0AFFBA0EB080003288A
:103E8000F5D3032001B0BDE8F08338684008400056
:103E9000386000F0A1FB80463868810740F16281FC
:103EA00000F09AFBA0EB08000328F5D3032001B033
:103EB000BDE8F0836868B0F5803F04D1386840F40D
:103EC0008030386011E0B0F5A02F386806D140F49A
:103ED00080203860396841F4803105E020F480307A
:103EE0003860396821F480213960686880B100F059
:103EF00073FB80463868810300F1478100F06CFB5A
:103F0000A0EB08006528F5D3032001B0BDE8F083DD
:103F100000F062FB80463868810340F1368100F092
:103F20005BFBA0EB08006528F5D3032001B0BDE8DA
:103F3000F08300BF00F050FB801B0328C0F04C81D1
:103F4000032001B0BDE8F083E86898B1396841F416
:103F50008071396000F040FB06463868410500F189
:103F6000248100F039FB801B0328F6D3032001B025
:103F7000BDE8F083386820F48070386000F02CFBD6
:103F800006463868410540F1178100F025FB801B8B
:103F90000328F6D3032001B0BDE8F08340084000B9
:103FA000C7F8940000F018FB4FEA0006D7F8940019
:103FB000810740F1168100F00FFB801B0328F5D329
:103FC000032001B0BDE8F0830528D7F8900008D1A0
:103FD00040F00400C7F89000D7F8900040F00100CE
:103FE00007E040084000C7F89000D7F8900020F0A4
:103FF0000400C7F89000A86898B100F0EDFA804678
:1040000041F28939D7F89000810700F1228100F050
:10401000E3FAA0EB08004845F4D3032001B0BDE863
:10402000F08300F0D9FA804641F28939D7F8900040
:10403000810740F10E8100F0CFFAA0EB080048455F
:10404000F4D3032001B0BDE8F08300F400328A42CB
:104050000FD1EA6B520800F4C001521EB1EB425F6F
:1040600007D1296C490800F0C060491EB0EB416FD0
:1040700028D00C2C00F085803868410100F1818047
:104080003868C10000F17D80386820F080703860A9
:1040900000F0A2FA04463868810140F1008100F086
:1040A0009BFA001B0328F6D3032001B0BDE8F08380
:1040B00000F092FA401B0328C0F01881032001B0E1
:1040C000BDE8F0833868810100F11481386840F060
:1040D00080703860F96841F08071F96000F07CFA16
:1040E00004463868810100F1058100F075FA001B73
:1040F0000328F6D3032001B0BDE8F0830C2C40D098
:10410000386820F080703860396811F0205F03D182
:10411000F86880088000F860F968DFF84C04014016
:10412000F96000F059FA04463868810140F1E280F4
:1041300000F052FA001B0328F6D3032001B0BDE8BB
:10414000F083386840F0080038603968286A21F048
:10415000F001014339607968E86921F47F4141EA5F
:10416000002179602878C1070FD5082C04D00C2CC9
:1041700008BF032E7FF49EAE3868810305D56868BA
:1041800018B9012001B0BDE8F0832878810713D564
:10419000042C04D00C2C08BF022E7FF4D5AE386856
:1041A000410502D5E8680028EBD07868296920F03D
:1041B000F85040EA016078602878010711D56869F5
:1041C0000028D7F894003FF4E9AE40F00100C7F8AA
:1041D000940000F001FA0646D7F8940081077FF5B5
:1041E000A9AE2878410739D5B86D0026C10009D499
:1041F000B86D40F08050B8650126B86D00F0805071
:1042000000900098DFF86483D8F80000C10517D447
:10421000D8F8000040F48070C8F8000000F0DCF925
:104220004FEA0009D8F80000C10509D400F0D4F91C
:10423000A0EB09000328F5D3032001B0BDE8F0830B
:10424000A86801287FF4C0AED7F8900040F00100C4
:10425000CFE61EB1B86D20F08050B865A86A00287E
:1042600048D002287FF44AAFF868EA6A00F00301F8
:10427000914201BF00F070012A6B521EB1EB021F88
:104280007FF4F7AE6A6B00F4FE41B1EB022F7FF4CE
:10429000F0AEA96B07290CBF00210121D5E6FA6811
:1042A000DFF8CC12E86A0A40296B0243491E686BAA
:1042B00042EA0112E96B490842EA0022286C491ED1
:1042C000400842EA4152401E42EA4062A86B00099F
:1042D00042EA4042FA60386840F080703860F9681D
:1042E00041F08071F96000F077F905463868810186
:1042F0007FF5DEAE002001B0BDE8F0832DE9F0438C
:10430000040081B0884600F08480DFF8686230687D
:1043100000F00700404509D23168C90848EAC101E8
:104320003160306800F00700404572D12078DFF836
:104330002852C10755D56068032802D129688A012F
:1043400008E0022802D129688A0303E000282968CE
:1043500005D18A0705D4012001B0BDE8F0834A05E4
:1043600057D5A968890840EA8100A86041F28939D7
:1043700000F032F90746A868616800F00C00B0EB65
:10438000810F2ED000F028F9C01B4845F3D303203D
:1043900001B0BDE8F0832078410705D5AA68E06840
:1043A00022F4E0620243AA602178080706D5A968D2
:1043B000206921F4605141EAC001A96000F02DF8A4
:1043C000AA686849C2F30312895C644A01B001F02B
:1043D0001F01C8401060BDE8F0436148006800F06C
:1043E000D7B82078810705D5AA68A06822F0F00226
:1043F0000243AA60316801F007018845CBD23068DA
:10440000C00848EAC0003060316801F0070141454A
:10441000C1D0012001B0BDE8F0834F4B9968D3F8BB
:104420000CC00022002011F00C010CF0030C04D091
:104430000C2914D1BCF1010F1BD11A685FEA027C70
:10444000DFF838C159BFD3F89420C2F303221A68A9
:10445000C2F303125CF8222049B9104670470429C0
:1044600001D14748704708291ED1464870470C299A
:104470001AD1D86800F00300022803D0032808BF2F
:10448000404A00E03E4AD968D868DB68C0F306209D
:104490004243C1F30210C3F34161401C491CB2FB0B
:1044A000F0F04900B0FBF1F070472C48324A006848
:1044B00013683549C3F30222895C01F01F01C8402B
:1044C000704726482C4A006813682F49C3F3C2225C
:1044D000895C01F01F01C840704770B52B4E82B057
:1044E000044630680025C10002D500F07BF80EE0DC
:1044F000306840F080503060316801F080510091A8
:10450000009800F06FF8316821F080513160B0F50B
:10451000007F05D1802C0DD9A12C0AD3022509E0FA
:10452000802C88BF032505D801D1022502E0702C1C
:1045300000D10125D6F8A80FC00845EAC000C6F88A
:10454000A80FD6F8A80F00F00700A84214BF01205A
:10455000002002B070BD00000010024014090020CD
:10456000E4080020489C0008FFFFEEFE00700040B9
:104570008C809DF90020024008100240ECA2000847
:104580000024F40000127A0010A400085810024021
:1045900070B50F4E0446B0680025A8B14FF47A718B
:1045A0000C4AB1FBF0F11068B0FBF1F000F063F8D9
:1045B00050B9102C08D2002221464FF0FF3000F0F5
:1045C00026F87460284670BD0125284670BD00BFDE
:1045D000E00800201409002001480068704700BF6F
:1045E000E0080020DFF80800006800F4C0607047B1
:1045F00000700040284B19684FF6FF02000211407E
:1046000000F4E0600843254908431860704730B45F
:10461000214B1C68C4F30223C3F10704052C28BFF7
:1046200004241D1D072D34BF0023DB1E012505FAC0
:1046300004F4641E2140994005FA03F35B1E1A40FE
:1046400011430901020003D41548815430BC70475E
:10465000144B02F00F021A4402F8041C30BC7047DD
:10466000010007D4012200F01F010F4B8A404009CE
:1046700043F820207047401EB0F1807F01D3012015
:1046800070470A494860F02081F8130D00228A60C3
:1046900007200860002070470CED00E00000FA05DC
:1046A00000E400E018ED00E000E100E010E000E0D0
:1046B00010B5040001D1012010BD94F8410028B9C3
:1046C000002184F84010204600F035FC242084F8B6
:1046D000410020680168490849000160606821685C
:1046E00020F0706008612068816821F400418160D9
:1046F000E06821680128A0680CBF40F4004040F445
:1047000004408860E068022803D120684FF400610B
:1047100041602068416841F0007141F4004141600E
:104720002068C16821F40041C16060692169A26903
:104730000143206841EA0221C160206AE1692268E0
:10474000014311602068016841F00101016000200F
:104750006064202184F84110206384F8420010BD79
:1047600010B5040001D1012010BD242084F84100BF
:1047700020680168490849000160204600F001FCFA
:104780000020606484F84100206384F8420084F8CB
:10479000400010BD2DE9F04F054683B095F841006B
:1047A00020280E4692469B4640F0D480DDF830909B
:1047B000B9F1000F02D00D9F380006D14FF40071FF
:1047C0006964012003B0BDE8F08F95F8400001282E
:1047D00000F0C080012185F84010FFF7FDFE804603
:1047E00028688169080440F1B980FFF7F5FEA0EB65
:1047F00008001A28F4D3686C40F020006864202177
:1048000085F84110002085F8420085F8400003B08B
:104810000120BDE8F08F688DDFF8B873B0F5807FB8
:10482000C6F309062FD3FF212985DFF8AC032968D9
:104830004A683A40324302434A60286881698A07DD
:104840002DD442462146284600F0C9FA002869D1F5
:1048500014F1010FF1D0FFF7BFFEA0EB0800844276
:1048600001D3002CE9D1686C40F02000686420215D
:1048700085F84110002085F8420085F8400003B01B
:104880000120BDE8F08F688D2885C0B229684A688C
:104890003A40324342EA004242F00072CCE7696A91
:1048A0000A788262686A411C6962688D411E698566
:1048B000288D411E2985688D58B389B249BB286867
:1048C00081690A066AD414F1010FF8D0FFF784FE5B
:1048D000A0EB0800844201D3002CF0D1686C40F0BA
:1048E00020006864202185F84110002085F84200EE
:1048F00085F8400003B00120BDE8F08F698D29855F
:10490000C9B242683A40324342EA014242F0007280
:104910004260688D002890D121464246284600F02A
:1049200039FA18B1012003B0BDE8F08F29682020C2
:10493000C8612968DFF8A4024A6802404A60202161
:1049400085F84110002085F8420085F8400003B04A
:10495000BDE8F08F022003B0BDE8F08F0E9C21204F
:1049600085F84100402185F8421000206864C5F8B0
:1049700024906F8568635B465246CDF804800094AE
:104980003146284600F033F900283FF444AF0020B8
:1049900085F8400003B00120BDE8F08F698DB1F5C6
:1049A000807FABD3FF222A854168DFF82C22394073
:1049B000314311434160ACE72DE9F04F074683B026
:1049C00097F8410020280E4692469B4640F0CE8044
:1049D000DDF83090B9F1000F1CBFDDF83480B8F17C
:1049E000000F06D14FF400717964012003B0BDE8D7
:1049F000F08F97F84000012800F0B880012187F877
:104A00004010FFF7E9FD054638688169080440F168
:104A1000B180FFF7E1FD401B1A28F5D3786C40F018
:104A200020007864202187F84110002087F8420098
:104A300087F8400003B00120BDE8F08F788DDFF8E3
:104A4000A011B0F5807FC6F3090627D3FF223A856F
:104A5000DFF890013A6853681940314301435160CF
:104A6000386881694A0727D414F1010FF8D0FFF79D
:104A7000B3FD401B844201D3002CF1D1786C40F08F
:104A800020007864202187F84110002087F8420038
:104A900087F8400003B00120BDE8F08F788D38859D
:104AA000C0B23A6853681940314341EA004141F0CD
:104AB000024141F41051D2E7406A796A0870786A7D
:104AC000421C388D7A62411E3985788D421E7A8566
:104AD000788D50B389B241BB386881690A0669D4C0
:104AE00014F1010FF8D0FFF777FD401B844201D38A
:104AF000002CF1D1786C40F020007864202187F8F8
:104B00004110002087F8420087F8400003B00120E0
:104B1000BDE8F08F7A8D3A85D2B2436819403143AF
:104B200041EA024141F000714160788D002897D13F
:104B30002A462146384600F02DF918B1012003B06D
:104B4000BDE8F08F39682020C8613968DFF88C0033
:104B50004A6802404A60202187F84110002087F807
:104B6000420087F8400003B0BDE8F08F022003B098
:104B7000BDE8F08F0E9C222087F84100402187F885
:104B8000421000207864C7F82490A7F82A80786340
:104B90005B465246019500943146384600F076F85F
:104BA00000283FF44BAF002087F8400003B00120FD
:104BB000BDE8F08F7A8DDFF81C10B2F5807FA9D3A5
:104BC000FF233B854268DFF8103011403143194321
:104BD000AAE70000009C00FC0000FF0100E800FEC6
:104BE000009800FC0024FF8190F8410070472DE9F7
:104BF000F041054616462A68069C079F22489846BB
:104C000053680340C1F3090119435FFA88F041EA90
:104C1000004141F0014141F4005151603A462146C2
:104C2000284600F08FF840BBB8F1010F08D0296882
:104C3000300A88623A462146284600F083F8E0B9F7
:104C40002868F6B2866229688869010618D414F1CA
:104C5000010FF8D0FFF7C0FCC01B844201D3002C29
:104C6000F1D12021686C40F02000686485F8411083
:104C7000002085F8420085F840000120BDE8F08161
:104C80000020BDE8F0810000009800FC2DE9F04113
:104C9000054616462A68069C079FDFF8C401984619
:104CA00053680340C1F3090119435FFA88F041EAF0
:104CB000004141F0004141F4005151603A46214623
:104CC000284600F03FF840BBB8F1010F08D0296832
:104CD000300A88623A462146284600F033F8E0B9A7
:104CE0002868F6B2866229688869410618D414F1EA
:104CF000010FF8D0FFF770FCC01B844201D3002CD9
:104D0000F1D12021686C40F02000686485F84110E2
:104D1000002085F8420085F840000120BDE8F081C0
:104D20000020BDE8F0810000006881698A0744BF67
:104D3000002181628169CA0703D4816941F00101C0
:104D40008161704770B505460C4616462868816932
:104D500088071DD432462146284600F040F8A8B9FD
:104D600014F1010FF2D0FFF737FC801B844201D30E
:104D7000002CEBD1686C40F020006864202185F89D
:104D80004110002085F8420085F84000012070BDE8
:104D9000002070BD70B505460C461646286881692E
:104DA00088061AD432462146284600F018F890B9F1
:104DB000FFF712FC801B844201D3002CEED1686CFB
:104DC00040F020006864202185F84110002085F81B
:104DD000420085F84000012070BD002070BD70B514
:104DE00005460C4628688169C80616461BD5286802
:104DF00081698A0619D414F1010FF8D0FFF7ECFB92
:104E0000801B844201D3002CF1D1686C40F020005B
:104E10006864202185F84110002085F8420085F85B
:104E20004000012070BD002070BD1021C161202014
:104E30002A68D0612846FFF777FF296809484A6841
:104E400002404A602020696C41F00401696485F8E1
:104E50004100002185F8421085F84010012070BD06
:104E6000009800FC00E800FE10B54B4CB4B0206880
:104E700040F080502060216801F08051009100983E
:104E800000F094F84549086890B90C21019100227E
:104E900001210B920391069201A8FEF76DFF08B164
:104EA00000F0F6FB4FF4003112914FF4807211E0E4
:104EB0000C210191002201210B920691039201A87D
:104EC000FEF75AFF08B100F0E3FB4FF400311291F6
:104ED0004FF40072339212A800F02CFC08B100F0DD
:104EE000D7FBA06B40F40040A06300220F212920D3
:104EF000FFF78DFB2920FFF7B3FB34B010BD00682E
:104F00002749884200D0704700B5234881B0026825
:104F100042F0020202600022006800F002000090ED
:104F20000F2100981D20FFF772FB01B05DF804EB24
:104F30001D20FFF795BB00B51A4887B0C16841F442
:104F40000011C160C16801F400110091009902686C
:104F500042F0020202604FF44071006800F002006B
:104F600000901222009810480191029201210391B1
:104F7000032204210591049201A900F0BDFE07B0AF
:104F800000BD0548016821F4001101604FF4407133
:104F9000054800F09FBF000058100240481600204E
:104FA000000400404C100240000400480248016820
:104FB00041F48071016070470070004010B5ADF59C
:104FC000287D01F03BF801F049F800220E214FF056
:104FD000FF30FFF71CFB002001F0FEF8012100204C
:104FE00001F04AF9DFF82407DFF82447016841F4AB
:104FF000805101600321006800F480500090009807
:10500000002001F09DF90421022001F099F9052109
:10501000002001F0EDFB0221012001F0E9FB9FEDF2
:10502000250A0221002001F085FA04220221002035
:1050300001F09EFAB3EE090A0221012001F0A5FC5D
:1050400001F0BCFD01A907A801F0BCFD01F05CFE68
:105050000C215591002201215F9257915A9255A837
:10506000FEF78AFE00281ABF0120F921FF21E16026
:105070000A467F21DFF89C36A1601860C4F88020C2
:105080004021DFF894062060002261602261A26165
:10509000E261204601F0A2FE70B1002001F0C4F8E8
:1050A000642002F095F8002001F0CDF8642002F0B1
:1050B0008FF8F2E70000C84201218DF803100122A9
:1050C0008DF802108DF801208DF8002069462046E9
:1050D00001F06BFF60B1002001F0A6F8642002F03F
:1050E00077F8002001F0AFF8642002F071F8F2E7E1
:1050F0000021029105910691012202A9204601F0AA
:10510000BBFE60B1002001F08FF8642002F060F86F
:10511000002001F098F8642002F05AF8F2E7DFF876
:10512000FC05606249F63F41A1620020E0624F2128
:105130006063216304F1240002F060F84FF48050B2
:10514000109010A904F1240002F050F900210291FE
:10515000049104F1240002A902F068FA02F0B4FA02
:1051600084F8720010B901F05FF8ACE0002001F0A3
:105170005BF84FF4FA7002F02BF8002001F063F8AE
:10518000A1E0002202A9204601F0DBFE00226946D0
:10519000204601F05DFF9DF8080003998DF8570047
:1051A00064229DF809008DF858009DF80A008DF8DA
:1051B0005900D4F88000411A5143401C91FBF0F093
:1051C0008DF85A00E06FC10617D504F16402022180
:1051D000002001F08BF9616E04220DF1670002F0EE
:1051E00017FCA16E04220DF16B0002F011FCE16EC0
:1051F00004220DF16F0002F00BFCE06F810616D562
:1052000002AA0121002001F071F9029904220DF196
:10521000730002F0FDFB039904220DF1770002F008
:10522000F7FB049904220DF17B0002F0F1FBE06F23
:10523000410616D502AA0421022001F057F902996D
:1052400004220DF17F0002F0E3FB039904220DF12B
:10525000830002F0DDFB049904220DF1870002F0C7
:10526000D7FBE06F410708D56A460421002001F012
:10527000AAFB0DF16301009A0A60E06F810708D56F
:105280006A460121002001F09EFB0DF15F01009AAA
:105290000A60E06FC1070BD504F1840202210120EE
:1052A00001F091FB04F184000DF15B0102680A60DA
:1052B00014A800F0F5F814A802F0C6FB3B201490E7
:1052C00014A801F0FBFC66A801F082FC012807D0BD
:1052D0009DF89C01322804BF66A802F0BFFB00BF06
:1052E00094F87000012835D1002184F87010002056
:1052F00000F0A9FF02F065FA002000F0B3FF4FF4C0
:10530000FA7001F065FF002000F0ACFF4FF47A70F6
:1053100001F05EFF002000F0A5FF4FF4FA7001F0ED
:1053200057FF002000F09EFF4FF47A7001F050FF0D
:10533000002000F097FF4FF4FA7001F049FF0020C1
:1053400000F090FF4FF47A7001F042FF5FF001002F
:1053500084F8720094F87400012819D1002184F8AF
:10536000741004F1240001F077FF0221002001F005
:105370009EF80221012001F0EAFAE06F20F011000E
:10538000E06794F8770002F0E5F9002084F87100F6
:1053900094F87500012817D1002184F8751084F85D
:1053A00076000221002001F063F80221012001F0C3
:1053B000B0FAE06F40F01100E06704F1240001F062
:1053C00037FF012084F8710094F8730001287FF4FE
:1053D0007AAF002184F8731094F8710000283FF42C
:1053E000D0AE01282DD1E16FC80617D504F16402B3
:1053F0000221002001F07AF8616E04220DF16700AD
:1054000002F006FBA16E04220DF16B0002F000FB1E
:10541000E16E04220DF16F0002F0FAFAE06FC107AD
:105420000BD504F184020221012001F0CCFA04F131
:1054300084000DF15B0102680A6014A800F030F8E6
:1054400041E7002000F0F0FE642001F0C1FE0020E2
:1054500000F0F9FE642001F0BBFEF2E730B587B042
:105460000446AB4D002201A9284601F06AFD002246
:105470006946284601F0ECFD9DF8010020709DF87A
:10548000021061709DF80300A0709DF80410E17097
:105490009DF8050020719DF80600607107B030BDD1
:1054A00070B584B0054600BF9EA1994C684691EC4A
:1054B000040A80EC040AE06FC1062CD5E06FC10736
:1054C00029D594ED190AD4F88410D4ED1A0A039161
:1054D000B8EEC00A8DED000AF8EEE00A94ED1B0A62
:1054E000CDED010AB8EEC00A8DED020A002000F0F1
:1054F0009BFE04F17801684601F062FB002000F099
:10550000A2FE94F8710040B994F87810042205F1D5
:105510003B0002F07DFA04B070BD012869D194F817
:10552000760001281CD1002184F87610C4F8881078
:1055300084F8771000267A4D2846FFF78FFF94F8FD
:105540007700AB1D0146002203F83120401CEA1D04
:1055500002F8316084F8796084F8770004B070BD97
:1055600094F87700142808DB02F0F4F810B9012051
:1055700084F87400002184F8771094F8780094F887
:10558000791081421BD0012815D194F87700644D21
:1055900005EBC000FFF762FF94F87700AB1D0146F2
:1055A000012203F83120EB1D94F8782003F8312014
:1055B000401C84F8770094F8780084F8790041F66C
:1055C0004C51D4F8880088420ED394F8770002F04A
:1055D000C1F810B9012084F874000021C4F88810C3
:1055E00084F8771004B070BD401CC4F8880004B083
:1055F00070BD002000F018FE642001F0E9FD0020DD
:1056000000F021FE642001F0E3FDF2E700B581B077
:105610008DF803008DF801108DF802208DF8003010
:10562000002269463A4801F0C0FC60B1002000F059
:10563000FBFD642001F0CCFD002000F004FE64209E
:1056400001F0C6FDF2E701B000BD10B586B0002440
:105650008DF802208DF800008DF8011000220192D3
:10566000039204928DF803406946294801F004FC36
:1056700060B1002000F0D8FD642001F0A9FD0020F9
:1056800000F0E1FD642001F0A3FDF2E706B010BDDB
:1056900000B581B0002000F0C7FD642001F098FD46
:1056A000002000F0D0FD642001F092FDF2E7B0F59B
:1056B000005F00D0704700B581B0002000F028FEE8
:1056C00030B9134991F8710020B9012081F87500B3
:1056D00001B000BD012808BF81F87400F8D0002097
:1056E00000F0A2FD642001F073FD002000F0ABFD8E
:1056F000642001F06DFDF2E700680849884203D19B
:105700000348012280F873207047000048100240CF
:1057100054080020481600200028004000040040E3
:10572000D404002000000000000000000000000081
:10573000000000002DE9F047054682B02868DFF838
:105740005C6300270105B84625D5686E70B1B0F5D9
:10575000800F18D0B0F5000F03D0B0F5400F0AD07D
:1057600017E0326842F48032326005E00021281DE3
:1057700000F096F907466FB9F16F686E21F44001A9
:105780000143F16707E0002105F1200000F022FA53
:10579000F0E70127B8462868C10426D5A86EA8B14D
:1057A000B0F1807F18D0B0F1007F03D0B0F1407F1E
:1057B00004D018E0316841F480313160A7B9F16F4D
:1057C000A86E21F040710143F1670EE00021281D11
:1057D00000F066F90746F1E7002105F1200000F02E
:1057E000F9F90746EAE70127B846286881032BD56F
:1057F000F06C0024C10009D4F06C40F08050F064DB
:105800000124F06C00F0805000900098DFF8C09305
:10581000D9F8000040F48070C9F80000FEF7DCFE03
:105820004FEA000AD9F80000C10500F10281FEF735
:10583000D3FEA0EB0A000328F4D30327B8461CB11B
:10584000F06C20F08050F0642878C10705D5F26F25
:10585000A86B920840EA8202F2672978880705D58A
:10586000F16FE86B21F00C010143F16729784807DB
:1058700005D5F16F286C21F030010143F1672978DB
:10588000080705D5F16F686C21F0C0010143F1678D
:105890002978C80605D5F16FA86C21F44071014341
:1058A000F1672978880605D5F16FE86C21F440612D
:1058B0000143F1672968880505D5F16FE86D21F48A
:1058C00040210143F1672968480505D5F16F286E2D
:1058D00021F440110143F1672978480605D5F16F9D
:1058E000286D21F440510143F1672978080605D558
:1058F000F16F686D21F440410143F1672968C805E3
:1059000005D5F16FA86D21F440310143F167296895
:10591000880422D5F16FE86E21F040610143F16700
:10592000E86EB0F1006F0ED1306840F48010306046
:1059300013E000BFFEF750FEC01B4845C0F09E803C
:105940004FF003087BE7B0F1806F06D10121281DDD
:1059500000F0A6F8010018BF80462868010318D59A
:10596000F26F286F22F040620243F267286FB0F1B5
:10597000006F04D1306840F48010306009E0B0F16D
:10598000806F06D10121281D00F08AF8010018BFA0
:1059900080462868410318D5F26F686F22F0406294
:1059A0000243F267686FB0F1006F04D1306840F4D1
:1059B0008010306009E0B0F1806F06D10121281D10
:1059C00000F06EF8010018BF80462868410419D520
:1059D000F26FA86F22F040520243F267A86FB0F155
:1059E000805F04D10221281D00F05AF807E0B0F1D1
:1059F000005F07D1022105F1200000F0EBF8010063
:105A000018BF80462868010405D5F26FE86F22F0C0
:105A100080420243F2672968C80306D5F16FD5F8C2
:105A2000800021F000410143F167404602B0BDE82B
:105A3000F087002F7FF402AFD6F8840010F4407096
:105A40001CBFD5F88410884211D0D6F88400D6F84F
:105A5000841041F48031C6F8841020F44070D6F8E8
:105A6000841021F48031C6F88410C6F88400C00781
:105A700009D5FEF7B1FD074641F28939D6F8840011
:105A800081077FF557AFD6F88420D5F8840022F43B
:105A900040720243C6F88420D1E600000C10024098
:105AA0002DE9F0410746DFF8406238680C46F1689E
:105AB000002511F0030F11D0F16801F003018142BC
:105AC00043D1002841D0F0687968C0F30210401C2F
:105AD000884219D001252846BDE8F081012807D069
